:040000006F20800AE3
:10000400000000000000000090000020A204002076
:10001400A9BDF9F3900000200000000000000000DA
:10002400900000209000002000000000000000006C
:10003400900000200000000090000020000000005C
:1000440090000020900000209000002090000020EC
:1000540090000020900000209000002090000020DC
:1000640090000020900000209000002090000020CC
:1000740096050020900000209000002090000020B1
:1000840090000020900000209000002090000020AC
:1000940001A04111B7170040985F3AC6945F3247F8
:1000A400E39CE6FE32454101828073270080218B68
:1000B4009387818709CB7327008023ACE18698431B
:1000C4005D9B731007800100010037170040930601
:1000D40070052300D704930680FA2300D704010097
:1000E40001008346B70493F6F60DA305D704230055
:1000F4000704732600809443A18AD18E73900680EE
:1001040023AC01860100010093760502638406187E
:100114000347A700118B25E773270080218B09CBA8
:100124007327008023ACE18698435D9B731007809E
:100134000100010037170040930670052300D7041F
:10014400930680FA2300D704010001008346A70028
:1001540093E646002305D70023000704F326008016
:100164009843218B558F7310078023AC01860100BF
:1001740001001307004B010001007D176DFF732779
:100184000080218B09CB7327008023ACE186984340
:100194005D9B731007800100010037170040930630
:1001A40070052300D704930680FA2300D7040100C6
:1001B40001007D892314A700010001000100010052
:1001C40023000704F32600809843218B558F731076
:1001D400078023AC01860100010073270080218B76
:1001E40009CB7327008023ACE18698435D9B731091
:1001F40007800100010037170040930670052300B3
:10020400D704930680FA2300D704010001000100FB
:100214000100B726004013061005A383C6802300FF
:100224000704F32600809843218B558F73100780B1
:1002340023AC01860100010073270080218B09CBC8
:100244007327008023ACE18698435D9B731007807D
:100254000100010037170040930670052300D704FE
:10026400930680FA2300D704010001008346B704F3
:1002740093E60608A305D704230007047327008028
:100284009C43A18BD98F7390078023AC0186010016
:100294000100828093760504638B06140347A7004C
:1002A400418B25E773270080218B09CB73270080BE
:1002B40023ACE18698435D9B731007800100010025
:1002C40037170040930670052300D704930680FA7D
:1002D4002300D704010001008346A70093E606012A
:1002E4002305D70023000704F32600809843218BBD
:1002F400558F7310078023AC01860100010013079A
:10030400007D010001007D176DFF73270080218BA4
:1003140009CB7327008023ACE18698435D9B73105F
:100324000780010001003717004093067005230081
:10033400D704930680FA2300D704010001009376C2
:10034400F50193E606042314D7000100010001001F
:10035400010023000704F32600809843218B558F66
:100364007310078023AC01860100010013076004A9
:100374006310E50473270080218B09CB7327008069
:1003840023ACE18698435D9B731007800100010054
:1003940037170040930670052300D704930680FAAC
:1003A4002300D70401000100B72600400946B5B573
:1003B40073270080218B09CB7327008023ACE1864F
:1003C40098435D9B731007800100010037170040BC
:1003D400930670052300D704930680FA2300D704FC
:1003E40001000100B7260040130620053DB5732720
:1003F4000080218B09CB7327008023ACE1869843CE
:100404005D9B7310078001000100371700409306BD
:1004140070052300D704930680FA2300D704010053
:1004240001008356870093E6060C2314D700C5BB4E
:100434004111814601468145114506C6152CF32715
:100444000080A18B9386818789CBF327008023AC1E
:10045400F1869C42DD9B7390078001000100B71771
:100464000040130770052380E704130780FA2380F4
:10047400E7040100010003C767041367170023831F
:10048400E70423800704732700809C42A18BD98F43
:100494007390078023AC018601000100B240410142
:1004A40082808146014681451145D922F327008087
:1004B400A18B1387818789CBF327008023ACF18636
:1004C4001C43DD9B7390078001000100B7170040B7
:1004D400930670052380D704930680FA2380D704FB
:1004E40001000100FD562396D70223800704F3265A
:1004F40000801C43A18BD58F7390078023AC0186A9
:1005040001000100F3270080A18B89CBF327008031
:1005140023ACF1861C43DD9B73900780010001002E
:10052400B7170040930670052380D704930680FA1A
:100534002380D7040100010083C6670493E61600F4
:100544002383D70423800704F32600801C43A18B54
:10055400D58F7390078023AC01860100010001A0B0
:10056400BD473305F50201007D1575FD82804111FB
:1005740022C426C206C6AA84014463179400B2406A
:10058400224492444101828005041305803E4204C2
:10059400C13F4180DDB7B71700401307000323882C
:1005A400E702854723A6F18C73002030411106C66B
:1005B400AD25FDBF2303048015472303E480010018
:1005C4002302A480828083076480E3CE07FE230392
:1005D4000480828083076480E3CE07FE0345448061
:1005E400828083076480E3CE07FE2302A480828096
:1005F400411126C44AC24EC006C61377F50BAD4757
:10060400AA892E8995446306F70019456537653F25
:100614008D444E854537FD59FD1463983401B2402D
:10062400A24412498249410182801355090113757C
:10063400F50F453F2209CDB7011126CC06CEB704EC
:10064400080051371545BD37713769372AC6A53FAC
:1006540032459377150089EB136515001375F50F73
:10066400F240E24405618280FD14E9FC0145CDBFFE
:10067400397126DC4ADA4ED852D656D45AD25ED0D4
:1006840006DE62CE66CCB7E700E07D5783AA07009A
:1006940022C603AA470023A0E71823A2E718B71726
:1006A4000040130770052380E704130780FA2380B2
:1006B400E70483C74704930B75FFB684E20793FBF3
:1006C400FB0F8546AA892E8B328937240040E187A7
:1006D400015763FA76016308D500894613070002BF
:1006E4006313D5000157D98F93F7F70FB71C004058
:1006F4002382FC0411472303E4801305F00F5D3DBE
:10070400094CD135636D7C11B7050700DA9537873D
:100714000700795563F2E504B3879500636EF70229
:10072400370B0800A94733EB65016399F90689E49F
:100734008144513D26850DA0DA850945553D0509BD
:100744000345F9FFFD14050B693D81C49377FB0F45
:10075400FDF7DD3569FD7D55B717004013077005BA
:100764002380E704130780FA2380E70403C74704C0
:10077400418B2382E704F250B7E700E023A057112E
:1007840023A24711E25432445259C259325AA25A4E
:10079400125B825B724CE24C21618280A5476395B7
:1007A400F90685691309F00FB3069900B3742B0198
:1007B400B6941349F9FFB3749900856B33796901D1
:1007C400416B9387F9FFB3F7270199E363FC340185
:1007D40093D94900C147E3E637FF99BF0569C16969
:1007E4007D19D9B71305800D6388690113050002CB
:1007F4006384790113051008CA85DD3B353D21DD8D
:100804004E99B3843441D9B7DA852D45D533CA948A
:10081400E30099F205097D3BA30FA9FED5BF938799
:10082400F9FF93F7F70F6361FC0C83C71C041307EC
:100834003008631FF70437070800636BEB04B30742
:100844009B00B706100063F5D704334BEB008947D0
:100854006393F9068980D549E38C04ECDA8509456C
:10086400413B11090327C9FF91472320E480030773
:100874006480E34E07FE23033481FD17EDFBFD1472
:10088400110B81C49377FB0FE9FF7D3371F5E1B55B
:10089400B717004003C75704B707080013770702C8
:1008A40019E3B78707007955E378FBEA33079B0020
:1008B400E3FFE7F855B58547E382F9F2DA852D457C
:1008C400053B9389F4FFE38504E6293393F7390064
:1008D40091EB832604800327090093074900E39AD8
:1008E400E6E43E89CE84F1BFB5476396F90013056B
:1008F400900BC93135BDB1471305B00AE38BF9FE3E
:1009040099476391F904B7050800B365BB002D4509
:10091400C53181448D4BA149753963967401832790
:1009240004802320F9008504E39834FF832704809E
:1009340013172B01635507002312F900D5BB23229B
:10094400F900FDB39D476399F90281451305B0048D
:100954004531BD442320090023220900FD599D3956
:1009640093F77400CA9703C70700FD14398D2380D9
:10097400A700E39634FF6DBBA1476392F9046D3978
:100984008144630D0B008D479304C0036308FB008F
:100994009304000563048B01930440041375C50795
:1009A400E30895D81945393139390545213126856A
:1009B4000D3909453D314931E31C05D669BB9147E1
:1009C4006399F90013056006F536F53E13059009A1
:1009D4000DB7E38F09D4F154A9BB19CD91CD09CE3C
:1009E40081473387F500834607003307F500850701
:1009F4002300D700E317F6FE828019C991C909CAFA
:100A0400910583A7C5FF11057D16232EF5FEC5BFED
:100A1400828001C919C62A960505A30FB5FEE31DF8
:100A2400A6FE828081473307F5000307070019E318
:100A34003E8582808507C5BF01112E8626CAAA84F9
:100A4400131506019305F004418122CC06CE32C66B
:100A5400EF00B0562A8401C53246A685BD3F2285E3
:100A6400F2406244D24405618280854715C18DC13C
:100A740005C28147B306F5003387F50083C6060037
:100A8400034707006398E6008507E315F6FE8547EC
:100A94003E8582808147EDBF9307F6FFBE952A9677
:100AA4006313C5008280FD1583C715000505A30FD8
:100AB400F5FEFDB7AA87014581CF09CE3E9685078D
:100AC40003C7F7FF6317B700E39BC7FE05458280A2
:100AD4008280014582807971973700009387C75DD2
:100AE40022D4804306D626D24AD04ECE52CC56CA01
:100AF4005AC85EC679C0B7C4C901014B9739000012
:100B04009389095B9384F437173A0000130A0A5B4C
:100B1400973A0000938A0A55173900001309495E71
:100B24008357240095E35C44631D0B0017370000D2
:100B34002324F758832BC4002285EF0030555E84AC
:100B4400B9A82326FB00FDB783A7090082971C449C
:100B54003307F5406376F500032749001D8F2A9774
:100B640063E2E4089737000023A607508355240066
:100B740003450400974000E0E780A0D35C4058445C
:100B8400A1CB0C4403264900AE97BE8663E4B700AC
:100B940063E4C700B386C74014C4228B3A8449F087
:100BA400973700009387074C9C4B09476372F706FD
:100BB400F91717370000232FF74AB25022549254E2
:100BC4000259F249624AD24A424BB24B4561828091
:100BD40063170B009737000023A0E74EA1BF23261D
:100BE400EB0089BF03274A0209CF63EFA7003385CF
:100BF400A74083A70A016376F5009737000023AB6B
:100C0400A746228B404461BF03274900BA97C5B762
:100C14009737000023A007464DB7411122C417346B
:100C240000001304E4461C4006C626C24AC091C70D
:100C340082979737000023AD07449737000083C796
:100C44007765858B973400009384846495C39737C4
:100C54000000A381076483C774001547637AF70013
:100C6400A12B83C77400F5178A07A2979C43829728
:100C74001C4491C38297173900001309A943032721
:100C84000900173600000346F63D9737000083C776
:100C9400673D93961700BA9683D60600D5CE97374C
:100CA400000083C7273C63E3C70C97370000238BFE
:100CB400073A1C40639D07129737000083C7D75D2E
:100CC40091CF83C7740093F7F70F89EB9737000030
:100CD400A384075C974001E0E78060219737000018
:100CE4009387073D9C4363840710973700009387DD
:100CF4002741DC4317370000232EF736E93B9737AB
:100D040000009387A73BDC53FDC31737000013078C
:100D14006735184B9737000083C7973B6369F70C17
:100D240083C7740015476364F70C9737000083C7C3
:100D3400E75A918BCDEF032609009736000083C64E
:100D4400763263CCD70A2244B2409244024941012C
:100D5400174300E06700C300850793F7F70F973642
:100D640000002381F630E3E2C7F215BF86073E9701
:100D74008355070023100700973700002398073294
:100D840097370000938787309C431735000003454D
:100D9400652D13172500BA979C4382979737000057
:100DA40083D7C730173700000347C72B93C7F7FF14
:100DB4007D8D93171700032709003E97835707007B
:100DC4005D8D2310A7009737000083C7A72991C71B
:100DD4008507173700002307F72817370000034754
:100DE40067289737000083C7F727E370F7ECB24012
:100DF400224492440249410182801397170032979A
:100E0400035707006DF785072DBFAD6737C700404F
:100E1400BD072326F7200F100000973700009387A3
:100E24006724C84F83278726BD66BD0693C7F7FF8F
:100E340099836A052326D7205D8D82804111B717D7
:100E44000040985F3AC6945F3247E39CE6FE324521
:100E5400410182801305F00F828001119737000051
:100E64009387475322CC03A4070C26CA06CE2AC470
:100E74002EC6854419E40145F2406244D24405611A
:100E840082808347910003471400858B6304F70035
:100E94000044CDB719469305A10013052400F1368B
:100EA400E31895FE0545C9BF173700001307473DF2
:100EB4001C439306001094C30100010001000100CB
:100EC4001C4323A007008346150003482500A206FF
:100ED4004208C29603480500C296034835006208DA
:100EE400C29694D78346550003486500A20642087B
:100EF400C29603484500C296034875006208C2962C
:100F0400D4D7834695000348A500A2064208C2969A
:100F140003488500C2960348B5006208C29694DB74
:100F24008346D5000348E500A2064208C29603485A
:100F3400C5000345F500C2966205AA96D4DB83C6B4
:100F4400150003C52500A2064205AA9603C505009F
:100F5400AA9603C535006205AA9694CF83C65500A8
:100F640003C56500A2064205AA9603C54500AA96D4
:100F740003C575006205AA96D4CF83C6950003C540
:100F8400A500A2064205AA9603C58500AA9603C534
:100F9400B5006205AA9694D383C6D50003C5E500BF
:100FA400A2064205AA9603C5C50083C5F500AA9604
:100FB400E205AE96D4D3D443F59AD4C3D44393E68E
:100FC4001600D4C3944393E6160094C3BA8794439B
:100FD400D842058B59E3984E01452300E600984317
:100FE400184F2183A300E6009843184F418323013F
:100FF400E6009843184F6183A301E6009C43D84F51
:101004002302E600D84F2183A302E600D84F418390
:101014002303E600D84F6183A303E6009853230417
:10102400E60098532183A304E600985341832305E3
:10103400E60098536183A305E600D8532306E6002F
:10104400D8532183A306E600D85341832307E6003F
:10105400DC53E183A307F600828001008DBF1737BC
:101064000000130727221443411122C49C5E4AC086
:1010740006C6998326C2858B3A8417390000130962
:101084002920D1CB9C5E973400009384642093F78D
:10109400F7F99CDE173700000347E71F93070008A2
:1010A400631BF700832709009C4393F70704173752
:1010B40000002302F71E83C7040093F707049DC3AF
:1010C400973700009387C7FE9C43829797370000A9
:1010D40023A8A71C83C7040093F7F70B1737000056
:1010E4002308F71A83C7440093F707048DE785475D
:1010F40017370000A300F71A973700009387071BE0
:101104009C43096798C7130700FC973600002383A4
:10111400E618D844F8D31C40985F1183058B09CB9B
:10112400985F3D9B98DF0547973600002384E616B9
:10113400985F1D83058B11CB985F1377F7F798DFC2
:101144008547173700002307F71483270900D8437E
:101154000583058B19C7D843759BD8C3D843799B9E
:10116400D8C3B24022449244024941018280397179
:1011740006DE16DC1ADA1ED82AD62ED432D236D09F
:101184003ACE3ECC42CA46C872C676C47AC27EC043
:10119400F935F250E2525253C2533255A255125607
:1011A40082567247E2475248C248324EA24E124F0C
:1011B400824F216173002030973700009387070F17
:1011C4009443973700009387A70C03C70700058B48
:1011D40011CB97370000238F070A97370000A38BA2
:1011E400070A828003C71700058B65F7F85271FF61
:1011F40083C75700DDB7173800001308A808032772
:1012040008001C5F9583858BD1E709C61C5BBD83F1
:101214002300F60085CA83270800985B4607935786
:1012240067016356070093E707C0C207C1830397AA
:101234000600C207C18709C7BA970947B3C7E702BF
:101244002390F60085CD834715008DCB973600009B
:1012540083C6660493F606041387970089478DCAEC
:101264003A9503470500854699471376F7066311B7
:10127400D60262076187B947634C070083270800D9
:101284009C5FED838D8B17370000A308F70081471F
:101294003E8582808547EDBF411122C406C61734BE
:1012A40000001304A40018403DE9AE877453FDFE0A
:1012B4003E85B28597370000238D07FC974001E0F7
:1012C400E7806096973700009387C7FB9C43B70677
:1012D40080009843558F98C3D857719BD8D79737B8
:1012E4000000A38907FA97370000A38307FA1C407C
:1012F400094798C3144017370000130767F9834759
:101304002700858B89EB83473700858BD9C79737AF
:101314000000238107F8B2402244410182808D47B6
:101324006310F502973700009387C7F59C43B7060F
:1013340080009843558F98C3D857719BD8D75DBF09
:101344008547E319F5FA5447F977FD17F58F5CC71C
:101354000F1000001C40096798C7130700F81736E0
:1013640000002309E6F2173700001307A7F1104322
:10137400184231830D8B11E713076019F8D3D4C7D2
:1013840095BF1842094631830D8B6315C7001307B7
:10139400E043EDB71307E01BD5B7FC52ADF3A5BF8F
:1013A4005D71A2C4A6C22A84130680022800AE84FA
:1013B4009305100886C6CAC04EDE52DCEFF06FE516
:1013C4003545974001E0E78020C51733000013033B
:1013D40063EB832703009376F41F173E0000130E7C
:1013E4002EF223A40700984B973E0000938E0EEC38
:1013F400370FFCFF1367F70398CBF84F130510F86A
:10140400B7020400137707E0558FF8CF9843F576B9
:10141400FD16758F98C39843B70633009303802550
:101424001377F7E798C3984311497D1F1377F7E7BC
:101434001367071098C303270E008549930F800292
:101444001C47D58F1CC783A70E001307900D3400CB
:10145400B8CB014793553700A69583C7050013768B
:101464007700B3D7C740858BE1C383270300832864
:101474000E00239C07042390070603A8C8021378D0
:10148400D8FF23A6080383A807001378F70793F867
:1014940008F833E8080123A0070103A847023368CA
:1014A400580023A2070383A80E00014823A278064C
:1014B40003DA07066307480303A80703038A060041
:1014C4001358F80062081358884163580A0103A8A6
:1014D40007031358F8002380060103D8070613787E
:1014E400F80F03AA480663060A0003DA8705E37FB8
:1014F40049FB03A847023378E80123A20703838743
:101504000600635CF40003C805003396C900134663
:10151400F6FF337606012380C5003E8663D3A70019
:101524002A8613158601618505071377F70F85064B
:10153400E312F7F3B640264496440649F259625A38
:101544006161828097360000938646D69C42D847D4
:1015540013161701635506029847131617016350B3
:1015640006027D57B8D7173700001307A7AF584FA7
:101574000507173600002325E6B0116798C798477A
:101584000D83058B1DC317370000034787D01367EE
:10159400170017360000230EE6CE130700F817369F
:1015A40000002309E6CE214798C79847058B09CF49
:1015B400173700000347D7CD13671700173600000D
:1015C400A308E6CC054798C798470983058B09E724
:1015D40098470583058B31CF9847173600001306CB
:1015E40026CB173500001305E5C90983058B630372
:1015F40007101841184331830D8B75EBAC4B184E13
:1016040093F5050203471700CDCD79EF1307700654
:10161400D8CF0347060013671700173600002309C5
:10162400E6C6114798C718415C57F19B93E717002A
:101634005CD79C4298479316370163D606029736C7
:10164400000083C6A6DCC18A17370000130787D4BD
:10165400C5CE034787071367070297360000238721
:10166400E6DA056798C798479316270163D10602FF
:1016740017370000034707C26207618763570700F3
:101684000547973600002387E6C0096798C798473F
:101694009316070163D606029736000083C616D751
:1016A400858A173700001307E7CEADCE03479707A7
:1016B4001367270097360000A38AE6D4216798C7EA
:1016C400828029D785456315B7001307B00689B70B
:1016D40089456315B7001307F0061DBF8D456315D3
:1016E400B700130730072DB71307500715B71307B3
:1016F400600739BF03473600136717001736000029
:10170400A309E6B8094739BF834687070946BD8A56
:101714006388C600034787078D463D8BE313D7F4E0
:10172400114725BF83469707918AC9DA034797076C
:101734001367870041B7397106DE16DC1ADA1ED842
:101744002AD62ED432D236D03ACE3ECC42CA46C85D
:1017540072C676C47AC27EC0F533F250E252525356
:10176400C2533255A255125682567247E247524826
:10177400C248324EA24E124F824F21617300203074
:1017840097370000938787B29843856793870777D5
:101794007CD3973700009387A7B69C4383A6070999
:1017A400139656006358060083A60709139666002D
:1017B400634406007453FDF2828071C5AA87014513
:1017C400E9C58D07C207C183F19BC207C183130713
:1017D4004003636FF70217370000130727BB084362
:1017E40017370000130707BA14436398A602173784
:1017F40000001307A78C185B014541CB4111C207B8
:1018040006C60545DD8D0297B2400145410182803F
:1018140017370000130747B7D9B70357650035E3F7
:1018240003574500636FF704B306F7402146637C12
:10183400D60203280500938687001D8FAA96611798
:1018440017360000035666822392E60023A00601A1
:101854002393060014C12312F500130786FF97365D
:1018640000002394E6802313B5009725000083D558
:10187400C57FB387F540172700002318F77E21059D
:10188400828008419DB70145828082800DC19737CF
:1018940000009387A7AF03A307009737000093873F
:1018A40067AE83A8070081469A8763E317018280A5
:1018B40003A80700636DF50A636BA80A1387870002
:1018C400E367E5FE03D66700216705076317E600B3
:1018D40003C741950507238AE19497250000938562
:1018E400657803D6470003D7650023930700329732
:1018F40042074183172500002319E576638A6702AE
:1019040017350000130545A808416303F50203D504
:10191400660019ED83D7460023A0060121073E96F1
:1019240021062392C600972700002390E774B68708
:101934009843E30E17F7973600009386E6A4944283
:10194400E307D7F683566700BDF283D647000356F4
:1019540047001843A106B2962392D70098C383D7B1
:101964006500A107172700002311F7708280BE8647
:10197400C28725BF0327851163020712411122C4C0
:1019840006C68347C5008345E5042A8493F7C70F39
:101994002306F500834697000356C7001395860176
:1019A400618563F2C508635B05060345870093F60A
:1019B400F607A304D700054693E627006314C50081
:1019C40093E617002306D4005C4389075CC3A30A8B
:1019D400B400032504112E864C430905EFE0FFFFF4
:1019E4008327841103465401D44303D7C700B29616
:1019F400118FD4C32396E7008947A30DF40003474E
:101A040064039727000083C7876C6378F7048347D0
:101A1400C40093E707012306F40081A093E71700AD
:101A24002306F4006DB79376F60F635D0502034554
:101A34008700854513E627006314B50013E61700F5
:101A44002306C400A30AD400A30407008547A30DFA
:101A5400F400832784119C43DDF3B2402244014502
:101A64004101828093E717002306F400A30AD400FF
:101A7400A3040700032504114C430905EFE0FFF517
:101A84008327841103465401D44303D7C700B29675
:101A9400118FD4C32396E7008D4755BF0545828037
:101AA400973700009387C7A19C43411122C406C6FF
:101AB400858B2A84C5EF4165130525F597F001E070
:101AC400E780C0B845C58347A5002315F5008327E3
:101AD4000412BDE72320A4122322A4128547231154
:101AE400F404232005008347640154412316F500C0
:101AF4000347D4002304E5000547A304E5001727A2
:101B040000001307E778184F1385170215811C434B
:101B14007D151375F50F9CC25C43DCC21C479CC643
:101B24005C47DCC61C4B9CCA5C4BDCCA1C4F9CCE7D
:101B34005C4FDCCE19CD9386060213070702C1BFA2
:101B44008327441288C3835724042322A4128507BD
:101B540079B79737000083D7678485071737000064
:101B6400231EF782B2402244410182808347C4008D
:101B740023090400054593C747002306F400DDB795
:101B84008347850193F7E70FD5EF83479501DDEB95
:101B9400034625018346C50009CA83456503172703
:101BA40000000347D75263E7E50013F7060141CF6E
:101BB400014709C6C18A0357651C81C68356A51C03
:101BC400369751C31307C712172500000355C55391
:101BD400B335A70237460F00411113060624814688
:101BE40022C426C206C67D543305A702972002E00C
:101BF400E78020B49727000083C7D74DB384A7009C
:101C0400972700009387077903A787098327070984
:101C140063F387003E84184375FB9727000093877E
:101C240027499C43829781476364A400B307A44077
:101C3400B2402244B3B7970093C7170092443E853D
:101C44004101828081473E858280972700009387E7
:101C5400E76598437C53FDFF8280797126D206D6CE
:101C640022D44AD04ECE52CC56CA5AC85EC68347F6
:101C7400550303447513AA843E941374F40F930715
:101C8400400263F687001304B4FD1374F40F03AA2F
:101C9400841383AAC413A38B841222865285D68507
:101CA400972002E0E78060A3058915E503CBD412F1
:101CB40001498149337B6403930B50024A86528560
:101CC400D685972002E0E78040A1058915C5639178
:101CD40069031374F90F238B8412B2502254925463
:101CE4000259F249624AD24A424BB24B4561828060
:101CF4008509E20993D989410509E31179FDE1BF19
:101D04008327850903560504797193D60701BD8E8F
:101D1400C206C182358E1357764093575640898B3D
:101D2400058B5D8F93573640918B5D8F935716408B
:101D3400A18B5D8F93171600C18B5D8F93173600AF
:101D440093F707025D8F931756009355860093F718
:101D540007041E065D8F1376F60F518F93D75540F7
:101D640013D63540118A898BD18F13D67540D18F04
:101D740013D61540218AD18F13961500418AD18F2D
:101D84001396350013760602D18F139655001376F9
:101D940006049E05D18F93F5F50FCD8FA207454616
:101DA4005D8F3307C70222D42A8426D252CC56CA66
:101DB400032A8413832AC4135AC806D636974207C3
:101DC400418393577740135557400989858BC98FB1
:101DD400135537401189C98F135517402189C98F6D
:101DE400131517004189C98F1315370013750502A0
:101DF400C98F1315570093558700137505041E07E3
:101E0400C98F1377F70FD98F13D5354013D75540A2
:101E14001189098B498F13D57540498F13D5154006
:101E24002189498F139515004189498F13953500F0
:101E340013750502498F13955500137505049E0506
:101E4400498F93F5F50F4D8F2207D98FB387C702BA
:101E54004AD04ECE5EC662C4B697C207C18313D7BA
:101E6400774013D557400989058B498F13D53740DF
:101E74001189498F13D517402189498F139517006C
:101E84004189498F1395370013750502498F1395BE
:101E9400570093D58700137505049E07498F93F760
:101EA400F70FD98F13D5354013D755401189098BB6
:101EB400498F13D57540498F13D515402189498F12
:101EC400139515004189498F139535001375050243
:101ED400498F13955500137505049E05498F93F595
:101EE400F50F4D8F2207D98FB387C702130650020F
:101EF4005285D685B697BD8E93940601C18033F67C
:101F0400C402137BF60F971002E0E780007D058979
:101F14000DED8347D41201498149B3849702130C10
:101F24005002C1804A865285D685971002E0E78028
:101F3400C07A0589937BF90F11C56386340385093B
:101F440093F9F90F0509E31F89FD230B6413B250BC
:101F5400225492540259F249624AD24A424BB24B39
:101F6400224C456182805E8BCDB7797122D406D62E
:101F740083C735002E8423160100A307F10083C70D
:101F84004500100802C02307F10083C755008A8565
:101F940002C2A306F10002C402C802CA02CC02CEE5
:101FA400EFE09FF00347F10183470400014563100C
:101FB400F7020347E1018347140001456319F70061
:101FC4000345D101834724001D8D13351500B250FC
:101FD4002254456182800111972700009387873B33
:101FE40022CC03A4870C26CA4AC84EC606CEAA84AD
:101FF40013092500854915C083C71400034734001D
:10200400858B6304F700405CFDB7194693054400D3
:102014004A85EFE09FA5E31835FF2285F24062442C
:10202400D2444249B2490561828041119727000098
:102034009387473622C403A4870C26C24AC006C627
:1020440093042500054901E82285B24022449244C4
:10205400024941018280A6851305A4023937E305AC
:1020640025FF405CCDB74111972700009387873245
:1020740022C403A4870C26C24AC006C693042500C2
:10208400054901E82285B2402244924402494101B3
:102094008280A6851305A401C93DE30525FF405CA4
:0420A400CDB70000B4
:1020A80097110020938181D417610020130101F555
:1020B8001305400097E5FF1F938545F41706002098
:1020C800130606FE63FAC5008322050023A0550007
:1020D80011059105E3EAC5FE174502001305058AB7
:1020E800970500209385C5FB1386818763FAC50091
:1020F8008322050023A0550011059105E3EAC5FEDA
:1021080013858187972500209385453C6377B50023
:10211800232005001105E36DB5FEFD42739002BC56
:102128008D4273904280930280087390023097E248
:10213800FF1F9382A2EC93E23200739052309722F1
:1021480000009382623473901234730020303D4350
:102158002A876373C3029377F700BDEFADE59376E3
:1021680006FF3D8ABA960CC34CC30CC74CC741073F
:10217800E36BD7FE11E28280B306C3408A0697025A
:10218800000096966780A6002307B700A306B7004D
:102198002306B700A305B7002305B700A304B700BB
:1021A8002304B700A303B7002303B700A302B700B3
:1021B8002302B700A301B7002301B700A300B700AB
:1021C8002300B700828093F5F50F93968500D58D8F
:1021D80093960501D58D61B7939627009702000065
:1021E80096968682E78086FA9680C1171D8F3E965E
:1021F800E374C3F8A5B7B717004003C7770513778B
:10220800E70FA38BE704130700F8A38DE7043D4706
:10221800238CE70413075003A38CE7048280B717C5
:10222800004083C7E7020D8993F7C70FC98F73274B
:102238000080218B9386818709CB7327008023AC8C
:10224800E18698425D9B73100780010001003717F3
:102258000040130670052300C704130680FA230004
:10226800C704010001002307F702230007047327AE
:1022780000809C42A18BD98F7390078023AC018684
:1022880001000100828041112A83014E930E407E95
:10229800130F0019930F400663E66E149308001994
:1022A80013034006B3781503854E0D4FA14F3373C2
:1022B80065020D891335150063E0BE161308F6FF95
:1022C800794672984208135808013307C70213D693
:1022D8001700BE0732976146B3F6C6021306807030
:1022E800B386C6023697A166F58F42075D8FB7168B
:1022F800004083C7F60293F70708A307F1000346D7
:10230800F10083C7F60293F70708E394C7FE8347F3
:10231800F100B716004093F7F70F63890714F32706
:102328000080A18B938681876398071401000100C0
:10233800B7170040130670052380C704130680FAF8
:102348002380C7040100010023AA070303C617035B
:1023580013660608A388C702238007047326008033
:102368009C42A18BD18F7390078023AC018601001A
:1023780001001166B71500407D16DC59C85DA98FAC
:10238800F18FE5FFF3270080A18B89CBF32700802D
:1023980023ACF1869C42DD9B73900780010001000D
:1023A800B7170040130670052380C704130680FA88
:1023B8002380C70401000100D8DB03C71703136794
:1023C8000704A388E70223800704732700809C4240
:1023D800A18BD98F7390078023AC0186010001007F
:1023E800410182807D133368E3039308E016630E8E
:1023F80008003368F3039308D0166308080093783D
:10240800330093B818009388D81633081E01131E9A
:102418000801135E0E0149B56393E5030548638619
:1024280008000148630303002A8871087298FD15A3
:10243800131E0801C205135E0E01C181B5BD13F854
:10244800150063F4BF007908D5B713381800E5BF45
:1024580083C7F60293F70708A307F1000346F100C4
:1024680083C7F60293F70708E394C7FE8347F10092
:1024780093F7F70FF1DF65B5F327008023ACF186FA
:102488009C42DD9B7390078055B55971E2C486D68E
:10249800A2D4A6D2CAD0CECED2CCD6CADAC8DEC68C
:1024A800E6C2EAC06EDE2A8C02D6EF001016F327C9
:1024B8000080A18B138D818791CBF327008023ACFB
:1024C800F18683270D00DD9B7390078001000100D2
:1024D800B7170040130770052380E704130780FA35
:1024E8002380E7040100010003C7F7021377770F81
:1024F800A387E70203C7F70213678700A387E702EA
:10250800238007047327008083270D00A18BD98FB0
:102518007390078023AC018601000100F327008037
:10252800A18B91CBF327008023ACF18683270D0084
:10253800DD9B7390078001000100B7170040130767
:1025480070052380E704130780FA2380E70401005D
:10255800010003C7E7021377C70F2387E70203C702
:10256800E702136717002387E7022380070473270E
:10257800008083270D00A18BD98F7390078023AC2F
:10258800018601000100130780C13347E502916904
:10259800938709E8130650023D69B7440F009384F6
:1025A8000424856B130BA004014A814A13047005A7
:1025B800FD19B347F5023307C7023EC2930709A6C0
:1025C8001309803E3347F7023AC4334725030549C8
:1025D80033198901135939403345950293840BFA0D
:1025E800B3948401811B3306C702B346F60233094C
:1025F800E90236C6330B670313076055B304950227
:10260800130500103309E902B346FB02130B80FAE5
:10261800B3C4A40236C8B347F902939634003719F5
:10262800004036CC930409043ECA73260080218AF0
:1026380011CA7326008023ACC18603260D005D9A5B
:102648007310068001000100930770052380F400D1
:102658002380640101000100034639051376860FC3
:10266800A309C9040346390513661600A309C9045A
:10267800238004007325008003260D00218A498EDB
:102688007310068023AC018601000100916CE17D86
:1026980073260080218A11CA7326008023ACC18664
:1026A80003260D005D9A7310068001000100930750
:1026B80070052380F40023806401010001000346B3
:1026C800390513660602A309C904035609053366CA
:1026D80096012318C904035609053366B601420654
:1026E80041822318C904238004007325008003262F
:1026F8000D00218A498E7310068023AC01860100E3
:1027080001000346390513760602630506160346DB
:102718003905218A6DDE6810152F73260080218AFD
:1027280011CA7326008023ACC18603260D005D9A6A
:102738007310068001000100238084002380640157
:1027480001000100034639051376F60DA309C904F3
:102758000346390513660602A309C9040356090589
:10276800336696012318C904035609053366B60172
:10277800420641822318C90423800400732500807F
:1027880003260D00218A498E7310068023AC01862A
:102798000100010003463905137606026308061096
:1027A80003463905218A6DFE97E0FF1FE780208EDA
:1027B8002A8632CE97E0FF1FE780608D7246E30AD3
:1027C800C5FE035609053255336696012318C90418
:1027D800612D03463905218A6DDE03550905034637
:1027E8002905924733F5A9003386C90232951D8D14
:1027F800A24763D5A700B2476346F50E094663654D
:10280800560FC247850A1316150093FAFA0F334676
:10281800F6026354A03A050609453346A602732515
:102828000080218911C97325008023ACA186032566
:102838000D005D997310058001000100238084005C
:1028480023806401010001000355C9022A9642064B
:1028580041822316C90223800400732500800326C1
:102868000D00218A498E7310068023AC0186010071
:10287800010039BD73260080218A11CA73260080A1
:1028880023ACC18603260D005D9A731006800100F3
:1028980001002380840023806401010001000346B5
:1028A800390513660602A309C90435BD73260080DD
:1028B800218A11CA7326008023ACC18603260D0025
:1028C8005D9A731006800100010023808400238034
:1028D8006401010001000346390513660602A309D5
:1028E800C90459BDE38F0AF073260080218A11CAF2
:1028F8007326008023ACC18603260D005D9A7310F1
:102908000680010001002380840023806401010007
:102918000100034639051375FC0F1376860FA309CA
:10292800C90403463905498EA309C9042380040054
:102938007328008003260D00218A33660601731070
:10294800068023AC018601000100034639051D8A73
:102958006317862773260080218A11CA7326008090
:1029680023ACC18603260D005D9A73100680010012
:1029780001002380840023806401010001000346D4
:10298800390511651376F60DA309C90403463905FF
:1029980013660602A309C90403560905498E2318BC
:1029A800C904035609052165498E2318C9042380E3
:1029B80004007325008003260D00218A498E7310B8
:1029C800068023AC01860100010003463905137611
:1029D8000602630E062003463905218A6DDE68105B
:1029E800B52173260080218A11CA7326008023AC82
:1029F800C18603260D005D9A731006800100010050
:102A08002380840023806401010001000346390506
:102A180011651376F60DA309C90403463905136633
:102A28000602A309C90403560905498E2318C904D7
:102A3800035609052165498E2318C904238004001B
:102A48007325008003260D00218A498E73100680A5
:102A580023AC0186010001000346390513760602FE
:102A68006303061C03463905218A6DFE97D0FF1FB4
:102A7800E780E061AA8C97D0FF1FE7804061E30CF4
:102A880095FF035609051165498E32552318C90467
:102A9800E12E03463905218A6DDE73260080218ADE
:102AA8001385818709CA7326008023ACC18610412B
:102AB8005D9A731006800100010023808400238042
:102AC800640101000100034639051376F60DA309D8
:102AD800C90423800400732800801041218A3366CA
:102AE80006017310068023AC01860100010003581B
:102AF800090503462905E24733F809013386C90267
:102B080032983308F8401306800C3306C802D247BF
:102B18003346F60263550015050609483346060391
:102B28006351C0140358C9029308F00F1358580092
:102B3800329863D6081F094663734619F327008045
:102B4800A18B89CBF327008023ACF1861C41DD9B48
:102B58007390078001000100371700409307700544
:102B68002300F704930780FA2300F704010001000B
:102B78008356C70289678117D58FC207C183231679
:102B8800F70223000704732700801C41A18BD98F0B
:102B98007390078023AC018601000100B6502654CB
:102BA80096540659F649664AD64A464BB64B264CC1
:102BB800964C064DF25D656182807D16B1B973262B
:102BC8000080218A11CA7326008023ACC18603269F
:102BD8000D005D9A731006800100010023808400B7
:102BE8002380640101000100034639052DBB7326CB
:102BF8000080218A11CA7326008023ACC18603266F
:102C08000D005D9A73100680010001002380840086
:102C1800238064010100010003463905136606029A
:102C2800A309C90469B373260080218A11CA7326CF
:102C3800008023ACC18603260D005D9A73100680C0
:102C48000100010023808400238064010100010049
:102C58000346390513660602A309C904C5B37D16E0
:102C68006DBD55CE0358C902B308C040135858006B
:102C78006357180B094663744605F3270080A18B38
:102C880089CBF327008023ACF1861C41DD9B739030
:102C9800078001000100B717004013077005238063
:102CA800E704130780FA2380E7040100010003D733
:102CB800C7027D8B2396E70223800704E9B57326B4
:102CC8000080218A09CA7326008023ACC18610417E
:102CD8005D9A731006800100010023808400238020
:102CE8006401010001000356C9021376F60F33662A
:102CF8007601420641822316C90223800400732804
:102D080000801041218A336606017310068023ACC7
:102D1800018601000100050A137AFA0F39B2F32778
:102D28000080A18B89CBF327008023ACF1861C415E
:102D3800DD9B7390078001000100B717004013075F
:102D480070052380E704130780FA2380E704010055
:102D5800010003D7C70216063A9642064182239617
:102D6800C70299BF914763EEB702172702001307FE
:102D7800E7158A05BA959C41BA978287B71700402C
:102D880003A7470B1345F5FF698F23AAE70A03A793
:102D9800070B698F23A8E70A03A7070A798D23A0E1
:102DA800A70A8280B717004083A6470B1347F5FF91
:102DB800F98E23AAD70A83A6070B558D23A8A70A3D
:102DC80083A6070A758F23A0E70A8280B7170040F9
:102DD80003A7470B498F23AAE70A03A7070B134545
:102DE800F5FF45BFB717004083A6470B1347F5FF0C
:102DF800758F23AAE70A03A7070A598D4DB7B71796
:102E0800004003A7470B498FEDB7B717004003D51C
:102E18008700420541819377050491EB9377F5018B
:102E28003755E801130505803345F502828093770D
:102E3800050C130700046397E7009377F5013745FE
:102E48009C1CCDB72165130505D0828037E700E0CB
:102E58001C435443A183E206D58F1CC1FD57232090
:102E6800F7182322F718828013178500B7E700E0C8
:102E780023A0E710618123A2A7108280B7F700E0A2
:102E88008847CC478280814737370040A14663C4D2
:102E9800C700328582800345B740E38EA6FE33859E
:102EA800F5000345050085072304A740CDB797F72C
:102EB800FF1F9387A7739C43171700201307076109
:102EC8003E95636EE50017570020130727F36368E4
:102ED800A70017F7FF1F232BA7703E858280FD5799
:102EE800EDBF411122C406C62A8405372947B30716
:102EF800E502B2408D83B3D7870222449507B3D742
:102F0800E70237370040C207C1832316F740410163
:102F18008280716541111305052006C6D937B73778
:102F28000040130770F82381E7400D47A381E7406D
:102F380013070004A380E74005472387E740B24012
:102F480041018280938781889C43411106C691C3C1
:102F580082979387C1889C4391C3829703D76180E6
:102F68009307C01263F7E70403D581809306B01274
:102F780063E4A6049386418803A30600630703005D
:102F8800B2401305C012410102830507098F33853A
:102F9800A740E5473305F5024207418309839307B4
:102FA800F7FF3E953345E5021375F50FB240410131
:102FB800828013054006DDBF0145CDBF03A845004B
:102FC800411126C206C622C48347180003480800D8
:102FD800A944A207B3E70701C2070D68C187130810
:102FE80028906396070385473284EF70802EAA8461
:102FF80019ED938701889C4399CB03451400034737
:1030080004002205598D1335150005058297B24035
:10301800224426859244410182802D453DE7D841CE
:10302800411122C426C206C683471700034707007A
:10303800B684A207D98F0D67930697A13284639649
:10304800D702093783C741806374F5002382A180C2
:1030580085472390F40083C741802300F40001458D
:10306800B240224492444101828013078790294547
:10307800E398E7FECC4589472390F400094622856A
:1030880097E0FF1FE7802095D9BF828083474500DE
:10309800858BADC7011122CC2A8403552500938561
:1030A800819A06CEEF70A01D058929C50355240015
:1030B800014781460546ED45EF60D0562AC61DC931
:1030C80097F7FF1F9387C7FD83D7A70201462C00F8
:1030D8002314F10085472315F10083C7418023009D
:1030E800F50003552400EF70707609C5ED452800FA
:1030F800EF60106BF2406244056182808280416516
:1031080041119385819A7D1506C6EF807065B2409E
:1031180097F6FF1F9386C6FD4146954517F5FF1F95
:10312800130505F841016F80D05823A0A18882803B
:10313800411122C406C6854709446311F502834735
:1031480006000144238EF18603C741806378F700A7
:10315800170500001305C5F3EFB0C0212285B24062
:1031680022444101828085476301F50209C9094764
:103178006302E5020D476306E5020945828083C7BD
:1031880041802380F500014582809387C18783C7EA
:103198000700C5BF97F7FF1F83D727F12390F500D6
:1031A800DDB71387C180035707002392E50017F79F
:1031B800FF1F1307E7EE8356A7020357A7032383CE
:1031C800F5002390D5002391E50075BF411106C68F
:1031D800953B83C74180637AF5002382A180170558
:1031E80000001305E5EAEFB0E018B24001454101DF
:1031F800828041677917630CE502411122C406C633
:1032080085472A84639AF50022852244B240938533
:10321800819A41016F80D05489476396F5008545AE
:10322800EFB0C00F75D1B240224441018280828044
:10323800CC41411106C6328503C6150083C5050079
:1032480022064D8E42068D654186138875A2630C51
:10325800060F6348C804138845A26306060B634A31
:10326800C800938535A26309B6062390060029464F
:1032780079A0138855A26308060B938565A2E31607
:10328800B6FEC1451D4663ECE5064546198E63F357
:10329800C7003E862390C60097250200938545C542
:1032A80089A8138895A26300060F634E060B13883E
:1032B800A5A2630A060F938505A5E318B6FA9945F2
:1032C8001D4663EEE502198E63F3C7003E86239020
:1032D800C6009385418131A89D451D4663E1E502FD
:1032E8002146198E63F3C7003E862390C600938556
:1032F8000189BA9597D0FF1FE780E06D0146B2407B
:10330800328541018280AD451D46E3EAE5FE31463E
:10331800198E63F3C7003E862390C60097250200E6
:103328009385C5C0F9B7B1451D46E3EAE5FC3546C6
:10333800198E63F3C7003E862390C60097250200C6
:103348009385C5BF7DB7C1451D46E3EAE5FA454605
:10335800198E63F3C7003E862390C60097250200A6
:10336800938545BA79B7C1451D46E3EAE5F8454670
:10337800198E63F3C7003E862390C6009725020086
:103388009385C5BCBDB7C1451D46E3EAE5F645468C
:10339800198E63F3C7003E862390C6009725020066
:1033A800938585B7B9B7B5451D46E3EAE5F43946CF
:1033B800198E63F3C7003E862390C6009725020046
:1033C800938505B23DB797F6FF1F938626E64146DB
:1033D800CD4517F5FF1F130565D26F80902D8280AC
:1033E8009387C18A9C4303C7018A83C6318201E758
:1033F80081473E85828003D607006316A60003C670
:103408006700E308D6FE7D171377F70FA107C5B746
:10341800B2862E86AA85172502001305E5B76F0028
:1034280062750111930500030D4506CEEF30901A21
:10343800930500051145EF30F0199305C0030545C4
:10344800EF30501985471306F100854513055030B4
:10345800A307F100EF703123F240056182808547B0
:10346800631AF5001166130686A9894503C5118AF2
:103478006F10605B89476317F500894503C5118A9A
:103488006F10807C828085476398F50019E2238D50
:10349800B1882388C18A828009476399E50019E6C3
:1034A800238DF18803D581896F0070078280938707
:1034B800418A9C43011122CC06CE2E8481CB9C47A5
:1034C80091C78297F2406244056182806C001305BF
:1034D8007040EF50F17A324681452285EF60A13C79
:1034E800D5B701119397050126CA06CE22CC4AC842
:1034F8004EC652C4C187AE8463D7070803C5118A74
:10350800EF1060062A8439C9034705009307000DA8
:103518006313F704834725004547638BE704654732
:10352800639BE70217250200130585A3EF00826459
:10353800130954009309B400172A0200130A8AA336
:103548008345090052850509EF00C262E39A29FF05
:103558002945EF0022662285EF00D0792165258D67
:10356800F2406244D2444249B249224A056182800B
:10357800034665008345750017250200130505A05D
:10358800EF00425FC9BF93F7150085C317F6FF1F09
:10359800130646CB97F5FF1F938505CA03C5118A05
:1035A800EF70A15A13C5140065BF93F725000145B4
:1035B800C5DB29391166130686A9894503C5118A11
:1035C800EF10604613C5240061BF797126D24ECE34
:1035D80006D622D44AD052CC9147AA84AE89631425
:1035E800F50483D7A5001306E1008545130550307F
:1035F800239CF18823070100238D0188EF70B1080F
:103608009387418A9C4391C7DC4781C7CE8526852D
:103618008297B250225423AE918802599254F249AB
:10362800624A456182801387C1891843E31AF7FC0F
:10363800854503D58189753E854503D58189EF0088
:10364800C073C16703DA8189F917631BFA0205445D
:103658009305E10013055041238D0188A3818182E0
:1036680023070100EF50D1618347E100B1E303C7AD
:10367800018B9147E316F7F86D332388018A49B720
:103688009387C18A03A9070003C4018A69D0035537
:10369800290011C99305E100EF70C02309C54C4505
:1036A8005285EF80F00B7D141374F40F2109F9BFD4
:1036B8009387818A9C4383C74700898BCDDB930519
:1036C800000A0D45EF3000719305000A1145EF30EF
:1036D800607081450545EF30E06F1306E1008545D0
:1036E8001305503023078100EF70E17949B70111C4
:1036F80017050000130525DF06CE22CCEF10B00811
:103708001384118A85471306F10085452300A40018
:1037180013054041A307F100EF60813F7D55EF603D
:10372800A0387D55EF80B0007939D13AC12317050B
:103738000000130505D3D53A17050000130565CA1F
:10374800E12B034504008545EF10E015F240624483
:103758000561828023A2B18A23A4A18A828023A63C
:10376800B18A2380A18A82809387C1899C43797119
:1037780006D622D426D24AD04ECE52CC1147639BCD
:10378800E70483C7A189414481CF9387C18A8043D5
:10379800B284B68983C7018A03C7318299EB55443D
:1037A8002285B250225492540259F249624A456124
:1037B800828083464400639AA60083465400639639
:1037C800B600834664006380E606FD1793F7F70F9B
:1037D8002104E9B709474144E384E7FC2C001305B9
:1037E800504123040100EF50B149834781008DCB3C
:1037F800930500020D45EF30E05D93050003114588
:10380800EF30405D95450545EF30C05C8547300099
:103818008545130550302304F100EF70C16649B7A0
:1038280009314144B5BF0355240093056100EF7089
:10383800600A35D54C4503D58189EF605024058948
:1038480039DD1399040113590901014781464A8654
:10385800ED4503D58189035A0400EF60A05C2AC6B0
:103868004D441DDD2686CE852314410123152101F3
:1038780097D0FF1FE780201601462C0003D58189C9
:10388800EF70C07C2A84E30D05F0ED452800EF6059
:10389800207139B7C841011122CC06CE32840346C3
:1038A8001500034505002206498E19CB0D6813083B
:1038B800B8A42D4563090607F24062440561828079
:1038C8000D651308D5A463000603130825A2630C2D
:1038D800060175781308E85C329842081358080105
:1038E800854863EE080303D5A50036C632C4CD3C2F
:1038F800B24615C19387418A9C43224683455500A9
:1039080003A30700A2876244F240034545003687B7
:1039180085460561028323900600014571BF13089F
:10392800B5A46317060303D6A1821D45E376C7F83D
:10393800198E63D3C7003E86CC452390C600420645
:103948004182BA95228597D0FF1FE780C008F1B75A
:103958009307A5A46318F60091472390F600114633
:10396800CC45CDB7930785906317F6008947239018
:10397800F6000946F5B79307E5A4631AF600DC4597
:103988002390160183C707002300F40079B71305B5
:103998007590E314A6F8D9BF011122CC06CE26CA29
:1039A8004AC82317D1002D4429EBDC412E89B28463
:1039B80003C4170083C7070022045D8C8D679386B4
:1039C800D7A46306D400938627A3631FD4020355A4
:1039D800A900393419E101440DA09387418A9C4319
:1039E800834555000345450003A807002286A6879E
:1039F8001307E100814602982A842285F240624436
:103A0800D2444249056182809386C7A46314D402D4
:103A18008357E10005473544E391E7FE0345060077
:103A280013040008E3EBA7FC9387418A9C43DC431B
:103A3800829755B793862790631AD4028356E1007C
:103A48008547EF6010092A844DF99387C18A835608
:103A5800A9009C4303C7018A3DDF03D62700630200
:103A6800D6047D171377F70FA107FDB79387E7A44F
:103A7800E313F4F68357E10005473544E39FE7F67F
:103A88000345060013040008E3E9A7F6DC45238094
:103A9800A7009387418A9C433335A0000905DC437E
:103AA80041BF1387418A184303C5470083C55700A0
:103AB80083C714000328070003C70400A207894628
:103AC800D98FC207C18705476383E7008D460D6616
:103AD800A6871307E10013062690029839BF411103
:103AE80022C441641305F4FF9385819C06C626C24F
:103AF8004AC0EF80E0461305F4FF9385819B97E465
:103B0800FF1F9384E474EF80A04597F6FF1F938608
:103B1800268E4146E9452685EF80A039CC4C2A8976
:103B28000945EFF04FE413878183834607009387A5
:103B380041830347170003C617001384819D83C57B
:103B48000700A306E40083D7A40CA30EE40003D760
:103B5800A416A302C400A30AC40003D6A413231006
:103B6800F400231CE40083D7A40D1387018303D535
:103B7800A4102318C4000357070003D6A414231164
:103B8800F40085472303F4002306D4002307F40038
:103B98002319C400230ED4002302B4002314A40064
:103BA800230AB40023150400230B0400231D04007A
:103BB800230F04002312E40203D7A418938501A05D
:103BC8002303F4022310E402231104020D45EFF04D
:103BD8008FD9A2851D456136B24022444A85924458
:103BE8000249410182808D67138527A36301A604DA
:103BF8009387D7A40145631EF6008947639CF500A7
:103C0800854735456397F60083470700238BF18A7C
:103C1800014582808D472945E39DF5FE8547354559
:103C2800E399F6FE83470700238AF18AD5B78547CB
:103C38003545E390F6FE83470700A389F18AC9BF9B
:103C48008D67138527A36308A6029387D7A46317F4
:103C5800F6028947639BF50083C7618B2300F70051
:103C680085472390F600014582808D476398F500CB
:103C780083C7418BE5B783C7318BCDB72390060047
:103C8800DDB70145828025E303A84500AE88834758
:103C9800180003480800A207B3E707010D68930E50
:103CA800F8A4639AD70391473548639FF60203A5A2
:103CB800C8004111B285114606C697D0FF1FE7809C
:103CC80080D19387418C9C4305458297B240014837
:103CD80042854101828093082890294863961701FC
:103CE80085476F60005F2D4842858280416541119C
:103CF800938501A17D1506C6EF808026B24097E620
:103D0800FF1F9386A6754146994517E5FF1F1305C2
:103D1800E56E41016F80E01923A2A18C8280011118
:103D2800938501A122CC06CE2A84EF6040550589EF
:103D380029C1014781460546ED452285EF60800E81
:103D48002AC605C997E7FF1F9387476B83D7A7053F
:103D580001462C002314F10085472315F1002300A8
:103D680005002285EF70802E09C5ED452800EF601B
:103D78002023F24062440561828041677917630C11
:103D8800E502411122C406C685472A84639AF500D4
:103D980022852244B240938501A141016F80401CD5
:103DA80089476396F5008545EFA0405775D1B24025
:103DB800224441018280828011456FE00FED41115C
:103DC80093962500AA852D4506C697D0FF1FE78044
:103DD800E089B240014541018280411126C2939495
:103DE800250022C44AC02A843289A686AA850146AB
:103DF800254506C697D0FF1FE7804087A6864A86D6
:103E0800A285294597D0FF1FE7804086B24022440B
:103E180092440249014541018280011122CC06CE1B
:103E28003714004026CA4AC84EC652C48344740593
:103E3800034AB4058349840503499405EFE0AFBB01
:103E48008347A40593F4F40F137AFA0F93E7170046
:103E5800230DF40493F9F90F1379F90FB7170040FC
:103E680003C7A705058B6DFF03D5C705A38D4705B8
:103E7800238C3705A38C2705A38B9704F240624453
:103E8800D2444249B249224A05618280411193973E
:103E9800050122C406C6C1872E8463DC0700EF0033
:103EA800806C11C1812D2165218DB24022444101D0
:103EB800828093F7150013C51500E5FB939725013C
:103EC80063D00702EF106143C53D37F602001306C1
:103ED80006E0896503C5818CEF00F0340965E9B710
:103EE800939715010145E3D207FC17150200130546
:103EF8006515EFF0715C13060064916503C5818C4C
:103F0800EF00703211654DB71D71494697150200D3
:103F18009385C50E171502001305054686CE97D062
:103F2800FF1FE78040B401E9171502001305450E8D
:103F3800EFF0915801A0B7F600E0795798CAFD57FD
:103F4800DCCA0567B7E700E023A0E7101306F00214
:103F580090C223A0E718010001001306C0038145A1
:103F6800480897D0FF1FE78080AA97F7FF1F93871D
:103F7800E7893ECA896793870780231CF100B54704
:103F88002304F102A167938707E03ECEB707010536
:103F9800938707103ED0ED472312F102854723038C
:103FA800F102970700009387C7E1BEC49707000096
:103FB8009387E7E2BEC68567938717D02315F1027A
:103FC80097F7FFFF9387C7EB3EDAB7F50700970728
:103FD80000009387C7E43EDE814697070000938779
:103FE800E7DD7000E1051945BEC097C0FF1FE780F7
:103FF800E06758088147994670003E9603460600D8
:1040080085070507A30CC700E398D7FED24791C7D9
:104018000357810185676373F70001A04808EF0023
:10402800507AAA8501C9171502001305A5FFEFF0FC
:10403800713401A0F6402561828041111705000006
:10404800130505E506C622C4EF00F0731384818CBE
:104058002300A4001928034504002244B240130693
:104068000032896541016F00101C411106C6F32713
:104078000080A18B1387818789CBF327008023AC2D
:10408800F1861C43DD9B7390078001000100B71780
:104098000040930670052380D704930680FA238096
:1040A800D7040100010083C6F70293F6A60FA38781
:1040B800D70223800704F32600801C43A18BD58FE9
:1040C8007390078023AC018601000100F32700806C
:1040D800A18B89CBF327008023ACF1861C43DD9BA1
:1040E8007390078001000100B71700409306700520
:1040F8002380D704930680FA2380D70401000100A7
:1041080083C6F70293E62600A387D7022380070415
:10411800F32600801C43A18BD58F7390078023ACB6
:104128000186010001000545EFE06F8F713113052D
:10413800407E81470147814605468545EFE0AF94BB
:10414800B240014541016F10601C82803D897D1598
:10415800954763EAA70E171702001307E7EE0A054B
:104168003A951C41011106CEBA9782872C00130597
:104178004030EF60913D2C000545EF40F05A17158F
:1041880002001305E5F0EFF0313311A803C725004D
:104198008D47171502001305A5F0E306F7FEF24058
:1041A8000561828003C725009547E31AF7FE83D788
:1041B800A5000D6613060620914503C56184239268
:1041C800F184EF00500617150200130565EE65BF70
:1041D80003C725008D47E314F7FC171502001305E4
:1041E800E5ED55B783C725001147171502001305DC
:1041F80065EE638EE70219476394E70283C565009D
:10420800171502001305C5EEEFF0D11685473000EB
:104218008545130550302304F100EF60D14641B7BE
:104228001547E395E7FE17150200130525EEEFF095
:10423800B128E9BF83C5250017150200130585EECF
:10424800EFF05113A9BF828001112305A1003400AA
:1042580021468545014506CE23140100A30501002A
:1042680002C6EFF06FD0F24005618280411106C6A8
:1042780022C43A883E8795EA32830D661306D6A48F
:104288002A8EAE88834608006319C300894763965F
:10429800F50085473544639EF6022244B2401A86EB
:1042A800C685728541016FF01F9485476398F600B3
:1042B8002244B240C28641016FF09F988947014469
:1042C8006399F6001306401F894503C56184EF0012
:1042D80080752285B2402244410182804111939722
:1042E800050122C406C6C1872E8463DD070003C505
:1042F8006184952C11C1FD2A2165218DB24022448B
:104308004101828093F7150013C51500E5FB93F76B
:10431800450099CF83C761841307401F8146214612
:10432800A14503D54184EF60A17B13454400F9B74B
:1043380093F785009DC3014789460946814503D502
:104348004184EF603166AA8517150200130545D12F
:10435800EFF051021345840055B793F72500014546
:10436800D1DF03C57184CD3583C77184850793F781
:10437800F70F7147636FF7000145A383F184E935AF
:104388001306007D894503C56184712D13452400FA
:10439800B5B79147D5B7011117050000130545F4C6
:1043A80006CE22CC26CAEF00103E938461840544D1
:1043B8002380A40070008545130550302306810032
:1043C800EF60712C17E6FF1F1306060AD545130583
:1043D8006030EF60512B17E6FF1F1306660BBD45D3
:1043E80013057030EF60312A171602001306C6C88D
:1043F800D5450145EF50E0598D47700091451305AB
:1044080070402305F10023048100A305810002C642
:10441800A3040100EF50C16F30008545130500402B
:10442800EF50016F13069100854513051040EF50BA
:10443800216E1306A100854513052040EF50416DFC
:104448001306B100854513055040EF50616C99473C
:104458007000854505452306F100EFE07FCDEFF0BC
:104468000FE897E5FF1F9385A5011385C183EFF03A
:104478006FAE03C5040085453D21F2406244D24435
:104488000561828041111305800406C697C0FF1F8D
:10449800E78060C1371700408327870A8D451305D9
:1044A800002093E707202324F70AEFE0BF8BEFE013
:1044B8005FA617150200130525ECEFF0E17FEFF07A
:1044C800BFA4A53EEF60514EEFF06FA2E93597C04B
:1044D800FF1FE780600D23AC05FE1C4191E701003A
:1044E80001000CC18280BA8703A787FF6DFF23AC48
:1044F800B7FE82801DC18346E5FF1307F00F914781
:10450800639EE600411106C697D0FF1FE780C037BB
:10451800B24081473E854101828095473E85828031
:1045280001E9014582800145B2402244410182806F
:1045380095654111938505D022C4C98D2A8421052A
:10454800C2054205C181418106C697D0FF1FE78099
:10455800802671D9FD5723200500231285002303E7
:10456800F5002105D1B7170700201307E7AE1C4354
:10457800411122C426C24AC006C601440149BA8470
:1045880089E7A165D1251DC401A803C7E7FF631A00
:10459800A7020DCCA165012E9840832784FF6319DB
:1045A800E402170700202329F7AAFD57232C04FE4D
:1045B800230FF4FE2285B24022449244024941016D
:1045C800828011E03E8983A787FF5DBF3E84E5BFF7
:1045D800232CF9FED9BFB1CD411122C406C62A84C5
:1045E8009707002083C797A72E856375F40089472E
:1045F80063E8870001370D45B240224441018280BB
:1046080083A785FF99E703C7E5FF9307F00F6305C5
:10461800F700CD351545CDB7238F85FE170500204A
:10462800130585A34D3D22852244B240A165410171
:104638009DAC154582809707002023AF07A0828094
:10464800970700209387C7A69C4399E33E858280FD
:1046580003D727006316B70003C70700E308A7FEC0
:10466800DC47E5B7C9C1797122D406D626D24AD02B
:104678004ECE01444147B3D78540858BA5C312056B
:10468800314722953305E50297070020938747A60F
:1046980003A907008544B3948400C204C180BE897D
:1046A8002A990327090011C7032549002EC6029736
:1046B800B24531473304E40283A709003E941C4401
:1046C80089E72320090023220900B2502254A58D2E
:1046D80002599254F2492E85456182800504E31CF3
:1046E800E4F88144DDB72E858280411113970501D6
:1046F80022C406C626C24AC041872E84635E0700CC
:104708009D3511C1C53BA1673D8C2285B24022442D
:104718009244024941018280EDD9AA870147414666
:10472800B356E440858A8DCE9207BA97B146B387CF
:10473800D702970600209386A69B03A90600854406
:10474800B394E400C204C1803E998327090003257D
:10475800490082972320090023220900258C75B778
:104768000507E31FC7FA8144D5BF97070020938741
:1047780067949C53411122C406C61384818499C747
:1047880082971C403E9523A4A18439A09707002056
:10479800938787919C43EDF70840B74703009387B9
:1047A800D73F3305F502B7A72600938737ECB24009
:1047B80022443E9523A4A184410182807DC19707AC
:1047C80000209387678E9C43797122D426D24AD0E1
:1047D8004ECE52CC56CA5AC806D65EC63A8AB68952
:1047E800328BAE8A2A898297970700209387479051
:1047F8009843BE840144B146C147B30BD402330683
:104808007701104251EAC165938505F0414597D07B
:10481800FF1FE78040FA1DE59707002093878789E7
:104828009C5B2D4589C71145814582972D45B2501E
:10483800225492540259F249624AD24A424BB24B2C
:10484800456182809707002093878786984329E3EC
:104858009707002023AEA784230005009C40054746
:104868003317870023260500232465012311E5005B
:1048780023224501DE9723A0270123A2570123A461
:1048880047010145E38509FA238089004DB73E8732
:104898005C47F5FF48C7C9B70504E310F4F621459E
:1048A80079B70945828097F7FF1F83C7377B637104
:1048B800F50217F7FF1F1307677F931715000843C3
:1048C8003E9583570500DD8D2310B5000145828094
:1048D8000D45828097F7FF1F83C757786373F502EA
:1048E80017F7FF1F1307877C93171500084393C515
:1048F800F5FF3E9583570500FD8D2310B500014552
:1049080082800D458280130705FF1377F70FFD4757
:1049180063E9E70AB146B306D50297F7FF1F938705
:10492800277D984389473697184349CF011122CCF0
:104938004EC60544935945003D893315A400131408
:104948000501418026CA4E85AE84A2854AC806CE96
:10495800C5392A89814731CDA2854E85A53F97F76C
:10496800FF1F938767749C43829797F7FF1F83D72E
:104978002779338797022A84814613060064B3B7E0
:10498800970213050732B335E500BE95EFE0B1593C
:10499800B307850097F6FF1F938606763E87D442B5
:1049A80063E4A70063E4D7003387D7402324E900F2
:1049B8008147F2406244D2444249B2493E8505618A
:1049C800828089473E858280011126CA06CE22CC84
:1049D8004AC84EC6BD47894463EFA702314733072B
:1049E800E50297F7FF1F9387A7709C438944BA97FE
:1049F8009C4395C305443314A400420441802E8986
:104A08000145A2853539AA89814411C5A285014588
:104A1800D13523A42901F240624426854249D24473
:104A2800B2490561828097F7FF1F83C737636364C4
:104A3800F50001458280011197F7FF1F9387C7662C
:104A480056C283AA070006CE22CC26CA4AC84EC63A
:104A580052C4638D0A0A17FAFF1F130AEA698324EE
:104A68004A00B74736FE938707C8AE8997F5FF1FF8
:104A780083D50569BE94B387C5022A8432898146E5
:104A8800B3B5C50213850732B337F50013060064C2
:104A9800BE95EFE0514963EBA406829A97F5FF1F94
:104AA80083D50566B3872503AA8413060064814667
:104AB800B3B5250313850732B337F500BE95EFE08C
:104AC8009146B3079500BE8403274A0063E4A70014
:104AD80063E4E700B384E740CE852285953601C5B7
:104AE80004C505452DA0936504F0C205C181414563
:104AF80097D0FF1FE78020CC05E597F7FF1F938726
:104B0800675B9C5B81C7A285114582970145F2408E
:104B18006244D2444249B249224A924A056182809B
:104B280097F7FF1F9387C7589C439DE397F7FF1F8D
:104B380023A0A75885472326050004C5231135015E
:104B480023008500A300F5002322050059BFBA877A
:104B5800D84775FFC8C7F9BF59C9797122D426D279
:104B68004AD04ECE52CC56CA5EC662C466C206D67B
:104B78005AC83689328AAE89AA844144314C97FA98
:104B8800FF1F938AEA56854C930B0003330B84036B
:104B980003A70A005A971C43B1E79375F400B3952D
:104BA800BC0013554440C2055286C1811375F50FE8
:104BB8009D3D0DC983A70A000145DA9784C323A246
:104BC80037016304090023008900B250225492542B
:104BD8000259F249624AD24A424BB24B224C924C99
:104BE800456182800504E31374FB2145F9BF09453B
:104BF8008280411122C426C24AC006C62A842E8950
:104C0800B2841535CA852285EFF09FA305CD97F5A7
:104C1800FF1F83D5E54EB38795022A8413060064E7
:104C28008146B3B5950213850732B337F500BE95B3
:104C3800EFE0712F48C00145B24022449244024936
:104C4800410182802145CDBF411122C426C24AC0FC
:104C580006C62A892E84EFF0BF9EAA8419C12311A3
:104C68000500A2854A85BD3197F7FF1F83C7073F17
:104C7800639B270197F7FF1F83D7C7425D8C97F780
:104C8800FF1F23918742014591E01945B240224414
:104C980092440249410182809307F00263E8A70425
:104CA8004111B14722C43304F50226C297F4FF1F0D
:104CB800938404449C4006C6A297984389470DC331
:104CC8009377F5008545B395F500C205C18111813B
:104CD800A53F9C40A29723A0070023A20700814775
:104CE800B240224492443E854101828089473E85F4
:104CF8008280411106C622C4EFF09F9411E5014558
:104D0800B24022444101828097F7FF1F9387C73939
:104D18009C430045829797F7FF1F9387E73D636899
:104D2800A402D843B74636FE938606C83305A44086
:104D38003697E376E5FC13070064B335E50203D63E
:104D4800870081463305E502EFE0F11D55BFD843E2
:104D58003A94C1BF411122C426C217F4FF1F13049D
:104D6800A43997F4FF1F9384642F9448584097F709
:104D7800FF1F9387673306C69C436393E6088297B1
:104D88005440B74736FE938707C8B6973387A700BE
:104D98003A856364F7006364D7003305D74097F416
:104DA800FF1F9384644E9C4C81CF97F7FF1F938716
:104DB800A75494433707CDFF7D179C46F98F9CC6AF
:104DC80011E1484097F7FF1F9387C72EDC5382975E
:104DD80019E59C4C8DC3EF00C168EFF0B04B9C4CBB
:104DE80099CB97F7FF1F938727519843B70633004E
:104DF8001C47D58F1CC7B24022449244410182808F
:104E08008297984897F7FF1F83C7172C54401D8F28
:104E1800B307A7003E8563E4E700E3E2D7F83385EC
:104E2800D740B5BF411106C697F7FF1F23A4A72C8B
:104E38000295B24097F7FF1F23AEA7220145410113
:104E48008280994763E9B7008A0597F7FF1F938720
:104E5800A723BE9588C1828041117146814517F507
:104E6800FF1F1305652206C697F7FF1F23A2072415
:104E780097F7FF1F23A0072897F7FF1F23A60722EE
:104E880097C0FF1FE780A0B813068002814517F579
:104E9800FF1F1305A51C97C0FF1FE78040B7EF60F1
:104EA800613A97F7FF1F83C7572213D527008D8BC9
:104EB8003E958D473305F502854539051375F50F80
:104EC80097F7FF1F238DA71899473305F502130598
:104ED800052497D0FF1FE780008E17F7FF1F2329AF
:104EE800A72059CD994717F6FF1F034646173306E3
:104EF800F60281451306062497C0FF1FE78020B1FC
:104F080097F7FF1F9387C71E9C439387072417F7BC
:104F1800FF1F2329F71617F7FF1F034747140A0730
:104F2800BA9717F7FF1F2323F718EFF0CFF0052BD9
:104F380097F7FF1F93870715944397F7FF1F83C7BA
:104F4800F71113972700369717F6FFFF1306C67158
:104F580010C3138717001377F70F0A07369717F64A
:104F6800FFFF1306C67810C313873700890793F726
:104F7800F70F8A0797F5FF1FA382E50EB69790C330
:104F8800B2404101828097F7FF1F83C7370D17F79B
:104F9800FF1F0347C70C63F3E70217F7FF1F130749
:104FA800670E18439386170017F6FF1FA308D60A43
:104FB80093962700369708C33E8582809307F00FA3
:104FC800E5BF1C41638A071641777D8FB70600202D
:104FD80089476314D7160357450063000716411124
:104FE80022C419462A849305F00F690506C697C09E
:104FF800FF1FE780E0AB05478D47630AE5121C44B5
:1050080081CB5858994763040712185C630107124B
:105018001306C003814517F5FF1F1305A50997C09F
:10502800FF1FE780C09E1306C003A28517F5FF1F68
:105038001305450897C0FF1FE780E09917F7FF1F82
:105048000357070897F7FF1F9387C70619E7130742
:10505800001097F6FF1F2395E60617F7FF1F034773
:10506800470611E7054797F6FF1F238CE60417F755
:10507800FF1F0357270511E76D4797F6FF1F239377
:10508800E60417F7FF1F0347D70311E7154797F6FD
:10509800FF1FA388E60217F7FF1F0347C70211E7A0
:1050A800054797F6FF1F2380E60217F7FF1F034700
:1050B800970119E703C7F70097F6FF1FA385E600D6
:1050C80017F7FF1F0347470011E7354797F6FF1FFC
:1050D800238CE6FE17F7FF1F034757FF19E713074F
:1050E800800297F6FF1FA383E6FE17F7FF1F03470B
:1050F800B7FD19E71307D00297F6FF1FA386E6FC52
:105108000347840119E71307C00397F6FF1F238F8E
:10511800E6FA9C5791C7829797F7FF1F2394A7F445
:10512800FD5717F7FF1FA30BF7223D338147B24006
:1051380022443E854101828089473E858280011153
:105148004EC697F9FF1F938929FB83A7090006CE4E
:1051580022CC26CA4AC852C4829713090064B335C0
:10516800250303DA89008146528633052503EFE0DB
:10517800815B97F7FF1F938767EE804FAA840145ED
:105188006306940233858440636E940003A5490046
:1051980052868146B335A9023305A902EFE0A1582A
:1051A800018D269597F7FF1F23A697ECF2406244DE
:1051B800D2444249B249224A05618280011122CC77
:1051C8000A852E84414697050200938525CF06CE91
:1051D800EFE0F10E180806043A94035504FF97F718
:1051E800FF1F83D707F2F2406244AA9737450F00A2
:1051F800130505243355F5020561828097F7FF1FD3
:1052080083D727F051471D45637CF7027947194535
:105218006378F7021307200315456373F702130732
:10522800B0041145637EF700130740060D45637906
:10523800F7001307600909456374F70013B5B70F42
:105248008280011122CC06CE2A842EC6EFF0EFD13F
:10525800B245F240818D33A5A502229562441375AB
:10526800F50F05618280011122CC06CE2A842EC654
:10527800EFF0AFCFB245F240818D33A5A50222955C
:1052880062444205418105618280011122CC06CE2B
:105298002A842EC6EFF06FCDB245F240818D33B52A
:1052A800A502229562440561828097F7FF1F9387C4
:1052B80067E0985739CB411122C426C206C6BE847E
:1052C800029717F7FF1F0357E7D92A8415CBBA8728
:1052D8006373A700AA87C207C183BA866373E40011
:1052E800A286C206C182958F5147635BF700DC54E2
:1052F80091C38297EF00610097F7FF1F239487D629
:10530800B2402244924441018280828097F7FF1F75
:10531800938747DADC57011106CEAA8581C72AC6CA
:105328008297B245C1C59C410545B5CFDC41A5CFA3
:1053380083D78500ADCB83D7A500B5C783C7C50084
:10534800BDE3414617F5FF1F130505DB97B0FF1FA7
:10535800E780606897F7FF1F938707DA9C4317F782
:10536800FF1F2323F7D497F7FF1F83C737D68DE78F
:105378009307800217F5FF1F035585D83305F502FB
:1053880037460F001306062481468145EFE0A13910
:1053980097F7FF1FA38CA7D217050000130565DA3E
:1053A800EFF05FA80145F2400561828097F7FF1F83
:1053B80083C7A7D11397870161876354070497F7B9
:1053C800FF1F23AB07CA97C7FF1F9387C7A317F70A
:1053D800FF1F2323F7D27D5797F7FF1F23A0E7D29C
:1053E800B7873200938727A197F6FF1F23AAF6D025
:1053F80097F7FF1F238807D0B7C7004023A4E726E5
:1054080091BF13F7170005CFB7872003938707D0FD
:1054180017F7FF1F2326F7CEB707C0A817F7FF1FF8
:10542800232EF7CC97C7FF1F938707A117F7FF1FF6
:105438002324F7CC97F7FF1F238607CC21BF61777A
:1054480097F6FF1F239EE6CA81CB9307003217F712
:10545800FF1F2318F7CAC9B793072003CDBF01114F
:1054680022CC17F4FF1F1304E4C4084406CE26CA4E
:105478004AC801E90545F2406244D24442490561FF
:1054880082805C58E5DB185C75D77000854582978B
:105498001844B247E300F7FE9305E00417F5FF1F31
:1054A800035505C297C0FF1FE780E03017F7FF1FBD
:1054B8002326A7BC61D117F6FF1F035666C09305C4
:1054C800F00F97B0FF1FE7808054814417F9FF1F42
:1054D8001309C9B897F7FF1F83C7A7BE0326090298
:1054E80063C1F402328597C0FF1FE780E0390145A8
:1054F80097F7FF1F23A407B897F7FF1F23A207B842
:105508009DBF97F5FF1F83D5A5BBB38795020844B8
:10551800185C898185043E9508C2029765BF011110
:1055280056C297FAFF1F938AEAB883A78A0022CC4B
:105538004AC84EC606CE26CA52C45AC0AA892E8464
:1055480032896385072203A74A03630707147D4747
:105558006366A71497F4FF1F938444B003AA040258
:1055680063170A0A9565938515E017F5FF1F03551C
:1055780025B597C0FF1FE780002497F7FF1F23AFCB
:10558800A7AE2A86630A051083A74A0303A58A00E3
:1055980097F5FF1F83D5C5B28981829783A78A00B3
:1055A80003AA040217F7FF1F232CF7AC8947639C53
:1055B800F908C1476312F40E97F5FF1F83D545B06C
:1055C800938505FC9147B3C5F5028A05D29503C7B3
:1055D80005009307A005631DF70A83C715006399A3
:1055E800370B4A852286910597B0FF1FE780A03EBA
:1055F8009C505285639347150145F2406244D2445A
:105608004249B249224A924A024B05618280D850E7
:10561800E38EE7F89565938525E017F5FF1F035599
:1056280025AA97C0FF1FE78000192A8A35C52A8650
:1056380083A74A0303A58A0097F5FF1F83D545A8CA
:1056480089818297A5B78D47639DF900C147631586
:10565800F40497F5FF1F83D5A5A6938545FDF19919
:10566800B5B79147639AF9006318340397F5FF1F9C
:1056780083D505A5A115E5B7C147639FF900A147E3
:1056880063EC870097F5FF1F83D585A3C115C1BFBC
:105698009C5052856397470D294585B71307F00637
:1056A800568B6361A70A130A05FE1947334AEA02B3
:1056B80017F7FF1F0357C7A097FAFF1F938A0A9A85
:1056C800330AEA023E9A83A74A026395470183A4F4
:1056D8000A029DE49305E00417F5FF1F0355459E54
:1056E80097C0FF1FE780200DAA845DD583274B0351
:1056F80097F5FF1F83D5C59C2A8689815285829795
:1057080091451307A005898193972500A69783C61D
:1057180007006393E60483C61700639C3603850578
:105728008A052286A6954A8597B0FF1FE780A02A9A
:1057380083A70A02E38297EC268597C0FF1FE780BC
:10574800A0145DBD1307E007E368A7F4130A05F981
:1057580085B783D5270045BF83A70A02E38E97F252
:10576800268597C0FF1FE78020123DB797F7FF1FD8
:105778009387C78E8C538DD191479306A005898353
:10578800139727002E9703460700E317D6F0034622
:105798001700631C360185078A072286BE954A854D
:1057A80097B0FF1FE780202381BD83572700C1BF23
:1057B80097F7FF1F93870790984739C79C5FA9C73A
:1057C80005476313E504411122C417F4FF1F1304AE
:1057D800E488105006C60DC6485097F5FF1F83D5BC
:1057E800258E89818297085097C0FF1FE780C009DE
:1057F80097F7FF1F23A4078897F7FF1F23A207889F
:10580800B2402244410182808280011117F7FF1FB4
:105818001307478A4EC68329870022CC26CA4AC85E
:1058280006CE52C456C2AA842E843289638A0920BD
:105838001C5FBA8A99EB2945F2406244D244424936
:10584800B249224A924A056182805C5BEDD7FD47E6
:1058580063E9A70E97F9FF1F9389498083A7090277
:10586800B1CB03A58A0083A749026395A706894798
:105878006393F408C147E310F4FC17F5FF1F0355C1
:1058880025849147130505FC3345F5029317250038
:1058980003A509022286CA853E959307A005230021
:1058A800F500A3009500110597B0FF1FE780A0122F
:1058B800014559B79305E00417F5FF1F03554580C7
:1058C80097C0FF1FE78020EF97E7FF1F23A8A77A5D
:1058D80049F995B783A74A0303A6090297E5FF1F6D
:1058E80083D5057E8981829783A78A0017E7FF1FE2
:1058F8002328F778ADBF8D47639EF400C147E31CAA
:10590800F4F217E5FF1F0355A57B130545FD9377B3
:10591800C5FFBDBF9147639AF400E31E94F017E5F5
:10592800FF1F0355E5792115DDB7C147E395F4F06D
:10593800A147E3E287F017E5FF1F03556578411596
:10594800F9B79307F00663EAA706930705FE194718
:10595800B3C7E70217E7FF1F0357877617EAFF1F4A
:10596800130ACA6FB387E702BE9983270A02A9CF31
:1059780083274A02639A370703250A0291461308C8
:10598800A005FD5593D72600C207C18313972700AA
:105998002A9703460700631D060783481700035626
:1059A800270063959806B306D64063CF860485071B
:1059B8008A072286CA853E95C5BD9307E007E3ECB2
:1059C800A7E6930705F979B79305E00417E5FF1FE4
:1059D8000355056F97C0FF1FE780E0DD97E7FF1FBE
:1059E80023AEA76851F581BD83A74A0303260A029F
:1059F80097E5FF1F83D5C56C89814E85829797E708
:105A0800FF1F23AF37678DBFA300B700B2869DBFC6
:105A1800B385860017E6FF1F0356866A91051306AD
:105A280006FCE3FAC5E0130634001376C60F110628
:105A3800B29623000701A30097002311D70085BF62
:105A480097E7FF1F938787619453BE89A1C203A577
:105A5800090291461308A005FD5593D72600C207F1
:105A6800C183139727002A97034607006316060584
:105A7800834817000356270063989800B306D6405A
:105A8800E3D786F2A300B700B286C1BF8357C70029
:105A980017E5FF1F0345E5629305E0043305F502AA
:105AA8004205418197C0FF1FE780E0D097E7FF1FBD
:105AB80023A6A75C49FD41B317E6FF1F03564660BE
:105AC80097E5FF1F83C5E55FB385C502338686006A
