:040000006F009041BC
:100004000000000000000000E0000020EA0A0020D8
:10001400A9BDF9F3E000002000000000000000008A
:10002400E0000020E00000200000000000000000CC
:100034004A070020000000005806002000000000CD
:10004400AC0B0020AC0B0020AC0B0020AC0B002050
:10005400AC0B0020AC0B0020AC0B0020AC0B002040
:10006400AC0B0020AC0B0020AC0B0020AC0B002030
:10007400AC0B0020AC0B0020AC0B0020AC0B002020
:10008400AC0B0020AC0B0020AC0B0020AC0B002010
:10009400E0000020FA050020E0000020E00000203D
:1000A400E0000020E0000020E0000020E00000204C
:1000B400E0000020E0000020E0000020E00000203C
:1000C400E0000020E0000020E0000020E00000202C
:1000D400E0000020E0000020E0000020E00000201C
:1000E4006F0000002303048015472303E48001000C
:1000F4002302A480828083076480E3CE07FE230367
:100104000480828083076480E3CE07FE0345448035
:10011400828083076480E3CE07FE2302A48082806A
:10012400411126C44AC24EC006C61377F50BAD472B
:10013400AA892E8995446306F70019456537653FFA
:100144008D444E854537FD59FD1463983401B24002
:10015400A244124982494101828013550901137551
:10016400F50F453F2209CDB7011126CC06CEB704C1
:10017400080051371545BD37713769372AC6A53F81
:1001840032459377150089EB136515001375F50F48
:10019400F240E24405618280FD14E9FC0145CDBFD3
:1001A400397126DC4ADA4ED852D656D45AD25ED0A9
:1001B40006DE62CE66CCB7E700E07D5783AA07006F
:1001C40022C603AA470023A0E71823A2E718B717FB
:1001D4000040130770052380E704130780FA238087
:1001E400E70483C74704930B75FFB684E20793FBC8
:1001F400FB0F8546AA892E8B328937240040E1877C
:10020400015763FA76016308D50089461307000293
:100214006313D5000157D98F93F7F70FB71C00402C
:100224002382FC0411472303E4801305F00F5D3D92
:10023400094CD135636D7C11B7050700DA95378712
:100244000700795563F2E504B3879500636EF702FE
:10025400370B0800A94733EB65016399F90689E474
:100264008144513D26850DA0DA850945553D050992
:100274000345F9FFFD14050B693D81C49377FB0F1A
:10028400FDF7DD3569FD7D55B7170040130770058F
:100294002380E704130780FA2380E70403C7470495
:1002A400418B2382E704F250B7E700E023A0571103
:1002B40023A24711E25432445259C259325AA25A23
:1002C400125B825B724CE24C21618280A54763958C
:1002D400F90685691309F00FB3069900B3742B016D
:1002E400B6941349F9FFB3749900856B33796901A6
:1002F400416B9387F9FFB3F7270199E363FC34015A
:1003040093D94900C147E3E637FF99BF0569C1693D
:100314007D19D9B71305800D63886901130500029F
:100324006384790113051008CA85DD3B353D21DD61
:100334004E99B3843441D9B7DA852D45D533CA945F
:10034400E30099F205097D3BA30FA9FED5BF93876E
:10035400F9FF93F7F70F6361FC0C83C71C041307C1
:100364003008631FF70437070800636BEB04B30717
:100374009B00B706100063F5D704334BEB008947A5
:100384006393F9068980D549E38C04ECDA85094541
:10039400413B11090327C9FF91472320E480030748
:1003A4006480E34E07FE23033481FD17EDFBFD1447
:1003B400110B81C49377FB0FE9FF7D3371F5E1B530
:1003C400B717004003C75704B7070800137707029D
:1003D40019E3B78707007955E378FBEA33079B00F5
:1003E400E3FFE7F855B58547E382F9F2DA852D4551
:1003F400053B9389F4FFE38504E6293393F7390039
:1004040091EB832604800327090093074900E39AAC
:10041400E6E43E89CE84F1BFB5476396F90013053F
:10042400900BC93135BDB1471305B00AE38BF9FE12
:1004340099476391F904B7050800B365BB002D45DE
:10044400C53181448D4BA149753963967401832765
:1004540004802320F9008504E39834FF8327048073
:1004640013172B01635507002312F900D5BB232270
:10047400F900FDB39D476399F90281451305B00462
:100484004531BD442320090023220900FD599D392B
:1004940093F77400CA9703C70700FD14398D2380AE
:1004A400A700E39634FF6DBBA1476392F9046D394D
:1004B4008144630D0B008D479304C0036308FB0064
:1004C4009304000563048B01930440041375C5076A
:1004D400E30895D81945393139390545213126853F
:1004E4000D3909453D314931E31C05D669BB9147B6
:1004F4006399F90013056006F536F53E1305900976
:100504000DB7E38F09D4F154A9BB411122C4096486
:1005140026C206C613040471975400E0938404575A
:100524002285973000E0E780E073974000E0E780A1
:10053400E0DCAA852685974000E0E780C074CDB74B
:10054400411122C406C6175400E01304A45613052F
:10055400007D973000E0E780E070974000E0E7809E
:10056400E0D9AA852285974000E0E780C071C5B72D
:10057400411193850181014506C622C426C24AC0A1
:10058400972000E0E780206F21ED854505659740C1
:1005940000E0E780A0B489450565974000E0E78066
:1005A40040BEB7E700E03707020023A0E7109384BA
:1005B4000181175400E013042453175900E0130970
:1005C400E9518840FD55972000E0E780206B19E54C
:1005D4004A85974000E0E780E07CE5B72285D5BFF7
:1005E4002244B24092440249175500E01305C55015
:1005F4004101174300E06700E37A4111B717004057
:1006040022C403D4C70906C64204418093173401A7
:1006140063D90700938701818843972000E0E7802E
:10062400A07AB7170040239E8708B24022444101B4
:100634008280B7E700E0116723A0E72082804111A0
:1006440006C6972000E0E780802B93878189D843F2
:10065400B24098C341018280197106C216C41AC6F9
:100664001EC822CA26CC2ACE2ED032D236D43AD6AE
:100674003ED842DA46DC4ADECEC0D2C2D6C4DAC69E
:10068400DEC8E2CAE6CCEACEEED0F2D2F6D4FAD68E
:10069400FED892DA9382818983A2020023A02200E9
:1006A400F322103416C0EFF09FF9B72200009382B2
:1006B40002807390023097020000938222017390AB
:1006C4001234730020300000B722000093820288A5
:1006D400739002309382818983A2020003A10200F5
:1006E4008242739012349240A2423243C243524433
:1006F400E244724582551256A2563257C257525896
:10070400E25872598649164AA64A364BC64B564C8D
:10071400E64C764D865D165EA65E365FC65F565223
:100724000961730020301387018F1C4385071CC3A4
:1007340082801387018F1C43FD171CC3828093871B
:10074400018F88433335A0008280F13F9387418F26
:100754009C4391C38297B7F700E023A20700D13FDF
:100764007300203073270080218B9387818F09CBFE
:100774007327008023ACE18E98435D9B7310078040
:100784000F10000037170040930670052300D704AC
:10079400930680FA2300D7040F1000008346B704A1
:1007A40093F6F60DA305D7042300070473260080EF
:1007B4009443A18AD18E7390068023AC018E0F10CE
:1007C400000093760502638406180347A700118B83
:1007D40025E773270080218B09CB7327008023AC86
:1007E400E18E98435D9B731007800F10000037174C
:1007F4000040930670052300D704930680FA230073
:10080400D7040F1000008346A70093E64600230593
:10081400D70023000704F32600809843218B558FCB
:100824007310078023AC018E0F1000001307004BD8
:10083400010001007D176DFF73270080218B09CB18
:100844007327008023ACE18E98435D9B731007806F
:100854000F10000037170040930670052300D704DB
:10086400930680FA2300D7040F1000007D89231417
:10087400A700010001000100010023000704F32682
:1008840000809843218B558F7310078023AC018E11
:100894000F10000073270080218B09CB7327008081
:1008A40023ACE18E98435D9B731007800F1000000A
:1008B40037170040930670052300D704930680FA87
:1008C4002300D7040F1000000F100000B7260040CB
:1008D40013061005A383C68023000704F3260080B3
:1008E4009843218B558F7310078023AC018E0F1012
:1008F400000073270080218B09CB7327008023AC71
:10090400E18E98435D9B731007800F10000037172A
:100914000040930670052300D704930680FA230051
:10092400D7040F1000008346B70493E60608A30516
:10093400D70423000704732700809C43A18BD98F1D
:100944007390078023AC018E0F1000008280937691
:100954000504638B06140347A700418B25E773271F
:100964000080218B09CB7327008023ACE18E984350
:100974005D9B731007800F1000003717004093062B
:1009840070052300D704930680FA2300D7040F10C0
:1009940000008346A70093E606012305D700230041
:1009A4000704F32600809843218B558F731007802A
:1009B40023AC018E0F1000001307007D010001001D
:1009C4007D176DFF73270080218B09CB732700806F
:1009D40023ACE18E98435D9B731007800F100000D9
:1009E40037170040930670052300D704930680FA56
:1009F4002300D7040F1000009376F50193E6060454
:100A04002314D700010001000100010023000704A2
:100A1400F32600809843218B558F7310078023ACF5
:100A2400018E0F100000130760046310E5047327A0
:100A34000080218B09CB7327008023ACE18E98437F
:100A44005D9B731007800F1000003717004093065A
:100A540070052300D704930680FA2300D7040F10EF
:100A64000000B72600400946B5B573270080218BE6
:100A740009CB7327008023ACE18E98435D9B7310F0
:100A840007800F10000037170040930670052300FD
:100A9400D704930680FA2300D7040F100000B7266A
:100AA4000040130620053DB573270080218B09CB38
:100AB4007327008023ACE18E98435D9B73100780FD
:100AC4000F10000037170040930670052300D70469
:100AD400930680FA2300D7040F1000008356870082
:100AE40093E6060C2314D700C5BB81460146814515
:100AF4001145EFF0EFEAF3270080A18B1387818F74
:100B040089CBF327008023ACF18E1C43DD9B7390CB
:100B140007800F100000B71700409306700523806C
:100B2400D704930680FA2380D7040F100000FD56E3
:100B34002396D70223800704F32600801C43A18B4D
:100B4400D58F7390078023AC018E0F100000F3271C
:100B54000080A18B89CBF327008023ACF18E1C434A
:100B6400DD9B739007800F100000B71700409306B9
:100B740070052380D704930680FA2380D7040F10CE
:100B8400000083C6670493E616002383D7042380FA
:100B94000704F32600801C43A18BD58F7390078034
:100BA40023AC018E0F10000001A00000EFF0BFB7CE
:100BB400F32520349395250017F5FFFF1305854988
:100BC4003305B50003250500F322408013F322000A
:100BD400631E030273100134177100001301814274
:100BE40073604180E7000500737004301300000057
:100BF4001300000013000000737041801300000014
:100C040073210034EFF0FFB273002030E7000500D9
:040C14006FF05FFF1F
:100C18009711002093818188177100201301013EEC
:100C28001305400097F5FF1F9385453D17060020E3
:100C3800130606FE63FCC5008322050023A05500A9
:100C48001305450093854500E3E8C5FE17650000D8
:100C5800130545A7970500209385C5FB13860181D9
:100C680063FCC5008322050023A055001305450039
:100C780093854500E3E8C5FE13850181973500207B
:100C88009385C5246378B500232005001305450026
:100C9800E36CB5FE9302F001739002BC930210005E
:100CA80073904280B72200009382028073900230D2
:100CB80097F2FF1F9382823493E23200739052308E
:100CC80037170040930770052300F704930780FA4D
:100CD8002300F7040F10000083278704B70600FAE3
:100CE800938686FFB3F7D700B706000693865600AB
:100CF800B3E7D7002324F704970200009382221F4A
:100D080073901234730020307325003093028008EA
:100D180073B002308280732500309302800873A07C
:100D280002308280731005308280010093828189AD
:100D380003A3020003210300824273901234B722F6
:100D4800000093820288739002309240A24232439C
:100D5800C2435244E244724582551256A256325753
:100D6800C2575258E25872598649164AA64A364B13
:100D7800C64B564CE64C764D865D165EA65E365FD3
:100D8800C65F56520961730020303D432A8763735A
:100D9800C3029377F700BDEFADE5937606FF3D8A72
:100DA800BA960CC34CC30CC74CC74107E36BD7FEBC
:100DB80011E28280B306C3408A0697020000969625
:100DC8006780A6002307B700A306B7002306B7006D
:100DD800A305B7002305B700A304B7002304B70091
:100DE800A303B7002303B700A302B7002302B70089
:100DF800A301B7002301B700A300B7002300B70081
:100E0800828093F5F50F93968500D58D939605010D
:100E1800D58D61B793962700970200009696868233
:100E2800E78086FA9680C1171D8F3E96E374C3F853
:100E3800A5B73971814559461305A10106DEB137B9
:100E480097F7FF1F938787723ECA9307002D3ED2FC
:100E580097570000938707CB3ED44C08994708085A
:100E6800231CF100EF20703D19C51755000013052C
:100E780065CAEF30707297F7FF1F9387276C3ECAD9
:100E88009307002D3ED297570000938767CA3ED438
:100E98004C0899472800231CF100EF20103A19C587
:100EA80017550000130505CAEF30106F97F7FF1F9D
:100EB800938767653ECA9307002D3ED29757000077
:100EC800938787C93ED44C089D476800231CF100CE
:100ED800EF20B03619C517550000130525C9EF30A6
:100EE800B06BF250014521618280411113058004E5
:100EF80006C622C497000020E78080863717004086
:100F08008327870A8D451305002093E707202324AC
:100F1800F70AEF30E01BEF30803A17550000130551
:100F280025B4EF307067EF0090612A84193719E013
:100F3800EF00B06017550000130505B3EF30D0651A
:100F48000100FDBF411122C426C206C6AA846D3B1A
:100F5800938741819C432A8499C326858297228559
:100F68002244B2409244410175BB411122C406C6D5
:100F780089477D5463C7A70079158D4763F8A70093
:100F880001442285B2402244410182800545F13F57
:100F98002A847DF5EF20F0032A8697550000938573
:100FA80025BE175500001305E5BDEF30104DD1BF24
:100FB800938781819C4381CB411106C68297B240B9
:100FC80001454101828001458280635BB004AA87A4
:100FD800594829C94111328706C62E8609EB814531
:100FE8006D3313086009B24042854101828063F77E
:100FF800D5008145593B1308200AF5B76376A70049
:10100800B305D7006368B5000148E3FEE7FCBE9668
:10101800E37BD7FC81453E858D3B1308600BE1B728
:10102800130820024285828063E3D5020DC105C200
:1010380063CF050089CE6376A600B307D60063792F
:10104800F5006376C500B307D5006373F600B5BF36
:101058004111B285368606C6EF30501FB2400145B1
:1010680041018280AE8763CB05021DC1011106CE06
:10107800B285368663E7D70297070000938727D1A2
:101088003EC6B24782970147F2403A8505618280A1
:101098001307200291C159473A858280130720021D
:1010A800E5BF13072002EDD33E86C5311307200A9A
:1010B800E1BF1C415441D8433697D8C358413A95AB
:1010C8001CC182801307C53A5C4163E6E5003E9582
:1010D80033B5A50082800145828083A6C5FF93971A
:1010E800160063D20706011106CE22CC63DA060287
:1010F800094536C69D3DB24619C58145F240624450
:101108002E85056182801306C0539755000093858C
:10111800A50C17550000130565DFEF301036F1BF39
:10112800370400C07D14758C8D8A99E63385A540F7
:101138006115818DE37485FC0945053D5DFDA28639
:1011480013064054D9B72E858280139725002A9715
:10115800145B5C466394C6021CDB91EF93D7550081
:101168008A073E958547B397B7004C4993C7F7FF61
:10117800ED8F5CC9828023A40700828018465CC773
:1011880091C398C782806364B502AA8701456362E8
:10119800F602D8430545634E07008C434111368556
:1011A80006C60D37B2403335A000410182800145A3
:1011B80082808280797126D244415AC85EC6E11481
:1011C800AE8B130BC53AAA944ECEAA86AA89268658
:1011D800DA855E8552CC06D622D44AD056CA6537FF
:1011E8007D5A39C903A94B007D5A63570904B70AC8
:1011F8000040FD1A337959015E99CE862686DA8534
:101208004A85513715C9032409006317740363011C
:101218008B0403290400CE862686DA854A85A537FD
:1012280001CD83274900B3FA570156993304244165
:1012380033348000330A8040B2502254528592548D
:101248000259F249624AD24A424BB24B4561828006
:10125800014ADDB75841931727008983634807027D
:101268003E870546014581479441B697D4419CC1C4
:10127800BA96D4C1944563F3E600BA86D8459C492A
:1012880094C52A97B297D8C59CC98280014605455E
:101298000147D9BF011106CE22CCF94763F6B70042
:1012A8009307F00763E5A7022AC409452EC67539D6
:1012B80001442246B24519E517550000130545EBD0
:1012C800EF30B01B2285F2406244056182800E0532
:1012D800A1153355B500130485FFEDB7411126C29A
:1012E80006C622C49307F007AA8463EDA700098104
:1012F8007D15F9477D5463EEA700B240224492441D
:1013080041018280EF20107F7D44098C4204418096
:101318006104A2852685BD3F05140E047D0522952E
:10132800E9BF011122CC2A84C8412EC606CE7D37DA
:101338009307E00DB24563F9A700AA851755000089
:10134800130505E0EF00301C93172500A297985B62
:1013580011C30CC723A40500D8C58CDB93575500CF
:101368008A073E948547B397A7004848F2405D8DA9
:1013780048C8624405618280011122CC2A84C84190
:1013880006CE2EC6A13FAA85228562443246F24087
:10139800056165BBDC41411122C426C24AC0B38441
:1013A800C50006C6918FDCC08CC0D0C1C0402A8958
:1013B8000A04098026945C4004C063C60700A2851D
:1013C800653F2285FD312244B240A6854A85924474
:1013D80002494101B9B7011126CA4AC84EC606CE0C
:1013E80022CC2A89AE84F933AA8915C10945B53EAC
:1013F80019E517550000130525D3EF30F019F24011
:1014080062444E85D2444249B24905618280DC403B
:101418000327090180408A0789831D8F2328E90053
:10142800DCC011C85C4063C80700A2854A85A9379B
:1014380026854131A284C0400A040980269409C83F
:101448005C4063C707004A85A2853D3722859531F0
:10145800A6854A85F93565B719E17D558280011160
:101468004AC806CE22CC26CA4EC61309403B63742E
:10147800B902B367B5008D8B2A84AE848DC7094540
:10148800ED3411E991462686A2851745000013051B
:10149800A574EF30807E7D55F2406244D2444249C3
:1014A800B249056182801306C03A8145EFF0FF8D8D
:1014B8001C4444C09309C43AF19B1CC49387C4C418
:1014C800E114A2942328F43A228500C02326943AF2
:1014D800CE85813DB707008023A03401DCC02328D6
:1014E800240123262401014545BF011126CA06CE41
:1014F80022CC4AC8FD541DCD95CDB367B5008D8B60
:1015080095EB1C452A840149898B91E72EC6EFF09B
:10151800AFFFB2452A892285C936FD5411C5930506
:1015280085FF22854D3DAA841C44898B81E74A8525
:10153800EFF04FFFF240624426854249D2440561EC
:101548008280630C052A1C45397122DC56D206DEDE
:1015580026DA4AD84ED652D45AD05ECE62CC66CA63
:101568006AC86EC6898B2A84814A81E7EFF0CFF971
:10157800AA8A832944001C40E119A2996315F40042
:1015880093773400B9CF0945CD3211ED9306A068A1
:1015980017560000130686C8A285174500001305D4
:1015A800A569EF30806D1309C43A370B0040CA842F
:1015B8007D1B63E5340F1C44898B81E75685EFF06A
:1015C8006FF6F2506254D2544259B259225A925A82
:1015D800025BF24B624CD24C424DB24D0145216147
:1015E8008280130B0403814B014A974C0000938CB3
:1015F800AC67130CF00D83240B0095EC050A110B56
:10160800E31B8AFFE3810BFA0545853209E950405F
:10161800A285174500001305E568EF30006605450B
:10162800A93251F110484C44174500001305856A4A
:10163800EF30A0648DBFA6852285693429C103A92E
:10164800840063060900CA852285AD3C0DC983ADB7
:10165800C40063860D00EE852285AD340DC103AD4F
:1016680004002285EA85B93C19C93369B90133E90F
:10167800240133692D0113793900630F09000945E5
:10168800EFF0BF8E854B09E9DC44984494402686E8
:10169800D2856685EF30605EC44485B78C4022856C
:1016A800153445E90945EFF05F8C11ED94401306B8
:1016B8002066975500009385E5B41745000013058B
:1016C8002565EF30805B639C24010545EFF0FF89B9
:1016D80019E5174500001305A571EF30E06BDC40F4
:1016E800054563DC070CEFF05F8809E9D0408C40C2
:1016F8001745000013050572EF302058832749006D
:10170800054563DA070CEFF05F8619E903264900FF
:10171800832509001745000013054574EF30E0558F
:101728002146CA8513854190EF3040322146A6856F
:101738001385C190EF3080311C44898B81E7568531
:10174800EFF04FDE4A86A68517450000130505759C
:101758005D2B03AA4400634D0A048C4485C5228589
:1017680095320DE10945EFF05F8031FD9444130691
:10177800C06497550000938525A7174500001305F9
:10178800A55D81B7CC448DC522852D3A15E1094563
:10179800EFF0AFFDE31905F2D44413062065975521
:1017A8000000938565A4174500001305A55F11BFC8
:1017B800337A6A012689D294EDBBEFF00FFB1DFD49
:1017C800D8409444D0448C401745000013058566E2
:1017D800EF30A04A25B7EFF04FF939F10327490058
:1017E800832689000326C9008325090017450000C0
:1017F80013058568EF30604825B77D558280011153
:1018080006CE22CC26CA4AC84EC652C456C25AC0B0
:1018180005E50545EFF06FF559E517450000130597
:10182800E56B6244F240D2444249B249224A924AA4
:10183800024B05616F3040562A84AE8A328B1133D1
:10184800AA8911C90545EFF04FF231ED174500009F
:101858001305056AF9B71C44898B81E7EFF0CFCAF5
:10186800AA8903294400370A00409304C43A61193D
:1018780022997D1A63E124031C44898B8DE7624415
:10188800F240D2444249224A924A024B4E85B2491A
:1018980005616FF02FC92685DA85829ADC40B3F797
:1018A8004701BE94C1BFF2406244D2444249B249A2
:1018B800224A924A024B05618280411106C622C41F
:1018C80026C29DE10945EFF04FEA01C97D54228502
:1018D800B24022449244410182801745000013051A
:1018E800252BEF30604BDDB72A8401C51C4163808E
:1018F800A7020945EFF06FE771F91306D079A285C1
:10190800174500001305052BEF302037C1B7AE840B
:10191800614681452685EFF04FC7228526869705C3
:10192800000093856593E13D1C440145898B99E34B
:10193800EFF08FBD5C44DCC81C440144898BC1FBBB
:10194800EFF04FBE69B75D71AD05A6C2CAC04EDEE5
:1019580086C6A2C452DC13F9C5FF9307F007AA8410
:10196800B28963E02713135429007D14F947130A39
:10197800F00D63FE87007D54A2854A850514EFF0BB
:101988007F910E042A94130AF40113040402935756
:10199800540091078A07A697C8438547B3978700DD
:1019A800B307F040E98F8DC33305F0407D8DEF20FC
:1019B8007014FD45898DC205C181137504FEAA9571
:1019C8009307F00D639AF50E9305140013040402AF
:1019D800814763F38500FD47BE9513F405FE1307A1
:1019E800E00D6379870A9307F00D6309FA009307FE
:1019F800CA008A07A6978043631704100945EFF0C9
:101A0800CFD619E51745000013050552EF30C03849
:101A18009C44898B81E74E85EFF0CFB061468145C4
:101A28002808EFF08FB62C082685413DFD57631333
:101A3800F50E9C44898B99E3EFF00FAD0945EFF063
:101A4800CFD201ED4A869745000093852578174542
:101A580000001305A569EF3040220945EFF0EFD0EB
:101A6800014419E5174500001305054CEF30C03255
:101A78002285B640264496440649F259625A616165
:101A880082804A85EF2010077D44098C42044180FA
:101A98006104DDB59357540091078A07A697DC4384
:101AA800A5C33305F0407D8DEF20D004FD47B385F5
:101AB800A740C205C181A2959387C5008A07A6974A
:101AC80080430DDC22862685EFF02FE858409307E7
:101AD80009016367F7004A86A2852685EFF09F8B88
:101AE8005C40370700805D8F58C098488A07898313
:101AF800BA97D8449CC86373F700DCC421048DBF2F
:101B080013040402F9BD5C4063F427014044EDB5B9
:101B1800D2854DBF0545EFF04FC519E517450000C3
:101B280013054547EF3040270545EFF00FC419E589
:101B3800174500001305454EEF3000260545EFF028
:101B4800CFC2E31805EEB257A25812583EC07247EA
:101B58008257E246D0408C401745000013050554D3
:101B6800EF30A011F9B5011126CA06CE22CC4AC819
:101B7800814429C1A1C1A14763F3F500A1451C45D2
:101B88002A840149898B91E72EC6EFF0EF97B24579
:101B98002A89814463CA05009397150063C6070024
:101BA8004A8622854D33AA841C44898B81E74A855D
:101BB800EFF04F97F240624426854249D2440561CE
:101BC8008280797122D406D626D24AD04ECE0144DC
:101BD80051C1C9C141C21309F6FF93673900F18F9A
:101BE800B5EBA14763F3F500A1459307C6FF13C7FB
:101BF800F5FF01446360F706BE9563CD050493972E
:101C0800150063C907041C453284AA84898B81495D
:101C180091E72EC6EFF04F8FB245AA894E862685EA
:101C28001D332A993304804033748900630E85007C
:101C38000327C5FFB7060040B307A440558F232EDE
:101C4800E5FED58F232EF4FE9C44898B81E74E85D3
:101C5800EFF04F8D2285B250225492540259F24926
:101C680045618280411117F5FF1F130565148D65C5
:101C780022C406C623AEA180EFF00FFE2A841145C8
:101C8800EFF0AFAE19E99387C1818C430D66174514
:101C980000001305E550EF20507E2285B240224413
:101CA8004101828009C993074500232005001CC50E
:101CB8005CC10145828037250002130565C082801A
:101CC80015CD411122C406C62A84EFF0EF831844CB
:101CD80093074400630CF700EFF0CF843725000228
:101CE800130585C0B24022444101828023240400A8
:101CF80023220400EFF00F830145EDB737250002DA
:101D0800130565C08280397122CC3EDA2A845C10C2
:101D1800094506CE2ED232D436D63AD842DC46DE33
:101D28003EC6EFF08FA409E5B2452285EF20F07496
:101D38000945EFF02FA1EF20201E6F20202341112D
:101D4800054506C622C4EFF04FA219E51745000065
:101D58001305054EEF30400431372A840DC109457B
:101D6800EFF0AFA001E9A285174500001305C54DA6
:101D7800EF20B0702285B240224441018280EF20DA
:101D8800401AEF20C0092A8419C90945EFF0EF9DD0
:101D980075F1A285174500001305C54CD1BFEF109A
:101DA800B0152A8401CD0945EFF02F9C61F5174540
:101DB80000001305254DEF20307E6DBFEF00905BCE
:101DC8002A844DF989202A8455F569282A8411C95D
:101DD8000945EFF08F9959FD174500001305C54BCC
:101DE800D9BFEF1000712A8411C90945EFF0EF97A8
:101DF80051F1174500001305654B75BF2244B240E9
:101E080041016F10903D411122C41384418223A4E3
:101E1800818223A281829387C18188439305000F21
:101E280006C6913323A0A1820DC921058147294601
:101E3800230C05FE1840232EF5FE232405005443E9
:101E480018C1850754C188C248C36105E392C7FE1B
:101E58000145B24022444101828037250002130522
:101E680005D0C5BF9387C1818843411193050012EE
:101E780006C6D53923A6A18221C9930600120146B8
:101E880093050012EFF00F9E9386018323AAD18257
:101E980023A8D1829387C1829C4301471945938720
:101EA800070290422397E7FE05074C4290C342077A
:101EB800CCC39CC15CC2418393870703E313A7FE8D
:101EC8000145B240410182803705000213051560C3
:101ED800CDBF79C6C167ED1763E9E70CE1CD79CBD2
:101EE8000111110726CA93140701C1804AC82E8917
:101EF800B38595025AC0138BC18156C2AA8A03259D
:101F08000B004EC652C406CE22CCB289A9392A8A01
:101F18005DC5EFE07FDF93870183C0436317F40259
:101F2800EFE05FE003250B00D285EFF00FDC37050B
:101F3800000213054560F2406244D2444249B24966
:101F4800224A924A024B056182801C4058401CC3B9
:101F5800D8C385472314F4FE930784FF232EF4FE89
:101F6800232CF4FE930784005CC41CC4232254FF72
:101F7800231524FF231694FE232044FF231A04FE6E
:101F8800231B24FF231804FE231904FE40C000C0AD
:101F9800EFE05FD98357E4FE014523A0F90061BF54
:101FA800370500021305C560828037050002130556
:101FB80035608280370500021305D56082803705B9
:101FC80000021305256085BF797122D426D24AD034
:101FD8004ECE52CC56CA2A8406D65AC82E89B28A00
:101FE800B6893AC613FA1500EFE01FD2930700032B
:101FF8003304F4029387C1829C43AA843E94835796
:102008008400638E071E83A60900324763070A000F
:102018008357C400F11763E9D71EB707008093C739
:10202800E7FF63E8D71E93171A00A29783D64701E4
:10203800ADE219EB3704000263020A1E130464615F
:102048002685EFE03FCE65A083D7018A639B071CF6
:1020580013053A000E0593878189BA85229503AB4B
:102068000700EF00206F2685EFE0DFCBEF00302F71
:10207800EFE09FC983574B00AA8413F7070409CFE1
:1020880093F7F7FB370400022312FB001304746074
:1020980045BFFD16239AD700937739000547638F0C
:1020A800E708ADC30D476386E70A0945EFE0FFEB94
:1020B80019E5174500001305A520EF20F04D134939
:1020C800F9FF13791900930729008E07A297C847CB
:1020D800930739008E07A297630AF510130585FB4D
:1020E80065252685EFE01FC40144EF0050272285AF
:1020F800B250225492540259F249624AD24A424B8F
:1021080045618280035504010357A4009307150015
:102118006393E702231804008355C4001C40330569
:10212800B5023E9593774900B9C763120A041C416A
:1021380023A0FA0069B72318F400F9BF0355040176
:1021480019E10355A4007D15420541812318A40017
:10215800E1B7035524010357A400930715006395BD
:10216800E700231904004DBF2319F40075B783A7AE
:102178000A001CC1A9B71387C5FF2A9783A70900BE
:1021880063150A04032A070063F347013E8A2A8677
:10219800D286BE855685EFE03FE90DC52AC60945BA
:1021A800EFE0BFDCB2461306C015E31A05F0974509
:1021B8000000938525151745000013052512EF200B
:1021C800D02BF5BD23A04901DDBD1CC3BE865686B4
:1021D800EFE09FE5E30505EE2AC60945EFE0FFD8E5
:1021E800B246E31E05EC13065016D1B706094A9409
:1021F800835744018507231AF400014491B5370435
:1022080000021304A4602DBD3704000213045461B6
:1022180005BD37040002130404621DB51304D4611C
:1022280005B5370400021304646019BD954763E9D6
:10223800A704A1CD39CA1C42B1CF011122CC26CAAC
:1022480006CE328436872E86AA8489EAA28662441C
:10225800F2402685D24481450561BDB336C62EC4F9
:1022680097E0FF1FE780604D2246324765D1F24074
:10227800624437050002D2441305856105618280F6
:10228800370500021305E560828037050002130553
:10229800F56082803705000213050561828001110F
:1022A80006CE22CC32C6954763EEA702A9C129C63D
:1022B80036872E862A8489EA74008D45228529333B
:1022C800F24062440561828036C42EC297E0FF1F47
:1022D800E780A0461246224765D13705000213055C
:1022E8009560F9BF370500021305E560D1BF3705D2
:1022F800000213052561E9B73705000213053561AA
:10230800C1B758411C411CC3D8C323220500232050
:1023180005008280411106C622C497F7FF1F9387E4
:10232800E7977D56FD5690C3D4C39387818C80432D
:102338009307803E1565B357F402130505E2374647
:102348000F0013060624814623A0F1841307B00466
:10235800B387E70213074006B3D7E702B335A402F1
:1023680023ACF1843305A402EF20200023A2A1842A
:1023780013052003B335A40237460F0013060624BD
:1023880081463305A402EF10507EB240224423A4B4
:10239800A184410182804111054506C6EFE09FBA3C
:1023A800EFE09F960945EFE05FBC0DE1974600001E
:1023B800938686FC1306E00497450000938545F74D
:1023C80017450000130585F9EF20300B01A093870E
:1023D8000187D8436317F7029346F6FF7D57938723
:1023E800818603A84700631EF8021345F6FFFD55D2
:1023F8006366B7006396E50063F4A6003685BA8580
:102408008280B308C5001447584733B8A8002E98EF
:1024180063660701E315E8FCE3F316FDC686428709
:102428007DBF2A963335A600B307B5008325C800BB
:102438000325880063E6F500E39CB7FAE37AC5FA5A
:102448003285BE8575B7011122CC26CA4AC84EC648
:1024580052C456C2B28906CEAA8A2E8AEF10700CD0
:10246800938781858043AA842E8922868D3763E6E7
:10247800B9006394350B6372AA0A33074541938602
:1024880001843336E500B387354194426394C7002D
:1024980063F5E6085285CE85854617E7FF1F1307C3
:1024A800E77F1C43584363E6E500631FB704637D79
:1024B800F5043386A740B3B7C7000D8F6314F70040
:1024C8006364860491E2FD5A3307954023AE518335
:1024D800B337E500B3852541B387F54022858145AB
:1024E80099E36374E4003A85BE85EF107010AA94EE
:1024F80033B5A400CA952E9597E7FF1F23A0977AB6
:1025080097E7FF1F23AEA778F2406244D2444249BE
:10251800B249224A924A056182808146BDBF97E747
:10252800FF1F9387A777D843636BB7006315B7007E
:1025380098436366A7007D56FD5690C3D4C3828036
:1025480083C7818BB9C783D74185A1E793878189E1
:102558009C431387C1881843885B6305E50213878A
:102568008184904718436345C7001387418410430B
:102578008C53DC531357F641B29533B6C500BA975E
:102588003E96D1B5938781858C437D5693C5F5FFDB
:10259800CDBF82808357450013F747000DCF411107
:1025A800054506C6EFE01F9AEFE00FF60945EFE094
:1025B800DF9B0DE197460000938646DD1306200E4B
:1025C800974500009385C5D617450000130505D922
:1025D800EF20A06A01A01387C18814591843638C9F
:1025E800E6048358650013868184032E8500104213
:1025F800171700201307C77B13933800B30667002B
:102608009305850403A84600635EC603631ED800CD
:1026180037060080335616019388818383A8080003
:102628003366160123ACC1822326050534C5232051
:10263800B8001A974CC393F757F593E7470023124E
:10264800F500828013874184184318C5631CD8009D
:102658001386818310423707008033571701518F43
:1026680023ACE1829842544338C574C58CC2D9B7AB
:1026780083574500918BADC39387C18818599C43F4
:10268800411122C406C626C22A84630DF702835468
:10269800650013058504B53193973400171700209A
:1026A800130707713E975C43639EE7001387818396
:1026B8001843B7070080B3D7970093C7F7FFF98F80
:1026C80023ACF18283574400B2409244ED9B23121D
:1026D800F4002244410182808280835745004111E1
:1026E80022C406C613F747002A841DCB51378357E7
:1026F800440093F7070A99CB13050401EF00F0058E
:102708008357440093F7F7F52312F40083574400E6
:10271800B24093E707102312F4002244410182805B
:10272800A18BF1D713058504EFF0BFBD8357440093
:10273800DD9B2312F40065BF938781899C4323A402
:1027480007008280835745004CC593E70702231290
:10275800F5008280938781899C4303D747001386BD
:102768008704936687002392D7001441C842B4C7F0
:10277800E8C710C1D0C2FD566387D5001367870824
:102788002392E700CCC78280411122C42A84130512
:10279800850406C6EFF0FFB68357440013F777FFAA
:1027A8002312E40093F7070899CB13050401EF00FF
:1027B800C07A8357440093F7F7F72312F40083573E
:1027C8004400C98B91E722852244B2404101D9B324
:1027D800B24022444101828075BB09C523A6A18469
:1027E800014582807D558280411106C697170020D9
:1027F8009387075C171700201307876BDCC39CC3FC
:10280800A107E39DE7FE054523AC0182EF0060794F
:1028180023A8A184FD5709C5AD25EFF0BFAF8147B7
:10282800B2403E85410182809387818388430DC1F0
:10283800411106C6EF10102C0E059717002093873C
:102848002757AA97C843B240130585FB41018280E8
:102858009387C18888431387818A93177500084333
:102868003E9582804111054506C622C4EFE0EFEF90
:1028780019E517450000130565AAEF20E051EFE0C0
:10288800AFC85D37835745002A8493E707012312B1
:10289800F50023AEA18823ACA188EF10804808D0AA
:1028A8004CD02285F13308504C50EF10606208502C
:1028B8004C50EF00903A8547238CF18A7D5697E774
:1028C800FF1F9387A73DFD5690C3D4C3FD571044FF
:1028D80023AEF1820C505850085822449357F641C1
:1028E800B240B29533B6C500BA973E9641016FF033
:1028F8009FB501119387818922CC804306CE26CAD1
:102908004AC84EC6EF10E04158501C5063E7E50036
:102918002E866316B7006374F500EFF0DFA71389FE
:10292800C1881458032709006388E6001844B307D0
:10293800F540B307F7401CC48357440008D050D073
:1029480013F7070A49CB5444AA8505471305040120
:102958002D2BD93D23AEA188AA8481496302A40204
:102968008357440018508549BD9B2312F4008357B0
:10297800450093E707012312F5005C5018D15CD19C
:102988002685FD31885883270900630DF504904496
:102998008C50D8509357F641B29533B6C500BA97C4
:1029A8003E969387C18318589C43631CF70097E7AA
:1029B800FF1F9387A72E7D58FD5823A0070123A248
:1029C8001701EFF05FA8F24062444E85D2444249B5
:1029D800B2490561828093F7B710A5FF2285EFF011
:1029E8007FBB85BF938781858C437D5693C5F5FF53
:1029F8004DBF83C7818B63830716797106D65AC882
:102A08005EC666C222D426D24AD04ECE52CC56CA10
:102A180062C46AC0EFE04FAFAA8CEF108030938792
:102A2800C1839843FD57AA8B2E8B631BF70213892A
:102A38004185835709008507239AF1849387C184C8
:102A48009C4391C382979387018583A9070003A4B8
:102A580049006394890283570900FD17239AF1847A
:102A680093878189804358501C506366EB0063113B
:102A7800670963FFFB06EFF01F92EF10802A2A8D8B
:102A88002E8C7D5AFD5A5C44E367FCFC63958701F4
:102A98001C44E362FDFC2285EFF0BF86835444FFAB
:102AA800232444012326540193F7840285C393F712
:102AB80074F5C20713F78400C18311EF231AF4FEDB
:102AC800898889E4130504FFEFF0DFAC03A449000B
:102AD800E39B89FA49B793E70704231AF4FE130521
:102AE8008403EFF01F822326040223240402C9BFB3
:102AF8001387C188145818436388E6001844B387BD
:102B0800FB40B307F7401CC423207403232264034B
:102B1800EF10202197E7FF1F938747187D56FD5632
:102B280090C3D4C308D04CD083D7018A8DE797E0EF
:102B3800FF1FE780C0AF2254B25092540259F249A5
:102B4800624AD24A424BB24B224C024D6685924CA5
:102B580045616FE02F9DEFF0BF9EF1BF828083C774
:102B6800818B81CB83D7018A89E717E3FF1F670031
:102B780003AC8280411122C41384018623A281867A
:102B880023A081869387C18188439305003006C6B8
:102B9800EFE07FFD23AEA18415C921058147130607
:102BA80000031840231FF5FE231C05FE5443850728
:102BB80018C154C188C2C20748C3C1834105E39202
:102BC800C7FE0145B2402244410182803705000218
:102BD80013050570C5BF411106C622C426C24AC0E6
:102BE80041C23284AE842A8963E7A506EFE0CF911B
:102BF800138701865C436396E70237040002EFE01F
:102C08006F9213043470B7C5B2A10147814622867A
:102C18009385853F173500001305C57CEFE04FB954
:102C280025A09843D44398C254C30547239D27FF42
:102C3800239CE7FE239E97FEDCC39CC383D7E7FF54
:102C48001CC0EFE02F8E01442285B24022449244FA
:102C5800024941018280370400021304847065B779
:102C68003704000213042470C5B72E868545A5B71E
:102C7800797106D622D426D24AD04ECE9307F002D6
:102C880063FCA70237040002B7C5B2A1130614708B
:102C9800014781469385853F1735000013058574E4
:102CA800EFE00FB1130414702285B25022549254ED
:102CB8000259F249456182809387C1858443120590
:102CC8002EC6AA94EFE04F8483D70400AA896388AC
:102CD800070C97E0FF1FE78040A62A84B24521C170
:102CE800094537040002EFE04FA81304547019E5B2
:102CF800173500001305C56AEF20000A4E85EFE07E
:102D08006F82B7C5B2A10147814622869385853F68
:102D1800173500001305056DEFE08FA971B783D74C
:102D2800018A91CF094537040002EFE00FA413048C
:102D3800647069F5173500001305856875BF9387BA
:102D4800818903A907008357490013973701634D09
:102D5800070483D7240081CBFD172391F4004E8507
:102D6800EFD05FFC91B7B1C513858400232C99027D
:102D7800EFF05F9E4E85EFD0FFFAD533EFD0DFF846
:102D880083574900AA8913F7070479DB93F7F7FB00
:102D9800370400022312F9001304747085B737044E
:102DA80000021304147099BF370400021304B470AE
:102DB800B1B7370400021304447089B79307F002CF
:102DC80063ECA70A41119387C18522C48043120589
:102DD80026C22A9406C6EFD03FF383570400AA847C
:102DE80095EBEFD03FF437040002B7C5B2A1014715
:102DF8008146130614709385853F17350000130527
:102E0800655EEFE0EF9A13051470B24022449244D5
:102E18004101828083572400035744006317F70257
:102E2800EFD05FF037040002B7C5B2A10147814671
:102E3800130684709385853F173500001305855A5E
:102E4800EFE00F9713058470C9B7584493068400C0
:102E5800630ED700130587FB232807FEEFF0DF92E8
:102E68002685EFD03FECE539014545B785072311A5
:102E7800F400EFD03FEBCDBF370500021305157006
:102E8800828048C108C101458280011122CC4AC80C
:102E98004EC652C406CE26CA56C285472A842E89F3
:102EA800B289368A630EF700894793848186630B5B
:102EB800F700BA851735000013050554EFE0BFE4A5
:102EC80093840187EFD05FE49387818CAA8A884333
:102ED8001306803E8146B335AA023305AA02EF10D5
:102EE800C048330725013335A700CE95DC403306AB
:102EF800B50018C450C46391F40244C004C080C033
:102F0800C0C06244F240D2444249B249224A56857E
:102F1800924A05616FD01FE1D4478C476366D6009B
:102F28006398C6006376B7005CC004C080C3C9BF9D
:102F3800631AB7006318D600D8431CC058C000C332
:102F4800C0C3C1B79C40D4476367D600E396C6FEAA
:102F58009447E373D7FE9C43FDB7411122C426C2B0
:102F68002A8406C6EFD05FDAAA840844FD574C4489
:102F78006314F5006380A502EFF06FDA58401C4037
:102F88001CC3D8C37D57FD57232204002320040007
:102F980018C45CC42244B2402685924441016FD0D3
:102FA8007FD8411122C406C685471384018763026E
:102FB800F502894713848186630DF5000945EFD032
:102FC800DFFA014419E5173500001305A544EF1091
:102FD800B05C2285B2402244410182805C4555574D
:102FE800636AF70299071387C18718435CC52302F0
:102FF800050018C123AEA1861945B3F7A702171516
:1030080000201305E5EA9146014691458A073E9559
:103018006FE04F851947B3F7E702F1B739714ED61C
:1030280052D456D25AD05ECE62CC06DE22DC26DAE4
:103038004AD8B149138A0188ED5A138B8187994B75
:10304800130C800303250A00FD560A864C004EC067
:10305800EFF0CF9D65F98247E39637FF9247FDD39E
:10306800B247E3E1FAFEEFD03FCAB2462A84B3F78B
:1030780076033387870383270B00BA97D84763857E
:10308800E600EFD03FCA7DBF03C7570019E33E856E
:10309800B1372285EFD01FC9EF0030642A899247E3
:1030A8002245AE848297EF005063330925413335BA
:1030B8002501858D3384A54001E48547E3F427F98C
:1030C8000D45EFD09FEA3DFD1305803E3304850290
:1030D8001306803E8146B335250333052503A295A3
:1030E800EF10A02892452A861735000013050534ED
:1030F800EF10B03881BF79714AD003A9C60222D433
:1031080006D626D24ECE52CC56CA5AC85EC680566D
:1031180063E625016317B908637585081387818CF1
:10312800832B0700B2872A8AAE843385FB02B689CF
:10313800814633048A40333A8A00B3842441B384F5
:103148004441B3B5CB021306803EEF1000222A8B10
:1031580003A50901AE8A1306803EB3B5AB028146CA
:103168003385AB02EF1060202A94B337A400A695EC
:10317800D6862285BE955A86EF10201FB385650333
:1031880003A40903B30A550333396503D695B30776
:1031980065032E9983A549032E993E94B334F40010
:1031A80026992285B2502254CA8592540259F2496E
:1031B800624AD24A424BB24B456182807971F145ED
:1031C800F1460146480006D6EFD0DFE99707000030
:1031D800938707E53EC29307002D3ECA4C009737F8
:1031E8000000938727271385418A3ECC23140100CA
:1031F800EF00B00405E19387418A9C4385661397E5
:1032080077009387818A9C43BA9703D74700558FE5
:103218002392E700B250456182809387418883AF4B
:1032280007005C4619472A88B3F7E70203A54F0051
:10323800971E0020938ECEC7AE888A07F69703A301
:1032480007006388AF0E370700017D170111337E31
:10325800E30022CE26CC4ACA4EC852C656C45AC229
:10326800FD53FD52014F81461949370400FFB70449
:1032780000C0B379EE008327C5FEB3F727038A079A
:10328800F6978C43B3F7E50033FAE700E18DB3E531
:10329800450133FA9500631F9A04832A05FF032B1F
:1032A8000601130A05FE639F6A01D2865686724498
:1032B800E2445249C249324AA24A124B4285C68563
:1032C800056115BD3373830033633301931A2300FB
:1032D80063D20A02F98D99CDB375E300A1C163E108
:1032E800C703B3E5C70399E5B3C7C70363F457003A
:1032F800BE82D2864841E390AFF889CE104A45BFD6
:10330800B365FE02E5F9B347FE02E3F577FEBE8337
:10331800528FCDB763040F00FA86CDB77244E244EA
:103328005249C249324AA24A124B4285C6850561B2
:10333800828042858280411122C406C689472302C1
:10334800F6005C4619473284B3F7E70217170020E6
:10335800130707B68A073E971C4393D6E701858A69
:1033680091CA63C90700B7060080D58F1CC375359D
:1033780008D84CD814480C5850581305040209476B
:10338800EFF0BFB02244B24041016FF06F9B39713A
:103398009387418826DA844322DC06DEC0404AD877
:1033A8004ED652D456D25AD05ECE62CC01456385F1
:1033B8008408EF001017AA892E8901457D5AFD5A05
:1033C800938B0188054B094C5C4418446366F906E5
:1033D8006394270163E2E90618C85CC858401C409A
:1033E80003A50B0081461CC3D8C3832784FF232071
:1033F8000400232204003EC2832744FF23244401FF
:10340800232654013EC48327C4FE31464C003EC6E1
:10341800EFE0FFE8834754FE639C6703834764FE3D
:10342800130604FE4E8585072303F4FECA8521375B
:10343800C0400545E39A84F8F2506254D254425988
:10344800B259225A925A025BF24B624C2161828035
:10345800E39087FF230264FFE1BF79719387418876
:103468005AC803AB070022D426D203244B00B70462
:1034780000804AD04ECE52CC56CA5EC662C406D62A
:103488002A89AE897D5AFD5A971B0020938B4BA23F
:10349800194C93C4F4FF631E6401B2502254925431
:1034A8000259F249624AD24A424BB24B224C456118
:1034B800828058401C40130604FE4A851CC3D8C3AA
:1034C8008327C4FE2322040023200400B3F78703C4
:1034D8002324440123265401CE858A07DE97984386
:1034E800658F98C323282401232A3401A935404035
:1034F8005DB74111E145E146014617150020130566
:10350800259B26C206C622C49384C181EFD09FB5ED
:10351800884093050015EFE00FE555C52A8493060A
:103528000015014693050015EFD0DFB323AC818663
:1035380023AE818623260400930784030547994612
:10354800D8C723A4F7FC050793878703E31AD7FE98
:1035580031478146138601889945014513040415AE
:10356800EFE03F9711CD8840A285EFD01FF83705CF
:1035780000021305B530B2402244924441018280D2
:10358800EFF0DFC311C98840A285EFD01FF63705D9
:1035980000021305C530C5B70945EFF09FA023A267
:1035A800A18819E58840A285EFD03FF47D55E1B7A1
:1035B800EFF03F8D65F917050000130585DDEFF085
:1035C800CFA155D9C5B7370500021305753065B7C2
:1035D8009387C1889C436383A7029387418A9C434E
:1035E8006383A7029387C18A984381476366E5008E
:1035F800B7070002938777203E858280B7070002CD
:1036080093874721D5BFB707000293871722EDB7E5
:1036180041119306000801469305000822C426C2FA
:103628002A8406C60459EFD0FFA385472312F40065
:1036380093870189D44304D81307840474C43CC411
:10364800B240224498C2D8C3924441018280835731
:10365800450013974701635D0700585511CB98C182
:103668007D771307F77FF98F232605022312F500CC
:103678008317450063C3070061BF8280011122CC14
:1036880026CA4AC806CEEFD02FE82A849384018B35
:103698001389C181C840631B95002285EFD08FE84C
:1036A800F2406244D2444249056182801C4158413B
:1036B8006C00130585FB1CC3D8C3232405042326EB
:1036C800050402C669372285EFD0CFE5B245032548
:1036D8000900EFD09FE1EFD02FE32A8465BF4111A5
:1036E80022C406C613848188513F1C4099C382971F
:1036F800E5BFEF00901CCDBFB54723A6F18A93879D
:10370800C181884341119305007006C622C426C2B0
:10371800EFE06FC523A4A18A49C9930600709305F9
:1037280000700146EFD01F941387018923AAE1880E
:1037380023A8E1889387018B9384818A23AAF18A3D
:1037480023A8F18A9C400144054593878704B54521
:10375800144323A487FE239EA7FAD04294C30504EA
:10376800D0C31CC2DCC293870708E313B4FEA1468A
:103778000146A14513858189EFD0DF8E9387C18AE1
:103788009C43B240139777009C409244BA9723AC6D
:10379800F1883707200080DB45072244D8C3FD574E
:1037A80023A6F18841016FF02F84B24022443705E7
:1037B8000003924413050520410182809387818983
:1037C8009C4399C3885B82803705000213057520E6
:1037D8008280938781899C43014591C3E843828015
:1037E800630F051A6382051CDC496384071C9C412E
:1037F8006386071C83D645007D476366D71C63989C
:10380800E600170700001307C7ED639EE71A9C49F7
:103818000D67636FF71A9DEF9307002D9CC941113F
:1038280006C622C426C24AC0AE842A89813DEFD08A
:10383800AFCD93870189C0436317F402EFD08FCED1
:103848003705000213051521B2402244924402496B
:10385800410182801307F012E363F7FC3705000289
:1038680013056520828058401C401CC3D8C32322FE
:10387800040023200400EFD0EFCA9C447D571305B1
:10388800C401232CF4FE9C48232804FE232A04FEAA
:103898002320F4FE8947231EF4FA83D7440023200B
:1038A80004FC232204FC231FF4FA9C402324040272
:1038B8002326F4FEFD575CCCDC4823280402232889
:1038C800E4FC232EF4FEFD57232AF4FCEFE08FBD21
:1038D8009C4C63DC07008357C4FB6177D98F231E98
:1038E800F4FA930704015CC81CC8D8448C4835EB2B
:1038F800615781476363B7009D47BE959387C18130
:103908008843E1992320B4FE2146EFE08FAB2322C0
:10391800A4FE3DC58357C4FB056713070780D98FED
:10392800231EF4FA832604FE032544FE1306A00C86
:10393800B685EFD02FF3032744FEB7D7CCCC9387B7
:10394800C7CC1CC3032644FE832504FE032584FE3E
:10395800D12B832784FE232CA4FA01452320F900C8
:10396800E5B5E156814763E3E6009D47BA97E19BD9
:10397800BA959D8DE1992322F4FE2320B4FE5DB70C
:10398800EFD08FB8AA84130584FBEFF07FC8268593
:10399800EFD04FB9370500031305052075B5370576
:1039A80000021305752082803705000213051520D3
:1039B80082803705000213055520828037050002F2
:1039C80013054520828037050002130535208280C3
:1039D800370500021305052282807971F1460146F8
:1039E800F145480006D622D426D2EFD0AFE7970794
:1039F8000000938707CF3EC2930700203ECA9384F6
:103A0800C18897370000938727A93ECC4C00FD4713
:103A180026852314F100EFF0BFDC2A8409E99C40D5
:103A28001387818A08439E073E95EFE0FFDA2285D7
:103A3800B2502254925445618280411122C426C258
:103A480006C64AC02A84EFF0BFD9AA8415E500400B
:103A58001387818A9317740000433E94EFD0CFAA4E
:103A68002A892285EFE01FB34A85EFD0AFAB83C721
:103A7800818B99C3EFF0AF8EB2402244268502496C
:103A8800924441018280797126D252CC06D622D442
:103A98004AD04ECE2A8A02C6EFF09FB3AA841DE50B
:103AA8001389818A8327090013147A003E94EFD082
:103AB800AFA583574400AA891397370163510702BA
:103AC800B7040002EFD00FA693844421B2502254C9
:103AD800268502599254F249624A4561828013F759
:103AE800170001CBB7040002EFD0CFA39384A42022
:103AF800F1BF13F7071001CBB7040002EFD08FA274
:103B080093847422E1B71397270163590700B70418
:103B18000002EFD02FA1938494224DBFC18B85C39F
:103B280083D7018A89CF1145EFD02FC419E51735FE
:103B380000001305E592EF1020262390018A8317D1
:103B4800440063DB0700684C930784056306F500AF
:103B5800130585FBEFE05FC32285EFE01FB813056F
:103B68004406EFE0EF9503574400FD577CD0232827
:103B7800040693770701B1CF93170701C18763C480
:103B88000704936717002312F4009387018B9C4363
:103B98009306840413671701D0433CC470C414C24D
:103BA800D4C39387C18A9C439396770083270900DF
:103BB800B6972392E700585423ACF18823A847030B
:103BC800D8D77840F8C34E85EFD0CF95EFE03FF9CE
:103BD800F5BDEFF0BFBE6C0028D02285EFF03FA7FF
:103BE8004E85EFD02F949387C181B2458843EFD09B
:103BF800DF8FE9BD41119387818A22C480431E0566
:103C080006C62A945C582840829728D00858EFF0B6
:103C18009FE719CD0945EFD04FB519E90C58224453
:103C2800B240173500001305E58741016F10E00425
:103C3800B240224441018280011106CEEFD0CF8CE0
:103C48002AC6EFE07FAF3245EFD0CF8DEFE03FF1EE
:103C5800F24001450561828001114AC806CE22CC96
:103C680026CA4EC62A8997D0FF1FE78000AD39E9DA
:103C780083D7018AA9EF938481899C4083D7470021
:103C880013973701634A0704631909006244F24035
:103C9800D2444249B249056145B72A84EFD0CF865C
:103CA800AA898840CA85EFE0FFA94E85EFD08F87A3
:103CB800EFE0FFEA2285F2406244D2444249B24929
:103CC80005618280370400031304D420E5B7370464
:103CD80000021304E420F9BF37040002130444214E
:103CE800D1BF011106CE02C683C7018E85E793872F
:103CF800C18C9C436800DC4B82971387818D1C43E1
:103D0800544332473E97B337F700B69723ACE18C5C
:103D180023AEF18C2380018EEFE0BFCDF240056128
:103D28008280011106CE22CC26CA4AC802C6EFC03C
:103D3800BFFD9387C18C9C432A896800DC4B82971E
:103D48009387818D9443DC43B384A6003387B700FF
:103D580033B4D4003A941387018C504303280700E6
:103D68006366C4006317860663F504073247BA968C
:103D780033B7E600BA97B384A60023ACD18C23AE40
:103D8800F18CB3B6D400AE973384F6008547238010
:103D9800F18E6366C400631E860263FC0403054556
:103DA800EFD04F9AEFC05FF60945EFD00F9C0DE1B9
:103DB800972600009386C6731306A0069725000071
:103DC800938545701725000013054559EF00F06AE3
:103DD80001A04A8523A0918C23A2818CEFC09FF477
:103DE800A285F240624426854249D2440561828018
:103DF800411122C426C206C62A84AE841D37938781
:103E0800818D88C3CCC39387C18C9C43228522446F
:103E1800B24003A38701A685924441010283411160
:103E280006C622C426C24AC0612423A6A18C1C4906
:103E3800C1CF1C4DD1CB5C4DC1CB1C51D1C75C4906
:103E4800C1C7405109E4170400001304C4E9EFC0D6
:103E5800BFEB1389C18C83270900AA8422859C4B58
:103E680082972A8409C52685EFC0DFEB31A803278E
:103E780009009306703E1C4363EFF600268537045D
:103E88000002EFC03FEA45042285B2402244924432
:103E9800024941018280544313070002635AD70044
:103EA800268537040002EFC0FFE713040440E9BF8A
:103EB80023A4F18C1307803EB3D7E70223AEF18A1F
:103EC80085472388F18C45B73704000259046DBF34
:103ED8009387818E88C3CCC38280411106C6EFF0D8
:103EE8005FE49387818E9843DC439386818C330704
:103EF800E5403335E5009D8D898D1305803EB33748
:103F0800E50290428146B305B5023305E502BE9548
:103F1800A929B24041018280411106C6EFC0DFDE07
:103F280001A08DA0B7D7CCCC9387C7CC91051CC274
:103F38002E96719A37D7CACA930606F8930746F899
:103F48001307A7AC98C39107E31EF6FE9707000076
:103F58009387C7FC2322F6F8970700009387C7C901
:103F6800232EA6F82320F6F836858280411106C64E
:103F7800EFC09FD9EFE01F8FEFC05FDBB240014574
:103F8800410182808280B7F700E098431306F5FF6D
:103F9800799B98C31337150090CBB386E540D4CBF3
:103FA800814694C70147D8C723A2070037E700E036
:103FB80085662320D72898431367170098C3828003
:103FC80037F700E01C43F99B1CC3828037F700E0F9
:103FD8001C4393E717001CC38280411106C622C404
:103FE80026C24AC02A89EFC03FD2B7F700E080470F
:103FF800C447984BDC4B2320E900EFC0BFD2228591
:10400800B2402244A6850249924441018280B78782
:1040180093039387077017D7FF1F232DF7BE41110E
:10402800BD6722C4938707A61384C18B06C61CC02C
:104038003947B7E700E02388E70417C7FF1F1307CE
:10404800676113671700B8D33147A388E70417C718
:10405800FF1F1307476F13671700F8D341572386CD
:10406800E7402387E740056723A0E710116723A0EF
:10407800E71023AAA18E1725000013056548EF0055
:10408800B051B7F700E023A0070023A207001840AB
:104098008146B2401306F7FF90CBD4CB814694C734
:1040A80001472244D8C73D4798C301454101828052
:1040B80017D5FF1F130505B6828037F700E0832761
:1040C80007D1DD9B2328F7D073005010014582806B
:1040D800914763EEB70217270000130767438A0565
:1040E800BA959C41BA978287B717004003A7470B38
:1040F8001345F5FF698F23AAE70A03A7070B698F02
:1041080023A8E70A03A7070A798D23A0A70A8280B4
:10411800B717004083A6470B1347F5FFF98E23AA6C
:10412800D70A83A6070B558D23A8A70A83A6070AD3
:10413800758F23A0E70A8280B717004003A7470BB3
:10414800498F23AAE70A03A7070B1345F5FF45BFC5
:10415800B717004083A6470B1347F5FF758F23AAAF
:10416800E70A03A7070A598D4DB7B717004003A7F9
:10417800470B498FEDB7931705010547C183638244
:10418800E5048DC10947638DE5040D476380E506A5
:1041980037170040231EF70883560709D58F2318C1
:1041A800F7088280371700400356470993C6F7FF80
:1041B800F18E231AD7088326C70A558D2326A70A06
:1041C800C1BF371700400356470993C6F7FFF18E62
:1041D800231AD7088326870A558D2324A70A4DBF9B
:1041E8003717004083564709DD8EE1B7371700407F
:1041F80083564709DD8EE9BFB717004003D587000E
:10420800420541819377050491EB9377F501375582
:10421800E801130505803345F50282809377050C84
:10422800130700046397E7009377F50137459C1C53
:10423800CDB72165130505D0828081473737004007
:10424800A14663C4C700328582800345B740E38E28
:10425800A6FE3385F5000345050085072304A7401E
:10426800CDB7938781809C4317070020130707C6A3
:104278003E95636CE50017470020130727B863666F
:10428800A70023A4A1803E858280FD57EDBF411180
:1042980022C406C62A848D372947B307E502B240EF
:1042A8008D83B3D7870222449507B3D7E702373700
:1042B8000040C207C1832316F7404101828071651F
:1042C80041111305052006C6D937B7370040130733
:1042D80070F82381E7400D47A381E74013070004E6
:1042E800A380E74005472387E740B2404101828029
:1042F8000A858280C167637EF5029307F00F130772
:10430800000263ECA700972700009387A721AA97CC
:1043180003C507003305A740828021819727000045
:1043280093874720AA9703C5070061473305A7402D
:104338008280B7070001636EF5006181972700004E
:104348009387471EAA9703C5070021473305A7404F
:1043580082804181972700009387C71CAA9703C5CD
:10436800070041473305A7408280B687B2882A8371
:104378002E88639D061463F9C50A4167636EE61AC1
:10438800B70700016363F63493568601E1471727A0
:10439800000013072719369703470700BA97130732
:1043A80000021D8F19CB3398E500B357F500B318F9
:1043B800E60033E807013313E50013D60801335547
:1043C800C80293960801C182935703013377C80244
:1043D800B385A60242073368F700637AB8004698A7
:1043E8009307F5FF636418016367B8303E853308A7
:1043F800B8403357C8024203135303013378C80245
:10440800B386E602420833686800637BD8004698A2
:104418009307F7FF6365180179176363D8003E8730
:104428004205598D8145828001E60547B358C70288
:10443800416763EAE80EB707000163ECF82893D6F2
:104448008801E147172700001307C70D36978346F1
:104458000700BE9693070002958FE5EB939E08012F
:104468003387154113DF080193DE0E018545935705
:1044780003013355E7033377E703B306D503420750
:10448800D98F63FAD700C6971307F5FF63E41701BE
:1044980063E6D7263A85958F33D7E703420313534C
:1044A8000301B3F7E703B30ED703C207B3E7670007
:1044B80063FBD701C6979306F7FF63E517017917E2
:1044C80063E3D70136874205598D828063E2D504BC
:1044D800C16763E2F604B707000163E4F61E13D769
:1044E80086016148972700009387C703BA9703C7D7
:1044F8000700130E00024297330EEE40631A0E0CAB
:1045080063EDB61C3335C50013451500814582801F
:104518008145014582809307F00F63F3D71C13D7B9
:1045280086002148C1B71307F00FC686E37C17F150
:1045380093D68800A14739B71307F00FB286E378FE
:10454800C7E493568600A14799B5B398F80033D6C7
:10455800D50013DF0801335EE6033397F500B35641
:10456800D500558F939E080193DE0E013313F50095
:1045780093550701B376E603B387CE03C206CD8E03
:1045880063FBF600C6961306FEFF63E4161763F294
:10459800F616791EC6969D8E33D6E6039317070145
:1045A800C183B3F6E6033385CE02139706015D8F08
:1045B800637BA70046979307F6FF63681713637634
:1045C800A7127916469793150E01098FD18D45B517
:1045D800B357E600B396C601DD8E33D3E50013DF8B
:1045E8000601B357E303939E060193DE0E01339849
:1045F800C5013357E500336807019358080133169E
:10460800C6013373E303B385FE024203B3681301A3
:1046180063FBB800B6981387F7FF63EAD80C63F812
:10462800B80CF917B698B388B84033D7E8034208EE
:1046380013580801B3F8E8033383EE02C208B3E560
:10464800080163FB6500B6951308F7FF63EDD5080D
:1046580063FB65087917B695C207416FD98F1307B1
:10466800FFFFB3F6E70093D80701718F4182B38E3D
:10467800E602B3856540B386C60213D80E013387B8
:10468800E802BA96C2963386C80263F3E6007A96C1
:1046980093D80601469663E2C5026385C5003E8548
:1046A8008145828041677D17F98EC206B3FEEE0010
:1046B8003315C501F696E374D5FE1385F7FF8145DA
:1046C800828013D70601414831BD93560601C14780
:1046D8007DB993D60801C147B5B3814505458280A8
:1046E8003687014801B5428785BF3E86E9BDBA874E
:1046F8001DBF328E4DB579154698D5B97915C6972F
:1047080059BB411122C406C62A842316B5002317B3
:10471800C5002320050023220500232405002322A9
:10472800050623280500232A0500232C0500214619
:1047380081451305C505EFC04FE59707000093872E
:10474800C7695CD0970700009387476C1CD497070C
:104758000000938787705CD497070000938747739E
:1047680000D01CD8B2402244410182809715000035
:10477800938505AAA9AA411126C213068006938427
:10478800F5FFB384C4024AC02E8922C406C69385A5
:10479800440721292A8401CD23200500232225014D
:1047A800310508C4138684068145EFC00FDE2285D3
:1047B800B240224492440249410182801C4DB5E72F
:1047C800411106C622C497070000938767FA1CD5D3
:1047D800972700009387C7EE9C43232405042326CC
:1047E8000504232805046314F50085471CCD2A8495
:1047F800352848C022851D2808C42285052848C4B4
:10480800484001469145EFF0DFEF08440546A545CD
:10481800EFF03FEF48440946C945EFF09FEE854762
:104828001CCCB240224441018280828041119727EA
:1048380000009387E7E826C284434AC006C69C4C1A
:1048480022C42A8999E32685953F93848404804469
:10485800DC40FD1763D607009C40B9CF8440C5BF34
:104868000317C40039E7C1778507232204062320EC
:10487800040023220400232404005CC42328040029
:10488800232A0400232C0400214681451305C4056E
:10489800EFC0AFCF232A0402232C040223240404EC
:1048A800232604042285B24022449244024941014D
:1048B80082801304840671BF91454A85EFF0BFEBEF
:1048C80088C049FDB1472320F9000144E1BF79714F
:1048D80022D44AD052CC56CA5AC85EC606D626D268
:1048E8004ECE2A8AAE8A130485040149054BFD5B26
:1048F80009ECB25022544A8592540259F249624A4C
:10490800D24A424BB24B4561828004448329440019
:10491800FD1963D409000040E1BF83D7C400637B5D
:10492800FB008397E40063877701A6855285829A06
:104938003369A90093848406E1BF1971A6DAAE84AD
:104948008395E500A2DC86DE328463DC050083D72C
:10495800C40023A0060093F7070885E793070040E3
:104968001DA0300836C6EF00F010B246E34105FE40
:104978007247BD67F98F7977BA9793B717009CC2CA
:10498800F1BF930700041CC0F6506654D654014585
:104998000961828083D7C500011122CC06CE26CAC0
:1049A8004AC8898B2E8489CF930774041CC01CC8FD
:1049B80085475CC8F2406244D2444249056182801E
:1049C80074003000AA84953FA2452A892685F12AD9
:1049D80001ED8317C40013F7072069FFF19B93E7E4
:1049E80027002316F400C9B797070000938747D814
:1049F8009CD48357C40008C008C893E70708231647
:104A0800F400A2475CC8B24791CF8315E40026851D
:104A1800EF00700901C98357C400F19B93E71700A1
:104A28002316F4008357C4003369F90023162401C0
:104A380051B793F5F50F2A966314C5000145828096
:104A480083470500E38DB7FE0505FDB7B3C7A5008D
:104A58008D8B3307C50081E78D4763EEC700AA87B2
:104A68006370E50A83C6050085078505A38FD7FE11
:104A7800E3EAE7FE828093763500AA8791CA83C667
:104A8800050085078505A38FD7FE93F63700FDB788
:104A98009376C7FF138606FE63F0C70683A3050057
:104AA80083A2450083AF850003AFC50083AE05012F
:104AB80003AE450103A3850183A8C501938545027B
:104AC80023A0770003A8C5FF23A2570023A4F7015A
:104AD80023A6E70123A8D70123AAC70123AC6700AF
:104AE80023AE17019387470223AE07FF75B790419E
:104AF8009107910523AEC7FEE3EBD7FEE3E4E7F6A3
:104B08008280DDC183A7C5FF411122C406C626C223
:104B18001384C5FF63D307003E94AA84EF00E07EA8
:104B28009387C18F9C4381EF2322040023AE818E9B
:104B38002244B2402685924441016F00207D637E65
:104B4800F40014403307D4006396E7009843DC432D
:104B5800369718C05CC0D9BFBA87D84319C3E37D5C
:104B6800E4FE94433386D700631F86001040B29654
:104B780094C33386D700E31DC7FA10435843B2964F
:104B880094C3D8C375B76375C400B1479CC04DB70B
:104B98001040B306C4006316D70014435843B296B6
:104BA80014C058C0C0C369B78280011126CA938453
:104BB8003500F19806CE22CC4AC84EC6A104B147AA
:104BC80063F2F404B14463E1B4042A89EF00E073AA
:104BD8009387C18F98433A8431E0938701909C432F
:104BE80091E781454A857D2A23A0A190A6854A851B
:104BF800552AFD5963173507B1472320F9004A851F
:104C0800312729A0E3D104FCB1471CC10145F2407A
:104C18006244D2444249B249056182801C40858F72
:104C280063CE0702AD4663F6F6001CC03E9404C08E
:104C380031A05C406312870223AEF18E4A85F925C4
:104C48001305B4009307440061993307F54061D315
:104C58003A94898F1CC065BF5CC3CDB7228740409A
:104C6800A5BF130435007198E30385FCB305A44080
:104C78004A850D2AE31D35FB41B739713EDA2ED23C
:104C880032D436D63AD842DC46DE9387C18022CC6D
:104C9800804326CA06CEAA8411C41C4C81E722850B
:104CA800EFF0DFB10C4454102686228536C6F9256C
:104CB800F2406244D24421618280011126CA4AC866
:104CC80006CE22CC4EC652C4AA842E8909C51C4DD4
:104CD80099E3EFF0BFAE9C4C804481E72685EFF066
:104CE800FFAD972700009387E795631CF402C04047
:104CF8008357C400A18BB1C71C48A1C7FD59294AD5
:104D08001C4483450900FD17B1E91CC463DE07068E
:104D18002286A9452685B52AFD576308F502294547
:104D280035A0972700009387E7936314F400804425
:104D3800C1B7972700009387E78EE31BF4FAC044B6
:104D480045BFA2852685912455D97D55F2406244F8
:104D5800D2444249B249224A056182801CC40509ED
:104D680063D70700184C63CBE700638945011C40F3
:104D78001387170018C02380B70059B722862685E5
:104D8800092AE31F35F7D1B71C401387170018C04D
:104D980029472380E70061B79387C180AA858843A4
:104DA8006FF0BFF1411122C42A842E8597F7FF1FA7
:104DB80023AC071006C6EFF0CFCAFD576319F500FC
:104DC80097F7FF1F938747109C4391C31CC0B240BD
:104DD800224441018280411122C42E848395E5003A
:104DE80006C6EF00503F634905007C48AA977CC877
:104DF800B2402244410182808357C4007D777D17E9
:104E0800F98F2316F400EDB783D7C500011122CC22
:104E180026CA4AC84EC606CE93F70710AA842E841F
:104E28003289B68991C78395E5008946014665218F
:104E38008357C4007D777D17F98F2316F4008315F7
:104E4800E4006244F240CE864A86B2494249268549
:104E5800D244056101A2411122C42E848395E50044
:104E680006C69529FD570357C400631BF500FD7757
:104E7800FD17F98F2316F400B240224441018280C5
:104E88008567D98F2316F40068C8FDB78395E500B8
:104E980031A4011122CC26CA4AC806CE4EC6AA841D
:104EA8002E89328409C51C4D99E3EFF03F9197177D
:104EB8000000938727796319F406C0401C4C1CC472
:104EC8008357C400A18BC9C31C48BDCF1C480840E8
:104ED8009379F90F1379F90F1D8D5C486346F50036
:104EE800A285268525262DE51C440505FD171CC42D
:104EF8001C401387170018C0238037015C4863895A
:104F0800A7008357C400858B81CBA9476316F90096
:104F1800A2852685E52C0DEDF24062444A85D244EF
:104F28004249B249056182809717000093878773C9
:104F38006314F400804459B7971700009387876E6D
:104F4800E31EF4F6C0449DBFA28526853D283DDDBD
:104F58007D59D9B7411122C42A842E85B285368657
:104F680097F7FF1F23A207F606C6EFF00FADFD5710
:104F78006319F50097F7FF1F938707F59C4391C3C3
:104F88001CC0B24022444101828041119387C180F4
:104F980026C2844322C44AC006C62A892E8491C4E4
:104FA8009C4C81E72685EFF07F8197170000938757
:104FB8006769631CF402C0400317C4009317070114
:104FC800C18393F68700BDEE93F607019DEEA547D2
:104FD8002320F900136707042316E4007D55B24027
:104FE8002244924402494101828097170000938726
:104FF80067676314F4008044C1B79717000093876C
:105008006762E31BF4FAC04445BF918B95C74C58BF
:1050180091C9930744046385F5004A85EFF07FAE94
:10502800232A04028357C4002322040093F7B7FD00
:105038002316F4001C481CC08357C40093E787005C
:105048002316F4001C4889EF8357C4001307002077
:1050580093F707286386E700A2854A85EFF09F93B8
:105068008357C40013F7170005C75C4823240400BE
:10507800B307F0401CCC1C480145B5F38317C400A6
:1050880013F7070829DF93E707042316F400B9B7D5
:10509800898B014791E3584818C4F1BF411122C4D4
:1050A8002A842E8597F7FF1F23A007E206C6EF0084
:1050B800D015FD576319F50097F7FF1F9387C7E0D1
:1050C8009C4391C31CC0B24022444101828083D7D3
:1050D800C500011122CC26CA06CE4AC84EC613F70F
:1050E8008700AA842E8479EFD841634DE000B84147
:1050F800634AE0000145F2406244D2444249B24961
:105108000561828058547DD703A90400939637011E
:1051180023A0040063DE060670488357C400918B01
:1051280099C75C401D8E5C5899C33C401D8E5C54E9
:105138000C50814626858297FD570357C400631D8E
:10514800F5009440F54763E9D706B707402085077F
:10515800B3D7D700858BADC31C48232204001CC0DD
:105168009317370163D80700FD576314F5009C4077
:1051780091E368C84C5823A02401ADDD930744048B
:105188006385F5002685EFF0DF97232A04029DB793
:105198000C500146854626850297FD572A86E31E50
:1051A800F5F69C40BDDB75476385E7005947639476
:1051B800E70423A024013DBF136707042316E40076
:1051C8007D5515BF83A90501E38609F203A90500EA
:1051D8008D8B23A0350133093941014791E3D84923
:1051E80018C4E35920F11C540C50CA864E862685F3
:1051F80082976349A0008357C40093E707042316E6
:10520800F4007DBFAA993309A940E1BF9C49ADC309
:10521800011122CC06CE2A8419C51C4D89E72EC659
:10522800EFF0CFD9B245971700009387A741639C49
:10523800F5004C408397C5009DC722856244F24023
:1052480005616FF0DFE8971700009387A741639423
:10525800F5000C44C5B7971700009387A73CE39B5C
:10526800F5FC4C44C1BFF2406244014505618280AF
:1052780001458280411122C42A842E85B28597F780
:10528800FF1F23A307C406C6492FFD576319F5005E
:1052980097F7FF1F938747C39C4391C31CC0B24035
:1052A800224441018280411122C42A842E8597F725
:1052B800FF1F23AB07C006C68D2FFD576319F500E6
:1052C80097F7FF1F938747C09C4391C31CC0B24008
:1052D800224441018280411122C42A842E85B2854C
:1052E800368697F7FF1F23A107BE06C6B927FD57C5
:1052F8006319F50097F7FF1F938707BD9C4391C378
:105308001CC0B240224441018280828082801C46B7
:10531800FD171CC663DA0700184E63C5E700A947E6
:105328006394F5006FF0FFB61C422E8513871700B3
:1053380018C22380B7008280011122CC26CA4AC82D
:105348004EC652C406CE2A89AE893284B304D6002A
:105358007D5A63149400014511A8834504004E86C4
:105368004A85EFF0DFFA0504E31545FFF240624491
:10537800D2444249B249224A05618280357122CD20
:1053880026CB4AC94EC706CF52C556C35AC1DEDE20
:10539800E2DCE6DAAA89AE843289368409C51C4D76
:1053A80099E3EFF0AFC1971700009387A729639D92
:1053B800F40C83A4490083D7C400A18BE5CB9C4897
:1053C800F5C793070002A304F1029307000302D272
:1053D8002305F10222C6930B5002971A0000938A04
:1053E8006A2A054C294B4A848347040099C363926F
:1053F800770FB30C2441638E0C00E6864A86A68597
:105408004E85EFF07FF3FD576309F51E9256E69639
:1054180036D2834704006382071EFD571309140020
:1054280002C802CE3ECA02CCA309010482D4834535
:10543800090015465685EFF0CFDF13041900C2475F
:1054480059E913F7070109C713070002A309E10483
:1054580013F7870009C71307B002A309E1048346BD
:1054680009001307A0026380E608F2474A848146D0
:1054780025460347040093051400130707FD6379C5
:10548800E60AB5CA3ECE85A8971700009387871D00
:105498006395F40083A4890039BF971700009387A8
:1054A8006718E39AF4F083A4C90031B7A6854E853E
:1054B800EFF0BFAD19D57D55FA406A44DA444A4940
:1054C800BA492A4A9A4A0A4BF65B665CD65C0D6171
:1054D8008280050411BF330555413315AC00C98FCF
:1054E8003EC82289A9B7324793064700184336C6F3
:1054F800634907023ACE034704009307E002631F9B
:10550800F704034714009307A002631BF702B2478E
:105518000904138747009C433AC663C107023ECA81
:1055280035A83307E04093E727003ACE3EC8E1B7F5
:10553800B387670385462E84BA9725BFFD57C5B73D
:10554800050402CA8146814725460347040093059E
:105558001400130707FD6378E606F1F2834504009B
:105568000D461715000013056512EFF08FCC11CD0D
:1055780097170000938787111D8D93070004B39731
:10558800A700424505045D8D2AC8834504001946D5
:10559800171500001305C50F130914002304B102E1
:1055A800EFF02FC93DC197B7FFFF938727A595E770
:1055B8004247B2471377071009CF91073EC6925763
:1055C800D2973ED20DB5B387670385462E84BA9726
:1055D800ADBF9D07E19BA107D5B7780097060000EE
:1055E8009386C6D526860C084E8597000000E700EE
:1055F8000000FD572A8AE314F5FC83D7C40093F70B
:105608000704E39A07EA125545BD7800970600009B
:105618009386C6D226860C084E85012AD9BF797191
:1056280056CA9C49BA8A984522D426D24ECE52CC24
:1056380006D64AD05AC85EC6AA892E84B284368A4B
:1056480063D3E700BA879CC00347340419C38507AE
:105658009CC01C4093F7070281C79C4089079CC0E7
:105668000329040013796900631A0900130B9401D4
:10567800FD5B5C449840998F634CF9041C40834659
:10568800340493F70702B336D000A5EB13063404AD
:10569800D2854E85829AFD576303F5041C40114656
:1056A8009840998B544481446397C700B384E6407B
:1056B80063D3040081441C4418486354F700998F4D
:1056C800BE94014969047D5B63982405014509A8D6
:1056D80085465A86D2854E85829A631E75017D5508
:1056E800B250225492540259F249624AD24A424B69
:1056F800B24B456182800509ADBF3307D40013065C
:105708000003A301C7040347540493871600A29714
:105718008906A381E7049DBF85462286D2854E85EA
:10572800829AE30E65FB050945B7797122D426D222
:105738004AD04ECE06D652CC56CA5AC8B68983C667
:105748008501930790063289AA842E84138635042E
:10575800638DF60263E2D706930780056389F6181E
:1057680063EDD7006382062293073004638FF60A3D
:10577800930A24042301D404D1A093073006638636
:10578800F60A93074006E395F6FE1C40084393F695
:10579800070893054500CDC61C410CC363D8070014
:1057A8001307D002B307F040A301E40497160000E2
:1057B800938686EE294775A8930700076385F61632
:1057C80063E5D7029307E006638CF6189307F006A3
:1057D800E390F6FA0C401C4313F8050813854700BC
:1057E8006308080608C39C4395A893075007E383FA
:1057F800F6FE93078007638CF61293073007E39948
:10580800F6F61C43D04181459386470014C383AA0A
:1058180007005685EFF0EFA101C53305554148C093
:105828005C401CC8A301040471A81C43930A240407
:10583800938647009C4314C32301F4048547D5B7D6
:1058480093F607041C410CC3B1DAC207C187B9B784
:1058580093F5050408C3C1D983D707001307F006D9
:105868006388E60E97160000938606E32947A3018E
:1058780004044C400CC463C5050008406D9908C079
:1058880099E3B28A91CDB28AB3F5E702FD1AB695CB
:1058980083C505002380BA00B3D5E70263F0E70C9F
:1058A800A147631EF7001C40858B91CB58401C48CC
:1058B80063C7E70093070003A38FFAFEFD1A3306B8
:1058C800564110C84E87CA867000A2852685EFF01B
:1058D8001FD57D5A631E450B7D55B25022549254F4
:1058E8000259F249624AD24A424B45618280A382F8
:1058F800D50497160000938626DA0C40084313F85F
:1059080005081C411105630D080208C313F71500AB
:1059180001C793E505020CC04147B1FB0C4093F564
:10592800F5FD0CC0A9B79C4193E707029CC19307FA
:105938008007A302F40497160000938626D775BF44
:1059480013F8050408C3E30308FCC207C1837DBF3D
:1059580097160000938646D4214711BFAE872DB70E
:1059680094411C43CC4913F8060813854700630685
:10597800080008C39C438CC301A808C393F6060417
:105988009C43F5DA2390B70023280400B28A1DBF90
:1059980014485686CA8526858299E30F45F31C402C
:1059A800898B8DE7B2474844E359F5F23E8535B710
:1059B80085465686CA8526858299E30F65F1050ACC
:1059C8005C443247998FE345FAFEE9BF014A930ADE
:1059D80094017D5BF5B7411122C42A842E85B285D6
:1059E800368697E7FF1F23A1074E06C6B928FD573D
:1059F8006319F50097E7FF1F9387074D9C4391C3F1
:105A08001CC0B2402244410182809307800517E7F9
:105A1800FF1F232BF74A7D5582809307800517E7E0
:105A2800FF1F2323F74A7D5582809307800517E7D8
:105A3800FF1F232BF748014582809307800517E74E
:105A4800FF1F2323F7487D5582809307800517E7BA
:105A5800FF1F232BF7467D55828000007374617207
:105A6800742E000073686F756C646E2774207275ED
:105A78006E20617420686572652121210D00000087
:105A88007461736B53616D706C65456E74727932B5
:105A98002072756E6E696E672C7461736B32205359
:105AA800503A253038780A007461736B53616D7011
:105AB8006C65456E747279312072756E6E696E67A9
:105AC8002C7461736B312053503A253038780A00B2
