:040000006F2000026B
:100004000000000000000000900000205C020020BE
:10001400A9BDF9F5940000200000000000000000D4
:10002400960000209800002000000000000000005E
:100034009A000020000000009C0000200000000046
:100044009E000020A0000020A2000020A4000020A8
:10005400A6000020A8000020AA000020AC00002078
:10006400AE000020B0000020B2000020B400002048
:10007400CC020020B8000020BA000020BC00002000
:10008400BE000020C0000020C2000020C4000020E8
:1000940001A001A001A001A001A001A001A001A054
:1000A40001A001A001A001A001A001A001A001A044
:1000B40001A001A001A001A001A001A001A001A034
:1000C40001A001A001A0B71700409306700523808A
:1000D400D704130780FA2380E7040100010003C654
:1000E400B7041376F60DA385C7042380070413769B
:1000F400050259CE03C6A700118A1DE22380D70446
:100104002380E7040100010003C7A7001367470029
:100114002385E7009307004B01000100FD17EDFF65
:10012400B7170040930670052380D704130780FA9D
:100134002380E704010001007D892394A7000100C6
:10014400010001000100238007042380D7042380D9
:10015400E704010001003727004093061005A303BC
:10016400D78023800704B717004013077005238046
:10017400E704130780FA2380E7040100010003C7A2
:10018400B70413670708A385E70423800704828064
:10019400137605042DCA03C6A700418A1DE22380F5
:1001A400D7042380E7040100010003C7A7001367F5
:1001B40007012385E7009307007D01000100FD1777
:1001C400EDFFB7170040930670052380D70413078B
:1001D40080FA2380E704010001007D89136505048A
:1001E4002394A700010001000100010023800704FB
:1001F4002380D7042380E70401000100372700404F
:1002040093062005A9BF2380D7042380E7040100B7
:10021400010003D787001367070C2394E700A1B7F5
:100224004111814601468145114506C68D2AB717FD
:100234000040130770052380E704130780FA238026
:10024400E7040100010003C7670413671700238351
:10025400E70423800704B2404101828081460146BD
:10026400814511452D2AB7170040130770052380D7
:10027400E704130780FA2380E704010001007D5797
:100284002396E70203C76704136717002383E70471
:100294002380070401A0BD473305F50201007D1545
:1002A40075FD8280411122C426C206C6AA84014477
:1002B40063179400B24022449244410182800504B1
:1002C4001305803E4204C13F4180DDB7B7170040AB
:1002D400130700032388E702854723A2F1A67300CE
:1002E40020302303048015472303E4800100230204
:1002F400A480828083076480E3CE07FE2303048006
:10030400828083076480E3CE07FE034544808280B5
:1003140083076480E3CE07FE2302A4808280411118
:1003240026C44AC24EC006C61377F50BAD47AA8948
:100334002E8995446306F70019456537653F8D445A
:100344004E854537FD59FD1463983401B240A244EB
:100354001249824941018280135509011375F50F31
:10036400453F2209CDB7011126CC06CEB7040800BB
:1003740051371545BD37713769372AC6A53F324510
:100384009377150089EB136515001375F50FF2408B
:10039400E24405618280FD14E9FC0145CDBF397159
:1003A40026DC4ADA4ED852D656D45AD25ED006DE6D
:1003B40062CE66CCB7E700E07D5783AA070022C669
:1003C40003AA470023A0E71823A2E718B7170040A1
:1003D400130770052380E704130780FA2380E704DA
:1003E40083C74704930B75FFB684E20793FBFB0FA7
:1003F4008546AA892E8B328937240040E18701572C
:1004040063FA76016308D500894613070002631373
:10041400D5000157D98F93F7F70FB71C00402382FB
:10042400FC0411472303E4801305F00F5D3D094CE0
:10043400D135636D7C11B7050700DA95378707005E
:10044400795563F2E504B3879500636EF702370BC1
:100454000800A94733EB65016399F90689E48144EF
:10046400513D26850DA0DA850945553D050903450D
:10047400F9FFFD14050B693D81C49377FB0FFDF76C
:10048400DD3569FD7D55B7170040130770052380DE
:10049400E704130780FA2380E70403C74704418B6A
:1004A4002382E704F250B7E700E023A0571123A208
:1004B4004711E25432445259C259325AA25A125B79
:1004C400825B724CE24C21618280A5476395F906F8
:1004D40085691309F00FB3069900B3742B01B69420
:1004E4001349F9FFB3749900856B33796901416B42
:1004F4009387F9FFB3F7270199E363FC340193D998
:100504004900C147E3E637FF99BF0569C1697D1911
:10051400D9B71305800D638869011305000263844C
:10052400790113051008CA85DD3B353D21DD4E995F
:10053400B3843441D9B7DA852D45D533CA94E30061
:1005440099F205097D3BA30FA9FED5BF9387F9FF57
:1005540093F7F70F6361FC0C83C71C04130730087F
:10056400631FF70437070800636BEB04B3079B00B2
:10057400B706100063F5D704334BEB008947639348
:10058400F9068980D549E38C04ECDA850945413BB9
:1005940011090327C9FF91472320E48003076480DE
:1005A400E34E07FE23033481FD17EDFBFD14110B0D
:1005B40081C49377FB0FE9FF7D3371F5E1B5B7177C
:1005C400004003C75704B70708001377070219E36D
:1005D400B78707007955E378FBEA33079B00E3FF0D
:1005E400E7F855B58547E382F9F2DA852D45053BF1
:1005F4009389F4FFE38504E6293393F7390091EBFB
:10060400832604800327090093074900E39AE6E45C
:100614003E89CE84F1BFB5476396F9001305900B6C
:10062400C93135BDB1471305B00AE38BF9FE9947CB
:100634006391F904B7050800B365BB002D45C531C6
:1006440081448D4BA14975396396740183270480D5
:100654002320F9008504E39834FF832704801317CB
:100664002B01635507002312F900D5BB2322F9009F
:10067400FDB39D476399F90281451305B0044531E3
:10068400BD442320090023220900FD599D3993F715
:100694007400CA9703C70700FD14398D2380A7008F
:1006A400E39634FF6DBBA1476392F9046D3981442D
:1006B400630D0B008D479304C0036308FB00930490
:1006C400000563048B01930440041375C507E30814
:1006D40095D81945393139390545213126850D39E2
:1006E40009453D314931E31C05D669BB91476399FE
:1006F400F90013056006F536F53E130590090DB7AC
:10070400E38F09D4F154A9BB19CD91CD09CE81470A
:100714003387F500834607003307F5008507230078
:10072400D700E397C7FE828019C991C909CA910508
:1007340083A7C5FF11057D16232EF5FEC5BF828054
:1007440001C919C62A960505A30FB5FEE31DA6FE29
:10075400828081473307F5000307070019E33E85CC
:1007640082808507C5BF01112E8626CAAA84131567
:1007740006019305F004418122CC06CE32C6EF1067
:10078400206E2A8401C53246A685BD3F2285F240EB
:100794006244D24405618280854715C18DC105C27A
:1007A4008147B306F5003387F50083C60600034787
:1007B40007006398E6008507E315F6FE85473E8546
:1007C40082808147EDBF9307F6FFBE952A96631397
:1007D400C5008280FD1583C715000505A30FF5FE2E
:1007E400FDB7AA87014581CF09CE3E96850703C789
:1007F400F7FF6317B700E31BF6FE0545828082808E
:10080400014582807971973700009387276522D448
:10081400804306D626D24AD04ECE52CC56CA5AC8A7
:100824005EC67DC08144173B0000130BAB671739CC
:1008340000001309E962173A0000130AEA5DB709D8
:10084400C0A8B70A40578357240085E35C4481EC71
:10085400173700002324F760832BC4002285EF1090
:10086400406D5E8461A0DCC4C5BF83270B00829702
:100874001C44636FF5023307F540635E07020327E8
:10088400490219CF03076901635F07003387A74053
:100894008327CA006376F7009737000023A4E7583C
:1008A400A2844044A1A00147E384A7FECE97F9BFE8
:1008B400898F63DE07069737000023A50756835503
:1008C400240003450400973000E0E780A0F85C4072
:1008D4005844B1C71444B6978306690163C506003A
:1008E40063E33701D6971CC4A2843A8429FC973762
:1008F400000093876752DC4711476376F704F117CA
:10090400173700002320F752B25022549254025950
:10091400F249624AD24A424BB24B4561828091E429
:100924009737000023ACE75205BFD8C435B7032777
:1009340049023DD70327CA00E3F4E7F6173700005E
:100944002322F74EB1BF9737000023AD074C6DBF8C
:10095400411122C4173400001304444E1C4006C63F
:1009640026C24AC091C782979737000023A8074C34
:100974005C4091C382971C406394071A9737000028
:1009840083C7977A858B9DC797370000A38E077816
:100994001737000003477779914763FDE700EF00BD
:1009A400F0469737000083C75778F9178A07A2974C
:1009B4009C438297173900001309C97A8347C900F9
:1009C400918B99C3EF10203D1C4491C382979734B7
:1009D4000000938464489840173600000346D643C9
:1009E4009737000083C7474393961700BA9683D678
:1009F4000600C5CA9737000083C7074263EDC70ADC
:100A040097370000238A07401C40639B07109737E1
:100A1400000083C7B77191CF9737000083C7F77081
:100A240089EB97370000A3830770977001E0E78094
:100A3400C0EA973700009387E7469C43F5C3FD5708
:100A4400173700002320F73E753B97370000938744
:100A54002741DC53F1C7173700000347176D91474F
:100A640063E0E70C8347C900918BDDEB9040973638
:100A7400000083C6763A63CBD70A17370000130702
:100A8400A73958479737000083C7D73E636AF708EA
:100A94002244B240924402494101173300E0670006
:100AA40023B7850793F7F70F973600002386F636AA
:100AB400E3E8C7F281B786073E979737000093872C
:100AC400A737835507009C43231007001735000000
:100AD4000345853413172500BA979C4382979737AB
:100AE400000083C76733139717009C40BA9703D756
:100AF4000700598D2390A7009737000083C7C7319B
:100B040091C78507173700002308F730173700000F
:100B1400034787309737000083C71730E372F7EE37
:100B2400B240224492440249410182801397170043
:100B34003297035707006DF7850735BFAD6737C791
:100B44000040BD072326F7200F1000009737000050
:100B54009387872C884F83278726BD66BD0693C756
:100B6400F7FF99836A052326D7205D8D8280411182
:100B7400B7170040985F3AC6945F3247E39CE6FE9D
:100B8400324541018280011122CC26CA4AC84EC690
:100B940052C406CEAA841734000013042446173A1C
:100BA4000000130A2A479309250005498347B40F17
:100BB40089EF2104E31C44FF0145F2406244D2441E
:100BC4004249B249224A056182800347C40F83C760
:100BD4001400E310F7FE1946CE851305D40F6D3EBD
:100BE400E31925FDD9BF032705116304071041113B
:100BF40022C406C68347C500834565042A8493F747
:100C0400C70F2306F500834697000356C7001395C4
:100C14008601618563F4C506635D050403458700A9
:100C240093F6F607A304D700054693E6270063145A
:100C3400C50093E617002306D4005C4389075CC310
:100C4400A30AB400973700009387C74DC84B2E867C
:100C54004C430905553C8327041103465401D443EE
:100C640003D7C700B296118FD4C32396E7008947F0
:100C740015A893E717002306F400D9B79376F60F67
:100C8400635B050403458700854513E62700631469
:100C9400B50013E617002306C400A30AD400A30476
:100CA40007008547A30CF4008327041101459C43E6
:100CB40099CF0347A4029737000083C7871B637843
:100CC400F7008347C40093E707012306F400B2400A
:100CD40022444101828093E717002306F400A30A0B
:100CE400D400A3040700973700009387A743C84B99
:100CF40085B705458280973700009387A7419C43B9
:100D0400411122C406C6858B2A84C5EF41651305AB
:100D140025F5971001E0E780E0D645C58347A50097
:100D24002315F50083278411BDE7232CA410232E5B
:100D3400A4108547231DF402232005008347640182
:100D440054412316F5000347D4002304E500054766
:100D5400A304E500173700001307C73C184F138599
:100D6400170215811C437D151375F50F9CC25C4356
:100D7400DCC21C479CC65C47DCC61C4B9CCA5C4B53
:100D8400DCCA1C4F9CCE5C4FDCCE19CD9386060288
:100D940013070702C1BF8327C41188C38357A40361
:100DA400232EA410850779B79737000083D7A7258A
:100DB4008507173700002318F724B2402244410165
:100DC40082808347C40023090400054593C7470074
:100DD4002306F400DDB78347E50193F7E70F91CBD2
:100DE400014582800145B2402244924402494101B6
:100DF40082808347F501EDF7834625010347C5004B
:100E040089CA0346A5029737000083C7970663671C
:100E1400F60093770701E9D7814789C6418B835749
:100E2400C51A01C70357051BBA97DDDB1737000046
:100E34000347670441111316870106C622C426C25C
:100E44004AC06186635006069387C71313D45700BC
:100E5400973700009387871A83A6C7089734000042
:100E640083C494017D59B705C0A883A7860803D716
:100E7400E607635B06043387E740637327013A8917
:100E84009442E5F6973700009387C7019C43829705
:100E9400E36AA9F43305A940269433348500134545
:100EA400140091B7058B9387C71209CB8A07138463
:100EB400F7039307D0073354F40259BF860713840A
:100EC400F7019307D003C5BFE3F7E7FAAE9765B719
:100ED400797126D206D622D44AD04ECE52CC56CAE6
:100EE4005AC85EC6834795020344F512AA843E9409
:100EF4001374F40F9307400263F687001304B4FDE0
:100F04001374F40F03AA041383AA4413A38784124B
:100F140022865285D685970002E0E780403905890C
:100F240015E503CB541201498149337B6403930BC8
:100F340050024A865285D685970002E0E780203722
:100F4400058915C5639169031374F90F2387841206
:100F5400B250225492540259F249624AD24A424B44
:100F6400B24B456182808509E20993D9894105091B
:100F7400E31179FDE1BF8327050903566503797100
:100F840093D60701BD8EC206C182358E13577640B3
:100F940093575640898B058B5D8F93573640918BC1
:100FA4005D8F93571640A18B5D8F93171600C18BED
:100FB4005D8F9317360093F707025D8F93175600E2
:100FC4009355860093F707041E065D8F1376F60F7C
:100FD400518F93D7554013D63540118A898BD18FC1
:100FE40013D67540D18F13D61540218AD18F13960D
:100FF4001500418AD18F1396350013760602D18FDE
:1010040013965500137606049E05D18F93F5F50FBC
:10101400CD8FA20745465D8F3307C70222D42A84A9
:1010240026D252CC56CA032A0413832A44135AC81C
:1010340006D6369742074183935777401355574056
:101044000989858BC98F135537401189C98F135569
:1010540017402189C98F131517004189C98F1315AA
:10106400370013750502C98F131557009355870070
:10107400137505041E07C98F1377F70FD98F13D57E
:10108400354013D755401189098B498F13D57540C5
:10109400498F13D515402189498F1395150041892E
:1010A400498F1395350013750502498F1395550023
:1010B400137505049E05498F93F5F50F4D8F22078F
:1010C400D98FB387C7024AD04ECE5EC662C4B697E4
:1010D400C207C18313D7774013D557400989058BBD
:1010E400498F13D537401189498F13D5174021896A
:1010F400498F139517004189498F1395370013754C
:101104000502498F1395570093D58700137505047D
:101114009E07498F93F7F70FD98F13D5354013D70F
:1011240055401189098B498F13D57540498F13D5C3
:1011340015402189498F139515004189498F1395CD
:10114400350013750502498F139555001375050471
:101154009E05498F93F5F50F4D8F2207D98FB387DD
:10116400C702130650025285D685B697BD8E939456
:101174000601C18033F6C402137BF60F970002E028
:10118400E780E01205890DED834754120149814936
:10119400B3849702130C5002C1804A865285D685C7
:1011A400970002E0E780A0100589937BF90F11C531
:1011B40063863403850993F9F90F0509E31F89FD53
:1011C40023076413B250225492540259F249624ADA
:1011D400D24A424BB24B224C456182805E8BCDB7E2
:1011E400011197370000938767E122CC03A4870B92
:1011F40026CA4AC84EC606CEAA84130925008549C4
:1012040015C083C7140003473400858B6304F700BB
:10121400405CFDB71946930544004A85EFF0CFD7EB
:10122400E31835FF2285F2406244D2444249B24970
:1012340005618280411197370000938727DC22C41F
:1012440003A4870B26C24AC006C693042500054999
:1012540001E82285B240224492440249410182803D
:10126400A6851305A402974001E0E780807BE30292
:1012740025FF405CF1BF411197370000938707D8E1
:1012840022C403A4870B26C24AC006C693042500C1
:10129400054901E82285B2402244924402494101B1
:1012A4008280A6851305A401974001E0E78060775A
:1012B400E30225FF405CF1BF0111973700009387DB
:1012C400E7D322CC03A4070B26CA06CE2AC42EC613
:1012D400854419E40145F2406244D24405618280A8
:1012E40003471400834791006304F7000044D5B713
:1012F40019469305A10013052400EFF0EFC9E31785
:1013040095FE0545C9BF173700001307E7E01C43E6
:101314009306001094C301000100010001001C4366
:101324009443E59A94C38346150003482500A20616
:101334004208C29603480500C29603483500620875
:10134400C29694D78346550003486500A206420816
:10135400C29603484500C296034875006208C296C7
:10136400D4D7834695000348A500A2064208C29636
:1013740003488500C2960348B5006208C29694DB10
:101384008346D5000348E500A2064208C2960348F6
:10139400C5000345F500C2966205AA96D4DB83C650
:1013A400150003C52500A2064205AA9603C505003B
:1013B400AA9603C535006205AA9694CF83C6550044
:1013C40003C56500A2064205AA9603C54500AA9670
:1013D40003C575006205AA96D4CF83C6950003C5DC
:1013E400A500A2064205AA9603C58500AA9603C5D0
:1013F400B5006205AA9694D383C6D50003C5E5005B
:10140400A2064205AA9603C5C50083C5F500AA969F
:10141400E205AE96D4D3D443F59AD4C3D44393E629
:101424001600D4C3944393E6160094C3BA87944336
:10143400D842058B59E3984E01452300E6009843B2
:10144400184F2183A300E6009843184F41832301DA
:10145400E6009843184F6183A301E6009C43D84FEC
:101464002302E600D84F2183A302E600D84F41832C
:101474002303E600D84F6183A303E60098532304B3
:10148400E60098532183A304E6009853418323057F
:10149400E60098536183A305E600D8532306E600CB
:1014A400D8532183A306E600D85341832307E600DB
:1014B400DC53E183A307F600828001008DBF5D71D8
:1014C4003AD217370000130767C536D414433ED009
:1014D40022DE9C5E4ACA86C6998396C49AC29EC07E
:1014E40026DC2ADA2ED832D642CE46CC72C876C64C
:1014F4007AC47EC2858B3A84173900001309C9C1A6
:10150400D1CB9C5E973400009384C4C193F7F7F960
:101514009CDE9737000083C7E7C093F707049DC399
:1015240097370000938707989C438297973700006A
:1015340023A2A7C083C7040093F7F70B1737000053
:101544002302F7BE83C7440093F707048DE785475A
:1015540017370000A30AF7BC97370000938747BEEC
:101564009C43096798C7130700FC97360000238D36
:10157400E6BAD844F8D383C7640013070008631B92
:10158400F700832709009C4393F7070417370000EB
:10159400230DF7B81C40985F1183058B09CB985F26
:1015A4003D9B98DF054797360000238FE6B6985F8A
:1015B4001D83058B11CB985F1377F7F798DF854769
:1015C400173700002302F7B683270900D8430583A1
:1015D400058B19C7D843759BD8C3D843799BD8C307
:1015E4007254B640A64216438643E2545255C2553D
:1015F4003256A256125782577248E2485249424E16
:10160400B24E224F924F6161730020309737000031
:10161400938747B103C70700058B11CB97370000A9
:10162400238407B097370000A38007B0828003C7E4
:101634001700058B65F703C74700058B61DF83C778
:101644005700CDB717370000130747AD032807002D
:10165400832788039583858BF9E705CA97370000AC
:101664009387C799839847040303060083270803D5
:10167400BD836304030893F7F71FB38717419A9751
:101684000948B3C707032300F6009DC61C43985BB3
:101694004607935767016356070093E707C0C207DD
:1016A400C18303970600C207C18709C7BA970947D0
:1016B400B3C7E7022390F600A5C983451500ADC55D
:1016C400411106C617370000034727A693070004F5
:1016D4006308F702973700009387C7A483C56700A0
:1016E400972700009387C7779C5B13053008829780
:1016F4008945B2402E8541018280B387174161B785
:10170400AA9583C59500854713F7F506630AF70084
:10171400972700009387C7749C5B9305D00FF1B79C
:101724009D818605F9B785452E8582804DE19737E1
:1017340000009387E7A09443411122C406C62E8774
:101744003E84FC52FDFF3A85B28597370000238C16
:10175400079C976001E0E780E0F2973700009387E9
:10176400E79B9C43B70680009843558F98C3D8578E
:10177400719BD8D797370000A388079A9737000042
:10178400A382079A1C40094798C3B7F700E003A750
:1017940007D16D9B23A8E7D003A707D15D9B23A89E
:1017A400E7D073005010173700001307A79783473B
:1017B4002700858B89EB83473700858BC5CF973707
:1017C400000023830796B2402244410182808D4762
:1017D4006310F50497370000938747949C43B7063A
:1017E40080009843558F98C3D857719BD8D7173723
:1017F40000001307279383472700858BD1E783478E
:101804003700858BADCF97370000238F07908280F8
:101814008547E31EF5FC173700001307679214434E
:10182400B567BD07DCC60F1000001C4309670946F5
:1018340098C7130700F8973600002387E68E1737FA
:1018440000001307A78D1443984231830D8B63194D
:10185400C7001307E043F8D33D673D07D8C741BF2E
:10186400984231830D8B01E713076019EDB7130715
:10187400E01BD5B783474700858B95DBA9B7834722
:101884004700858BADDB828082805D714EDE9739A7
:1018940000009389A98803A7090086C6A2C4A6C22A
:1018A400CAC052DC1C43173900001309A98D173A2A
:1018B4000000130AEA8893F7F7E793E707081CC3C5
:1018C400832609003707CEFF7D179C461306800246
:1018D4002A84F98F9CC683270A001307000828006E
:1018E400B8CBAE8493051008EFE09FE5976001E064
:1018F400E78060FB976001E0E780C00B83A70900E5
:101904009376F41FB70EFCFF23A40700984B13052E
:1019140010F8CE851367F70398CBF84F4A88B70FB2
:101924000400137707E0558FF8CF9843F576FD163A
:10193400758F98C39843B706330091421377F7E73E
:1019440098C39843FD1E85431377F7E71367071081
:1019540098C303270900130F80021C47D58F1CC7A7
:1019640083270A001307900D3400B8CB014793581E
:101974003700A69883C7080013767700B3D7C7400B
:10198400858BDDC79C41032E0800239C070423900C
:1019940007060323CE021373D3FF23266E0203AE7E
:1019A40007001373F707137E0EF833636E0023A04A
:1019B400670003A347023363F30123A267020143D1
:1019C40003DE07066307C30303A30703038E0600AE
:1019D4001353F30062031353834163586E0003A34C
:1019E40007031353F3002380660003D3070613731E
:1019F400F30F03DE8705E3F5C2FD03A34702337348
:101A0400D30123A2670283870600635CF40003C347
:101A140008003396C3001346F6FF3376660023802E
:101A2400C8003E8663D3A7002A8613158601618504
:101A340005071377F70F8506E31BE7F3B640264443
:101A440096440649F259625A61618280011136C88E
:101A5400972600009386C66E3EC49C423AC632CA9C
:101A6400D8472ACE2ECC1316170163550602984781
:101A740013161701635006027D57B8D717270000C5
:101A840013078739184F0507172600002322E63A63
:101A9400116798C798470D83058B1DC3172700004E
:101AA400034767681367170017260000230DE666CF
:101AB400130700F8172600002308E666214798C795
:101AC4009847058B09CF172700000347B7651367AD
:101AD400170017260000A307E664054798C7984730
:101AE4000983058B09E798470583058B39CF984708
:101AF4001726000013060663172500001305056268
:101B04000983058B630C07101841184331830D8B2F
:101B140063130710AC4B184E93F5050203471700E7
:101B2400E9C57DE713077006D8CF0347060013679E
:101B34001700172600002307E65E114798C71841CF
:101B44005C57F19B93E717005CD79C429847931628
:101B5400370163D606029726000083C62651C18A40
:101B64001727000013078749E1C6034707071367D0
:101B7400070297260000238BE64E056798C798470F
:101B84009316270163D10602172700000347C7599C
:101B9400620761876357070005479726000023857E
:101BA400E658096798C798479316070163D6060253
:101BB4009726000083C6964B858A172700001307D3
:101BC400E743C9C603471707136727009726000092
:101BD400A38EE648216798C77245E2455246C2463D
:101BE4003247A2470561730020300DDF8545631538
:101BF400B7001307B0060DBF89456315B700130777
:101C0400F0061DB78D456315B7001307300729BFCC
:101C14001307500711BF1307600739B7034736008E
:101C24001367170017260000A30FE64E094739B7BC
:101C3400834607070946BD8A6388C600034707072A
:101C44008D463D8BE31BD7F2114725B78346170713
:101C5400918AC9D2034717071367870085BF1727DF
:101C640000001307274E8346B7019727000083C758
:101C74003750B69793F7F70FFD4663EAF6044C4BDB
:101C840097260000A380F64C9727000083C7974B44
:101C940005473317F70097260000A38BF64C6D8F8A
:101CA4001DEF9726000083C6F64CB3F6D702130542
:101CB4000002814733D6F500058A13F8F70F09CEE1
:101CC4006399E60097270000A38E07478280811757
:101CD4007DB705071377F70F8507E39DA7FC82807F
:101CE400972700009387071C9C43011122CC4EC602
:101CF40006CE26CA4AC852C456C282979727000005
:101D040093874746804781496305A406BE84972785
:101D140000009387E714038767013E89635507062C
:101D2400018D135455009727000083C747439379C7
:101D3400F501636DF402370AC0A8B70A40570537A6
:101D44009C449726000083C68641139756003E970D
:101D540083076901158C63C50700636347015697C0
:101D64009727000023A4E740E37BD4FC1604B3695F
:101D74003401F24062444E85D2444249B249224A77
:101D8400924A05618280E37D85F8B707C0A8338451
:101D94008740229579B7972700009387A7109C4323
:101DA400411122C406C626C2829797270000938752
:101DB400673B80476309A406BE8497270000938786
:101DC400270A8387670163D80704018D13545500DC
:101DD4009727000083C7A7386367F40449359844FC
:101DE4009727000083C7A7379396570036971D8C13
:101DF4009726000023ACE636E372F4FE2244B24098
:101E04009244172500000345F533814541011773BA
:101E140001E067002317E37A85FAB707C0A8338483
:101E24008740229565B7B2402244924441018280A2
:101E340097270000938707359843B7570200938785
:101E4400079F8326070913965600635806008326C6
:101E540007091396660063440600FD17FDF38280AC
:101E640071C5AA870145E9C58D07C207C183F19BE6
:101E7400C207C18313074003636FF70217270000EB
:101E8400130707360843172700001307E7341443E2
:101E94006398A60217270000130787FC185B014507
:101EA40041CB4111C20706C60545DD8D0297B240FC
:101EB4000145410182801727000013072732D9B753
:101EC4000357650035E303574500636FF704B30612
:101ED400F7402146637CD6020328050093868700D9
:101EE4001D8FAA96611717260000035626F3239325
:101EF40006002392E60023A0060114C12312F50074
:101F0400130786FF97260000239AE6F02313B500F3
:101F14009725000083D585F0B387F5401727000087
:101F2400231EF7EE2105828008419DB7014582807A
:101F340082800DC1972700009387872A03A3070097
:101F4400972700009387472983A8070081469A872B
:101F540063E31701828003A80700636DF50A636BCE
:101F6400A80A13878700E367E5FE03D667002167A5
:101F740005076317E60003C781930507238CE192E5
:101F840097250000938545E903D6470003D745000C
:101F94002393070032974207418317250000231F2C
:101FA400E5E6638A67021725000013052523084127
:101FB4006303F50203D5660019ED83D7460023A019
:101FC400060121073E9621062392C60097270000AA
:101FD4002396E7E4B6879843E30E17F797260000A5
:101FE4009386C61F9442E307D7F683566700BDF273
:101FF40083D64700035647001843A106B29623929E
:10200400D70098C383D74500A107172700002317DB
:0C201400F7E08280BE86C28725BF000076
:1020200097110020938181B817610020130181FD71
:102030001305400097E5FF1F9385C5FC1706002098
:10204000130606FE63FAC5008322050023A055008F
:1020500011059105E3EAC5FE171502001305452396
:10206000970500209385C5FB1386018663FAC5009A
:102070008322050023A0550011059105E3EAC5FE62
:102080001385018697250020938505166377B50093
:10209000232005001105E36DB5FEFD42739002BCDF
:1020A0008D42739042809302800873A0023097E2C1
:1020B000FF1F938222F593E2320073905230971201
:1020C00000009382222173901234730020303D432C
:1020D0002A876373C3029377F700BDEFADE593766C
:1020E00006FF3D8ABA960CC34CC30CC74CC74107C8
:1020F000E36BD7FE11E28280B306C3408A069702E3
:10210000000096966780A6002307B700A306B700D5
:102110002306B700A305B7002305B700A304B70043
:102120002304B700A303B7002303B700A302B7003B
:102130002302B700A301B7002301B700A300B70033
:102140002300B700828093F5F50F93968500D58D17
:1021500093960501D58D61B79396270097020000ED
:1021600096968682E78086FA9680C1171D8F3E96E6
:10217000E374C3F8A5B7B717004003C77705137713
:10218000E70FA38BE704130700F8A38DE7043D478F
:10219000238CE70413077003A38CE70482804111AA
:1021A0002A83014E930E407E130F0019930F4006B1
:1021B00063E46E0E9308001913034006B378150309
:1021C000854E0D4FA14F337365020D8913351500F0
:1021D00063EEBE0E1308F6FF794672984208135854
:1021E00008013307C70213D61700BE0732976146AE
:1021F000B3F6C60213068070B386C6023697A16690
:10220000F58F42075D8FB716004083C7F60293F73C
:102210000708A307F1000346F10083C7F60293F70E
:102220000708E394C7FE8347F100B716004093F711
:10223000F70FFDC7B7170040930670052380D7043A
:10224000930680FA2380D7040100010023AA070324
:1022500083C6170311667D1693E60608A388D70286
:10226000D45BC85F93854703A98EF18EF5FA930678
:1022700070052380D704930680FA2380D7040100D9
:10228000010098C103C7170313670704A388E70277
:1022900023800704410182807D133368E3039308A0
:1022A000E016630E08003368F3039308D016630842
:1022B00008009378330093B818009388D816330831
:1022C0001E01131E0801135E0E01DDB56393E503C5
:1022D0000548638608000148630303002A887108E3
:1022E0007298FD15131E0801C205135E0E01C1810F
:1022F000C5B513F8150063F4BF007908D5B71338D6
:102300001800E5BF83C7F60293F70708A307F1009B
:102310000346F10083C7F60293F70708E394C7FE6C
:102320008347F10093F7F70FF1DF29B7914763EE89
:10233000B702170702001307A76D8A05BA959C41DB
:10234000BA978287B717004003A7470B1345F5FFDD
:10235000698F23AAE70A03A7070B698F23A8E70A57
:1023600003A7070A798D23A0A70A8280B717004028
:1023700083A6470B1347F5FFF98E23AAD70A83A636
:10238000070B558D23A8A70A83A6070A758F23A0DC
:10239000E70A8280B717004003A7470B498F23AA9B
:1023A000E70A03A7070B1345F5FF45BFB717004022
:1023B00083A6470B1347F5FF758F23AAE70A03A7E8
:1023C000070A598D4DB7B717004003A7470B498F30
:1023D000EDB7B717004003D58700420541819377D9
:1023E000050491EB9377F5013755E8011305058056
:1023F0003345F50282809377050C13070004639739
:10240000E7009377F50137459C1CCDB7216513058F
:1024100005D08280B7F700E08847CC4782808147AB
:1024200037370040A14663C4C70032858280034528
:10243000B740E38EA6FE3385F5000345050085070A
:102440002304A740CDB7411122C406C62A845137C0
:102450002947B307E502B2408D83B3D787022244F0
:102460009507B3D7E70237370040C207C183231669
:10247000F74041018280716541111305052006C6B0
:10248000D937B7370040130770F82381E7400D476D
:10249000A381E74013070004A380E7400547238793
:1024A000E740B24041018280CC41411106C63285ED
:1024B00003C6150083C5050022064D8E42068D65B4
:1024C0004186138875A2630C060F6348C8041388FD
:1024D00045A26306060B634AC800938535A26309CB
:1024E000B60623900600294679A0138855A26308F2
:1024F000060B938565A2E316B6FEC1451D4663EC47
:10250000E5064546198E63F3C7003E862390C60054
:10251000970502009385055289A8138895A2630048
:10252000060F634E060B1388A5A2630A060F938558
:1025300005A5E318B6FA99451D4663EEE502198E26
:1025400063F3C7003E862390C6009385818031A83F
:102550009D451D4663E1E5022146198E63F3C700E0
:102560003E862390C60093850186BA9597E0FF1FAB
:10257000E780C0190146B240328541018280AD45F5
:102580001D46E3EAE5FE3146198E63F3C7003E8639
:102590002390C600970502009385854DF9B7B14594
:1025A0001D46E3EAE5FC3546198E63F3C7003E8617
:1025B0002390C600970502009385854C7DB7C145E1
:1025C0001D46E3EAE5FA4546198E63F3C7003E86E9
:1025D0002390C600970502009385054779B7C1454A
:1025E0001D46E3EAE5F84546198E63F3C7003E86CB
:1025F0002390C6009705020093858549BDB7C14564
:102600001D46E3EAE5F64546198E63F3C7003E86AC
:102610002390C6009705020093854544B9B7B54598
:102620001D46E3EAE5F43946198E63F3C7003E869A
:102630002390C600970502009385C53E3DB79706D7
:1026400000209386E6B04146CD45170500201305CE
:10265000259D6F70E06C05E1B28741112E861385D0
:102660000186BE8506C697E0FF1FE780200AB240BC
:1026700001454101828009458280C841411122C43F
:1026800006C683471500034505002D44A207C98FE0
:102690000DEFC2070D67C187130547A5638CA7021D
:1026A0001307D7A52944639BE70085472390F600CD
:1026B000DC4583C707002300F60001449387C187E8
:1026C0009C4381C78145194582972285B2402244A7
:1026D0004101828089472390F6009387618783D7E1
:1026E00007002300F60083D76187A183A300F600CB
:1026F000E9B783A8450079714AD006D622D426D2FC
:102700004ECE52CC83C7180083C808002D49A207BB
:10271000B3E71701631E070EC2078D68C1871383D5
:102720002890B284638F671C938858A529496391C8
:10273000170F3684854783C61188130900086389FB
:10274000F60C931625009387019BB69783C7270045
:10275000AA8913091008898BC5CF1389C1868327DD
:10276000490003DAA5001374F40FD1C78547A3808D
:10277000F188239641878D472397F1868327490067
:1027800041472380E7000327490083C70400A300D3
:10279000F7000947638DE70E6360F7020547638220
:1027A000E708094483274900854503C5018823813B
:1027B0008700EF10E00991A88D46638FD70E11476F
:1027C000E391E7FE8547631CF41083D76187C18BD3
:1027D00063870710835729000325490003C6C18872
:1027E000B297938541880D052397F18697E0FF1FE7
:1027F000E780C0F145BF81462D46F54503D581866A
:10280000EF50005823A8A18635F123943187014960
:10281000B25022544A8592540259F249624A4561A3
:1028200082801547636D870A83D76187898BC5CB03
:102830006319E40283C7240003C73400A2074207D8
:10284000BA9703C71400BA9703C744006207BA9740
:102850003EC69387C1879C43B1CF6C0005458297E4
:1028600091A802C68146014781477D1463C5870050
:10287000EDD23AC6F9BFB386F40083C616001396AC
:1028800037008507B396C60036978546C5B7854796
:102890006317F40483D76187A18B0D44E38407F0A9
:1028A0009387C1879C4399C7814509458297114405
:1028B000E31A05EE0544FDB56313E40283D761878F
:1028C000C18B0D44E38007EE03C7140003C6C18823
:1028D00081479385418893F6F70F63E4C6000D4462
:1028E000D1B58507B386F50083C6F6FFE395E6FE0E
:1028F000A38CE1869387C1879C43CDDF81450D453D
:10290000B9BF83D7A500170800200358C88F631FDD
:10291000F8008947EF50300B9387C1879C432A8981
:10292000E38807EE81451D458297DDB51708002035
:1029300003586886E31DF8EC8547EF50D0082A89D4
:10294000E31805EC9387C1879C43E38207EC03C53A
:10295000140003C7040081452205598D1335150065
:102960001105D9B7411126C2C16422C49385019CC7
:102970002A841385F4FF06C6EF7060459385019B9A
:102980001385F4FF0588EF7080440DC02244B240E7
:10299000924497060020938666874146AD4517F519
:1029A000FF1F1305A57B41016F708037B2402244A1
:1029B000924401454101828023AEA18682809147E5
:1029C000630BF5009D476303F5028D47630BF5002C
:1029D00089473E85828083470600A38CF186814724
:1029E000CDBF83570600239BF186D5BF83C6C18820
:1029F0008147E360D5FE1387160003460600238651
:102A0000E1881387418836972300C700D9B79147DB
:102A10006300F50295476302F5020D478947631786
:102A2000E50083D761872390F50081473E8582804A
:102A300083C791872380F500CDBF83C74187DDBF62
:102A4000411122C42E849385019C26C206C6AA8405
:102A5000EF502074058915C197F7FF1F9387077002
:102A600083D7A702A285B2402310F4002244268512
:102A70009244014641016F60604BB240224492444F
:102A8000494541018280C167F9176301F50441118D
:102A900022C406C685472A84639FF5002285938554
:102AA000019CEF70C03222852244B2409385019B85
:102AB00041016F70C03189476396F5008545EF90FD
:102AC000605A69DDB2402244410182808280411116
:102AD00093962500AA852D4506C697E0FF1FE7803F
:102AE000408CB240014541018280411122C426C27E
:102AF0004AC02A842E89B284AA8593060020014602
:102B0000254506C697E0FF1FE780A0899316290098
:102B10002686A285294597E0FF1FE7808088B2407E
:102B2000224492440249014541018280011122CC94
:102B300006CE3714004026CA4AC84EC652C4834443
:102B40007405034AB4058349840503499405EFF0ED
:102B50008FE28347A40593F4F40F137AFA0F93E7F7
:102B60001700230DF40493F9F90F1379F90FB71730
:102B7000004003C7A705058B6DFF03D5C705A38DCF
:102B80004705238C3705A38C2705A38B9704F240B8
:102B90006244D2444249B249224A056182804111CD
:102BA0009397050122C406C6C1872E8463DD070002
:102BB000EF00300019C1EF00A0782165218DB240EF
:102BC00022444101828093F7150013C51500E5FBEF
:102BD0009397250163DF0700EF50E10837F6020005
:102BE000130606E0896503C501A6EF00B059096523
:102BF000F1B7939715010145E3D307FC17050200D0
:102C00001305C5EEEFE0714613060064916503C538
:102C100001A6EF003057116555B71D71494697055C
:102C20000200938525E8170502001305A50586CE49
:102C300097E0FF1FE78080B601E917050200130542
:102C4000A5E7EFE0914201A0B7F600E0795798CAF6
:102C5000FD57DCCA0567B7E700E023A0E7101306BD
:102C6000F00290C223A0E718010001001306C00380
:102C70008145480897E0FF1FE780C0AC9707002018
:102C8000938747993ECA896793870780231CF10081
:102C9000ED472312F1029547A301F1028547230373
:102CA000F102A167938707E03ECE97070000938764
:102CB00047E2BEC497070000938767E3BEC6B7F537
:102CC000070097F7FFFF9387277535473EDA814660
:102CD000970700009387C7E57000E10519452304B5
:102CE000E102A305E1023EDE97D0FF1FE780606BA3
:102CF00058088147994670003E96034606008507AE
:102D00000507A30CC700E398D7FED24791C7035726
:102D1000810185676373F70001A04808EF10600721
:102D2000AA8501C917050200130545DAEFE0512213
:102D300001A0F640256182804111170500001305AE
:102D400045E606C622C4EF100001138401A6230045
:102D5000A4002928034504002244B24037F60200AB
:102D6000130606E0896541016F00D041411106C696
:102D7000B7170040130770052380E704130780FA94
:102D80002380E70403C7F7021305407E81461367DB
:102D90007700A387E70223800704014781470546A0
:102DA0008545EFF0CFBFB240014541016F1040288B
:102DB00041117D1506C622C41375F50F994763ECC2
:102DC000A702170702001307A7D20A053A951C416C
:102DD0002E84BA978287A14503C5518BEF00305CE2
:102DE0001C4023ACF18A1966130606DCA14503C515
:102DF000518BEF003039014421A803C7918A97070E
:102E0000020093872745BA9703C407003334800034
:102E10002285B240224441018280A14503C5518BE5
:102E2000EF00F0579385A18A1145D5366DBFA145B6
:102E300003C5518BEF00B056938741899843914762
:102E40000144E317F7FC1306007D894503C5518B48
:102E5000EF00503375BF894503C5518BEF003054E7
:102E600059B7A145D5BF011122CC06CE11472A84FE
:102E70006319E50203C725009547631EF70083D752
:102E8000A500056613068638914503C5518B239826
:102E9000F188EF00302F23AA8188F2406244056157
:102EA0008280938741899C43639DE70485478945D8
:102EB00003C5518BA303F10023040100EF00304E42
:102EC000854503D50189C1362C0013055041EF809B
:102ED0007141930500030D45EF20803D93050003EC
:102EE0001145EF20E03C8965938505710145EF2090
:102EF000203C13067100854513055030EFA0C12C0E
:102F000059BF09476391E7088D47631EF50603C75C
:102F1000418B8547631CF700300085451305C030A1
:102F200023040100EFA0412A238A018A83C7818AF2
:102F300081C72384018A85B70D45EF10F06C930794
:102F400000036317F5028547930500030D4523042D
:102F5000F100EF20E035930500031145EF204035E7
:102F60009565938505E20145EF208034300061B717
:102F70008547930500640D452304F100EF2040339D
:102F800093050064D9BF8547E317F4F02C001305BF
:102F90004030EFA0C1108347D1003000A145A30706
:102FA000F1008347C1000145230601002307F1001A
:102FB0008347B100A3050100A306F100EFF0AFE9DC
:102FC000D9BD41119397050122C406C6C1872E843D
:102FD00063DD070003C5518BE92E11C195262165DC
:102FE000218DB24022444101828093F7150091CF98
:102FF00017F6FF1F1306C6239385018A03C5518B5D
:10300000EF90916C13451400E9BF93F72500638A94
:10301000071093874189984391476317F70E01473B
:1030200081462946ED4503D50189EF40705523A817
:10303000A18A6304050C03C7918A9707020093874E
:103040006721BA9783C60700239E0188238C0188D5
:10305000239D018883D7E1881306300613F8B60F45
:103060006371F6029305400633D6B7029388818BCD
:1030700083A80800B3F7B702469623ACC18A23970A
:10308000F18823000501A300050023010500A30129
:10309000050093F71600A5EF93074500898A95C2AE
:1030A0009386818B9442910713D68600238ED7FE98
:1030B000A38EC7FE13D60601E182238FC7FEA38F1E
:1030C000D7FE9386C18AD44205071377F70F958FF1
:1030D00093F7F70F2397F18A91476301F704A384CD
:1030E000E18A9385C18A03D50189EFF07F9511C5E7
:1030F000ED451385C18AEF4050601306007D894578
:1031000003C5518BEF00100813452400D9BD2302DD
:10311000050093076500A302050049B7A384018A4F
:10312000C9B793F7450085CB83C7518B1307803E02
:1031300081461306000AD14503D50189EF9031522B
:103140001966130606DCA14503C5518BEF009003F9
:103150001345440079B593F785000145E38307E8FB
:1031600003D50189EFA0C131134584009DBD011134
:1031700017050000130525E506CE22CC26CA4AC84D
:103180009384518BEF00303D05442380A4007000F0
:1031900085451305503023068100EFA0E10217F6A4
:1031A000FF1F1306A609B14513057030EFA0C1013A
:1031B000138681819D4513056030EFA0E10017F66D
:1031C000FF1F13066605D5450145EF4040768D4744
:1031D00009497000914513057040A304F100A30351
:1031E00021012305810002C623040100A30501007B
:1031F000EF80113613067100854513050040EF80FE
:1032000031353000854513051040EF8071341306C9
:103210009100854513052040EF8091331306A100EE
:10322000854513055040EF80B1321306B100854546
:1032300013054041EF80D1317D55EF40E07C7D5555
:10324000EF60D0357D55EFF0EFF1EFF04FBF170590
:103250000000130525B6EFF02FF6FD472316F10009
:1032600091472305F1003000A14785451D45A30581
:10327000F100A303810023048100A3042101EFF0E6
:103280000FF41306910085451D45EFF04FF313062B
:10329000A10085451D45EFF08FF21306B10085456D
:1032A0001D45EFF0CFF11306710085451145EFF094
:1032B0000FF1700089450D45EFF06FF003C5040074
:1032C00085457923F2406244D244424905618280B7
:1032D00041111305800406C697D0FF1FE780E0DE8A
:1032E000371700408327870A8D451305002093E791
:1032F00007202324F70AEFF06F83EFF0CF9717052D
:10330000020013052598EFE04156EFF01F91EFF012
:10331000BFA2EFA02119A13D97D0FF1FE7808063D6
:10332000E5BF23AC05FE1C4191E7010001000CC183
:103330008280BA8703A787FF6DFF23ACB7FE828028
:103340001DC18346E5FF1307F00F9147639EE6001A
:10335000411106C697F0FF1FE780E0BDB2408147EC
:103360003E854101828095473E85828001E9014585
:1033700082800145B240224441018280956541111D
:10338000938505D022C4C98D2A842105C205420532
:10339000C181418106C697F0FF1FE780A0AC71D9BB
:1033A000FD5723200500231285002303F500210586
:1033B000D1B7171700201307E7A51C43411122C4FA
:1033C00026C24AC006C601440149BA8491E7A165F4
:1033D000EF00E07C1DC401A803C7E7FF631AA70242
:1033E0000DCCA165B5219840832784FF6319E402C1
:1033F000171700202320F7A2FD57232C04FE230FCC
:10340000F4FE2285B2402244924402494101828066
:1034100011E03E8983A787FF55BF3E84E5BF232C7B
:10342000F9FED9BFB1CD411122C406C62A8497172F
:10343000002083C7779E2E856375F400894763E873
:103440008700FD3D0D45B24022444101828083A7A3
:1034500085FF99E703C7E5FF9307F00F6305F700C2
:10346000C5351545CDB7238F85FE171500201305EB
:10347000659A453D22852244B240A1654101C9AE0D
:10348000154582809717002023A6079882809717FA
:1034900000209387A79C9C4399E33E85828003D7B5
:1034A00027006316B70003C70700E308A7FEDC4741
:1034B000E5B7C9C1797122D406D626D24AD04ECEFC
:1034C00001444147B3D78540858BA5C312053147D9
:1034D00022953305E502971700209387279C03A9BF
:1034E00007008544B3948400C204C180BE892A9930
:1034F0000327090011C7032549002EC60297B245CC
:1035000031473304E40283A709003E941C4489E751
:103510002320090023220900B2502254A58D02590C
:103520009254F2492E85456182800504E31CE4F83B
:103530008144DDB72E85828041111397050122C495
:1035400006C626C24AC041872E84635E07009535B1
:1035500011C1FD33A1673D8C2285B24022449244C3
:10356000024941018280EDD9AA8701474146B356FD
:10357000E440858A8DCE9207BA97B146B387D702C9
:10358000971600209386869103A906008544B3947C
:10359000E400C204C1803E99832709000325490045
:1035A00082972320090023220900258C75B705077F
:1035B000E31FC7FA8144D5BF971700209387478A36
:1035C0009C53411122C406C61384018295C7829779
:1035D00023A0A1820840B74703009387D73F330554
:1035E000F502B7A72600938737ECB24022443E95F8
:1035F00023A0A18241018280971700209387878AA8
:103600009C43E9DB82971C403E95D9B701116800C5
:1036100006CE22CC26CAEFC0F074FD576300F50E2B
:10362000B246171700201307A7839717002083C7F8
:103630007784BA8463F7D70A170400201304C47D83
:10364000544463CE0602971700209387A7859C43B6
:10365000829732475C446373F700BA8717170020DC
:1036600003475781998F3E958387640163CE070096
:10367000B707C0A8636AF500B7074057B5A80307A6
:103680006701635507061D8D17140020130484A9D4
:103690001C4C81CF971700209387C7AE9443370700
:1036A000CDFF7D179C46F98F9CC619E13705C0A850
:1036B000970700209387C77ADC53829719E51C4C43
:1036C0008DC3EF40816DEF30315E1C4C99CB971765
:1036D0000020938727AB9843B70633001C47D58F4C
:1036E0001CC7F2406244D24405618280E37DF5F854
:1036F0003707C0A8B307F7403E9579B717040020F5
:10370000130484715C44E3CE07FC97070020938781
:1037100067799C4382975C4417070020034797759D
:10372000998F3E959707002093878773838767015A
:1037300035BF630D0510970700209387A7769C433C
:10374000797122D44AD04ECE52CC56CA5AC806D627
:1037500026D25EC662C466C23A8AB6893284AE8A0E
:103760002A898297970700209387876F03876701CD
:103770003E8B635107063305A4406347050C97074A
:1037800000209387A7719843BE8B8144B146C147FF
:10379000338CD40293FCF40F33068701104245E2C8
:1037A000C165938505F0414597E0FF1FE780806B79
:1037B00015ED83270B039DE70145B2502254925427
:1037C0000259F249624AD24A424BB24B224C924CC5
:1037D00045618280E371A4FAB707C0A8A297338538
:1037E000A74061BF814511458297F9B7970700202F
:1037F0009387C766984321E39707002023A0A76615
:103800002300050083A70B000547B3149700232668
:10381000050000C52311950023224501E29723A04E
:10382000270123A2570123A44701E38709F8238036
:10383000990159B73E875C47F5FF48C7D1B7850462
:10384000E398F4F4214595BF094585BF0945828079
:103850009707002083C7575C6371F50217070020A4
:103860001307875F9317150008433E95835705009C
:10387000DD8D2310B500014582800D4582809707BC
:10388000002083C777596373F502170700201307D9
:10389000A75C93171500084393C5F5FF3E95835722
:1038A0000500FD8D2310B500014582800D45828005
:1038B0009307F00263E5A70C31473307E50297074A
:1038C00000209387A75D9C43BA97984389474DCBC7
:1038D000011126CA4EC68544935945003D8933954A
:1038E000A40093140501C18022CC4E852E84A685A8
:1038F0004AC806CE693E2A89814739C9A6854E85C0
:10390000BD3F970700209387E7599C43829797070D
:10391000002083C747569399870193D98941AA8488
:1039200063D00904930510273305B4023334B4027D
:1039300015816E04418D269563C90900B707C0A89B
:103940006365F500B70740573E952324A9008147DA
:10395000F2406244D2444249B2493E8505618280C8
:10396000858B89C751453305A402F1B76546814669
:103970001315940093557401EFD0B1186DBF8947AA
:103980003E8582809707002083C717496364F5004E
:1039900001458280970700209387C7509C43EDDB49
:1039A000011122CC26CA4AC84EC652C406CE328461
:1039B000AE89AA8482979707002083C7C74B139AC2
:1039C0008701135A8A412A89635D0A0293051027E9
:1039D0003305B4023334B40215816E04418D2A9943
:1039E00063490A00B707C0A86365F900B7074057E5
:1039F0003E99CE852685613C05C5232425010545D4
:103A0000A1A0858B89C751453305A402C9BF65466E
:103A100081461315940093557401EFD0910EC1B7F0
:103A200093E504F0C205C181414597E0FF1FE7809F
:103A300060431DE197070020938787429C5B81C705
:103A4000A685114582970145F2406244D24442491D
:103A5000B249224A05618280970700209387074078
:103A60009C4385E79707002023AAA73E8547232686
:103A70000500232425012311350123009500A3000F
:103A8000F50023220500A5BFBA87D84775FFC8C730
:103A9000F1BF51C9797122D426D24AD04ECE52CC30
:103AA00056CA5AC85EC662C406D6B689B28A2E8A7B
:103AB0002A899304000C4144170B0020130B0B3E82
:103AC000054C930B000383270B00A6979C43A1E7AB
:103AD0009375F400B315BC00C2055686C181135519
:103AE00044004D350DC983270B000145BE9423A02A
:103AF000240123A244016384090023808900B25079
:103B0000225492540259F249624AD24A424BB24B71
:103B1000224C4561828005041374F40FB104E31450
:103B200074FB2145E9BF09458280411122C426C2A8
:103B30004AC006C6AA842E893284A935CA8526853C
:103B4000EFF0FF9439C99707002083C7C732139756
:103B500087016187AA8463530702930710273305FF
:103B6000F4023334F40215816E04418DC8C001455E
:103B7000B24022449244024941018280858B89C728
:103B800051453305A402DDB76546814613159400FF
:103B900093557401EFD0E176D1BF2145D1BF4111DA
:103BA00022C426C24AC006C6AA842E89EFF03F8EE0
:103BB0002A8419C123110500CA852685C93101450A
:103BC00011E01945B24022449244024941018280E9
:103BD0009307F00263E8A7044111B14722C43304FC
:103BE000F50226C2970400209384442B9C4006C60D
:103BF000A297984389470DC39377F5008545B39500
:103C0000F500C205C1811181593F9C40A29723A0B4
:103C1000070023A207008147B240224492443E8518
:103C20004101828089473E858280411106C69707FF
:103C3000002023A7A7260295B2409707002023A7BC
:103C4000A71E014541018280994763E9B7008A05B3
:103C5000970700209387871EBE9588C182804111F7
:103C600006C622C426C2EF90B10D714681451705E4
:103C700000201305A51C97D0FF1FE780A0AC1306FA
:103C800000028145170500201305051997D0FF1F75
:103C9000E78040AB9707002023A2071C970700206E
:103CA00023A007209707002083C7F71C13D5270000
:103CB0008D8B3E958D473305F502170400201304C4
:103CC000A415994793051010970400209384C416F7
:103CD00039051375F50F2301A4003305F50213050B
:103CE000052497E0FF1FE780E0179707002023A730
:103CF000A71A834724001305052488C08A073E9528
:103D00009707002023AAA714EFF0CFF783471400EA
:103D1000944017F6FFFF1306067A1397270036978D
:103D200010C3138717001377F70F0A073697170684
:103D300000001306A68010C313873700890793F786
:103D4000F70FA300E400B24022448A07B69790C35D
:103D50009244410182809707002083C7F70B170721
:103D600000200347870B63F3E702170700201307C0
:103D7000A70C18439386170017060020A30ED60839
:103D800093962700369708C33E8582809307F00FED
:103D9000E5BF1C41638B071441777D8FB706002078
:103DA00089476315D7140357450063010714411170
:103DB00022C419462A849305F00F690506C697D0D8
:103DC000FF1FE78040A205478D47630BE5101306F0
:103DD000C0038145170500201305850897D0FF1FF4
:103DE000E78040961306C003A2851705002013053F
:103DF000250797D0FF1FE780609117070020035722
:103E0000E706970700209387A70519E71307002007
:103E100097060020239CE604170700200347270588
:103E200011E70547970600202383E60417070020C3
:103E30000357070411E76D4797060020239AE6020F
:103E4000170700200347B70211E715479706002020
:103E5000A38FE600170700200347A70111E70547D6
:103E6000970600202387E600170700200347770006
:103E700019E703C7F70097060020A38CE6FE170793
:103E80000020034727FF11E73547970600202383CB
:103E9000E6FE17070020034737FE19E713078002E5
:103EA00097060020A38AE6FC17070020034797FC2B
:103EB00019E71307D00297060020A38DE6FA0347FF
:103EC000840111E70947970600202387E6FA9C57EB
:103ED00091C78297970700202393A7F4493381471E
:103EE000B24022443E854101828089473E858280DE
:103EF00097070020938707FB9C43411106C68297D2
:103F00009706002083C626F7858AB1C6930730330B
:103F10003307F502B337F5023983CA07D98F17077C
:103F20000020130767EF584B01456303F702338501
:103F3000E740636BF70037653D0889C637856F0832
:103F400013050590198D3E95170700202320F7EEE5
:103F5000B24041018280E5473307F502B337F502ED
:103F60002583DE0765BF011122CC06CE2A842EC62A
:103F7000EFF08FE4B245F240818D33A5A502229582
:103F800062441375F50F05618280011122CC06CEC3
:103F90002A842EC6EFF04FE2B245F240818D33A560
:103FA000A50222956244420541810561828001118A
:103FB00022CC06CE2A842EC6EFF00FE0B245F240A6
:103FC000818D33B5A50222956244056182809707F1
:103FD00000209387E7E8985739CB411122C426C2C5
:103FE00006C6BE84029717070020035747E32A84BA
:103FF00015CBBA876373A700AA87C207C183BA86A5
:104000006373E400A286C206C182958F5147635B49
:10401000F700DC5491C38297EF30F14497070020FA
:10402000239F87DEB24022449244410182808280F5
:10403000970700209387C7E2D857011122CC06CEFC
:104040003E8401C72AC60297324519CD9707002042
:1040500023AAA7E4170500001305C5E9F936F240C5
:1040600062440145056182808307640163D40702CD
:104070009707002023AE07DAB7C700407D5723A477
:10408000E72697D7FF1F9387A7AB17070020232B9F
:10409000F7E0C9B797D7FF1F9387A7ADFDB7011109
:1040A00006CE2EC6EF70D06901C9B245F240035565
:1040B000250005616FB0A049F24049450561828045
:1040C000A382018E2382018E23A6018C23A8018C5A
:1040D00023AA018C23AC018C23A4018C23A2018C84
:1040E00097070020938747DE3D462391C7027176EC
:1040F0001307400B130606B82391E7002392C7026B
:1041000011671D46930600059305000A1305007DFF
:104110002392E7002393C70241470546130810F88E
:104120002395E7002396E7002399E700239AE70009
:10413000239BE700239CE7002394E70223960703D1
:10414000239007002393B7002394B7002397D70049
:104150002398D700239DA700239E0700239F0700D5
:10416000239007022395C702239707021308F0073D
:10417000239807022392E7042393E704239FE7048D
:104180002390E7062391E7062392E7062399070386
:10419000239AC702239BC702239C0702239D070281
:1041A000239E0702239F0702239007042391C7043D
:1041B00023940704239507042396C7042397D70461
:1041C0002398D7042399A704239A0704239B070461
:1041D000239C0704239DD704239ED7042393A7067B
:1041E0002394070623950706239607062397B70609
:1041F0002398B7067D5723990706239AE7068280FE
:10420000011126CAAA84214522CC06CE2E8432C6AC
:1042100036C43AC2EFF08F951DC9A2461247324606
:10422000930700FD2300F5009947A30095002301A3
:10423000F5002303D500A303E5002312C500AA85DA
:1042400022856244F240D24405616FF0AF9DF24096
:104250006244D2440561828023A6A18C828023A877
:10426000A18C828023AAA18C828023ACA18C828025
:10427000011122CC4AC806CE26CA2A890144B304B9
:1042800089006368B400F2406244D2444249056147
:1042900082802EC6EFF04FB293170501C183A18330
:1042A000B2452380F4009307140093F7F70F8504B9
:1042B00063F9B700CA9709042380A7001374F40FA9
:1042C0007DBF3E847DBFC16717050020035525BE15
:1042D000FD176304F502411117060020034606D0BE
:1042E0009385C18D06C6EF70302EB240FD5717077B
:1042F0000020231EF7BA41018280828009C925155A
:104300001375F50F1335850E134515008280014591
:104310008280797122D452CC06D626D24AD04ECE93
:104320002A8A2390050001442EC66374C406B3870D
:10433000860083C7070093041400C2041399070181
:1043400013590901C18063060904A69732C4634268
:10435000F604B387960083C9070036C24E85793FBD
:104360000DC9B2459307F9FF92462390F500224606
:10437000639D4901138514003695B250225492541E
:104380000259F249624A456182804A94420441805E
:1043900061BF0145DDB7411126C2AE8422C4970733
:1043A000002023ADC7B09707002023A7B7B0970719
:1043B000002023A1A7B02A8441469305F00F26854B
:1043C0004AC006C6054997C0FF1FE780C041631079
:1043D000250597070020938727AD884BC145493DA8
:1043E00041469305F00F228597C0FF1FE780A03F4D
:1043F0008544631895022244970700209387C7AA33
:10440000B24092440249C847C145410195B5414671
:104410008145268597C0FF1FE780E03CE31225FD1C
:104420004DBF41468145228597C0FF1FE780A03BD5
:10443000E30395FCB2402244924402494101828048
:10444000411122C426C22E84AA841306000281458B
:1044500017050020130545A506C697C0FF1FE78076
:10446000602E97070020A38297A497070020238936
:1044700087B6EFB0400F854719C181474945B24023
:104480002244170700202301F7A2924441018280B1
:10449000814781CD19C98547631BF50083C7550046
:1044A00093E707FCA382F50085473E858280894714
:1044B0006317F50083C7550093F7F703E5B70D477A
:1044C0008547E314E5FE03C755001377F703136729
:1044D0000704A382E500D1BF81478DC105C103C791
:1044E00055009306000C85471377070C6308D70027
:1044F000930600048D476303D70089473E85828079
:10450000411122C4005D06C626C21DC8AA840850F7
:1045100009C597E0FF1FE78000A2485009C597E052
:10452000FF1FE78040A1085409C597E0FF1FE780FF
:1045300080A0228597E0FF1FE780E09F23AC040264
:10454000B240224492444101828009ED9707002045
:1045500083C7A795170500201305859681CB138582
:10456000C18B828017050020130585958280170571
:104570000020034585938280970700209387C79288
:10458000C84782809707002093870792884B8280D4
:104590009707002093874791DC4B884382809707D9
:1045A000002093876790D84B1C4385071CC31705D1
:1045B00000200345958F9307F00F6305F500916583
:1045C0006FF00FA98280011122CC06CE2E8432C654
:1045D000EF70D0279147B245631FF5009387818D17
:1045E0009C438DC303A30700630E0300228562442E
:1045F000F240056102839387018D9C4381C703A329
:104600004700DDB7F2406244054505618280011133
:1046100022CC2A840355450006CE26CA4AC84EC677
:10462000EF70100935C52A89834405008349C50008
:10463000C13D4A85EF80100103554400EF70501CC6
:1046400083C7418EB1CB6399970483C5518E26856C
:10465000EFF0FFA419E12382018E03554400EF70AF
:10466000F01E9147631FF500035744009707002091
:1046700083D7E7836317F700FD5717070020231838
:10468000F782F2406244D2444249B24905618280D5
:1046900081499304F00F6DB79307F00FE38FF4FA9D
:1046A0008346640003564400034524004E87A685D4
:1046B000813E65B779715EC6AA8B2E8552CC56CAEB
:1046C0005AC806D622D426D24AD04ECEAE8A328BD3
:1046D000368AEF70E07D7DC1045D2A89E5C09C507B
:1046E000614599C3130540039C5481C75105420598
:1046F000418163050A00710542054181DC5081C793
:10470000590542054181EFE07FC62A8445C96146CB
:10471000814597C0FF1FE780E00297F9FF1F83C91B
:10472000A97D6394090083490900930700FD2300D4
:10473000F400A947A30074012301F40023036401DA
:104740008C50231254011305840191C908C4714689
:10475000930A440397C0FF1FE78040FB56858C54A3
:1047600091C948C45146930A450197C0FF1FE7808D
:10477000E0F95685630C0A0008C87146D285930A91
:10478000C50197C0FF1FE78060F85685CC5099C5DA
:1047900048C8594697C0FF1FE78040F7A2854E855D
:1047A000EFE05FC82254B2509254F249624AD24AB2
:1047B000424BB24B4A850259456199B3B2502254DB
:1047C00092540259F249624AD24A424BB24B456175
:1047D000828001114EC6AA892E854AC806CE22CCF7
:1047E00026CA2E89EF70C06C21C997F4FF1F83C4BD
:1047F000A47099E0834405001945EFE03FB72A848F
:1048000005CD8145194697C0FF1FE780A0F39307A8
:1048100000FD2300F400B947A30034012301F40094
:1048200023122401A2856244F2404249B2492685FE
:10483000D24405616FE01FBFF2406244D244424956
:10484000B2490561828039715ECEAA8B2E8526DA47
:104850004ED652D456D25AD006DE22DC4AD8AE8486
:10486000328BB68A3A8ABE8942C6EF70606421CD27
:104870002A894145EFE09FAF2A8431C541468145F1
:1048800097C0FF1FE78000EC17F5FF1F0345C566C3
:1048900019E103450900930700FD2300F400BD471B
:1048A0002301F400B247A3007401231294002304EF
:1048B0006401A304540123054401A30534015CC42D
:1048C000A285EFE03FB6F2506254D2544259B25939
:1048D000225A925A025BF24B21618280797126D270
:1048E000AA8439454AD04ECE06D622D42EC6B289E5
:1048F0003689EFE0BFA721C1B2459307000D231011
:10490000F500B1472A842312B5002301F500CE85B6
:104910001905194697C0FF1FE78040DF23062401D1
:10492000A2852254B2500259F24913F5F40F925461
:1049300045616FE03FAFB250225492540259F249A0
:104940004561828017F7FF1F034737569307F00F23
:10495000630DF706411126C2AA84394522C406C652
:104960004AC0EFE0BFA02A8439C9930700FD2300A5
:10497000F500A30095002301050097F5FF1F93851F
:1049800025540D05194697C0FF1FE78020D817F959
:10499000FF1F1309695183578900A28517F5FF1F6F
:1049A0000345B5502315F400834719002306F4008E
:1049B0002244B2409244024941016FE0BFA6B24096
:1049C00022449244024941018280828001115AC0EE
:1049D0002A8B31454AC84EC652C456C206CE22CC96
:1049E00026CA2E89B28A368ABA89EFE03F9859C121
:1049F0002A844A85EF70C04B2DC90347C500A147E3
:104A00006314F70497F4FF1F83C4A45D930700FDAC
:104A10002300F4009D47A30064012301F400231246
:104A20002401231354012314440123153401A285C6
:104A30006244F2404249B249224A924A024B2685D8
:104A4000D24405616FE01F9E97F4FF1F83C4545941
:104A5000E31E0BFA938741989C439C47C5DBCE86A7
:104A60005286D6854A85829755B797F4FF1F83C42F
:104A7000D44369BFF2406244D2444249B249224A17
:104A8000924A024B05618280011122CC2A84214581
:104A900006CE2EC6EFE09F8D21C1B245930700FDE3
:104AA0002300F500C5472301F50083C73500A301A6
:104AB000F50083D745002312F50083C76500230363
:104AC000F50083C77500AA85A303F500228562441B
:104AD000F24005616FE01F95F240624405618280FB
:104AE000397162CC2A8C594526DA4AD84ED652D42E
:104AF00056D25AD05ECE06DE22DCAE8432C636C432
:104B0000BA8B3E8BC28A468A835901040349410409
:104B1000EFE0DF8525C93246930700FDA24623005A
:104B2000F5009547A301C500A30085012301F50009
:104B30002A8419461105A9C2B68597C0FF1FE780D0
:104B4000E0BC23066401230A240123157401231702
:104B500054012318440123193401A2856254F250F0
:104B60004259B259225A925A025BF24B624C268544
:104B7000D25421616FE01F8B814597C0FF1FE780F2
:104B800060BCC1B7F2506254D2544259B259225A51
:104B9000925A025BF24B624C2161828097F7FF1FB1
:104BA00083C7A7308DCB4111AA8519461385C18BC8
:104BB00006C697C0FF1FE78060B59385C18B17F5C8
:104BC000FF1F0345852EEFF0BF8CB2401385C18BCC
:104BD00041016FA0D01901458280411106C622C44F
:104BE00026C217F7FF1F0347572C9307F00F6308E0
:104BF000F704AA842945EFE06FF72A8429C19307B7
:104C000000FD2300F500A1472301F500A300950056
:104C100097F7FF1F9387472983C727009385C18B89
:104C20001105A30FF5FE194697C0FF1FE78000AEE0
:104C3000A28517F5FF1F03455527EFE0AFFE17F7D5
:104C4000FF1F0347A72685476317F7029387418D08
:104C50009C4381C79C4791C382972244B2409244AF
:104C60005D6617F5FF1F034565371306067091450E
:104C700041016FE09FEBB2402244924441018280A7
:104C8000797122D406D626D24AD04ECE52CC0944CF
:104C900055CD2A89035505002E8A5144EF704021D5
:104CA000AA844DC597F7FF1F83C78733FD1793F776
:104CB000F70F05474944637BF7080347C500A14741
:104CC0006314F70063140A089C5C4544C1E39165D2
:104CD000938545711305C00297D0FF1FE7808018A8
:104CE00088DCAA894D443DC11306C002814597C0A6
:104CF000FF1FE78020A5835709009386490036856A
:104D00002391F90071469305490036C697C0FF1FED
:104D1000E780C09F89472380F90003C5C400B246DD
:104D200003560900611597F5FF1F83C5252B133521
:104D30001500EF9030362A8463060A00D285268556
:104D4000EF80A03B01C42685EFF08FFB2285B25097
:104D5000225492540259F249624A4561828097F77F
:104D6000FF1F83C7E727FD1793F7F70F0547637A00
:104D7000F708894741CA011122CC26CA4AC84EC643
:104D800052C406CEAA89368AB2842E89EF704012A8
:104D90002A84D14739C9485509C597D0FF1FE780F4
:104DA0008019F145268597C0FF1FE780009C48D4F5
:104DB000CD4705CD8346C40021478147639FE60068
:104DC000630D0A000347A50103560501930625015B
:104DD000AA854E85EF70D027AA8703474400630F4A
:104DE0000900136767002302E400F2406244D244E2
:104DF0004249B249224A3E850561828013674700D5
:104E0000DDB7C9473E8582809307900363EBA70017
:104E100097F7FF1F9387470B06053E95035505003F
:104E2000828041657D158280011122CC2A842E85E5
:104E300026CA06CEAE84EF70A0071DCDB7470F007F
:104E40009387F723094563E4870281450A85414634
:104E500097C0FF1FE780008FA685231081000A8579
:104E6000418023018100A3010100EF901004F24072
:104E70006244D244056182804945D5BF97F7FF1F40
:104E8000238FA71482806F903019797152CC2A8AAF
:104E9000328522D426D24AD04ECE56CA5AC85EC6D1
:104EA00006D662C4AE8BB28A368BBA843E89C2897A
:104EB0004684EF60F07F15C92A8C63140A021377C9
:104EC0004B008347450015CF93E727012302FC00E1
:104ED0008DEC631C0902639A090205E8ED9B23022D
:104EE000FC00832B8C0363910B08B2502254925424
:104EF0000259F249624AD24A424BB24B224C4561B6
:104F00008280F59B93E70701D1B793E7470023021F
:104F1000FC0001CC1C484146A2852324FC02130559
:104F20008C0197B0FF1FE780607E63930B02D5D89A
:104F30000325CC0209C597D0FF1FE780C0FFF145CC
:104F4000268597C0FF1FE78040822326AC0251BF11
:104F5000E30909F80325CC0209C597D0FF1FE780B4
:104F600080FDF1454A85F1BF9DC483A70B0299EBF3
:104F7000916593853571714597D0FF1FE78080EE6D
:104F800023A0AB0203A50B0219C57146A68597B0F5
:104F9000FF1FE780A0776388090283A74B0299EB84
:104FA000916593852571594597D0FF1FE78080EB68
:104FB00023A2AB0203A54B0219C55946CE8597B073
:104FC000FF1FE780A0741DC483A78B0299EB916536
:104FD00093851571514597D0FF1FE780A0E823A462
:104FE000AB0203A58B0219C55146A28597B0FF1FDE
:104FF000E780C0712254B2509254F249B24B224C15
:10500000CA865A860259424BD6855285D24A624A8E
:1050100045616FF02FEA011126CA52C406CE22CC98
:105020004AC84EC62A8AAE84EF60906825C5AA8910
:105030003945EFE0AFB32A8431CD17F9FF1F03499B
:10504000A9EB6314090003C909009307000D23109D
:10505000F400AD472301F400938569001305340083
:10506000194697B0FF1FE780606A93F714008580A8
:1050700085882306F400A306940023154401A28525
:105080006244F240D244B249224A4A85424905610B
:105090006FE04FB9F2406244D2444249B249224AD9
:1050A000056182809387418C884301CD411106C6FA
:1050B00097D0FF1FE78020E8B24023A2018C410176
:1050C00082808280011106CE22CC26CA4AC82EC612
:1050D000EF60105E39CDB24517F9FF1F0349C9E1F2
:1050E000AA840CD563140900034905004145EFE08B
:1050F000EFA72A841DCD9307000D2310F500A547C7
:105100002301F50083C75400938564001105A30FA4
:10511000F5FE194697B0FF1FE780405F9C54A285BB
:10512000F2405CC46244D2444A85424905616FE062
:105130006FAFF2406244D244424905618280797186
:1051400022D406D62A842EC6EF6090560DCD834613
:10515000C5001147AA8749456393E6029C5FB245A3
:1051600099C383C567010808EF8020029796000065
:105170009386668E100889452285EF706072B25062
:105180002254456182805145DDBF97F7FF1F83C7D9
:1051900027E5FD1793F7F70F0547637AF70489476B
:1051A00021CA411122C426C24AC006C6B2842E8931
:1051B000EF6010502A84D14705C563080900834772
:1051C000450093E727002302F5004146A685130515
:1051D000840197B0FF1FE78060539C481CD481472F
:1051E000B2402244924402493E8541018280C9472F
:1051F0003E858280797122D406D62A842EC6EF603D
:10520000304B01CDB2452285230EB1006C08EF7002
:10521000506BB2502254456182805145DDBF6F60B2
:10522000B057C1671387E7FF6394E5029387018D49
:105230009C4391EB494582804945B24022449244C7
:1052400002494101828003A30700E30503FE0283B4
:10525000411122C426C24AC006C6FD172A892E84DF
:10526000B2846395F5029387018D9C4391CB9C4357
:1052700081CB829711E52382218FA382918E75BF06
:10528000A6854A85EFE0BFE14DF9F5B72E85EF60C1
:1052900030425DD1834705000D45E39027FB228511
:1052A0002244B2400249A685924441016FA0202ABF
:1052B0009307900363E8A70441677D1789476384D8
:1052C000E504411122C426C206C6C547AE842A841D
:1052D000631AF5001305C0033385A5024205418119
:1052E000EFA0602D1315140017F4FF1F1304C4BDA5
:1052F0002295B240224423109500814792443E8576
:105300004101828089473E858280011106CE2AC6EE
:10531000EFE01FDBEF10B052EF102030EF70915034
:10532000324597F7FF1F938727B8130700F02391A3
:10533000E700238207007D5797F7FF1F938707CA6F
:105340002381E7002380A700F240954505616F5057
:1053500060501D7193970501CAC886CEA2CCA6CA1B
:10536000CEC6D2C4D6C2DAC05EDE62DC66DA6AD8E5
:105370006ED6C1872E8963DD075817F5FF1F0345D9
:10538000E5C5EFE00F838964416A856A797B2A84E9
:10539000938BD4007D1AA50A130CABFF1DE0216589
:1053A0003345A900F6406644D6444649B649264AE4
:1053B000964A064BF25B625CD25C425DB25D25614F
:1053C0008280834704001307200A639DE70003558A
:1053D000240097F9FF1F83C959AD2286D285EFF0CB
:1053E0008F9E59A21307100997F9FF1F83C929BF80
:1053F0006398E7188347140015476390E7022285F6
:10540000EFF0EFA02285EFD0BFF317F5FF1F0345A4
:10541000E5BCEFD01FFA2A8451B73947639BE718E0
:1054200003554400631B55050C4483CC0500639D64
:105430000C00850591C9194617F5FF1F130545A8EE
:1054400097B0FF1FE780802C17F7FF1F0347C7A502
:1054500085476317F712638A0C0097F7FF1F2385B0
:1054600007A46685EFF00FCE71BF894717F7FF1FBE
:10547000230CF7A2EFA0600F71B793872400631A83
:10548000F506832C8400638D0C0E83C70C008DE31E
:1054900083C72C0003C71C00A207D98F17F7FF1F73
:1054A0002318F7A083C73C0017F7FF1FA30EF79E32
:1054B00017F7FF1F0347479F89476313F70C83C7FD
:1054C0000C0081CB97F7FF1F2380079E03C50C00BC
:1054D00051BF8D4797F5FF1F83C5159D17F5FF1F1A
:1054E0000355059D17F7FF1F2300F79CEF508039E8
:1054F000F1BF938754006318F5001C4403C50700EF
:10550000EFF0AFED01B7B3078501C207C1831147C3
:105510006372F7049307ABFCAA97139707014183C3
:10552000F14763F1E7029387B4006312F5049387B0
:10553000C18C9C43E38807EC9C43A285E38407EC81
:1055400082971DA0B70700189387F770B3D7E700BD
:10555000858BB9CB9387418D9C43E38507EA9C43B8
:10556000E38207EA22858297E31E05E811A8938764
:10557000C4006310F5021C4483C70700E38407E8F6
:105580009307F00FE380F9E8A2854E85EFD09FE9FD
:10559000ADBD9387E4006319F5009387018D9C43AB
:1055A000E38207E6DC4351BF93871404E301F5F877
:1055B000C1BF3D476397E70403554400E30F75FD02
:1055C00093879401E30BF5FC93873401E31AF5FA12
:1055D00097F7FF1F83D7A78D639E47019387018DA0
:1055E0009C43E38107E2DC43E38E07E0A285138559
:1055F0003401B9B79387818D9C43E38507E09C43D1
:10560000E5B71307E003E39DE7F68347240005476A
:105610006397E70E83476400938D418CF1E383A782
:105620000D00D5CB83CC0700A14903457400130DB1
:105630008400EA85EFE05FEA83474401A303A40006
:10564000835804010358E400035744002A860345A5
:1056500034003EC283572401EA86E6853EC0CE87E9
:10566000EFF00FC88347340095E7DD478358040106
:105670000358E40083467400835544003EC28357B8
:1056800024013EC06A87CE8705466685EF601033E9
:10569000A301A40083A70D0081C71145EFF09FA0CF
:1056A00003C5418EE30005D683C5518EEFE03F9FD1
:1056B000E30A05D48346340093071003638AF60097
:1056C000035644004E8783C5418E3685EFE05FB3B5
:1056D0002382018E05BB97ECFF1F83CC1C7DA9B7ED
:1056E0009387418D9C4397ECFF1F83CC1C7C914991
:1056F0008DDFDC439DDB8145014582973DB729471E
:10570000639EE70883476400938D418CADEB83A7CC
:105710000D00ADC383CC0700A14903457400130DF0
:105720004401EA85EFE05FDB83470402A303A400A2
:105730008358C4010358A401035744002A86034533
:1057400034003EC28357E401EA86E6853EC0CE8738
:10575000EFF00FB98347340095FFDD478358C4014C
:105760000358A40183467400835544003EC2835706
:10577000E40101BF97ECFF1F83CC3C7371BF93879B
:10578000418D9C4397ECFF1F83CC3C729149D1D74C
:10579000DC43C1D781450145829741B70947639DE5
:1057A000E7009387C18C9C43E38E07C4DC43E38B03
:1057B00007C422858297B9B12D476399E700938783
:1057C000C18C9C43E38007C49C47D5B70D476397C2
:1057D000E70022868D450355440011B119476395B2
:1057E000E7069305610113051031EF70510B2C088A
:1057F00013052031EF70B10A03566400835781010D
:105800000355440063E8C7008356840003576101D1
:1058100063F7E60093050002EF90F058E5B6637475
:10582000E6002313E40063F4D7002314F4000357C5
:10583000C4008356A40003568400835564000148C5
:105840008147EF9010567DBE1D476392E7020357D4
:105850004400E3E7E7D297E7FF1F9387A7730607A4
:105860003E9783576400F1172310F70011BB3147AF
:105870006395E7002286B145B9BF35476399E700D4
:105880009387C18C9C43E38F07B6DC470DB739473C
:105890006395E70022857D23B5B63D476399E70010
:1058A0009387C18C9C43E38F07B49C4B09B7414756
:1058B0006395E70022853525B1B645476397E70034
:1058C00013053003EF00A07135BE4947639EE70022
:1058D0009387418D9C43E38507CADC43E38207CA73
:1058E00081450545829769B94D47639DE7009387D8
:1058F000418D9C43E38607C8DC43E38307C8A28548
:105900000945CDB76147E39DE7C62286E145E1B58C
:1059100093F7150081CF9387C18C9C4389C7DC43E3
:1059200099C30145829713451900ADBC93F7250033
:1059300089CF9387418D9C4391C7DC4381C78145C3
:105940000545829713452900B1BC93F745000145F1
:10595000E38A07A497E7FF1F83C75755BDC7FD1705
:1059600093F7F70F17E7FF1FA302F754B9EF9387D9
:10597000818C9C4399CF854717E7FF1F2308F75277
:105980009387418D9C4391C7DC4381C78145054581
:10599000829797E7FF1F93872751C8472C08EF800E
:1059A000B0382808EFF08F9F97E7FF1F9387C75104
:1059B00083D72702914517E5FF1F0345256217E7A7
:1059C000FF1FA305F74EEFE08F9D13454900D9BA9D
:1059D000011122CC2A84554506CE26CAEFF0CFC24B
:1059E000AA8413054002EFF02FC22AC61305500205
:1059F000EFF08FC1AA86228562443246F240B33569
:105A00009000D24405616F90F03F797122D406D6A0
:105A10008D472E84631FF50003D7A50083D685002C
:105A200003D665000345340083D54500EFE01FFA37
:105A300009A889671387D7006310E50403C525000B
:105A400019E58547B25022543E854561828093878F
:105A5000418C9443FDD603C6360083C506008148B9
:105A600002C202C00148814701479106EFF04F870B
:105A70000545EFF02FE3F1B71387E700E303E5FCFB
:105A800013873701631AE50003C525005DD9014777
:105A900081460146814559BFE507E304F5FAB14760
:105AA0006319F50017E5FF1F0345A553EFE0DFFD80
:105AB00049BF41677D178147E316E5F803C75500E5
:105AC000C947E310F7F883D6E50003D6C5000355B0
:105AD000840083D5A500EF90703321C15D45EFF0C0
