:040000006F00806F9E
:100004000000000000000000900000205C020020BE
:10001400A9BDF9F5940000200000000000000000D4
:10002400960000209800002000000000000000005E
:100034009A000020000000009C0000200000000046
:100044009E000020A0000020A2000020A4000020A8
:10005400A6000020A8000020AA000020AC00002078
:10006400AE000020B0000020B2000020B400002048
:10007400B6000020B8000020BA000020BC00002018
:10008400BE000020C0000020C2000020C4000020E8
:1000940001A001A001A001A001A001A001A001A054
:1000A40001A001A001A001A001A001A001A001A044
:1000B40001A001A001A001A001A001A001A001A034
:1000C40001A001A001A0B71700409306700523808A
:1000D400D704130780FA2380E7040100010003C654
:1000E400B7041376F60DA385C7042380070413769B
:1000F400050259CE03C6A700118A1DE22380D70446
:100104002380E7040100010003C7A7001367470029
:100114002385E7009307004B01000100FD17EDFF65
:10012400B7170040930670052380D704130780FA9D
:100134002380E704010001007D892394A7000100C6
:10014400010001000100238007042380D7042380D9
:10015400E704010001003727004093061005A303BC
:10016400D78023800704B717004013077005238046
:10017400E704130780FA2380E7040100010003C7A2
:10018400B70413670708A385E70423800704828064
:10019400137605042DCA03C6A700418A1DE22380F5
:1001A400D7042380E7040100010003C7A7001367F5
:1001B40007012385E7009307007D01000100FD1777
:1001C400EDFFB7170040930670052380D70413078B
:1001D40080FA2380E704010001007D89136505048A
:1001E4002394A700010001000100010023800704FB
:1001F4002380D7042380E70401000100372700404F
:1002040093062005A9BF2380D7042380E7040100B7
:10021400010003D787001367070C2394E700A1B7F5
:100224004111814601468145114506C6B12AB717D9
:100234000040130770052380E704130780FA238026
:10024400E7040100010003C7670413671700238351
:10025400E70423800704B2404101828081460146BD
:10026400814511451522B7170040130770052380F7
:10027400E704130780FA2380E704010001007D5797
:100284002396E70203C76704136717002383E70471
:100294002380070401A0BD473305F50201007D1545
:1002A40075FD8280411122C426C206C6AA84014477
:1002B40063179400B24022449244410182800504B1
:1002C4001305803E4204C13F4180DDB7230304800F
:1002D40015472303E48001002302A480828083075E
:1002E4006480E3CE07FE2303048082808307648056
:1002F400E3CE07FE03454480828083076480E3CE17
:1003040007FE2302A4808280411126C44AC24EC043
:1003140006C61377F50BAD47AA892E899544630663
:10032400F70019456537653F8D444E854537FD59BE
:10033400FD1463983401B240A24412498249410138
:100344008280135509011375F50F453F2209CDB776
:10035400011126CC06CEB704080051371545BD3728
:10036400713769372AC6A53F32459377150089EB63
:10037400136515001375F50FF240E24405618280A0
:10038400FD14E9FC0145CDBF397126DC4ADA4ED8AB
:1003940052D656D45AD25ED006DE62CE66CCB7E7C9
:1003A40000E07D5783AA070022C603AA470023A0C2
:1003B400E71823A2E718B717004013077005238036
:1003C400E704130780FA2380E70483C74704930BE9
:1003D40075FFB684E20793FBFB0F8546AA892E8B33
:1003E400328937240040E187015763FA76016308B4
:1003F400D5008946130700026313D5000157D98F2E
:1004040093F7F70FB71C00402382FC041147230322
:10041400E4801305F00F5D3D094CD135636D7C110B
:10042400B7050700DA9537870700795563F2E504C5
:10043400B3879500636EF702370B0800A94733EBC7
:1004440065016399F90689E48144513D26850DA02F
:10045400DA850945553D05090345F9FFFD14050BEA
:10046400693D81C49377FB0FFDF7DD3569FD7D554B
:10047400B7170040130770052380E704130780FAB9
:100484002380E70403C74704418B2382E704F25027
:10049400B7E700E023A0571123A24711E2543244E6
:1004A4005259C259325AA25A125B825B724CE24CC4
:1004B40021618280A5476395F90685691309F00FC8
:1004C400B3069900B3742B01B6941349F9FFB374BE
:1004D4009900856B33796901416B9387F9FFB3F711
:1004E400270199E363FC340193D94900C147E3E64A
:1004F40037FF99BF0569C1697D19D9B71305800D07
:1005040063886901130500026384790113051008E7
:10051400CA85DD3B353D21DD4E99B3843441D9B7DD
:10052400DA852D45D533CA94E30099F205097D3B5C
:10053400A30FA9FED5BF9387F9FF93F7F70F636164
:10054400FC0C83C71C0413073008631FF704370728
:100554000800636BEB04B3079B00B706100063F558
:10056400D704334BEB0089476393F9068980D54957
:10057400E38C04ECDA850945413B11090327C9FFE3
:1005840091472320E48003076480E34E07FE23039E
:100594003481FD17EDFBFD14110B81C49377FB0F20
:1005A400E9FF7D3371F5E1B5B717004003C7570480
:1005B400B70708001377070219E3B78707007955CF
:1005C400E378FBEA33079B00E3FFE7F855B585477B
:1005D400E382F9F2DA852D45053B9389F4FFE3853F
:1005E40004E6293393F7390091EB8326048003272B
:1005F400090093074900E39AE6E43E89CE84F1BFFB
:10060400B5476396F9001305900BC93135BDB14761
:100614001305B00AE38BF9FE99476391F904B70512
:100624000800B365BB002D45C53181448D4BA149FC
:10063400753963967401832704802320F9008504A7
:10064400E39834FF8327048013172B0163550700B5
:100654002312F900D5BB2322F900FDB39D4763990A
:10066400F90281451305B0044531BD442320090036
:1006740023220900FD599D3993F77400CA9703C7D3
:100684000700FD14398D2380A700E39634FF6DBB6A
:10069400A1476392F9046D398144630D0B008D47C2
:1006A4009304C0036308FB009304000563048B01F7
:1006B400930440041375C507E30895D819453931E7
:1006C40039390545213126850D3909453D314931F1
:1006D400E31C05D669BB91476399F90013056006CD
:1006E400F536F53E130590090DB7E38F09D4F1549F
:0406F400A9BB00009E
:1006F80097110020938181961781002013010190A2
:1007080013054000970500209385458F17060020A4
:10071800130606FE63FAC5008322050023A05500D0
:1007280011059105E3EAC5FE174500001305456A62
:10073800970500209385850C1386818063FAC50090
:100748008322050023A0550011059105E3EAC5FEA3
:1007580013858180938581C96377B50023200500BF
:100768001105E36DB5FEFD42739002BC8D42739096
:1007780042809302800873A002309702002093827F
:10078800E28793E23200739052309702000093821E
:10079800020D73901234730020303D432A8763732F
:1007A800C3029377F700BDEFADE5937606FF3D8A68
:1007B800BA960CC34CC30CC74CC74107E36BD7FEB2
:1007C80011E28280B306C3408A069702000096961B
:1007D8006780A6002307B700A306B7002306B70063
:1007E800A305B7002305B700A304B7002304B70087
:1007F800A303B7002303B700A302B7002302B7007F
:10080800A301B7002301B700A300B7002300B70076
:10081800828093F5F50F93968500D58D9396050103
:10082800D58D61B793962700970200009696868229
:10083800E78086FA9680C1171D8F3E96E374C3F849
:10084800A5B719C94111AA851745000013054535F3
:1008580006C6EF30E00001A082807971130580049C
:1008680006D622D426D2371400404AD04ECE52CCD7
:1008780056CA5AC85EC662C466C26AC097000020DB
:10088800E78020848327840A85451305001093E7B1
:1008980007202324F40A11298D451305002031214E
:1008A800A9238345140417450000130565303789CB
:1008B8000040EF20F07A97070020938767FB23AC6E
:1008C800F1B29387418523AEF1B2EF001032852E45
:1008D8008544238001B4D549174A0000130ACA2E5B
:1008E800974A0000938A4A2F138B01C4974B000044
:1008F800938B8B35834769000145858B81CB230317
:1009080099000D2363143501238091B483C701B482
:1009180099E36319350D1305800C238001B4970002
:100928000020E780E097EF001032631D050A914729
:100938002380F1C429445285EF304007EF10207519
:10094800AA8511CD5685EF20B0717D1413052003BB
:100958001374F40F97000020E780809469FC8347A4
:100968000B0011476370F70817450000130545276A
:10097800EF30C0039745000093850527138581AFA5
:10098800EF30C003EF20D0016D3D1745000013057F
:10099800A526EF30A001974500009385A52613856D
:1009A8004189EF30A0010144130D1004938C418953
:1009B800294C239CA1AF23AE91AFEF20102F5135C6
:1009C800A2855E850504EF20B069E31484FF17450E
:1009D80000001305A528EF20707D238C91AEEF2031
:1009E800806585351305400697000020E780408B19
:1009F80005454D2901B76F00B00C797122D426D274
:100A08004AD04ECE52CC56CA5AC85EC662C466C2D6
:100A180006D6AA842E8C0144930900F8138A01C7CC
:100A2800A94A130B8002938BC1C3938C81C40D49CF
:100A380083C751C8B397F400238EF18413D7870076
:100A4800A38EE18413D70701E183238FE184A38F69
:100A5800F1842380318783470A006285A380F18669
:100A680023815187A38161872382018683A70B0095
:100A780013D78701A382E18613D707012383E18671
:100A880013D78700A383E1862384F186A384018694
:100A980023850186A385918623860186EF007055FC
:100AA80083C70C0093F7F70FB1C72285EF10E0203A
:100AB8002384A1C483C70C0093F7F70F95C303C51C
:100AC8000C001375F50FB250225492540259F24992
:100AD800624AD24A424BB24B224C924C45618280C8
:100AE80005041374F40FE31524F5FD472384F1C4BA
:100AF8007D45D1BF0145C1BF797122D426D24AD0E4
:100B08004ECE52CC56CA5AC85EC662C406D6AA840D
:100B1800AE8B0144938901C7294A930AA002138B1B
:100B2800C1C3138C81C40D4983C751C8B397F4005E
:100B3800238EF18413D78700A38EE18413D707018E
:100B4800E183238FE184A38FF1842380018683C707
:100B580009005E85A380F18623814187A38151879F
:100B68002382018683270B0013D78701A382E1869E
:100B780013D707012383E18613D78700A383E18670
:100B88002384F186A384018623850186A385918623
:100B980023860186EF00F04583470C0093F7F70F93
:100BA80085E71305800C97F0FF1FE780806E0145ED
:100BB800B250225492540259F249624AD24A424BE4
:100BC800B24B224C456182802285EF10000F2384AE
:100BD800A1C483470C0093F7F70F91C703450C0096
:100BE8001375F50FF1B705041374F40FE31E24F31E
:100BF800FD472384F1C47D4565BF3787004083479F
:100C08003700894693F7F707A301F7008347570092
:100C18000347370093F7F70F1377F70F631BD700D6
:100C280093F6170099C6918B014581CB2380E1C4C7
:100C3800828085472380F1C4594582808280411192
:100C480006C6EF0030393D479307F00F637BA704D2
:100C580097070020938707D023A4F1C223A8F1C0E7
:100C6800238001C4A547A382F1C893070020239AD3
:100C7800F1C423A201C6930700042395F1C6B787E0
:100C880000401387C70123A2E1C21387870123A667
:100C9800E1C81387C702A10723A2E1C023A8F1C2B4
:100CA8008147B2403E8541018280914763EEB70299
:100CB80017470000130707FB8A05BA959C41BA97A6
:100CC8008287B717004003A7470B1345F5FF698FC5
:100CD80023AAE70A03A7070B698F23A8E70A03A734
:100CE800070A798D23A0A70A8280B717004083A638
:100CF800470B1347F5FFF98E23AAD70A83A6070BDC
:100D0800558D23A8A70A83A6070A758F23A0E70A8B
:100D18008280B717004003A7470B498F23AAE70A29
:100D280003A7070B1345F5FF45BFB717004083A678
:100D3800470B1347F5FF758F23AAE70A03A7070A8E
:100D4800598D4DB7B717004003A7470B498FEDB72B
:100D5800B717004003D58700420541819377050402
:100D680091EB9377F5013755E80113050580334575
:100D7800F50282809377050C130700046397E70058
:100D88009377F50137459C1CCDB72165130505D030
:100D98008280814737370040A14663C4C700328547
:100DA80082800345B740E38EA6FE3385F5000345F0
:100DB800050085072304A740CDB7411122C406C604
:100DC8002A8479372947B307E502B2408D83B3D720
:100DD800870222449507B3D7E70237370040C20796
:100DE800C1832316F74041018280716541111305C3
:100DF800052006C6D937B7370040130770F8238196
:100E0800E7400D47A381E74013070004A380E740AC
:100E180005472387E740B240410182808547238008
:100E2800F1C48280411106C6B786004083C75600C8
:100E3800138701C4858B9DCB83470700054763074C
:100E4800F70083C716000145858B91EF85472380FE
:100E5800F1C417450000130525E289472380F1C432
:100E6800EF20D0345545B240410182800347070046
:100E780085470145E3F9E7FE17450000130585E0BE
:100E88002380F1C4EF2090325945F1BF37870040E5
:100E9800834737001375F50793F70708C98FA30130
:100EA800F700828082804111A147014506C622C40D
:100EB800A380F1B437840040D13F834714003D45F7
:100EC80093F7E70FA300F4008347140093F7970FF5
:100ED80093E72700A300F40097F0FF1FE780403C4A
:100EE800834714001305A00F93F7D70FA300F4004E
:100EF80097F0FF1FE780E03985472303F400B240ED
:100F080022444101828003C701C4854763E5E700A5
:100F180089472380F1C4B787004003C75700594564
:100F2800058B01CB03C71700014513671700A38082
:100F3800E7008280397122DC26DA4AD84ED652D4AC
:100F480056D25AD05ECE62CC66CA6AC86EC606DE73
:100F5800B78700402387B702B78D00402A8A328DB1
:100F68002385B70213594500014493846D00094C49
:100F7800854AD54C138B01C4854B894923844D037D
:100F8800238084019307003203C70400098B09E713
:100F9800FD17C207C183EDFB23840D0283C704003C
:100FA800898BE5C783C70400858B95C723805401C7
:100FB800953D63149501238051B583470B00638ADF
:100FC800FB0A83470B006388F90A1305800C97F026
:100FD800FF1FE780002C83C70400898BD9C783C70C
:100FE8007D0093F70704D1EB83C77D00394793F75A
:100FF800F70F13F5F7006304E50829476318E502BE
:1010080063020D08FD576303FD007D1D7D141374F5
:10101800F40F05043D451374F40F97F0FF1FE780A4
:101028004027E3FD89F41305000221A82547630939
:10103800E902B5476304F9006319790579D913659D
:101048000502F2506254D2544259B259225A925A65
:10105800025BF24B624CD24C424DB24D2161828010
:101068009D8B0D47E39CE7FC6DB7FD572380F4008B
:101078004DB75945F9B75545E9B70145D9B71305EE
:10108800E002C1B71305A0026DBF1305E00F55BFFD
:10109800011126CA4AC8AE842A891305800C06CED7
:1010A80022CC4EC652C456C25AC097F0FF1FE780E2
:1010B800401E99C02380040037840040A1478969F5
:1010C8002306F4021386097181451305000D9D3529
:1010D80063150514930700FD2307F4022305F402A2
:1010E80085472306F402938AC1B383A70A0003C481
:1010F800770003C767002204598C61CC630B090C85
:1011080083870700378A00409389097163CA0704F7
:101118001305800C97F0FF1FE780A01783C711B451
:101128006374F4009377F40F2306FA0281470347A8
:10113800CA026399E7108345EA024E864145DD3BC2
:1011480069ED8347CA021D8C4204418081C88347E8
:10115800CA0203C70400BA972380F40055F895A87B
:10116800938A81B31305800C97F0FF1FE780601204
:101178008345AA024E86130500096D3B59ED0347C6
:101188008A009377F40F6376870083478A0093F782
:10119800F70F1D8C4204418091C403C704003E9799
:1011A8002380E40001479376F70F6392D7083E99AE
:1011B80083478A0093F7F70F89CB03478A0083C7D1
:1011C80011B4FD17F98F91E351FCB78700402386CE
:1011D80007021305800C97F0FF1FE780800BB78785
:1011E800004083C7C7021305000993F7F70F91E37F
:1011F80041450966130606719305000C253B11ED60
:10120800378700408347C70293F7F70F99C783478B
:10121800870093F7F70F91C35D45F2406244D244CB
:101228004249B249224A924A024B0561828083A60A
:101238000A00BA9603C60600B306E900050723802C
:10124800C60095B703A70A008346090005093E971B
:1012580085072300D70093F7F70FD1BD8147938502
:10126800C1B3A1463307F5000346070098413E97EE
:101278002300C7008507E397D7FE82800111A147A5
:1012880017450000130505B306CEA380F1B4F9375E
:101298009305F100138541B8E53B05E1938741B813
:1012A80083C77700A380F1B40347F1009747000094
:1012B80083D7A7B06373F7005D45F240056182806C
:1012C800011117450000130565AE06CE22CC79370B
:1012D8009305F100138541B8653B2A843DE1034736
:1012E800F1009747000083D7C7AC5D44636BF704F0
:1012F80083C761B817450000130545ABA307F10084
:10130800B13F9387C1B39C430347F1009305F100B4
:10131800A38307002383E700138541B8953B2A84FC
:101328000DE10347F1009307000463F4E700A30706
:10133800F1000346F100938541B813854185EF20FC
:10134800C0462285F240624405618280411126C26E
:10135800AA8417450000130565A606C622C4FD3DEC
:101368009387C1B39C438145014523819700A3819D
:101378000700393B2A8401E92685093E294597F06B
:10138800FF1FE780E0F12285B240224492444101E8
:101398008280411122C42A8417450000130585A2C2
:1013A80006C66D3D9387C1B39C43B24081452381F6
:1013B80087002244A381070001454101D1B94111A9
:1013C80022C42A84174500001305C59D06C6793531
:1013D8009387C1B39C43B24081452382870022444E
:1013E800A38207000145410165B1B7870040130793
:1013F80000F82380E700A3800700A38107001307F4
:101408008004A386E70003D781B3239CE70003D7B2
:10141800C1B3239EE700238507022387070213072A
:1014280090F82380E700130700042383E7027D5721
:101438002383E70005472380E1C40D472381E700A4
:10144800238001B4828001111745000013054584EB
:1014580006CE22CC26CA4AC84EC6EF202055A13453
:101468008144014413094006054597F0FF1FE780B2
:1014780020E3513C19E5850493F4F40F636C990E4D
:10148800014405041374F40FE31024FFEFF01F99CF
:10149800174500001305C583EF2040515944D9A0D2
:1014A800B307890083C507004E850504EF20403B3C
:1014B8001374F40F93170401C183E3E397FE2945DE
:1014C800EF20403E835789009744000083C4248F4F
:1014D80026852394F1B48357A90083C981B823953D
:1014E800F1B4AD352A8405E1173500001305C57B35
:1014F800A38291B4EF20C036E1332A8497340000E8
:101508009384047A0DC9A285173500001305C57A9E
:10151800EF200035894705452380F1C4EFF09F98F7
:1015280091A0B307890083C5070026850504EF202D
:1015380020331374F40F9317040103D761B8C183E0
:10154800E3E1E7FE2945EF20E0351304B00F639B84
:10155800090003C721B9A1476316F7009147238003
:10156800F1C401442285F2406244D2444249B2495E
:101578000561828003C561B4EFF0DF921735000082
:1015880013058577EF20C02DD5392A842DFD974482
:10159800000083C49482A2049747000083C7E781B0
:1015A800DD8C138941B8973900009389696F19B7A1
:1015B8004111094506C622C426C297F0FF1FE780DD
:1015C80020CE83C781C4A389F1C8EFF00FE3AA87AF
:1015D8003DE503C701C48D469307300863F1E6066D
:1015E80083C601C913061002238AC1847D569387D6
:1015F8004185A38AC18423810700A3810700238230
:10160800D700A382070023830700A383070081452F
:1016180041342384A1C45947AA876302E50203C55C
:1016280041C33D89693B03C541C83D891365050828
:10163800793383C731C9A38901C82384F1C4B2406F
:10164800224492443E85410182804111054706C6E5
:101658002380E1C4EFF06FDA19E113053008B240D6
:1016680041018280411122C483A7C1C303A781C756
:1016780006C601456384E70283A501C103A781C2A9
:1016880023ACF1C66308B7020545EFF00FB7238412
:10169800A1C409E903C581C41375F50FB2402244FA
:1016A800410182807D5723A4E1C823ACE1C6238A87
:1016B80001C0CDB7054523A4F1C8EFF00FB42384CA
:1016C800A1C469D9C5B7411122C483A7C1C303A75F
:1016D80081C806C601456384E70283A581C203A7C2
:1016E80001C123A4F1C86308B7020545EFF0EFB0C4
:1016F8002384A1C409E903C581C41375F50FB24059
:101708002244410182807D5723A4E1C823ACE1C66D
:10171800238A01C0CDB7054523ACF1C6EFF0EFAD84
:101728002384A1C469D9C5B783A7C1C383A501C14F
:10173800411103A781C222C406C623ACF1C66305C2
:10174800B7020545EFF04FBB2384A1C401C97D57FB
:1017580023A4E1C823ACE1C6238A01C0B2402244D5
:1017680003C581C44101828023A4F1C8D9BF83A7DE
:10177800C1C383A581C2411103A701C122C406C602
:1017880023A4F1C86305B7020545EFF0EFB623843B
:10179800A1C401C97D5723A4E1C823ACE1C6238AAB
:1017A80001C0B240224403C581C44101828023ACF8
:1017B800F1C6D9BF03C6C1C083A7C1C503C711C934
:1017C80083A6C1C7F917B397C7003697BA9723AE50
:1017D800F1C282804145828083C701C493F7F70F25
:1017E80063E6A7002380B1C401458280E38EB7FE7B
:1017F800A9BD797126D21307500556CA238AE184F8
:1018080013073005A38AE18483A741C01307200486
:10181800238BE1841307300422D44AD04ECE52CC15
:10182800A38BE18406D67D475AC85EC662C423905E
:10183800E7002A8483C531C903C541C337060200BE
:10184800EFF04FEF2384A1C459476301E516938B4A
:10185800418515CD938741859384418798439107A6
:10186800D8CFE39D97FEA933DE879853910723AE1F
:10187800E7FEE39C97FE83C531C903C541C337061C
:101888000200EFF02FEB2384A1C4631F051683C465
:101898009B0003C68B0083C7AB0003C731C983C64F
:1018A800BB00A204D18CC207C58F134707049394C9
:1018B8008601A389E1C8DD8C638604108386CB008A
:1018C80083D7A1C663D60608371B0020130B4B87A6
:1018D80091A000C383C531C903C541C837060200BA
:1018E800EFF04FE52384A1C46310051603C731C97F
:1018F80083A601C383D7A1C613470708A389E1C8F4
:1019080083D6060063E3F4189D8C6390D7163E9443
:10191800638D041403A7C1C8E3FDF4FA232067010B
:1019280055BF23A088002390F60083D7A1C69D8CBD
:101938003E94EFF02FE02384A1C42DE103C731C901
:1019480013470704A389E1C86388040E83D7A1C697
:1019580003C841C3BA853706020083A841C283A6DB
:1019680041C04285E3FFF4FA23A078012390960052
:10197800814703460400B38677018507C2072380A1
:10198800C600C1830504E39697FE37060200BA85B0
:101998004285EFF02FDA2384A1C469CD03A741C2A1
:1019A8009307E002232077016301F508B25022541F
:1019B80092540259F249624AD24A424BB24B224CE3
:1019C8004561828003C541C837060200BA85EFF039
:1019D8006FD62384A1C479F983C731C903A701C38A
:1019E80093C707F8A389F1C8FD472384F1C40357B7
:1019F8000700B5476316F702B717002003C5078825
:101A080029C1854763FEA7002254B2509254025957
:101A1800F249624AD24A424BB24B224C456149BE16
:101A280003C581C41375F50F51B703C541C33D897B
:101A3800EFF0FF9803C731C983A741C223A07701FC
:101A480051B7238401C49DB783A6C1C81307E00218
:101A580023A06601E31CE5F403C541C83D8913656D
:101A68000508EFF0DF9503C731C983A7C1C823A0D4
:101A7800670189BF03C731C983A741C21347070458
:101A8800A389E1C823A0770135BF63E5D402F1DE5D
:101A98009387F6FFC207C1838507A2975A878346B3
:101AA800070005040507A30FD4FEE39A87FE03C7C2
:101AB80031C965BF93960401C182D9BF4111294537
:101AC80006C697E0FF1FE780A07D03C701C793877D
:101AD8004185A386E700C94619472384D700238791
:101AE800E700930600F80D47A387E700A3840700E3
:101AF800494723850700A38507002386D700138558
:101B08004187A389E70023880700A3880700238962
:101B18000700238A0700A38A0700238B0700A38BEB
:101B28000700238C0700F131154597E0FF1FE78078
:101B3800207783C781C4014593F7F70F81CF03C589
:101B480081C4D9471375F50F6309F500D547630CB0
:101B5800F5000145B2404101828005472380E1C478
:101B680023A201C6C5BF09472380E1C4E5B739717F
:101B7800A54722DCA382F1C8BD472380F1C226DA3B
:101B88004AD84ED652D456D25AD05ECE62CC66CA05
:101B98006AC86EC606DE938D4185938401C2214BC7
:101BA800930A00F8130A5002A949854C4D4D81A0AB
:101BB80063FADC0A6308A70BA380E400013703C5B6
:101BC80001C203C7140072057D85137585F71305D7
:101BD800850C2384E1C497E0FF1FE780606C03C78E
:101BE80001C27D171377F70F2380E1C225CF03C702
:101BF80001C71385418723846D01A386ED00A38463
:101C08000D0023850D00A3850D0023865D01A387A4
:101C18004D0123880D00A3880D0023890D00238A18
:101C28000D00A38A0D00238B0D00A38B0D00238CC0
:101C38000D0023873D01A3890D00653E03C781C4BC
:101C48001377F70F9306B7FE93F6F60F35F383C7AE
:101C58006D0211476382E70421476384E704414723
:101C68006388E70403C751C88547B397E700C207ED
:101C7800C183F2506254239AF1C403C51400425937
:101C8800D254B259225A925A025BF24B624CD24C4D
:101C9800424DB24D21618280A38231C99307004031
:101CA800C9BFAD47A382F1C8856793870780D1B7BD
:101CB800B147A382F1C885676DBF411126C2AA84C6
:101CC800054506C622C497E0FF1FE780605D85478B
:101CD80063F3970683C701C4C94693F7F70F638870
:101CE800D700C14663F8F6002380D1C421A09547E8
:101CF8002380F1C483C781C493F7F70FAD1793F717
:101D0800F70F05476374F700553B05C1094597E090
:101D1800FF1FE780E05803C581C4D9471375F50F45
:101D2800630CF502D5476303F504B240224492449C
:101D380001454101828083C781C493F7F70FDDFC19
:101D4800094597E0FF1FE780A05503C581C4D9471F
:101D58001375F50FE318F5FCB240224405472380BC
:101D6800E1C423A201C6924441018280B2402244C8
:101D780009472380E1C492444101828039716EC6CB
:101D880006DE22DC26DA4AD84ED652D456D25AD0AB
:101D98005ECE62CC66CA6AC8EFE03FE6AA8D71E9FA
:101DA80083C701C40D476376F70E91472380F1C4BA
:101DB800EFE07FC42384A1C4AA8D45ED938C4185AF
:101DC80083C6EC002147639DE60C03C6FC00238C08
:101DD80001C499466315D6008546238CD1C403C730
:101DE8007C0183C5BC0003C66C0183C6EC0103C833
:101DF800DC0103D3A1C62207A2062388B1C8518FEC
:101E0800238001C2B3E6060103C64C0183C5BC01A9
:101E180003C841C303CE41C86310670862066186E0
:101E28001373F60063460608136803010146054369
:101E38006390E6201397850161879376F700138BEB
:101E480001C26346070809472380E1C2A300BB001B
:101E580013E806016311061A238A01C361A083C629
:101E680081C41306E0026300D62203C781C4937DB0
:101E7800F70FF25062546E85D2544259B259225A21
:101E8800925A025BF24B624CD24C424DB24D2161E8
:101E98008280930D3008F1BF138901C2A300C900E5
:101EA800FD472384F1C403C781C4937DF70FD1B7DD
:101EB800136E030905460143E38EE6F6938701C2D4
:101EC8002380C1C2A380B7002382C1C9D1BF93E6D2
:101ED80006F909472380E1C2A300BB002382D1C8C9
:101EE800E31C03F603C55C00EFF0AFCA2384A1C46A
:101EF800AA8D41F183C601C9130610FA03A581C250
:101F0800238AC1847956A38AC184854A938511C2DC
:101F1800238001C223810C00A3810C002382DC00F2
:101F2800A3820C0023835C01A3830C00EFF04F967F
:101F38002384A1C40DF583461B006398560183A62C
:101F480081C283C606002380D1C2154597E0FF1FD2
:101F5800E7800035FD5623A4D1C823ACD1C603A51C
:101F680081C2238A01C0A38901C8238801C601460A
:101F7800130C4002930B00F8194BC94A130A40028C
:101F8800A386CC0023848C01A3840C0023850C0039
:101F9800A3850C0023867C0123876C01A3875C0141
:101FA80023880C00A3880C0023890C00A3894C010A
:101FB800238A0C00A38A0C00238B0C00A38B0C0033
:101FC800238C0C00EFF0FF8283C681C4054693F68C
:101FD800F60F8DE683C601C2B9C283C601C7A1E266
:101FE80003A581C2954783460500639AF602854793
:101FF8002388F1C671B72382C1C9B9BD83C601C29E
:10200800A9C283C601C78947138616001376F60F3F
:1020180063E9D7022388C1C603A581C295B783C7E0
:1020280001C48D4663F1F60495472380F1C491B548
:10203800938701C2238061C2A380B700238A01C3AA
:1020480085B56254238801C6F250D2544259B25918
:10205800225A925A025BF24B624CD24C424DB24D1C
:102068000545216199B96254F250D2544259B25986
:10207800225A925A025BF24B624CD24C424DB24DFC
:1020880021616FF08FDC0145EFF06FB37DBD411129
:1020980026C222C406C623AC01AEEFE01FB62A84CE
:1020A80041E183C701C411476372F70893874185EB
:1020B80003C701C723840700A386E7001947A38441
:1020C800070023850700A3850700238607002387C9
:1020D800E70013854187A387070023880700A388A3
:1020E800070023890700A3890700238A0700A38A1A
:1020F8000700238B0700A38B0700238C0700EFF052
:102108004FEF83C781C493F7F70F99CB83C781C477
:102118002380F1C2EFF09F9A03C401C2238481C4D3
:102128002285B2402244924441018280813919C9F2
:102138001305000497E0FF1FE7808016813119C15D
:102148002A84F9BFEFF0BFA205E59387418503C64E
:10215800170283C5070283C6270203C73702220670
:102168004D8EC206D18E6207558F23ACE1AE89B77A
:1021780003C481C41374F40F65B783C701C43971EC
:1021880006DE22DC26DA4AD84ED652D456D25AD0A7
:102198005ECE62CC66CA6AC86EC611476374F738E9
:1021A80003A741C6FD5723A4F1C823ACF1C6238A6F
:1021B80001C0B7573412937607FF93870767638A7E
:1021C800F636938441C4A3800400238401C6A388FF
:1021D80001C823A801C42D6A130A5AA5138D01C288
:1021E80023AE01C2930B900E930D0004EFF0AFCD18
:1021F8006314051283C6140003A681C299E68347B7
:10220800060093F7D70F638B77178357E61F6398FA
:10221800473183CE81C62382D1C5638FBE2F938772
:10222800EE1BB29783C5A70003C7B70003C8870092
:1022380003C59700A301ED00238001C3A300AD00EF
:102248002301BD0083A501C283C74700154723AEFC
:10225800B1C22380F1C26387E72A3D476384E72A36
:102268007687014F01433545054E1548BD489DA069
:1022780083C701C2FD1793F7F70F930F07019382E6
:10228800F6FF6367F500637EDE0E93F6F20F054FE7
:1022980013F7FF0F9307E71BB2976306B70B03C348
:1022A800A70083C5B70083CF970023016D00A30162
:1022B800BD00A300FD0183C5870083C74700054310
:1022C8002380B1C283A501C22380F1C2638F0701B5
:1022D800638D1701939F870193DF8F4193F7F7036E
:1022E800E3D80FF82380F1C271B723AEB1C26304FB
:1022F8000F00A380D4002382E1C483A701C583C64D
:1023080011C9BE9523AEB1C2E39206EE4107A38878
:10231800E1C823A8B1C4F9B5EFF08FA9EFF03F8564
:10232800EFF06FBAE30805ECF2506254D254425908
:10233800B259225A925A025BF24B624CD24C424D2D
:10234800B24D216182806304030023AEB1C26304ED
:102358000F00A380D40083C711C913070004238288
:10236800E1C4638B071A63990E1A03C71400238408
:10237800F1C623A801C4BD47E314F7E683A5C1C38A
:1023880005A06302031E23AEB1C263040F00A3803D
:10239800D4002382E1C483A781C8BE9523AEB1C20D
:1023A80023A2B1C6EFF02FB241F183A581C2130772
:1023B800900E83C7050093F7D70F6390E71A83C77A
:1023C800D500139787012384F1C6618763420718F4
:1023D800194786072386E1C093F7F70F0145194788
:1023E80093968701E1861306F7FF860763C70610F1
:1023F8001377F60F93F7F70F05457DF38547238687
:1024080001C02384F1C603D5650123A6A1C401E553
:10241800C85123A6A1C483C7450103C63501A20735
:10242800D18F23A6F1C281E79C5123A6F1C203C62E
:10243800250183C8150183D641C503C351C82206A7
:1024480033661601958283D8E500B296FD16130609
:10245800B3FFB3D6C6403386160103CF05012A96CB
:1024680023ACD1C023AC11C323A0C1C28946630DDC
:10247800DF0823A601C483A6C1C3918F33D7E70021
:10248800369623AEC1C623AAE1C6C167D11763EB4E
:10249800E704239701C68567D11763EBE70605476D
:1024A800A38AE1C06383080283A781C199CF8547C6
:1024B8006305FF0083A7C1C489CB03C5B50011E537
:1024C80003C7C500854763E5E70A83C71400C9EB5E
:1024D8008547A380F400238401C6A38801C823A8E4
:1024E80001C4D5B9DC5503D6050323ACF1C0239745
:1024F800C1C60D47A38AE1C075B7E30605F0238678
:10250800E1C011B77687D5BB2A9623A0C1C2A5B76B
:102518000947A38AE1C079B71305200931B5130526
:10252800100919B5EFF09F85E31005E0EFF02FE4EF
:1025380085B93D8B938441C4A380E400238401C6FC
:10254800A38801C823A801C4BD47E316F7C83DB551
:102558001D472386E1C01D477DB51305100AE9B361
:102568001305300AD1B3E3080FE2A380D40025B5E0
:1025780083C701C4B69823AC11C311476376F7002B
:10258800C1472380F1C44DB36254F250D25442592A
:10259800B259225A925A025BF24B624CD24C424DCB
:1025A800B24D21616FF06F8A01114AC883A781C7B4
:1025B80026CA22CC06CE4EC623AEF1C2EFF0CF9685
:1025C8002A8411E583A7C1C499EB238A01C0228517
:1025D800F2406244D2444249B2490561828003A76D
:1025E800C1C383A501C1BA97054523AEF1C2EFE087
:1025F800AFD003A7C1C32384A1C403A6C1C483C7A2
:1026080081C4118F23AEE1C293F7F70FDDDF03C456
:1026180081C4FD5723A4F1C823ACF1C6238A01C0A5
:102628001374F40F6DB7797152CC03C851C122D419
:1026380026D24AD006D64ECE56CA5AC85EC6894752
:102648002A89014403A781C06300F8128D47630BF0
:10265800F81093571700137417003E9783D641C597
:1026680083C751C883A501C103A681C3FD16F98E8E
:10267800B357F70003A781C7AE96B29723A2D1C478
:1026880023A4F1C06382E70203C741C109C7293FF8
:102698005DED83A781C023AEF1C2EFE0BFFC45E941
:1026A80003C851C183A641C4630F09009147630859
:1026B800F9168547630FF90E83A7C1C523A4F1C096
:1026C8000547238AE1C0238601C689476300F80AC3
:1026D8000D4783A781C06301E80E03C5060013F800
:1026E800F70F83D541C51377F5009318480003A663
:1026F80001C133671701938401C291831377F70FE0
:10270800FD15A380F4002381A4002380E1C2B30750
:10271800B600638AF61083C71600A381F40063101D
:1027280009086309040E83D7240091830567239160
:10273800F4005917636CF70A03C7C1C623A0F1C296
:102748003369E900631B090423AEF1C40145B250A3
:10275800225492540259F249624AD24A424BB24B2D
:10276800456182800A07DDBD0607CDBD03D7060097
:1027780023A0E1C2C167D91763FDE7008547238617
:10278800F1C6630C090083A781C001452390F600B8
:102798007DBFE31A09FE23AEE1C401454DBF31CC2C
:1027A8002380E60083A741C403C71400A380E70081
:1027B8009DBF23A401C029B798423706001013050E
:1027C800F6FFB70500F0F98DE98FCD8F698F23A447
:1027D800F1C023A0E1C25916637CE60605472386AB
:1027E800E1C6E30C09FA9CC2014595B70547238663
:1027F800E1C623A0F1C2014599BF2380060183C722
:10280800340003C7140083A641C4C19B1183D98F28
:10281800A380F60083D72400D207D18301BFFD57D8
:1028280023A4F1C071BD6318090283C741C185EBB8
:1028380083A781C7850723AEF1C2EFE0BFE2E318A3
:1028480005F083A701C183C70700A381F400D1BDA8
:10285800E31B09F889B711E042872380E600A93312
:10286800E31705EE83A781C7850723AEF1C2EFE022
:102878007FDFE31E05EC83A601C103C70600A38121
:10288800E400E30009EA83C7140001E4419B918353
:10289800D98F2380F6000547238AE1C059B579719D
:1028A80022D466C262C403A841C703ACC1C56AC0CA
:1028B80026D24AD04ECE52CC56CA5AC85EC606D682
:1028C8008549938A01C263638813050C014523A4D3
:1028D80081C1913B23AE81C559ED83A701C26380B5
:1028E800071403A841C79367FC0F1367F80FE38C1D
:1028F800E7FC83C651C1E38836FD83A701C10946B9
:1029080003D741C523A2F1C46385C608935627009F
:10291800FD16C206C182370E00102390D1C2239142
:10292800DA003687814E7D1E39A0131703014183D3
:10293800AE87854E5DCFD0431303F7FF93854700DD
:10294800B378C601E39308FE23A2B1C463850E0CD5
:102958002390E1C2B7050010B3E68601FD15338761
:10296800E6404D8E0507D0C323AEE1C46360E80896
:102978000547238AE1C0B250225492540259F249C1
:10298800624AD24A424BB24B224C924C024D4561AC
:102998008280135617007D16420641822390C1C2D9
:1029A8002391CA003287014339A013970801418354
:1029B800AE87054321CB83D627009308F7FF93857D
:1029C8002700E5F623A2B1C4630903042390E1C2FA
:1029D800FD562391D70083D62A00B3E686013387B4
:1029E800E640050723AEE1C4E374E8F81305100BCD
:1029F80059B7336CDC0023A2B1C4239001C223AEC3
:102A080081C5D1B5336CCC0023A2B1C4239001C2D7
:102A180023AE81C54DBD368735BF328755BF225499
:102A280023A481C1B25092540259F249624AD24A4F
:102A3800424BB24B224C924C024D114545616FF00E
:102A48009FBE411106C6A13D9307100B6305F50013
:102A5800B24041018280B24023AE01C4410181B538
:102A68005D7156DA83C701C486C6A2C4A6C2CAC0AD
:102A78004EDE52DC5AD85ED662D466D26AD06ECEAA
:102A88003D47637CF72C83C701C43D47637DF7103E
:102A9800C1472380F1C483C681AF238901C86386F7
:102AA80006301307C0056387E6301307F002638317
:102AB800E630138781AF034617009307A003630628
:102AC800F62A3EC483A6C1C183A7C1C732C623A0C4
:102AD800E1C8138401C2638D061C83C5C1C003C647
:102AE80081C61387E6FF3317B700BA97A388C1C812
:102AF80023A0F1C66302062423AEF1C2EFE0BFBCF7
:102B08005DE583D741C5239B01C46384072083A562
:102B180081C223A2B1C483C70500B9CB930D500E5F
:102B28002D45930BC0056381B70315476394E700F0
:102B38009307500E03A801C8834608006388F60867
:102B48001307A0026384E60883D761C503D741C58C
:102B580093870702C207C183239BF1C463FBE71A6B
:102B680083A581C2BE9523A2B1C483C70500C5FF52
:102B780083A601C881471306A0029305C005130563
:102B8800F00239A0630EC7006303B7226301A722CE
:102B98003387F60003470700850793F7F70F7DF3A0
:102BA8001305200429A0EFE05FAAE30605EEB6406E
:102BB800264496440649F259625AD25A425BB25B9D
:102BC800225C925C025DF24D616182809D8E93B6BB
:102BD800160036872301D4003386D500B307E800F2
:102BE80083C70700034606009308F0021303E002B8
:102BF800214E930E0002130F1700638EC702F9C708
:102C08006386770D6384170D639D670C6304C701A2
:102C1800631AD6152301E401A1460347240033862D
:102C2800D50003460600B307E80083C70700130F63
:102C38001700E396C7FC050785061377F70F2301EE
:102C4800E40093F6F60FE39AA6FC42978347070041
:102C5800A301F40083C7B500A18BE39707EE238691
:102C680001C683A741C4A24583D6A70103C651C1A3
:102C78000D4723AED1C06318E60003D747014207CA
:102C8800D98E23AED1C003473400630B072403C792
:102C9800C1C6631707240347240083A701C8050793
:102CA800BA9723A0F1C8B24783A7C1C7E39706E242
:102CB80003A781C19376F70F958F1377F70FA38832
:102CC800E1C823A0F1C6E31907E25DB513070002C6
:102CD800631EE6021D47E36DD7F603C78500E309C7
:102CE800C7F6A301F4001307A002E39FE7E483C734
:102CF800B500A18BE39A07E483A701C5638907148C
:102D080063C10712FD1723A8F1C43DBDA301F40058
:102D180025BD03C711C983A701C67D17850713778A
:102D2800F70F23A0F1C6A388E1C8E31707DCA24781
:102D380083A6C1C1E38E06E2014523A4D1C0EFF00A
:102D48009F8EE31605E683C7C1C6E39307E283A611
:102D580001C2A24723AED1C0B9B7EFF00FC2E30456
:102D680005D2B1B5A3016400C5B393072004E3FA03
:102D7800D7D41387B1AF23A0E1C89387B1AF89A097
:102D8800D84F23A8E1C491E67D57A388E1C823A8BA
:102D980001C483C701C43D476378F718D14723802E
:102DA800F1C483C7C1C663990716014509B5130560
:102DB800300BF5BB138791AF23A0E1C8938791AF80
:102DC80083C651C10D476384E60603C707003EC4A6
:102DD80036C623AE01C083A7C1C78146E31B07CE11
:102DE80083A681C103C651C8A24513F7F60F998F70
:102DF8003317C700094623AEC1C02384D1C6B246E3
:102E080023AEF1C623A8E1C4894623AED1C423A6C4
:102E180001C2A38801C8C9472380F1C4130510045F
:102E280079B3EFD0BFE183A701C52D45E1BD83A6E6
:102E380081C183C707003AC423AED1C089C73EC643
:102E480083A7C1C779B17D5723A8E1C47DBF23807B
:102E580001C283A701C80147130500022148154E86
:102E680015539308E002AD451DA82300D60083C77B
:102E780001C283A601C899EB03C606006318C60100
:102E88002380660083C701C283A601C8850793F71C
:102E9800F70F2380F1C2B6970507630DB70283A623
:102EA80041C43E86BA9683C60600E387A6FEE31EA3
:102EB80007FB2380170183C701C283A641C403A669
:102EC80001C8850793F7F70F2380F1C283C68600F0
:102ED8003E9661BF2380070085472386F1C651B31C
:102EE80003C7B70023AED1C423A601C2A38801C873
:102EF800418BE30707E883C701C4FD5623A8D1C463
:102F08003D47637EF700CD472380F1C483C7C1C620
:102F180013051004E38D07C81305300449B9EFE021
:102F2800CFF2E31605C8DDB7EFE02FF2E31105C8CD
:102F38008DBD411106C622C4EFF07F9611CD9307CF
:102F4800100B6306F500B24022444101828023AE93
:102F580001C4EFF0DF9465F9EFF00FE56DF583A795
:102F6800C1C503A701C623AEF1C023AEE1C2EFE09D
:102F78008FF571F903D661C583A781C203A7C1C1C3
:102F88002244B29793560701239DE700B2400546B5
:102F9800D0CF239AD70023A2F1C441016FE02FFDBF
:102FA800411183D7E1C622C423A0A1C206C60145A8
:102FB80089E7B24022444101828003A741C6BA97FB
:102FC80023AEF1C2EFE02FF06DF503A781C283A60F
:102FD80001C222448327871EB240B6972324F71ED6
:102FE80041016FE0CFF883C701C4238901C84D4769
:102FF8006364F7000145828003A701C6411106C634
:1030080023AEE1C2EFE02FEC09ED03D761C583A73A
:1030180081C20145BA9703C7B70023A2F1C4418B07
:1030280001C7B2404101828003A701C5B240D8CF91
:1030380041016FE0CFF3411122C483C701C406C622
:10304800454793F7F70F6371F7084947638AE70421
:1030580083C701C44D4793F7F70F6361F7022389CC
:1030680001C883C701C43D476377F702C14723807E
:10307800F1C40145B2402244410182805147638B2B
:10308800E70483C721C9F1DFB93F6DF583C701C4E0
:103098003D47E36DF7FC2244B24041016FE0EFDAAF
:1030A80003C751C18D47E305F7FA83C5C1C003A61D
:1030B800C1C783C781C105473317B700B2972384B7
:1030C800E1C623AEF1C669B7B24022441305400BEE
:1030D8004101828083C781AFCDF751B7011122CC5E
:1030E80083C701C406CE26CA4AC84EC64947637F6D
:1030F800F70883C701C43D476370F708C1472380B9
:10310800F1C403A701C623AEE1C2EFE0CFDB25E996
:1031180003D761C583A781C2BA9715572380E700F3
:10312800EFE0EFE429ED83A7C1C123A0F1C2A1CB51
:103138009386F7FF23AED1C023AE01C419A083A79D
:1031480001C2054523A4F1C0EFF0EFCD0DE983A737
:10315800C1C503C7C1C6850723AEF1C46DD3EFF05F
:10316800AFC411ED03A5C1C56244F240D24442493F
:10317800B24905616FF0DFE2EFE02FCD59D1F2409F
:103188006244D2444249B24905618280EFF05F8DC2
:103198002DD1F2406244D2444249B249056182804D
:1031A800797122D406D626D24AD04ECE52CC56CAEF
:1031B8005AC85EC6EFF0DF8AA388A1C8630F05105E
:1031C80093072004630DF500B2502254925402591B
:1031D800F249624AD24A424BB24B4561828083D659
:1031E80061C583D741C503A7C1C163E0F608631968
:1031F800071083A781C1A388F1C8130A500E83A7BB
:1032080001C6FD1723A0F1C623AEF1C2EFE0AFCB94
:1032180045FD03D641C5239B01C40DCA83A581C2C0
:1032280083C70500638847259307000201A883C662
:1032380006004207418363864603BA87B386F500D2
:1032480013870702E3E5C7FE239BF1C483C711C9AF
:10325800FD1793F7F70FA388F1C8D5F31305200BD3
:10326800A5B703A7C1C1239BF1C423AEE1C4EFF006
:103278000FE39307100B6300F50839F5EFF0CFB2B1
:1032880021F583A7C1C57D5523AEF1C0EFF05FD10D
:1032980005FD03A701C623AEE1C2EFE0CFC2E315E7
:1032A80005F283D661C503A781C28147369723A259
:1032B800E1C4A945930800027D4801A8230007003E
:1032C8006380061103A741C485073E9793F6F70F5D
:1032D800E3E6F5FE23001701F5B7EFF03FE0E3154D
:1032E80005EE03A7C1C123AEE1C4EFF04FDB93079E
:1032F800100BE314F5F823AE01C4EFF04FDAB5BFB5
:10330800014523A4E1C0EFF00FB2E31F05EA83C72C
:10331800C1C603A7C1C1B1DB23AEE1C4EFF02FD80A
:103328009307100B6309F508E31005EA83A7C1C1E9
:10333800094523A4F1C0EFF00FAFE31705E8EFF05C
:10334800AFA6E31305E883D641C589CE03A681C29B
:1033580081473307F6009107C20723200700C1837E
:10336800E399D7FE83A7C1C503C6C1C083A6C1C759
:10337800F91703C781C6B397C700B697A38801C8D2
:1033880023AEF1C2239B01C423A0F1C62380E1C26E
:1033980019EFE5A083C701C203A7C1C3FD1705073D
:1033A80093F7F70F23AEE1C22380F1C2F9C7EFE02C
:1033B8000FBC6DD111BD23AE01C4EFF04FCEADB738
:1033C80003A641C48D6793871702231CF60085471F
:1033D8005CCE83A701C89308E0022D4303C707000A
:1033E800B305A60005051375F50F09CF93861700D9
:1033F800630917052380E50023A0D1C8630465008D
:10340800B687E9BF83A7C1C113D70701231DF600FB
:10341800231AE600EFE0AFB5E31805DA83A6C1C1C9
:1034280003C701C423AED1C423A801C423A601C283
:10343800A38801C8BD4663F3E60251472380E1C46F
:1034480061B323A0D1C803C717009386270023A020
:10345800D1C82304E6002545B68749B72254B2509F
:1034680092540259F249624AD24A424BB24B4561E0
:103478006FE0AF9D03A7C1C1CDBB7D55EFF05FB233
:10348800E31405D403A7C1C1CDB303A7C1C1D54572
:103498009337170023AEE1C4B307F04023A601C257
:1034A8005145A388F1C86FE02FB339715AD083C74B
:1034B80001C406DE22DC26DA4AD84ED652D456D2C9
:1034C8005ECE62CC66CA6AC86EC65547630BF70003
:1034D80083C701C45147631FF726EFF01FFB63162C
:1034E800051A03D781AF938481AF2394E40009E7D9
:1034F80083C721C963980726239C01AE054C630145
:10350800071803C711C99307F00F6312F70683A7BB
:10351800C1C16385072283C701C449476317F70000
:1035280003C751C18D47631FF72683A7C1C523A6CB
:10353800F1C2EFF00FD1631A051403A7C1C2094500
:1035480023A4E1C0EFF02F8E6311051403A701C176
:1035580083A781C26303F7207D55EFF07FA463162C
:10356800051283A701C5A38801C823A6F1C2EFE00D
:103578006FA483D541C583A6C1C203C711C983C738
:1035880081C603C851C81385F5FF3376D500998FD6
:10359800420603D784004182B3970701918F63F3F2
:1035A800E7003E87AE8D6361B710630E0610B38DDA
:1035B800C540C20D93DD0D01636CB719EFE0AF9004
:1035C80069E583D541C583A6C1C21385F5FF03A765
:1035D80081C203D681AFDC40758D93950D012A9782
:1035E800B297C18163840D021386F5FF42064182BA
:1035F80005063E96850783C6F7FF0507A30FD7FE86
:10360800E39AC7FE83A6C1C203D681AF83D78400DD
:10361800B69D2E968D8F23A6B1C32394F400239CC8
:10362800C1AEEFE0CF9435E103A7C1C283A601C5BF
:1036380063F6E60023A8E1C4238981C983D741C57D
:10364800FD17F98F95EB83C711C903C781C6850795
:1036580093F7F70FA388F1C863E0E70203A7C1C592
:10366800014523A4E1C0EFE01FFC05E183C7C1C603
:10367800F9CBFD57A388F1C803D78400E31307E803
:1036880083C741C10145639F070EF2506254D2546B
:103698004259B259225A925A025BF24B624CD24CAE
:1036A800424DB24D21618280B38DC540C20D93DD7C
:1036B8000D016373B701BA8DE31206F083A701C544
:1036C800E3F7F6F0E5BD83D781AFCC40BE9593F71D
:1036D8003500EDF7335A0701937DFA0F6E85EFD069
:1036E800AFC145F583C751C803D7840083C611C944
:1036F800B317FA001396070183A8C1C203D881AF94
:103708004182118FEE96420703A501C593F6F60F85
:10371800C69741834296A388D1C823A6F1C22394B1
:10372800E400239CC1AE6376F50023A8F1C4238985
:1037380081C983C781C6E3E4F6DC0DB7EFF06FFFFC
:10374800E30C05E099B703D78400A38801C845BBFB
:10375800BA8DADB51305400B0DBFEFE0FFE4E30DE7
:1037680005DE25B76254F250D2544259B259225A52
:10377800925A025BF24B624CD24C424DB24D2161DF
:103788006FF07F866254F250D2544259B259225A8D
:10379800925A025BF24B624CD24C424DB24D2161BF
:1037A8006FE09FE01305100BCDB5B3C7A5008D8B57
:1037B8003307C50081E78D4763EEC700AA876370AA
:1037C800E50A83C6050085078505A38FD7FEE3EACA
:1037D800E7FE828093763500AA8791CA83C60500E2
:1037E80085078505A38FD7FE93F63700FDB7937637
:1037F800C7FF138606FE63F0C70683A3050083A2EE
:10380800450083AF850003AFC50083AE050103AE55
:10381800450103A3850183A8C5019385450223A01B
:10382800770003A8C5FF23A2570023A4F70123A606
:10383800E70123A8D70123AAC70123AC670023AE59
:1038480017019387470223AE07FF75B79041910789
:10385800910523AEC7FEE3EBD7FEE3E4E7F68280EB
:1038680039713EDA2ED232D436D63AD842DC46DE28
:1038780097D7FF1F938787FE22CC804326CA06CEA0
:10388800AA8409C41C4C99E32285852B0C44541046
:103898002686228536C6EF00501DF2406244D24487
:1038A80021618280011197D7FF1F938727FB22CCC4
:1038B800804306CEAA8519C41C4C89E72AC62285EE
:1038C8002D2BB245104422856244F24005616F00F9
:1038D800B07E011126CA4AC806CE22CC4EC652C4B2
:1038E800AA842E8901C51C4D91E3012B9C4C804470
:1038F80099E326851923971700009387E742631CED
:10390800F402C0408357C400A18BB1C71C48A1C7AB
:10391800FD59294A1C4483450900FD17B1E91CC417
:1039280063DE07062286A94526855520FD576308CC
:10393800F502294535A0971700009387E7406314DF
:10394800F4008044C1B7971700009387E73BE31B57
:10395800F4FAC04445BFA2852685152A55D97D5558
:10396800F2406244D2444249B249224A0561828007
:103978001CC4050963D70700184C63CBE7006389AB
:1039880045011C401387170018C02380B70059B79A
:10399800228626852D28E31F35F7D1B71C401387CB
:1039A800170018C029472380E70061B797D7FF1F82
:1039B8009387C7EAAA8588436FF0BFF1AA8703C730
:1039C800050085078505A38FE7FE75FB8280011139
:1039D80022CC26CA4AC806CE4EC6AA842E8932846C
:1039E80001C51C4D91E31129971700009387C73330
:1039F8006319F406C0401C4C1CC48357C400A18B37
:103A0800C9C31C48BDCF1C4808409379F90F1379E6
:103A1800F90F1D8D5C486346F500A2852685752C37
:103A28002DE51C440505FD171CC41C401387170011
:103A380018C0238037015C486389A7008357C400F6
:103A4800858B81CBA9476316F900A2852685712449
:103A58000DEDF24062444A85D2444249B2490561BB
:103A68008280971700009387272E6314F400804400
:103A780059B79717000093872729E31EF4F6C04427
:103A88009DBFA285268521203DDD7D59D9B74111ED
:103A980097D7FF1F938787DC26C2844322C44AC076
:103AA80006C62A892E8489C49C4C99E32685B126AA
:103AB8009717000093874727631CF402C040031739
:103AC800C40093170701C18393F68700B5EE93F6F8
:103AD80007019DEEA5472320F90013670704231665
:103AE800E4007D55B240224492440249410182805B
:103AF80097170000938747256314F4008044C1B7E3
:103B08009717000093874720E31BF4FAC04445BF8A
:103B1800918B8DC74C5889C9930744046384F50079
:103B28004A85892B232A04028357C40023220400D0
:103B380093F7B7FD2316F4001C481CC08357C40034
:103B480093E787002316F4001C4881EF8357C400CD
:103B58001307002093F707286385E700A2854A85A5
:103B680095298357C40013F7170005C75C48232419
:103B78000400B307F0401CCC1C480145A5F7831787
:103B8800C40013F7070839DF93E707042316F40086
:103B980089BF898B014791E3584818C4F1BF83D77F
:103BA800C500011122CC26CA06CE4AC84EC613F754
:103BB8008700AA842E8471EFD841634DE000B84194
:103BC800634AE0000145F2406244D2444249B249A6
:103BD8000561828058547DD703A904009396370164
:103BE80023A0040063DD060670488357C400918B48
:103BF80099C75C401D8E5C5899C33C401D8E5C542F
:103C08000C50814626858297FD570357C400631DD3
:103C1800F5009440F54763E8D706B70740208507C5
:103C2800B3D7D700858BA5C31C48232204001CC02A
:103C38009317370163D80700FD576314F5009C40BC
:103C480091E368C84C5823A02401ADDD93074404D0
:103C58006384F50026853929232A0402A5B70C5068
:103C68000146854626850297FD572A86E31FF5F605
:103C78009C40A5DF75476385E70059476394E704CF
:103C880023A0240181B7136707042316E4007D5598
:103C98001DBF83A90501E38709F203A905008D8BE0
:103CA80023A0350133093941014791E3D84918C4A4
:103CB800E35A20F11C540C50CA864E8626858297FA
:103CC8006349A0008357C40093E707042316F40050
:103CD8007DBFAA993309A940E1BF9C49A5C3011139
:103CE80022CC06CE2A8411C51C4D81E72EC631226E
:103CF800B2459717000093872703639CF5004C4053
:103D08008397C5009DC722856244F24005616FF024
:103D18001FE997170000938727036394F5000C4465
:103D2800C5B797170000938727FEE39BF5FC4C4423
:103D3800C1BFF2406244014505618280014582802D
:103D4800411122C406C62A842316B5002317C500CC
:103D5800232005002322050023240500232205062D
:103D680023280500232A0500232C05002146814528
:103D78001305C505EFC07FA2971700009387E7BE1C
:103D88005CD097170000938747C11CD49717000091
:103D9800938787C55CD497170000938747C800D0DE
:103DA8001CD8B240224441018280970500009385C7
:103DB80005F3B1AA411126C2130680069384F5FFC4
:103DC800B384C4024AC02E8922C406C69385440718
:103DD800912E2A8401CD23200500232225013105B7
:103DE80008C4138684068145EFC03F9B2285B240F4
:103DF800224492440249410182801C4DB5E7411199
:103E080006C622C497070000938767FA1CD5971740
:103E180000009387A7FB9C4323240504232605045D
:103E2800232805046314F50085471CCD2A8435280A
:103E380048C022851D2808C42285052848C4484052
:103E480001469145EFF0DFEF08440546A545EFF040
:103E58003FEF48440946C945EFF09FEE85471CCC23
:103E6800B2402244410182808280411197170000AC
:103E78009387C7F526C284434AC006C69C4C22C411
:103E88002A8981E72685EFF05FF7938484048044CC
:103E9800DC40FD1763D607009C40B9CF8440C5BFFE
:103EA8000317C40039E7C1778507232204062320B6
:103EB800040023220400232404005CC423280400F3
:103EC800232A0400232C0400214681451305C40538
:103ED800EFC0BF8C232A0402232C040223240404E9
:103EE800232604042285B240224492440249410117
:103EF80082801304840671BF91454A85EFF09FEBD9
:103F080088C049FDB1472320F9000144E1BF797118
:103F180022D44AD052CC56CA5AC85EC606D626D231
:103F28004ECE2A8AAE8A130485040149054BFD5BEF
:103F380009ECB25022544A8592540259F249624A15
:103F4800D24A424BB24B45618280044483294400E3
:103F5800FD1963D409000040E1BF83D7C400637B27
:103F6800FB008397E40063877701A6855285829AD0
:103F78003369A90093848406E1BF1971A6DAAE8477
:103F88008395E500A2DC86DE328463DC050083D7F6
:103F9800C40023A0060093F7070885E793070040AD
:103FA8001DA0300836C6EF00102DB246E34105FECD
:103FB8007247BD67F98F7977BA9793B717009CC294
:103FC800F1BF930700041CC0F6506654D65401454F
:103FD8000961828083D7C500011122CC06CE26CA8A
:103FE8004AC8898B2E8489CF930774041CC01CC8C7
:103FF80085475CC8F2406244D244424905618280E8
:1040080074003000AA84EFF05FF7A2452A8926855C
:10401800112A01ED8317C40013F7072061FFF19BF4
:1040280093E727002316F400C1B79707000093878A
:1040380007D89CD48357C40008C008C893E707086A
:104048002316F400A2475CC8B24791CF8315E40059
:104058002685EF00F02401C98357C400F19B93E73C
:1040680017002316F4008357C4003369F900231698
:10407800240149B7DDC583A7C5FF411122C406C67F
:1040880026C21384C5FF63D307003E94AA84EF00B9
:10409800102897C7FF1F9387E77C9C4391EF232243
:1040A800040097C7FF1F23AF877A2244B2402685B2
:1040B800924441016F00D025637EF4001440330719
:1040C800D4006396E7009843DC43369718C05CC079
:1040D800C9BFBA87D84319C3E37DE4FE9443338646
:1040E800D700631F86001040B29694C33386D7006A
:1040F800E31DC7FA10435843B29694C3D8C375B7A3
:104108006375C400B1479CC04DB71040B306C400E6
:104118006316D70014435843B29614C058C0C0C39E
:1041280069B78280011126CA93843500F19806CEBA
:1041380022CC4AC84EC6A104B14763F5F404B14481
:1041480063E4B4042A89EF00901C93878180984324
:104158003A8429E49387C1809C4399E781454A853D
:10416800EF00E07D23A6A180A6854A85EF00207D8B
:10417800FD5963193507B1472320F9004A85EF0037
:10418800301929A0E3DE04FAB1471CC10145F24009
:104198006244D2444249B249056182801C40858FFD
:1041A80063CF0702AD4663F6F6001CC03E9404C018
:1041B80031A05C406313870223A4F1804A85EF0095
:1041C80030151305B4009307440061993307F5408F
:1041D8005DDF3A94898F1CC05DBF5CC3C5B7228779
:1041E800404085BF130435007198E30285FCB30590
:1041F800A4404A85A927E31C35FBB5BF1C46FD171B
:104208001CC663DA0700184E63C5E700A947639424
:10421800F5006FF0CFFB1C422E851387170018C2DC
:104228002380B7008280011122CC26CA4AC84EC614
:1042380052C406CE2A89AE893284B304D6007D5A88
:1042480063149400014511A8834504004E864A85ED
:10425800EFF0DFFA0504E31545FFF2406244D2446B
:104268004249B249224A05618280357122CD26CB66
:104278004AC94EC706CF52C556C35AC1DEDEE2DC74
:10428800E6DAAA89AE843289368409C51C4D99E3D9
:10429800EFF0BFB697170000938707A9639DF40C4A
:1042A80083A4490083D7C400A18BE5CB9C48F5C7FC
:1042B80093070002A304F1029307000302D2230527
:1042C800F10222C6930B5002971A0000938ACAA9DA
:1042D800054C294B4A848347040099C36392770F9E
:1042E800B30C2441638E0C00E6864A86A6854E856B
:1042F800EFF07FF3FD576307F51E9256E69636D228
:10430800834704006380071EFD571309140002C881
:1043180002CE3ECA02CCA309010482D48345090017
:1043280015465685EF00007D13041900C24759E968
:1043380013F7070109C713070002A309E10413F7DC
:10434800870009C71307B002A309E10483460900DF
:104358001307A0026380E608F2474A84814625468F
:104368000347040093051400130707FD6379E60A61
:10437800B5CA3ECE85A8971700009387E79C63953A
:10438800F40083A4890039BF971700009387C79763
:10439800E39AF4F083A4C90031B7A6854E85EFF0FF
:1043A8000FEF19D57D55FA406A44DA444A49BA49AB
:1043B8002A4A9A4A0A4BF65B665CD65C0D61828093
:1043C800050411BF330555413315AC00C98F3EC8EC
:1043D8002289A9B7324793064700184336C663496E
:1043E80007023ACE034704009307E002631FF7046D
:1043F800034714009307A002631BF702B24709049E
:10440800138747009C433AC663C107023ECA35A8D2
:104418003307E04093E727003ACE3EC8E1B7B387B9
:10442800670385462E84BA9725BFFD57C5B705048F
:1044380002CA8146814725460347040093051400B4
:10444800130707FD6376E606F1F2834504000D467F
:10445800171500001305C591712D11CD9717000090
:10446800938707911D8D93070004B397A7004245D2
:1044780005045D8D2AC883450400194617150000F8
:104488001305458F130914002304B102A5253DC166
:1044980097C7FFFF938787B695E74247B2471377D9
:1044A800071009CF91073EC69257D2973ED21DB545
:1044B800B387670385462E84BA97BDBF9D07E19BE6
:1044C800A107D5B7780097060000938606D62686FA
:1044D8000C084E8597000000E7000000FD572A8A67
:1044E800E314F5FC83D7C40093F70704E39C07EAB9
:1044F800125555BD780097060000938606D3268688
:104508000C084E85012AD9BF797156CA9C49BA8AC6
:10451800984522D426D24ECE52CC06D64AD05AC876
:104528005EC6AA892E84B284368A63D3E700BA8726
:104538009CC00347340419C385079CC01C4093F7EB
:10454800070281C79C4089079CC00329040013798E
:104558006900631A0900130B9401FD5B5C449840E1
:10456800998F634CF9041C408346340493F707027F
:10457800B336D000A5EB13063404D2854E85829A53
:10458800FD576303F5041C4011469840998B544429
:1045980081446397C700B384E64063D30400814431
:1045A8001C4418486354F700998FBE940149690464
:1045B8007D5B63982405014509A885465A86D285FE
:1045C8004E85829A631E75017D55B25022549254CD
:1045D8000259F249624AD24A424BB24B4561828043
:1045E8000509ADBF3307D40013060003A301C704B0
:1045F8000347540493871600A2978906A381E7040A
:104608009DBF85462286D2854E85829AE30E65FB3C
:10461800050945B7797122D426D24AD04ECE06D69E
:1046280052CC56CA5AC8B68983C685019307E00694
:104638003289AA842E84138635046381F61E63E2C8
:10464800D706930730066382F60A63EDD700638BBB
:10465800061E930780056387F616930A2404230130
:10466800D40469A8930740066386F600930790066A
:10467800E395F6FE1C40084393F6070893054500AA
:10468800C1C21C410CC363D807001307D002B3078B
:10469800F040A301E404970600009386266E29479C
:1046A80065A0930730076383F61A63EFD700930773
:1046B800F006638FF60493070007E390F6FA9C412F
:1046C80093E707029CC109A8930750076382F60481
:1046D80093078007E393F6F893078007A302F4048F
:1046E800970600009386C66AE5A01C43938A2504B2
:1046F800938647009C4314C32381F5048547B5A2DC
:1047080093F607041C410CC3BDDEC207C187A5BFD1
:104718000C401C4313F8050813854700630508007F
:1047280008C39C4339A093F5050408C3FDD983D772
:1047380007001307F006638BE60C970600009386C4
:10474800E6632947A30104044C400CC463C5050073
:1047580008406D9908C099E3B28A91CDB28AB3F541
:10476800E702FD1AB69583C505002380BA00B3D5C4
:10477800E70263F3E70AA147631EF7001C40858B35
:1047880091CB58401C4863C7E70093070003A38FE9
:10479800FAFEFD1A3306564110C84E87CA867000C5
:1047A800A2852685EFF05FD67D5A6314450D7D55A9
:1047B800B250225492540259F249624AD24A424BA8
:1047C80045618280A382D504970600009386065B24
:1047D8000C40084313F805081C4111056300080242
:1047E80008C313F7150001C793E505020CC041473C
:1047F800B1FB0C4093F5F5FD0CC0A9B713F80504FF
:1048080008C3E30008FEC207C183E1BF97060000A2
:104818009386C65621473DB7AE8791B794411C434E
:10482800CC4913F80608138547006306080008C337
:104838009C438CC301A808C393F606049C43F5DA8D
:104848002390B70023280400B28A81BF1C43D041BB
:1048580081459386470014C383AA07005685592CBF
:1048680001C53305554148C05C401CC8A301040478
:104878002DB714485686CA8526858299E30945F3DB
:104888001C40898B8DE7B2474844E353F5F23E85D7
:1048980005B785465686CA8526858299E30965F156
:1048A800050A5C443247998FE345FAFEE9BF014A9D
:1048B800930A94017D5BF5B7011122CC06CE2A84B8
:1048C80009C91C4D99E732C62EC4EFF00FD3324602
:1048D800A24597070000938727456316F6025040C4
:1048E8001C46FD171CC663D00704184E63C7E700B3
:1048F80093F7F50F29476398E70222856244F2404F
:1049080005616FF0CF8C970700009387E743631426
:10491800F6001044F1B7970700009387E73EE311CC
:10492800F6FC504475BF1C4213F5F50F13871700AA
:1049380018C22380B700F2406244056182804111A9
:1049480022C42A842E8523AA01C806C63D24FD5701
:104958006317F500938741C99C4391C31CC0B240BB
:10496800224441018280411122C42E848395E500AE
:1049780006C64522634905007C48AA977CC8B24010
:104988002244410182808357C4007D777D17F98FC7
:104998002316F400EDB783D7C500011122CC26CA2F
:1049A8004AC84EC606CE93F70710AA842E843289C9
:1049B800B68991C78395E500894601463122835718
:1049C800C4007D777D17F98F2316F4008315E40062
:1049D8006244F240CE864A86B24942492685D2448C
:1049E80005613DA8411122C42E848395E50006C6C1
:1049F800E128FD570357C400631BF500FD77FD1739
:104A0800F98F2316F400B240224441018280856761
:104A1800D98F2316F40068C8FDB78395E50005A86B
:104A2800411122C42A842E85B285368623AA01C85C
:104A380006C6EFC00FB6FD576317F500938741C947
:104A48009C4391C31CC0B240224441018280411161
:104A580022C42A842E8523AA01C806C6CD20FD5764
:104A68006317F500938741C99C4391C31CC0B240AA
:104A7800224441018280411122C42A842E85B285B4
:104A880023AA01C806C6D120FD576317F5009387EE
:104A980041C99C4391C31CC0B24022444101828059
:104AA800411122C42A842E8523AA01C806C665207E
:104AB800FD576317F500938741C99C4391C31CC0F8
:104AC800B240224441018280411122C42A842E85A9
:104AD800B285368623AA01C806C66120FD5763172A
:104AE800F500938741C99C4391C31CC0B24022443E
:104AF8004101828093F5F50F2A966314C50001459C
:104B0800828083470500E38DB7FE0505FDB78280E7
:104B18008280411122C42A842E85B285368623AA32
:104B280001C806C6A920FD576317F500938741C938
:104B38009C4391C31CC0B240224441018280930728
:104B4800800523AAF1C87D5582809307800523AA92
:104B5800F1C87D5582809307800523AAF1C80145D5
:104B680082809307800523AAF1C87D558280930728
:104B7800800523AAF1C87D558280938701819C43D3
:104B880091C73E9523A8A1803E858280938781C9DD
:104B98003E9523A8A1803E85828000004572726FF1
:104BA800723A20253032580A0000000053746172AE
:104BB8007420404368697049443D25303258200AC2
:104BC8000000000057616974204469736B52656185
:104BD80064790000253032780A000000437265616C
:104BE800746500002F4E455746494C452E5458547D
:104BF800000000004279746557726974650000000E
:104C08004E6F74653A200D0AD5E2B8F6B3CCD0F2EF
:104C1800CAC7D2D4D7D6BDDACEAAB5A5CEBBBDF801
:104C2800D0D055C5CCCEC4BCFEB6C1D0B42C353717
:104C380033BCF2B5A5D1DDCABEB9A6C4DCA1A30DAB
:104C48000A000000B3C9B9A6D0B4C8EB2025303299
:104C580058B4CE0A00000000436C6F736500000072
:104C680062C0FFFF8AC0FFFFB2C0FFFFCAC0FFFFDC
:104C7800E4C0FFFF5553422064657620696E00004A
:104C880055534220646576206F75740052657365CC
:104C98007420686F737420706F72740078253032D6
:104CA8005820000047657443666744657363723A29
:104CB80020000000496E6974526F6F744465762055
:104CC800457272203D20253032580A0044697361CC
:104CD800626C6520686F737420706F7274206265EF
:104CE8006361757365206F6620646973636F6E6EA8
:104CF8006563740047657444657644657363723A06
:104D0800200000000000000000000000000000007B
:104D1800000000000000000000000000000000008B
:104D2800000000000000000000000000000000007B
:104D3800000000000000000000000000000000006B
:104D4800000000000000000000000000000000005B
:104D5800000000000000000000000000000000004B
:104D680000000000232D302B20000000686C4C0050
:104D7800656667454647000030313233343536378B
:104D8800383941424344454600000000303132334F
:104D9800343536373839616263646566000000006F
:104DA800020100000000000080060002000004006C
:104DB800800600010000120000050200000000004B
:0C4DC800000900000000000000080020AE
:104DD400000000002C4D00004C4D00000C4D000064
:104DE40000000000000000000000000000000000BF
:104DF40000000000000000000000000000000000AF
:104E0400000000000000000000000000000000009E
:104E1400000000000000000000000000000000008E
:104E2400000000000000000000000000000000007E
:084E340000080020000000004E
:00000001FF
