:040000006F00901AE3
:100004000000000000000000900000208A0400208E
:10001400A9BDF9F5900000200000000000000000D8
:10002400900000209000002000000000000000006C
:10003400900000200000000090000020000000005C
:1000440090000020900000209000002090000020EC
:1000540090000020900000209000002090000020DC
:1000640090000020900000209000002090000020CC
:1000740090000020900000209000002090000020BC
:1000840090000020900000209000002090000020AC
:1000940001A073270080218B9387818009CB73276C
:1000A400008023A4E18098435D9B731007800100C6
:1000B400010037170040930670052300D704930608
:1000C40080FA2300D704010001008346B70493F6A5
:1000D400F60DA305D7042300070473260080944378
:1000E400A18AD18E7390068023A4018001000100AF
:1000F40093760502638406180347A700118B25E74E
:1001040073270080218B09CB7327008023A4E1800F
:1001140098435D9B7310078001000100371700406E
:10012400930670052300D704930680FA2300D704AE
:10013400010001008346A70093E646002305D7008B
:1001440023000704F32600809843218B558F7310F6
:10015400078023A40180010001001307004B010064
:1001640001007D176DFF73270080218B09CB732756
:10017400008023A4E18098435D9B731007800100F5
:10018400010037170040930670052300D704930637
:1001940080FA2300D704010001007D892314A700FD
:1001A400010001000100010023000704F326008080
:1001B4009843218B558F7310078023A4018001007D
:1001C400010073270080218B09CB7327008023A4AF
:1001D400E18098435D9B731007800100010037178D
:1001E4000040930670052300D704930680FA230089
:1001F400D7040100010001000100B72600401306E6
:100204001005A383C68023000704F32600809843C7
:10021400218B558F7310078023A4018001000100F6
:1002240073270080218B09CB7327008023A4E180EE
:1002340098435D9B7310078001000100371700404D
:10024400930670052300D704930680FA2300D7048D
:10025400010001008346B70493E60608A305D7040A
:1002640023000704732700809C43A18BD98F7390CC
:10027400078023A401800100010082809376050495
:10028400638B06140347A700418B25E7732700807F
:10029400218B09CB7327008023A4E18098435D9BC5
:1002A40073100780010001003717004093067005A2
:1002B4002300D704930680FA2300D7040100010029
:1002C4008346A70093E606012305D700230007040D
:1002D400F32600809843218B558F7310078023A445
:1002E4000180010001001307007D010001007D175A
:1002F4006DFF73270080218B09CB7327008023A413
:10030400E18098435D9B731007800100010037175B
:100314000040930670052300D704930680FA230057
:10032400D704010001009376F50193E60604231433
:10033400D700010001000100010023000704F32697
:1003440000809843218B558F7310078023A401806C
:1003540001000100130760046310E50473270080A3
:10036400218B09CB7327008023A4E18098435D9BF4
:1003740073100780010001003717004093067005D1
:100384002300D704930680FA2300D7040100010058
:10039400B72600400946B5B573270080218B09CBE9
:1003A4007327008023A4E18098435D9B731007802A
:1003B4000100010037170040930670052300D7049D
:1003C400930680FA2300D70401000100B7260040F9
:1003D400130620053DB573270080218B09CB7327B5
:1003E400008023A4E18098435D9B73100780010083
:1003F400010037170040930670052300D7049306C5
:1004040080FA2300D704010001008356870093E695
:10041400060C2314D700C5BB411181460146814512
:10042400114506C6192CF3270080A18B9386818081
:1004340089CBF327008023A4F1809C42DD9B739039
:10044400078001000100B7170040130770052380DF
:10045400E704130780FA2380E7040100010003C7BF
:100464006704136717002383E704238007047327B3
:1004740000809C42A18BD98F7390078023A40180B4
:1004840001000100B240410182808146014681455C
:1004940011456522F3270080A18B1387818089CBC6
:1004A400F327008023A4F1801C43DD9B7390078015
:1004B40001000100B7170040930670052380D7049C
:1004C400930680FA2380D70401000100FD56239689
:1004D400D70223800704F32600801C43A18BD58F09
:1004E4007390078023A4018001000100F32700809A
:1004F400A18B89CBF327008023A4F1801C43DD9BCF
:100504007390078001000100B7170040930670053F
:100514002380D704930680FA2380D70401000100C6
:1005240083C6670493E616002383D7042380070455
:10053400F32600801C43A18BD58F7390078023A4DE
:1005440001800100010001A0BD473305F50201004F
:100554007D1575FD8280411122C426C206C6AA8477
:10056400014463179400B2402244924441018280C2
:1005740005041305803E4204C13F4180DDB72303D7
:10058400048015472303E48001002302A4808280B1
:1005940083076480E3CE07FE2303048082808307FD
:1005A4006480E3CE07FE0345448082808307648031
:1005B400E3CE07FE2302A4808280411126C44AC2EE
:1005C4004EC006C61377F50BAD47AA892E8995440C
:1005D4006306F70019456537653F8D444E854537F9
:1005E400FD59FD1463983401B240A2441249824972
:1005F40041018280135509011375F50F453F220906
:10060400CDB7011126CC06CEB704080051371545E5
:10061400BD37713769372AC6A53F32459377150030
:1006240089EB136515001375F50FF240E24405617B
:100634008280FD14E9FC0145CDBF397126DC4ADA1C
:100644004ED852D656D45AD25ED006DE62CE66CC8E
:10065400B7E700E07D5783AA070022C603AA470034
:1006640023A0E71823A2E718B71700401307700563
:100674002380E704130780FA2380E70483C7470431
:10068400930B75FFB684E20793FBFB0F8546AA899B
:100694002E8B328937240040E187015763FA7601B3
:1006A4006308D5008946130700026313D500015778
:1006B400D98F93F7F70FB71C00402382FC0411472E
:1006C4002303E4801305F00F5D3D094CD135636DC0
:1006D4007C11B7050700DA9537870700795563F26F
:1006E400E504B3879500636EF702370B0800A9474A
:1006F40033EB65016399F90689E48144513D26850C
:100704000DA0DA850945553D05090345F9FFFD149A
:10071400050B693D81C49377FB0FFDF7DD3569FD5A
:100724007D55B7170040130770052380E7041307AE
:1007340080FA2380E70403C74704418B2382E7043C
:10074400F250B7E700E023A0571123A24711E25467
:1007540032445259C259325AA25A125B825B724CC9
:10076400E24C21618280A5476395F90685691309E6
:10077400F00FB3069900B3742B01B6941349F9FF33
:10078400B3749900856B33796901416B9387F9FFE1
:10079400B3F7270199E363FC340193D94900C147B6
:1007A400E3E637FF99BF0569C1697D19D9B7130518
:1007B400800D6388690113050002638479011305C0
:1007C4001008CA85DD3B353D21DD4E99B3843441A3
:1007D400D9B7DA852D45D533CA94E30099F20509D2
:1007E4007D3BA30FA9FED5BF9387F9FF93F7F70FBE
:1007F4006361FC0C83C71C0413073008631FF704F0
:1008040037070800636BEB04B3079B00B7061000BF
:1008140063F5D704334BEB0089476393F90689806A
:10082400D549E38C04ECDA850945413B11090327DA
:10083400C9FF91472320E48003076480E34E07FE49
:1008440023033481FD17EDFBFD14110B81C4937751
:10085400FB0FE9FF7D3371F5E1B5B717004003C71E
:100864005704B70708001377070219E3B78707008F
:100874007955E378FBEA33079B00E3FFE7F855B5C6
:100884008547E382F9F2DA852D45053B9389F4FF28
:10089400E38504E6293393F7390091EB832604803A
:1008A4000327090093074900E39AE6E43E89CE84CE
:1008B400F1BFB5476396F9001305900BC93135BDF7
:1008C400B1471305B00AE38BF9FE99476391F90424
:1008D400B7050800B365BB002D45C53181448D4B78
:1008E400A149753963967401832704802320F90094
:1008F4008504E39834FF8327048013172B01635581
:1009040007002312F900D5BB2322F900FDB39D474C
:100914006399F90281451305B0044531BD44232090
:10092400090023220900FD599D3993F77400CA97E1
:1009340003C70700FD14398D2380A700E39634FF15
:100944006DBBA1476392F9046D398144630D0B00BB
:100954008D479304C0036308FB00930400056304FC
:100964008B01930440041375C507E30895D8194512
:10097400393139390545213126850D3909453D314E
:100984004931E31C05D669BB91476399F900130506
:100994006006F536F53E130590090DB7E38F09D4CB
:0409A400F154A9BBA6
:1009A80097110020938101861771002013010165BA
:1009B8001305400097F5FF1F93854564170600202F
:1009C800130606FE63FAC5008322050023A055001E
:1009D80011059105E3EAC5FE174500001305C56A30
:1009E800970500209385C5FB1386818063FAC500AF
:1009F8008322050023A0550011059105E3EAC5FEF1
:100A080013858180938581C66377B500232005000F
:100A18001105E36DB5FEFD42739002BC8D427390E3
:100A28004280930280087390023097F2FF1F9382EE
:100A3800E25C93E232007390523097020000938296
:100A4800020D73901234730020303D432A8763737C
:100A5800C3029377F700BDEFADE5937606FF3D8AB5
:100A6800BA960CC34CC30CC74CC74107E36BD7FEFF
:100A780011E28280B306C3408A0697020000969668
:100A88006780A6002307B700A306B7002306B700B0
:100A9800A305B7002305B700A304B7002304B700D4
:100AA800A303B7002303B700A302B7002302B700CC
:100AB800A301B7002301B700A300B7002300B700C4
:100AC800828093F5F50F93968500D58D9396050151
:100AD800D58D61B793962700970200009696868277
:100AE800E78086FA9680C1171D8F3E96E374C3F897
:100AF800A5B719C94111AA85174500001305C535C1
:100B080006C6EF30600301A0828079711305800466
:100B180006D622D426D2371400404AD04ECE52CC24
:100B280056CA5AC85EC662C466C26AC097F0FF1F3A
:100B3800E780E0558327840A85451305001093E76D
:100B480007202324F40A31218D45130500201121A3
:100B58008D2B83451404174500001305E5303789AC
:100B68000040EF20707D9387018223A8F18093874E
:100B7800018623AAF180EF00D034852E8544238690
:100B88000180D549174A0000130A8A2F974A0000A6
:100B9800938A0A30138B01C1974B0000938B4B3615
:100BA800834769000145858B81CB23039900B923CD
:100BB800631435012386918083C7C18099E3631943
:100BC800350D1305800C2386018097000020E780EF
:100BD8004098EF00D034631D050A91472388F1C07F
:100BE80029445285EF30000AEF10E077AA8511CD2D
:100BF8005685EF2070747D14130520031374F40FC9
:100C080097000020E780E09469FC83470B001147B8
:100C18006370F7081745000013050528EF308006B4
:100C2800974500009385C527138541B0EF308006AE
:100C3800EF2090047D3D1745000013056527EF3030
:100C4800600497450000938565271385018AEF3076
:100C580060040144130D1004938C018A294C2392DB
:100C6800A1B123A491B1EF20D0316135A2855E8571
:100C78000504EF20706CE31484FF1745000013058A
:100C88006529EF302000238291B0EF204068953528
:100C98001305400697000020E780A08B0545F92939
:100CA80001B76F00700F797122D426D24AD04ECE88
:100CB80052CC56CA5AC85EC662C466C206D6AA8450
:100CC8002E8C0144930900F8138A01C4A94A130B16
:100CD8008002938BC1C0938C81C10D4983C751C5D4
:100CE800B397F4002384F18613D78700A384E186A1
:100CF80013D70701E1832385E186A385F18623863F
:100D0800318783470A006285A386F1862387518746
:100D1800A38761872388018683A70B0013D78701E0
:100D2800A388E18613D707012389E18613D78700B3
:100D3800A389E186238AF186A38A0186238B01860B
:100D4800A38B9186238C0186EF00305883C70C0053
:100D580093F7F70FB1C72285EF10A023238CA1C00A
:100D680083C70C0093F7F70F95C303C50C001375E1
:100D7800F50FB250225492540259F249624AD24AAB
:100D8800424BB24B224C924C45618280050413744D
:100D9800F40FE31524F5FD47238CF1C07D45D1BF41
:100DA8000145C1BF797122D426D24AD04ECE52CC49
:100DB80056CA5AC85EC662C406D6AA84AE8B014417
:100DC800938901C4294A930AA002138BC1C0138CCA
:100DD80081C10D4983C751C5B397F4002384F186B7
:100DE80013D78700A384E18613D70701E1832385FE
:100DF800E186A385F1862386018683C709005E857F
:100E0800A386F18623874187A38751872388018694
:100E180083270B0013D78701A388E18613D707011F
:100E28002389E18613D78700A389E186238AF1867F
:100E3800A38A0186238B0186A38B9186238C018646
:100E4800EF00B04883470C0093F7F70F85E71305C9
:100E5800800C97F0FF1FE780E06E0145B2502254E6
:100E680092540259F249624AD24A424BB24B224C3E
:100E7800456182802285EF10C011238CA1C0834771
:100E88000C0093F7F70F91C703450C001375F50F86
:100E9800F1B705041374F40FE31E24F3FD47238C04
:100EA800F1C07D4565BF37870040834737008946D5
:100EB80093F7F707A301F700834757000347370065
:100EC80093F7F70F1377F70F631BD70093F6170005
:100ED80099C6918B014581CB2388E1C082808547E3
:100EE8002388F1C0594582808280411106C6EF00EF
:100EF800F03B3D479307F00F6379A7049387419030
:100F080023ACF1BE23A0F1BE238801C0A547A38A64
:100F1800F1C4930700202392F1C223AA01C29307C8
:100F28000004239DF1C2B78700401387C70123AA95
:100F3800E1BE1387870123AEE1C41387C702A10767
:100F480023AAE1BC23A0F1C08147B2403E854101FC
:100F58008280914763EEB70217470000130707FC2A
:100F68008A05BA959C41BA978287B717004003A7AC
:100F7800470B1345F5FF698F23AAE70A03A7070B59
:100F8800698F23A8E70A03A7070A798D23A0A70A70
:100F98008280B717004083A6470B1347F5FFF98EE9
:100FA80023AAD70A83A6070B558D23A8A70A83A6C9
:100FB800070A758F23A0E70A8280B717004003A7A6
:100FC800470B498F23AAE70A03A7070B1345F5FF29
:100FD80045BFB717004083A6470B1347F5FF758F2A
:100FE80023AAE70A03A7070A598D4DB7B717004088
:100FF80003A7470B498FEDB7B717004003D5870004
:10100800420541819377050491EB9377F5013755B4
:10101800E801130505803345F50282809377050CB6
:10102800130700046397E7009377F50137459C1C85
:10103800CDB72165130505D0828081473737004039
:10104800A14663C4C700328582800345B740E38E5A
:10105800A6FE3385F5000345050085072304A74050
:10106800CDB7970700209387E7999C43138781C6DC
:101078003E95636EE50017770020130727D863684D
:10108800A70017070020232FA7963E858280FD57CB
:10109800EDBF411122C406C62A84B93F2947B307C8
:1010A800E502B2408D83B3D7870222449507B3D7B0
:1010B800E70237370040C207C1832316F7404101D2
:1010C8008280716541111305052006C6D937B737E7
:1010D8000040130770F82381E7400D47A381E740DC
:1010E80013070004A380E74005472387E740B24081
:1010F8004101828085472388F1C08280411106C65C
:10110800B786004083C75600138701C1858B9DCBE6
:101118008347070005476307F70083C716000145A3
:10112800858B91EF85472388F1C01745000013058B
:1011380025E089472388F1C0EF20D0345545B240D7
:10114800410182800347070085470145E3F9E7FE2F
:1011580017450000130585DE2388F1C0EF20903283
:101168005945F1BF37870040834737001375F507A6
:1011780093F70708C98FA301F70082808280411185
:10118800A147014506C622C4A386F18037840040E2
:10119800D13F834714003D4593F7E70FA300F400C0
:1011A8008347140093F7970F93E72700A300F400F1
:1011B80097F0FF1FE780E039834714001305A00F5D
:1011C80093F7D70FA300F40097F0FF1FE78080374D
:1011D80085472303F400B24022444101828003C7BB
:1011E80001C1854763E5E70089472388F1C0B787D0
:1011F800004003C757005945058B01CB03C71700AB
:10120800014513671700A380E7008280397122DC4B
:1012180026DA4AD84ED652D456D25AD05ECE62CCAE
:1012280066CA6AC86EC606DEB78700402387B7025B
:10123800B78D00402A8A328D2385B702135945009D
:10124800014493846D00094C854AD54C138B01C128
:10125800854B894923844D032380840193070032F9
:1012680003C70400098B09E7FD17C207C183EDFB1B
:1012780023840D0283C70400898BE5C783C7040054
:10128800858B95C723805401953D6314950123866A
:10129800518183470B00638AFB0A83470B006388ED
:1012A800F90A1305800C97F0FF1FE780A02983C770
:1012B8000400898BD9C783C77D0093F70704D1EB56
:1012C80083C77D00394793F7F70F13F5F7006304D9
:1012D800E50829476318E50263020D08FD57630313
:1012E800FD007D1D7D141374F40F05043D45137432
:1012F800F40F97F0FF1FE780E024E3FD89F413055E
:10130800000221A825476309E902B5476304F900EB
:101318006319790579D913650502F2506254D254DC
:101328004259B259225A925A025BF24B624CD24C41
:10133800424DB24D216182809D8B0D47E39CE7FCB5
:101348006DB7FD572380F4004DB75945F9B755459A
:10135800E9B70145D9B71305E002C1B71305A002E3
:101368006DBF1305E00F55BF011126CA4AC8AE84E8
:101378002A891305800C06CE22CC4EC652C456C20A
:101388005AC097F0FF1FE780E01B99C02380040034
:1013980037840040A14789692306F402138609713E
:1013A80081451305000D9D3563150514930700FD50
:1013B8002307F4022305F40285472306F402938ADF
:1013C800418183A70A0003C4770003C7670022048A
:1013D800598C61CC630B090C83870700378A00405E
:1013E8009389097163CA07041305800C97F0FF1FDE
:1013F800E780401583C7D1806374F4009377F40FB6
:101408002306FA0281470347CA026399E710834516
:10141800EA024E864145DD3B69ED8347CA021D8CD1
:101428004204418081C88347CA0203C70400BA97AF
:101438002380F40055F895A8938A01811305800C40
:1014480097F0FF1FE78000108345AA024E86130518
:1014580000096D3B59ED03478A009377F40F6376D3
:10146800870083478A0093F7F70F1D8C4204418059
:1014780091C403C704003E972380E4000147937694
:10148800F70F6392D7083E9983478A0093F7F70FBF
:1014980089CB03478A0083C7D180FD17F98F91E371
:1014A80051FCB7870040238607021305800C97F08C
:1014B800FF1FE7802009B787004083C7C7021305CD
:1014C800000993F7F70F91E3414509661306067182
:1014D8009305000C253B11ED378700408347C70271
:1014E80093F7F70F99C78347870093F7F70F91C3CF
:1014F8005D45F2406244D2444249B249224A924A86
:10150800024B0561828083A60A00BA9603C60600CC
:10151800B306E90005072380C60095B703A70A00AC
:101528008346090005093E9785072300D70093F7EE
:10153800F70FD1BD814793854181A1463307F50057
:101548000346070098413E972300C7008507E397A5
:10155800D7FE82800111A14717450000130505B188
:1015680006CEA386F180F9379305F100138541B5BE
:10157800E53B05E1938741B583C77700A386F180F2
:101588000347F1009747000083D7A7AE6373F700BE
:101598005D45F24005618280011117450000130581
:1015A80065AC06CE22CC79379305F100138541B599
:1015B800653B2A843DE10347F1009747000083D744
:1015C800C7AA5D44636BF70483C761B5174500007C
:1015D800130545A9A307F100B13F938741819C43B7
:1015E8000347F1009305F100A38307002383E70075
:1015F800138541B5953B2A840DE10347F100930714
:10160800000463F4E700A307F1000346F1009385A3
:1016180041B513850186EF20C0462285F240624419
:1016280005618280411126C2AA841745000013056E
:1016380065A406C622C4FD3D938741819C4381452C
:10164800014523819700A3810700393B2A8401E9DA
:101658002685093E294597F0FF1FE78080EF228500
:10166800B2402244924441018280411122C42A841A
:1016780017450000130585A006C66D3D9387418177
:101688009C43B2408145238187002244A3810700FF
:1016980001454101D1B9411122C42A8417450000EE
:1016A8001305C59B06C67935938741819C43B24093
:1016B8008145238287002244A38207000145410116
:1016C80065B1B7870040130700F82380E700A380BF
:1016D8000700A381070013078004A386E70003D748
:1016E8000181239CE70003D74181239EE7002385DE
:1016F800070223870702130790F82380E7001307E0
:1017080000042383E7027D572383E70005472388E6
:10171800E1C00D472381E700238601808280011103
:10172800174500001305458206CE22CC26CA4AC8B2
:101738004EC6EF202055A1348144014413094006C8
:10174800054597F0FF1FE780C0E0513C19E5850487
:1017580093F4F40F636C990E014405041374F40FA9
:10176800E31024FFEFF01F99174500001305C5810A
:10177800EF2040515944D9A0B307890083C5070019
:101788004E850504EF20403B1374F40F93170401B2
:10179800C183E3E397FE2945EF20403E8357890044
:1017A8009744000083C4248D26852394F1B483577D
:1017B800A90083C981B52395F1B4AD352A8405E123
:1017C800173500001305C579A38291B4EF20C03600
:1017D800E1332A8497340000938404780DC9A285E4
:1017E800173500001305C578EF20003589470545F2
:1017F8002388F1C0EFF09F9891A0B307890083C5B3
:10180800070026850504EF2020331374F40F93177F
:10181800040103D761B5C183E3E1E7FE2945EF2061
:10182800E0351304B00F639B090003C721B6A14735
:101838006316F70091472388F1C001442285F240DE
:101848006244D2444249B2490561828003C561B409
:10185800EFF0DF921735000013058575EF20C02DD6
:10186800D5392A842DFD9744000083C49480A204AE
:101878009737000083C7E77FDD8C138941B5973917
:1018880000009389696D19B74111094506C622C43C
:1018980026C297F0FF1FE780C0CB83C781C1A38111
:1018A800F1C6EFF04FE0AA873DE503C701C18D46B9
:1018B8009307300863F1E60683C601C613061002D3
:1018C8002380C1867D5693870186A380C1862381A4
:1018D8000700A38107002382D700A3820700238380
:1018E8000700A383070081454134238CA1C05947D1
:1018F800AA876302E50203C541C03D89693B03C568
:1019080041C53D8913650508793383C731C6A3816D
:1019180001C6238CF1C0B240224492443E85410165
:1019280082804111054706C62388E1C0EFF0AFD792
:1019380019E113053008B24041018280411122C4E7
:1019480083A7C1C003A781C406C601456384E70213
:1019580083A501BE03A781BF23A4F1C46308B7020E
:101968000545EFF04FB4238CA1C009E903C581C137
:101978001375F50FB2402244410182807D5723AC94
:10198800E1C423A4E1C4238201BECDB7054523AC3D
:10199800F1C4EFF04FB1238CA1C069D9C5B741118B
:1019A80022C483A7C1C003A781C506C601456384B5
:1019B800E70283A581BF03A701BE23ACF1C4630876
:1019C800B7020545EFF02FAE238CA1C009E903C586
:1019D80081C11375F50FB2402244410182807D57C1
:1019E80023ACE1C423A4E1C4238201BECDB70545DD
:1019F80023A4F1C4EFF02FAB238CA1C069D9C5B7DC
:101A080083A7C1C083A501BE411103A781BF22C41A
:101A180006C623A4F1C46305B7020545EFF08FB8E5
:101A2800238CA1C001C97D5723ACE1C423A4E1C420
:101A3800238201BEB240224403C581C14101828094
:101A480023ACF1C4D9BF83A7C1C083A581BF41110D
:101A580003A701BE22C406C623ACF1C46305B702BE
:101A68000545EFF02FB4238CA1C001C97D5723ACE5
:101A7800E1C423A4E1C4238201BEB240224403C5C9
:101A880081C14101828023A4F1C4D9BF03C6C1BD6D
:101A980083A7C1C203C711C683A6C1C4F917B397E8
:101AA800C7003697BA9723A6F1C082804145828045
:101AB80083C701C193F7F70F63E6A7002388B1C076
:101AC80001458280E38EB7FEA9BD797126D213073E
:101AD800500556CA2380E18613073005A380E186A6
:101AE80083A741BD130720042381E186130730042F
:101AF80022D44AD04ECE52CCA381E18606D67D4769
:101B08005AC85EC662C42390E7002A8483C531C6DA
:101B180003C541C037060200EFF04FEF238CA1C088
:101B280059476301E516938B018615CD9387018686
:101B38009384018898439107D8CFE39D97FEA933F2
:101B4800DE879853910723AEE7FEE39C97FE83C593
:101B580031C603C541C037060200EFF02FEB238CD6
:101B6800A1C0631F051683C49B0003C68B0083C7EF
:101B7800AB0003C731C683C6BB00A204D18CC20721
:101B8800C58F1347070493948601A381E1C6DD8CB2
:101B9800638604108386CB0083D7A1C363D6060867
:101BA800371B0020130B8BA291A000C383C531C63D
:101BB80003C541C537060200EFF04FE5238CA1C0ED
:101BC8006310051603C731C683A601C083D7A1C316
:101BD80013470708A381E1C683D6060063E3F41818
:101BE8009D8C6390D7163E94638D041403A7C1C5DA
:101BF800E3FDF4FA2320670155BF23A08800239052
:101C0800F60083D7A1C39D8C3E94EFF02FE0238C80
:101C1800A1C02DE103C731C613470704A381E1C65C
:101C28006388040E83D7A1C303C841C0BA853706A9
:101C3800020083A841BF83A641BD4285E3FFF4FAB1
:101C480023A0780123909600814703460400B386B9
:101C580077018507C2072380C600C1830504E39680
:101C680097FE37060200BA854285EFF02FDA238CFB
:101C7800A1C069CD03A741BF9307E00223207701E4
:101C88006301F508B250225492540259F249624A4B
:101C9800D24A424BB24B224C4561828003C541C5B2
:101CA80037060200BA85EFF06FD6238CA1C079F908
:101CB80083C731C603A701C093C707F8A381F1C63C
:101CC800FD47238CF1C003570700B5476316F70299
:101CD800B717002003C547A329C1854763FEA7009E
:101CE8002254B25092540259F249624AD24A424BA3
:101CF800B24B224C456149BE03C581C11375F50F2E
:101D080051B703C541C03D89EFF0FF9803C731C6FD
:101D180083A741BF23A0770151B7238C01C09DB78A
:101D280083A6C1C51307E00223A06601E31CE5F4FE
:101D380003C541C53D8913650508EFF0DF9503C765
:101D480031C683A7C1C523A0670189BF03C731C6B0
:101D580083A741BF13470704A381E1C623A07701E6
:101D680035BF63E5D402F1DE9387F6FFC207C1836E
:101D78008507A2975A878346070005040507A30F1E
:101D8800D4FEE39A87FE03C731C665BF9396040164
:101D9800C182D9BF4111294506C697E0FF1FE780D8
:101DA800407B03C701C493870186A386E700C94621
:101DB80019472384D7002387E700930600F80D47C7
:101DC800A387E700A3840700494723850700A38565
:101DD80007002386D70013850188A389E700238895
:101DE8000700A388070023890700238A0700A38A1E
:101DF8000700238B0700A38B0700238C0700F13112
:101E0800154597E0FF1FE780C07483C781C101456E
:101E180093F7F70F81CF03C581C1D9471375F50F24
:101E28006309F500D547630CF5000145B24041014F
:101E3800828005472388E1C023AA01C2C5BF09479C
:101E48002388E1C0E5B73971A54722DCA38AF1C42C
:101E5800BD472388F1BE26DA4AD84ED652D456D288
:101E68005AD05ECE62CC66CA6AC86EC606DE938D4C
:101E78000186938401BF214B930A00F8130A50028C
:101E8800A949854C4D4D81A063FADC0A6308A70B6C
:101E9800A380E400013703C501BF03C7140072051E
:101EA8007D85137585F71305850C238CE1C097E0B4
:101EB800FF1FE780006A03C701BF7D171377F70F7D
:101EC8002388E1BE25CF03C701C413850188238475
:101ED8006D01A386ED00A3840D0023850D00A38565
:101EE8000D0023865D01A3874D0123880D00A3887B
:101EF8000D0023890D00238A0D00A38A0D00238B72
:101F08000D00A38B0D00238C0D0023873D01A389B1
:101F18000D00653E03C781C11377F70F9306B7FE1F
:101F280093F6F60F35F383C76D0211476382E70412
:101F380021476384E70441476388E70403C751C521
:101F48008547B397E700C207C183F25062542392D2
:101F5800F1C203C514004259D254B259225A925AB6
:101F6800025BF24B624CD24C424DB24D21618280F1
:101F7800A38A31C593070040C9BFAD47A38AF1C4FE
:101F8800856793870780D1B7B147A38AF1C485676E
:101F98006DBF411126C2AA84054506C622C497E032
:101FA800FF1FE780005B854763F3970683C701C17E
:101FB800C94693F7F70F6388D700C14663F8F60060
:101FC8002388D1C021A095472388F1C083C781C148
:101FD80093F7F70FAD1793F7F70F05476374F700FB
:101FE800553B05C1094597E0FF1FE780805603C5AB
:101FF80081C1D9471375F50F630CF502D547630303
:10200800F504B2402244924401454101828083C7CD
:1020180081C193F7F70FDDFC094597E0FF1FE780C3
:10202800405303C581C1D9471375F50FE318F5FC73
:10203800B240224405472388E1C023AA01C2924442
:1020480041018280B240224409472388E1C092447A
:102058004101828039716EC606DE22DC26DA4AD852
:102068004ED652D456D25AD05ECE62CC66CA6AC810
:10207800EFE07FE3AA8D71E983C701C10D4763765D
:10208800F70E91472388F1C0EFE0BFC1238CA1C0B0
:10209800AA8D45ED938C018683C6EC002147639D8C
:1020A800E60C03C6FC00238401C299466315D600DA
:1020B80085462384D1C203C77C0183C5BC0003C6FF
:1020C8006C0183C6EC0103C8DC0103D3A1C322075A
:1020D800A2062380B1C6518F238801BEB3E606014C
:1020E80003C64C0183C5BC0103C841C003CE41C52A
:1020F80063106708620661861373F6006346060874
:1021080013680301014605436390E6201397850190
:1021180061879376F700138B01BF63460708094769
:102128002388E1BEA300BB0013E806016311061A69
:10213800238201C161A083C681C11306E002630046
:10214800D62203C781C1937DF70FF25062546E8582
:10215800D2544259B259225A925A025BF24B624CFB
:10216800D24C424DB24D21618280930D3008F1BFAF
:10217800138901BFA300C900FD47238CF1C003C721
:1021880081C1937DF70FD1B7136E0309054601434B
:10219800E38EE6F6938701BF2388C1BEA380B7000C
:1021A800238AC1C5D1BF93E606F909472388E1BE52
:1021B800A300BB00238AD1C4E31C03F603C55C005B
:1021C800EFF0AFCA238CA1C0AA8D41F183C601C626
:1021D800130610FA03A581BF2380C1867956A38010
:1021E800C186854A938511BF238801BE23810C00CF
:1021F800A3810C002382DC00A3820C0023835C01F2
:10220800A3830C00EFF04F96238CA1C00DF58346F5
:102218001B006398560183A681BF83C606002388E6
:10222800D1BE154597E0FF1FE780A032FD5623ACCD
:10223800D1C423A4D1C403A581BF238201BEA38135
:1022480001C6238001C40146130C4002930B00F819
:10225800194BC94A130A4002A386CC0023848C0177
:10226800A3840C0023850C00A3850C0023867C0125
:1022780023876C01A3875C0123880C00A3880C00CA
:1022880023890C00A3894C01238A0C00A38A0C0023
:10229800238B0C00A38B0C00238C0C00EFF0FF8227
:1022A80083C681C1054693F6F60F8DE683C601BF46
:1022B800B9C283C601C4A1E203A581BF954783467D
:1022C8000500639AF60285472380F1C471B7238A13
:1022D800C1C5B9BD83C601BFA9C283C601C48947A8
:1022E800138616001376F60F63E9D7022380C1C45C
:1022F80003A581BF95B783C701C18D4663F1F60475
:1023080095472388F1C091B5938701BF238861BEA3
:10231800A380B700238201C185B56254238001C41C
:10232800F250D2544259B259225A925A025BF24B95
:10233800624CD24C424DB24D0545216199B9625467
:10234800F250D2544259B259225A925A025BF24B75
:10235800624CD24C424DB24D21616FF08FDC014589
:10236800EFF06FB37DBD411126C222C406C623A279
:1023780001B0EFE05FB32A8441E183C701C111478F
:102388006372F7089387018603C701C42384070093
:10239800A386E7001947A384070023850700A385C0
:1023A8000700238607002387E70013850188A38792
:1023B800070023880700A388070023890700A3894B
:1023C8000700238A0700A38A0700238B0700A38B33
:1023D8000700238C0700EFF04FEF83C781C193F705
:1023E800F70F99CB83C781C12388F1BEEFF09F9A7D
:1023F80003C401BF238C81C02285B2402244924489
:1024080041018280813919C91305000497E0FF1F33
:10241800E7802014813119C12A84F9BFEFF0BFA2E7
:1024280005E59387018603C6170283C5070283C69D
:10243800270203C7370222064D8EC206D18E6207D5
:10244800558F23A2E1B089B703C481C11374F40F77
:1024580065B783C701C1397106DE22DC26DA4AD89E
:102468004ED652D456D25AD05ECE62CC66CA6AC80C
:102478006EC611476374F73803A741C3FD5723ACF1
:10248800F1C423A4F1C4238201BEB7573412937652
:1024980007FF93870767638AF636938441C1A38051
:1024A8000400238C01C2A38001C623A001C22D6AA7
:1024B800130A5AA5138D01BF23A601C0930B900ED2
:1024C800930D0004EFF0AFCD6314051283C614001A
:1024D80003A681BF99E68347060093F7D70F638B5E
:1024E80077178357E61F6398473183CE81C3238AC2
:1024F800D1C1638FBE2F9387EE1BB29783C5A70008
:1025080003C7B70003C8870003C59700A301ED0000
:10251800238801BFA300AD002301BD0083A501BF2F
:1025280083C74700154723A6B1C02388F1BE638738
:10253800E72A3D476384E72A7687014F01433545FB
:10254800054E1548BD489DA083C701BFFD1793F7E9
:10255800F70F930F07019382F6FF6367F500637E19
:10256800DE0E93F6F20F054F13F7FF0F9307E71BE5
:10257800B2976306B70B03C3A70083C5B70083CF21
:10258800970023016D00A301BD00A300FD0183C5D1
:10259800870083C7470005432388B1BE83A501BFD1
:1025A8002388F1BE638F0701638D1701939F87010D
:1025B80093DF8F4193F7F703E3D80FF82388F1BE31
:1025C80071B723A6B1C063040F00A380D400238A87
:1025D800E1C083A701C283C611C6BE9523A6B1C0B8
:1025E800E39206EE4107A380E1C623A0B1C2F9B584
:1025F800EFF08FA9EFF03F85EFF06FBAE30805EC35
:10260800F2506254D2544259B259225A925A025B39
:10261800F24B624CD24C424DB24D21618280630430
:10262800030023A6B1C063040F00A380D40083C7AE
:1026380011C613070004238AE1C0638B071A639944
:102648000E1A03C71400238CF1C223A001C2BD4790
:10265800E314F7E683A5C1C005A06302031E23A601
:10266800B1C063040F00A380D400238AE1C083A70C
:1026780081C5BE9523A6B1C023AAB1C2EFF02FB27F
:1026880041F183A581BF1307900E83C7050093F717
:10269800D70F6390E71A83C7D50013978701238C58
:1026A800F1C261876342071819478607238EE1BC88
:1026B80093F7F70F0145194793968701E1861306AB
:1026C800F7FF860763C706101377F60F93F7F70F20
:1026D80005457DF38547238E01BC238CF1C203D5C4
:1026E800650123AEA1C001E5C85123AEA1C083C7CF
:1026F800450103C63501A207D18F23AEF1BE81E79C
:102708009C5123AEF1BE03C6250183C8150183D6AB
:1027180041C203C351C5220633661601958283D888
:10272800E500B296FD161306B3FFB3D6C64033864E
:10273800160103CF05012A9623A4D1BE23A411C1F3
:1027480023A8C1BE8946630DDF0823AE01C083A656
:10275800C1C0918F33D7E700369623A6C1C423A200
:10276800E1C4C167D11763EBE704239F01C2856702
:10277800D11763EBE7060547A382E1BE638308022E
:1027880083A781BE99CF85476305FF0083A7C1C191
:1027980089CB03C5B50011E503C7C500854763E5C7
:1027A800E70A83C71400C9EB8547A380F400238C8C
:1027B80001C2A38001C623A001C2D5B9DC5503D646
:1027C800050323A4F1BE239FC1C20D47A382E1BE26
:1027D80075B7E30605F0238EE1BC11B77687D5BB44
:1027E8002A9623A8C1BEA5B70947A382E1BE79B737
:1027F8001305200931B51305100919B5EFF09F85A8
:10280800E31005E0EFF02FE485B93D8B938441C1D7
:10281800A380E400238C01C2A38001C623A001C2C7
:10282800BD47E316F7C83DB51D47238EE1BC1D47DC
:102838007DB51305100AE9B31305300AD1B3E308CF
:102848000FE2A380D40025B583C701C1B69823A49D
:1028580011C111476376F700C1472388F1C04DB312
:102868006254F250D2544259B259225A925A025BD7
:10287800F24B624CD24C424DB24D21616FF06F8ADF
:1028880001114AC883A781C426CA22CC06CE4EC6E7
:1028980023A6F1C0EFF0CF962A8411E583A7C1C122
:1028A80099EB238201BE2285F2406244D244424918
:1028B800B2490561828003A7C1C083A501BEBA974A
:1028C800054523A6F1C0EFE0EFCD03A7C1C0238CD7
:1028D800A1C003A6C1C183C781C1118F23A6E1C0CE
:1028E80093F7F70FDDDF03C481C1FD5723ACF1C4B3
:1028F80023A4F1C4238201BE1374F40F6DB7797158
:1029080052CC03C851BE22D426D24AD006D64ECEC7
:1029180056CA5AC85EC689472A89014403A781BD99
:102928006300F8128D47630BF81093571700137460
:1029380017003E9783D641C283C751C583A501BE00
:1029480003A681C0FD16F98EB357F70003A781C40B
:10295800AE96B29723AAD1C023ACF1BC6382E7023A
:1029680003C741BE09C7293F5DED83A781BD23A6E3
:10297800F1C0EFE0BFFC45E903C851BE83A641C1E1
:10298800630F090091476308F9168547630FF90E2D
:1029980083A7C1C223ACF1BC05472382E1BE238EC5
:1029A80001C289476300F80A0D4783A781BD630107
:1029B800E80E03C5060013F8F70F83D541C2137755
:1029C800F5009318480003A601BE336717019384E6
:1029D80001BF91831377F70FFD15A380F4002381BE
:1029E800A4002388E1BEB307B600638AF61083C744
:1029F8001600A381F400631009086309040E83D745
:102A08002400918305672391F4005917636CF70A32
:102A180003C7C1C323A8F1BE3369E900631B0904D6
:102A280023A6F1C20145B250225492540259F249E8
:102A3800624AD24A424BB24B456182800A07DDBDE9
:102A48000607CDBD03D7060023A8E1BEC167D91785
:102A580063FDE7008547238EF1C2630C090083A755
:102A680081BD01452390F6007DBFE31A09FE23A628
:102A7800E1C201454DBF31CC2380E60083A741C1A7
:102A880003C71400A380E7009DBF23AC01BC29B78E
:102A98009842370600101305F6FFB70500F0F98DC8
:102AA800E98FCD8F698F23ACF1BC23A8E1BE5916FD
:102AB800637CE6060547238EE1C2E30C09FA9CC253
:102AC800014595B70547238EE1C223A8F1BE01450C
:102AD80099BF2380060183C7340003C7140083A667
:102AE80041C1C19B1183D98FA380F60083D72400ED
:102AF800D207D18301BFFD5723ACF1BC71BD631868
:102B0800090283C741BE85EB83A781C4850723A635
:102B1800F1C0EFE0BFE2E31805F083A701BE83C769
:102B28000700A381F400D1BDE31B09F889B711E0C0
:102B380042872380E600A933E31705EE83A781C403
:102B4800850723A6F1C0EFE07FDFE31E05EC83A62F
:102B580001BE03C70600A381E400E30009EA83C7B6
:102B6800140001E4419B9183D98F2380F600054727
:102B78002382E1BE59B5797122D466C262C403A822
:102B880041C403ACC1C26AC026D24AD04ECE52CC90
:102B980056CA5AC85EC606D68549938A01BF63637A
:102BA8008813050C014523AC81BD913B23A681C345
:102BB80059ED83A701BF6380071403A841C4936735
:102BC800FC0F1367F80FE38CE7FC83C651BEE3885C
:102BD80036FD83A701BE094603D741C223AAF1C027
:102BE8006385C60893562700FD16C206C182370EB4
:102BF80000102398D1BE2391DA003687814E7D1EBE
:102C080039A0131703014183AE87854E5DCFD043AA
:102C18001303F7FF93854700B378C601E39308FED3
:102C280023AAB1C063850E0C2398E1BEB705001036
:102C3800B3E68601FD153387E6404D8E0507D0C300
:102C480023A6E1C26360E80805472382E1BEB250CB
:102C5800225492540259F249624AD24A424BB24B28
:102C6800224C924C024D45618280135617007D1606
:102C7800420641822398C1BE2391CA00328701438C
:102C880039A0139708014183AE87054321CB83D62A
:102C980027009308F7FF93852700E5F623AAB1C01C
:102CA800630903042398E1BEFD562391D70083D618
:102CB8002A00B3E686013387E640050723A6E1C26A
:102CC800E374E8F81305100B59B7336CDC0023AA3A
:102CD800B1C0239801BE23A681C3D1B5336CCC0003
:102CE80023AAB1C0239801BE23A681C34DBD368750
:102CF80035BF328755BF225423AC81BDB2509254A0
:102D08000259F249624AD24A424BB24B224C924C87
:102D1800024D114545616FF09FBE411106C6A13DA8
:102D28009307100B6305F500B24041018280B24061
:102D380023A601C2410181B55D7156DA83C701C17D
:102D480086C6A2C4A6C2CAC04EDE52DC5AD85ED617
:102D580062D466D26AD06ECE3D47637CF72C83C7B7
:102D680001C13D47637DF710C1472388F1C083C681
:102D780041B0238101C6638606301307C005638707
:102D8800E6301307F0026383E630138741B0034649
:102D980017009307A0036306F62A3EC483A6C1BEA4
:102DA80083A7C1C432C623A8E1C4138401BF638DBD
:102DB800061C83C5C1BD03C681C31387E6FF33174D
:102DC800B700BA97A380C1C623A8F1C2630206243C
:102DD80023A6F1C0EFE0BFBC5DE583D741C22393D2
:102DE80001C26384072083A581BF23AAB1C083C71A
:102DF8000500B9CB930D500E2D45930BC00563818B
:102E0800B70315476394E7009307500E03A801C55D
:102E1800834608006388F6081307A0026384E6085F
:102E280083D761C203D741C293870702C207C18310
:102E38002393F1C263FBE71A83A581BFBE9523AA3A
:102E4800B1C083C70500C5FF83A601C58147130626
:102E5800A0029305C0051305F00239A0630EC70050
:102E68006303B7226301A7223387F60003470700ED
:102E7800850793F7F70F7DF31305200429A0EFE0EA
:102E88005FAAE30605EEB640264496440649F25981
:102E9800625AD25A425BB25B225C925C025DF24D8E
:102EA800616182809D8E93B6160036872301D40017
:102EB8003386D500B307E80083C70700034606003A
:102EC8009308F0021303E002214E930E0002130F41
:102ED8001700638EC702F9C76386770D6384170DE1
:102EE800639D670C6304C701631AD6152301E401C7
:102EF800A146034724003386D50003460600B307DE
:102F0800E80083C70700130F1700E396C7FC0507FF
:102F180085061377F70F2301E40093F6F60FE39A7B
:102F2800A6FC429783470700A301F40083C7B500B6
:102F3800A18BE39707EE238E01C283A741C1A24567
:102F480083D6A70103C651BE0D4723A6D1BE631879
:102F5800E60003D747014207D98E23A6D1BE03470F
:102F68003400630B072403C7C1C36317072403474F
:102F7800240083A701C50507BA9723A8F1C4B2475F
:102F880083A7C1C4E39706E203A781BE9376F70F30
:102F9800958F1377F70FA380E1C623A8F1C2E31931
:102FA80007E25DB513070002631EE6021D47E36DE5
:102FB800D7F603C78500E309C7F6A301F400130792
:102FC800A002E39FE7E483C7B500A18BE39A07E477
:102FD80083A701C26389071463C10712FD1723A0E1
:102FE800F1C23DBDA301F40025BD03C711C683A7E7
:102FF80001C37D1785071377F70F23A8F1C2A380B4
:10300800E1C6E31707DCA24783A6C1BEE38E06E24A
:10301800014523ACD1BCEFF09F8EE31605E683C7CC
:10302800C1C3E39307E283A601BFA24723A6D1BE8B
:10303800B9B7EFF00FC2E30405D2B1B5A30164003C
:10304800C5B393072004E3FAD7D4138771B023A834
:10305800E1C4938771B089A0D84F23A0E1C291E65B
:103068007D57A380E1C623A001C283C701C13D47A4
:103078006378F718D1472388F1C083C7C1C3639920
:103088000716014509B51305300BF5BB138751B079
:1030980023A8E1C4938751B083C651BE0D4763840A
:1030A800E60603C707003EC436C623A601BE83A7AB
:1030B800C1C48146E31B07CE83A681BE03C651C5A2
:1030C800A24513F7F60F998F3317C700094623A6B1
:1030D800C1BE238CD1C2B24623A6F1C423A0E1C24B
:1030E800894623A6D1C223AE01BEA38001C6C94723
:1030F8002388F1C01305100479B3EFD0FFDE83A74E
:1031080001C22D45E1BD83A681BE83C707003AC42D
:1031180023A6D1BE89C73EC683A7C1C479B17D574E
:1031280023A0E1C27DBF238801BE83A701C5014753
:10313800130500022148154E15539308E002AD45CA
:103148001DA82300D60083C701BF83A601C599EB3C
:1031580003C606006318C6012380660083C701BF43
:1031680083A601C5850793F7F70F2388F1BEB697A5
:103178000507630DB70283A641C13E86BA9683C68A
:103188000600E387A6FEE31E07FB2380170183C71B
:1031980001BF83A641C103A601C5850793F7F70FB1
:1031A8002388F1BE83C686003E9661BF2380070050
:1031B8008547238EF1C251B303C7B70023A6D1C2F6
:1031C80023AE01BEA38001C6418BE30707E883C78E
:1031D80001C1FD5623A0D1C23D47637EF700CD470C
:1031E8002388F1C083C7C1C313051004E38D07C842
:1031F8001305300449B9EFE0CFF2E31605C8DDB78F
:10320800EFE02FF2E31105C88DBD411106C622C4B7
:10321800EFF07F9611CD9307100B6306F500B240CF
:1032280022444101828023A601C2EFF0DF9465F9B0
:10323800EFF00FE56DF583A7C1C203A701C323A66D
:10324800F1BE23A6E1C0EFE08FF571F903D661C2A4
:1032580083A781BF03A7C1BE2244B2979356070133
:10326800239DE700B2400546D0CF239AD70023AA72
:10327800F1C041016FE02FFD411183D7E1C322C4A2
:1032880023A8A1BE06C6014589E7B24022444101F0
:10329800828003A741C3BA9723A6F1C0EFE02FF0BD
:1032A8006DF503A781BF83A601BF22448327871E2C
:1032B800B240B6972324F71E41016FE0CFF883C7C9
:1032C80001C1238101C64D476364F700014582802F
:1032D80003A701C3411106C623A6E1C0EFE02FEC06
:1032E80009ED03D761C283A781BF0145BA9703C718
:1032F800B70023AAF1C0418B01C7B24041018280C7
:1033080003A701C2B240D8CF41016FE0CFF341110A
:1033180022C483C701C106C6454793F7F70F6371F7
:10332800F7084947638AE70483C701C14D4793F704
:10333800F70F6361F702238101C683C701C13D47C7
:103348006377F702C1472388F1C00145B2402244A0
:10335800410182805147638BE70483C721C6F1DFAF
:10336800B93F6DF583C701C13D47E36DF7FC2244C2
:10337800B24041016FE0EFDA03C751BE8D47E30564
:10338800F7FA83C5C1BD03A6C1C483C781BE05477B
:103398003317B700B297238CE1C223A6F1C469B7EB
:1033A800B24022441305400B4101828083C741B0DB
:1033B800CDF751B7011122CC83C701C106CE26CA69
:1033C8004AC84EC64947637FF70883C701C13D47CE
:1033D8006370F708C1472388F1C003A701C323A678
:1033E800E1C0EFE0CFDB25E903D761C283A781BF46
:1033F800BA9715572380E700EFE0EFE429ED83A79C
:10340800C1BE23A8F1BEA1CB9386F7FF23A6D1BEE8
:1034180023A601C219A083A701BF054523ACF1BCAF
:10342800EFF0EFCD0DE983A7C1C203C7C1C385077C
:1034380023A6F1C26DD3EFF0AFC411ED03A5C1C24D
:103448006244F240D2444249B24905616FF0DFE27A
:10345800EFE02FCD59D1F2406244D2444249B249FB
:1034680005618280EFF05F8D2DD1F2406244D24435
:103478004249B24905618280797122D406D626D2A2
:103488004AD04ECE52CC56CA5AC85EC6EFF0DF8A32
:10349800A380A1C6630F051093072004630DF500F0
:1034A800B250225492540259F249624AD24A424BCB
:1034B800B24B4561828083D661C283D741C203A7DC
:1034C800C1BE63E0F6086319071083A781BEA38015
:1034D800F1C6130A500E83A701C3FD1723A8F1C232
:1034E80023A6F1C0EFE0AFCB45FD03D641C223933D
:1034F80001C20DCA83A581BF83C70500638847251C
:103508009307000201A883C6060042074183638629
:103518004603BA87B386F50013870702E3E5C7FEBB
:103528002393F1C283C711C6FD1793F7F70FA38042
:10353800F1C6D5F31305200BA5B703A7C1BE239386
:10354800F1C223A6E1C2EFF00FE39307100B63006B
:10355800F50839F5EFF0CFB221F583A7C1C27D5543
:1035680023A6F1BEEFF05FD105FD03A701C323A693
:10357800E1C0EFE0CFC2E31505F283D661C203A72D
:1035880081BF8147369723AAE1C0A9459308000265
:103598007D4801A8230007006380061103A741C1E5
:1035A80085073E9793F6F70FE3E6F5FE230017012C
:1035B800F5B7EFF03FE0E31505EE03A7C1BE23A67C
:1035C800E1C2EFF04FDB9307100BE314F5F823A6E5
:1035D80001C2EFF04FDAB5BF014523ACE1BCEFF013
:1035E8000FB2E31F05EA83C7C1C303A7C1BEB1DB9E
:1035F80023A6E1C2EFF02FD89307100B6309F50853
:10360800E31005EA83A7C1BE094523ACF1BCEFF07E
:103618000FAFE31705E8EFF0AFA6E31305E883D68D
:1036280041C289CE03A681BF81473307F6009107BF
:10363800C20723200700C183E399D7FE83A7C1C22D
:1036480003C6C1BD83A6C1C4F91703C781C3B39715
:10365800C700B697A38001C623A6F1C0239301C271
:1036680023A8F1C22388E1BE19EFE5A083C701BFF3
:1036780003A7C1C0FD17050793F7F70F23A6E1C0FD
:103688002388F1BEF9C7EFE00FBC6DD111BD23A6A9
:1036980001C2EFF04FCEADB703A641C18D67938746
:1036A8001702231CF60085475CCE83A701C5930843
:1036B800E0022D4303C70700B305A60005051375EF
:1036C800F50F09CF93861700630917052380E500D6
:1036D80023A8D1C463046500B687E9BF83A7C1BE28
:1036E80013D70701231DF600231AE600EFE0AFB554
:1036F800E31805DA83A6C1BE03C701C123A6D1C258
:1037080023A001C223AE01BEA38001C6BD4663F358
:10371800E60251472388E1C061B323A8D1C403C797
:1037280017009386270023A8D1C42304E600254563
:10373800B68749B72254B25092540259F249624AA4
:10374800D24A424BB24B45616FE0AF9D03A7C1BE61
:10375800CDBB7D55EFF05FB2E31405D403A7C1BE1E
:10376800CDB303A7C1BED5459337170023A6E1C241
:10377800B307F04023AE01BE5145A380F1C66FE008
:103788002FB339715AD083C701C106DE22DC26DA8D
:103798004AD84ED652D456D25ECE62CC66CA6AC8D1
:1037A8006EC65547630BF70083C701C15147631FB6
:1037B800F726EFF01FFB6316051A03D741B0938471
:1037C80041B02394E40009E783C721C6639807261C
:1037D800239201B0054C6301071803C711C693076C
:1037E800F00F6312F70683A7C1BE6385072283C75C
:1037F80001C149476317F70003C751BE8D47631FCF
:10380800F72683A7C1C223AEF1BEEFF00FD1631A2A
:10381800051403A7C1BF094523ACE1BCEFF02F8E07
:103828006311051403A701BE83A781BF6303F720B3
:103838007D55EFF07FA46316051283A701C2A3800C
:1038480001C623AEF1BEEFE06FA483D541C283A6C3
:10385800C1BF03C711C683C781C303C851C5138538
:10386800F5FF3376D500998F420603D7840041824D
:10387800B3970701918F63F3E7003E87AE8D6361CD
:10388800B710630E0610B38DC540C20D93DD0D0150
:10389800636CB719EFE0AF9069E583D541C283A6A1
:1038A800C1BF1385F5FF03A781BF03D641B0DC4034
:1038B800758D93950D012A97B297C18163840D0286
:1038C8001386F5FF4206418205063E96850783C6A4
:1038D800F7FF0507A30FD7FEE39AC7FE83A6C1BF6C
:1038E80003D641B083D78400B69D2E968D8F23AE24
:1038F800B1BF2394F4002392C1B0EFE0CF9435E137
:1039080003A7C1BF83A601C263F6E60023A0E1C2F4
:10391800238181C783D741C2FD17F98F95EB83C7F0
:1039280011C603C781C3850793F7F70FA380F1C6B4
:1039380063E0E70203A7C1C2014523ACE1BCEFE0A5
:103948001FFC05E183C7C1C3F9CBFD57A380F1C6AE
:1039580003D78400E31307E883C741BE0145639F8B
:10396800070EF2506254D2544259B259225A925A0E
:10397800025BF24B624CD24C424DB24D21618280C7
:10398800B38DC540C20D93DD0D016373B701BA8DC8
:10399800E31206F083A701C2E3F7F6F0E5BD83D78B
:1039A80041B0CC40BE9593F73500EDF7335A070187
:1039B800937DFA0F6E85EFD0EFBE45F583C751C5ED
:1039C80003D7840083C611C6B317FA0013960701FC
:1039D80083A8C1BF03D841B04182118FEE96420738
:1039E80003A501C293F6F60FC69741834296A380BA
:1039F800D1C623AEF1BE2394E4002392C1B063760E
:103A0800F50023A0F1C2238181C783C781C3E3E402
:103A1800F6DC0DB7EFF06FFFE30C05E099B703D7BD
:103A28008400A38001C645BBBA8DADB51305400B14
:103A38000DBFEFE0FFE4E30D05DE25B76254F25059
:103A4800D2544259B259225A925A025BF24B624CF2
:103A5800D24C424DB24D21616FF07F866254F250D4
:103A6800D2544259B259225A925A025BF24B624CD2
:103A7800D24C424DB24D21616FE09FE01305100B0F
:103A8800CDB5B3C7A5008D8B3307C50081E78D473A
:103A980063EEC700AA876370E50A83C60500850739
:103AA8008505A38FD7FEE3EAE7FE8280937635008B
:103AB800AA8791CA83C6050085078505A38FD7FE07
:103AC80093F63700FDB79376C7FF138606FE63F0BB
:103AD800C70683A3050083A2450083AF850003AF13
:103AE800C50083AE050103AE450103A3850183A884
:103AF800C5019385450223A0770003A8C5FF23A22B
:103B0800570023A4F70123A6E70123A8D70123AA76
:103B1800C70123AC670023AE17019387470223AE82
:103B280007FF75B790419107910523AEC7FEE3EBF8
:103B3800D7FEE3E4E7F6828039713EDA2ED232D43A
:103B480036D63AD842DC46DE97D7FF1F9387C7EBB5
:103B580022CC804326CA06CEAA8409C41C4C99E309
:103B68002285852B0C4454102686228536C6EF0004
:103B7800D01CF2406244D24421618280011197D75F
:103B8800FF1F938767E822CC804306CEAA8519C415
:103B98001C4C89E72AC622852D2BB2451044228564
:103BA8006244F24005616F00907E011126CA4AC83E
:103BB80006CE22CC4EC652C4AA842E8901C51C4DFD
:103BC80091E3012B9C4C804499E326851923971790
:103BD80000009387E740631CF402C0408357C40089
:103BE800A18BB1C71C48A1C7FD59294A1C4483456C
:103BF8000900FD17B1E91CC463DE07062286A94542
:103C080026855520FD576308F502294535A09717E5
:103C180000009387E73E6314F4008044C1B7971708
:103C280000009387E739E31BF4FAC04445BFA28537
:103C38002685152A55D97D55F2406244D244424919
:103C4800B249224A056182801CC4050963D707006E
:103C5800184C63CBE700638945011C4013871700A4
:103C680018C02380B70059B7228626852D28E31F60
:103C780035F7D1B71C401387170018C02947238090
:103C8800E70061B797D7FF1F938707D8AA858843AE
:103C98006FF0BFF1AA8703C7050085078505A38FC5
:103CA800E7FE75FB8280011122CC26CA4AC806CEDF
:103CB8004EC6AA842E89328401C51C4D91E3112970
:103CC800971700009387C7316319F406C0401C4C4E
:103CD8001CC48357C400A18BC9C31C48BDCF1C4852
:103CE80008409379F90F1379F90F1D8D5C486346E5
:103CF800F500A2852685752C2DE51C440505FD17C4
:103D08001CC41C401387170018C0238037015C4867
:103D18006389A7008357C400858B81CBA9476316A5
:103D2800F900A285268571240DEDF24062444A858A
:103D3800D2444249B24905618280971700009387AF
:103D4800272C6314F400804459B797170000938711
:103D58002727E31EF4F6C0449DBFA28526852120AF
:103D68003DDD7D59D9B7411197D7FF1F9387C7C943
:103D780026C2844322C44AC006C62A892E8489C41E
:103D88009C4C99E32685B126971700009387472511
:103D9800631CF402C0400317C40093170701C183D2
:103DA80093F68700B5EE93F607019DEEA54723200D
:103DB800F900136707042316E4007D55B240224436
:103DC8009244024941018280971700009387472354
:103DD8006314F4008044C1B7971700009387471E07
:103DE800E31BF4FAC04445BF918B8DC74C5889C971
:103DF800930744046384F5004A85892B232A040227
:103E08008357C4002322040093F7B7FD2316F40058
:103E18001C481CC08357C40093E787002316F4008E
:103E28001C4881EF8357C4001307002093F7072825
:103E38006385E700A2854A8595298357C40013F74F
:103E4800170005C75C4823240400B307F0401CCCC6
:103E58001C480145A5F78317C40013F7070839DF85
:103E680093E707042316F40089BF898B014791E380
:103E7800584818C4F1BF83D7C500011122CC26CAFF
:103E880006CE4AC84EC613F78700AA842E8471EF5F
:103E9800D841634DE000B841634AE0000145F24073
:103EA8006244D2444249B2490561828058547DD760
:103EB80003A904009396370123A0040063DD0606D6
:103EC80070488357C400918B99C75C401D8E5C581D
:103ED80099C33C401D8E5C540C50814626858297C0
:103EE800FD570357C400631DF5009440F54763E888
:103EF800D706B70740208507B3D7D700858BA5C35A
:103F08001C48232204001CC09317370163D80700FC
:103F1800FD576314F5009C4091E368C84C5823A0F2
:103F28002401ADDD930744046384F500268539290F
:103F3800232A0402A5B70C50014685462685029718
:103F4800FD572A86E31FF5F69C40A5DF7547638574
:103F5800E70059476394E70423A0240181B7136756
:103F680007042316E4007D551DBF83A90501E387D7
:103F780009F203A905008D8B23A0350133093941C6
:103F8800014791E3D84918C4E35A20F11C540C5056
:103F9800CA864E86268582976349A0008357C40047
:103FA80093E707042316F4007DBFAA993309A940B3
:103FB800E1BF9C49A5C3011122CC06CE2A8411C5B4
:103FC8001C4D81E72EC63122B24597170000938712
:103FD8002701639CF5004C408397C5009DC7228547
:103FE8006244F24005616FF01FE99717000093875C
:103FF80027016394F5000C44C5B797170000938711
:1040080027FCE39BF5FC4C44C1BFF24062440145E8
:104018000561828001458280411122C406C62A8436
:104028002316B5002317C500232005002322050009
:10403800232405002322050623280500232A05003A
:10404800232C0500214681451305C505EFC0FF9FB8
:10405800971700009387E7BE5CD0971700009387F7
:1040680047C11CD497170000938787C55CD497175E
:104078000000938747C800D01CD8B24022444101B1
:10408800828097050000938505F3B1AA411126C2E5
:10409800130680069384F5FFB384C4024AC02E89B0
:1040A80022C406C693854407B1262A8401CD23205D
:1040B800050023222501310508C41386840681459D
:1040C800EFC0BF982285B240224492440249410180
:1040D80082801C4DB5E7411106C622C4970700002F
:1040E800938767FA1CD5971700009387A7F99C4315
:1040F8002324050423260504232805046314F50056
:1041080085471CCD2A84352848C022851D2808C427
:104118002285052848C4484001469145EFF0DFEF65
:1041280008440546A545EFF03FEF48440946C94510
:10413800EFF09FEE85471CCCB240224441018280BB
:1041480082804111971700009387C7F326C28443E2
:104158004AC006C69C4C22C42A8981E72685EFF00E
:104168005FF7938484048044DC40FD1763D607001E
:104178009C40B9CF8440C5BF0317C40039E7C17755
:104188008507232204062320040023220400232475
:1041980004005CC423280400232A0400232C040000
:1041A800214681451305C405EFC03F8A232A04022E
:1041B800232C040223240404232604042285B24069
:1041C800224492440249410182801304840671BF4B
:1041D80091454A85EFF09FEB88C049FDB147232000
:1041E800F9000144E1BF797122D44AD052CC56CAB1
:1041F8005AC85EC606D626D24ECE2A8AAE8A13047E
:1042080085040149054BFD5B09ECB25022544A85EF
:1042180092540259F249624AD24A424BB24B456122
:104228008280044483294400FD1963D409000040B6
:10423800E1BF83D7C400637BFB008397E4006387F7
:104248007701A6855285829A3369A90093848406EA
:10425800E1BF1971A6DAAE848395E500A2DC86DE9B
:10426800328463DC050083D7C40023A0060093F7DB
:10427800070885E7930700401DA0300836C6EF0001
:10428800102DB246E34105FE7247BD67F98F797775
:10429800BA9793B717009CC2F1BF930700041CC0DC
:1042A800F6506654D65401450961828083D7C5000B
:1042B800011122CC06CE26CA4AC8898B2E8489CF02
:1042C800930774041CC01CC885475CC8F24062444C
:1042D800D24442490561828074003000AA84EFF01C
:1042E8005FF7A2452A892685312201ED8317C4008C
:1042F80013F7072061FFF19B93E727002316F400CB
:10430800C1B797070000938707D89CD48357C40088
:1043180008C008C893E707082316F400A2475CC83A
:10432800B24791CF8315E4002685EF00F02401C938
:104338008357C400F19B93E717002316F4008357B3
:10434800C4003369F9002316240149B7DDC183A7E6
:10435800C5FF411122C406C626C21384C5FF63D314
:1043680007003E94AA84EF001028938781819C431C
:1043780081EF2322040023AC81802244B2402685A9
:10438800924441016F005026637EF40014403307C5
:10439800D4006396E7009843DC43369718C05CC0A6
:1043A800D9BFBA87D84319C3E37DE4FE9443338663
:1043B800D700631F86001040B29694C33386D70097
:1043C800E31DC7FA10435843B29694C3D8C375B7D0
:1043D8006375C400B1479CC04DB71040B306C40014
:1043E8006316D70014435843B29614C058C0C0C3CC
:1043F80069B78280011126CA93843500F19806CEE8
:1044080022CC4AC84EC6A104B14763F5F404B144AE
:1044180063E4B4042A89EF00101D938781819843CF
:104428003A8429E49387C1819C4399E781454A8569
:10443800EF00407E23AEA180A6854A85EF00807DEF
:10444800FD5963193507B1472320F9004A85EF0064
:10445800B01929A0E3DE04FAB1471CC10145F240B6
:104468006244D2444249B249056182801C40858F2A
:1044780063CF0702AD4663F6F6001CC03E9404C045
:1044880031A05C406313870223ACF1804A85EF00BA
:10449800B0151305B4009307440061993307F5403C
:1044A8005DDF3A94898F1CC05DBF5CC3C5B72287A6
:1044B800404085BF130435007198E30285FCB305BD
:1044C800A4404A85812FE31C35FBB5BF1C46FD1768
:1044D8001CC663DA0700184E63C5E700A947639452
:1044E800F5006FF04FFC1C422E851387170018C289
:1044F8002380B7008280011122CC26CA4AC84EC642
:1045080052C406CE2A89AE893284B304D6007D5AB5
:1045180063149400014511A8834504004E864A851A
:10452800EFF0DFFA0504E31545FFF2406244D24498
:104538004249B249224A05618280357122CD26CB93
:104548004AC94EC706CF52C556C35AC1DEDEE2DCA1
:10455800E6DAAA89AE843289368409C51C4D99E306
:10456800EFF03FB797170000938787A7639DF40C78
:1045780083A4490083D7C400A18BE5CB9C48F5C729
:1045880093070002A304F1029307000302D2230554
:10459800F10222C6930B5002971A0000938A4AA888
:1045A800054C294B4A848347040099C36392770FCB
:1045B800B30C2441638E0C00E6864A86A6854E8598
:1045C800EFF07FF3FD576307F51E9256E69636D255
:1045D800834704006380071EFD571309140002C8AF
:1045E80002CE3ECA02CCA309010482D48345090045
:1045F80015465685EF00807D13041900C24759E916
:1046080013F7070109C713070002A309E10413F709
:10461800870009C71307B002A309E104834609000C
:104628001307A0026380E608F2474A8481462546BC
:104638000347040093051400130707FD6379E60A8E
:10464800B5CA3ECE85A8971700009387679B6395E8
:10465800F40083A4890039BF971700009387479611
:10466800E39AF4F083A4C90031B7A6854E85EFF02C
:104678008FEF19D57D55FA406A44DA444A49BA4958
:104688002A4A9A4A0A4BF65B665CD65C0D618280C0
:10469800050411BF330555413315AC00C98F3EC819
:1046A8002289A9B7324793064700184336C663499B
:1046B80007023ACE034704009307E002631FF7049A
:1046C800034714009307A002631BF702B2470904CB
:1046D800138747009C433AC663C107023ECA35A800
:1046E8003307E04093E727003ACE3EC8E1B7B387E7
:1046F800670385462E84BA9725BFFD57C5B70504BD
:1047080002CA8146814725460347040093051400E1
:10471800130707FD6376E606F1F2834504000D46AC
:104728001715000013054590552511CD9717000062
:104738009387878F1D8D93070004B397A700424581
:1047480005045D8D2AC88345040019461715000025
:104758001305C58D130914002304B102852D3DC12D
:1047680097C7FFFF9387878995E74247B247137733
:10477800071009CF91073EC69257D2973ED21DB572
:10478800B387670385462E84BA97BDBF9D07E19B13
:10479800A107D5B7780097060000938606D6268627
:1047A8000C084E8597000000E7000000FD572A8A94
:1047B800E314F5FC83D7C40093F70704E39C07EAE6
:1047C800125555BD780097060000938606D32686B5
:1047D8000C084E85012AD9BF797156CA9C49BA8AF4
:1047E800984522D426D24ECE52CC06D64AD05AC8A4
:1047F8005EC6AA892E84B284368A63D3E700BA8754
:104808009CC00347340419C385079CC01C4093F718
:10481800070281C79C4089079CC0032904001379BB
:104828006900631A0900130B9401FD5B5C4498400E
:10483800998F634CF9041C408346340493F70702AC
:10484800B336D000A5EB13063404D2854E85829A80
:10485800FD576303F5041C4011469840998B544456
:1048680081446397C700B384E64063D3040081445E
:104878001C4418486354F700998FBE940149690491
:104888007D5B63982405014509A885465A86D2852B
:104898004E85829A631E75017D55B25022549254FA
:1048A8000259F249624AD24A424BB24B4561828070
:1048B8000509ADBF3307D40013060003A301C704DD
:1048C8000347540493871600A2978906A381E70437
:1048D8009DBF85462286D2854E85829AE30E65FB6A
:1048E800050945B7797122D426D24AD04ECE06D6CC
:1048F80052CC56CA5AC8B68983C685019307900612
:104908003289AA842E8413863504638DF60263E205
:10491800D706930780056388F61863EDD70063818F
:10492800062293073004638EF60A930A24042301AF
:10493800D404C9A0930730066385F60A9307400696
:10494800E395F6FE1C40084393F6070893054500D7
:10495800C5C61C410CC363D807001307D002B307B0
:10496800F040A301E404970600009386A66C29474B
:104978006DA8930700076384F61663E5D7029307CB
:10498800E006638BF6189307F006E390F6FA0C40FE
:104998001C4313F80508138547006307080608C376
:1049A8009C438DA893075007E383F6FE930780077F
:1049B800638BF61293073007E399F6F61C43D04150
:1049C80081459386470014C383AA07005685FD2EA8
:1049D80001C53305554148C05C401CC8A301040407
:1049E80071A81C43930A2404938647009C4314C36C
:1049F8002301F4048547D5B793F607041C410CC37B
:104A0800B9DAC207C18781BF93F5050408C3C9D9BC
:104A180083D707001307F0066388E60E97060000A1
:104A2800938646612947A30104044C400CC463C51E
:104A3800050008406D9908C099E3B28A91CDB28A01
:104A4800B3F5E702FD1AB69583C505002380BA00C1
:104A5800B3D5E70263F0E70CA147631EF7001C40DB
:104A6800858B91CB58401C4863C7E7009307000328
:104A7800A38FFAFEFD1A3306564110C84E87CA8620
:104A88007000A2852685EFF03FD57D5A631E450B41
:104A98007D55B250225492540259F249624AD24A80
:104AA800424B45618280A382D50497060000938615
:104AB80066580C40084313F805081C411105630D9E
:104AC800080208C313F7150001C793E505020CC0D7
:104AD8004147B1FB0C4093F5F5FD0CC0A9B79C41CB
:104AE80093E707029CC193078007A302F404970683
:104AF80000009386665575BF13F8050408C3E303E1
:104B080008FCC207C1837DBF9706000093868652C2
:104B1800214711BFAE872DB794411C43CC4913F8E8
:104B28000608138547006306080008C39C438CC326
:104B380001A808C393F606049C43F5DA2390B7004E
:104B480023280400B28A1DBF14485686CA852685C4
:104B58008299E30F45F31C40898B8DE7B24748449F
:104B6800E359F5F23E8535B785465686CA852685CA
:104B78008299E30F65F1050A5C443247998FE34552
:104B8800FAFEE9BF014A930A94017D5BF5B701116A
:104B980022CC06CE2A8409C91C4D99E732C62EC4F8
:104BA800EFF02FD33246A24597070000938747437B
:104BB8006316F60250401C46FD171CC663D0070456
:104BC800184E63C7E70093F7F50F29476398E70284
:104BD80022856244F24005616FF0EF8C9707000070
:104BE800938707426314F6001044F1B79707000053
:104BF8009387073DE311F6FC504475BF1C4213F53B
:104C0800F50F1387170018C22380B700F2406244DB
:104C180005618280411122C42A842E8523A201C6FF
:104C280006C6EFC00FC4FD576317F500938741C64A
:104C38009C4391C31CC0B24022444101828041116F
:104C480022C42E848395E50006C6452263490500E3
:104C58007C48AA977CC8B24022444101828083578D
:104C6800C4007D777D17F98F2316F400EDB783D73D
:104C7800C500011122CC26CA4AC84EC606CE93F7F3
:104C88000710AA842E843289B68991C78395E500D6
:104C98008946014631228357C4007D777D17F98FF5
:104CA8002316F4008315E4006244F240CE864A8657
:104CB800B24942492685D24405613DA8411122C422
:104CC8002E848395E50006C6E128FD570357C400E6
:104CD800631BF500FD77FD17F98F2316F400B2402A
:104CE8002244410182808567D98F2316F40068C861
:104CF800FDB78395E50005A8411122C42A842E85B5
:104D0800B285368623A201C606C6EFC00FB3FD578B
:104D18006317F500938741C69C4391C31CC0B240FA
:104D2800224441018280411122C42A842E8523A273
:104D380001C606C6CD20FD576317F500938741C607
:104D48009C4391C31CC0B24022444101828041115E
:104D580022C42A842E85B28523A201C606C6D12084
:104D6800FD576317F500938741C69C4391C31CC048
:104D7800B240224441018280411122C42A842E85F6
:104D880023A201C606C66520FD576317F500938761
:104D980041C69C4391C31CC0B24022444101828059
:104DA800411122C42A842E85B285368623A201C6E3
:104DB80006C66120FD576317F500938741C69C43DB
:104DC80091C31CC0B24022444101828093F5F50F83
:104DD8002A966314C5000145828083470500E38D48
:104DE800B7FE0505FDB782808280411122C42A845E
:104DF8002E85B285368623A201C606C6A920FD5790
:104E08006317F500938741C69C4391C31CC0B24009
:104E18002244410182809307800523A2F1C67D5573
:104E280082809307800523A2F1C67D55828093076F
:104E3800800523A2F1C6014582809307800523A23D
:104E4800F1C67D5582809307800523A2F1C67D5562
:104E5800828000004572726F723A20253032580AFB
:104E680000000000537461727420404368697049FF
:104E7800443D25303258200A00000000576169740B
:104E8800204469736B52656164790000253032787B
:104E98000A00000043726561746500002F4E455793
:104EA80046494C452E545854000000004279746518
:104EB80057726974650000004E6F74653A200D0AD8
:104EC800D5E2B8F6B3CCD0F2CAC7D2D4D7D6BDDAB9
:104ED800CEAAB5A5CEBBBDF8D0D055C5CCCEC4BCE6
:104EE800FEB6C1D0B42C353733BCF2B5A5D1DDCA76
:104EF800BEB9A6C4DCA1A30D0A000000B3C9B9A6B7
:104F0800D0B4C8EB2025303258B4CE0A00000000D7
:104F1800436C6F736500000052C0FFFF7AC0FFFF4B
:104F2800A2C0FFFFBAC0FFFFD4C0FFFF5553422005
:104F380064657620696E00005553422064657620CA
:104F48006F757400526573657420686F7374207090
:104F58006F7274007825303258200000476574431A
:104F6800666744657363723A20000000496E69748D
:104F7800526F6F7444657620457272203D2025304B
:104F880032580A0044697361626C6520686F7374F3
:104F980020706F72742062656361757365206F6637
:104FA80020646973636F6E6E65637400476574444B
:104FB800657644657363723A2000000000000000C3
:104FC80000000000000000000000000000000000D9
:104FD80000000000000000000000000000000000C9
:104FE80000000000000000000000000000000000B9
:104FF80000000000000000000000000000000000A9
:105008000000000000000000000000000000000098
:10501800000000000000000000000000232D302BDD
:1050280020000000686C4C00656667454647000034
:1050380030313233343536373839414243444546C6
:105048000000000030313233343536373839616288
:1050580063646566000000000201000000000000B3
:105068008006000200000400800600010000120013
:105078000005020000000000000900000000000018
:04508800A409002057
:10508C0000000000E44F000004500000C44F00007A
:10509C000000000000000000000000000000000004
:1050AC0000000000000000000000000000000000F4
:1050BC0000000000000000000000000000000000E4
:1050CC0000000000000000000000000000000000D4
:1050DC0000000000000000000000000000000000C4
:0C50EC0000000000700E0020A40900204D
:00000001FF
