:040000006F10905B92
:10000400000000000000000090000020A204002076
:10001400A9BDF9F3900000200000000000000000DA
:10002400900000209000002000000000000000006C
:10003400900000200000000090000020000000005C
:1000440090000020900000209000002090000020EC
:1000540090000020900000209000002090000020DC
:1000640090000020900000209000002090000020CC
:1000740096050020900000209000002090000020B1
:1000840090000020900000209000002090000020AC
:1000940001A04111B7170040985F3AC6945F3247F8
:1000A400E39CE6FE32454101828073270080218B68
:1000B4009387018209CB7327008023A0E1829843B0
:1000C4005D9B731007800F100000371700409306E4
:1000D40070052300D704930680FA2300D7040F1079
:1000E40000008346B70493F6F60DA305D704230056
:1000F4000704732600809443A18AD18E73900680EE
:1001040023A001820F100000937605026384061871
:100114000347A700118B25E773270080218B09CBA8
:100124007327008023A0E18298435D9B73100780AE
:100134000F10000037170040930670052300D70402
:10014400930680FA2300D7040F1000008346A7000B
:1001540093E646002305D70023000704F326008016
:100164009843218B558F7310078023A001820F10B1
:1001740000001307004B010001007D176DFF73277A
:100184000080218B09CB7327008023A0E182984350
:100194005D9B731007800F10000037170040930613
:1001A40070052300D704930680FA2300D7040F10A8
:1001B40000007D892314A700010001000100010053
:1001C40023000704F32600809843218B558F731076
:1001D400078023A001820F10000073270080218B69
:1001E40009CB7327008023A0E18298435D9B7310A1
:1001F40007800F1000003717004093067005230096
:10020400D704930680FA2300D7040F1000000F10C0
:100214000000B726004013061005A383C680230000
:100224000704F32600809843218B558F73100780B1
:1002340023A001820F10000073270080218B09CBBB
:100244007327008023A0E18298435D9B731007808D
:100254000F10000037170040930670052300D704E1
:10026400930680FA2300D7040F1000008346B704D6
:1002740093E60608A305D704230007047327008028
:100284009C43A18BD98F7390078023A001820F1008
:100294000000828093760504638B06140347A7004D
:1002A400418B25E773270080218B09CB73270080BE
:1002B40023A0E18298435D9B731007800F10000018
:1002C40037170040930670052300D704930680FA7D
:1002D4002300D7040F1000008346A70093E606010D
:1002E4002305D70023000704F32600809843218BBD
:1002F400558F7310078023A001820F10000013078D
:10030400007D010001007D176DFF73270080218BA4
:1003140009CB7327008023A0E18298435D9B73106F
:1003240007800F1000003717004093067005230064
:10033400D704930680FA2300D7040F1000009376A5
:10034400F50193E606042314D7000100010001001F
:10035400010023000704F32600809843218B558F66
:100364007310078023A001820F100000130760049C
:100374006310E50473270080218B09CB7327008069
:1003840023A0E18298435D9B731007800F10000047
:1003940037170040930670052300D704930680FAAC
:1003A4002300D7040F100000B72600400946B5B556
:1003B40073270080218B09CB7327008023A0E1825F
:1003C40098435D9B731007800F100000371700409F
:1003D400930670052300D704930680FA2300D704FC
:1003E4000F100000B7260040130620053DB5732703
:1003F4000080218B09CB7327008023A0E1829843DE
:100404005D9B731007800F100000371700409306A0
:1004140070052300D704930680FA2300D7040F1035
:1004240000008356870093E6060C2314D700C5BB4F
:100434004111814601468145114506C61D2CF3270D
:100444000080A18B9386018289CBF327008023A0AF
:10045400F1829C42DD9B739007800F100000B71758
:100464000040130770052380E704130780FA2380F4
:10047400E7040F10000003C7670413671700238302
:10048400E70423800704732700809C42A18BD98F43
:100494007390078023A001820F100000B240410135
:1004A40082808146014681451145E122F32700807F
:1004B400A18B1387018289CBF327008023A0F182CB
:1004C4001C43DD9B739007800F100000B71700409A
:1004D400930670052380D704930680FA2380D704FB
:1004E4000F100000FD562396D70223800704F3263D
:1004F40000801C43A18BD58F7390078023A00182B9
:100504000F100000F3270080A18B89CBF327008014
:1005140023A0F1821C43DD9B739007800F10000021
:10052400B7170040930670052380D704930680FA1A
:100534002380D7040F10000083C6670493E61600D7
:100544002383D70423800704F32600801C43A18B54
:10055400D58F7390078023A001820F10000001A0A3
:10056400BD473305F50201007D1575FD82804111FB
:1005740022C426C206C6AA84014463179400B2406A
:10058400224492444101828005041305803E4204C2
:10059400C13F4180DDB7B71700401307000323882C
:1005A400E702854723A8F18273002030411106C673
:1005B400EF00701AF5BF2303048015472303E4807A
:1005C40001002302A480828083076480E3CE07FEB7
:1005D40023030480828083076480E3CE07FE0345FF
:1005E4004480828083076480E3CE07FE2302A480D4
:1005F4008280411126C44AC24EC006C61377F50B49
:10060400AD47AA892E8995446306F70019456537D5
:10061400653F8D444E854537FD59FD14639834017B
:10062400B240A24412498249410182801355090112
:100634001375F50F453F2209CDB7011126CC06CE1F
:10064400B704080051371545BD37713769372AC6D5
:10065400A53F32459377150089EB13651500137593
:10066400F50FF240E24405618280FD14E9FC014586
:10067400CDBF397126DC4ADA4ED852D656D45AD276
:100684005ED006DE62CE66CCB7E700E07D5783AA73
:10069400070022C603AA470023A0E71823A2E718ED
:1006A400B7170040130770052380E704130780FA87
:1006B4002380E70483C74704930B75FFB684E207DE
:1006C40093FBFB0F8546AA892E8B32893724004081
:1006D400E187015763FA76016308D5008946130759
:1006E40000026313D5000157D98F93F7F70FB71C96
:1006F40000402382FC0411472303E4801305F00F18
:100704005D3D094CD135636D7C11B7050700DA9561
:1007140037870700795563F2E504B3879500636E64
:10072400F702370B0800A94733EB65016399F90613
:1007340089E48144513D26850DA0DA850945553D5E
:1007440005090345F9FFFD14050B693D81C4937741
:10075400FB0FFDF7DD3569FD7D55B7170040130725
:1007640070052380E704130780FA2380E70403C796
:100774004704418B2382E704F250B7E700E023A04B
:10078400571123A24711E25432445259C259325AE2
:10079400A25A125B825B724CE24C21618280A547B3
:1007A4006395F90685691309F00FB3069900B374CC
:1007B4002B01B6941349F9FFB3749900856B33790F
:1007C4006901416B9387F9FFB3F7270199E363FC50
:1007D400340193D94900C147E3E637FF99BF05695E
:1007E400C1697D19D9B71305800D638869011305A3
:1007F40000026384790113051008CA85DD3B353D89
:1008040021DD4E99B3843441D9B7DA852D45D533EA
:10081400CA94E30099F205097D3BA30FA9FED5BF55
:100824009387F9FF93F7F70F6361FC0C83C71C04EC
:1008340013073008631FF70437070800636BEB04E2
:10084400B3079B00B706100063F5D704334BEB00E6
:1008540089476393F9068980D549E38C04ECDA85EA
:100864000945413B11090327C9FF91472320E4802F
:1008740003076480E34E07FE23033481FD17EDFB79
:10088400FD14110B81C49377FB0FE9FF7D3371F5E0
:10089400E1B5B717004003C75704B707080013773B
:1008A400070219E3B78707007955E378FBEA3307B2
:1008B4009B00E3FFE7F855B58547E382F9F2DA8553
:1008C4002D45053B9389F4FFE38504E6293393F72B
:1008D400390091EB8326048003270900930749001C
:1008E400E39AE6E43E89CE84F1BFB5476396F90006
:1008F4001305900BC93135BDB1471305B00AE38B1D
:10090400F9FE99476391F904B7050800B365BB0084
:100914002D45C53181448D4BA149753963967401C8
:10092400832704802320F9008504E39834FF832778
:10093400048013172B01635507002312F900D5BB5C
:100944002322F900FDB39D476399F90281451305FC
:10095400B0044531BD442320090023220900FD5978
:100964009D3993F77400CA9703C70700FD14398DA6
:100974002380A700E39634FF6DBBA1476392F9047B
:100984006D398144630D0B008D479304C0036308E4
:10099400FB009304000563048B0193044004137566
:1009A400C507E30895D81945393139390545213149
:1009B40026850D3909453D314931E31C05D669BB0E
:1009C40091476399F90013056006F536F53E130562
:1009D40090090DB7E38F09D4F154A9BBBD66014753
:1009E400173600001306062C938606A68545834712
:1009F400060093F7F70F91C382800507E3F9E6FE3B
:100A0400973700002380B72ADDB77D16620661861A
:100A140093178601E18763D4070001458280931709
:100A240026003307F500AE9718439C4363E7E700BD
:100A34007D16E37FF7FC7D55828005458280FD1598
:100A4400E205E18513978501618793F7F50F634804
:100A54000700FD15139725002A97584365D713857A
:100A640017006205618582803308B5021C4283A8A1
:100A74000600B335B502C29733B50701AE98469563
:100A840085486367B5006394A50063E30701814863
:100A94000C43C6950CC388C21CC28280814713973D
:100AA400870161876343B7008280139727002A97E1
:100AB400232007008507E5B78147014793968701FF
:100AC400E18663C5B600133517008280939627002C
:100AD400AA9694428507558FD5B793D755408A0770
:100AE400AA979C4305453315B5007D8D8280171365
:100AF40000E0E702433D2A84993705C59317250092
:100B04003E940327C4FF814711EB7D1516053E95DE
:100B140042054185171300E06700233D05838507DF
:100B2400E5B70145C5BF81471397870161876343D3
:100B3400C700828013972700B386E50094422A9762
:100B4400850714C3D5B77D166206618601479317DE
:100B54008601E18763D50700133517008280931758
:100B64002600B306F500AE9794429C437D16B58FDC
:100B74005D8FF1BF8A05AA9501476363B500828042
:100B840083A6C5FFF11593D71600D98F9CC113977F
:100B9400F601E5B72A830148014701456343D700BD
:100BA4008280B387050183A80700B30706019C432D
:100BB400C697AA976384F80033B517010507B308ED
:100BC4000301620723A0F80061871108C1BF2A83CB
:100BD40001478147014563C3D70082803388E5001C
:100BE40083280800330EE600032E0E003388A84045
:100BF4003308C8416384080133B508018507B30885
:100C0400E300E20723A00801E1871107E9B71713FE
:100C140000E0E702432B0111B286B2842E86AA8536
:100C24000A8575372A84A6850A8579353334800088
:100C3400060413351500018D0561171300E06700E4
:100C4400C32A171300E0E70283254111AA89AE8A5B
:100C5400328BB68402C202C402C60144131C84014E
:100C6400135C8C4163499C02939B1400FD1B054952
:100C7400138CF4FFF15C3304890162046184634DD5
:100C8400740592478E04CE9423AEF4FE41011713EB
:100C940000E06700432413192400B30B2B01014A1D
:100CA40093172A00D69783A50B0088437800340055
:100CB40050005D3B050A93178A01E187F11BE3515C
:100CC400FCFE92474E9905042320F900A2473EC238
:100CD400B24702C63EC459B7131A8901135A8A414E
:100CE400131D240093178A01E18763CF970092476D
:100CF4000A044E941CC0A24705091379F90F3EC299
:100D0400B24702C63EC485BFB3079A0313152A002F
:100D140056950841780034005000050AEA97DA979E
:100D24008C439933C1B719CD91CD09CE814733870F
:100D3400F500834607003307F50085072300D70035
:100D4400E317F6FE828019C991C909CA910583A7E0
:100D5400C5FF11057D16232EF5FEC5BF828001C98E
:100D640019C62A960505A30FB5FEE31DA6FE8280CB
:100D740081473307F5000307070019E33E858280A6
:100D84008507C5BF01112E8626CAAA84131506013C
:100D94009305F004418122CC06CE32C6EF00B06741
:100DA4002A8401C53246A685BD3F2285F2406244AD
:100DB400D24405618280854715C18DC105C2814732
:100DC400B306F5003387F50083C606000347070022
:100DD4006398E6008507E315F6FE85473E85828025
:100DE4008147EDBF9307F6FFBE952A966313C500AE
:100DF4008280FD1583C715000505A30FF5FEFDB719
:100E0400AA87014581CF09CE3E96850703C7F7FF20
:100E14006317B700E39BC7FE0545828082800145C6
:100E2400828079719387018522D4804306D626D2A5
:100E34004AD04ECE52CC56CA5AC85EC65DCCB7C450
:100E4400C901014B938981849384F437173A0000D4
:100E5400130A0A31973A0000938A4A34173900007A
:100E6400130909388357240085E35C44631B0B0092
:100E740023A8F184832BC4002285EF0030665E84AE
:100E8400B9A82326FB00FDB783A7090082971C4459
:100E94003307F5406376F500032749001D8F2A9731
:100EA40063E0E4089737000023A207308355240049
:100EB40003450400975001E0E780006F5C4058440C
:100EC400A1CB0C4403264900AE97BE8663E4B70069
:100ED40063E4C700B386C74014C4228B3A8459F034
:100EE400973700009387872B9C4B09476370F7065D
:100EF400F91717370000232BF72AB25022549254C3
:100F04000259F249624AD24A424BB24B456182804D
:100F140063150B0023A8E184B1BF2326EB0099BF1E
:100F240003274A0209CF63EFA7003385A74083A7AD
:100F34000A016376F5009737000023A9A726228BC0
:100F4400404471BF03274900BA97C5B797370000DB
:100F540023AE07245DB7411122C4173400001304E3
:100F640064261C4006C626C24AC091C7829797379A
:100F7400000023A907249737000083C7772D858BAA
:100F8400973400009384842C95C397370000A38181
:100F9400072C83C774001547637AF700CD2183C7F4
:100FA4007400F5178A07A2979C4382971C4491C347
:100FB40082971389C183032709001736000003466B
:100FC400F61D9737000083C7671D93961700BA96DE
:100FD40083D60600C5CE9737000083C7271C63E17C
:100FE400C70C97370000238B071A1C406395071220
:100FF4009737000083C7172691CF83C7740093F7F0
:10100400F70F89EB97370000A3860724977001E058
:10101400E78080E9938781849C43638E070E97372A
:1010240000009387E71BDC43173700002320F718E1
:10103400CD3B973700009387A712DC53E9CF1737CE
:1010440000001307A715184B9737000083C79712A2
:101054006363F70C83C774001547636EF70A973709
:10106400000083C72723918BDDE703260900973609
:10107400000083C6B61263C6D70A2244B240924423
:101084000249410117C301E06700834E850793F7C6
:10109400F70F973600002383F610E3E4C7F225BF69
:1010A40086073E9783550700231007002392018487
:1010B400938741859C43173500000345250E13177C
:1010C4002500BA979C43829783D741841737000041
:1010D4000347C70C93C7F7FF7D8D931717000327AA
:1010E40009003E97835707005D8D2310A7009737AB
:1010F400000083C7A70A91C7850717370000230F8D
:10110400F70817370000034767099737000083C7BC
:10111400F708E378F7ECB2402244924402494101D3
:101124008280139717003297035707006DF78507DE
:1011340099B7AD6737C70040BD072326F7200F10C6
:1011440000009737000093876705C84F83278726D9
:10115400BD66BD0693C7F7FF99836A052326D7208A
:101164005D8D82804111B7170040985F3AC6945F45
:101174003247E39CE6FE3245410182801305F00FBD
:101184008280138781871C439306001094C3010057
:101194000100010001001C4323A007008346150041
:1011A40003482500A2064208C29603480500C296D9
:1011B400034835006208C29694D783465500034815
:1011C4006500A2064208C29603484500C296034839
:1011D40075006208C296D4D7834695000348A500DB
:1011E400A2064208C29603488500C2960348B50089
:1011F4006208C29694DB8346D5000348E500A20644
:101204004208C2960348C5000345F500C29662052C
:10121400AA96D4DB83C6150003C52500A2064205A1
:10122400AA9603C50500AA9603C535006205AA96C9
:1012340094CF83C6550003C56500A2064205AA964D
:1012440003C54500AA9603C575006205AA96D4CFC6
:1012540083C6950003C5A500A2064205AA9603C548
:101264008500AA9603C5B5006205AA9694D383C6E1
:10127400D50003C5E500A2064205AA9603C5C5002C
:1012840083C5F500AA96E205AE96D4D3D443F59A65
:10129400D4C3D44393E61600D4C3944393E6160010
:1012A40094C3BA879443D842058B59E3984E0145B9
:1012B4002300E6009843184F2183A300E6009843D7
:1012C400184F41832301E6009843184F6183A3011B
:1012D400E6009C43D84F2302E600D84F2183A302A3
:1012E400E600D84F41832303E600D84F6183A3036C
:1012F400E60098532304E60098532183A304E600F0
:10130400985341832305E60098536183A305E600BF
:10131400D8532306E600D8532183A306E600D85306
:1013240041832307E600DC53E183A307F6008280B0
:1013340001008DBF1387C1871443411122C49C5EF1
:101344004AC006C6998326C2858B3A84138981874D
:10135400D1C79C5E97340000938444EF93F7F7F968
:101364009CDE173700000347C7EE93070008631B92
:10137400F700832709009C4393F7070417370000FD
:101384002309F7EC83C7040093F707048DC39387FD
:1013940081849C4382979737000023A1A7EC83C7DD
:1013A400040093F7F70B173700002301F7EA83C70C
:1013B400440093F707049DE3854717370000A3090A
:1013C400F7E8938781889C43096798C7130700FC53
:1013D40097360000238EE6E6D844F8D31C40985F85
:1013E4001183058B09CB985F3D9B98DF05479736A2
:1013F4000000238FE6E4985F1D83058B11CB985F73
:101404001377F7F798DF8547173700002302F7E4CF
:1014140083270900D8430583058B19C7D843759BD7
:10142400D8C3D843799BD8C3B240224492440249DA
:1014340041018280397106DE16DC1ADA1ED82AD6FA
:101444002ED432D236D03ACE3ECC42CA46C872C628
:1014540076C47AC27EC0F93DF250E2525253C2536E
:101464003255A255125682567247E2475248C24834
:10147400324EA24E124F824F216173002030938767
:101484008188944397370000938747DC03C707009C
:10149400058B11CB97370000238C07DA97370000B0
:1014A400A38807DA828003C71700058B65F7F85213
:1014B40071FF83C75700DDB71388C187032708006E
:1014C4001C5F9583858BD1E709C61C5BBD83230014
:1014D400F60085CA83270800985B4607935767017F
:1014E4006356070093E707C0C207C183039706004A
:1014F400C207C18709C7BA970947B3C7E702239050
:10150400F60085CD834715008DCB9736000083C642
:1015140046D493F606041387970089478DCA3A95F3
:1015240003470500854699471376F7066311D602EB
:1015340062076187B947634C0700832708009C5FF3
:10154400ED838D8B17370000A307F7D081473E85C5
:1015540082808547EDBF411122C406C61384818869
:1015640018402DE9AE877453FDFE3E85B28597374A
:101574000000238E07CC976001E0E780406D9387DD
:10158400C1879C43B70680009843558F98C3D857AA
:10159400719BD8D797370000A38C07CA97370000F0
:1015A400A38607CA1C40094798C314401737000094
:1015B4001307C7C983472700858B89EB8347370007
:1015C400858BD9C397370000238407C8B2402244CF
:1015D400410182808D47631EF5009387C1879C4338
:1015E400B70680009843558F98C3D857719BD8D7B6
:1015F4006DBF8547E31BF5FA5447F977FD17F58F5F
:101604005CC70F1000001C40096798C7130700F857
:1016140017360000230EE6C21387C1871043184211
:1016240031830D8B11E713076019F8D3D4C7B5BF05
:101634001842094631830D8B6315C7001307E04335
:10164400EDB71307E01BD5B7FC52ADF741B75D7199
:10165400A2C4A6C22A84130680022800AE8493057D
:10166400100886C6CAC04EDE52DCEFF04FEF354597
:10167400977001E0E78000951383C18783270300F7
:101684009376F41F138E018923A40700984B938E3D
:101694008188370FFCFF1367F70398CBF84F1305C6
:1016A40010F8B7020400137707E0558FF8CF98437A
:1016B400F576FD16758F98C39843B70633009303E8
:1016C40080251377F7E798C3984311497D1F137753
:1016D400F7E71367071098C303270E008549930F94
:1016E40080021C47D58F1CC783A70E001307900DDB
:1016F4003400B8CB014793553700A69583C705003E
:1017040013767700B3D7C740858BE1C383270300E3
:1017140083280E00239C07042390070603A8C8020D
:101724001378D8FF23A6080383A807001378F707C4
:1017340093F808F833E8080123A0070103A8470237
:101744003368580023A2070383A80E00014823A28C
:10175400780603DA07066307480303A80703038A26
:1017640006001358F80062081358884163580A01A8
:1017740003A807031358F8002380060103D80706BB
:101784001378F80F03AA480663060A0003DA8705EC
:10179400E37F49FB03A847023378E80123A2070348
:1017A40083870600635CF40003C805003396C90010
:1017B4001346F6FF337606012380C5003E8663D3C5
:1017C400A7002A8613158601618505071377F70F8D
:1017D4008506E312F7F3B640264496440649F259C7
:1017E400625A61618280938681889C42D84713162D
:1017F4001701635506029847131617016350060232
:101804007D57B8D71737000013074799584F050776
:10181400173600002322E69A116798C798470D836C
:10182400058B1DCB17370000034767A2136717000A
:1018340017360000230DE6A0130700F81736000042
:101844002308E6A0214798C71387C1871043585639
:10185400719B1367170058D69847058B0DC7173728
:1018640000000347B79E1367170017360000A30F45
:10187400E69C054798C71387C18710435856719B48
:101884001367170058D698470983058B09E79847CB
:101894000583058B21CF9847173600001306069B56
:1018A4001385C1870983058B630307101841184307
:1018B40031830D8B75EBAC4B184E93F50502034742
:1018C4001700CDCD79EF13077006D8CF0347060074
:1018D4001367170017360000230AE696114798C7C6
:1018E40018415C57F19B93E717005CD79C429847DB
:1018F4009316370163D606029736000083C686A284
:10190400C18A173700001307679AC5CE03478707B4
:1019140013670702973600002386E6A0056798C779
:1019240098479316270163D106021737000003472F
:1019340027926207618763570700054797360000BF
:101944002388E690096798C798479316070163D6DA
:1019540006029736000083C6F69C858A1737000076
:101964001307C794ADCE034797071367270097362D
:101974000000A389E69A216798C7828029D7854504
:101984006315B7001307B00689B789456315B70017
:101994001307F0061DBF8D456315B7001307300705
:1019A4002DB71307500715B71307600739BF03474F
:1019B40036001367170017360000A30AE6880947A4
:1019C40039BF834687070946BD8A6388C600034733
:1019D40087078D463D8BE313D7F4114725BF834614
:1019E4009707918AC9DA034797071367870041B7B6
:1019F400397106DE16DC1ADA1ED82AD62ED432D273
:101A040036D03ACE3ECC42CA46C872C676C47AC2F2
:101A14007EC0D13BF250E2525253C2533255A255CA
:101A2400125682567247E2475248C248324EA24E7C
:101A3400124F824F216173002030173700001307C3
:101A4400A7828346B7019737000083C7B7844C4BFE
:101A5400B697FD8B33D7F50097360000A386F68042
:101A640097360000A388F682058B15EF1737000020
:101A740003479782B3F7E702814601471305000243
:101A840033D6E500058A1378F70F19CA6397D70090
:101A940097270000A38A077D8280850693F6F60FB8
:101AA4000507E31FA7FC82809727000083C7577AA6
:101AB400D9E7938781849C43411122C426C206C678
:101AC4008297972700009387277C8047BE8463030F
:101AD400A40663688504018D1354550097270000FC
:101AE40083C7277A6368F404893F984497270000E2
:101AF40083C727799396570036971D8C9726000045
:101B040023A8E678E372F4FE2244B24092441725F7
:101B140000000345757581454101176301E06700C5
:101B24004372972700009387A76BDC433384874075
:101B340022955DB7B2402244924441018280828062
:101B4400938781849C43011122CC4AC806CE26CABD
:101B54004EC68297972700009387077380470149F1
:101B64006301A406BE8463668506018D1354550083
:101B74009727000083C7E7701379F5016360F404C5
:101B8400972900009389C9654D3D03A884009726D1
:101B9400000083C6066F139756004297158C3A8649
:101BA40083A54900636407016364B7003306B74043
:101BB4009727000023AEC76CE378D4FC160433697E
:101BC4002401F24062444A85D2444249B249056143
:101BD4008280972700009387A760DC433384874083
:101BE400229569B793878188984385679387077798
:101BF4007CD3938701899C4383A6070913965600D7
:101C04006358060083A6070913966600634406001A
:101C14007453FDF2828061C1AA870145DDCD8D0731
:101C2400C207C183F19BC207C18313074003636BDF
:101C3400F7021387418A08431387C18914436396C3
:101C4400A602172700001307A751185B014551C7C7
:101C54004111C20706C60545DD8D0297B240014514
:101C6400410182801387018AF9B70357650035E380
:101C740003574500636FF704B306F7402146637CBE
:101C8400D60203280500938687001D8FAA96611744
:101C9400172600000356E6502392E60023A006010F
:101CA4002393060014C12312F500130786FF972619
:101CB40000002398E64E2313B5009725000083D532
:101CC400454EB387F54017270000231CF74C210528
:101CD40082800841ADB701458280828009CD938717
:101CE400418A03A307009387C18983A8070081461B
:101CF4009A8763E31701828003A807006369F50AE2
:101D04006367A80A13878700E367E5FE03D66700C5
:101D1400216705076317E60003C7F1860507A38754
:101D2400E186972500009385654703D6470003D7CE
:101D3400650023930700329742074183172500006B
:101D44002311E546638867021385018A084163030A
:101D5400F50203D5660019ED83D7460023A00601DA
:101D640021073E9621062392C60097270000239A56
:101D7400E742B6879843E30017F99386018A9442B1
:101D8400E30BD7F683566700BDF683D647000356A8
:101D940047001843A106B2962392D70098C383D76D
:101DA4006500A10717270000231DF73E8280BE8629
:041DB400C28781B7AA
:101DB80097110020938101B51761002013010124B8
:101DC8001305400097E5FF1F93854523170600205C
:101DD800130606FE63FAC5008322050023A05500FA
:101DE80011059105E3EAC5FE17C501001305058431
:101DF80097050020938505FC1386018263FAC500C8
:101E08008322050023A0550011059105E3EAC5FECC
:101E180013850182972500209385855B6377B5003C
:101E2800232005001105E36DB5FEFD42739002BC49
:101E38008D4273904280930280087390023097E23B
:101E4800FF1F9382A21B93E2320073905230371720
:101E58000040930770052300F704930780FA2300D6
:101E6800F7040F1000003C47B70600FAE116F58F9B
:101E7800B70600069506D58F3CC7972200009382C7
:101E880082057390123473002030397101436EC695
:101E980019A0397141536AC866CA62CC5ECE19A0CE
:101EA800397101535AD056D252D44ED64AD826DA6E
:101EB80022DC06DE33016140828241114AC026C21B
:101EC80022C406C68282B24D4101024D924C224C78
:101ED800B24B4101024B924A224AB249410102499E
:101EE80092442244B240410182803D432A87637371
:101EF800C3029377F700BDEFADE5937606FF3D8A01
:101F0800BA960CC34CC30CC74CC74107E36BD7FE4A
:101F180011E28280B306C3408A06970200009696B3
:101F28006780A6002307B700A306B7002306B700FB
:101F3800A305B7002305B700A304B7002304B7001F
:101F4800A303B7002303B700A302B7002302B70017
:101F5800A301B7002301B700A300B7002300B7000F
:101F6800828093F5F50F93968500D58D939605019C
:101F7800D58D61B7939627009702000096968682C2
:101F8800E78086FA9680C1171D8F3E96E374C3F8E2
:101F9800A5B73367B500FD530D8B79E7B7877F7F0A
:101FA8009387F7F710419441B372F6003363F60054
:101FB800BE92B3E262006397720C6318D606504172
:101FC800D441B372F6003363F600BE92B3E2620006
:101FD8006398720A631BD60410459445B372F600E1
:101FE8003363F600BE92B3E262006391720A631E25
:101FF800D6025045D445B372F6003363F600BE925C
:10200800B3E26200639A72086311D60210499449D8
:10201800B372F6003363F600BE92B3E262006393D4
:1020280072085105D105E30FD6F6131706019397E9
:102038000601631CF7001357060193D70601330501
:10204800F7409375F50F91E982804183C183330589
:10205800F7409375F50F91E182801377F70F93F7A7
:10206800F70F3305F74082800346050083C6050055
:10207800050585056313D60065FA3305D6408280C9
:1020880011059105E312D6FE014582802105A105BF
:10209800E31CD6FC014582803105B105E316D6FC68
:1020A800014582804105C105E310D6FC01458280C7
:1020B800B717004003C777051377E70FA38BE7042B
:1020C800130700F8A38DE7043D47238CE7041307A3
:1020D8005003A38CE7048280B717004083C7E70248
:1020E8000D8993F7C70FC98F73270080218B9386BB
:1020F800018209CB7327008023A0E18298425D9B6F
:10210800731007800F100000371700401306700582
:102118002300C704130680FA2300C7040F10000029
:102128002307F70223000704732700809C42A18B32
:10213800D98F7390078023A001820F10000082803E
:1021480041112A83014E930E407E130F0019930FFD
:10215800400663E66E149308001913034006B3782B
:102168001503854E0D4FA14F337365020D89133545
:10217800150063E0BE161308F6FF79467298420808
:10218800135808013307C70213D61700BE07329742
:102198006146B3F6C60213068070B386C602369748
:1021A800A166F58F42075D8FB716004083C7F60218
:1021B80093F70708A307F1000346F10083C7F60267
:1021C80093F70708E394C7FE8347F100B71600406A
:1021D80093F7F70F63890714F3270080A18B938681
:1021E8000182639807140F100000B7170040130608
:1021F80070052380C704130680FA2380C7040F10D4
:10220800000023AA070303C6170313660608A3885A
:10221800C70223800704732600809C42A18BD18FBC
:102228007390078023A001820F1000001166B71574
:1022380000407D16DC59C85DA98FF18FE5FFF327B3
:102248000080A18B89CBF327008023A0F1829C42D8
:10225800DD9B739007800F100000B717004013062E
:1022680070052380C704130680FA2380C7040F1063
:102278000000D8DB03C7170313670704A388E70226
:1022880023800704732700809C42A18BD98F739009
:10229800078023A001820F100000410182807D1376
:1022A8003368E3039308E016630E08003368F3030A
:1022B8009308D016630808009378330093B8180081
:1022C8009388D81633081E01131E0801135E0E01E9
:1022D80049B56393E503054863860800014863032D
:1022E80003002A8871087298FD15131E0801C2059B
:1022F800135E0E01C181B5BD13F8150063F4BF006C
:102308007908D5B713381800E5BF83C7F60293F7E5
:102318000708A307F1000346F10083C7F60293F705
:102328000708E394C7FE8347F10093F7F70FF1DF3F
:1023380065B5F327008023A0F1829C42DD9B739052
:10234800078055B55971E2C486D6A2D4A6D2CAD0A0
:10235800CECED2CCD6CADAC8DEC6E6C2EAC06EDEB7
:102368002A8C02D6EF009020F3270080A18B138DD2
:10237800018291CBF327008023A0F18283270D00EF
:10238800DD9B739007800F100000B71700401307FC
:1023980070052380E704130780FA2380E7040F10F1
:1023A800000003C7F7021377770FA387E70203C775
:1023B800F70213678700A387E702238007047327C0
:1023C800008083270D00A18BD98F7390078023A0ED
:1023D80001820F100000F3270080A18B91CBF32717
:1023E800008023A0F18283270D00DD9B7390078076
:1023F8000F100000B7170040130770052380E7048B
:10240800130780FA2380E7040F10000003C7E702D0
:102418001377C70F2387E70203C7E702136717007D
:102428002387E702238007047327008083270D0092
:10243800A18BD98F7390078023A001820F10000011
:10244800130780C13347E5029169938709E81306AA
:1024580050023D69B7440F0093840424856B130B25
:10246800A004014A814A13047005FD19B347F50217
:102478003307C7023EC2930709A61309803E3347B4
:10248800F7023AC43347250305493319890113591B
:1024980039403345950293840BFAB3948401811B28
:1024A8003306C702B346F6023309E90236C6330BD0
:1024B800670313076055B304950213050010330929
:1024C800E902B346FB02130B80FAB3C4A40236C870
:1024D800B347F902939634003719004036CC930479
:1024E80009043ECA73260080218A11CA7326008017
:1024F80023A0C18203260D005D9A731006800F1079
:102508000000930770052380F400238064010F10F6
:102518000000034639051376860FA309C90403464C
:10252800390513661600A309C9042380040073251E
:10253800008003260D00218A498E7310068023A08F
:1025480001820F100000916CE17D73260080218AC2
:1025580011CA7326008023A0C18203260D005D9A4C
:10256800731006800F100000930770052380F40095
:10257800238064010F100000034639051366060224
:10258800A309C90403560905336696012318C9042B
:10259800035609053366B601420641822318C90469
:1025A800238004007325008003260D00218A498EAC
:1025B8007310068023A001820F100000034639051E
:1025C800137606026306061603463905218A6DDE70
:1025D8006810EF00C07D73260080218A11CA732617
:1025E800008023A0C18203260D005D9A7310068027
:1025F8000F10000023808400238064010F10000066
:10260800034639051376F60DA309C90403463905AF
:1026180013660602A309C904035609053366960121
:102628002318C904035609053366B60142064182D8
:102638002318C904238004007325008003260D0095
:10264800218A498E7310068023A001820F10000092
:102658000346390513760602630806100346390552
:10266800218A6DFE97E0FF1FE78060A22A8632CE9E
:1026780097E0FF1FE780A0A17246E30AC5FE035654
:1026880009053255336696012318C904892703467C
:102698003905218A6DDE0355090503462905924748
:1026A80033F5A9003386C90232951D8DA24763D53B
:1026B800A700B2476346F50E09466365560FC24741
:1026C800850A1316150093FAFA0F3346F602635477
:1026D800A03A050609453346A602732500802189DC
:1026E80011C97325008023A0A18203250D005D99DF
:1026F800731005800F10000023808400238064017C
:102708000F1000000355C9022A964206418223167B
:10271800C902238004007325008003260D00218A46
:10272800498E7310068023A001820F10000031BD6E
:1027380073260080218A11CA7326008023A0C182D3
:1027480003260D005D9A731006800F100000238089
:102758008400238064010F100000034639051366C6
:102768000602A309C9042DBD73260080218A11CA57
:102778007326008023A0C18203260D005D9A731082
:1027880006800F10000023808400238064010F104E
:1027980000000346390513660602A309C90459BD9A
:1027A800E38F0AF073260080218A11CA73260080FD
:1027B80023A0C18203260D005D9A731006800F10B6
:1027C800000023808400238064010F10000003466A
:1027D80039051375FC0F1376860FA309C904034640
:1027E8003905498EA309C904238004007328008091
:1027F80003260D00218A336606017310068023A084
:1028080001820F100000034639051D8A63178627C9
:1028180073260080218A11CA7326008023A0C182F2
:1028280003260D005D9A731006800F1000002380A8
:102838008400238064010F100000034639051165E8
:102848001376F60DA309C904034639051366060273
:10285800A309C90403560905498E2318C904035658
:1028680009052165498E2318C904238004007325AE
:10287800008003260D00218A498E7310068023A04C
:1028880001820F1000000346390513760602630E15
:10289800062003463905218A6DDE6810092B732648
:1028A8000080218A11CA7326008023A0C1820326D2
:1028B8000D005D9A731006800F10000023808400BD
:1028C800238064010F100000034639051165137653
:1028D800F60DA309C9040346390513660602A309C0
:1028E800C90403560905498E2318C9040356090566
:1028F8002165498E2318C9042380040073250080AC
:1029080003260D00218A498E7310068023A00182B8
:102918000F10000003463905137606026303061CF0
:1029280003463905218A6DFE97D0FF1FE780207680
:10293800AA8C97D0FF1FE7808075E30C95FF03569C
:1029480009051165498E32552318C90449210346E2
:102958003905218A6DDE73260080218A138501825C
:1029680009CA7326008023A0C18210415D9A7310A2
:1029780006800F10000023808400238064010F105C
:102988000000034639051376F60DA309C904238010
:102998000400732800801041218A336606017310F1
:1029A800068023A001820F10000003580905034682
:1029B8002905E24733F809013386C90232983308FA
:1029C800F8401306800C3306C802D2473346F60295
:1029D8006355001505060948334606036351C014BC
:1029E8000358C9029308F00F13585800329863D659
:1029F800081F094663734619F3270080A18B89CB0A
:102A0800F327008023A0F1821C41DD9B739007808F
:102A18000F10000037170040930770052300F704D4
:102A2800930780FA2300F7040F1000008356C702AB
:102A380089678117D58FC207C1832316F702230040
:102A48000704732700801C41A18BD98F73900780DE
:102A580023A001820F100000B65026549654065940
:102A6800F649664AD64A464BB64B264C964C064D16
:102A7800F25D656182807D16B1B973260080218A76
:102A880011CA7326008023A0C18203260D005D9A17
:102A9800731006800F1000002380840023806401D7
:102AA8000F100000034639052DBB73260080218ACC
:102AB80011CA7326008023A0C18203260D005D9AE7
:102AC800731006800F1000002380840023806401A7
:102AD8000F1000000346390513660602A309C9044E
:102AE80069B373260080218A11CA7326008023A047
:102AF800C18203260D005D9A731006800F10000036
:102B080023808400238064010F10000003463905E8
:102B180013660602A309C904C5B37D166DBD55CE5B
:102B28000358C902B308C040135858006357180B1C
:102B3800094663744605F3270080A18B89CBF327E8
:102B4800008023A0F1821C41DD9B739007800F1049
:102B58000000B7170040130770052380E704130728
:102B680080FA2380E7040F10000003D7C7027D8B8B
:102B78002396E70223800704E9B573260080218A9B
:102B880009CA7326008023A0C18210415D9A731080
:102B980006800F10000023808400238064010F103A
:102BA80000000356C9021376F60F33667601420613
:102BB80041822316C9022380040073280080104133
:102BC800218A336606017310068023A001820F1044
:102BD8000000050A137AFA0F31B2F3270080A18B9F
:102BE80089CBF327008023A0F1821C41DD9B7390E1
:102BF80007800F100000B7170040130770052380E7
:102C0800E704130780FA2380E7040F10000003D7B6
:102C1800C70216063A96420641822396C70299BF12
:102C2800914763EEB702179701001307A77D8A053E
:102C3800BA959C41BA978287B717004003A7470BFC
:102C48001345F5FF698F23AAE70A03A7070B698FC6
:102C580023A8E70A03A7070A798D23A0A70A828079
:102C6800B717004083A6470B1347F5FFF98E23AA31
:102C7800D70A83A6070B558D23A8A70A83A6070A98
:102C8800758F23A0E70A8280B717004003A7470B78
:102C9800498F23AAE70A03A7070B1345F5FF45BF8A
:102CA800B717004083A6470B1347F5FF758F23AA74
:102CB800E70A03A7070A598D4DB7B717004003A7BE
:102CC800470B498FEDB7914763EEB702179701009D
:102CD800130787748A05BA959C41BA978287B717F4
:102CE800004003A7470D1345F5FF698F23AAE70C9A
:102CF80003A7070D698F23A8E70C03A7070C798D95
:102D080023A0A70C8280B717004083A6470D13475E
:102D1800F5FFF98E23AAD70C83A6070D558D23A896
:102D2800A70C83A6070C758F23A0E70C8280B71722
:102D3800004003A7470D498F23AAE70C03A7070DF7
:102D48001345F5FF45BFB717004083A6470D134746
:102D5800F5FF758F23AAE70C03A7070C598D4DB70C
:102D6800B717004003A7470D498FEDB7B7170040C5
:102D780003D58700420541819377050491EB93774A
:102D8800F5013755E801130505803345F5028280C2
:102D98009377050C130700046397E7009377F50111
:102DA80037459C1CCDB72165130505D0828037E7D0
:102DB80000E01C435443A183E206D58F1CC1FD5794
:102DC8002320F7182322F7180F100000828013170A
:102DD8008500B7E700E023A0E710618123A2A710D0
:102DE8008280B7F700E08847CC4782808147373731
:102DF8000040A14663C4C700328582800345B740BE
:102E0800E38EA6FE3385F5000345050085072304F8
:102E1800A740CDB797F7FF1F9387C72E9C43171777
:102E280000201307E75A3E95636EE5001757002008
:102E38001307C7FC6368A70017F7FF1F2324A72CF5
:102E48003E858280FD57EDBF411122C406C62A8403
:102E5800313F2947B307E502B2408D83B3D78702D4
:102E680022449507B3D7E70237370040C207C1832A
:102E78002316F74041018280716541111305052031
:102E880006C6D937B7370040130770F82381E740E3
:102E98000D47A381E74013070004A380E7400547D7
:102EA8002387E740B240410182802382018223A424
:102EB8000182B717004003A7070CB706C0FFFD162D
:102EC800758F23A0E70C03A7070DB7064000558FA1
:102ED80023A8E70C03A7070C3D9B23A0E70C03A737
:102EE800070D1367070123A8E70C828023A4A1829A
:102EF80013064006894503C5C1826F30A16FB71715
:102F0800004003A5470C83A7470C598113451500BA
:102F1800C18B058999E31365250083C74182638CBA
:102F2800A7002382A18201C99387818203A3070096
:102F3800630303000283828011456FF0AFC0411123
:102F480093962500AA852D4506C697D0FF1FE780D2
:102F58000072B240014541018280411126C293941A
:102F6800250022C44AC02A843289A686AA85014639
:102F7800254506C697D0FF1FE780606FA6864A865C
:102F8800A285294597D0FF1FE780606EB240224492
:102F980092440249014541018280011122CC06CEAA
:102FA8003714004026CA4AC84EC652C48344740522
:102FB800034AB4058349840503499405EFF04F8F0C
:102FC8008347A40593F4F40F137AFA0F93E71700D5
:102FD800230DF40493F9F90F1379F90FB71700408B
:102FE80003C7A705058B6DFF03D5C705A38D470547
:102FF800238C3705A38C2705A38B9704F2406244E2
:10300800D2444249B249224A0561828041119397CC
:10301800050122C406C6C1872E8463DA0700EF3093
:10302800013119C1EF3081292165218D1DA093F748
:10303800150013C5150091EF93F7250099CFC135F9
:103048001306000A894503C5C182EF30A15A13450A
:103058002400B2402244410182809397250163D025
:103068000702EF508103C93D37F60200130606E058
:10307800896503C5C182EF30E15709657DB793972C
:1030880015010145E3D707FC179501001305853E97
:10309800EF80211113060064916503C5C182EF30EA
:1030A8006155116559B71D7149469795010093857A
:1030B800E53717A501001305A52D86CEA2CC97E00C
:1030C800FF1FE78000CF01E9179501001305453779
:1030D800EF80210D01A037F700E0795610CBFD569F
:1030E80054CBB7E700E0056423A087109306F002ED
:1030F80014C323A087180F1000001306C0038145CE
:10310800480897E0FF1FE78040C59707002093878E
:10311800E7933ECAB5472304F102A167938707E006
:103128003ECEB7070105938707103ED0ED4723121F
:10313800F10285472303F10297070000938767E0B0
:10314800BEC497070000938787E1BEC6856793874B
:1031580017D02315F102970700009387C7C83EDAF6
:10316800B7F5070097070000938767E33EDE8146BF
:1031780097070000938787DC7000E1051945BEC0FA
:10318800231C810097D0FF1FE780604E58088147B5
:10319800994670003E960346060085070507A30C6E
:1031A800C700E398D7FED24791C7035781018567C7
:1031B8006373F70001A04808EF302178AA8501C998
:1031C8001795010013050529EF70716901A0F640F4
:1031D800664425618280411117050000130545E307
:1031E80006C622C4EF30E1711384C1822300A40013
:1031F80021286539034504002244B24013060032F1
:10320800896541016F30013F411106C6F3270080EF
:10321800A18B1387018289CBF327008023A0F18239
:103228001C43DD9B739007800F100000B717004008
:10323800930670052380D704930680FA2380D70469
:103248000F10000083C6F70293F6A60FA387D702D4
:1032580023800704F32600801C43A18BD58F73902D
:10326800078023A001820F100000F3270080A18BA4
:1032780089CBF327008023A0F1821C43DD9B739048
:1032880007800F100000B7170040930670052380D1
:10329800D704930680FA2380D7040F10000083C652
:1032A800F70293E62600A387D70223800704F326B4
:1032B80000801C43A18BD58F7390078023A00182C7
:1032C8000F1000000545EFE03FE1BD311305407EDA
:1032D80081470147814605468545EFE07FE6B240D4
:1032E800014541016F30110B4111979501009385FC
:1032F800E51B179501001305653206C6EF703156B8
:103308001795010013058532EF7071552945EF7047
:103318001159B24041016F20F012411197950100F7
:1033280093850517179501001305452F06C6EF70FD
:10333800115313050002EF7091562945EF7031566D
:10334800EF30011E8567138607773376C502B240D2
:103358009387873803C54183854541013E966F3081
:103368006129411197950100938505111795010071
:103378001305C52A06C6EF70914E13050002EF70BB
:1033880011522945EF70B151B24003C541838545BB
:1033980041016F30A1389707002083C73778411162
:1033A80093F7E70F06C617070020A309F776EF90F3
:1033B800700905E1EF20202BEF20B064B2403726DA
:1033C800090003C541831306067C854541016F301A
:1033D8006122B24041018280411197950100938595
:1033E800250C179501001305652306C6EF703147B4
:1033F8002945EF70D14AB240410171BF41119795FB
:10340800010093852508179501001305252106C697
:1034180022C426C24AC0EF7091442945EF70314852
:10342800EF90500219E52244B2409244024941010A
:103438009DB717F4FF1F130424A23C487179F57453
:103448001D09FD14239027012391970017F5FF1FED
:10345800130585A4EFC0D0717C4417F5FF1F130531
:10346800A5A317F4FF1F1304E4A523900700EFC0DA
:10347800906E1C4822852390270123919700EFC066
:10348800306F5C4422852244B24092440249239022
:10349800070041016FC0306C411197950100938579
:1034A800A501179501001305651706C622C426C293
:1034B800EF70F13A2945EF70913EEF90A07805E959
:1034C80097950100938545FF17950100130505158C
:1034D800EF70F1381795010013050517EF703138B3
:1034E8002244B2409244294541016F70513B130573
:1034F8000002EF00F06F2A8405E19795010093859B
:10350800A5FB1795010013056511EF705135179547
:1035180001001305E514D9B7A547A300F5009307E3
:10352800C0125CC1FD572306F500EF00506B230065
:10353800A400084CB705D4009385851A3105EF100F
:10354800405B084C834504003105EF205068084C67
:10355800930500103105EF20D068044C0565EF0095
:10356800007BB104AA852685EF207066084C930578
:10357800A0103105EF20F066044CFD26AA85B104A1
:103588002685EF20D06422852244B240924441012E
:103598006F00B06B93F71500B9CB411122C4179592
:1035A80001001305A5072E8497950100938505F55D
:1035B80006C6EF70D12A2945EF70712EEF9080680A
:1035C80001C9D93D13451400B2402244410182800B
:1035D8009707002083C7975493F7E70F93E71700DF
:1035E80017070020A30CF752EF206009E1BF01453F
:1035F8008280797197950100938545ED17950100B3
:103608001305C50106D6EF7091252945EF703129BC
:10361800614681452800EFE05F8DEF00505CA547CB
:10362800A304F1009307C0122304A1003EC6056558
:10363800FD57230AF100EF001003EF90A0601DE58D
:1036480097950100938585E817950100130505FDF9
:10365800EF70F12017950100130505FFEF70312079
:103668002945EF70D123B250456182802800EF00D0
:10367800B05ED5BF411197950100938525E6179552
:1036880001001305A5F906C622C4EF70511D29458E
:10369800EF70F120EF90005B1DE597950100938591
:1036A800E5E317950100130565F7EF70511B1795B2
:1036B8000100130565F9EF70911A2244B2402945BB
:1036C80041016F70D11D4145EF0090522A8405E1F8
:1036D80097950100938585E017950100130505F47A
:1036E800EF70F11717950100130585F7E9B7A5479E
:1036F800A300F5009307C0125CC197A70100938748
:1037080027E45CC9FD572306F500EF00504D230060
:10371800A400084CB705D4009385851A3105EF102D
:10372800403D084C834504003105EF20504A084CC1
:10373800BD65A5053105EF20D04A084C9305300238
:103748003105EF20D04822852244B24041016F0064
:10375800D04F411122C497950100938565D92A84D9
:1037680017950100130585EB06C6EF70510FA2856A
:1037780017950100130585ECEF70710E2945EF7060
:10378800111285476309F4008947630AF400B240BF
:103798002244410182802244B240410199BD224421
:1037A800B2404101C1BD011135469795010093858D
:1037B80065DC179501001305652C06CE22CC97D041
:1037C800FF1FE780005F0DE597950100938505D4FD
:1037D80017950100130585E4EF707108179501002E
:1037E800130505C6EF70F11B2945EF70510B01A0B9
:1037F80097F7FF1F9387079C3EC4856793870780C9
:10380800340017A60100130626D497950100938566
:1038180025FF17950100130525003EC6EF20800EF1
:103828002A840DC997950100938545CE1795010007
:103838001305C5DEEF70B102A285179501001305C7
:1038480065D4EF70D1012945EF707105F2406244EB
:1038580005618280EF80201B17950100130505CCB8
:10386800EF10802FEF502011EFE0702417E5FF1FB5
:1038780013058564EFE0501117950100130505CB7A
:10388800EFE0B0242A84EF107009EFA0204CEF007D
:10389800B142EF20901EEF103064EFC010299795C9
:1038A80001009385A5C617950100130525D709C8FA
:1038B800EF70E17AA285179501001305E5CE51B79F
:1038C800EF70E17917950100130545D0EF70217964
:1038D8002945EF70C17CEFC0B00BEF90A03629C529
:1038E80097950100938585C217950100130505D3A7
:1038F800EF70E176179501001305C5CEEF702176BC
:103908002945EF70C17997950100938525C01795D2
:1039180001001305A5D0EF708174179501001305F8
:10392800A5CEEF70C17305B7BD34F1BF41111705BE
:103938000000130565C606C6EF20B17C238AA18264
:1039480017E5FF1F13050558EF007042A93DEFF07A
:10395800CFD517050000130505E0EFF02FD9B240C9
:1039680081450565410165AE411197950100938533
:10397800A5D017950100130565CA06C622C4EF70C5
:10398800016E1384E1808345040017950100130537
:1039980065DAEF70C16C2945EF706170034504006A
:1039A800B24022444101828039711C0822DC3EC2A7
:1039B8002E84B7072000B705D30026DA9385851A29
:1039C800AA843EC448001C0806DE3EC6EF106012FA
:1039D800EF00F020AA854800EF20701F9305A01083
:1039E8004800EF201020493793150501C181480090
:1039F800EF20301F97950100938505C917950100A1
:103A08001305C5C1EF70A165835584000356640092
:103A180017950100130505CFA18193F5F507EF7000
:103A280001642945EF70A1678347940001478146E7
:103A380093F7F707D917B337F000B307F04023051A
:103A4800F4005000A2852685EF10E02A15C52A84C7
:103A580097950100938545C317950100130505BC8B
:103A6800EF70E15FA28517950100130525CBEF7074
:103A7800015F2945EF70A162F2506254D25421616E
:103A88008280411122C426C22A84AE84179501007F
:103A98001305C5B897950100938585C006C6EF70D4
:103AA800015C13050002EF70815F2945EF70215F0B
:103AB80022852244B240A68592444101F5B5797128
:103AC80022D426D22E844AD08145B2842A896146DE
:103AD800280006D6EFE06FC1EF007010A547A304D9
:103AE800F1009307C0123EC62304A100EF20512322
:103AF800930720033375F50297950100938585BBDD
:103B08002AC817950100130565B1EF704155835513
:103B180084008306840003566400A18193F5F507A9
:103B2800179501001305C5BBEF7061532945EF7068
:103B3800015798408347270083461700A207D58F6F
:103B4800BD6663C7F604834737002387F180834740
:103B58009400294793F7F7076385E700FD57230A81
:103B6800F100831764006359F000FD57230AF10040
:103B78009307400602C83EC62800EF00B016A2858B
:103B88004A851D35B25022549254025945618280AB
:103B9800AD06E39ED7FA83445700F9332695238769
:103BA800A18075B70111979501009385E5B1179527
:103BB80001001305A5A632C606CE22CCEF70214A15
:103BC80013050002EF70A14D2945EF70414D3246B3
:103BD80018428347270083461700A207D58FBD6682
:103BE80063CAF600834737002387F180F2406244B6
:103BF80005618280AD06E39BD7FE03445700AD33D1
:103C080022952387A180DDB739711C0822DC3EC2CA
:103C18002E84B7072000A16526DA3EC4AA841C08B2
:103C280093854520480006DE3EC6EF00906CB71726
:103C3800004083A5470C4800B18193C515008589CC
:103C4800EF20E07897950100938545B0179501001E
:103C58001305C59CEF70A14083558400035664008A
:103C680017950100130505AAA18193F5F507EF70D3
:103C7800013F2945EF70A1428347940001478146DF
:103C880093F7F707D917B337F000B307F0402305C8
:103C9800F4005000A2852685EF10E00515C52A849A
:103CA80097950100938585AA179501001305059737
:103CB800EF70E13AA28517950100130525A6EF706C
:103CC800013A2945EF70A13DF2506254D254216166
:103CD8008280411122C426C22A84AE84179501002D
:103CE8001305C59397950100938585A706C6EF70C0
:103CF800013713050002EF70813A2945EF70213A28
:103D080022852244B240A68592444101F5BDB717E9
:103D1800004083A7470C7D8D133515008280411123
:103D280026C2AE848D4522C406C62A84EFE0BFF9B8
:103D3800B717004099C803A5C70C418D23A6A70C47
:103D4800B240224492444101828003A5870C418DF0
:103D580023A4A70CF5B7011197950100938545A2F7
:103D6800179501001305858B32C606CEEF70212FFB
:103D780013050002EF70A1322945EF704132324637
:103D8800B717004083A7470C1842B1838345070043
:103D980093C71700858B6386F500F24005650561BA
:103DA800BDBFF24005618280797122D426D22E846B
:103DB8004AD081453289AA846146280006D6EFE0B8
:103DC800CF92312DA547A304F1009307C0123EC638
:103DD8002304A100EF20C174930720033375F50273
:103DE800979501009385C5982AC817950100130572
:103DF800E582EF70C126835584008306840003564C
:103E08006400A18193F5F507179501001305859BBB
:103E1800EF70E1242945EF708128832709000565A3
:103E280083C50700ED3D83479400294793F7F707BB
:103E38006385E700FD57230AF1008317640063597F
:103E4800F000FD57230AF1009307400602C83EC65A
:103E580028001925A2852685453BB2502254925444
:103E680002594561828041118D4522C406C62A84C3
:103E7800EFE07FE5B717004003A5870CB240218D1E
:103E8800224423A4A70C410182800111354697855D
:103E980001009385256E17950100130525BE06CEF2
:103EA80097D0FF1FE780E0F001E91795010013059F
:103EB800A593EF70012F01A0EF5061552AC6EF00BE
:103EC800B121EF00F100EF60D06EF240324505619C
:103ED800828041111305800406C697C0FF1FE78042
:103EE800801C371700408327870A8D45130500205B
:103EF80093E707202324F70AEFE09FD2EFE0DFF7EC
:103F0800179501001305C548EF70A1291795010001
:103F18001305C5B6EF70E128EFF0EF98EFF0AFABFF
:103F2800AD37EFF0BFA097C0FF1FE780E0670145FE
:103F380082804111B2862E86AA852D4506C697C075
:103F4800FF1FE780C072B240014541018280AE8602
:103F58000146AA85254517C3FF1F670043719307CC
:103F6800000463E6C7021D71A2CC2A84080886CE25
:103F780032C6EF706103B2461008A285294597C082
:103F8800FF1FE780C06EF640664425618280395580
:103F980082800147979601009386469F3388E50003
:103FA80083470800050709059183B69783C707006B
:103FB800230FF5FE83470800BD8BB69783C707001C
:103FC800A30FF5FE93170701C183E3E9C7FC8280BD
:103FD8004111979501009385A58B1785010013055D
:103FE800E56306C6EF70A10713050002EF70210B09
:103FF800B240294541016F70810A5C49411122C4D0
:1040080006C62A8491C7DC4381C72E850C4882974F
:104018001C4CC84BEF20812A1C4CB240224423AAD6
:104028000700410182804111328506C622C426C29A
:104038002E844AC0EF200044AA84979501009385F6
:104048002584178501001305655DEF70410103079D
:1040580084000356640083554400A6861795010022
:1040680013050596EF60B17F2945EF7041031704EA
:1040780000201304E4A217090020130969A8834744
:104088000400639B970081452285853F8345C401D1
:1040980003C56183EF20816813040402E31124FF40
:1040A800B240224492440249410182801C420111DB
:1040B80026CA4AC806CE22CC03C4270003C7170065
:1040C800AA842204598C3D672E896378870003C42B
:1040D800470083C7370022045D8C978501009385CC
:1040E800E578178501001305655332C6EF6031770F
:1040F800A285179501001305658FEF605176294554
:10410800EF60F1799307A01032466316F400CA8570
:104118002685EFF03FA997850100938525751785BA
:1041280001001305A54FEF60917313050002EF60BE
:1041380011776244F240D2444249294505616F60D3
:1041480011761C42011126CA4AC806CE22CC03C4E5
:10415800270003C71700AA842204598C3D672E89BB
:104168006378870003C4470083C7370022045D8C47
:10417800978501009385C56E178501001305054ACB
:1041880032C6EF60D16DA28517950100130505862B
:10419800EF60F16C2945EF6091709307A0103246EB
:1041A800631BF4006244F240CA8526854249D24422
:1041B80005616FF0DF90F2406244D24442490561E4
:1041C80082801C42011126CA4AC806CE22CC03C4EA
:1041D800270003C71700AA842204598C3D672E893B
:1041E8006378870003C4470083C7370022045D8CC7
:1041F800978501009385056617850100130505421B
:1042080032C6EF60D165A285178501001305057ECA
:10421800EF60F1642945EF6091689307A01032467A
:10422800631BF4006244F240CA8526854249D244A1
:1042380005616FF01F85F2406244D244424905612E
:1042480082801D719707002083C74787CEC686CE18
:10425800A2CCA6CACAC8D2C4ED8F970900209389F8
:104268002984D9EF9707002083C74787ED8FD9EBBB
:104278009707002083C78788ED8F0145B5CB89470D
:10428800939457001C103EC4B70720003EC617EA97
:10429800FF1F130A2AC31C103EC88327CA0002CA7C
:1042A80002CC02CE83D7070033849900184C231B15
:1042B800F100FD77231CF1005C4B2E89B1E797854F
:1042C80001009385E55F1785010013052535EF602B
:1042D80011591785010013052566EF6051582945C6
:1042E800EF60F15BB387990003C5C7013345A900A7
:1042F800F6406644D6444649B649264A2561828036
:104308008147BDBF8547ADBF83471400A555B9CFC9
:10431800FD17035607014C47A300F4008347C40068
:104328002800230FF100EF20A008528522879796D6
:1043380001009386E62130004C08EF00D01B2A8A42
:1043480055D1978501009385A55717850100130559
:10435800E52CEF60D150D285178501001305855EE5
:10436800EF60F14F2945EF609153D55522857131A2
:1043780095BF9C4DDC4B81CBD04183C5C50103C59E
:1043880061836F20212782801C4EDC4BA1CBB9C5ED
:10439800411126C21785010013054528AE8497856B
:1043A80001009385255106C622C43284EF60314B43
:1043B800A685178501001305A55EEF60514A2945BA
:1043C800EF60F14D8345C4012244B240924403C5D5
:1043D80061831306400641016F20C12182809387C3
:1043E800518303C50700130715002380E700828067
:1043F800011122CC17F4FF1F1304846A26CA044C47
:1044080006CE4AC8DC484EC699CF045CDC4895CB3A
:10441800244CDC488DCB0145F2406244D2444249E9
:10442800B249056182800149AA891609EF10D16B4A
:10443800C8C8330524011C4D23993701DC4BE9FF1B
:10444800D9BF0549D5B70949C5B710458345C50141
:1044580003C561836F20011A411126C2AA84414510
:1044680006C622C4713705E997850100938545463C
:10447800178501001305851AEF60713E1785010045
:104488001305051EEF60B13D2244B2409244294510
:1044980041016F60D1406146A6852A84EF60D13022
:1044A800084CB705D4009385851A31059925084C21
:1044B80083C504003105EF109071084C9305001076
:1044C8003105EF101072044C0565EFF05F84B104FC
:1044D800AA852685EF10B06F22852244B240924407
:1044E8004101A5B7411126C2AA84414506C622C486
:1044F800013705E9978501009385C53E17850100B9
:104508001305C511EF60B135178501001305451571
:10451800EF60F1342244B2409244294541016F6072
:1045280011386146A6852A84EF601128084CB70522
:10453800D4009385851A31056D2B084C83C504007A
:104548003105EF10D068084C9305A0103105EF1025
:104558005069044CEFF04FC1AA85B1042685EF10CD
:10456800106722852244B24092444101F9BDB70741
:10457800B1619387871A17F7FF1F232BF758B7875F
:1045880000209387979917F7FF1F2325F758B797A8
:104598006C141571938757B617F7FF1F232EF7561C
:1045A80088109307802186CF17F7FF1F2328F75617
:1045B800A2CDEF00E15DB787996193870790114617
:1045C8004C0028103EC2EFF0DF9C978501009385D0
:1045D800E5320818EF60B13D1946978501009385CB
:1045E800253913051103EFF0DF9A978501009385AC
:1045F800E5301305D103EF60913B414697850100F3
:10460800938565371305E103EFF0BF981306600340
:104618002C108810EF00815E85476308F50A97859E
:1046280001009385E52717850100130525FFEF6035
:104638001123178501001305A52CEF605122294588
:10464800EF60F125EF10D16D9357850003C75183B3
:10465800AA97BA9713570501BA976181AA97A38AAF
:10466800F18297F7FF1F9387673E17F7FF1F2325F0
:10467800F744854717F7FF1F2302F74497F7FF1FF3
:104688009387873E17F7FF1F2328F744894717F7B3
:10469800FF1F2305F74497F7FF1F9387A73E17F7D8
:1046A800FF1F232BF744170500001305C5B99147D1
:1046B80017F7FF1F2304F744EF20A124FE406E44A0
:1046C800238BA18201452D6182802A848C102800C9
:1046D800EF00E15863018502978501009385451C29
:1046E80017850100130585F3EF6071171785010021
:1046F8001305852299B741462C0017F5FF1F1305AE
:104708002540EF60710A3DBFEFD28FF92A84084532
:104718002E89B28909C900C1970500009385E57300
:104728006105EFF0506C81447D5AEF10200463C39B
:10473800A4048144EF10800463C6A40497F7FF1F04
:104748009387C73E9C43DC47B307F9409187230210
:10475800F400638109048327C900B307F4409587EF
:10476800A302F4001C4C89C79C4799C322858297F1
:104778006FD04FF65C44139714008504BA972390C2
:10478800470165B71C48139714008504BA9723900E
:1047980007004DB7832789000547B307F44095877D
:1047A800A302F40083570400638EE7028DC3094710
:1047B8006384E7040D47E397E7FA97870100938737
:1047C800A77A1CCC978701009387077B11A8978746
:1047D80001009387E7401CCC9787010093874741E6
:1047E8005CC849B7978701009387872C1CCC9787AB
:1047F80001009387E72CEDB7978701009387877BA4
:104808001CCC978701009387E77BD9BF85E1EFD25E
:10481800CFEA004618448347940075839D8B63153F
:10482800F700EF00D01948C46FD06FEB8280EFD249
:104838002FE713893500C16442094111AA8901444F
:10484800F11413590901054A2EC6EF003072B2451A
:104858006346A400014541016FD0CFE783A7090053
:1048680013171400BA9783D707006388B7006394B7
:10487800970063742A010504C1BF0545E9BFEFD25B
:104888004FE1AA892E89328BB6843A8ABE8AEF8094
:10489800603B4DC12685EF10902D8D4763E5A7003D
:1048A8007D556FD08FE283DB4400EF0030722A849D
:1048B800EF0010739307740031443305850263C514
:1048C800A702EF00B070EF0070702A84EF005071FB
:1048D8009307740031443305850263CDA702EF00C6
:1048E800F06E9307450019A8EF00906F3305850215
:1048F8001307F0179307C017E357A7FC2D55E3C21A
:1049080077FB63000B02D6865286A6854A85EFE0C0
:10491800304F41BFEF00D06C330585029307C5FFC8
:10492800F1BF832749001385C90083D527000137C4
:1049380079F9BDB76955B5B797F7FF1F239AA71E31
:1049480097F7FF1F9387871E904381470C463307CD
:10495800F500420741836393B70082805446139859
:1049680047008507C2962390E600D5B797F7FF1F43
:104978009387C71B9C4303C58700828017F5FF1FD9
:104988000355051B8280EFD24FD3C1671387D7FF2A
:104998006307E5026368A700F117630EF500014598
:1049A8006FD0EFD31387E7FF630EE500FD171D8D6A
:1049B80013351500F5B7EF4080347D15D5BFEF40AE
:1049C8000012E5BFEF406010CDBFEFD20FCF41110D
:1049D800AA8401442EC6EF00705AB2456346A4006B
:1049E800014541016FD0AFCF9C48131514003E9587
:1049F80083570500E387B7FE0504E9BF0348550060
:104A0800814693F7F60F63E5070181473E8582806B
:104A1800584593975600BA9703D727006316B700EF
:104A280003D70700E304C7FE8506E1BF83464500B8
:104A380001479377F70F63E4D700814711A81C4516
:104A4800131657000507B29703D60700E313B6FEFF
:104A58003E858280EFD2CFC493170501C18797FAAC
:104A6800FF1F938AAA0C6353F00883A70A00C04764
:104A78009C4703570400198D420541816366F50080
:104A8800014422856FD00FC512052A94DDBFDC478B
:104A980013944900014A3E94834744006341FA0253
:104AA800014A834754006346FA028509C20993D92B
:104AB800090183A70A009847E3EBE9FCD1B71C4436
:104AC80013195A00A6853E994A85013709ED050A4A
:104AD800E1B75C4413195A00A6853E994A85F53515
:104AE80019E1050A7DBFE30209FC61BFAA84814977
:104AF800C9B7EFD28FBC1C452A8481E79307C5004C
:104B08001CC51C44231204001CC09307F00F63E962
:104B1800B70093F5F50F2285EF10700B6FD02FBCFF
:104B280093940501C167C18063F7F500A6852285C6
:104B3800EF10900DE5B7C18193F5F50F2285EF10C1
:104B48001009A6852285EF10D009C9BF97F7FF1F66
:104B58009387C7FD884382801C4599C797F7FF1F35
:104B680023A6A7FC014582807D55828097F7FF1F09
:104B78009387C7FB984383474500484792073E956C
:104B88008280EFD28FB3617100451C183EC6B7070B
:104B980080013EC81C183ECA8357440002CE02D08A
:104BA80002CC231EF100834784002A8902D2230104
:104BB800F1023C083ED402D6553F83570500231620
:104BC800F102EF3050632307A1025C4003556400F3
:104BD800F18313F717008347F10252055181F99BBE
:104BE800D98FA307F102EFE0101339C5AA84035542
:104BF8000500EF80000683D704002AD26800231C32
:104C0800F10083D72400231DF1001C4803D6470078
:104C18008C43EF10E0798347B400CA8617860100F9
:104C2800130686E28117A305F4006C004810EFE034
:104C3800301D5D616FD0AFAA2155E5BF1C45B1CFCE
:104C480003C5A700894613576500630BD7028D4635
:104C5800630ED70285466300D70213074006330563
:104C6800E50203C7B700418B15CB83C7B700BD8BDF
:104C78003355F54082801375F5031307803EC5B799
:104C880009671375F50313070771D1BF37270900A3
:104C98001375F5031307077CD9B701458280EFD256
:104CA800CFA103A98500630409048347B900AE8432
:104CB80093F7070E91CF03459900930520030D81C3
:104CC8000505B305B50288446105EFF0B01D05A0E0
:104CD8002E85AD372A8401CDDD218325C900B30790
:104CE800B54063F887002E94B305A440E9FD6FD062
:104CF8000F9F8545C9BFEFD24F9C2A8403D5050075
:104D0800011132C636C43AC22EC002CA02CC02CE43
:104D1800EF70307482452ACA22852ECC813D035714
:104D28000500231EE100EF30104DA246324692479F
:104D3800230FA10036874C08B28622850146EFF082
:104D48001FB405616FD0AF99EFD22F9761711C180E
:104D58003EC6B70780013EC81C183ECA3C0800453D
:104D68003ED4AA8402CC02CE02D002D202D6EFF000
:104D7800FFDF8357050035592316F102EF30B0479E
:104D88002307A10209C48357440091E721594A85A2
:104D98005D616FD0CF940355640052055181EFE0F7
:104DA80080772A8965D58347B40093F7070E89C7AA
:104DB80013058401EFF0901083574400231EF1007F
:104DC800834784002301F1025C4003550900D9831D
:104DD80013F7070883471102231CA10093F7F7076D
:104DE800D98FA300F10283572900231DF1005C40ED
:104DF800F18313F717008347F102F99BD98FA307B3
:104E0800F102EF7010652AD251D1834794006800EF
:104E1800139757008347B400FD8BD98FA305F4007F
:104E28001C4803D647008C43EF108058A687178785
:104E38000100130767C1740005464C102685EFF082
:104E48001FA42A8929D58347B400A685FD8BA3050D
:104E5800F400B1352DBFEFD24F86832485FE2A8416
:104E680041112685EFF09FDD834734FF93F7070E46
:104E78009DC32AC62685EFF0DFD019C9834734FFC2
:104E8800B245FD8BA309F4FE81C52285EFF09001A0
:104E980041016FD0CF846DDD8327C4FF26858297BB
:104EA80065F9834734FF93F7070E81C72285EFF032
:104EB800F000032584FE493DE1BFEFC21FFD9C4180
:104EC80041112A8903C7070089472E849356670032
:104ED800638CF6020D466382C6049307F0076302EB
:104EE800F7022E85EF100059AA848149C16B130C73
:104EF800490097F7FF1F938767C39C43984763EC64
:104F0800E90241016FC03FFC03D745008547E3FA3A
:104F1800E7FE2E85EF10E059C1BF03D74500E3F245
:104F2800E7FE2E85EF100055AA842285EF10E05584
:104F3800C204C98C5DBFDC470355A900139A490018
:104F48003E9A93170501C187635DF00083570A00F5
:104F58006395A70263E574038327CA00034D5A00CB
:104F68001DA0A1672167A98F1307F7EFE374F7FE68
:104F780063950900EFF03FA171FD85099DBF832767
:104F88008A00034D4A00835DA90003576900216A1E
:104F9800138BC7003AC6814A33CA4D01631E5D01AF
:104FA80097F7FF1F938707B99C43E1DBA2866286C8
:104FB800814526858297D1B7A1679387F7EF930C30
:104FC8004BFF63F04703B2455A85EFF05F8619CD72
:104FD80003278B00104719CA10436380C4023107A6
:104FE800D5BFEE856685EFF05F9E71FD93861A004A
:104FF80093FAF60F130B0B0255B7835644005C4324
:10500800E3EDF6F622853AC6EF10C035A16793871F
:10501800D7042A8A035D4400324763E89700834730
:10502800D90093E707F8A306F9001C47668522868E
:10503800E2858297C1670844FD17337AFA005295D2
:1050480008C02312A40115BF97F7FF1F938707AE67
:105058009843814715C31447814763FFD500939749
:1050680045004C47BE9519C903C75500814763756C
:10507800E600DC451606B2973E85828003C74500E8
:105088008147E37BE6FE16069C45F5B7EFC25FE174
:10509800AA892E8A814497FAFF1F938A2AA983A78F
:1050A8000A00984763E4E4006FC0DFE2DC4713942A
:1050B800440001493E9413BB140083474400634BEA
:1050C800F900014913BB140083475400634FF900EA
:1050D8008504F1B70844931759005287DA860146C8
:1050E800A2853E9582990509C9BF4844931759007E
:1050F8005287DA860546A2853E9582990509E9B761
:10510800EFC2BFDB814517F5FFFF1305256097F751
:10511800FF1F239F07A09D3F6FC07FDC97F7FF1FEE
:105128009387C7A09C4399CBEFC23FD9814517F518
:10513800FFFF1305A55D993F6FC07FDA8280EFC23C
:105148003FD641112315E1002E89B284B6893A86EB
:1051580081460147ED452A84EF1071682AC61DCDA6
:105168000356A100CE85EF503164CA852285EF1021
:10517800717B058915C1228501462C0023149100F5
:10518800EF2041112A8409C5ED452800EF109173DD
:10519800228541016FC01FD44944FDB76554CDBF76
:1051A8005C41FD175CC18280EFC23FD1EF10213C0A
:1051B80095473305F50281450D816FC05FD2EFC277
:1051C800DFCFEF10C13A95473305F5020D816FC067
:1051D8001FD1EFC29FCE03550500EF10913C6FC061
:1051E8001FD0EFC29FCD035505003287AE8617D674
:1051F800FF1F035606D497F5FF1F9385E593813764
:105208006FC0FFCDEFC27FCBEF50012F6FC03FCDF6
:10521800EFC2BFCA97F5FF1F93850592EF20610E75
:1052280001456FC0DFCBEFC25FC9814517D5FF1FAE
:10523800035525CCEF1031796FC07FCAEFC2FFC785
:1052480097F5FF1F93854590EF20A10B01456FC08F
:105258001FC9EFC29FC6814517D5FF1F035565CFEC
:10526800EF1071766FC0BFC7EFC23FC52E85EF60E4
:10527800A04CEF60F0016FC09FC6EFC21FC4EF6083
:10528800D00B6FC0DFC55C49E1175CC95CC58357AB
:105298002501A1072319F50083570501A107231844
:1052A800F5008280F1473305F50297F7FF1F9387D2
:1052B800A78B9C433E9582808D476317F60603D7DC
:1052C8004600854763F2E706EFC23FBF368536845E
:1052D8002E89EF10201A39C1835744009314050111
:1052E800C18063ED97022285EF10C018FD142312C8
:1052F80094009307A002630EF5009307B0026301C0
:10530800F50293079002631BF5002285EFC0F06F4A
:1053180031A00146CA852285EF8060036FC03FBC7B
:105328002285EF001056DDBF828097F6FF1F938617
:10533800E6839C42014599CF9843D44217F6FF1F54
:105348002326E6826396D70097F6FF1F23A2E682FC
:105358001385C7FE8280EFC25FB6C9267144330544
:1053680085029145EF70C05601E565556FC03FB79E
:1053780097E7FF1F23A8A77E552633058502914589
:10538800EF7000557DD197E7FF1F23AFA77C7926E3
:1053980097E7FF1F2392A77C512697E7FF1F239EBD
:1053A800A77A977701009387676F17E7FF1F23296D
:1053B800F77A97070000938747ED17E7FF1F232F1A
:1053C800F778014565B7EFC25FAFAA8517E5FF1FFC
:1053D80013058578EF10E01D6FC07FB0EFC2FFADF9
:1053E800DD37EF10801E97E7FF1F938727789C43D0
:1053F80081CF1387C7FE09CB83D5C7FF17E5FF1FEA
:1054080013054577EFF0002A6FC07FADEFC2FFAA02
:10541800EFF0BFF111C9834785002A8493F7070489
:1054280091E70355E5005D3F6FC07FAB8347C5003B
:105438009304450117E9FF1F1309497385E383277F
:1054480009005CC997E7FF1F23A2977283274900C9
:10545800E1FF97E7FF1F23AD9770F9B7FD17230604
:10546800F5006105EF60E0728307840063C90704F3
:105478008347840093E707F82304F400EF10410AF8
:105488004205A94741813375F5028347840093F7A4
:1054980007FCC98F2304F4008347D4003E951C40C1
:1054A8002318A40089CF984319CB8347C4005040E0
:1054B800814585073305F502420541810297832717
:1054C80009005CC897E7FF1F23A2976A8327490052
:1054D80089E797E7FF1F23AD97688347C400A9D7DB
:1054E8008355040117E5FF1F1305C568EFF0801BFE
:1054F80025BFEFC29F9C97F7FF1F9387E78C9C47B8
:1055080001448583858B81EFAE84B2853A86EF109E
:1055180020112A8409C5EF102008829408CC22851E
:105528006FC0FF9BEFC2DF9741112E8932C6AA894F
:10553800712C324713060502CA8697050000938529
:10554800A5D617E5FF1F13052561EFF09FFA2A84FA
:1055580029CD9304C5004D261946AA852685EF0056
:10556800306585452685EF00106217750100130523
:10557800A5504E95834505002685EF0050655C488B
:1055880031468145A1075CC85CC483572401E117F3
:105598002319F40083570401E1172318F4001C4C65
:1055A8003E85EFC09F94A3042501228541016FC069
:1055B8007F92EFC29F904111AA842EC632C4EF1089
:1055C8000000004DB2452246834784000CC050C0FD
:1055D80093F7F70393E707042304F4002318040060
:1055E8002685EF00707B83479400A9462317A40003
:1055F80013D7370005073307D7029D8B8507230686
:10560800F400A306E40083C70401D8488507230FE4
:10561800F7FE17E7FF1F130767555843232A0400AF
:10562800930744011DEB17E7FF1F2323F75417E7E0
:10563800FF1F232DF75217E4FF1F1304A4532285DD
:10564800EFE0107C1C44858B5D8D09E58145228542
:10565800EFF0400541016FC09F881CC317E7FF1F8B
:105668002328F750C9BFEFC25F85970500009385CF
:10567800E5C40145EFF05FBF01456FC05F86EFC22B
:10568800DF83EFF09FBF6FC09F858347C500A1E709
:10569800EFC2BF822A840355E500EFF0DFD215C9B7
:1056A8008347840093F7F7FB2304F4001C4091C759
:1056B800DC4381C74C4001458297EFF01FC717E5CF
:1056C800FF1F1305254BEFE0707F0355E400EFF053
:1056D800FFD06FC0DF808280EFC22FFE97E7FF1FE9
:1056E8009387C74897050000938585D217E5FF1F64
:1056F8001305454823A0070023A20700EFE0B06E7A
:105708006FC0EFFD1C4D91CBDC4381CBEFC2EFFAAC
:105718008345070082976FC08FFC828097E7FF1F41
:10572800938787479C4303C50700828097E7FF1F3D
:10573800938787469C4303C51700828097E7FF1F1E
:10574800938787459C4303C52700828097E7FF1FFF
:10575800938787449C4303C54700828097E7FF1FD0
:10576800938787439C4303C53700828097E7FF1FD1
:10577800938787429C4303C55700828097E7FF1FA2
:10578800938787419C4303C56700828097E7FF1F83
:10579800938787409C4303C57700828097E7FF1F64
:1057A8009387873F9C4303C58700828097E7FF1F45
:1057B8009387873E9C4303C59700828097E7FF1F26
:1057C8009387873D9C4303C5A700828097E7FF1F07
:1057D8009387873C9C4303C5B70011E11D45828030
:1057E80097E7FF1F9387473B9C4303C5C700828009
:1057F80097E7FF1F9387473A9C4303C5D7008280EA
:1058080097E7FF1F938747399C4303C5E7008280CA
:1058180097E7FF1F938747389C4303D5070182808A
:1058280097E7FF1F938747379C4303C5270182806B
:1058380097E7FF1F938747369C4303D5470182802C
:1058480097E7FF1F938747359C4303D567018280FD
:1058580097E7FF1F938747349C4303D587018280CE
:1058680097E7FF1F938747339C4303C5A7018280AF
:1058780097E7FF1F938747329C4303C5B701828090
:1058880097E7FF1F938747319C4303C5C701828071
:1058980097E7FF1F938747309C4303C5D701828052
:1058A80097E7FF1F9387472F9C438857828097E786
:1058B800FF1F9387672E9C4303D5C702828097E713
:1058C800FF1F9387672D9C4303D5E702828097E7E4
:1058D800FF1F9387672C9C4303C50703828097E7C4
:1058E800FF1F9387672B9C43C85B828097E7FF1F46
:1058F8009387072A8843828097E7FF1F9387872922
:105908008843828019E17D558280F5DE984265DF03
:10591800FDD917E7FF1F1307274B1847AA877155AB
:10592800058B6316072203C507001547E37DA7FC0F
:1059380003C737001305F0057D171377F70FE364E6
:10594800E5FC03C35700E30003FC83C86700E38C4E
:1059580008FA03C77700494579171377F70FE36407
:10596800E5FA03C7A70011481305F7FF1375F50FEC
:10597800E36BA8F803CE97000D481305FEFF1375D7
:10598800F50FE362A8F803C8B700630908006518B3
:105998001378F80F1305600DE36705F703C5C70013
:1059A800794879151375F50FE36FA8F403C8D70084
:1059B8000D457D181378F80FE36705F503D807013F
:1059C800930E40175118420813580801E3ED0EF3DF
:1059D80003C8E7007D181378F80FE36605F303C8DA
:1059E80027017D181378F80FE36F05F103C88700C6
:1059F800C54E75181378F80FE3E70EF103D8670161
:105A0800856E938EBEE06D18420813580801E3ECCA
:105A18000EEF03D847016D18420813580801E3E454
:105A28000EEF03D887017918420813580801E36C70
:105A380005ED03C8A7017D181378F80FE36505ED98
:105A480003C5B7011D487D151375F50FE36DA8EA69
:105A580003C5D701714879151375F50FE365A8EAF1
:105A680003D5E7011308E00F7D1542054181E36C7A
:105A7800A8E803C50702494879151375F50FE364CB
:105A8800A8E883AE470237C534001308F5BFE36CB6
:105A9800D8E703A88702130555BF5918E36505E73A
:105AA80017E5FF1F2328C50E03C6050117E5FF1FCD
:105AB8002324F50E0545E378C5E403D82501D0492C
:105AC80033760603E31106E403C61501E30D06E287
