:040000006F1000601D
:100004000000000000000000900000201C020020FE
:10001400A9BDF9F5940000200000000000000000D4
:10002400960000209800002000000000000000005E
:100034009A000020000000009C0000200000000046
:100044009E000020A0000020A2000020A4000020A8
:10005400A6000020A8000020AA000020AC00002078
:10006400AE000020B0000020B2000020B400002048
:100074008C020020B8000020BA000020BC00002040
:10008400BE000020C0000020C2000020C4000020E8
:1000940001A001A001A001A001A001A001A001A054
:1000A40001A001A001A001A001A001A001A001A044
:1000B40001A001A001A001A001A001A001A001A034
:1000C40001A001A001A0B71700409306700523808A
:1000D400D704130780FA2380E7040100010003C654
:1000E400B7041376F60DA385C7042380070413769B
:1000F400050251CE03C6A700118A1DE22380D7044E
:100104002380E7040100010003C7A7001367470029
:100114002385E7009307004B01000100FD17EDFF65
:10012400B7170040930670052380D704130780FA9D
:100134002380E704010001007D892394A7000100C6
:10014400010001000100238007042380D7042380D9
:10015400E70401000100372700408546A303D78048
:1001640023800704B7170040130770052380E704B2
:10017400130780FA2380E7040100010003C7B704D2
:1001840013670708A385E704238007048280137696
:10019400050425CA03C6A700418A1DE22380D704AB
:1001A4002380E7040100010003C7A70013670701C8
:1001B4002385E7009307007D01000100FD17EDFF93
:1001C400B7170040930670052380D704130780FAFD
:1001D4002380E704010001007D891365050423944D
:1001E400A70001000100010001002380070423800F
:1001F400D7042380E7040100010037270040894623
:10020400B1BF2380D7042380E7040100010003D792
:1002140087001367070C2394E700A9B781460146BA
:10022400814511452D2AB717004013077005238017
:10023400E704130780FA2380E704010001007D57D7
:100244002396E70203C76704136717002383E704B1
:100254002380070401A0BD473305F50201007D1585
:1002640075FD8280411122C426C206C6AA840144B7
:1002740063179400B24022449244410182800504F1
:100284001305803E4204C13F4180DDB7B7170040EB
:10029400130700032388E702854723A2F19C730018
:1002A40020302303048015472303E4800100230244
:1002B400A480828083076480E3CE07FE2303048046
:1002C400828083076480E3CE07FE034544808280F6
:1002D40083076480E3CE07FE2302A4808280411159
:1002E40026C44AC24EC006C61377F50BAD47AA8989
:1002F4002E8995446306F70019456537653F8D449B
:100304004E854537FD59FD1463983401B240A2442B
:100314001249824941018280135509011375F50F71
:10032400453F2209CDB7011126CC06CEB7040800FB
:1003340051371545BD37713769372AC6A53F324550
:100344009377150089EB136515001375F50FF240CB
:10035400E24405618280FD14E9FC0145CDBF397199
:1003640026DC4ADA4ED852D656D45AD25ED006DEAD
:1003740062CE66CCB7E700E07D5783AA070022C6A9
:1003840003AA470023A0E71823A2E718B7170040E1
:10039400130770052380E704130780FA2380E7041A
:1003A40083C74704930B75FFB684E20793FBFB0FE7
:1003B4008546AA892E8B328937240040E18701576C
:1003C40063FA76016308D5008946130700026313B4
:1003D400D5000157D98F93F7F70FB71C004023823C
:1003E400FC0411472303E4801305F00F5D3D094C21
:1003F400D135636D7C11B7050700DA95378707009F
:10040400795563F2E504B3879500636EF702370B01
:100414000800A94733EB65016399F90689E481442F
:10042400513D26850DA0DA850945553D050903454D
:10043400F9FFFD14050B693D81C49377FB0FFDF7AC
:10044400DD3569FD7D55B71700401307700523801E
:10045400E704130780FA2380E70403C74704418BAA
:100464002382E704F250B7E700E023A0571123A248
:100474004711E25432445259C259325AA25A125BB9
:10048400825B724CE24C21618280A5476395F90638
:1004940085691309F00FB3069900B3742B01B69460
:1004A4001349F9FFB3749900856B33796901416B82
:1004B4009387F9FFB3F7270199E363FC340193D9D8
:1004C4004900C147E3E637FF99BF0569C1697D1952
:1004D400D9B71305800D638869011305000263848D
:1004E400790113051008CA85DD3B353D21DD4E99A0
:1004F400B3843441D9B7DA852D45D533CA94E300A2
:1005040099F205097D3BA30FA9FED5BF9387F9FF97
:1005140093F7F70F6361FC0C83C71C0413073008BF
:10052400631FF70437070800636BEB04B3079B00F2
:10053400B706100063F5D704334BEB008947639388
:10054400F9068980D549E38C04ECDA850945413BF9
:1005540011090327C9FF91472320E480030764801E
:10056400E34E07FE23033481FD17EDFBFD14110B4D
:1005740081C49377FB0FE9FF7D3371F5E1B5B717BC
:10058400004003C75704B70708001377070219E3AD
:10059400B78707007955E378FBEA33079B00E3FF4D
:1005A400E7F855B58547E382F9F2DA852D45053B31
:1005B4009389F4FFE38504E6293393F7390091EB3B
:1005C400832604800327090093074900E39AE6E49D
:1005D4003E89CE84F1BFB5476396F9001305900BAD
:1005E400C93135BDB1471305B00AE38BF9FE99470C
:1005F4006391F904B7050800B365BB002D45C53107
:1006040081448D4BA1497539639674018327048015
:100614002320F9008504E39834FF8327048013170B
:100624002B01635507002312F900D5BB2322F900DF
:10063400FDB39D476399F90281451305B004453123
:10064400BD442320090023220900FD599D3993F755
:100654007400CA9703C70700FD14398D2380A700CF
:10066400E39634FF6DBBA1476392F9046D3981446D
:10067400630D0B008D479304C0036308FB009304D0
:10068400000563048B01930440041375C507E30854
:1006940095D81945393139390545213126850D3922
:1006A40009453D314931E31C05D669BB914763993E
:1006B400F90013056006F536F53E130590090DB7EC
:1006C400E38F09D4F154A9BB173700000347F7CBD4
:1006D400914763E2E7149737000083C767CD918B96
:1006E400639B071297370000938747AD9043973673
:1006F400000083C6F6A8814763CED706011122CC39
:10070400173400001304C4A7584426CA06CE9737EA
:10071400000083C757AC973400009384A4AA636590
:10072400F70C680097D000E0E78000F5FD57630AF6
:10073400F50C32479737000083C7F7A963F6E70A39
:10074400584463410704B92932475C446373F70092
:10075400BA8717370000034717A8998F3E958387F8
:10076400440163C60702B707C0A86362F502B7076E
:10077400405771A01397170032970357070041EFB2
:1007840085079DBF03874401635507061D8D1734F4
:100794000000130424BF1C4C81CF973700009387BB
:1007A40067C294433707CDFF7D179C46F98F9CC6DB
:1007B40019E13705C0A8DC50829719E91C4C8DC794
:1007C40097F000E0E780C0B697E000E0E7802015EE
:1007D4001C4C99CB973700009387C7BE9843B70644
:1007E40033001C47D58F1CC7F2406244D2440561D4
:1007F4008280E37DF5F83707C0A8B307F7403E953C
:1008040079B75C44E3C207FE712E17370000034733
:10081400979C5C4499B7828019CD91CD09CE8147CC
:100824003387F500834607003307F5008507230067
:10083400D700E397C7FE828019C991C909CA9105F7
:1008440083A7C5FF11057D16232EF5FEC5BF828043
:10085400854715C18DC105C28147B306F5003387AD
:10086400F50083C60600034707006398E600850782
:10087400E315F6FE85473E8582808147EDBF797199
:10088400973700009387C79322D4804306D626D295
:100894004AD04ECE52CC56CA5AC85EC67DC0814498
:1008A400173B0000130B4B9617390000130989916D
:1008B400173A0000130ACA8CB709C0A8B70A4057F0
:1008C4008357240085E35C4481EC17370000232917
:1008D400F78E832BC4002285EF00B0305E8461A0C4
:1008E400DCC4C5BF83270B0082971C44636FF502E9
:1008F4003307F540635E07020327490219CF030754
:100904004901635F07003387A7408327CA006376E2
:10091400F7009737000023ABE786A2844044A1A0E8
:100924000147E384A7FECE97F9BF898F63DE0706EC
:100934009737000023AC0784835524000345040043
:10094400972000E0E78060B35C405844B1C714448A
:10095400B6978306490163C5060063E33701D6975A
:100964001CC4A2843A8429FC9737000093874781EA
:10097400DC4711476376F704F11717370000232784
:10098400F780B250225492540259F249624AD24A30
:10099400424BB24B4561828091E49737000023A11A
:1009A400E78205BFD8C435B7032749023DD70327DB
:1009B400CA00E3F4E7F6172700002329F77CB1BF48
:1009C4009727000023A4077C6DBF411122C417247C
:1009D40000001304247D1C4006C626C291C78297DA
:1009E4009727000023A0077C5C4091C382971C409A
:1009F400639C07169737000083C71799858BF1CF3F
:100A040097370000A3820798173700000347F7972A
:100A1400914763FCE700F52C9737000083C7F796EE
:100A2400F5178A07A2979C4382979727000093871C
:100A3400E77898431726000003469674BE849727E8
:100A4400000083C7E77393961700BA9683D606000F
:100A5400C9CE9727000083C7A77263E2C70A972706
:100A64000000238F07701C40639007109737000025
:100A740083C7D79191CF9737000083C7179189EB2C
:100A840097370000A384079097E000E0E780001701
:100A940097270000938747779C43F9C7FD5717278B
:100AA40000002325F76EE13B9727000093878771A9
:100AB400DC5391C31139972700009387A7749C4393
:100AC400C5C78297972700009387876B9C4B3E95F9
:100AD4009727000023AEA76A41A89737000083C771
:100AE400278D918BB9D32D2F89B7850793F7F70FEE
:100AF400972600002386F668E3E3C7F499BF8607C8
:100B04003E97972700009387A769835507009C4366
:100B140023100700172500000345856613172500D9
:100B2400BA979C4382979727000083C767651397FA
:100B340017009C40BA9703D70700598D2390A7004C
:100B44009727000083C7C76391C78507172700004D
:100B54002308F762172700000347876297270000DE
:100B640083C71762E37DF7EEB24022449244410109
:100B74008280AD6737C70040BD072326F7200F10DA
:100B84000000972700009387A75F884F8327872655
:100B9400BD66BD0693C7F7FF99836A052326D72050
:100BA4005D8D82804111B7170040985F3AC6945F0B
:100BB4003247E39CE6FE32454101828001119737BA
:100BC40000009387278722CC03A4C70A26CA06CE2F
:100BD4002AC42EC6854419E40145F2406244D24435
:100BE4000561828003471400834791006304F70082
:100BF4000044D5B719469305A1001305240089398B
:100C0400E31895FE0545D1BF1727000013070775A4
:100C14001443411122C69C5E4AC226C49983858B23
:100C24003A841729000013092973C9C39C5E9724C9
:100C340000009384247593F7F7F99CDE972700004E
:100C440083C7477493F7070499CB972700009387CA
:100C5400A75B9C4382979727000023ADA772854723
:100C640017270000A302F77283C7440093F7070411
:100C740091EF972700009387A7729C43D844F8D339
:100C8400930700FC172700002300F77083C7640054
:100C940013070008631CF700832709009C4399830A
:100CA400858BADE3972700002381076E1C40985F76
:100CB4001183058B09CB985F3D9B98DF05479726E9
:100CC40000002383E66C985F1D83058B11CB985F2E
:100CD4001377F7F798DF8547172700002306F76A8D
:100CE40083270900D8430583058B19C7D843759B0F
:100CF400D8C3D843799BD8C33244A2441249410192
:100D040073002030930700FC17270000230FF766B9
:100D140071BF172700001307E76683470700858B19
:100D240089EB83471700858B89E783474700858BC9
:100D3400EDD78280172700001307476214439C5E97
:100D44009583858BC5EF09C69C5ABD832300F600A5
:100D5400C5C983471500CDC7411106C61726000033
:100D64000346A6629306000C6304D602972700008C
:100D74009387476183C5670097270000938787445B
:100D84009C5B1305300882970945B240410182807B
:100D94003E9583479500854613F6F706630AD60009
:100DA40097270000938707429C5B9305D00FD1BF20
:100DB400E207E1870945E3CA07FC1C43985B460741
:100DC400935767016359070293E707C01387970F87
:100DD400420741839306201F0145E3E8E6FA13879F
:100DE400E18C0317070009C7BA970947B3C7E7029D
:100DF4002397F18C59BFC207C187C9BF05458280BB
:100E04001C43985B4607935767016359070293E7AE
:100E140007C01387970F420741839306201F01459C
:100E240063EDE6001387E18C0317070009C7BA973F
:100E34000947B3C7E7022397F18C8280C207C187B1
:100E4400C9BF49E59727000093878755944341110B
:100E540022C406C62E873E84FC52FDFF3A85B28525
:100E640097E000E0E78060BB972700009387074F77
:100E74009C43B70680009843558F98C3D857719BFD
:100E8400D8D71C40094798C3B7F700E003A707D198
:100E94006D9B23A8E7D003A707D15D9B23A8E7D0C8
:100EA40073005010172700001307C74D834727000E
:100EB400858B89EB83473700858B89E78347470018
:100EC400858BEDD7B2402244410182808D47631067
:100ED400F50497270000938767489C43B706800072
:100EE4009843558F98C3D857719BD8D717270000BC
:100EF4001307474983472700858BBDEF8347370096
:100F0400858BBDEB83474700858BEDD78280854772
:100F1400E31EF5FC972700009387874894433567C1
:100F24003D07D8C60F10000017270000130707431A
:100F340014430946984231830D8B6313C7029843C7
:100F44009306E04374D3984389671CC7930700F85A
:100F540097260000238AF642BD67BD075CC779B7B0
:100F64009842944331830D8B09E713076019F8D233
:100F7400D9BF1307E01BE5BF82805D712AC62EC46A
:100F840086C697E000E0E78020C497E000E0E780B1
:100F940080D4972800009388683C83A7080017230F
:100FA4000000130323423706330023A40700984BA1
:100FB400370EFCFF370F04001367F70398CB9843F1
:100FC400914F7D1E1377F7E798C398438542930E9C
:100FD40080021377F7E71367071098C3832603008B
:100FE40032459846518F98C6172700001307473B90
:100FF40018439306900D014634CB1377F51FE84F41
:10100400F576FD16137505E0598DE8CF9843758F75
:1010140098C3A245814703A70800032803009376D9
:10102400F60F231C0704231007060325C80275992D
:101034002326A802032807001375F607137808F877
:101044003365A80008C348533365E50148D3035505
:101054008705E3FEAFFE48533375C50148D30357F4
:101064000706280832951377F70F2300E50019EFD8
:1010740013D736002E97034507009D8AB396D200F6
:101084008507C98E93F7F70F2300D7000506E314ED
:10109400D6F9854611488548130380026363F80432
:1010A4000146814728083295034505001377F60F5A
:1010B40063E1A602135537002E95034E05001D8BE0
:1010C4003397E80085073367C70193F7F70F2300C9
:1010D400E5000506E31866FC850693F6F60FE39F24
:1010E40006FBB6406161828017270000130787273B
:1010F4008346B7019727000083C7972BB69793F7CA
:10110400F70FFD4663EAF6044C4B97260000A38BC9
:10111400F6249727000083C7F72405473317F70001
:1011240097260000A386F6286D8F1DEF97260000F2
:1011340083C65628B3F6D70213050002814733D677
:10114400F500058A13F8F70F09CE6399E60097278F
:101154000000A3890721828081177DB705071377D3
:10116400F70F8507E39DA7FC8280972700009387EC
:10117400A7099C43011122CC4EC606CE26CA4AC8F2
:1011840052C456C28297972700009387A7218047AD
:1011940081496305A406BE849727000093878702CC
:1011A400038747013E8963550706018D1354550093
:1011B4009727000083C7A71C9379F501636DF40298
:1011C400370AC0A8B70A405705379C449726000041
:1011D40083C6E61A139756003E9783074901158C78
:1011E40063C507006363470156979727000023AF41
:1011F400E71AE37BD4FC1604B3693401F240624479
:101204004E85D2444249B249224A924A05618280BB
:10121400E37D85F8B707C0A833848740229579B762
:1012240097270000938747FE9C43411122C406C6BA
:1012340026C28297972700009387C71680476309C1
:10124400A406BE84972700009387C7F783874701C6
:1012540063D80704018D135455009727000083C7F2
:1012640007126367F404493598449727000083C73D
:1012740007119396570036971D8C9726000023A7D5
:10128400E612E372F4FE2244B240924417250000B1
:101294000345550D8145410117F300E06700A32480
:1012A400E37A85FAB707C0A833848740229565B7E7
:1012B400B2402244924441018280972700009387E0
:1012C40067109843B75702009387079F832607093F
:1012D4001396560063580600832607091396660082
:1012E40063440600FD17FDF3828021670507AA8782
:1012F4006397E50003C7C18B014565E3828001451F
:10130400E5C3F9CD8D07C207C183F19BC207C18331
:1013140013074003636FF7021727000013074710F2
:101324000843172700001307270F14436398A602E6
:1013340017270000130707E9185B014555C341113E
:10134400C20706C60545DD8D0297B240014541013D
:101354008280172700001307670CD9B7035765006D
:101364003DEB035745006368F706B306F740214693
:10137400172800001308080B637AD6028328050097
:1013840003260800938687001D8FAA96611723926F
:10139400E60023A016012393060014C1130786FF59
:1013A4002312F5009726000023AEE60621672313D7
:1013B400B50005076397E50003C7C18B7D17238E2E
:1013C400E18A832508002105B387F540172700002B
:1013D400232AF7048280084191BF014585F7828062
:1013E40082800DC1972700009387870303A307001A
:1013F400972700009387470283A8070001479A872D
:1014040063E31701828003A807006369F50A636731
:10141400A80A93868700E367D5FE03D66700A16612
:1014240085066317D60083C6C18B8506238ED18AB1
:1014340097250000938505FF944103D64700239325
:101444000700B29617250000232ED5FC638A670295
:1014540017250000130585FC08416303F5020355B5
:10146400670019ED8357470023200701A1063E9624
:1014740021069727000023A7D7FA2312C700BA87AB
:101484009843E30117F997260000938626F99442BE
:10149400E30AD7F683566700B5F683D647000356AA
:1014A40047001843A106B29698C32392D7009C41E3
:1014B400A107172700002327F7F682803E87C287FB
:1014C40081B70111972700009387C7F622CC03A4A4
:1014D400470B26CA4AC84EC606CEAA84130925005D
:1014E400854915C083C7140003473400858B630402
:1014F400F700405CFDB71946930544004A85EFF0B8
:101504002FB5E31835FF2285F2406244D2444249A4
:10151400B24905618280411197270000938787F1C2
:1015240022C403A4470B26C24AC006C6930425005E
:10153400054901E82285B24022449244024941010E
:101544008280A6851305A402977001E0E780A0813C
:10155400E30225FF405CF1BF411197270000938708
:1015640067ED22C403A4470B26C24AC006C69304EF
:101574002500054901E82285B240224492440249EB
:1015840041018280A6851305A401976001E0E780EC
:10159400807DE30225FF405CF1BF01119727000025
:1015A400938747E922CC03A4470B26CA4AC806CE30
:1015B4002AC42EC6B284054919E001453DA003475B
:1015C4009100834734006318F702194693054400D9
:1015D4001305A100EFF0CFA7631F2501A68513050E
:1015E400A402976001E0E7800078F2406244D244AC
:0C15F400424905618280405CC1B70000E4
:10160000971100209381019B177100201301819F86
:101610001305400097F5FF1F9385C59E1706002010
:10162000130606FE63FAC5008322050023A05500B9
:1016300011059105E3EAC5FE17950100130545A3C1
:10164000970500209385C5FB1386818463FAC50046
:101650008322050023A0550011059105E3EAC5FE8C
:101660001385818497250020938505EC6377B50069
:10167000232005001105E36DB5FEFD42739002BC09
:101680008D42739042809302800873A0023097F2DB
:10169000FF1F9382229793E2320073905230971289
:1016A00000009382029273901234730020303D4305
:1016B0002A876373C3029377F700BDEFADE5937696
:1016C00006FF3D8ABA960CC34CC30CC74CC74107F2
:1016D000E36BD7FE11E28280B306C3408A0697020D
:1016E000000096966780A6002307B700A306B70000
:1016F0002306B700A305B7002305B700A304B7006E
:101700002304B700A303B7002303B700A302B70065
:101710002302B700A301B7002301B700A300B7005D
:101720002300B700828093F5F50F93968500D58D41
:1017300093960501D58D61B7939627009702000017
:1017400096968682E78086FA9680C1171D8F3E9610
:10175000E374C3F8A5B7B717004003C7770513773D
:10176000E70FA38BE704130700F8A38DE7043D47B9
:10177000238CE70413075003A38CE70482804111F4
:101780002A83014E930E407E130F0019930F4006DB
:1017900063E46E0E9308001913034006B378150333
:1017A000854E0D4FA14F337365020D89133515001A
:1017B00063EEBE0E1308F6FF79467298420813587E
:1017C00008013307C70213D61700BE0732976146D8
:1017D000B3F6C60213068070B386C6023697A166BA
:1017E000F58F42075D8FB716004083C7F60293F767
:1017F0000708A307F1000346F10083C7F60293F739
:101800000708E394C7FE8347F100B716004093F73B
:10181000F70FFDC7B7170040930670052380D70464
:10182000930680FA2380D7040100010023AA07034E
:1018300083C6170311667D1693E60608A388D702B0
:10184000D45BC85F93854703A98EF18EF5FA9306A2
:1018500070052380D704930680FA2380D704010003
:10186000010098C103C7170313670704A388E702A1
:1018700023800704410182807D133368E3039308CA
:10188000E016630E08003368F3039308D01663086C
:1018900008009378330093B818009388D81633085B
:1018A0001E01131E0801135E0E01DDB56393E503EF
:1018B0000548638608000148630303002A8871080D
:1018C0007298FD15131E0801C205135E0E01C18139
:1018D000C5B513F8150063F4BF007908D5B7133800
:1018E0001800E5BF83C7F60293F70708A307F100C6
:1018F0000346F10083C7F60293F70708E394C7FE97
:101900008347F10093F7F70FF1DF29B7914763EEB3
:10191000B702178701001307E7038A05BA959C41B0
:10192000BA978287B717004003A7470B1345F5FF07
:10193000698F23AAE70A03A7070B698F23A8E70A81
:1019400003A7070A798D23A0A70A8280B717004052
:1019500083A6470B1347F5FFF98E23AAD70A83A660
:10196000070B558D23A8A70A83A6070A758F23A006
:10197000E70A8280B717004003A7470B498F23AAC5
:10198000E70A03A7070B1345F5FF45BFB71700404C
:1019900083A6470B1347F5FF758F23AAE70A03A712
:1019A000070A598D4DB7B717004003A7470B498F5A
:1019B000EDB7B717004003D5870042054181937703
:1019C000050491EB9377F5013755E8011305058080
:1019D0003345F50282809377050C13070004639763
:1019E000E7009377F50137459C1CCDB721651305BA
:1019F00005D08280B7F700E08847CC4782808147D6
:101A000037370040A14663C4C70032858280034552
:101A1000B740E38EA6FE3385F50003450500850734
:101A20002304A740CDB7411122C406C62A845137EA
:101A30002947B307E502B2408D83B3D7870222441A
:101A40009507B3D7E70237370040C207C183231693
:101A5000F74041018280716541111305052006C6DA
:101A6000D937B7370040130770F82381E7400D4797
:101A7000A381E74013070004A380E74005472387BD
:101A8000E740B24041018280411193962500AA852A
:101A90002D4506C697F0FF1FE780A08CB240014598
:101AA00041018280411122C426C24AC02A842E8963
:101AB000B284AA85930600200146254506C697F004
:101AC000FF1FE780008A931629002686A2852945F4
:101AD00097F0FF1FE780E088B24022449244024919
:101AE000014541018280011122CC06CE371400400D
:101AF00026CA4AC84EC652C483447405034AB40574
:101B00008349840503499405B9318347A40593F4B7
:101B1000F40F137AFA0F93E71700230DF40493F9E7
:101B2000F90F1379F90FB717004003C7A705058B05
:101B30006DFF03D5C705A38D4705238C3705A38CFF
:101B40002705A38B9704F2406244D2444249B2492C
:101B5000224A0561828041119397050122C406C67D
:101B6000C1872E8463DB0700252311C16D29216500
:101B7000218DB24022444101828093F7150013C5A4
:101B80001500E5FB9397250163DF0700EFD00041C7
:101B900037F60200130606E0896503C5219CEF00B5
:101BA000D0140965F1B7939715010145E3D307FCFC
:101BB000178501001305C5DFEF609140130600642F
:101BC000916503C5219CEF005012116555B71D7139
:101BD000494697850100938525D91785010013058E
:101BE000A50186CEA2CC97F0FF1FE780A0C601E931
:101BF00017850100130585D8EF60913C01A0B7F669
:101C000000E0795798CAFD57DCCA0567B7E700E0DE
:101C100023A0E7101306F00290C223A0E7180100EA
:101C200001001306C00381454808592D970700207D
:101C30009387C7D43ECA896793870780231CF10026
:101C4000ED47A301F1023544930750108146014648
:101C5000814521452312F1022303810297E0FF1FF2
:101C6000E7802070A167938707E03ECE97070000CA
:101C70009387C7E1BEC4970700009387E7E2BEC61B
:101C8000B7F5070097070000938707D73EDA81462C
:101C900097070000938767E57000E10519453EDE70
:101CA0002308810297E0FF1FE780A06B5808814757
:101CB000994670003E960346060085070507A30A6D
:101CC000C700E398D7FED24791C7035781018567C4
:101CD0006373F70001A04808EF003047AA8501C9E7
:101CE000178501001305C5CAEF60F11B01A0F6407E
:101CF0006644256182804111170500001305E5E562
:101D000006C622C4EF00B0401384219C2300A40027
:101D10002928034504002244B24037F60200130686
:101D200006E0896541016F00407C411106C6B71786
:101D30000040130770052380E704130780FA23800F
:101D4000E70403C7F7021305407E81461367770057
:101D5000A387E7022380070401478147054685459D
:101D6000393CB240014541016F00D06993177500BD
:101D700063D507061375050FC1476305F50263E4D4
:101D8000A70019C9828093070002630EF50293072A
:101D90000003630FF502828017850100130545C318
:101DA0006F6011224111178501001305A5C306C6F6
:101DB000EF601121B24003C581841306000A8945F2
:101DC00041016F008072178501001305E5C2C9BF8C
:101DD00017850100130545C3E1B73D8989476304B1
:101DE000F50263E6A7008547630AF50082808D4708
:101DF0006300F50299476302F502828017850100AE
:101E00001305C5C171BF17850100130525C249BF60
:101E100017850100130585C261B7178501001305F9
:101E2000A5C3BDBF41119397050122C406C626C2B2
:101E3000C1872E8463D3070403C58184912CAA84AF
:101E400015C5034705009307000D631FF7000347FF
:101E50002500E547631AF700834535001785010023
:101E6000130545B5EF6031042685752A2165218D5E
:101E7000B240224492444101828093F7150091CBF5
:101E80001705002013050593EF00A1571345140013
:101E9000C5B793F725000145E1DF17F6FF1F1306CD
:101EA0002677834756009305D002130550318507E6
:101EB00017F7FF1FA300F776EF10317C1306000A17
:101EC000894503C5818415251345240055B70111A3
:101ED00017050000130545F506CE22CCEF00302390
:101EE0001384818485472300A4002307F10013068F
:101EF000E1009D47854513055030A307F100EF1021
:101F0000D1771306F100854513058030EF10F17687
:101F100017F6FF1F1306C672C14513057030EF1088
:101F2000D17517F6FF1F1306A66DB5451305603072
:101F3000EF10B17417F6FF1F1306866D9305D002DC
:101F400013055031EF1071731306E1008545130539
:101F50006031EF1091729305000A0D45EF10F065A6
:101F60009305000A1145EF10506593050005130510
:101F70007003EF1090649305000513058003EF10C4
:101F8000D0639305000413059003EF10106385459B
:101F90006D45EF10906281457145EF101062BD45AF
:101FA0007545EF10906185457945EF101061034547
:101FB00004008545C921F2406244056182804111D7
:101FC0001305800406C697E0FF1FE780001037174F
:101FD00000408327870A8D451305002093E70720DB
:101FE0002324F70A2532853C178501001305C5C057
:101FF000EF60017DE93E0133EF202114C93D97F0E8
:10200000FF1FE780C09CE5BF23AC05FE1C4191E7A4
:10201000010001000CC18280BA8703A787FF6DFF12
:1020200023ACB7FE82801DC18346E5FF1307F00F86
:102030009147639EE600411106C697F0FF1FE780B7
:10204000803AB24081473E854101828095473E8576
:10205000828001E9014582800145B240224441016C
:102060008280411122C42A84210542059305D004AF
:10207000418106C697F0FF1FE780602771DDFD579D
:1020800023200500231285002303F5002105F1B765
:10209000171700201307870E1C43411122C426C2C4
:1020A0004AC006C601440149BA8489E7A165652D85
:1020B0001DC401A803C7E7FF631AA7020DCCA165E1
:1020C0005D2E9840832784FF6319E40217170020D0
:1020D0002326F70AFD57232C04FE230FF4FE228546
:1020E000B2402244924402494101828011E03E897B
:1020F00083A787FF5DBF3E84E5BF232CF9FED9BFD0
:10210000B1CD411122C406C62A849717002083C787
:1021100037072E856375F400894763E88700213708
:102120000D45B24022444101828083A785FF99E793
:1021300003C7E5FF9307F00F6305F700ED3515457D
:10214000CDB7238F85FE17150020130525036D3DA0
:1021500022852244B240A165410131AE15458280FD
:102160009717002023AC07008280971700209387E1
:1021700027059C4399E33E85828003D72700631699
:10218000B70003C70700E308A7FEDC47E5B7B9CDF2
:10219000011106CE22CC26CA8147C14633D7F5406D
:1021A000058B21C317170020130787051205044369
:1021B0003E950E05AA9405443314F4009C40420455
:1021C000418089C7C8402EC68297B24523A004002B
:1021D00023A20400A18DF2406244D2442E85056101
:1021E00082808507E39CD7FA0144EDB72E85828073
:1021F00041111397050122C406C626C24AC0418771
:102200002E84635E0700693511C1313DA1673D8CA5
:102210002285B24022449244024941018280EDD994
:10222000AA8701474146B356E440858A9DCA97165E
:1022300000209386E6FC03A906009207BA978E0752
:102240003E9985448327090003254900B394E4009F
:10225000C2048297C1802320090023220900258C13
:1022600045BF0507E311C7FC8144D5BF9717002080
:10227000938747F59C53411122C406C6138481807D
:1022800095C7829723A4A1800840B747030093878E
:10229000D73F3305F502B7A72600938737ECB24046
:1022A00022443E9523A4A1804101828097170020FB
:1022B000938707ED18409C4BBA9723A4F180E9B7A8
:1022C00001C919C62A960505A30FB5FEE31DA6FE92
:1022D000828081473307F5000307070019E33E8535
:1022E00082808507C5BF01112E8626CAAA841315D0
:1022F00006019305F004418122CC06CE32C697F048
:10230000FF1FE780C0FE2A8419C53246A68597E0E4
:10231000FF1FE780A0502285F2406244D24405614D
:1023200082809307F6FFBE952A966313C5008280CC
:10233000FD1583C715000505A30FF5FEFDB7AA8798
:10234000014581CF09CE3E96850703C7F7FF631786
:10235000B700E31BF6FE054582808280014582803E
:102360006309051097170020938707EA9C4379714A
:1023700022D44AD04ECE52CC56CA5AC806D626D2FD
:102380005EC662C466C23A8B368A3284AE8AAA8935
:102390008297971700209387E7E2038747013E89DA
:1023A000635707003305A440635B050001A0E37B8E
:1023B000A4FEB707C0A8A2973385A740F5B7971723
:1023C00000209387E7E39843BE8B8144C147139C69
:1023D0003400B3068701944293FCF40FD1E6C16543
:1023E000938505F0414597F0FF1FE78040F015E524
:1023F0008327090399EF0145B250225492540259A0
:10240000F249624AD24A424BB24B224C924C45614D
:102410008280814511458297F9BF971700209387E5
:1024200027DA984315EF9717002023ABA7D823008E
:10243000050083A70B000547B3149700232605006A
:1024400000C52311950023226501E29723A03701DF
:1024500023A25701E3010AFA23009A0169BF3E87CC
:102460005C47F5FF48C7E1B78504E392F4F62145E0
:1024700061B7094582809717002083C777D06371C1
:10248000F50217170020130767D3931715000843A9
:102490003E9583570500DD8D2310B50001458280F0
:1024A0000D4582809717002083C797CD6373F5028F
:1024B00017170020130787D093171500084393C5FB
:1024C000F5FF3E9583570500FD8D2310B5000145AE
:1024D00082800D45828097170020938727CE9C43EA
:1024E0000605AA9703D5070082809717002083C7A7
:1024F00037C96364F50001458280971700209387F0
:10250000A7D09C43011122CC26CA4AC84EC652C449
:1025100006CE3284AE89AA8482979717002083C79B
:10252000A7CB139A8701135A8A412A89635D0A024D
:10253000930510273305B4023334B40215816E04B9
:10254000418D2A9963490A00B707C0A86365F9005D
:10255000B70740573E99CE852685013905C5232406
:1025600025010545A1A0858B89C751453305A402E6
:10257000C9BF654681461315940093557401EF5009
:10258000B14DC1B793E504F0C205C181414597F053
:10259000FF1FE780C0D51DE197170020938787C2F2
:1025A0009C5B81C7A685114582970145F240624434
:1025B000D2444249B249224A0561828097170020DD
:1025C000938707C09C4385E79717002023AAA7BEDF
:1025D00085472326050023242501231135012300E7
:1025E0009500A300F50023220500A5BFBA87D847B0
:1025F00075FFC8C7F1BF9307F00263EEA7049717F2
:1026000000209387E7BF9C4313173500BA979C437C
:102610000947B9C3011126CA9354450022CC2A8424
:10262000268506CE2EC6453D9377F4003355F540FA
:1026300005890947324611E90545B317F500939519
:102640000701C181268555350147F2406244D244D5
:102650003A850561828009473A85828051C979713E
:1026600022D426D24AD04ECE52CC56CA5AC85EC6C2
:1026700062C406D6B689B28A2E8A2A8993040008D3
:102680004144171B0020130BABB7054C930B000301
:1026900083270B00A6979C43A1E79375F400B3151D
:1026A000BC00C2055686C181135544003D3D0DC98D
:1026B00083270B000145BE9423A0240123A24401DB
:1026C0006384090023808900B25022549254025935
:1026D000F249624AD24A424BB24B224C4561828057
:1026E00005041374F40FA104E31474FB2145E9BF3E
:1026F00009458280411122C426C24AC006C6AA8466
:102700002E893284DD33CA852685853439C99717E9
:10271000002083C767AC139787016187AA8463533E
:102720000702930710273305F4023334F4021581AE
:102730006E04418DC8C00145B24022449244024912
:1027400041018280858B89C751453305A402DDB7DD
:10275000654681461315940093557401EF50D12FAF
:10276000D1BF2145D1BF411122C426C24AC006C6ED
:10277000AA842E89DD3A2A8419C123110500CA854D
:1027800026850D33014511E01945B240224492449B
:102790000249410182809307F00263E7A7044111D7
:1027A00026C2971400209384A4A5984022C4131431
:1027B000350022971C4306C609478DC39377F50061
:1027C0008545B395F500C205C1811181693F9C40E3
:1027D0000147A29723A0070023A20700B24022448A
:1027E00092443A854101828009473A8582804111AD
:1027F00006C69717002023A7A7A00295B2409717F7
:10280000002023A9A798014541018280954763E9EB
:10281000B7008A05971700209387C798BE9588C18F
:102820008280411106C622C426C2EF10D11A614629
:102830008145171500201305E5965934130600024B
:102840008145171500201305A5939D3C971700207F
:1028500023A807969717002023A6079A971700200A
:1028600083C7079813D527008D8B3E958D47330579
:10287000F502171400201304A49099479305101033
:10288000971400209384C49139051375F50F230123
:10289000A4003305F5021305051897F0FF1FE78024
:1028A00000A59717002023ADA794834724001305A4
:1028B000051888C08A073E959717002023A0A79087
:1028C000EFF01F8A83471400944017060000130698
:1028D000468C13972700369710C31387170013777A
:1028E000F70F0A073697170600001306A69010C3C5
:1028F00013873700890793F7F70FA300E400B2406E
:1029000022448A07B69790C3924441018280971768
:10291000002083C7F786171700200347878663F3D5
:10292000E702171700201307A7871843938617009D
:1029300017160020A306D68493962700369708C35F
:102940003E8582809307F00FE5BF1C416386071424
:1029500041777D8FB706002089476310D71403574E
:102960004500630C0712411122C419462A849305BD
:10297000F00F590506C6E13205478D476309E5109A
:102980001306C0038145171500201305A583EFF03A
:102990003F931306C003A2851715002013058582F7
:1029A00097E0FF1FE78080E7171700200357478253
:1029B000971700209387078119E7130700209716C0
:1029C00000202397E680171700200347878011E730
:1029D000054797060020238EE67E17070020034751
:1029E000577F11E76D4797060020A384E67E1707FF
:1029F00000200347277E11E7154797060020238B09
:102A0000E67C170700200347F77C11E70547970688
:102A10000020A381E67C170700200347F77B19E716
:102A200003C7070197060020A388E67A170700204E
:102A30000347677A11E7354797060020238DE6782C
:102A4000170700200347E77919E713078002970665
:102A500000202388E678170700200347D77719E777
:102A60001307D00297060020A387E6760347D40118
:102A700011E7094797060020A384E6769C5791C783
:102A80008297970700202390A770613B8147B2404F
:102A900022443E854101828089473E8582804111E2
:102AA00006C697E0FF1FE78020109706002083C628
:102AB000A672858AB1C6930730333307F502B33760
:102AC000F5023983CA07D98F170700201307476B10
:102AD000584B01456303F7023385E740636BF7000A
:102AE00037653D0889C637856F0813050590198D30
:102AF0003E9517070020232FF768B24041018280DE
:102B0000E5473307F502B337F5022583DE0765BFD6
:102B1000011122CC06CE2A842EC6EFF02FF5B24545
:102B2000F240818D33A5A502229562441375F50FFD
:102B300005618280011122CC06CE2A842EC6EFF0D8
:102B4000EFF2B245F240818D33A5A5022295624491
:102B50004205418105618280011122CC06CE2A8482
:102B60002EC6EFF0AFF0B245F240818D33B5A5022D
:102B700022956244056182809707002083C7C7655C
:102B80001397870161871545634C070013F73700DA
:102B9000014519E713F70707154519C313D5474032
:102BA0008280970700209387E761985739CB4111BE
:102BB00022C426C206C6BE84029717070020035708
:102BC000875C2A8415CBBA876373A700AA87C207DC
:102BD000C183BA866373E400A286C206C182958F60
:102BE0005147635BF700DC5491C38297EFC0003B11
:102BF0009707002023998758B2402244924441010C
:102C000082808280970700209387C75BD857011185
:102C100022CC06CE3E8401C72AC60297324519CD82
:102C20009707002023A2A75E17050000130565E79C
:102C30007D3EF24062440145056182808307440184
:102C400063D407029707002023A80754B7C70040A2
:102C50007D5723A4E72697E7FF1F9387C7F1170740
:102C600000202323F75AC9B797E7FF1F9387C7F3BD
:102C7000FDB7011106CE2EC6EF70003101C9B24575
:102C8000F2400355250005616FA0B001F2404945AF
:102C900005618280A38A0186238A018623AE01848E
:102CA00023A0018623A2018623A4018623AC0184EC
:102CB00023AA018497070020938747573D46239115
:102CC000C70271761307400B130606B82391E7007D
:102CD0002392C70211671D46930600059305000A5B
:102CE0001305007D2392E7002393C7024147054661
:102CF000130810F82395E7002396E7002399E700CF
:102D0000239AE700239BE700239CE7002394E70234
:102D100023960703239007002393B7002394B7005B
:102D20002397D7002398D700239DA700239E070051
:102D3000239F0700239007022395C70223970702CA
:102D40001308F007239807022392E7042393E7046C
:102D5000239FE7042390E7062391E7062392E706E3
:102D600023990703239AC702239BC702239C0702C8
:102D7000239D0702239E0702239F07022390070437
:102D80002391C70423940704239507042396C704BB
:102D90002397D7042398D7042399A704239A0704D9
:102DA000239B0704239C0704239DD704239ED70459
:102DB0002393A70623940706239507062396070661
:102DC0002397B7062398B7067D5723990706239ABA
:102DD000E7068280011126CAAA84214522CC06CEAC
:102DE0002E8432C636C43AC2EFF0AFA61DC9A24641
:102DF00012473246930700FD2300F5009947A300D0
:102E000095002301F5002303D500A303E500231259
:102E1000C500AA8522856244F240D24405616FF064
:102E20002FAEF2406244D2440561828023AEA18479
:102E3000828023A0A186828023A2A186828023A4EF
:102E4000A1868280011122CC4AC806CE26CA2A89D0
:102E50000144B30489006368B400F2406244D24480
:102E60004249056182802EC6EFF04FC093170501DD
:102E7000C183A183B2452380F4009307140093F724
:102E8000F70F850463F9B700CA9709042380A700E8
:102E90001374F40F7DBF3E847DBFC167170500200A
:102EA00003552537FD176304F5024111170600206D
:102EB000034686499385C18606C6EF607075B240A9
:102EC000FD57170700202316F734410182808280C6
:102ED00009C925151375F50F1335850E1345150012
:102EE000828001458280797122D452CC06D626D2C6
:102EF0004AD04ECE2A8A2380050001442EC6637133
:102F0000C406B387860003C907009304140093F432
:102F1000F40F63070904B307990032C46342F6044F
:102F2000B387960083C9070036C24E8555370DC951
:102F3000B2459307F9FF92462380F5002246639D30
:102F40004901138514003695B25022549254025907
:102F5000F249624A456182804A941374F40F79BF42
:102F60000145DDB7411126C2AE8422C49707002077
:102F700023A8C72A9707002023A2B72A9707002073
:102F800023ACA7282A8441469305F00F26854AC022
:102F900006C60549EFF0AFBA631E25039707002068
:102FA0009387C726884BC145713D41469305F00F75
:102FB0002285EFF0CFB88544631695022244970727
:102FC00000209387A724B24092440249C847C145D4
:102FD00041018DBD414681452685EFF04FB6E31690
:102FE00025FD6DBF414681452285EFF04FB5E307D2
:102FF00095FCB24022449244024941018280411131
:1030000022C426C22E84AA84130600028145170515
:1030100000201305A51F06C6EFF08FAA9707002012
:10302000A387971E97070020A3818732EFA0E0486F
:10303000854719C181474945B240224417070020FE
:103040002306F71C924441018280814781CD19C932
:103050008547631BF50083C7550093E707FCA382F0
:10306000F50085473E85828089476317F50083C751
:10307000550093F7F703E5B70D478547E314E5FEE1
:1030800003C755001377F70313670704A382E5000E
:10309000D1BF81478DC105C103C755009306000C00
:1030A00085471377070C6308D700930600048D4704
:1030B0006303D70089473E858280411122C4005DA9
:1030C00006C626C21DC8AA84085009C597E0FF1F7E
:1030D000E7806031485009C597E0FF1FE780A030C6
:1030E000085409C597E0FF1FE780E02F228597E08D
:1030F000FF1FE780402F23AC0402B24022449244D9
:103100004101828009ED9707002083C7471017050A
:1031100000201305251181CB1385C18482801705FA
:103120000020130525108280170500200345250E79
:103130008280970700209387670DC8478280970792
:1031400000209387A70C884B8280970700209387E5
:10315000E70BDC4B88438280970700209387070B9F
:10316000D84B1C4385071CC3170500200345350AAF
:103170009307F00F6305F50091656FF0CFAF828084
:10318000011122CC06CE2E8432C6EF6070709147BA
:10319000B245631FF500938781869C438DC303A3CB
:1031A0000700630E030022856244F240056102833A
:1031B000938701869C4381C703A34700DDB7F24094
:1031C0006244054505618280011122CC2A840355A1
:1031D000450006CE26CA4AC84EC6EF60F0512DC53E
:1031E0002A89834405008349C500C13D4A85EF70A3
:1031F000904303554400EF60306583C74187A9CBF6
:103200006398970483C551872685A53419E1238ADD
:10321000018603554400EF60B0679147631FF500D6
:10322000035744009707002083D7A7FE6317F700D2
:10323000FD5717070020231EF7FCF2406244D244DA
:103240004249B2490561828081499304F00F75B704
:103250009307F00FE38FF4FA8346640003564400AB
:10326000034524004E87A685B53665B779715EC6DD
:10327000AA8B2E8552CC56CA5AC806D622D426D23C
:103280004AD04ECEAE8A328B368AEF60F0466DC1A0
:10329000045D2A89F1CC9C50614599C31305400314
:1032A0009C5481C751054205418163050A0071059F
:1032B00042054181DC5081C7590542054181EFE05B
:1032C0005FD92A8455C561468145EFE07FFF9709A4
:1032D000002083C9A9F86394090083490900930772
:1032E00000FD2300F400A947A30074012301F400AA
:1032F000230364018C50231254011305840191C9E6
:1033000008C47146930A440397D0FF1FE780005119
:1033100056858C5491C948C45146930A450197D0AB
:10332000FF1FE780A04F5685630C0A0008C871464E
:10333000D285930AC50197D0FF1FE780204E56859E
:10334000CC5099C548C8594697D0FF1FE780004D1B
:10335000A2854E85EFE0DFDA2254B2509254F24952
:10336000624AD24A424BB24B4A8502594561B1B3D7
:10337000B250225492540259F249624AD24A424B04
:10338000B24B4561828001114EC6AA892E854AC87A
:1033900006CE22CC26CA2E89EF60103631C597049E
:1033A000002083C4A4EB99E0834405001945EFE0B5
:1033B0005FCA2A8415C981451946EFE07FF093075B
:1033C00000FD2300F400B947A30034012301F400F9
:1033D00023122401A2856244F2404249B249268563
:1033E000D24405616FE0DFD1F2406244D2444249E9
:1033F000B2490561828039715ECEAA8B2E8526DAAC
:103400004ED652D456D25AD006DE22DC4AD8AE84EA
:10341000328BB68A3A8ABE8942C6EF60F02D31C936
:103420002A894145EFE0FFC22A8421C541468145F2
:10343000EFE01FE917050020034545E219E10345C8
:103440000900930700FD2300F400BD472301F400A9
:10345000B247A30074012312940023046401A3045F
:10346000540123054401A30534015CC4A285EFE0A7
:103470003FC9F2506254D2544259B259225A925A18
:10348000025BF24B21618280797126D2AA84394590
:103490004AD04ECE06D622D42EC6B2893689EFE067
:1034A0005FBB21C1B2459307000D2310F500B14762
:1034B0002A842312B5002301F500CE85190519468B
:1034C00097D0FF1FE780803523062401A285225470
:1034D000B2500259F24913F5F40F925445616FE06E
:1034E0003FC2B250225492540259F249456182803F
:1034F000170700200347B7D19307F00F630DF706B6
:10350000411126C2AA84394522C406C64AC0EFE04A
:103510005FB42A8439C9930700FD2300F500A30096
:10352000950023010500970500209385A5CF0D0583
:10353000194697D0FF1FE780602E17090020130956
:10354000E9CC83578900A28517050020034535CCB7
:103550002315F400834719002306F4002244B240E7
:103560009244024941016FE0BFB9B2402244924403
:10357000024941018280828001115AC02A8B314563
:103580004AC84EC652C456C206CE22CC26CA2E897E
:10359000B28A368ABA89EFE0DFAB3DCD2A844A850C
:1035A000EF6090152DC50347C500A1476312F704CE
:1035B00083C4D180930700FD2300F4009D47A3003E
:1035C00064012301F4002312240123135401231462
:1035D000440123153401A2856244F2404249B249B4
:1035E000224A924A024B2685D24405616FE05FB1C0
:1035F00083C4E180E3100BFC938701919C439C47BB
:10360000D5DBCE865286D6854A85829765B79704E4
:10361000002083C4D4BF79BFF2406244D2444249FF
:10362000B249224A924A024B05618280011152C47A
:103630002A8A214526CA4AC84EC606CE22CCAE8466
:10364000B2893689EFE0FFA031CD2A842685EF606C
:10365000B00A21C50347C500A147631DF702034512
:103660000500930700FD2300F400C5472301F40083
:10367000A301440123033401A30324012312940072
:10368000A2856244F240D2444249B249224A0561CD
:103690006FE01FA703C5E180E9B7170500200345C8
:1036A00015B7C1B7F2406244D2444249B249224AF6
:1036B00005618280397162CC2A8C594526DA4AD854
:1036C0004ED652D456D25AD05ECE06DE22DCAE841E
:1036D00032C636C4BA8B3E8BC28A468A83590104ED
:1036E00003494104EFE0FF9635C53246930700FDDC
:1036F000A2462300F5009547A301C500A30085015C
:103700002301F5002A8419461105A9C2B68597D070
:10371000FF1FE780A01023066401230A240123155C
:103720007401231754012318440123193401A2857D
:103730006254F2504259B259225A925A025BF24BE9
:10374000624C2685D25421616FE09F9B8145EFE05A
:103750003FB7D1B7F2506254D2544259B259225AAB
:10376000925A025BF24B624C2161828097070020E3
:1037700083C7E7A98DCB4111AA8519461385C1845A
:1037800006C697D0FF1FE78060099385C18417059F
:1037900000200345C5A7EFF05F8BB2401385C184BD
:1037A00041016F90105201458280411106C622C42A
:1037B00026C217070020034797A59307F00F630859
:1037C000F704AA842945EFE0DF882A8429C19307FA
:1037D00000FD2300F500A1472301F500A30095009B
:1037E00097070020938787A283C727009385C1840A
:1037F0001105A30FF5FE194697D0FF1FE7800002C1
:10380000A28517050020034595A0EFE07F8F1707DD
:1038100000200347E79F85476317F7029387418698
:103820009C4381C79C4791C382972244B2409244F3
:103830005D6617050020034525B113060670914506
:1038400041016FE03FEBB24022449244410182804B
:10385000797122D406D626D24AD04ECE52CC094413
:1038600045CD2A89035505002E8A5144EF60C06872
:10387000AA845DC19707002083C737ADFD1793F772
:10388000F70F054749446379F7080347C500A14787
:103890006314F70063120A089C5C4544B5EF916518
:1038A000938545711305C00297E0FF1FE78020A4B0
:1038B00088DCAA894D442DC11306C0028145EFE082
:1038C0003FA0835709009386490036852391F9006C
:1038D00071469305490036C697D0FF1FE78000F474
:1038E00089472380F90003C5C400B2460356090086
:1038F00061159705002083C525A513351500EF80B8
:10390000906E2A8463060A00D2852685EF70007DBA
:1039100001C42685EFF06FFA2285B25022549254EA
:103920000259F249624A456182809707002083C7A5
:10393000D7A1FD1793F7F70F05476378F708894775
:1039400051C6011122CC26CA4AC84EC652C406CE60
:10395000AA89368AB2842E89EF60005A2A84D14718
:1039600029C9485509C597E0FF1FE780C0A7F14561
:103970002685EFE05F9748D4CD4705CD8346C40048
:1039800021478147639FE600630D0A000347A501B5
:103990000356050193062501AA854E85EF60706ADE
:1039A000AA8703474400630F0900136767002302D7
:1039B000E400F2406244D2444249B249224A3E8580
:1039C0000561828013674700DDB7C9473E85828065
:1039D0009307900363EBA700970700209387078561
:1039E00006053E9503550500828041657D15828060
:1039F000011122CC2A842E8526CA06CEAE84EF6021
:103A0000A04F0DCDB7470F009387F723094563E219
:103A1000870281450A854146EFE09F8AA6852310EB
:103A200081000A85418023018100A3010100EF800C
:103A3000F03CF2406244D244056182804945D5BFE2
:103A400097070020A382A79082806F80105279711F
:103A500052CC2A8A328522D426D24AD04ECE56CA99
:103A60005AC85EC606D662C4AE8BB28A368BBA849A
:103A70003E89C2894684EF60204815C92A8C6314A8
:103A80000A0213774B008347450015CF93E72701C0
:103A90002302FC008DEC631C0902639A090205E80D
:103AA000ED9B2302FC00832B8C03639F0B06B2501B
:103AB000225492540259F249624AD24A424BB24BC2
:103AC000224C45618280F59B93E70701D1B793E7CC
:103AD00047002302FC0001CC1C484146A285232458
:103AE000FC0213058C0197D0FF1FE78020D3639160
:103AF0000B02D5D80325CC0209C597E0FF1FE7804C
:103B0000808EF1452685EFE00FFE2326AC0261BFD3
:103B1000E30B09F80325CC0209C597E0FF1FE780F6
:103B2000808CF1454A85C5B79DC483A70B0299EBEC
:103B3000916593853571714597D0FF1FE780207B94
:103B400023A0AB0203A50B0219C57146A68597D029
:103B5000FF1FE780A0CC6388090283A74B0299EB83
:103B6000916593852571594597D0FF1FE78020788F
:103B700023A2AB0203A54B0219C55946CE8597D0A7
:103B8000FF1FE780A0C91DC483A78B0299EB916535
:103B900093851571514597D0FF1FE780407523A489
:103BA000AB0203A58B0219C55146A28597D0FF1F12
:103BB000E780C0C62254B2509254F249B24B224C14
:103BC000CA865A860259424BD6855285D24A624AE3
:103BD00045616FF0AFE9011126CA52C406CE22CC6E
:103BE0004AC84EC62A8AAE84EF60003125C5AA892C
:103BF0003945EFE00FC62A8431CD17F9FF1F03497D
:103C0000E9656314090003C909009307000D231037
:103C1000F400AD472301F4009385690013053400D7
:103C2000194697D0FF1FE78060BF93F71400858087
:103C300085882306F400A306940023154401A28579
:103C40006244F240D244B249224A4A85424905615F
:103C50006FE00FCBF2406244D2444249B249224A5B
:103C60000561828093874185884301CD411106C655
:103C700097D0FF1FE7802077B24023AA018441013B
:103C800082808280011106CE22CC26CA4AC82EC666
:103C9000EF60802639CDB24517F9FF1F0349095C53
:103CA000AA840CD563140900034905004145EFE0DF
:103CB0004FBA2A841DCD9307000D2310F500A547A8
:103CC0002301F50083C75400938564001105A30FF9
:103CD000F5FE194697D0FF1FE78040B49C54A2859B
:103CE000F2405CC46244D2444A85424905616FE0B7
:103CF0002FC1F2406244D244424905618280797109
:103D000022D406D62A842EC6EF60001F01CDB2450C
:103D10002285230EB1006C08EF70C038B2502254D7
:103D2000456182805145DDBF6F60802BC16713877D
:103D3000E7FF6394E502938701869C4391EB494535
:103D400082804945B2402244924402494101828026
:103D500003A30700E30503FE0283411122C426C228
:103D60004AC006C6FD172A892E84B2846395F502DF
:103D7000938701869C4391CB9C4381CB829711E52D
:103D8000238A2187A38A918675BFA6854A85EFE09D
:103D90005FEE4DF9F5B72E85EF6000165DD18347D4
:103DA00005000D45E39027FB22852244B2400249DD
:103DB000A685924441016F90C06E9307900363E81B
:103DC000A70441677D1789476384E504411122C434
:103DD00026C206C6C547AE842A84631AF5001305B9
:103DE000C0033385A50242054181EF90007213158F
:103DF000140017F4FF1F130464432295B2402244B9
:103E000023109500814792443E8541018280894775
:103E10003E858280011106CE2AC6EFE0BFE7EF1093
:103E20003040EF104020EFF0F06C324597F7FF1F65
:103E30009387C73D130700F02391E7002382070013
:103E40007D5797F7FF1F93872750A380E7002380B4
:103E5000A700F240954505616F4010281D719397AA
:103E60000501CAC886CEA2CCA6CACEC6D2C4D6C2C6
:103E7000DAC05EDE62DC66DA6AD86ED6C1872E8969
:103E800063D6075817F5FF1F0345054CEFE04FA019
:103E90008964416A856A797B2A84938BD4007D1A70
:103EA000A50A130CABFF1DE021653345A900F640C0
:103EB0006644D6444649B649264A964A064BF25BC2
:103EC000625CD25C425DB25D256182808347040002
:103ED0001307200A639DE7000355240097F9FF1F8D
:103EE00083C9F9322286D285EFF08FA959A2130730
:103EF000100997F9FF1F83C939456398E71883476D
:103F0000140015476390E7022285EFF0EFAB22859E
:103F1000EFE06F9117F5FF1F03450543EFE04F9763
:103F20002A8451B73947639BE71803554400631B44
:103F300055050C4483CC0500639D0C00850591C993
:103F4000194617F5FF1F1305E52D97D0FF1FE780D2
:103F5000E08C17F7FF1F0347672B85476317F7129E
:103F6000638A0C0097F7FF1F2382072A6685EFF00C
:103F70002FD871BF894717F7FF1F2309F728EF9044
:103F8000005471B793872400631AF506832C8400CC
:103F9000638D0C0E83C70C008DE383C72C0003C711
:103FA0001C00A207D98F17F7FF1F2315F72683C719
:103FB0003C0017F7FF1FA30BF72417F7FF1F03475A
:103FC000E72489476313F70C83C70C0081CB97F76D
:103FD000FF1F238D072203C50C0051BF8D4797F5A6
:103FE000FF1F83C5B52217F5FF1F0355A52217F73D
:103FF000FF1F230DF720EF403011F1BF93875400CE
:104000006318F5001C4403C50700EFF00FFA01B771
:10401000B3078501C207C18311476372F704930791
:10402000ABFCAA97139707014183F14763F1E702BD
:104030009387B4006312F5049387C1859C43E3889A
:1040400007EC9C43A285E38407EC82971DA0B70789
:1040500000189387F770B3D7E700858BB9CB9387A8
:1040600041869C43E38507EA9C43E38207EA228575
:104070008297E31E05E811A89387C4006310F50238
:104080001C4483C70700E38407E89307F00FE3802D
:10409000F9E8A2854E85EFE0AF86ADBD9387E400D9
:1040A0006319F500938701869C43E38207E6DC43AE
:1040B00051BF93871404E301F5F8C1BF3D476397EF
:1040C000E70403554400E30F75FD93879401E30B68
:1040D000F5FC93873401E31AF5FA97F7FF1F83D7AE
:1040E0004713639E4701938701869C43E38107E260
:1040F000DC43E38E07E0A28513853401B9B79387CB
:1041000081869C43E38507E09C43E5B71307E00302
:10411000E39DE7F68347240005476397E70E83474F
:104120006400938D4185F1E383A70D00D5CB83CC4B
:104130000700A14903457400130D8400EA85EFE0F0
:104140005FF583474401A303A40083580401035887
:10415000E400035744002A86034534003EC28357D7
:104160002401EA86E6853EC0CE87EFF0AFD48347D0
:10417000340095E7DD47835804010358E400834683
:104180007400835544003EC2835724013EC06A87B1
:10419000CE8705466685EF604002A301A40083A791
:1041A0000D0081C71145EFF0FFAB03C54187E30068
:1041B00005D683C55187EFE0DFABE30A05D483461C
:1041C000340093071003638AF600035644004E87B9
:1041D00083C541873685EFE0FFBF238A018605BB93
:1041E00097FCFF1F83CCBC02A9B7938741869C43F1
:1041F00097FCFF1F83CCBC0191498DDFDC439DDB25
:104200008145014582973DB72947639EE70883476B
:104210006400938D4185ADEB83A70D00ADC383CCC6
:104220000700A14903457400130D4401EA85EFE03E
:104230005FE683470402A303A4008358C401035824
:10424000A401035744002A86034534003EC2835725
:10425000E401EA86E6853EC0CE87EFF0AFC583472E
:10426000340095FFDD478358C4010358A4018346F9
:104270007400835544003EC28357E40101BF97FC9C
:10428000FF1F83CCDCF871BF938741869C4397FC6A
:10429000FF1F83CCDCF79149D1D7DC43C1D78145DF
:1042A0000145829741B70947639DE7009387C18520
:1042B0009C43E38E07C4DC43E38B07C422858297CB
:1042C000B9B12D476399E7009387C1859C43E3808B
:1042D00007C49C47D5B70D476397E70022868D45F5
:1042E0000355440011B119476395E7069305610131
:1042F00013051031EFF070262C0813052031EFF074
:10430000D02503566400835781010355440063E8B8
:10431000C700835684000357610163F7E6009305E5
:104320000002EF90801DE5B66374E6002313E400FD
:1043300063F4D7002314F4000357C4008356A40089
:10434000035684008355640001488147EF90A01A0A
:104350007DBE1D476392E70203574400E3E7E7D2BF
:1043600097F7FF1F938787F906073E9783576400E7
:10437000F1172310F70011BB31476395E700228640
:10438000B145B9BF35476399E7009387C1859C4321
:10439000E38F07B6DC470DB739476395E700228501
:1043A0004523B5B63D476399E7009387C1859C4394
:1043B000E38F07B49C4B09B741476395E70022851B
:1043C000D12BB1B645476396E700130530035D2D49
:1043D0003DBE4947639EE700938741869C43E38641
:1043E00007CADC43E38307CA81450545829771B953
:1043F0004D47E39CE7C8938741869C43E38707C802
:10440000DC43E38407C8A2850945CDB793F71500BF
:1044100081CF9387C1859C4389C7DC4399C30145FC
:1044200082971345190061B493F7250089CF9387CC
:1044300041869C4391C7DC4381C7814505458297EE
:1044400013452900ADB493F745000145E38107A664
:1044500097F7FF1F83C7D7DBBDC7FD1793F7F70F8C
:1044600017F7FF1FA306F7DAB9EF938781859C43FF
:1044700099CF854717F7FF1F230CF7D893874186FD
:104480009C4391C7DC4381C781450545829797F7D7
:10449000FF1F9387A7D7C8472C08EF70D07E280846
:1044A000EFF0CFAC97F7FF1F938747D883D727024A
:1044B000914517F5FF1F034525E917F7FF1FA309CE
:1044C000F7D4EFE04FAA13454900D5B2011122CC31
:1044D0002A84554506CE26CAEFF08FCFAA8413054D
:1044E0004002EFF0EFCE2AC613055002EFF04FCE98
:1044F000AA86228562443246F240B3359000D24407
:1045000005616F906005797122D406D68D472E849F
:10451000631FF50003D7A50083D6850003D6650089
:104520000345340083D54500EFF00F8509A889675E
:104530001387D7006310E50403C5250019E58547F7
:10454000B25022543E8545618280938741859443D1
:10455000FDD603C6360083C50600814802C202C0EC
:104560000148814701479106EFF0CF940545EFF0F0
:104570006FEFF1B71387E700E303E5FC138737011B
:10458000631AE50003C525005DD901478146014650
:10459000814559BFE507E304F5FAB147631DF5000E
:1045A00083C6750003C665000345340083D5450006
:1045B000EFF0CF8769B741677D178147E312E5F8D0
:1045C00003C75500C947E31CF7F683D6E50003D6B9
:1045D000C5000355840083D5A500EF80707821C104
:1045E0005D45EFF0EFBE3335A000231EA1008345EB
:1045F0004400035524007008EF50F0028357C101B6
:104600009DFF0357E4008356C4000356A40083555E
:104610008400035524000148EF80F06B0DB78547F7
:10462000231EF100E9B703C771879307F00F6307F3
:10463000F70849C5411122C426C206C6AA8403450B
:10464000A5004105EFD0FFA02A8425C59307000DE2
:104650002310F500D9472301F50083D74400231226
:10466000F50083C764002303F50083C77400A30328
:10467000F50083C784002304F50083C79400A304D6
:10468000F50003C6A4002305C5000DC2CC444105B6
:1046900048C497C0FF1FE7806018A2852244B2403B
:1046A000924403C5718741016FD09FA52326050061
:1046B000EDB7B24022449244410182808280C167BA
:1046C0001387E7FF639DE500938741859C4395C36E
:1046D00083C707000D47639CA7006F80105FFD171D
:1046E00049476396F500938741859C43FDF73A85DA
:1046F00082804947EDBF93878187984319E301453D
:104700008280797122D426D206D64AD04ECE52CC9F
:1047100056CA5AC803470500BE8485472A846304E5
:10472000F70803468500930695009305F1000545BB
:10473000EFE06FFB814719C1834705008346040002
:1047400011476380E60298408D4603471700630ACD
:10475000D70081CB19C70DCD85466319D7048D8B42
:1047600085CB03451400130A2400D285EFE07F9225
:10477000A300A4001389C18783270900AA8A81495D
:104780009304F00F85EF8346040091476392F60E81
:104790000145B250225492540259F249624AD24A17
:1047A000424B456182808147014549BF8946E311FB
:1047B000D7FE858B75B7850993F9F90F83C7618794
:1047C000E3F3F9FC03250900139B49005A9583473D
:1047D0000500E38297FE83471500E39E57FD1946C7
:1047E000D285090597C0FF1FE780C00669D58324DD
:1047F000090003470400DA94D9D491476310F70AFB
:10480000C84405C58347840003460500630AF608CB
:104810000347040091476313F70AC84419C597D0AA
:10482000FF1FE78040BC23A6040003458400916578
:104830009385E571050597D0FF1FE78040AB05C55F
:104840000347040091476314F708C8C483478400F2
:10485000930594000505A30FF5FE0346840097C059
:10486000FF1FE780A0FB034584003335A00015B788
:104870008327090091DF03C6618701479305F00F85
:10488000E308E6F0BE84C10703C507FF6303B50470
:1048900005071377F70FEDB788C49DA8884495B72F
:1048A00093059400050597C0FF1FE780A0FA854790
:1048B000E310F5F65545EFF0AF9141A0884435D5AA
:1048C00097D0FF1FE78020B223A40400B9BF88C49B
:1048D000B5BF2380D40083471400D28513852400FC
:1048E000A380F400194697C0FF1FE78020F303451B
:1048F000840091659385F571050597D0FF1FE780CA
:10490000009F05C5034704009147E317F7F8C8C4A3
:1049100083478400930594000505A30FF5FE034625
:10492000840097C0FF1FE78060EF83478400054540
:10493000E39107E6034504007D151335150091BD8D
:1049400003C771879307F00F6305F70439C101119D
:104950002AC6514522CC06CEEFD0AFEF2A8415C52A
:10496000B245514697C0FF1FE78040EB9307000D0B
:104970002310F400D5472301F400A2856244F240DD
:1049800003C5718705616FD0AFF7F24062440561DE
:104990008280828003C771879307F00F6302F70458
:1049A00021C1411122C42A84194506C6EFD06FEAFD
:1049B000AA851DC19307000D2310F500DD472301D3
:1049C000F500835744002244B2402312F50003C58A
:1049D000718741016FD0CFF2B24022444101828001
:1049E0008280011122CC1384C1871C4006CE26CAC6
:1049F0004AC84EC652C499CF2E8AAA84014908409B
:104A000063129902630C0A0497D0FF1FE780A09DF0
:104A100023AE0186F2406244D2444249B249224A5E
:104A20000561828093194900B3073501884709C998
:104A300097D0FF1FE780209B1C40CE9723A4070040
:104A40001C40CE97C84709C997D0FF1FE780A0999F
:104A50001C40BE9923A60900050955B745DD1396EC
:104A600044008145EFD0DF85144081477D5613F720
:104A7000F70FE37197FA1397470036972300C700A3
:104A80008507F5B7011152C4138A818783270A006D
:104A900006CE22CC26CA4AC84EC656C25AC0C9CF74
:104AA0002A89014419ED9387C187944399CA03C6A3
:104AB00061872A8481479305F00F13F7F70F636727
:104AC000C708131534002105EFD0AFD8AA8401E937
:104AD0002145EFD00FD8AA8421C501444D49930741
:104AE00000FD2380F4008547A38024012381F40086
:104AF000A38184005DC41389840023A22401814919
:104B0000938AC187130BF00F83C7618763F3F900A2
:104B100031E883270A00A68503C50700EFD04FDEE2
:104B2000814503C56187753D03250A0097D0FF1FA6
:104B3000E780608B23AC0186F2406244D244424954
:104B4000B249224A924A024B05618280139747007C
:104B50003697034707006305B70005041374F40F85
:104B60008507A1BF83A70A0093954900BE9583C717
:104B70000500638467032300F90083C7150013054C
:104B800029007D14A300F900194689051374F40F58
:104B900097C0FF1FE78080C82109850993F9F90FA5
:104BA000A5B723A20400B5B7938781879C43B1C7FB
:104BB000411122C406C62A841DE10945EFE05FE1E8
:104BC0002A8601C9854517E5FF1F0345E577EFD024
:104BD000DF910545EFF09F8F2A84054519C885456B
:104BE00017E5FF1F03454576EFD0FFB72285593DF6
:104BF0000545B24022444101828001458280896797
:104C00009386B7006316D5009C4503C5070069BFAE
:104C10009386C7006318D5009C45854603C50700E9
:104C200019C9F5B793861704E300D5FE93872704C7
:104C30008146E303F5FE36858280797106D622D45B
:104C400026D24AD04ECE52CC56CA5AC85EC662C48C
:104C50006DC183473500AA8995C7404105C45945B0
:104C6000EFE01FD7931A850193DA8A410149130BAC
:104C7000000DB54B138A8187138CC18783C7390018
:104C8000636EF900B250225492540259F249624ABA
:104C9000D24A424BB24B224C456182808307840248
:104CA00063C057092285EFF01FA501C583270A00BD
:104CB00081E783270C00ADE7034584005105EFD061
:104CC0004FB9AA8431CD23106501230175018347B3
:104CD0000400194693052400A301F500830784020C
:104CE00015052303F50083471400A30FF5FE97C0B5
:104CF000FF1FE780A0B2034684002386C4001DC6C0
:104D00001385440188C89305940097C0FF1FE7806E
:104D1000E0B083270A00A68503C50700EFD04FBE89
:104D20000509130494021379F90F89BF23A804001D
:104D3000CDB7938781879C43B1D7A9332254B25012
:104D400092540259F249624AD24A424BB24B224C27
:104D5000014545616FF08FF7797106D622D426D2CE
:104D60004AD04ECE52CC56CA5AC85EC671C183478D
:104D70003500AA8985C7444195C05945EFE05FC514
:104D8000931A850193DA8A410149138A8187130BAB
:104D900000FDC14B83C73900636DF900B250225446
:104DA00092540259F249624AD24A424BB24B45618F
:104DB00082808387F40063C8570783270A00A5C74A
:104DC0005145EFD00FA92A8439CD23006501A300F6
:104DD00005002301750183C704001946938524004B
:104DE000A301F5008387F4001505A306F50083C72A
:104DF0001400A30FF5FE97C0FF1FE78020A283C712
:104E00008400938594001305C400A305F40019469B
:104E100097C0FF1FE78080A083270A00A28503C5F3
:104E20000700EFD0EFAD0509C1041379F90F9DB765
:104E3000938781879C43BDD3EFF0DFC42254B250E7
:104E400092540259F249624AD24A424BB24B01454E
:104E500045616FF0AFE75D7186C6A2C4A6C2CAC045
:104E60004EDE52DC56DA5AD85ED662D466D26AD0AA
:104E70006ECE63050516834735002A899DCB032A2C
:104E8000450063080A025945EFE09FB49317850176
:104E9000E1873EC6814493898187930A000D494B7F
:104EA0009D4B294C994C254DA14D0347390063E199
:104EB000E402B640264496440649F259625AD25A50
:104EC000425BB25B225C925C025DF24D616182806A
:104ED0000307CA00B2476340F70C03A7090045CF98
:104EE00003457A0113050502EFD0AF962A8445C524
:104EF000231055012301650103470A0093768700BB
:104F0000C5C22D47A301E40003471A0019469305C3
:104F10002A002302E4001305540097C0FF1FE78016
:104F2000E08F03478A00194693051A01A305E400A0
:104F300003479A00130534012306E4000347AA003F
:104F4000A306E4000347BA002307E4000307CA00EE
:104F5000A307E4000357EA002318E40003470A010B
:104F60002309E40097C0FF1FE780408B03467A01C6
:104F7000A30CC4002DC21305040248CC83258A016A
:104F800097C0FF1FE780808903A70900A28503451A
:104F90000700EFD0EF968504710A93F4F40F31B750
:104FA000137617009376470019C699C2154799BF23
:104FB000A301B50191BF098B01CB81C6A301A50156
:104FC000A1B7A301950189B781C6A30185012DBFB2
:104FD000A301750115BF232E04007DB79387818738
:104FE0009C43E38807ECEFF0FFA92644B6409644C3
:104FF0000649F259625AD25A425BB25B225C925C19
:10500000025DF24D014561616FF04FCC97E7FF1FE4
:1050100083C7B733A18B17E5FF1F1305E52991E37C
:1050200001456FD01FE1238B0186FD57A38BF186CD
:1050300023AE018623AC018697E7FF1F938787265F
:10504000170700001307E7BB98C3170700001307F3
:1050500007BFD8C317070000130747D098C7170723
:105060000000130787DFD8C717F7FFFF1307E75BB9
:1050700098CB97E7FF1F9387272417F7FFFF1307A6
:10508000476498C317F7FFFF13072748D8C38280E8
:10509000411122C485452A8403C5618706C6EFF005
:1050A0005F9497E7FF1F83C7572AA98BA5CB17E506
:1050B000FF1F1305251F238B8186EFD03FD7138455
:1050C000C1871C4091C74D45B240224441018280B6
:1050D00003C5618719E10145C5BF91659385B57128
:1050E000120597C0FF1FE780802023AEA18661DDF7
:1050F00003C6618712068145EFD08F9C104083C69E
:1051000061878147FD5513F7F70FE376D7FC1397B7
:10511000470032972300B7008507F5B70145238B79
:105120000186EFD0BFD045BF93878185884301CDED
:10513000411106C697C0FF1FE780E02AB24023ACAA
:10514000018441018280828001111305700306CE23
:10515000EFE01F882AC613058003EFE07F872AC48B
:1051600013059003EFE0DF862246B245F240AA869F
:10517000054505616F80803D5971A2D413848185F6
:105180001C4086D6A6D2CAD0CECED2CCD6CADAC8D9
:10519000DEC6E2C40545638D07149305F1031305CC
:1051A000F041EFD0F06E0347F10397E7FF1F83C78D
:1051B0000706B334F00019C70D4789446384E7003C
:1051C000B334F0001C4003C5370093854700EFD08F
:1051D000DFE718409147AA8A8346270063EFD70A82
:1051E000CD4789C68547639EF608F5472301F7003A
:1051F0001C400D4583C527002ED6EFE06FFD2AD455
:105200001145EFE0EFFC00402AD265450347A400BA
:10521000034CB4003AD0EFE0AFFB2A896945EFE0D8
:105220002FFBAA897145EFE0AFFA2A8A6D45EFE0BE
:105230002FFA2A8B7545EFE0AFF9AA8B7945EFE09D
:105240002FF96209025792562256B2551375F50F7F
:1052500093FBFB0F137BFB0F137AFA0F93F9F90FF4
:10526000135989412ACC5ECA5AC852C64EC44AC292
:1052700062C0930844005688A6870545EF806029E0
:1052800085A889476394F600C9478DB78D47639415
:10529000F600C147A1BFD54791BF1546638EC60032
:1052A00019466396C60089472301F70031A09D4542
:1052B0006391B602230107006545EFE06FF19307A4
:1052C000F007E307F5F218408347270093E7070448
:1052D00031BFA1456394B6008547F9B7A5456395ED
:1052E000B6002301C700C9BF29460545E38EC6FAAB
:1052F000B650265496540659F649664AD64A464B45
:10530000B64B264C65618280011122CC06CE8D47BA
:105310002E846316F50603C73500E94703D545001B
:105320006318F70097E7FF1F83D7A7EE6385A706EB
:10533000EF40903C09C5835764002317F5000357DD
:10534000A40083568400035664008355440003453B
:105350003400EFE06FA20357440097E7FF1F83D7A5
:1053600047EB6308F7008547F24062443E850561DC
:105370008280FD5717E7FF1F231DF7E8EDB7896708
:10538000CD07631DF50083C7250031476385E7001E
:105390004547E39AE7FCEFD05FB0F1B7B147631D33
:1053A000F50083C6750003C665000345340083D548
:1053B0004500EFE0AFA745BF41677D178147E31583
:1053C000E5FA83C655004947E390E6FA83C54500F0
:1053D00003552400300023140100EF40B01F61B7D3
:1053E00003C7C1809307F00F6305F704411122C47E
:1053F0002A84114526C206C6AE84EFC09FC50DC5DE
:10540000930700FD2300F5008947A30095002301C1
:10541000F500A30185002244B2409244AA8503C549
:10542000C18041016FC0DFCDB240224492444101AE
:1054300082808280938781859C43011122CC06CE95
:1054400026CA4AC84544C1EF97E7FF1F83C7F7EF55
:10545000958B4944C9C72E8991652386A180AA846A
:1054600093857571314597C0FF1FE78040E823ACF5
:10547000A1844D442DC523009500A30005002946B5
:10548000CA85090597B0FF1FE780403917E7FF1F5E
:105490000347E7D78D47631BF704EFD09FC92C0064
:1054A000EF60707E2800EFE06FAC8547454517E759
:1054B000FF1F230FF7D4EFE0AFD11375F50F97E778
:1054C000FF1FA387A7D4014419C95D6613060670A0
:1054D000914517E5FF1F034525E7EFD0AFA12285D2
:1054E000F2406244D244424905618280EFF0DFC855
:1054F0002A8475D5EFF05FC3DDB7011126CA938406
:1055000081859C4022CC06CE4944A9CB83C70700A5
:105510000D446395A704894517E5FF1F0345C5E2C0
:10552000EFD06FA4914517E5FF1F0345E5E12390F8
:105530000188EFD04FA397E7FF1FA38B07CC9C40B8
:1055400001478146A38087001306F1008547854502
:105550000145A307F100EF70307F2A842285F240D5
:105560006244D24405618280011106CE22CC26CA53
:1055700085476319F50683D70188B1CB17E7FF1F6D
:10558000034707C929E71307B003636DF70289458D
:1055900017E5FF1F034545DBEFD0EF9C9307006441
:1055A00003D601883306F602894517E5FF1F034538
:1055B000A5D9EFC09FF323900188F2406244D24402
:1055C00005618280938747FC2390F188FDB793871C
:1055D00081859C43FDD36244F240D24403C5070059
:1055E000056121BF938481859C40E1DB97E7FF1F24
:1055F00083C7B7D5918BF1D389476311F5062D4544
:105600002EC6EFC01FA52A844DD9B245930700FDD1
:105610002300F500E547A30005002301F50083C73B
:10562000350015051946230FF5FE83C7450095057E
:10563000A30FF5FE97B0FF1FE780401E03C5E18072
:105640009307F00F6315F5009C4003C50700A28582
:105650006244F240D24405616FC09FAA894517E5B4
:10566000FF1F034565CEEFD00F906244F240D24455
:105670002390018805616FF03FAB97E7FF1F83C759
:10568000D7CC958B494585C39387C1889C434145B9
:1056900099CB411106C6EFF03FABB240854723815D
:1056A000F1884101828082802381018885450145FE
:1056B0006F70506A9307E00E63FCA7000945828073
:1056C0000945F2406244D2444249B24905618280B0
:1056D00055C101114AC82E89916522CC9385657107
:1056E0002A8411054EC606CE26CA97C0FF1FE78042
:1056F00000C0AA8971D593848188884009C597C064
:10570000FF1FE78040CE228681451385190023A420
:105710003189EFC0FFBA88402286CA85050597B057
:10572000FF1FE780A00F9C4023808700938781851F
:105730009C438DCF97E7FF1F83C737C1958B8DCBD8
:10574000938781889C4385C383C60700138717000E
:105750006244F240D2444249B24905468D4505456E
:1057600005616F70F05D01478146DDB7014591BF6E
:10577000494581BF938781859C4395C797E7FF1F64
:1057800083C7B7BC958B95C3938781889C4389CB8E
:1057900083C607001387170005468D450545D1B719
:1057A00001478146D5BF01458280494582809307E4
:1057B000E00E63FCA700094582800945F24062447F
:1057C000D2444249B2490561828055C101114AC89B
:1057D0002E89916522CC938555712A8411054EC678
:1057E00006CE26CA97C0FF1FE78060B0AA8971D590
:1057F00093840189884009C597C0FF1FE780A0BE38
:10580000228681451385190023A83189EFC05FAB3B
:1058100088402286CA85050597B0FF1FE7800000F3
:105820009C4023808700938781859C438DCF97E799
:10583000FF1F83C797B1958B8DCB938701899C43BD
:1058400085C383C60700138717006244F240D24421
:105850004249B24905468D45054505616F70904E38
:1058600001478146DDB7014591BF494581BF938717
:1058700081859C4395C797E7FF1F83C717AD958B1D
:1058800095C3938701899C4389CB83C607001387FF
:10589000170005468D450545D1B701478146D5BF5F
:1058A00001458280494582809307B00F63F4A700C9
:1058B00009458280797122D44AD006D626D24ECEAE
:1058C0002E892A8421C9916593855571110597C048
:1058D000FF1FE780C0A1AA890945638E090693844A
:1058E000C188884009C597C0FF1FE780C0AF2286E6
:1058F00081451385190023A63189EFC07F9C88401C
:105900002286CA85050597B0FF1FE78020F19C40DD
:1059100023808700938781859C4301458DCF97E73E
:10592000FF1F83C797A2958B494595C76C00130548
:10593000D030EFE08042B247014593F7070F81CFA7
:105940009387C1889C438D45054503C60700938610
:105950001700EF70F03FB250225492540259F249AE
:1059600045618280938781888C4391CD411106C621
:1059700003C60500850597B0FF1FE78020EAB24007
:1059800001454101828009458280938781889C433B
:1059900085C7938701898C43894785C1411106C614
:1059A00003C60500850597B0FF1FE78020E7B240DA
:1059B00081473E854101828089473E858280938769
:1059C00081889C4385C79387C1888C43894785C15B
:1059D000411106C603C60500850597B0FF1FE78085
:1059E000E0E3B24081473E854101828089473E85A0
:1059F000828097E7FF1F83C75795918B99CF4111FD
:105A00001385418806C6EFD08FC3B240FD5717E714
:105A1000FF1F2310F7804101828001456FD02FC204
:105A2000FD572386F180238101882390018823A4D8
:105A3000018823A8018823A601889387019417076A
:105A400000001307071D98C317070000130707B2CC
:105A5000D8C317F7FFFF1307677298C717F7FFFF41
:105A60001307C76ED8C7970700009387278A23A21A
:105A7000F1888280411126C2938481859C4006C6AC
:105A800022C485CF2A840D45EFC0AFDCAA8519CD8D
:105A9000930700FD2300F5008D47A3008500230137
:105AA000F5009C4003C50700EFC08FE519C42244F0
:105AB000B240924441016FF02FE7B2402244924439
:105AC0004101828079714ECE9389818583A7090037
:105AD00026D206D622D44AD052CC8144A1C783C450
