:040000006F00806F9E
:100004000000000000000000900000205C020020BE
:10001400A9BDF9F5940000200000000000000000D4
:10002400960000209800002000000000000000005E
:100034009A000020000000009C0000200000000046
:100044009E000020A0000020A2000020A4000020A8
:10005400A6000020A8000020AA000020AC00002078
:10006400AE000020B0000020B2000020B400002048
:10007400B6000020B8000020BA000020BC00002018
:10008400BE000020C0000020C2000020C4000020E8
:1000940001A001A001A001A001A001A001A001A054
:1000A40001A001A001A001A001A001A001A001A044
:1000B40001A001A001A001A001A001A001A001A034
:1000C40001A001A001A0B71700409306700523808A
:1000D400D704130780FA2380E7040100010003C654
:1000E400B7041376F60DA385C7042380070413769B
:1000F400050259CE03C6A700118A1DE22380D70446
:100104002380E7040100010003C7A7001367470029
:100114002385E7009307004B01000100FD17EDFF65
:10012400B7170040930670052380D704130780FA9D
:100134002380E704010001007D892394A7000100C6
:10014400010001000100238007042380D7042380D9
:10015400E704010001003727004093061005A303BC
:10016400D78023800704B717004013077005238046
:10017400E704130780FA2380E7040100010003C7A2
:10018400B70413670708A385E70423800704828064
:10019400137605042DCA03C6A700418A1DE22380F5
:1001A400D7042380E7040100010003C7A7001367F5
:1001B40007012385E7009307007D01000100FD1777
:1001C400EDFFB7170040930670052380D70413078B
:1001D40080FA2380E704010001007D89136505048A
:1001E4002394A700010001000100010023800704FB
:1001F4002380D7042380E70401000100372700404F
:1002040093062005A9BF2380D7042380E7040100B7
:10021400010003D787001367070C2394E700A1B7F5
:100224004111814601468145114506C6B12AB717D9
:100234000040130770052380E704130780FA238026
:10024400E7040100010003C7670413671700238351
:10025400E70423800704B2404101828081460146BD
:10026400814511451522B7170040130770052380F7
:10027400E704130780FA2380E704010001007D5797
:100284002396E70203C76704136717002383E70471
:100294002380070401A0BD473305F50201007D1545
:1002A40075FD8280411122C426C206C6AA84014477
:1002B40063179400B24022449244410182800504B1
:1002C4001305803E4204C13F4180DDB7230304800F
:1002D40015472303E48001002302A480828083075E
:1002E4006480E3CE07FE2303048082808307648056
:1002F400E3CE07FE03454480828083076480E3CE17
:1003040007FE2302A4808280411126C44AC24EC043
:1003140006C61377F50BAD47AA892E899544630663
:10032400F70019456537653F8D444E854537FD59BE
:10033400FD1463983401B240A24412498249410138
:100344008280135509011375F50F453F2209CDB776
:10035400011126CC06CEB704080051371545BD3728
:10036400713769372AC6A53F32459377150089EB63
:10037400136515001375F50FF240E24405618280A0
:10038400FD14E9FC0145CDBF397126DC4ADA4ED8AB
:1003940052D656D45AD25ED006DE62CE66CCB7E7C9
:1003A40000E07D5783AA070022C603AA470023A0C2
:1003B400E71823A2E718B717004013077005238036
:1003C400E704130780FA2380E70483C74704930BE9
:1003D40075FFB684E20793FBFB0F8546AA892E8B33
:1003E400328937240040E187015763FA76016308B4
:1003F400D5008946130700026313D5000157D98F2E
:1004040093F7F70FB71C00402382FC041147230322
:10041400E4801305F00F5D3D094CD135636D7C110B
:10042400B7050700DA9537870700795563F2E504C5
:10043400B3879500636EF702370B0800A94733EBC7
:1004440065016399F90689E48144513D26850DA02F
:10045400DA850945553D05090345F9FFFD14050BEA
:10046400693D81C49377FB0FFDF7DD3569FD7D554B
:10047400B7170040130770052380E704130780FAB9
:100484002380E70403C74704418B2382E704F25027
:10049400B7E700E023A0571123A24711E2543244E6
:1004A4005259C259325AA25A125B825B724CE24CC4
:1004B40021618280A5476395F90685691309F00FC8
:1004C400B3069900B3742B01B6941349F9FFB374BE
:1004D4009900856B33796901416B9387F9FFB3F711
:1004E400270199E363FC340193D94900C147E3E64A
:1004F40037FF99BF0569C1697D19D9B71305800D07
:1005040063886901130500026384790113051008E7
:10051400CA85DD3B353D21DD4E99B3843441D9B7DD
:10052400DA852D45D533CA94E30099F205097D3B5C
:10053400A30FA9FED5BF9387F9FF93F7F70F636164
:10054400FC0C83C71C0413073008631FF704370728
:100554000800636BEB04B3079B00B706100063F558
:10056400D704334BEB0089476393F9068980D54957
:10057400E38C04ECDA850945413B11090327C9FFE3
:1005840091472320E48003076480E34E07FE23039E
:100594003481FD17EDFBFD14110B81C49377FB0F20
:1005A400E9FF7D3371F5E1B5B717004003C7570480
:1005B400B70708001377070219E3B78707007955CF
:1005C400E378FBEA33079B00E3FFE7F855B585477B
:1005D400E382F9F2DA852D45053B9389F4FFE3853F
:1005E40004E6293393F7390091EB8326048003272B
:1005F400090093074900E39AE6E43E89CE84F1BFFB
:10060400B5476396F9001305900BC93135BDB14761
:100614001305B00AE38BF9FE99476391F904B70512
:100624000800B365BB002D45C53181448D4BA149FC
:10063400753963967401832704802320F9008504A7
:10064400E39834FF8327048013172B0163550700B5
:100654002312F900D5BB2322F900FDB39D4763990A
:10066400F90281451305B0044531BD442320090036
:1006740023220900FD599D3993F77400CA9703C7D3
:100684000700FD14398D2380A700E39634FF6DBB6A
:10069400A1476392F9046D398144630D0B008D47C2
:1006A4009304C0036308FB009304000563048B01F7
:1006B400930440041375C507E30895D819453931E7
:1006C40039390545213126850D3909453D314931F1
:1006D400E31C05D669BB91476399F90013056006CD
:1006E400F536F53E130590090DB7E38F09D4F1549F
:0406F400A9BB00009E
:1006F800971100209381019B17810020130101901D
:1007080013054000970500209385458F17060020A4
:10071800130606FE63FAC5008322050023A05500D0
:1007280011059105E3EAC5FE172500001305C54E1E
:10073800970500209385850C1386818063FAC50090
:100748008322050023A0550011059105E3EAC5FEA3
:1007580013858180938541966377B5002320050032
:100768001105E36DB5FEFD42739002BC8D42739096
:1007780042809302800873A002309702002093827F
:10078800E28793E23200739052309702000093821E
:10079800421573901234730020303D432A876373E7
:1007A800C3029377F700BDEFADE5937606FF3D8A68
:1007B800BA960CC34CC30CC74CC74107E36BD7FEB2
:1007C80011E28280B306C3408A069702000096961B
:1007D8006780A6002307B700A306B7002306B70063
:1007E800A305B7002305B700A304B7002304B70087
:1007F800A303B7002303B700A302B7002302B7007F
:10080800A301B7002301B700A300B7002300B70076
:10081800828093F5F50F93968500D58D9396050103
:10082800D58D61B793962700970200009696868229
:10083800E78086FA9680C1171D8F3E96E374C3F849
:10084800A5B77971172500001305C53806D622D437
:1008580026D24AD04ECE52CC56CAEF005007930546
:10086800F1001385018E712D35E103C7018E85478F
:100878001305100463FCE704972400009384041014
:1008880001449729000093896935170A0020130A43
:10089800EAF61949B387890083CA07002685EF005D
:1008A80010039305F10033055A01A12D05E1050454
:1008B800A104E31124FF172500001305A532EF005A
:1008C80010019305F1001385018E252DB250225495
:1008D80092540259F249624AD24A45618280011112
:1008E8001305800406CE22CC26CA4AC84EC652C476
:1008F80056C297F0FF1FE780C07C1545970000207F
:10090800E780009A854505454D2A3714004083271E
:10091800840A85451305001093E707202324F40A69
:10092800D5288D4513050020F520ED2483451404B2
:1009380017250000130585070969EF00F05297078E
:100948000020938767F723AAF1889387418523AC12
:10095800F188EF00300B17250000130565068D6937
:10096800EF0050650144378A00408544938A018A24
:100978001309198D938909D083476A000145858B2E
:1009880089CB23039A00D524D5476314F500238E19
:10099800918883C7C18981E7D547E31FF5FC130513
:1009A800800C238E018897000020E780608FEF007D
:1009B800B02083D7418A6392270383D76A0093F7CD
:1009C80007F0639C37011725000013056500EF0049
:1009D800705EC157A381F18A45B703C5218A2126D4
:1009E8008D3559F9894763EE870005041305401FC3
:1009F800238E91881374F40F97000020E780408AB3
:100A0800A5BF17250000130565FDEF00B05A054581
:100A1800D92C01A0914763EEB702172700001307EE
:100A2800E7FC8A05BA959C41BA978287B7170040B8
:100A380003A7470B1345F5FF698F23AAE70A03A706
:100A4800070B698F23A8E70A03A7070A798D23A054
:100A5800A70A8280B717004083A6470B1347F5FF04
:100A6800F98E23AAD70A83A6070B558D23A8A70AB0
:100A780083A6070A758F23A0E70A8280B71700406C
:100A880003A7470B498F23AAE70A03A7070B1345B8
:100A9800F5FF45BFB717004083A6470B1347F5FF7F
:100AA800758F23AAE70A03A7070A598D4DB7B71709
:100AB800004003A7470B498FEDB715E1B717004072
:100AC800130770052380E704130780FA2380E704DF
:100AD800010001002382070223800704828041115C
:100AE80006C622C493F7050813F73500A5C7B7173C
:100AF8000040930670052380D704930680FA23806C
:100B0800D7040100010089818589A382E70293E562
:100B180025002382B702371400402300040405454A
:100B280097F0FF1FE780E076930770052300F40431
:100B3800930780FA2300F40401000100834744026C
:100B480093E7C7002302F40223000404B2402244BE
:100B5800410182800100B717004093067005238089
:100B6800D704930680FA2380D70401000100A382EA
:100B7800E70205472382E70279BFB717004003D58C
:100B88008700420541819377050491EB9377F5013E
:100B98003755E801130505803345F50282809377C0
:100BA800050C130700046397E7009377F5013745B1
:100BB8009C1CCDB72165130505D082808147373746
:100BC8000040A14663C4C700328582800345B74010
:100BD800E38EA6FE3385F50003450500850723044B
:100BE800A740CDB7411122C406C62A8479372947C0
:100BF800B307E502B2408D83B3D787022244950735
:100C0800B3D7E70237370040C207C1832316F7403E
:100C180041018280716541111305052006C6D93747
:100C2800B7370040130770F82381E7400D47A381C9
:100C3800E74013070004A380E74005472387E74000
:100C4800B24041018280B787004003C7070013778D
:100C5800F70B2380E70003C767021377F70723839F
:100C6800E70282802390018A8280411106C6378775
:100C780000408347570003C5018A858B9DCF11C566
:100C8800834717000145858B95E7E93FB787004003
:100C980083C7570017250000130585D6858393C79A
:100CA8001700858B2381F18A85472380F18AEF001D
:100CB80070305545B240410182806DDD653717259A
:100CC80000001305A5D4EF00F02E5945E5B7378786
:100CD8000040834737001375F50793F70708C98F56
:100CE800A301F700828011C1B9BF3787004083474D
:100CF800070093E707042300F70082804111A1470A
:100D0800014506C622C4A38EF18837840040C13746
:100D18008347140093F7E70FA300F4002D378347A8
:100D280014003D4593F7970F93E72700A300F400BD
:100D380097F0FF1FE780C056834714001305A00FE4
:100D480093F7D70FA300F40097F0FF1FE7806054D4
:100D580085472303F400B24022444101828083C7BF
:100D6800018A81E785472380F18AB787004003C756
:100D780057005945058B05CF03C71700058B19EF99
:100D880003C75700098B933617002381D18A19C7E7
:100D980003C7170013674700A380E70037870040A1
:100DA80083471700014593E71700A300F7008280E7
:100DB800397122DC26DA4AD84ED652D456D25AD0C5
:100DC8005ECE62CC66CA6AC86EC606DEB7870040C9
:100DD8002387B702B78D0040AA89328D2385B702D1
:100DE80013594500014493846D00094B054AD54BBE
:100DF800854A7D5CB94C23843D03238064019307B5
:100E0800003203C70400098B09E7FD17C207C18335
:100E1800EDFB23840D0283C70400898BE5C383C7D8
:100E28000400858B9DC323804401813563147501BB
:100E3800238E418983C7018AD5C76387570B13055A
:100E4800800C97F0FF1FE780C04483C70400898B9C
:100E5800D9C783C77D0093F70704C9EB83C77D0013
:100E680093F7F70F13F5F7006304950929476319FA
:100E7800E50263020D08FD576303FD007D1D7D1427
:100E88001374F40F3D4597F0FF1FE7808040050479
:100E98001374F40F8947E3F087F61305000221A8BD
:100EA80025476309E902B5476304F9006318590542
:100EB80071D913650502F2506254D2544259B2599D
:100EC800225A925A025BF24B624CD24C424DB24DBE
:100ED800216182809D8B0D47E39CE7FC65B72380E9
:100EE80084014DB75945C1BF5545F1B70145E1B733
:100EF8001305E002C9B71305A00275BF1305E00F7B
:100F08005DBF011126CA4AC8AE842A891305800C20
:100F180006CE22CC4EC652C456C25AC097F0FF1F06
:100F2800E780203799C02380040037840040A14718
:100F380089692306F4021386097181451305000D9A
:100F4800853D63150514930700FD2307F402230567
:100F5800F40285472306F402938A818983A70A004D
:100F680003C4770003C767002204598C61CC630B64
:100F7800090C83870700378A00409389097163CA7F
:100F880007041305800C97F0FF1FE780803083C7A4
:100F9800D1896374F4009377F40F2306FA0281472A
:100FA8000347CA026399E7108345EA024E86414522
:100FB800013569ED8347CA021D8C4204418081C80E
:100FC8008347CA0203C70400BA972380F40055F880
:100FD80095A8938A41891305800C97F0FF1FE78035
:100FE800402B8345AA024E8613050009D13359EDDB
:100FF80003478A009377F40F6376870083478A0054
:1010080093F7F70F1D8C4204418091C403C7040075
:101018003E972380E40001479376F70F6392D70841
:101028003E9983478A0093F7F70F89CB03478A00D5
:1010380083C7D189FD17F98F91E351FCB787004029
:10104800238607021305800C97F0FF1FE7806024B2
:10105800B787004083C7C7021305000993F7F70F46
:1010680091E341450966130606719305000C89331F
:1010780011ED378700408347C70293F7F70F99C7E9
:101088008347870093F7F70F91C35D45F2406244A9
:10109800D2444249B249224A924A024B05618280AF
:1010A80083A60A00BA9603C60600B306E900050738
:1010B8002380C60095B703A70A00834609000509DF
:1010C8003E9785072300D70093F7F70FD1BD8147D7
:1010D80093858189A1463307F500034607009841A7
:1010E8003E972300C7008507E397D7FE828001114A
:1010F800A147172500001305E5AF06CEA38EF1889A
:10110800F9379305F1001385018EE53B05E19387D7
:10111800018E83C77700A38EF1880347F1009727D4
:10112800000083D787AD6373F7005D45F240056122
:101138008280011117250000130545AB06CE413FFB
:101148009305F1001385018E6D3B29E10347F100FA
:101158009727000083D7E7A95D456369F70283C72E
:10116800218E17250000130565A8A307F100853710
:10117800938781899C430347F1009305F100A3837A
:1011880007002383E7001385018EA53BF240056124
:101198008280411126C2AA8417250000130505A6DE
:1011A80006C622C42D37938781899C438145014512
:1011B80023819700A3810700A9332A8401E92685A2
:1011C8003936294597F0FF1FE780800D2285B24008
:1011D8002244924441018280411122C42A84172565
:1011E8000000130525A206C6DD35938781899C4337
:1011F800B2408145238187002244A381070001452D
:10120800410101B3411122C406C637840040930747
:1012180000F82300F400A3000400A30104009307CE
:101228008004A306F40083D74189231CF40083D7E4
:101238008189231EF400230504022307040293076F
:1012480090F82300F400930700042303F402FD57E9
:101258002303F400013C8D472301F400B2402244EB
:10126800238E018841018280797152CC56CA06D6F4
:1012780022D426D24AD04ECE5AC85EC662C4AA8AA2
:101288002E8AB5C131479387F5FFB387E7021387E5
:10129800818BBA9723900700239107009307FAFFE1
:1012A8003147B387E7021389018B01448149154C03
:1012B8000D4B938B018A3E9983C73A0083C62A0057
:1012C800A207D58F63E6F9022945CD262285B250BB
:1012D800225492540259F249624AD24A424BB24BC2
:1012E800224C456182802394018A2395018A7DB727
:1012F800B3843A0183C714006395870583C7340014
:101308008D8B6390670583C72400139787016187D6
:1013180063590702BD8B3307890063140A003387BA
:101328008B002304F700B3878B0083C5870005046F
:10133800171500001305456E1374F40F3526E36581
:101348008BF803C70400C147E3E0E7F84E979379A9
:10135800F70F9DB70111172500001305258B06CE41
:10136800BD339305F1001385018E613E11E90347F2
:10137800F1009727000083D7C7896373F7005D459D
:10138800F24005618280938781899C43130730026C
:101398002380E7000D472381B7002382A700A3809D
:1013A800E700A3810700A382070023830700A38324
:1013B800070081450145B1B6011117150000130555
:1013C800256606CE22CC26CA4AC84EC652C4DD2699
:1013D800EFF0DF928144014413094006054597F078
:1013E800FF1FE780E0EBEFF09F9719E5850493F482
:1013F800F40F636D9922014405041374F40FE31F7D
:1014080024FDEFF03F86171500001305656F5D2674
:101418005944F9A0B307890083C507004E85050420
:10142800A1241374F40F93170401C183E3E497FE16
:101438002945AD2C835789009719000083C9297C59
:101448004E852392F18A8357A90083C4418E239342
:10145800F18A81332A8419ED171500001305C55D3B
:10146800A380318B1124F1312A84971900009389C4
:10147800295C05C5A285171500001305E566ED2250
:1014880089472380F18A91A8B307890083C507009B
:101498004E850504D12A1374F40F9317040103D75A
:1014A800218EC183E3E2E7FE2945092403C9518E51
:1014B8006399040C83C4E18EA147639CF4024A85B6
:1014C800213B2A8445F98D472380F18A17150000AE
:1014D80013058557A381918AF12C0545EFF0BF804C
:1014E8002285F2406244D2444249B249224A056107
:1014F80082809D476395F40203C7F18E8547631880
:10150800F7104A85D1392A8435F58D472380F18A29
:101518001715000013054554A381918A75BF8D479F
:101528006397F40E83C7F18E054A6362FA0E81450C
:101538001385018E153BAA85171500001305C552A2
:1015480025224A8583C9018F41392A84E31405F28B
:101558002380918A639B490193073002A381F18A12
:10156800171500001305C55185BF8947639DF90A02
:1015780093073003A381F18A1715000013058551DD
:10158800A1BFA5476395F408F1332A84E31405EE57
:1015980083C5218E171500001305C550F12003C718
:1015A800218E914763E0E7042386E18A4A852D313D
:1015B8002A84E31105EC8D472380F18AA547A3818E
:1015C800F18A85441389018BB149171A0000130A5F
:1015D8006A4E83C7C18A63FA97001715000013057E
:1015E800A54FDDBD2386F18AD1B79387F4FFB38772
:1015F8003703A1452685CA9723800700693301C5AB
:10160800A68552859520850493F4F40FD9B74A85A9
:10161800E1362A84E31005E68D472380F18AFD57D9
:10162800A381F18A5DBD1304B00FA9B503C5218A52
:10163800EFF06FEB171500001305054F3520453CFB
:101648002A84E31905E29714000083C4145BA204FA
:101658009717000083C7675ADD8C1389018E971985
:1016680000009389E93CC1B339713EDA2ED232D4F5
:1016780036D63AD842DC46DE97F7FF1F9387872293
:1016880022CC804326CA06CEAA8409C41C4C99E3FE
:101698002285A92B0C4454102686228536C6EF00D5
:1016A800101BF2406244D24421618280011197F7F5
:1016B800FF1F9387271F22CC804306CEAA8519C413
:1016C8001C4C89E72AC622851523B2451044228579
:1016D8006244F24005616F00107C011126CA4AC8B5
:1016E80006CE22CC4EC652C4AA842E8901C51C4DF2
:1016F80091E3ED299C4C804499E32685C5299717E9
:10170800000093876745631CF402C0408357C400F8
:10171800A18BB1C71C48A1C7FD59294A1C44834560
:101728000900FD17B1E91CC463DE07062286A94536
:1017380026854128FD576308F502294535A09717E6
:101748000000938767436314F4008044C1B7971778
:1017580000009387673EE31BF4FAC04445BFA285A7
:101768002685052255D97D55F2406244D244424926
:10177800B249224A056182801CC4050963D7070063
:10178800184C63CBE700638945011C401387170099
:1017980018C02380B70059B7228626851D20E31F6D
:1017A80035F7D1B71C401387170018C02947238085
:1017B800E70061B797F7FF1F9387C70EAA8588438D
:1017C80029BF011122CC26CA4AC806CE4EC6AA8411
:1017D8002E89328401C51C4D91E309299717000011
:1017E800938787376319F406C0401C4C1CC4835781
:1017F800C400A18BC9C31C48BDCF1C4808409379BD
:10180800F90F1379F90F1D8D5C486346F500A28521
:101818002685752C2DE51C440505FD171CC41C40A8
:101828001387170018C0238037015C486389A70015
:101838008357C400858B81CBA9476316F900A2851D
:10184800268571240DEDF24062444A85D24442490E
:10185800B24905618280971700009387E7316314C6
:10186800F400804459B7971700009387E72CE31ECC
:10187800F4F6C0449DBFA285268521203DDD7D5913
:10188800D9B7411197F7FF1F9387C70126C2844331
:1018980022C44AC006C62A892E8489C49C4C99E36E
:1018A8002685A926971700009387072B631CF40247
:1018B800C0400317C40093170701C18393F687003C
:1018C800B5EE93F607019DEEA5472320F9001367AF
:1018D80007042316E4007D55B2402244924402498D
:1018E8004101828097170000938707296314F40049
:1018F8008044C1B79717000093870724E31BF4FAC5
:10190800C04445BF918B8DC74C5889C9930744047F
:101918006384F5004A859123232A04028357C4006F
:101928002322040093F7B7FD2316F4001C481CC0BB
:101938008357C40093E787002316F4001C4881EFFF
:101948008357C4001307002093F707286385E7002F
:10195800A2854A85A5218357C40013F7170005C738
:101968005C4823240400B307F0401CCC1C48014504
:10197800A5F78317C40013F7070839DF93E70704AF
:101988002316F40089BF898B014791E3584818C48E
:10199800F1BF83D7C500011122CC26CA06CE4AC89A
:1019A8004EC613F78700AA842E8471EFD841634D81
:1019B800E000B841634AE0000145F2406244D24485
:1019C8004249B2490561828058547DD703A9040071
:1019D8009396370123A0040063DD060670488357F9
:1019E800C400918B99C75C401D8E5C5899C33C40DC
:1019F8001D8E5C540C50814626858297FD570357EF
:101A0800C400631DF5009440F54763E8D706B7079F
:101A180040208507B3D7D700858BA5C31C48232250
:101A280004001CC09317370163D80700FD576314DF
:101A3800F5009C4091E368C84C5823A02401ADDD13
:101A4800930744046384F50026850129232A0402A8
:101A5800A5B70C500146854626850297FD572A866C
:101A6800E31FF5F69C40A5DF75476385E7005947F6
:101A78006394E70423A0240181B71367070423169E
:101A8800E4007D551DBF83A90501E38709F203A979
:101A980005008D8B23A0350133093941014791E3B6
:101AA800D84918C4E35A20F11C540C50CA864E86F3
:101AB800268582976349A0008357C40093E70704EB
:101AC8002316F4007DBFAA993309A940E1BF9C49B8
:101AD800B9CF011122CC06CE2A8411C51C4D81E74D
:101AE8002EC62922B245971700009387E706639B05
:101AF800F5004C408397C50095C722856244F240A3
:101B0800056141BD97170000938707076394F500A7
:101B18000C44CDB79717000093870702E39CF5FCA8
:101B28004C44C9BFF24062440145056182800145C9
:101B38008280411122C406C62A842316B5002317C1
:101B4800C5002320050023220500232405002322A5
:101B5800050623280500232A0500232C0500214615
:101B680081451305C505EFE05FC39717000093870C
:101B7800A7BD5CD097170000938707C01CD49717A0
:101B88000000938747C45CD497170000938707C762
:101B980000D01CD8B2402244410182809705000041
:101BA800938525F389AA411126C2130680069384DA
:101BB800F5FFB384C4024AC02E8922C406C69385A1
:101BC8004407A1262A8401CD2320050023222501CC
:101BD800310508C4138684068145EFE01FBC2285C1
:101BE800B240224492440249410182801C4DBDE327
:101BF800411106C622C497070000938767FA1CD5CF
:101C080097170000938707019C4323240504232684
:101C18000504232805046314F50085471CCD2A8490
:101C28001D2848C02285052808C422852D2048C4BF
:101C3800484001469145F53D08440546A545D53D32
:101C480048440946C945F53585471CCCB24022446D
:101C5800410182808280411197170000938787FB9A
:101C680026C284434AC006C69C4C22C42A8999E3EA
:101C78002685AD3F938484048044DC40FD1763D6F9
:101C880007009C40B9CF8440C5BF0317C40039E79B
:101C9800C177850723220406232004002322040099
:101CA800232404005CC423280400232A0400232CD2
:101CB8000400214681451305C405EFE01FAE232A21
:101CC8000402232C0402232404042326040422856A
:101CD800B24022449244024941018280130484069E
:101CE80071BF91454A85C13588C051FDB147232050
:101CF800F9000144E9BF797122D44AD052CC56CABE
:101D08005AC85EC606D626D24ECE2A8AAE8A130492
:101D180085040149054BFD5B09ECB25022544A8504
:101D280092540259F249624AD24A424BB24B456137
:101D38008280044483294400FD1963D409000040CB
:101D4800E1BF83D7C400637BFB008397E40063870C
:101D58007701A6855285829A3369A90093848406FF
:101D6800E1BF1971A6DAAE848395E500A2DC86DEB0
:101D7800328463DC050083D7C40023A0060093F7F0
:101D8800070885E7930700401DA0300836C6EF0016
:101D9800702CB246E34105FE7247BD67F98F79772B
:101DA800BA9793B717009CC2F1BF930700041CC0F1
:101DB800F6506654D65401450961828083D7C50020
:101DC800011122CC06CE26CA4AC8898B2E8489CF17
:101DD800930774041CC01CC885475CC8F240624461
:101DE800D24442490561828074003000AA84953F3C
:101DF800A2452A892685112A01ED8317C40013F705
:101E0800072069FFF19B93E727002316F400C9B761
:101E1800970700009387C7D89CD48357C40008C08D
:101E280008C893E707082316F400A2475CC8B2471E
:101E380091CF8315E4002685EF00702401C98357EC
:101E4800C400F19B93E717002316F4008357C400DE
:101E58003369F9002316240151B7DDC583A7C5FFEF
:101E6800411122C406C626C21384C5FF63D30700E6
:101E78003E94AA84EF00902797F7FF1F938707A344
:101E88009C4391EF2322040097F7FF1F23A087A20A
:101E98002244B2402685924441016F005025637E5A
:101EA800F40014403307D4006396E7009843DC43FA
:101EB800369718C05CC0C9BFBA87D84319C3E37D39
:101EC800E4FE94433386D700631F86001040B29621
:101ED80094C33386D700E31DC7FA10435843B2961C
:101EE80094C3D8C375B76375C400B1479CC04DB7D8
:101EF8001040B306C4006316D70014435843B29683
:101F080014C058C0C0C369B78280011126CA93841F
:101F18003500F19806CE22CC4AC84EC6A104B14776
:101F280063F5F404B14463E4B4042A89EF00101C97
:101F38009387818098433A8429E49387C1809C439E
:101F480099E781454A85EF00607D23A6A180A68593
:101F58004A85EF00A07CFD5963193507B147232056
:101F6800F9004A85EF00B01829A0E3DE04FAB1476A
:101F78001CC10145F2406244D2444249B24905615C
:101F880082801C40858F63CF0702AD4663F6F6005A
:101F98001CC03E9404C031A05C406313870223A494
:101FA800F1804A85EF00B0141305B400930744008C
:101FB80061993307F5405DDF3A94898F1CC05DBF96
:101FC8005CC3C5B72287404085BF130435007198AC
:101FD800E30285FCB305A4404A858927E31C35FB49
:101FE800B5BF1C46FD171CC663DA0700184E63C54B
:101FF800E700A9476394F5006FF0AFFC1C422E85FB
:102008001387170018C22380B7008280011122CCE1
:1020180026CA4AC84EC652C406CE2A89AE89328418
:10202800B304D6007D5A63149400014509A883457A
:1020380004004E864A8575370504E31645FFF240CD
:102048006244D2444249B249224A056182803571CC
:1020580022CD26CB4AC94EC706CF52C556C35AC150
:10206800DEDEE2DCE6DAAA89AE843289368401C58E
:102078001C4D91E3A53E971700009387E7AD639C3D
:10208800F40C83A4490083D7C400A18BFDC79C48E6
:10209800EDC793070002A304F1029307000302D2DD
:1020A8002305F10222C6930B5002971A0000938A67
:1020B800AAAE054C294B4A848347040099C363910F
:1020C800770FB30C2441638D0C00E6864A86A685FB
:1020D8004E852D3FFD576307F51E9256E69636D27C
:1020E800834704006380071EFD571309140002C8C4
:1020F80002CE3ECA02CCA309010482D4834509005A
:1021080015465685EF00E07C13041900C24759E9CB
:1021180013F7070109C713070002A309E10413F71E
:10212800870009C71307B002A309E1048346090021
:102138001307A0026380E608F2474A8481462546D1
:102148000347040093051400130707FD6379E60AA3
:10215800B5CA3ECE85A8971700009387E7A1639577
:10216800F40083A4890005B7971700009387C79CDC
:10217800E39BF4F083A4C90039B7A6854E85EFF038
:102188004FF001D97D55FA406A44DA444A49BA49C0
:102198002A4A9A4A0A4BF65B665CD65C0D618280D5
:1021A800050419BF330555413315AC00C98F3EC826
:1021B8002289A9B7324793064700184336C66349B0
:1021C80007023ACE034704009307E002631FF704AF
:1021D800034714009307A002631BF702B2470904E0
:1021E800138747009C433AC663C107023ECA35A815
:1021F8003307E04093E727003ACE3EC8E1B7B387FC
:10220800670385462E84BA9725BFFD57C5B70504D1
:1022180002CA8146814725460347040093051400F6
:10222800130707FD6376E606F1F2834504000D46C1
:10223800171500001305C596692D11CD97170000D5
:10224800938707961D8D93070004B397A70042450F
:1022580005045D8D2AC8834504001946171500003A
:1022680013054594130914002304B1029D253DC1AB
:1022780097E7FFFF938787D895E74247B2471377D9
:10228800071009CF91073EC69257D2973ED225B57F
:10229800B387670385462E84BA97BDBF9D07E19B28
:1022A800A107D5B7780097060000938666D62686DC
:1022B8000C084E8597000000E7000000FD572A8AA9
:1022C800E314F5FC83D7C40093F70704E39C07EAFB
:1022D800125555BD780097060000938666D326866A
:1022E8000C084E85012AD9BF797156CA9C49BA8A09
:1022F800984522D426D24ECE52CC06D64AD05AC8B9
:102308005EC6AA892E84B284368A63D3E700BA8768
:102318009CC00347340419C385079CC01C4093F72D
:10232800070281C79C4089079CC0032904001379D0
:102338006900631A0900130B9401FD5B5C44984023
:10234800998F634CF9041C408346340493F70702C1
:10235800B336D000A5EB13063404D2854E85829A95
:10236800FD576303F5041C4011469840998B54446B
:1023780081446397C700B384E64063D30400814473
:102388001C4418486354F700998FBE9401496904A6
:102398007D5B63982405014509A885465A86D28540
:1023A8004E85829A631E75017D55B250225492540F
:1023B8000259F249624AD24A424BB24B4561828085
:1023C8000509ADBF3307D40013060003A301C704F2
:1023D8000347540493871600A2978906A381E7044C
:1023E8009DBF85462286D2854E85829AE30E65FB7F
:1023F800050945B7797122D426D24AD04ECE06D6E1
:1024080052CC56CA5AC8B68983C685019307E006D6
:102418003289AA842E84138635046380F61E63E20B
:10242800D706930730066382F60A63EDD700638AFE
:10243800061E930780056386F616930A2404230173
:10244800D40469A8930740066386F60093079006AC
:10245800E395F6FE1C40084393F6070893054500EC
:10246800C1C21C410CC363D807001307D002B307CD
:10247800F040A301E40497060000938626732947D9
:1024880065A0930730076382F61A63EFD7009307B6
:10249800F006638FF60493070007E390F6FA9C4171
:1024A80093E707029CC109A8930750076382F604C3
:1024B80093078007E393F6F893078007A302F404D1
:1024C800970600009386C66FDDA01C43938A2504F7
:1024D800938647009C4314C32381F5048547ADA226
:1024E80093F607041C410CC3BDDEC207C187A5BF14
:1024F8000C401C4313F805081385470063050800C2
:1025080008C39C4339A093F5050408C3FDD983D7B4
:1025180007001307F006638AE60C97060000938607
:10252800E6682947A30104044C400CC463C50500B0
:1025380008406D9908C099E3B28A91CDB28AB3F583
:10254800E702FD1AB69583C505002380BA00B3D506
:10255800E70263F2E70AA147631EF7001C40858B78
:1025680091CB58401C4863C7E70093070003A38F2B
:10257800FAFEFD1A3306564110C84E87CA86700007
:10258800A285268595337D5A6314450D7D55B25035
:10259800225492540259F249624AD24A424B456146
:1025A8008280A382D50497060000938626600C409B
:1025B800084313F805081C4111056300080208C305
:1025C80013F7150001C793E505020CC04147B9FB95
:1025D8000C4093F5F5FD0CC0B1B713F8050408C31A
:1025E800E30008FEC207C183E1BF97060000938697
:1025F800E65B214705BFAE8799B794411C43CC4998
:1026080013F80608138547006306080008C39C43AF
:102618008CC301A808C393F606049C43F5DA2390FB
:10262800B70023280400B28A89BF1C43D0418145E2
:102638009386470014C383AA07005685592C01C501
:102648003305554148C05C401CC8A301040435B794
:1026580014485686CA8526858299E30945F31C40A5
:10266800898B8DE7B2474844E353F5F23E8505B7B9
:1026780085465686CA8526858299E30965F1050A45
:102688005C443247998FE345FAFEE9BF014A930A51
:1026980094017D5BF5B7011122CC06CE2A8409C9C5
:1026A8001C4D99E732C62EC4EFF04FD43246A245EE
:1026B800970700009387474A6316F60250401C4666
:1026C800FD171CC663D00704184E63C7E70093F7CD
:1026D800F50F29476398E70222856244F2400561B5
:1026E8006FF02F8E97070000938707496314F60051
:1026F8001044F1B79707000093870744E311F6FCED
:10270800504475BF1C4213F5F50F1387170018C204
:102718002380B700F240624405618280411122C4DF
:102728002A842E8523A0019606C63D24FD576317EB
:10273800F500938701969C4391C31CC0B240224484
:1027480041018280411122C42E848395E50006C68A
:102758004522634905007C48AA977CC8B2402244B8
:10276800410182808357C4007D777D17F98F231636
:10277800F400EDB783D7C500011122CC26CA4AC898
:102788004EC606CE93F70710AA842E843289B689DE
:1027980091C78395E5008946014631228357C400D5
:1027A8007D777D17F98F2316F4008315E4006244C2
:1027B800F240CE864A86B24942492685D24405610E
:1027C8003DA8411122C42E848395E50006C6E12860
:1027D800FD570357C400631BF500FD77FD17F98FFC
:1027E8002316F400B2402244410182808567D98FC4
:1027F8002316F40068C8FDB78395E50005A84111C4
:1028080022C42A842E85B285368623A0019606C660
:10281800EFE0CFBAFD576317F500938701969C4305
:1028280091C31CC0B240224441018280411122C49C
:102838002A842E8523A0019606C6CD20FD5763174E
:10284800F500938701969C4391C31CC0B240224473
:1028580041018280411122C42A842E85B28523A099
:10286800019606C6D120FD576317F5009387019698
:102878009C4391C31CC0B240224441018280411153
:1028880022C42A842E8523A0019606C66520FD57FA
:102898006317F500938701969C4391C31CC0B2400F
:1028A800224441018280411122C42A842E85B285A6
:1028B800368623A0019606C66120FD576317F500EA
:1028C800938701969C4391C31CC0B24022444101A6
:1028D800828093F5F50F2A966314C500014582801E
:1028E80083470500E38DB7FE0505FDB7828082802A
:1028F800411122C42A842E85B285368623A00196EA
:1029080006C6A920FD576317F500938701969C43D7
:1029180091C31CC0B24022444101828093078005C4
:1029280023A0F1967D5582809307800523A0F19618
:102938007D5582809307800523A0F196014582800A
:102948009307800523A0F1967D5582809307800523
:1029580023A0F1967D558280938701819C4391C77E
:102968003E9523A8A1803E858280938741963E9517
:1029780023A8A1803E858280403400000000040026
:102988004034000001000C00403400000200130035
:1029980040340000030004004034000004000E002E
:1029A8004034000005000E005374617274204043E7
:1029B80068697049443D253032580A005761697486
:1029C8002044657669636520496E0000414F4120C7
:1029D8004D6F646500000000554E4B4F574E204424
:1029E800657669636500000044E0FFFF6CE0FFFF67
:1029F80094E0FFFFACE0FFFFC6E0FFFF5553422025
:102A080064657620696E000055534220646576201F
:102A18006F757400253032782000000052657365A8
:102A28007420686F737420706F7274007825303268
:102A38005820000047657443666744657363723ABB
:102A4800200000005553422D4469736B2052656184
:102A5800647900005553422D5072696E7420526596
:102A680061647900416E616C797A65486964496E80
:102A780074456E647020253032780A005553422D13
:102A88004B6579626F6172642052656164790000F8
:102A98005553422D4D6F75736520526561647900F9
:102AA8004D617820506F72743A25303258200000FA
:102AB8004578742D48554220506F72745F253164F3
:102AC8002320706F776572206F6E206572726F7247
:102AD8000A0000005553422D485542205265616452
:102AE80079000000496E6974526F6F7444657620EE
:102AF800457272203D20253032580A0044697361BE
:102B0800626C6520686F737420706F7274206265E0
:102B18006361757365206F6620646973636F6E6E99
:102B28006563740047657444657644657363723AF7
:102B3800200000000000000000000000000000006D
:102B4800000000000000000000000000000000007D
:102B5800000000000000000000000000000000006D
:102B6800000000000000000000000000000000005D
:102B7800000000000000000000000000000000004D
:102B8800000000000000000000000000000000003D
:102B980000000000232D302B20000000686C4C0042
:102BA800656667454647000030313233343536377D
:102BB8003839414243444546000000003031323341
:102BC8003435363738396162636465660000000061
:102BD800C033000000000200000410232735430022
:102BE80040350000000000008006000200000400DC
:102BF800800600010000120000050200000000002D
:102C08000009000000000000A006002900000900DB
:042C1800440800204C
:102C1C00574348005743485541525444656D6F0023
:102C2C00574348204163636573736F727920546511
:102C3C00737400312E3000687474703A2F2F7763E0
:102C4C00682E636E005743484163636573736F72FC
:102C5C0079310000000000005C2B00007C2B000090
:102C6C003C2B0000000000000000000000000000F1
:102C7C000000000000000000000000000000000048
:102C8C000000000000000000000000000000000038
:102C9C000000000000000000000000000000000028
:102CAC000000000000000000000000000000000018
:102CBC00000000000000000044080020000000009C
:00000001FF
