:040000006F00806BA2
:100004000000000000000000900000201C020020FE
:10001400A9BDF9F5940000200000000000000000D4
:10002400960000209800002000000000000000005E
:100034009A000020000000009C0000200000000046
:100044009E000020A0000020A2000020A4000020A8
:10005400A6000020A8000020AA000020AC00002078
:10006400AE000020B0000020B2000020B400002048
:10007400B6000020B8000020BA000020BC00002018
:10008400BE000020C0000020C2000020C4000020E8
:1000940001A001A001A001A001A001A001A001A054
:1000A40001A001A001A001A001A001A001A001A044
:1000B40001A001A001A001A001A001A001A001A034
:1000C40001A001A001A0B71700409306700523808A
:1000D400D704130780FA2380E7040100010003C654
:1000E400B7041376F60DA385C7042380070413769B
:1000F400050251CE03C6A700118A1DE22380D7044E
:100104002380E7040100010003C7A7001367470029
:100114002385E7009307004B01000100FD17EDFF65
:10012400B7170040930670052380D704130780FA9D
:100134002380E704010001007D892394A7000100C6
:10014400010001000100238007042380D7042380D9
:10015400E70401000100372700408546A303D78048
:1001640023800704B7170040130770052380E704B2
:10017400130780FA2380E7040100010003C7B704D2
:1001840013670708A385E704238007048280137696
:10019400050425CA03C6A700418A1DE22380D704AB
:1001A4002380E7040100010003C7A70013670701C8
:1001B4002385E7009307007D01000100FD17EDFF93
:1001C400B7170040930670052380D704130780FAFD
:1001D4002380E704010001007D891365050423944D
:1001E400A70001000100010001002380070423800F
:1001F400D7042380E7040100010037270040894623
:10020400B1BF2380D7042380E7040100010003D792
:1002140087001367070C2394E700A9B781460146BA
:10022400814511451522B717004013077005238037
:10023400E704130780FA2380E704010001007D57D7
:100244002396E70203C76704136717002383E704B1
:100254002380070401A0BD473305F50201007D1585
:1002640075FD8280411122C426C206C6AA840144B7
:1002740063179400B24022449244410182800504F1
:100284001305803E4204C13F4180DDB7230304804F
:1002940015472303E48001002302A480828083079E
:1002A4006480E3CE07FE2303048082808307648096
:1002B400E3CE07FE03454480828083076480E3CE57
:1002C40007FE2302A4808280411126C44AC24EC084
:1002D40006C61377F50BAD47AA892E8995446306A4
:1002E400F70019456537653F8D444E854537FD59FF
:1002F400FD1463983401B240A24412498249410179
:100304008280135509011375F50F453F2209CDB7B6
:10031400011126CC06CEB704080051371545BD3768
:10032400713769372AC6A53F32459377150089EBA3
:10033400136515001375F50FF240E24405618280E0
:10034400FD14E9FC0145CDBF397126DC4ADA4ED8EB
:1003540052D656D45AD25ED006DE62CE66CCB7E709
:1003640000E07D5783AA070022C603AA470023A002
:10037400E71823A2E718B717004013077005238076
:10038400E704130780FA2380E70483C74704930B29
:1003940075FFB684E20793FBFB0F8546AA892E8B73
:1003A400328937240040E187015763FA76016308F4
:1003B400D5008946130700026313D5000157D98F6E
:1003C40093F7F70FB71C00402382FC041147230363
:1003D400E4801305F00F5D3D094CD135636D7C114C
:1003E400B7050700DA9537870700795563F2E50406
:1003F400B3879500636EF702370B0800A94733EB08
:1004040065016399F90689E48144513D26850DA06F
:10041400DA850945553D05090345F9FFFD14050B2A
:10042400693D81C49377FB0FFDF7DD3569FD7D558B
:10043400B7170040130770052380E704130780FAF9
:100444002380E70403C74704418B2382E704F25067
:10045400B7E700E023A0571123A24711E254324426
:100464005259C259325AA25A125B825B724CE24C04
:1004740021618280A5476395F90685691309F00F08
:10048400B3069900B3742B01B6941349F9FFB374FE
:100494009900856B33796901416B9387F9FFB3F751
:1004A400270199E363FC340193D94900C147E3E68A
:1004B40037FF99BF0569C1697D19D9B71305800D47
:1004C4006388690113050002638479011305100828
:1004D400CA85DD3B353D21DD4E99B3843441D9B71E
:1004E400DA852D45D533CA94E30099F205097D3B9D
:1004F400A30FA9FED5BF9387F9FF93F7F70F6361A5
:10050400FC0C83C71C0413073008631FF704370768
:100514000800636BEB04B3079B00B706100063F598
:10052400D704334BEB0089476393F9068980D54997
:10053400E38C04ECDA850945413B11090327C9FF23
:1005440091472320E48003076480E34E07FE2303DE
:100554003481FD17EDFBFD14110B81C49377FB0F60
:10056400E9FF7D3371F5E1B5B717004003C75704C0
:10057400B70708001377070219E3B787070079550F
:10058400E378FBEA33079B00E3FFE7F855B58547BB
:10059400E382F9F2DA852D45053B9389F4FFE3857F
:1005A40004E6293393F7390091EB8326048003276B
:1005B400090093074900E39AE6E43E89CE84F1BF3B
:1005C400B5476396F9001305900BC93135BDB147A2
:1005D4001305B00AE38BF9FE99476391F904B70553
:1005E4000800B365BB002D45C53181448D4BA1493D
:1005F400753963967401832704802320F9008504E8
:10060400E39834FF8327048013172B0163550700F5
:100614002312F900D5BB2322F900FDB39D4763994A
:10062400F90281451305B0044531BD442320090076
:1006340023220900FD599D3993F77400CA9703C713
:100644000700FD14398D2380A700E39634FF6DBBAA
:10065400A1476392F9046D398144630D0B008D4702
:100664009304C0036308FB009304000563048B0137
:10067400930440041375C507E30895D81945393127
:1006840039390545213126850D3909453D31493131
:10069400E31C05D669BB91476399F900130560060D
:1006A400F536F53E130590090DB7E38F09D4F154DF
:0406B400A9BB0000DE
:1006B80097110020938181941781002013010194E0
:1006C80013054000970500209385459317060020E1
:1006D800130606FE63FAC5008322050023A0550011
:1006E80011059105E3EAC5FE170500001305453914
:1006F800970500209385851017060020130606101D
:1007080063FAC5008322050023A055001105910551
:10071800E3EAC5FE170500201305450E97050020DE
:100728009385C50D6377B500232005001105E36D9A
:10073800B5FEFD42739002BC8D42739042809302D5
:10074800800873A00230970200209382228B93E2E4
:100758003200739052309702000093820201739026
:1007680012347300203041111305800406C6970027
:100778000020E78000958D45056551208D45096568
:10078800BD288D450545392A8D454145212A8D4588
:1007980013050004012A8D451305000821228D4503
:1007A80011650922B75700401147A381E700114599
:1007B800692A85460546C1450545312C85460546C5
:1007C800C1450945092C85460546C14511452124E1
:1007D80085460546C1452145FD2A85460546C1454C
:1007E8004145D52A85460546C14513050002E5223F
:1007F80085460546C14513050004F12A01A0914725
:1008080063EEB70217070000130707238A05BA9596
:100818009C41BA978287B717004003A7470B134537
:10082800F5FF698F23AAE70A03A7070B698F23A897
:10083800E70A03A7070A798D23A0A70A8280B717BA
:10084800004083A6470B1347F5FFF98E23AAD70A62
:1008580083A6070B558D23A8A70A83A6070A758FB9
:1008680023A0E70A8280B717004003A7470B498FE8
:1008780023AAE70A03A7070B1345F5FF45BFB717D8
:10088800004083A6470B1347F5FF758F23AAE70A95
:1008980003A7070A598D4DB7B717004003A7470BA1
:1008A800498FEDB7914763EEB702170700001307AA
:1008B800E7198A05BA959C41BA978287B71700400D
:1008C80003A7470D1345F5FF698F23AAE70C03A774
:1008D800070D698F23A8E70C03A7070C798D23A0C0
:1008E800A70C8280B717004083A6470D1347F5FF72
:1008F800F98E23AAD70C83A6070D558D23A8A70C1C
:1009080083A6070C758F23A0E70C8280B7170040D9
:1009180003A7470D498F23AAE70C03A7070D134523
:10092800F5FF45BFB717004083A6470D1347F5FFEE
:10093800758F23AAE70C03A7070C598D4DB7B71776
:10094800004003A7470D498FEDB79D4763E3A70212
:10095800170700001307C7100A053A951C41BA97F4
:100968003757004082878347270093F7070F2301F3
:10097800F70082808347270093F7070F93E7170054
:10098800FDB78347270093F7070F93E74700C5B7DD
:100998008347270093F7070F93E75700C9BF83479B
:1009A800270093F7070F93E78700D1B783472700FE
:1009B80093F7070F93E797005DBF8347270093F7E7
:1009C800070F93E7C70065B78347270093F7070F1B
:1009D80093E7D70069BF99EAB757004003C70700F4
:1009E8001345F5FF798D2380A70082803757004093
:1009F80005CE83471700C98FA300F700375700407B
:100A0800814711072146B356F540858A89C6B386C2
:100A1800E7002380B6008507E397C7FEB757004075
:100A280003C70700598DC1B7834617009347F5FFE1
:100A3800F58FD9B7E2FDFFFF0AFEFFFF32FEFFFF89
:100A48004AFEFFFF64FEFFFF74FEFFFF9CFEFFFFF0
:100A5800C4FEFFFFDCFEFFFFF6FEFFFF0AFFFFFFFD
:100A680018FFFFFF26FFFFFF34FFFFFF42FFFFFFD6
:0C0A780050FFFFFF5EFFFFFF6CFFFFFF61
:00000001FF
