:081000006F208009002F02009F
:101008000000000000000000903800201C3A00207A
:10101800A9BDF9F594380020000000000000000088
:1010280096380020983800200000000000000000DA
:101038009A380020000000009C38002000000000C2
:101048009E380020A0380020A2380020A4380020B4
:10105800A6380020A8380020AA380020AC38002084
:10106800AE380020B0380020B2380020B438002054
:101078008C3A0020B8380020BA380020BC3800204C
:10108800BE380020C0380020C2380020C4380020F4
:1010980001A001A001A001A001A001A001A001A040
:1010A80001A001A001A001A001A001A001A001A030
:1010B80001A001A001A001A001A001A001A001A020
:1010C80001A001A001A0B717004093067005238076
:1010D800D704130780FA2380E7040100010003C640
:1010E800B7041376F60DA385C70423800704137687
:1010F800050251CE03C6A700118A1DE22380D7043A
:101108002380E7040100010003C7A7001367470015
:101118002385E7009307004B01000100FD17EDFF51
:10112800B7170040930670052380D704130780FA89
:101138002380E704010001007D892394A7000100B2
:10114800010001000100238007042380D7042380C5
:10115800E70401000100372700408546A303D78034
:1011680023800704B7170040130770052380E7049E
:10117800130780FA2380E7040100010003C7B704BE
:1011880013670708A385E704238007048280137682
:10119800050425CA03C6A700418A1DE22380D70497
:1011A8002380E7040100010003C7A70013670701B4
:1011B8002385E7009307007D01000100FD17EDFF7F
:1011C800B7170040930670052380D704130780FAE9
:1011D8002380E704010001007D8913650504239439
:1011E800A7000100010001000100238007042380FB
:1011F800D7042380E704010001003727004089460F
:10120800B1BF2380D7042380E7040100010003D77E
:1012180087001367070C2394E700A9B781460146A6
:10122800814511453D2AB7170040130770052380F3
:10123800E704130780FA2380E704010001007D57C3
:101248002396E70203C76704136717002383E7049D
:101258002380070401A0BD473305F50201007D1571
:1012680075FD8280411122C426C206C6AA840144A3
:1012780063179400B24022449244410182800504DD
:101288001305803E4204C13F4180DDB7B7170040D7
:10129800130700032388E702854717270000232D3B
:1012A800F752730020302303048015472303E4809A
:1012B80001002302A480828083076480E3CE07FEB6
:1012C80023030480828083076480E3CE07FE0345FE
:1012D8004480828083076480E3CE07FE2302A480D3
:1012E8008280411126C44AC24EC006C61377F50B48
:1012F800AD47AA892E8995446306F70019456537D5
:10130800653F8D444E854537FD59FD14639834017A
:10131800B240A24412498249410182801355090111
:101328001375F50F453F2209CDB7011126CC06CE1E
:10133800B704080051371545BD37713769372AC6D4
:10134800A53F32459377150089EB13651500137592
:10135800F50FF240E24405618280FD14E9FC014585
:10136800CDBF397126DC4ADA4ED852D656D45AD275
:101378005ED006DE62CE66CCB7E700E07D5783AA72
:10138800070022C603AA470023A0E71823A2E718EC
:10139800B7170040130770052380E704130780FA86
:1013A8002380E70483C74704930B75FFB684E207DD
:1013B80093FBFB0F8546AA892E8B32893724004080
:1013C800E187015763FA76016308D5008946130758
:1013D80000026313D5000157D98F93F7F70FB71C95
:1013E80000402382FC0411472303E4801305F00F17
:1013F8005D3D094CD135636D7C11B7050700DA9561
:1014080037870700795563F2E504B3879500636E63
:10141800F702370B0800A94733EB65016399F90612
:1014280089E48144513D26850DA0DA850945553D5D
:1014380005090345F9FFFD14050B693D81C4937740
:10144800FB0FFDF7DD3569FD7D55B7170040130724
:1014580070052380E704130780FA2380E70403C795
:101468004704418B2382E704F250B7E700E023A04A
:10147800571123A24711E25432445259C259325AE1
:10148800A25A125B825B724CE24C21618280A547B2
:101498006395F90685691309F00FB3069900B374CB
:1014A8002B01B6941349F9FFB3749900856B33790E
:1014B8006901416B9387F9FFB3F7270199E363FC4F
:1014C800340193D94900C147E3E637FF99BF05695D
:1014D800C1697D19D9B71305800D638869011305A2
:1014E80000026384790113051008CA85DD3B353D88
:1014F80021DD4E99B3843441D9B7DA852D45D533EA
:10150800CA94E30099F205097D3BA30FA9FED5BF54
:101518009387F9FF93F7F70F6361FC0C83C71C04EB
:1015280013073008631FF70437070800636BEB04E1
:10153800B3079B00B706100063F5D704334BEB00E5
:1015480089476393F9068980D549E38C04ECDA85E9
:101558000945413B11090327C9FF91472320E4802E
:1015680003076480E34E07FE23033481FD17EDFB78
:10157800FD14110B81C49377FB0FE9FF7D3371F5DF
:10158800E1B5B717004003C75704B707080013773A
:10159800070219E3B78707007955E378FBEA3307B1
:1015A8009B00E3FFE7F855B58547E382F9F2DA8552
:1015B8002D45053B9389F4FFE38504E6293393F72A
:1015C800390091EB8326048003270900930749001B
:1015D800E39AE6E43E89CE84F1BFB5476396F90005
:1015E8001305900BC93135BDB1471305B00AE38B1C
:1015F800F9FE99476391F904B7050800B365BB0084
:101608002D45C53181448D4BA149753963967401C7
:10161800832704802320F9008504E39834FF832777
:10162800048013172B01635507002312F900D5BB5B
:101638002322F900FDB39D476399F90281451305FB
:10164800B0044531BD442320090023220900FD5977
:101658009D3993F77400CA9703C70700FD14398DA5
:101668002380A700E39634FF6DBBA1476392F9047A
:101678006D398144630D0B008D479304C0036308E3
:10168800FB009304000563048B0193044004137565
:10169800C507E30895D81945393139390545213148
:1016A80026850D3909453D314931E31C05D669BB0D
:1016B80091476399F90013056006F536F53E130561
:1016C80090090DB7E38F09D4F154A9BB174700005F
:1016D8000347B7B4914763E2E7149747000083C70D
:1016E80027B6918B639B07129747000093878795CE
:1016F80090439746000083C63691814763CED7064C
:10170800011122CC1744000013040490584426CA3F
:1017180006CE9747000083C79794974400009384A8
:10172800E4926365F70C680097D000E0E780804D8D
:10173800FD57630AF50C32479747000083C7379275
:1017480063F6E70A5844634107048D2132475C4435
:101758006373F700BA871747000003475790998FBC
:101768003E958387440163C60702B707C0A8636232
:10177800F502B707405771A0139717003297035720
:10178800070041EF85079DBF03874401635507069E
:101798001D8D174400001304E4A71C4C81CF974704
:1017A8000000938727AB94433707CDFF7D179C46EE
:1017B800F98F9CC619E13705C0A8DC50829719E952
:1017C8001C4C8DC7974001E0E780209F973001E0CF
:1017D800E78060EC1C4C99CB97470000938787A75C
:1017E8009843B70633001C47D58F1CC7F2406244A4
:1017F800D24405618280E37DF5F83707C0A8B307B6
:10180800F7403E9579B75C44E3C207FE4526174783
:1018180000000347D7845C4499B7828019CD91CDE5
:1018280009CE81473387F500834607003307F50063
:1018380085072300D700E397C7FE828019C991C99D
:1018480009CA910583A7C5FF11057D16232EF5FE4C
:10185800C5BF8280854715C18DC105C28147B306C2
:10186800F5003387F50083C6060003470700639831
:10187800E6008507E315F6FE85473E8582808147A9
:10188800EDBF7971973700009387077C22D4804396
:1018980006D626D24AD04ECE52CC56CA5AC85EC6B2
:1018A8007DC08144173B0000130B8B7E1739000065
:1018B8001309C979173A0000130A0A75B709C0A8AD
:1018C800B70A40578357240085E35C4481EC1737F7
:1018D8000000232BF776832BC4002285EF10405994
:1018E8005E8461A0DCC4C5BF83270B0082971C44BB
:1018F800636FF5023307F540635E07020327490269
:1019080019CF03074901635F07003387A74083277F
:10191800CA006376F7009737000023ADE76EA2840C
:101928004044A1A00147E384A7FECE97F9BF898F61
:1019380063DE07069737000023AE076C8355240043
:1019480003450400971000E0E780A08B5C405844F2
:10195800B1C71444B6978306490163C5060063E31B
:101968003701D6971CC4A2843A8429FC9737000013
:1019780093878769DC4711476376F704F1171737B0
:1019880000002329F768B250225492540259F249B0
:10199800624AD24A424BB24B4561828091E4973702
:1019A800000023A3E76A05BFD8C435B70327490257
:1019B8003DD70327CA00E3F4E7F617370000232BC7
:1019C800F764B1BF9737000023A607646DBF4111C4
:1019D80022C417340000130464651C4006C626C2DE
:1019E80091C782979737000023A207645C4091C390
:1019F80082971C40639E07169747000083C7D781CC
:101A0800858BF9CF97470000A38807801747000008
:101A18000347B780914763FDE700EF00B05697375B
:101A2800000083C7977FF5178A07A2979C43829780
:101A380097370000938707619843173600000346DD
:101A4800B65CBE849737000083C7075C939617007F
:101A5800BA9683D60600D1CE9737000083C7C75AF7
:101A680063E3C70A973700002380075A1C40639135
:101A780007109737000083C7777A91CF9737000010
:101A880083C7B77989EB97370000A3890778973020
:101A980001E0E78040FF973700009387675F9C432A
:101AA800E1CBFD57173700002326F756D93B973768
:101AB80000009387A759DC5391C309399737000071
:101AC8009387C75C9C43CDC782979737000093875D
:101AD800A7539C4B3E959737000023AFA75249A8C0
:101AE8009737000083C7C775918BB9D3EF10601B78
:101AF80081B7850793F7F70F973600002386F650CE
:101B0800E3E2C7F491BF86073E97973700009387B3
:101B1800A751835507009C43231007001735000081
:101B28000345854E13172500BA979C43829797372C
:101B3800000083C7674D139717009C40BA9703D7D7
:101B48000700598D2390A7009737000083C7C74B1C
:101B580091C78507173700002308F74A1737000091
:101B68000347874A9737000083C7174AE37CF7EE95
:101B7800B2402244924441018280AD6737C7004099
:101B8800BD072326F7200F10000097370000938722
:101B9800A747884F83278726BD66BD0693C7F7FFEB
:101BA80099836A052326D7205D8D82804111B71756
:101BB8000040985F3AC6945F3247E39CE6FE3245A0
:101BC800410182800327850F19E3054582808347F9
:101BD800C50093F7C70F2306F50003468700835611
:101BE800C70093158601E18563D8050A13781600A6
:101BF8008355E5186302080613E617002306C50097
:101C080063F8D5020348A502A30AB50017360000F9
:101C18000346D6446376C80093E717012306F50008
:101C28008D8E2316D7008547A30CF50001458280C9
:101C3800104309CE8345A502173600000346164215
:101C480063F6C50093E717012306F500A30AD5003C
:101C58008947A304F700C1BF13E82700230605013D
:101C6800E3F5D5F68D8E130810F813661600A30455
:101C780007012304C7002316D7008346A502173798
:101C880000000347B73D63F6E60093E72701230604
:101C9800F500A30AB50041BF054893E52700631482
:101CA800060193E517002306B500A30AD500894766
:101CB800A304F7001C43A5DB0347A50297370000E0
:101CC80083C7D739E371F7F693E505012306B50015
:101CD80099BF97370000938767509C43411122C4EE
:101CE80006C6858B2A84CDEB4165130525F597E05B
:101CF80000E0E78020CA4DC18347A5002315F50001
:101D080083270410A5E72320A4102322A4108547C5
:101D1800231CF40223200500834764015441231641
:101D2800F5000347D4002304E50017370000130724
:101D3800674E184F1385170215811C437D151375BF
:101D4800F50F9CC25C43DCC21C479CC65C47DCC6E2
:101D58001C4B9CCA5C4BDCCA1C4F9CCE5C4FDCCE37
:101D680019CD9386060213070702C1BF83274410C3
:101D780088C3835784032322A410850751BF97374C
:101D8800000083D72756850717370000231CF75410
:101D9800B2402244410182808347C40023090400E1
:101DA800054593C747002306F400DDB78347E501DF
:101DB80093F7E70F91CB014582800145B240224459
:101DC80092440249410182808347F501EDF7834639
:101DD80025010347C50089CA0346A50297370000B5
:101DE80083C717286367F60093770701E9D7814708
:101DF80089C6418B8357C51801C703570519BA9778
:101E0800DDDB173700000347A725411113168701AB
:101E180006C622C426C24AC0618663500606938756
:101E2800C71313D45700973700009387A74983A691
:101E380087089734000083C444237D59B705C0A898
:101E480083A7460803D78607635B06043387E74002
:101E5800637327013A899442E5F697370000938720
:101E680027239C438297E36AA9F43305A940269463
:101E7800333485001345140091B7058B9387C71237
:101E880009CB8A071384F7039307D0073354F40266
:101E980059BF86071384F7019307D003C5BFE3F73B
:101EA800E7FAAE9765B7173600001306A641032771
:101EB800860863040746797126D297340000938414
:101EC800E418838844018325060906D622D44AD01B
:101ED8004ECE52CC56CA5AC85EC601457D58370305
:101EE800C0A8832647088357870763D20812B38799
:101EF800F64063F50701BA853E880545184375F332
:101F080009C59737000023A7B74403240609856944
:101F1800173900001309C917370AC0A8B70A40576C
:101F2800054B9389B94783270900832B4408829777
:101F38006370752F035784079737000083C7E7122C
:101F4800B38BAB40BA9763EE771F83574403A30E56
:101F5800040022858507231AF40283470412C5CF9B
:101F68008D21228597D000E0E78040F151E58386F6
:101F7800440123050402832744080355840763DECC
:101F88000608B389A74003270408232E3407BA9705
:101F980063C90600B706C0A863E5D700B70640576F
:101FA800B6978346B4002322F4088547639FF60654
:101FB80083572407035604036369F606034604019E
:101FC8006315D6068326840FADE283268409B1EE15
:101FD8000346F4009306000C6319D604B387E7029E
:101FE80003278408B3D7E702173700000347D7074A
:101FF8000507BA97231CF406B2502254925402598A
:10200800F249624AD24A424BB24B45618280E3F0C0
:10201800F6EE9A96E9BD1926A9B7E3F4A7F6B7092B
:10202800C0A8BE99B389A940B9BF83270900829780
:102038009737000083C7C7021397870161876358E2
:1020480007083385A94079C1832604086370D50C35
:10205800635507081605B717004083C7F702E2075C
:10206800E18763C307004115173700001307471CB2
:102078001443B567BD07DCC60F1000001C430605F6
:102088000967E8D398C7130700F897360000238537
:10209800E6183D673D07D8C7973001E0E780609BA9
:1020A800973001E0E780C0AB0347B400854781451E
:1020B8006313F704171501E01305457A970000E04C
:1020C800E780A04D930700FD2307F40035B7E3FA36
:1020D800A9F6B706C0A8B699ADB7858B99C7930777
:1020E800803E3305F5021581BDB79307D00333054C
:1020F800F50205818DB717E500E0130585309700D7
:1021080000E0E7808049930710FC7DBF0347B400D7
:10211800854703A304036317F7009545E30E03EC13
:10212800154529A0E30A03EC954519452254B250F8
:1021380092540259F249624AD24A424BB24B456123
:10214800028363D60B068357440322858507231A27
:10215800F40283470412B1CBAD24228597D000E066
:10216800E780C0D10327040883274408BA97038768
:1021780044016345070063E34701D6972322F40827
:102188008347B400639767012285971001E0E780D1
:10219800A0178347D40185458507A30EF4009C58F2
:1021A800E38307D815458297BDBB8D2A7DB7835732
:1021B8002403173700000347A7EA93168701E1862F
:1021C8008E0763D706021307204EB387E70295836D
:1021D800E3F477E3A145228597D000E0E78080C14A
:1021E8002302A40203A304038945E31B03F229B5D0
:1021F800058B11C713078002B387E702D1BF0567B4
:102208001307B747B387E702938707049D83C9B7C6
:102218008357240317370000034787E49316870181
:10222800E186B30B75418E0763D0060A1307204E6B
:10223800B387E702958363F2FB0C83270900829733
:1022480083574403AA8B22858507231AF402834700
:102258000412C1CBBD22228597D000E0E78000C2DE
:10226800E31C05D80327040883274408BA97038783
:1022780044016345070063E34701D6972322F40826
:102288008347D40113F7070F39CF228597C000E0A1
:10229800E7808076A30E040083274408E3FFFBF859
:1022A8008347B400639567050357240783570403DE
:1022B800E3FBE7C62285971001E0E780E0049C581D
:1022C800E38307C68D45F9BD058B11C71307800247
:1022D800B387E7028DB7B3873703938707049D83D6
:1022E80099BF2D288DBF8507A30EF40075B79C589C
:1022F800E38B07C28D4519457DB5E3CF0BCEA145CC
:10230800228597D000E0E780E0AE2302A40203A371
:102318000403E30303CE914521B58280797126D267
:1023280006D622D44AD04ECE52CC56CA5AC85EC619
:102338008347850203447511AA843E941374F40FED
:102348009307400263F687001304B4FD1374F40F77
:1023580003AA841183AAC411A38B841022865285F0
:10236800D68597C001E0E7806000058915E503CBB5
:10237800D41001498149337B6403930B50024A8688
:102388005285D68597C001E0E78040FE058915C5CE
:10239800639169031374F90F238B8410B25022548C
:1023A80092540259F249624AD24A424BB24B4561B1
:1023B80082808509E20993D989410509E31179FDEC
:1023C800E1BF8327C50803564503797193D60701F2
:1023D800BD8EC206C182358E13577640935756403C
:1023E800898B058B5D8F93573640918B5D8F935703
:1023F8001640A18B5D8F93171600C18B5D8F9317C5
:10240800360093F707025D8F9317560093558600A1
:1024180093F707041E065D8F1376F60F518F93D737
:10242800554013D63540118A898BD18F13D6754004
:10243800D18F13D61540218AD18F13961500418A62
:10244800D18F1396350013760602D18F1396550057
:10245800137606049E05D18F93F5F50FCD8FA2074D
:1024680045465D8F3307C70222D42A8426D252CC30
:1024780056CA032A8411832AC4115AC806D6369725
:102488004207418393577740135557400989858BF5
:10249800C98F135537401189C98F135517402189A2
:1024A800C98F131517004189C98F13153700137584
:1024B8000502C98F13155700935587001375050436
:1024C8001E07C98F1377F70FD98F13D5354013D748
:1024D80055401189098B498F13D57540498F13D5FC
:1024E80015402189498F139515004189498F139506
:1024F800350013750502498F1395550013750504AA
:102508009E05498F93F5F50F4D8F2207D98FB38715
:10251800C7024AD04ECE5EC662C4B697C207C18310
:1025280013D7774013D557400989058B498F13D5A1
:1025380037401189498F13D517402189498F139541
:1025480017004189498F1395370013750502498F84
:102558001395570093D58700137505049E07498F77
:1025680093F7F70FD98F13D5354013D755401189F5
:10257800098B498F13D57540498F13D5154021898B
:10258800498F139515004189498F139535001375A7
:102598000502498F13955500137505049E05498F4B
:1025A80093F5F50F4D8F2207D98FB387C70213060E
:1025B80050025285D685B697BD8E93940601C18088
:1025C80033F6C402137BF60F97C001E0E78000DA08
:1025D80005890DED8347D41001498149B3849702D9
:1025E800130C5002C1804A865285D68597C001E0F7
:1025F800E780C0D70589937BF90F11C5638634033B
:10260800850993F9F90F0509E31F89FD230B641167
:10261800B250225492540259F249624AD24A424B69
:10262800B24B224C456182805E8BCDB70111973742
:102638000000938727C922CC03A4C70A26CA06CE5E
:102648002AC42EC6854419E40145F2406244D244A6
:102658000561828003471400834791006304F700F3
:102668000044D5B719469305A10013052400EFF0DF
:102678006F9EE31795FE0545C9BF1737000013077E
:10268800E7B61443411122C69C5E4AC226C4998308
:10269800858B3A8417390000130909B5C9C39C5EB4
:1026A80097340000938404B793F7F7F99CDE9737C3
:1026B800000083C727B693F7070499CB9737000024
:1026C8009387079D9C4382979737000023ACA7B454
:1026D800854717370000A301F7B483C7440093F771
:1026E800070491EF97370000938787B49C43D84439
:1026F800F8D3930700FC17370000230FF7B083C700
:10270800640013070008631CF700832709009C4333
:102718009983858BADE397370000238007B01C4071
:10272800985F1183058B09CB985F3D9B98DF054720
:10273800973600002382E6AE985F1D83058B11CB88
:10274800985F1377F7F798DF854717370000230559
:10275800F7AC83270900D8430583058B19C7D843ED
:10276800759BD8C3D843799BD8C33244A244124935
:10277800410173002030930700FC17370000230E37
:10278800F7A871BF173700001307C7A883470700CA
:10279800858B89EB83471700858B89E7834747003B
:1027A800858BEDD7828017370000130727A41443C1
:1027B8009C5E9583858BE1E309C69C5ABD83230003
:1027C800F600C5CD83471500CDCB411106C6173697
:1027D8000000034686A49306000C6304D6029737CC
:1027E8000000938727A383C5670097370000938766
:1027F800E7859C5B1305300882970945B240410183
:1028080082803E9583479500854613F6F706630A4E
:10281800D60097370000938767839C5B9305D00F9A
:10282800D1BFE207E1870945E3CA07FC1C43985B6F
:10283800460793576701635D070293E707C013874D
:10284800970F420741839306201F0145E3E8E6FA04
:10285800171700001307A7E30317070009C7BA975C
:102868000947B3C7E702171700002312F7E279B741
:10287800C207C187E9B7054582801C43985B4607B4
:1028880093576701635D070293E707C01387970FA4
:10289800420741839306201F014563E1E6021717AB
:1028A80000001307C7DE0317070009C7BA970947CF
:1028B800B3C7E70217170000231BF7DC8280C207A3
:1028C800C187E9B749E5973700009387679694432E
:1028D800411122C406C62E873E84FC52FDFF3A856C
:1028E800B285972001E0E78080F59737000093874D
:1028F800E78F9C43B70680009843558F98C3D857F5
:10290800719BD8D71C40094798C3B7F700E003A7C5
:1029180007D16D9B23A8E7D003A707D15D9B23A808
:10292800E7D073005010173700001307A78E8347AE
:102938002700858B89EB83473700858B89E7834799
:102948004700858BEDD7B2402244410182808D47F4
:102958006310F50497370000938747899C43B706AF
:1029680080009843558F98C3D857719BD8D717378D
:1029780000001307278A83472700858BBDEF83470D
:102988003700858BBDEB83474700858BEDD7828069
:102998008547E31EF5FC97370000938767899443C2
:1029A80035673D07D8C60F1000001737000013071A
:1029B800E78314430946984231830D8B6313C7029A
:1029C80098439306E04374D3984389671CC79307D9
:1029D80000F8973600002381F684BD67BD075CC701
:1029E80079B79842944331830D8B09E7130760192F
:1029F800F8D2D9BF1307E01BE5BF82805D712AC6F4
:102A08002EC486C6972001E0E780A004972001E045
:102A1800E7800015972800009388487D83A7080061
:102A280017330000130303833706330023A407007A
:102A3800984B370EFCFF370F04001367F70398CB4A
:102A48009843914F7D1E1377F7E798C398438542C3
:102A5800930E80021377F7E71367071098C383264E
:102A6800030032459846518F98C617270000130770
:102A7800277C18439306900D014634CB1377F51F36
:102A8800E84FF576FD16137505E0598DE8CF9843A4
:102A9800758F98C3A245814703A708000328030040
:102AA8009376F60F231C0704231007060325C80294
:102AB80075992326A802032807001375F6071378CB
:102AC80008F83365A80008C348533365E50148D3BF
:102AD80003558705E3FEAFFE48533375C50148D358
:102AE80003570706280832951377F70F2300E500E8
:102AF80019EF13D736002E97034507009D8AB39622
:102B0800D2008507C98E93F7F70F2300D700050673
:102B1800E314D6F985461148854813038002636398
:102B2800F8040146814728083295034505001377C4
:102B3800F60F63E1A602135537002E95034E0500E4
:102B48001D8B3397E80085073367C70193F7F70FA5
:102B58002300E5000506E31866FC850693F6F60FE4
:102B6800E39F06FBB64061618280172700001307C8
:102B780067688346B7019727000083C7776CB697C5
:102B880093F7F70FFD4663EAF6044C4B97260000CF
:102B9800A382F6669727000083C7D76505473317D2
:102BA800F70097260000A38DF6686D8F1DEF972616
:102BB800000083C63669B3F6D702130500028147C1
:102BC80033D6F500058A13F8F70F09CE6399E600A6
:102BD80097270000A3800763828081177DB70507C8
:102BE8001377F70F8507E39DA7FC828097270000DE
:102BF8009387074A9C43011122CC4EC606CE26CAAB
:102C08004AC852C456C282979727000093878762A2
:102C1800804781496305A406BE84972700009387EF
:102C2800E742038747013E8963550706018D135420
:102C380055009727000083C7875D9379F501636D79
:102C4800F402370AC0A8B70A405705379C449726AC
:102C5800000083C6C65B139756003E978307490159
:102C6800158C63C5070063634701569797270000D3
:102C780023A6E75CE37BD4FC1604B3693401F24075
:102C880062444E85D2444249B249224A924A056179
:102C98008280E37D85F8B707C0A8338487402295F2
:102CA80079B7972700009387A73E9C43411122C418
:102CB80006C626C28297972700009387A7578047A2
:102CC8006309A406BE849727000093872738838763
:102CD800470163D80704018D135455009727000056
:102CE80083C7E7526367F40449359844972700007F
:102CF80083C7E7519396570036971D8C9726000097
:102D080023AEE652E372F4FE2244B2409244172501
:102D180000000345354E81454101173301E0670046
:102D2800A366E37A85FAB707C0A83384874022955B
:102D380065B7B2402244924441018280972700003F
:102D4800938747519843B75702009387079F832675
:102D58000709139656006358060083260709139639
:102D6800660063440600FD17FDF3828021670507AE
:102D7800AA876399E50017170000034727900145C4
:102D880065E782800145E5C7FDC18D07C207C1839C
:102D9800F19BC207C18313074003636FF70217272C
:102DA80000001307E7500843172700001307C74F11
:102DB80014436398A6021727000013072729185BF6
:102DC800014555C74111C20706C60545DD8D029765
:102DD800B240014541018280172700001307074DC3
:102DE800D9B7035765003DEF03574500636CF706F5
:102DF800B306F7402146172800001308A84B637A4A
:102E0800D6028328050003260800938687001D8FB5
:102E1800AA9661172392E60023A0160123930600C1
:102E280014C1130786FF2312F5009726000023A379
:102E3800E64821672313B5000507639BE5001717CC
:102E480000000347A7837D17971600002388E682B2
:102E5800832508002105B387F54017270000232B99
:102E6800F74482800841B1B7014585F382808280AA
:102E78000DC1972700009387A74303A3070097274F
:102E880000009387674283A8070001479A8763E396
:102E98001701828003A80700636DF50A636BA80A0F
:102EA80093868700E367D5FE03D66700A16685068B
:102EB800631BD6009706000083C6467C8506170666
:102EC8000000230DD67A972500009385A53E9441EE
:102ED80003D6470023930700B29617250000232B3B
:102EE800D53C638A6702172500001305253C084175
:102EF8006303F5020355670019ED83574700232044
:102F08000701A1063E9621069727000023A4D73A79
:102F18002312C700BA879843E30D17F797260000D6
:102F28009386C6389442E306D7F683566700B5F20F
:102F380083D64700035647001843A106B29698C3A4
:102F48002392D7009C41A107172700002324F736B6
:102F580082803E87C28725BF01119727000093878B
:102F6800673622CC03A4470B26CA4AC84EC606CEEB
:102F7800AA8413092500854915C083C7140003478F
:102F88003400858B6304F700405CFDB71946930550
:102F980044004A85EFE01F8CE31835FF2285F24094
:102FA8006244D2444249B24905618280411197275F
:102FB80000009387273122C403A4470B26C24AC0C6
:102FC80006C693042500054901E82285B24022443B
:102FD8009244024941018280A6851305A40297B054
:102FE80001E0E78000ECE30225FF405CF1BF4111FE
:102FF800972700009387072D22C403A4470B26C2F6
:103008004AC006C693042500054901E82285B24056
:1030180022449244024941018280A6851305A401F5
:1030280097B001E0E780E0E7E30225FF405CF1BFED
:103038000111972700009387E72822CC03A4470BA8
:1030480026CA4AC806CE2AC42EC6B284054919E043
:1030580001453DA003479100834734006318F702F8
:103068001946930544001305A100EFE0AFFE631F66
:103078002501A6851305A40297B001E0E78060E268
:10308800F2406244D244424905618280405CC1B743
:10309800971100209381817617510020130101F6C2
:1030A80017E5FFFF130505F69705002093850575BD
:1030B800172600201306867D63FAC50083220500C3
:1030C80023A0550011059105E3EAC5FE1705020086
:1030D8001305C5E6972500209385457B1736002004
:1030E8001306C6CD63FAC5008322050023A0550048
:1030F80011059105E3EAC5FE17350020130505CC37
:10310800975500209385C5AA6377B500232005004D
:103118001105E36DB5FEFD42739002BC8D427390BC
:103128004280B72200009382828873A002309702FF
:1031380000209382A26C93E232007390523097126F
:1031480000009382623D73901234730020303D4337
:103158002A876373C3029377F700BDEFADE59376D3
:1031680006FF3D8ABA960CC34CC30CC74CC741072F
:10317800E36BD7FE11E28280B306C3408A0697024A
:10318800000096966780A6002307B700A306B7003D
:103198002306B700A305B7002305B700A304B700AB
:1031A8002304B700A303B7002303B700A302B700A3
:1031B8002302B700A301B7002301B700A300B7009B
:1031C8002300B700828093F5F50F93968500D58D7F
:1031D80093960501D58D61B7939627009702000055
:1031E80096968682E78086FA9680C1171D8F3E964E
:1031F800E374C3F8A5B7B717004003C7770513777B
:10320800E70FA38BE704130700F8A38DE7043D47F6
:10321800238CE70413075003A38CE7048280411131
:103228002A83014E930E407E130F0019930F400618
:1032380063E46E0E9308001913034006B378150370
:10324800854E0D4FA14F337365020D891335150057
:1032580063EEBE0E1308F6FF7946729842081358BB
:1032680008013307C70213D61700BE073297614615
:10327800B3F6C60213068070B386C6023697A166F7
:10328800F58F42075D8FB716004083C7F60293F7A4
:103298000708A307F1000346F10083C7F60293F776
:1032A8000708E394C7FE8347F100B716004093F779
:1032B800F70FFDC7B7170040930670052380D704A2
:1032C800930680FA2380D7040100010023AA07038C
:1032D80083C6170311667D1693E60608A388D702EE
:1032E800D45BC85F93854703A98EF18EF5FA9306E0
:1032F80070052380D704930680FA2380D704010041
:10330800010098C103C7170313670704A388E702DE
:1033180023800704410182807D133368E303930807
:10332800E016630E08003368F3039308D0166308A9
:1033380008009378330093B818009388D816330898
:103348001E01131E0801135E0E01DDB56393E5032C
:103358000548638608000148630303002A8871084A
:103368007298FD15131E0801C205135E0E01C18176
:10337800C5B513F8150063F4BF007908D5B713383D
:103388001800E5BF83C7F60293F70708A307F10003
:103398000346F10083C7F60293F70708E394C7FED4
:1033A8008347F10093F7F70FF1DF29B7914763EEF1
:1033B800B70217F701001307E7F28A05BA959C418F
:1033C800BA978287B717004003A7470B1345F5FF45
:1033D800698F23AAE70A03A7070B698F23A8E70ABF
:1033E80003A7070A798D23A0A70A8280B717004090
:1033F80083A6470B1347F5FFF98E23AAD70A83A69E
:10340800070B558D23A8A70A83A6070A758F23A043
:10341800E70A8280B717004003A7470B498F23AA02
:10342800E70A03A7070B1345F5FF45BFB717004089
:1034380083A6470B1347F5FF758F23AAE70A03A74F
:10344800070A598D4DB7B717004003A7470B498F97
:10345800EDB7B717004003D5870042054181937740
:10346800050491EB9377F5013755E80113050580BD
:103478003345F50282809377050C130700046397A0
:10348800E7009377F50137459C1CCDB721651305F7
:1034980005D082804111814601468145114506C605
:1034A80097000020E780A06BB7170040130770054E
:1034B8002380E704130780FA2380E7040100010052
:1034C80003C76704136717002383E70423800704EF
:1034D800B2404101828037E700E01C435443A18396
:1034E800E206D58F1CC1FD572320F7182322F718B1
:1034F8008280B7F700E08847CC478280814737371A
:103508000040A14663C4C700328582800345B740A6
:10351800E38EA6FE3385F5000345050085072304E1
:10352800A740CDB7411122C406C62A841D372947B2
:10353800B307E502B2408D83B3D7870222449507CB
:10354800B3D7E70237370040C207C1832316F740D5
:1035580041018280716541111305052006C6D937DE
:10356800B7370040130770F82381E7400D47A38160
:10357800E74013070004A380E74005472387E74097
:10358800B24041018280411122C406C603C705002A
:10359800894705446311F704D84129448347170034
:1035A80003470700A207D98FC207C187130710EE88
:1035B8006393E702973700202383D780814793F6E8
:1035C800F60F973500209385E593139707014183FC
:1035D800636FD7020144172600200346467E1DC2AA
:1035E800972700209387C77D9C4389CFDC4399CBDD
:1035F80097350020938505910145829797270020EC
:10360800238F077A2285B240224441018280330702
:10361800F600034507003387F50085072300A70058
:103628006DB703C705008947631BF706D841834771
:10363800170003470700A207D98FC207C1871307DE
:1036480010EE639AE70432852390060017260020BF
:103658000346D67619E20145828041112390C600BF
:10366800973500209385C58806C697100020E78007
:10367800A09A97270020A383077497270020938791
:1036880027749C43014589C79C4399C38297014588
:10369800B240410182802390060029458280239010
:1036A800060005458280058909CD97260020938666
:1036B800E62141469145172500201305251D6F7009
:1036C800F0280145828019C59727002023AAA76EF4
:1036D800014582804545828051476364C702411194
:1036E800173500201305C58006C617270020A30735
:1036F800C76C97100020E7802092B2400145410135
:1037080082801305E00F8280CC41411106C63285C4
:1037180003C6150083C5050022064D8E42068D6539
:103728004186138875A2630006116348C80413888C
:1037380045A2630A060B634AC800938535A2630B4A
:10374800B60623900600294659A8138855A2630C8B
:10375800060B938565A2E316B6FEC1451D4663E0D8
:10376800E5084546198E63F3C7003E862390C600D8
:1037780097F50100938545B9A9A8138895A2630414
:10378800060F6342060D1388A5A2630E060F9385E4
:1037980005A5E318B6FA99451D4663E2E504198EB6
:1037A80063F3C7003E862390C600972500209385C3
:1037B800E55905A09D451D4663E3E5022146198E9E
:1037C80063F3C7003E862390C600972500209385A3
:1037D800655FBA9597100020E78000840146B240E3
:1037E800328541018280AD451D46E3EAE5FE31465A
:1037F800198E63F3C7003E862390C60097F5010033
:10380800938545B4F9B7B1451D46E3EAE5FC35466D
:10381800198E63F3C7003E862390C60097F5010012
:10382800938545B37DB7C1451D46E3EAE5FA4546AC
:10383800198E63F3C7003E862390C60097F50100F2
:103848009385C5AD79B7C1451D46E3EAE5F8454618
:10385800198E63F3C7003E862390C60097F50100D2
:10386800938545B0BDB7C1451D46E3EAE5F6454633
:10387800198E63F3C7003E862390C60097F50100B2
:10388800938505ABB9B7B5451D46E3EAE5F4394676
:10389800198E63F3C7003E862390C60097F5010092
:1038A800938585A53DB7972600209386A6164146A1
:1038B800CD45172500201305E5026F70300983C731
:1038C800850093F70702D9EF03CF050089482E88B2
:1038D8008547631C1F0383A845003283368E83C740
:1038E800180083C80800BA8EA207B3E71701C16899
:1038F800138F18FE638DE7018D18638A17010D6811
:1039080013082890638D0705A9473E858280AD4737
:10391800E39D0EFE0547B547E319EEFE8327C80071
:103928000347030009452380E7000327C8009727BA
:1039380000209387A7496313F700014597270020C4
:10394800938787499843814769D318435DDF4111BD
:1039580006C60297B24081473E854101828085476D
:103968006F50B040A14755B783C785002145C18B2B
:10397800C9E32D453DEF03C7050089476317F706DF
:10398800D8418347170003470700A207D98F41672B
:10399800130547FE638AA7006362F502FD07C207A5
:1039A800C1830547636FF70085472390F600DC4520
:1039B800014583C707002300F60082801517638638
:1039C800E7002390060029458280CC4595474111A0
:1039D80032852390F600154606C697000020E7803A
:1039E800A063B2400145410182802390060005454D
:1039F8008280828041677917630EE502411122C4F3
:103A080006C685472A84639CF50022852244B24075
:103A1800972500209385455041016F70407F894765
:103A28006396F5008545EF90703B65D1B24022441E
:103A3800410182808280411122C42A8441659725F0
:103A480000209385654D7D1506C6EF70407C1705EF
:103A58000000130565FA0588EF90D02F05C02244B1
:103A6800B240972600209386A60C4146C5451725E7
:103A780000201305E5FA41016F70406DB240224401
:103A880001454101828019C59727002023A6A73444
:103A98000145828045458280914763ECA70817F766
:103AA80001001307678D0A053A951C41BA9782876A
:103AB800854761456391F50883470600172700206D
:103AC8002306F73001458280854761456395F506F1
:103AD8008347060017270020A30AF72EE5B7854776
:103AE8006145639AF50483470600172700202300E1
:103AF800F72EC9BF85476145639FF50283470600D6
:103B080017270020A305F72C75BF954761456394D7
:103B1800F5024111B285172500201305652B1546BE
:103B280006C697000020E780204FB24001454101BA
:103B38008280094582808280914763E2A70617F751
:103B480001001307A7840A053A951C41BA97828792
:103B58009727002083C787272380F50001458280A7
:103B68009727002083C79726C5BF9727002083C7BC
:103B78000726DDB79727002083C77725F1BF4111B6
:103B88002E851546972500209385852406C697001F
:103B98000020E7806048B240014541018280094524
:103BA8008280411193962500AA852D4506C6970067
:103BB8000020E780C0FAB2400145410182804111EE
:103BC80022C426C24AC02A842E89B284AA859306B2
:103BD80000200146254506C697000020E78020F80A
:103BE800931629002686A285294597000020E7809C
:103BF80000F7B240224492440249014541018280C3
:103C0800011122CC06CE3714004026CA4AC84EC637
:103C180052C483447405034AB4058349840503499F
:103C28009405EFF04FDD8347A40593F4F40F137A5E
:103C3800FA0F93E71700230DF40493F9F90F13799A
:103C4800F90FB717004003C7A705058B6DFF03D50C
:103C5800C705A38D4705238C3705A38C2705A38BA0
:103C68009704F2406244D2444249B249224A05616B
:103C7800828041119397050122C406C6C1872E840C
:103C880063DD0700EF00D01719C1EF00D0102165E0
:103C9800218DB24022444101828093F7150013C55B
:103CA8001500E5FB9397250163D10702EF30311723
:103CB80037F60200130606E089651725002003453C
:103CC800E530EF00905A0965E1B793971501014572
:103CD800E3D107FC17E5010013050571EFD0814416
:103CE800130600649165172500200345252EEF0073
:103CF800D057116571BF1D71494697E5010093853D
:103D0800256A17F501001305A5D586CEA2CC970024
:103D18000020E780E03301E917E501001305856914
:103D2800EFD0414001A0B7F600E0795798CAFD5797
:103D3800DCCA0567B7E700E023A0E7101306F00226
:103D480090C223A0E718010001001306C0038145B3
:103D58004808EF00F02E972700209387272A3ECAAD
:103D6800896793870780231CF100ED47A301F102BF
:103D78003544930750108146014681452145231259
:103D8800F1022303810297000020E78040DDA1674C
:103D9800938707E03ECE970700009387C7E0BEC42D
:103DA800970700009387E7E1BEC6B7F5070097F7C6
:103DB800FFFF938747743EDA814697070000938791
:103DC80067E47000E10519453EDE2308810297008B
:103DD8000020E780C0D858088147994670003E9671
:103DE8000346060085070507A30AC700E398D7FE20
:103DF800D24791C70357810185676373F70001A014
:103E08004808EF10A00CAA8501C917E501001305A1
:103E1800A55BEFD0411F01A0F64066442561828072
:103E2800411117050000130505E506C622C4EF1069
:103E3800200617240020130464192300A40029284D
:103E4800034504002244B24037F60200130606E098
:103E5800896541016F007041411106C6B7170040DE
:103E6800130770052380E704130780FA2380E7040B
:103E780003C7F7021305407E814613677700A387BF
:103E8800E702238007040147814705468545EFF08F
:103E98000FB9B240014541016F10002F17E501002D
:103EA800130585576FD00128011106CE19C589471A
:103EB8006300F502F2400561828017E501001305F1
:103EC800E566EFD021269305F1000145B531DDB750
:103ED80017E5010013054567EFD0C1249305F100EC
:103EE8000945EDB77D15954763E8A70A17E701006F
:103EF8001307C74F0A053A951C41011122CC06CE7B
:103F080026CABA972E84828717E501001305055B38
:103F1800EFD04121A1A017E501001305255BCDBF16
:103F280083D4E50017E501001305455BEFD0811F39
:103F3800B14763F5970217E501001305255BEFD03C
:103F4800611E0355A4009727002083C7E7E11307E4
:103F5800803E814631469945EF80D138F24062442F
:103F6800D2440561828017E50100130525594DB734
:103F780085471306F100854513055030A307F10066
:103F8800EF80516F17E501001305C55851B717E5C4
:103F9800010013052559ADBF82807971170500000E
:103FA8001305851906D622D426D2EF00706E972401
:103FB8000020938464DB05442380A40030088545F1
:103FC80013055030230C8100EF80D16A172600209A
:103FD800130646BFFD4513057030EF80B1691726FB
:103FE80000201306A6D89D4513056030EF80916820
:103FF80017260020130686BBD5450145EF40D04063
:104008009305000A0D45EF2080479305000A1145E6
:10401800EF20E0463008914513057040A306810063
:10402800230781002308810002CCA3070100EF7059
:1040380091031306D100854513050040EF70B102C6
:104048001306E100854513051040EF70D1011306F2
:10405800F100854513052040EF70F10010088545F3
:1040680013055040EF7031007D55EF4090487D5565
:10407800EF700016EFF03F837D55753A7D55EFF0F0
:104088008FE289472307F1008D47A307F100B7376F
:104098003233938707133ECCB73736379387475366
:1040A8003ECE972700209387E7D0984383C74700E1
:1040B8001306D100854501453AC8230AF100A30635
:1040C8008100D93A1306E10085450545F13213060A
:1040D800F10085450945C9323008A1450D456D3ABD
:1040E8001008954511454D3A17250020130585C739
:1040F800593A17250020130565C6EFF0CFDC03C534
:1041080004008545EF00300FB250225492544561A7
:1041180082802E86AA8501456FF00FDC01112306E7
:10412800A1008945680006CEA3060100DD37F240EC
:104138000561828001119397050122CC06CE26CA1B
:104148004AC8C1872E8463D2070217250020034579
:10415800A5C17D2111C18121A1673D8C2285F24035
:104168006244D24442490561828093F715009DCB91
:10417800172600201306C6A297250020938545C759
:1041880017250020034545BEEF80711C1306803EAD
:10419800894517250020034525BDEF00100D134460
:1041A80014006DBF93F7250095C789451306803E17
:1041B80017250020034545BBEF00300B2C000D45AB
:1041C800A53A11E53000A1450D45EFF0FF8C1344E9
:1041D800240069B793F74500ADCF97240020938456
:1041E80024C0904017290020130949BF83270900DC
:1041F8009315C60017E5010013050523BE95EFC00A
:1042080091609C40832509008566B2070146BE95EA
:10421800054597000020E78080941375F50F09C5C0
:10422800F53D134444001DBF9C4085071727002017
:104238002328F7BA172700201307C7BA1843E3EF54
:10424800E7F017E501001305651FEFC0B16D0145E3
:10425800C1BF014421B71305E00FC9B5411122C4FC
:1042680091462A8417260020130646D89D652D45B9
:1042780006C697000020E780808E9306001001464E
:104288009D65254597000020E780608D1726002052
:104298001306C6D5230086002244B24091469D6588
:1042A80029454101170300206700638B01456FF022
:1042B8008FA279719727002083C7C7D106D693C7E5
:1042C80007081147636AF71E17E7010013078713EA
:1042D8008A07BA979C43BA97828717260020034615
:1042E80076CF9727002023A3C7B09725002083C542
:1042F80095CE9727002083C707CEA205DD8D9205AE
:10430800B7670300BE9517E5010013052514972725
:10431800002023ABB7ACEFC0114F9727002093873D
:10432800A7AC8C439726002083D646AC17260020DE
:10433800130686CA094597000020E7804082137556
:10434800F50FE93BB250456182809725002083C56F
:1043580095C89727002083C707C8A205DD8D920559
:10436800B7670300BE959727002023AFB7A6172687
:104378000020034676C69727002083C7E7C5220694
:104388005D8E17E501001305250E9727002023AB46
:10439800C7A49727002023A3B7A49727002023A109
:1043A80007A497270020238907A4EFC0D1459727A2
:1043B80000209387A7A29443B777030063E1F6022E
:1043C80097270020938707A29C43370710007D1783
:1043D800BA97B207B69737D706006375F700130583
:1043E800F00F85B79145172500200345E59721254E
:1043F80091BF172600200346F6BD9727002023A764
:10440800C79E9725002083C515BD9727002083C721
:1044180087BCA205DD8D9205B7670300BE9517E539
:104428000100130565069727002023AFB79AEFC050
:10443800913D972700209387679B944397270020F7
:104448009387879A8C43172600201306E6B80D45F4
:1044580097F0FF1FE780A0709727002083C7C799B0
:104468005D8D1375F50F972700202387A798D1BD79
:1044780017E5010013050503EFC0D14A053D0D45B9
:10448800F13B294597F0FF1FE780805DEFF08F80B3
:1044980055BD17E501001305A501EFC0B148B707E1
:1044A800600389073EC6D145C1476800231801004B
:1044B8002309F100B93979B5793B69B54111172557
:1044C8000020130525B106C697000020E780C0B478
:1044D800B2404101F9BB0111914670009D652D451F
:1044E80006CE97F0FF1FE78080678346C100054727
:1044F8009387F6FF93F7F70F6369F7009727002074
:10450800A389D786F2400561828097270020A3827D
:10451800E786CDBF41111305800406C697F0FF1F3B
:10452800E780203A371700408327870A8D4513050F
:10453800002093E707202324F70AEFE03FE7EFF096
:104548006F8117E501001305A551EFC0B13D814604
:1045580001468145214597F0FF1FE7804060A53F50
:10456800EFF06FF9EFF0DF8BEF80513E3D349700AD
:104578000020E78080C5E5BF23AC05FE1C4191E71C
:10458800010001000CC18280BA8703A787FF6DFF75
:1045980023ACB7FE82801DC18346E5FF1307F00FE9
:1045A8009147639EE600411106C697100020E780F8
:1045B800E00BB24081473E854101828095473E85A8
:1045C800828001E9014582800145B24022444101CF
:1045D8008280411122C42A84210542059305D00412
:1045E800418106C697100020E78000F871DDFD576D
:1045F80023200500231285002303F5002105F1B7C8
:10460800173700201307871F1C43411122C426C2F5
:104618004AC006C601440149BA8489E7A165E12573
:104628001DC401A803C7E7FF631AA7020DCCA16543
:10463800D9269840832784FF6319E402173700209E
:10464800232EF71AFD57232C04FE230FF4FE228590
:10465800B2402244924402494101828011E03E89DD
:1046680083A787FF5DBF3E84E5BF232CF9FED9BF32
:10467800B1CD411122C406C62A849737002083C7CA
:1046880037182E856375F400894763E8870021375A
:104698000D45B24022444101828083A785FF99E7F6
:1046A80003C7E5FF9307F00F6305F700ED351545E0
:1046B800CDB7238F85FE17350020130525146D3DD2
:1046C80022852244B240A165410135A61545828064
:1046D8009737002023A407128280973700209387FA
:1046E80027169C4399E33E85828003D727006316EB
:1046F800B70003C70700E308A7FEDC47E5B7B9CD55
:10470800011106CE22CC26CA8147C14633D7F540CF
:10471800058B21C31737002013078716120504439A
:104728003E950E05AA9405443314F4009C404204B7
:10473800418089C7C8402EC68297B24523A004008D
:1047480023A20400A18DF2406244D2442E85056163
:1047580082808507E39CD7FA0144EDB72E858280D5
:1047680041111397050122C406C626C24AC04187D3
:104778002E84635E0700693511C1313DA1673D8C08
:104788002285B24022449244024941018280EDD9F7
:10479800AA8701474146B356E440858A9DCA9736A1
:1047A80000209386E60D03A906009207BA978E07A4
:1047B8003E9985448327090003254900B394E40002
:1047C800C2048297C1802320090023220900258C76
:1047D80045BF0507E311C7FC8144D5BF97370020C3
:1047E800938747069C53411122C406C6171400201C
:1047F8001304445895CB82979717002023ACA756EB
:104808000840B74703009387D73F3305F502B7A79A
:104818002600938737ECB24022443E959717002034
:1048280023AAA7544101828097370020938747FD28
:1048380018409C4BBA9717170020232DF752C9B779
:1048480001C919C62A960505A30FB5FEE31DA6FEE4
:10485800828081473307F5000307070019E33E8587
:1048680082808507C5BF01112E8626CAAA84131522
:1048780006019305F004418122CC06CE32C697107A
:104888000020E78060CE2A8419C53246A68597F0B5
:10489800FF1FE78060782285F2406244D2440561B8
:1048A80082809307F6FFBE952A966313C50082801F
:1048B800FD1583C715000505A30FF5FEFDB7AA87EB
:1048C800014581CF09CE3E96850703C7F7FF6317D9
:1048D800B700E31BF6FE0545828082800145828091
:1048E8006309051097370020938707FA9C4379716D
:1048F80022D44AD04ECE52CC56CA5AC806D626D250
:104908005EC662C466C23A8B368A3284AE8AAA8987
:104918008297973700209387E7F2038747013E89FC
:10492800635707003305A440635B050001A0E37BE0
:10493800A4FEB707C0A8A2973385A740F5B7973755
:1049480000209387E7F39843BE8B8144C147139CAB
:104958003400B3068701944293FCF40FD1E6C16595
:10496800938505F0414597100020E780E0BF15E5E5
:104978008327090399EF0145B250225492540259F2
:10498800F249624AD24A424BB24B224C924C4561A0
:104998008280814511458297F9BF97370020938718
:1049A80027EA984315EF9737002023ABA7E82300A1
:1049B800050083A70B000547B314970023260500BD
:1049C80000C52311950023226501E29723A0370132
:1049D80023A25701E3010AFA23009A0169BF3E871F
:1049E8005C47F5FF48C7E1B78504E392F4F6214533
:1049F80061B7094582809737002083C777E06371E4
:104A0800F50217370020130767E3931715000843CB
:104A18003E9583570500DD8D2310B5000145828042
:104A28000D4582809737002083C797DD6373F502B1
:104A380017370020130787E093171500084393C51D
:104A4800F5FF3E9583570500FD8D2310B500014500
:104A580082800D45828097370020938727DE9C430C
:104A68000605AA9703D5070082809737002083C7D9
:104A780037D96364F5000145828097370020938712
:104A8800A7E09C43011122CC26CA4AC84EC652C48C
:104A980006CE3284AE89AA8482979737002083C7CE
:104AA800A7DB139A8701135A8A412A89635D0A0290
:104AB800930510273305B4023334B40215816E040C
:104AC800418D2A9963490A00B707C0A86365F900B0
:104AD800B70740573E99CE852685013105C5232461
:104AE80025010545A1A0858B89C751453305A40239
:104AF800C9BF654681461315940093557401EFC0EC
:104B0800A10BC1B793E504F0C205C18141459710D7
:104B18000020E78060A51DE197370020938787D2A2
:104B28009C5B81C7A685114582970145F240624486
:104B3800D2444249B249224A05618280973700200F
:104B4800938707D09C4385E79737002023AAA7CEF1
:104B58008547232605002324250123113501230039
:104B68009500A300F50023220500A5BFBA87D84702
:104B780075FFC8C7F1BF9307F00263EEA704973724
:104B880000209387E7CF9C4313173500BA979C43BF
:104B98000947B9C3011126CA9354450022CC2A8477
:104BA800268506CE2EC6453D9377F4003355F5404D
:104BB80005890947324611E90545B317F50093956C
:104BC8000701C181268555350147F2406244D24428
:104BD8003A850561828009473A85828051C9797191
:104BE80022D426D24AD04ECE52CC56CA5AC85EC615
:104BF80062C406D6B689B28A2E8A2A899304000826
:104C08004144173B0020130BABC7054C930B000323
:104C180083270B00A6979C43A1E79375F400B3156F
:104C2800BC00C2055686C181135544003D3D0DC9DF
:104C380083270B000145BE9423A0240123A244012D
:104C48006384090023808900B25022549254025987
:104C5800F249624AD24A424BB24B224C45618280A9
:104C680005041374F40FA104E31474FB2145E9BF90
:104C780009458280411122C426C24AC006C6AA84B8
:104C88002E893284DD33CA852685813C39C9973718
:104C9800002083C767BC139787016187AA84635381
:104CA8000702930710273305F4023334F402158101
:104CB8006E04418DC8C00145B24022449244024965
:104CC80041018280858B89C751453305A402DDB730
:104CD800654681461315940093557401EFB0D16D64
:104CE800D1BF2145D1BF411122C426C24AC006C640
:104CF800AA842E89EFF07F9E2A8419C1231105000A
:104D0800CA8526850533014511E01945B24022447C
:104D180092440249410182809307F00263E7A704A5
:104D2800411126C297340020938484B5984022C448
:104D38001314350022971C4306C609478DC3937781
:104D4800F5008545B395F500C205C1811181613F24
:104D58009C400147A29723A0070023A20700B24066
:104D6800224492443A854101828009473A858280EB
:104D7800411106C69737002023A6A7B00295B24076
:104D88009737002023A8A7A80145410182809547AD
:104D980063E9B7008A05973700209387A7A8BE95CF
:104DA80088C18280411106C622C426C2EF80C14351
:104DB80061468145173500201305C5A651341306F1
:104DC8000002814517350020130585A3953C9737C8
:104DD800002023A707A69737002023A507AA9737FF
:104DE800002083C7E7A713D527008D8B3E958D47F5
:104DF8003305F50217340020130484A0994793055E
:104E08001010973400209384A4A139051375F50F69
:104E18002301A4003305F5021305051897000020A7
:104E2800E78080749737002023ACA7A48347240029
:104E38001305051888C08A073E959737002023AFC9
:104E4800A79EEFF0FF8883471400944017060000E0
:104E58001306268B13972700369710C3138717005E
:104E68001377F70F0A073697170600001306868F81
:104E780010C313873700890793F7F70FA300E400DF
:104E8800B24022448A07B69790C392444101828077
:104E98009737002083C7D7961737002003476796B0
:104EA80063F3E702173700201307879718439386A1
:104EB800170017360020A305D69493962700369737
:104EC80008C33E8582809307F00FE5BF1C416387C6
:104ED800071441777D8FB706002089476311D714DF
:104EE80003574500630D0712411122C419462A844D
:104EF8009305F00F590506C6EFF07F9C05478D47CF
:104F08006309E5101306C003814517350020130512
:104F18006593EFF0FF921306C003A28517350020B2
:104F28001305459297F0FF1FE780000F1737002001
:104F380003570792973700209387C79019E71307FD
:104F48000020973600202395E69017370020034766
:104F5800479011E7054797360020238CE68E1737D0
:104F680000200347178F11E76D4797360020A3826B
:104F7800E68E173700200347E78D11E71547973668
:104F880000202389E68C173700200347B78C11E7E8
:104F9800054797360020A38FE68A17370020034776
:104FA800B78B19E703C7070197360020A386E68A5F
:104FB800173700200347278A11E73547973600201F
:104FC800238BE688173700200347A78919E71307BB
:104FD8008002973600202386E6881737002003478B
:104FE800978719E71307D00297360020A385E6862E
:104FF8000347D40111E7094797360020A382E686C4
:105008009C5791C7829797270020239EA77E593BDC
:105018008147B24022443E854101828089473E85CE
:105028008280411106C697F0FF1FE780E037973668
:10503800002083C66682858AB1C69307303333075A
:10504800F502B337F5023983CA07D98F172700202D
:105058001307077B584B01456303F7023385E74085
:10506800636BF70037653D0889C637856F081305F8
:105078000590198D3E9517270020232DF778B2400B
:1050880041018280E5473307F502B337F5022583EE
:10509800DE0765BF011122CC06CE2A842EC6EFF0AA
:1050A800EFF3B245F240818D33A5A5022295624403
:1050B8001375F50F05618280011122CC06CE2A8472
:1050C8002EC6EFF0AFF1B245F240818D33A5A502AF
:1050D800229562444205418105618280011122CCFA
:1050E80006CE2A842EC6EFF06FEFB245F240818DCE
:1050F80033B5A50222956244056182809727002076
:1051080083C787751397870161871545634C070027
:1051180013F73700014519E713F70707154519C3B2
:1051280013D547408280972700209387A771985707
:1051380039CB411122C426C206C6BE84029717275E
:1051480000200357476C2A8415CBBA876373A700DE
:10515800AA87C207C183BA866373E400A286C2061F
:10516800C182958F5147635BF700DC5491C38297E6
:10517800EF20E14A9727002023978768B24022440E
:105188009244410182808280972700209387876B11
:10519800D857011122CC06CE3E8401C72AC60297F1
:1051A800324519CD9727002023A0A76E17050000C8
:1051B800130565E7753EF24062440145056182804A
:1051C8008307440163D407029727002023A60764B6
:1051D800B7C700407D5723A4E72697F7FF1F93879B
:1051E8008719172700202321F76AC9B797F7FF1FE8
:1051F8009387871BFDB7011106CE2EC6EF80002CC2
:1052080001C9B245F2400355250005616FB0500849
:10521800F24049450561828097170020A38407C0A2
:1052280097170020238007C09717002023A007BEE8
:105238009717002023AE07BC9717002023AC07BCA4
:105248009717002023AA07BC9717002023AE07BA98
:105258009717002023A807BA972700209387076588
:105268003D462391C70271761307400B130606B813
:105278002391E7002392C70211671D469306000594
:105288009305000A1305007D2392E7002393C702C4
:1052980041470546130810F82395E7002396E700D1
:1052A8002399E700239AE700239BE700239CE70064
:1052B8002394E70223960703239007002393B7005C
:1052C8002394B7002397D7002398D700239DA700DE
:1052D800239E0700239F0700239007022395C702F8
:1052E800239707021308F007239807022392E7047D
:1052F8002393E704239FE7042390E7062391E70617
:105308002392E70623990703239AC702239BC70220
:10531800239C0702239D0702239E0702239F07025F
:10532800239007042391C7042394070423950704B3
:105338002396C7042397D7042398D7042399A7044F
:10534800239A0704239B0704239C0704239DD7045F
:10535800239ED7042393A7062394070623950706BD
:10536800239607062397B7062398B7067D572399F0
:105378000706239AE7068280011126CAAA842145D6
:1053880022CC06CE2E8432C636C43AC2EFF06FA3C2
:105398001DC9A24612473246930700FD2300F500B7
:1053A8009947A30095002301F5002303D500A30323
:1053B800E5002312C500AA8522856244F240D24442
:1053C80005616FF0EFAAF2406244D2440561828021
:1053D8009717002023ACA7A282809717002023A943
:1053E800A7A282809717002023A6A7A282809717DA
:1053F800002023A3A7A28280011122CC4AC806CE8E
:1054080026CA2A890144B30489006368B400F240BB
:105418006244D2444249056182802EC6EFF00FBC37
:1054280093170501C183A183B2452380F400930734
:10543800140093F7F70F850463F9B700CA970904B6
:105448002380A7001374F40F7DBF3E847DBFC1671E
:10545800172500200355E543FD176306F5024111A2
:105468001726002003464656971500209385059B6E
:1054780006C6EF70306DB240FD5717270020231A7B
:10548800F74041018280828009C925151375F50FFF
:105498001335850E13451500828001458280797188
:1054A80022D452CC06D626D24AD04ECE2A8A23807F
:1054B800050001442EC66371C406B387860003C97C
:1054C80007009304140093F4F40F63070904B30767
:1054D800990032C46342F604B387960083C9070073
:1054E80036C24E8555370DC9B2459307F9FF924626
:1054F8002380F5002246639D4901138514003695E3
:10550800B250225492540259F249624A456182804B
:105518004A941374F40F79BF0145DDB7411126C2CF
:10552800AE8422C49727002023ACC73697270020D3
:1055380023A6B7369727002023A0A7362A844146FA
:105548009305F00F26854AC006C60549EFF02FB728
:10555800631E25039727002093874733884BC1454F
:10556800613D41469305F00F2285EFF04FB5854424
:105578006316950222449727002093872731B2406B
:1055880092440249C847C1454101BDB541468145DC
:105598002685EFF0CFB2E31625FD6DBF4146814564
:1055A8002285EFF0CFB1E30795FCB2402244924444
:1055B800024941018280411122C426C22E84AA8454
:1055C800130600028145172500201305252C06C661
:1055D800EFF00FA797270020A38B972A9727002083
:1055E800A385873EEFB0404C854719C1814749459F
:1055F800B240224417270020230AF7289244410189
:105608008280814781CD19C98547631BF50083C70F
:10561800550093E707FCA382F50085473E85828005
:1056280089476317F50083C7550093F7F703E5B774
:105638000D478547E314E5FE03C755001377F703C5
:1056480013670704A382E500D1BF81478DC105C157
:1056580003C755009306000C85471377070C6308AA
:10566800D700930600048D476303D70089473E851A
:105678008280411122C4005D06C626C21DC8AA84C4
:10568800085009C597000020E78040FE485009C52A
:1056980097000020E78080FD085409C59700002086
:1056A800E780C0FC228597000020E78020FC23AC1F
:1056B8000402B240224492444101828019ED9727A6
:1056C800002083C7C71C172500201305A51D91CBF3
:1056D8001705002013058572828017250020130501
:1056E800651C8280172500200345651A828097274C
:1056F80000209387A719C84782809727002093879F
:10570800E718884B82809727002093872718DC4B5F
:10571800884382809727002093874717D84B1C43DC
:1057280085071CC317250020034575169307F00F3E
:105738006305F50091656FF00FAC8280011122CCF2
:1057480006CE2E8432C6EF70F0679147B2456311DA
:10575800F502970700209387276C9C439DC303A3FA
:1057680007006300030222856244F2400561028358
:10577800970700209387C7699C4381C703A3470005
:10578800CDB7F2406244054505618280011122CC03
:105798002A840355450006CE26CA4AC84EC6EF706D
:1057A800F04825CD2A89834405008349C500D135B1
:1057B8004A85EF80704003554400EF70305C9707CE
:1057C800002083C72766B1CF639D97049705002003
:1057D80083C555652685EFF01FA209E597070020C8
:1057E8002382076403554400EF70D05D9147631F1F
:1057F800F500035744009727002083D787096317CC
:10580800F700FD57172700202315F708F2406244D8
:10581800D2444249B2490561828081499304F00F1C
:1058280079BF9307F00FE38FF4FA834664000356B9
:105838004400034524004E87A6853D3E65B779712F
:105848005EC6AA8B2E8552CC56CA5AC806D622D412
:1058580026D24AD04ECEAE8A328B368AEF70103DB1
:105868006DC1045D2A89F1CC9C50614599C313052B
:1058780040039C5481C751054205418163050A00D4
:10588800710542054181DC5081C7590542054181B6
:10589800EFE03FD32A8455C561468145EFE05FFAC2
:1058A8009729002083C98903639409008349090063
:1058B800930700FD2300F400A947A3007401230106
:1058C800F400230364018C5023125401130584014E
:1058D80091C908C47146930A440397E0FF1FE78003
:1058E800A07356858C5491C948C45146930A450102
:1058F80097E0FF1FE78040725685630C0A0008C8CE
:105908007146D285930AC50197E0FF1FE780C070F2
:105918005685CC5099C548C8594697E0FF1FE7807F
:10592800A06FA2854E85EFE0BFD42254B2509254A6
:10593800F249624AD24A424BB24B4A850259456102
:105948000DBBB250225492540259F249624AD24ACB
:10595800424BB24B4561828001114EC6AA892E8501
:105968004AC806CE22CC26CA2E89EF70302C31C503
:105978009724002083C484F699E0834405001945E0
:10598800EFE03FC42A8415C981451946EFE05FEB73
:10599800930700FD2300F400B947A3003401230155
:1059A800F40023122401A2856244F2404249B2491C
:1059B8002685D24405616FE0BFCBF2406244D244F1
:1059C8004249B2490561828039715ECEAA8B2E8523
:1059D80026DA4ED652D456D25AD006DE22DC4AD81F
:1059E800AE84328BB68A3A8ABE8942C6EF701024DA
:1059F80031C92A894145EFE0DFBC2A8421C54146E7
:105A08008145EFE0FFE317250020034525ED19E167
:105A180003450900930700FD2300F400BD47230157
:105A2800F400B247A3007401231294002304640114
:105A3800A304540123054401A30534015CC4A285D1
:105A4800EFE01FC3F2506254D2544259B259225A5D
:105A5800925A025BF24B21618280797126D2AA8424
:105A680039454AD04ECE06D622D42EC6B2893689BA
:105A7800EFE03FB521C1B2459307000D2310F500B3
:105A8800B1472A842312B5002301F500CE851905F4
:105A9800194697E0FF1FE780205823062401A285B6
:105AA8002254B2500259F24913F5F40F9254456149
:105AB8006FE01FBCB250225492540259F24945611A
:105AC800828017270020034797DC9307F00F630DA8
:105AD800F706411126C2AA84394522C406C64AC01F
:105AE800EFE03FAE2A8439C9930700FD2300F50093
:105AF800A30095002301050097250020938585DAEA
:105B08000D05194697E0FF1FE7800051172900206F
:105B18001309C9D783578900A28517250020034593
:105B280015D72315F400834719002306F4002244EF
:105B3800B2409244024941016FE09FB3B24022440F
:105B48009244024941018280828001115AC02A8B05
:105B580031454AC84EC652C456C206CE22CC26CAC1
:105B68002E89B28A368ABA89EFE0BFA549C52A8448
:105B78004A85EF70B00B3DC90347C500A1476314C0
:105B8800F7049704002083C42420930700FD230012
:105B9800F4009D47A30064012301F40023122401AB
:105BA800231354012314440123153401A2856244AC
:105BB800F2404249B249224A924A024B2685D244CF
:105BC80005616FE0FFAA9704002083C4F41BE31E5D
:105BD8000BFA970700209387E72E9C439C47D5D75D
:105BE800CE865286D6854A85829745B79724002067
:105BF80083C4F4C959BFF2406244D2444249B2490D
:105C0800224A924A024B05618280011152C42A8AB3
:105C1800214526CA4AC84EC606CE22CCAE84B289D1
:105C28003689EFE01F9A25C12A842685EF70100077
:105C380031C50347C500A147631DF70203450500A9
:105C4800930700FD2300F400C5472301F400A301D6
:105C5800440123033401A303240123129400A285E1
:105C68006244F240D2444249B249224A05616FE097
:105C78003FA01705002003453511D9B71725002087
:105C88000345F5C075BFF2406244D2444249B24967
:105C9800224A05618280397162CC2A8C594526DAFC
:105CA8004AD84ED652D456D25AD05ECE06DE22DC20
:105CB800AE8432C636C4BA8B3E8BC28A468A8359B2
:105CC800010403494104EFE0DF8F35C532469307ED
:105CD80000FDA2462300F5009547A301C500A300D7
:105CE80085012301F5002A8419461105A9C2B68544
:105CF80097E0FF1FE780403223066401230A24014E
:105D0800231574012317540123184401231934015E
:105D1800A2856254F2504259B259225A925A025BF1
:105D2800F24B624C2685D25421616FE07F94814505
:105D3800EFE01FB1D1B7F2506254D2544259B25970
:105D4800225A925A025BF24B624C21618280972759
:105D5800002083C7C7B39DCF4111AA8519461705EF
:105D680000201305A50906C697E0FF1FE780C02A93
:105D7800970500209385850817250020034525B140
:105D8800EFF03F88B24017050020130525074101B1
:105D98006FA0105201458280411106C622C426C256
:105DA800172700200347B7AE9307F00F630AF704DD
:105DB800AA842945EFE0FF802A8439C1930700FDB2
:105DC8002300F500A1472301F500A30095009727BC
:105DD80000209387A7AB83C72700970500209385EA
:105DE800E5011105A30FF5FE194697E0FF1FE780AF
:105DF800A022A28517250020034575A9EFE05F873B
:105E0800172700200347C7A885476319F702970794
:105E18000020938727009C4381C79C4791C38297A2
:105E28002244B24092445D66172500200345C5B957
:105E380013060670914541016FE0DFE3B24022444A
:105E4800924441018280797122D406D626D24AD062
:105E58004ECE52CC094445CD2A89035505002E8AD9
:105E68005144EF70A05CAA845DC19727002083C7C6
:105E7800D7B5FD1793F7F70F054749446379F70836
:105E88000347C500A1476314F70063120A089C5C26
:105E98004544B5EF9165938545711305C00297F0A8
:105EA800FF1FE780606C88DCAA894D442DC113066A
:105EB800C0028145EFE0DF988357090093864900C7
:105EC80036852391F90071469305490036C697E057
:105ED800FF1FE780601489472380F90003C5C400C9
:105EE800B2460356090061159725002083C5C5AD44
:105EF80013351500EF90106D2A8463060A00D285C9
:105F08002685EF80C07701C42685EFF08FF62285BD
:105F1800B250225492540259F249624A4561828031
:105F28009727002083C777AAFD1793F7F70F054730
:105F38006378F708894751C6011122CC26CA4AC896
:105F48004EC652C406CEAA89368AB2842E89EF700C
:105F5800E04D2A84D14729C9485509C597F0FF1F44
:105F6800E780C070F1452685EFE0FF8F48D4CD4724
:105F780005CD8346C40021478147639FE600630D32
:105F88000A000347A5010356050193062501AA85C2
:105F98004E85EF70F063AA8703474400630F09003A
:105FA800136767002302E400F2406244D244424986
:105FB800B249224A3E850561828013674700DDB7F2
:105FC800C9473E8582809307900363EBA700972714
:105FD80000209387A78D06053E950355050082800E
:105FE80041657D158280011122CC2A842E8526CA1E
:105FF80006CEAE84EF7080430DCDB7470F00938770
:10600800F723094563E2870281450A854146EFE0A7
:106018003F83A685231081000A85418023018100E2
:10602800A3010100EF90303BF2406244D244056185
:1060380082804945D5BF97270020A387A7988280EB
:106048006F905050797152CC2A8A328522D426D248
:106058004AD04ECE56CA5AC85EC606D662C4AE8B61
:10606800B28A368BBA843E89C2894684EF70003C76
:1060780015C92A8C63140A0213774B00834745001D
:1060880015CF93E727012302FC008DEC631C09025E
:10609800639A090205E8ED9B2302FC00832B8C031D
:1060A800639F0B06B250225492540259F249624A35
:1060B800D24A424BB24B224C45618280F59B93E712
:1060C8000701D1B793E747002302FC0001CC1C4825
:1060D8004146A2852324FC0213058C0197E0FF1F8B
:1060E800E78080F363910B02D5D80325CC0209C55C
:1060F80097F0FF1FE7808057F1452685EFE0AFF660
:106108002326AC0261BFE30B09F80325CC0209C5BD
:1061180097F0FF1FE7808055F1454A85C5B79DC4B4
:1061280083A70B0299EB916593853571714597F0BB
:10613800FF1FE780604323A0AB0203A50B0219C52C
:106148007146A68597E0FF1FE78000ED6388090286
:1061580083A74B0299EB916593852571594597F073
:10616800FF1FE780604023A2AB0203A54B0219C5BD
:106178005946CE8597E0FF1FE78000EA1DC483A734
:106188008B0299EB916593851571514597F0FF1F27
:10619800E780803D23A4AB0203A58B0219C55146B5
:1061A800A28597E0FF1FE78020E72254B25092545F
:1061B800F249B24B224CCA865A860259424BD685BE
:1061C8005285D24A624A45616FF06FE7011126CACB
:1061D80052C406CE22CC4AC84EC62A8AAE84EF7074
:1061E800E02425C5AA893945EFE0AFBD2A8431CD21
:1061F800171900200349896E6314090003C90900AF
:106208009307000D2310F400AD472301F400938594
:10621800690013053400194697E0FF1FE780C0DFC7
:1062280093F71400858085882306F400A30694005C
:1062380023154401A2856244F240D244B249224A5D
:106248004A85424905616FE0AFC2F2406244D244D8
:106258004249B249224A0561828097070020938704
:1062680067BA884311CD411106C697F0FF1FE78032
:10627800E03FB2409707002023A607B8410182807B
:106288008280011106CE22CC26CA4AC82EC6EF70DB
:10629800E01939CDB2451719002003492964AA84A9
:1062A8000CD563140900034905004145EFE06FB1BF
:1062B8002A841DCD9307000D2310F500A54723015F
:1062C800F50083C75400938564001105A30FF5FEFC
:1062D800194697E0FF1FE78020D49C54A285F2401E
:1062E8005CC46244D2444A85424905616FE04FB8B4
:1062F800F2406244D244424905618280797122D4D5
:1063080006D62A842EC6EF7060120DCD8346C500CE
:106318001147AA8749456393E6029C5FB24599C332
:1063280083C567010808EF80C03E979600009386F2
:10633800C6C5100889452285EF70D02EB250225468
:10634800456182805145DDBF9717002083C7F767F5
:10635800FD1793F7F70F0547637AF704894721CAB2
:10636800411122C426C24AC006C6B2842E89EF70E3
:10637800E00B2A84D14705C5630809008347450017
:1063880093E727002302F5004146A68513058401FB
:1063980097E0FF1FE78040C89C481CD48147B24063
:1063A8002244924402493E8541018280C9473E8584
:1063B8008280797122D406D62A842EC6EF7000070F
:1063C80001CDB2452285230EB1006C08EF80A027CD
:1063D800B2502254456182805145DDBF6F708013F1
:1063E800C1671387E7FF6396E50297070020938745
:1063F80027A29C4391EB494582804945B2402244FB
:10640800924402494101828003A30700E30503FE89
:106418000283411122C426C24AC006C6FD172A8932
:106428002E84B284639BF502970700209387479ECA
:106438009C4391CF9C4381CF829711E99707002015
:106448002382279F97070020A38E979C45BFA68588
:106458004A85EFE05FDA5DF1D5B72E85EF60107DF4
:1064680049DD834705000D45E39A27F92285224433
:10647800B2400249A685924441016FA0606193072A
:10648800900363E8A70441677D1789476384E5049F
:10649800411122C426C206C6C547AE842A84631A9F
:1064A800F5001305C0033385A50242054181EFA01D
:1064B800A06413151400171400201304243F229518
:1064C800B240224423109500814792443E85410101
:1064D800828089473E858280011106CE2AC6EFE078
:1064E800BFD3EF10305BEF10802DEF60817E324517
:1064F8009717002093878739130700F02391E70047
:10650800238207007D57971700209387E74BA380C6
:10651800E7002380A700F240954505616F50D0023F
:106528001D7193970501CAC886CEA2CCA6CACEC64D
:10653800D2C4D6C2DAC05EDE62DC66DA6AD86ED64B
:10654800C1872E8963DC075C171500200345C54702
:10655800EFE00F8B8964416A856A797B2A84938B83
:10656800D4007D1AA50A130CABFF1DE02165334545
:10657800A900F6406644D6444649B649264A964A92
:10658800064BF25B625CD25C425DB25D2561828043
:10659800834704001307200A639DE700035524007E
:1065A8009719002083C9B92E2286D285EFF00F995A
:1065B80079A2130710099719002083C9F940639C31
:1065C800E7188347140015476390E7022285EFF028
:1065D800EF9B2285EFD03FFC171500200345C53EF1
:1065E800EFE00F822A8451B739476391E71A0355C0
:1065F8004400631B55050C4483CC0500639D0C00C7
:10660800850591C91946171500201305A52997E096
:10661800FF1FE78060A0171700200347272785473B
:10662800631BF712638A0C00971700202380072644
:106638006685EFF00FC971BF894717170020230738
:10664800F724EFA0A04671B793872400631AF506D4
:10665800832C840063810C1083C70C008DE383C7EF
:106668002C0003C71C00A207D98F1717002023137B
:10667800F72283C73C0017170020A309F720171734
:1066880000200347A72089476317F70C83C70C002E
:1066980081CB97170020238B071E03C50C0051BF21
:1066A8008D479715002083C5751E171500200355C3
:1066B800651E17170020230BF71CEF50E06BF1BF86
:1066C800938754006318F5001C4403C50700EFF0D6
:1066D800AFEC01B7B3078501C207C18311476374E3
:1066E800F7049307ABFCAA97139707014183F14777
:1066F80063F3E7029387B4006316F50497F7FF1F67
:106708009387C7709C43E38607EC9C43A285E3828A
:1067180007EC82972DA0B70700189387F770B3D7B7
:10672800E700858BB9CF97F7FF1F9387A76E9C4328
:10673800E38107EA9C43E38E07E822858297E31A00
:1067480005E811A89387C4006310F5021C4483C7A9
:106758000700E38007E89307F00FE38CF9E6A285CA
:106768004E85EFD0FFF08DBD9387E400631BF500E5
:1067780097F7FF1F9387C7699C43E38C07E4DC43C3
:1067880071B793871404E30BF5F6F1B73D47639BA4
:10679800E70403554400E30D75FD93879401E3096D
:1067A800F5FC93873401E318F5FA9717002083D78F
:1067B800470E6390470397F7FF1F938767659C43CE
:1067C800E38907E0DC43E38607E0A285138534010B
:1067D80089B797F7FF1F938727649C43E38B07DEEE
:1067E8009C43D5B71307E003E397E7F683472400F4
:1067F80005476393E7108347640097FDFF1F938D58
:106808006D60F1EB83A70D00F1C383CC0700A149AC
:1068180003457400130D8400EA85EFE01FE3834706
:106828004401A303A400835804010358E400035758
:1068380044002A86034534003EC283572401EA8671
:10684800E6853EC0CE87EFF00FC58347340095E755
:10685800DD47835804010358E400834674008355D8
:1068680044003EC2835724013EC06A87CE8705464E
:106878006685EF60306CA301A40083A70D0081C773
:106888001145EFF09F9D17F5FF1F0345A559E3023A
:1068980005D497F5FF1F83C5F558EFE0DF95E30AA8
:1068A80005D28346340093071003638CF600035621
:1068B80044004E8797F5FF1F83C5C5563685EFE020
:1068C800BFAB97F7FF1F238F075421B3971C0020F6
:1068D80083CCFCFB2DBF97F7FF1F9387A7539C43DF
:1068E800971C002083CCBCFA91499DD3DC438DD3FF
:1068F80081450145829729BF29476392E70A834763
:10690800640097FDFF1F938DED4FADEB83A70D003E
:10691800ADC383CC0700A14903457400130D44019E
:10692800EA85EFE09FD283470402A303A4008358BB
:10693800C4010358A401035744002A8603453400C0
:106948003EC28357E401EA86E6853EC0CE87EFF073
:106958008FB48347340095F3DD478358C401035847
:10696800A40183467400835544003EC28357E40162
:10697800E5BD971C002083CC9CF171BF97F7FF1FE2
:10698800938747499C43971C002083CC5CF091492E
:10699800C1D7DC43D1D3814501458297B5BF0947AB
:1069A800639FE70097F7FF1F938747469C43E3825F
:1069B80007C2DC43E38F07C02285829719B92D47A8
:1069C800639BE70097F7FF1F938747449C43E38245
:1069D80007C09C47C5B70D476397E70022868D45DA
:1069E80003554400E1B619476395E706930561012D
:1069F80013051031EF6041352C0813052031EF6085
:106A0800A13403566400835781010355440063E8A9
:106A1800C700835684000357610163F7E6009305B6
:106A28000002EFA0600C75B66374E6002313E4005F
:106A380063F4D7002314F4000357C4008356A4005A
:106A4800035684008355640001488147EFA08009FC
:106A580049B61D476392E70203574400E3EDE7CECA
:106A680097170020938787F106073E97835764009E
:106A7800F1172310F700C5B131476395E700228667
:106A8800B145B9BF3547639BE70097F7FF1F938769
:106A9800E7379C43E38F07B2DC4729BF3947639543
:106AA800E7002285C52335B63D47639BE70097F786
:106AB800FF1F9387A7359C43E38D07B09C4BDDBD33
:106AC80041476395E7002285212D21B64547639606
