:040000006F00905DA0
:10000400000000000000000090000020BA0800205A
:10001400A9BDF9F5900000200000000000000000D8
:10002400900000209000002000000000000000006C
:10003400900000200000000090000020000000005C
:1000440090000020900000209000002090000020EC
:1000540090000020900000209000002090000020DC
:1000640090000020900000209000002090000020CC
:1000740090000020900000209200002090000020BA
:1000840090000020900000209000002090000020AC
:1000940001A0411122C626C44AC2971000E0E7809D
:1000A400A05C9317F5002A849374054063D0072657
:1000B4009377150099C703C5C181971000E0E780C5
:1000C400A03E9317D40063DE070EB707040093879E
:1000D4006708E18F95CB83C7918103C7A18163F73B
:1000E400E7089387918183C7070093F7F70F138776
:1000F4001700A38CE18013878183BA9703C5070097
:10010400971000E0E780403A9DC0370500101305C2
:100114000540971000E0E780205A8D47A38BF180BB
:10012400054523800182971000E0E780C031937772
:10013400041099CF13050010971000E0E780C05712
:100144000545971000E0E78000309547A38BF180C8
:10015400937704206381072213050020971000E0A1
:10016400E78080559147A38BF18031A483C7B18187
:1001740089CB054523800182971000E0E780A02CFD
:1001840061B78547814513050040238CF1809710A2
:1001940000E0E780802F814513050020971000E0E0
:1001A400E780A02E814513050010971000E0E7803A
:1001B400C02D0545971000E0E780C026238001820A
:1001C400A1B79377240089CB83C7A181E1C30545F7
:1001D400971000E0E7804029937704049DCB03C97E
:1001E400918193071900A38CF180971000E0E780B8
:1001F400402C93878183CA972380A70003C7A181DA
:1002040083C7918163FDE7080545971000E0E78007
:10021400A025E38E04F03705001013050540971060
:1002240000E0E780604983C4918193871400A38C24
:10023400F180971000E0E780C02793878183A69719
:100244002380A70083C7B181E39C07EC85478145E0
:1002540013050040238CF180971000E0E780E02232
:10026400814513050020971000E0E78000228145B6
:1002740013050010971000E0E78020210545971032
:1002840000E0E780201A2380018255B501459710CC
:1002940000E0E780601D8547A380F18235BF0145FA
:1002A400971000E0E780401C83C71182A1CFA38090
:1002B400018283C7B18189CB0545971000E0E780AF
:1002C400801823800182B1B785478145130500401A
:1002D400238CF180971000E0E780201B81451305F3
:1002E4000020971000E0E780401A814513050010B4
:1002F400971000E0E78060190545971000E0E7805B
:100304006012C1B78547A380F18221B79377250096
:100314008DCBB707040093870708E98FE1C791479E
:100324002380F182238F0180A38F018093874182F0
:100334009C4381CB9C4391C79385F181138581872D
:1003440082979317D40063D5070E0545971000E0F4
:10035400E7808011D1CC37050010130505409710B4
:1003640000E0E78060350545971000E0E780C00FA6
:10037400014423800182056513050580B377A40039
:1003840081CB971000E0E78020339947A38BF1805D
:100394009317340163DA07000565971000E0E780DE
:1003A400A0319D47A38BF1809317140163DA0700F2
:1003B4001165971000E0E7802030A147A38BF180FE
:1003C4009317040163DA07002165971000E0E780C2
:1003D400A02EA547A38BF1803244A24412494101C7
:1003E400730020308D472380F182A38E018091BF5A
:1003F40093774408E38D07D283C7E18103C7F18172
:100404001305F00F63F1E7029387E18183C70700C7
:1004140093F7F70F13871700238FE18013878187E2
:10042400BA9703C50700971000E0E780E00701B31F
:10043400937704049DCF03C7D181FD47014563E64B
:10044400E7029387D18103C907001379F90F930752
:100454001900A38EF180971000E0E7808005938750
:1004640081853E992300A9000545971000E0E780A7
:10047400A0FF9377040195C737570040835707803F
:1004840093E717002310F780938741829C4381CB25
:10049400DC4391C783C5D181138581858297A38E5F
:1004A4000180E38604C83705001013050540971042
:1004B40000E0E78060200545971000E0E780C0FA7F
:1004C400BDB173270080218B9387818209CB732769
:1004D400008023A4E18298435D9B73100780010090
:1004E400010037170040930670052300D7049306D4
:1004F40080FA2300D704010001008346B70493F671
:10050400F60DA305D7042300070473260080944343
:10051400A18AD18E7390068023A401820100010078
:1005240093760502638406180347A700118B25E719
:1005340073270080218B09CB7327008023A4E182D9
:1005440098435D9B7310078001000100371700403A
:10055400930670052300D704930680FA2300D7047A
:10056400010001008346A70093E646002305D70057
:1005740023000704F32600809843218B558F7310C2
:10058400078023A40182010001001307004B01002E
:1005940001007D176DFF73270080218B09CB732722
:1005A400008023A4E18298435D9B731007800100BF
:1005B400010037170040930670052300D704930603
:1005C40080FA2300D704010001007D892314A700C9
:1005D400010001000100010023000704F32600804C
:1005E4009843218B558F7310078023A40182010047
:1005F400010073270080218B09CB7327008023A47B
:10060400E18298435D9B7310078001000100371756
:100614000040930670052300D704930680FA230054
:10062400D7040100010001000100B72600401306B1
:100634001005A383C68023000704F3260080984393
:10064400218B558F7310078023A4018201000100C0
:1006540073270080218B09CB7327008023A4E182B8
:1006640098435D9B73100780010001003717004019
:10067400930670052300D704930680FA2300D70459
:10068400010001008346B70493E60608A305D704D6
:1006940023000704732700809C43A18BD98F739098
:1006A400078023A40182010001008280937605045F
:1006B400638B06140347A700418B25E7732700804B
:1006C400218B09CB7327008023A4E18298435D9B8F
:1006D400731007800100010037170040930670056E
:1006E4002300D704930680FA2300D70401000100F5
:1006F4008346A70093E606012305D70023000704D9
:10070400F32600809843218B558F7310078023A410
:100714000182010001001307007D010001007D1723
:100724006DFF73270080218B09CB7327008023A4DE
:10073400E18298435D9B7310078001000100371725
:100744000040930670052300D704930680FA230023
:10075400D704010001009376F50193E606042314FF
:10076400D700010001000100010023000704F32663
:1007740000809843218B558F7310078023A4018236
:1007840001000100130760046310E504732700806F
:10079400218B09CB7327008023A4E18298435D9BBE
:1007A400731007800100010037170040930670059D
:1007B4002300D704930680FA2300D7040100010024
:1007C400B72600400946B5B573270080218B09CBB5
:1007D4007327008023A4E18298435D9B73100780F4
:1007E4000100010037170040930670052300D70469
:1007F400930680FA2300D70401000100B7260040C5
:10080400130620053DB573270080218B09CB732780
:10081400008023A4E18298435D9B7310078001004C
:10082400010037170040930670052300D704930690
:1008340080FA2300D704010001008356870093E661
:10084400060C2314D700C5BB4111814601468145DE
:10085400114506C6192CF3270080A18B938681824B
:1008640089CBF327008023A4F1829C42DD9B739003
:10087400078001000100B7170040130770052380AB
:10088400E704130780FA2380E7040100010003C78B
:100894006704136717002383E7042380070473277F
:1008A40000809C42A18BD98F7390078023A401827E
:1008B40001000100B2404101828081460146814528
:1008C40011456522F3270080A18B1387818289CB90
:1008D400F327008023A4F1821C43DD9B73900780DF
:1008E40001000100B7170040930670052380D70468
:1008F400930680FA2380D70401000100FD56239655
:10090400D70223800704F32600801C43A18BD58FD4
:100914007390078023A4018201000100F327008063
:10092400A18B89CBF327008023A4F1821C43DD9B98
:100934007390078001000100B7170040930670050B
:100944002380D704930680FA2380D7040100010092
:1009540083C6670493E616002383D7042380070421
:10096400F32600801C43A18BD58F7390078023A4AA
:1009740001820100010001A0BD473305F502010019
:100984007D1575FD8280411122C426C206C6AA8443
:10099400014463179400B24022449244410182808E
:1009A40005041305803E4204C13F4180DDB72303A3
:1009B400048015472303E48001002302A48082807D
:1009C40083076480E3CE07FE2303048082808307C9
:1009D4006480E3CE07FE03454480828083076480FD
:1009E400E3CE07FE2302A4808280411126C44AC2BA
:1009F4004EC006C61377F50BAD47AA892E899544D8
:100A04006306F70019456537653F8D444E854537C4
:100A1400FD59FD1463983401B240A244124982493D
:100A240041018280135509011375F50F453F2209D1
:100A3400CDB7011126CC06CEB704080051371545B1
:100A4400BD37713769372AC6A53F324593771500FC
:100A540089EB136515001375F50FF240E244056147
:100A64008280FD14E9FC0145CDBF397126DC4ADAE8
:100A74004ED852D656D45AD25ED006DE62CE66CC5A
:100A8400B7E700E07D5783AA070022C603AA470000
:100A940023A0E71823A2E718B7170040130770052F
:100AA4002380E704130780FA2380E70483C74704FD
:100AB400930B75FFB684E20793FBFB0F8546AA8967
:100AC4002E8B328937240040E187015763FA76017F
:100AD4006308D5008946130700026313D500015744
:100AE400D98F93F7F70FB71C00402382FC041147FA
:100AF4002303E4801305F00F5D3D094CD135636D8C
:100B04007C11B7050700DA9537870700795563F23A
:100B1400E504B3879500636EF702370B0800A94715
:100B240033EB65016399F90689E48144513D2685D7
:100B34000DA0DA850945553D05090345F9FFFD1466
:100B4400050B693D81C49377FB0FFDF7DD3569FD26
:100B54007D55B7170040130770052380E70413077A
:100B640080FA2380E70403C74704418B2382E70408
:100B7400F250B7E700E023A0571123A24711E25433
:100B840032445259C259325AA25A125B825B724C95
:100B9400E24C21618280A5476395F90685691309B2
:100BA400F00FB3069900B3742B01B6941349F9FFFF
:100BB400B3749900856B33796901416B9387F9FFAD
:100BC400B3F7270199E363FC340193D94900C14782
:100BD400E3E637FF99BF0569C1697D19D9B71305E4
:100BE400800D63886901130500026384790113058C
:100BF4001008CA85DD3B353D21DD4E99B38434416F
:100C0400D9B7DA852D45D533CA94E30099F205099D
:100C14007D3BA30FA9FED5BF9387F9FF93F7F70F89
:100C24006361FC0C83C71C0413073008631FF704BB
:100C340037070800636BEB04B3079B00B70610008B
:100C440063F5D704334BEB0089476393F906898036
:100C5400D549E38C04ECDA850945413B11090327A6
:100C6400C9FF91472320E48003076480E34E07FE15
:100C740023033481FD17EDFBFD14110B81C493771D
:100C8400FB0FE9FF7D3371F5E1B5B717004003C7EA
:100C94005704B70708001377070219E3B78707005B
:100CA4007955E378FBEA33079B00E3FFE7F855B592
:100CB4008547E382F9F2DA852D45053B9389F4FFF4
:100CC400E38504E6293393F7390091EB8326048006
:100CD4000327090093074900E39AE6E43E89CE849A
:100CE400F1BFB5476396F9001305900BC93135BDC3
:100CF400B1471305B00AE38BF9FE99476391F904F0
:100D0400B7050800B365BB002D45C53181448D4B43
:100D1400A149753963967401832704802320F9005F
:100D24008504E39834FF8327048013172B0163554C
:100D340007002312F900D5BB2322F900FDB39D4718
:100D44006399F90281451305B0044531BD4423205C
:100D5400090023220900FD599D3993F77400CA97AD
:100D640003C70700FD14398D2380A700E39634FFE1
:100D74006DBBA1476392F9046D398144630D0B0087
:100D84008D479304C0036308FB00930400056304C8
:100D94008B01930440041375C507E30895D81945DE
:100DA400393139390545213126850D3909453D311A
:100DB4004931E31C05D669BB91476399F9001305D2
:100DC4006006F536F53E130590090DB7E38F09D497
:040DD400F154A9BB72
:100DD80097110020938101861771002013010122C9
:100DE8001305400097F5FF1F93854521170600203E
:100DF800130606FE63FAC5008322050023A05500EA
:100E080011059105E3EAC5FE17250000130545DA2B
:100E1800970500209385C5FB1386018163FAC500F9
:100E28008322050023A0550011059105E3EAC5FEBC
:100E3800138501819385C1896377B5002320050057
:100E48001105E36DB5FEFD42739002BC8D427390AF
:100E580042809302800873A0023097F2FF1F9382AA
:100E6800E21993E2320073905230970200009382A5
:100E7800820B73901234730020303D432A876373CA
:100E8800C3029377F700BDEFADE5937606FF3D8A81
:100E9800BA960CC34CC30CC74CC74107E36BD7FECB
:100EA80011E28280B306C3408A0697020000969634
:100EB8006780A6002307B700A306B7002306B7007C
:100EC800A305B7002305B700A304B7002304B700A0
:100ED800A303B7002303B700A302B7002302B70098
:100EE800A301B7002301B700A300B7002300B70090
:100EF800828093F5F50F93968500D58D939605011D
:100F0800D58D61B793962700970200009696868242
:100F1800E78086FA9680C1171D8F3E96E374C3F862
:100F2800A5B701111305800406CE22CC26CA4AC8EB
:100F38004EC697F0FF1FE780805837170040832779
:100F4800870A85451305001093E707202324F70A2D
:100F5800B52E8D4513050020952EEF00E07F8545C1
:100F68000D65012917250000130545B3EF00F01E94
:100F7800B725060093072004116793060040116601
:100F8800938505A80145852337050200EF00606EAB
:100F980065FD054537040300412105042285EF005E
:100FA800E0696DDD81451305200537040700192325
:100FB800130424082285EF0060686DDDB704001073
:100FC800014419499384040897090020938989E604
:100FD8006314240B37040700130444082285B92D31
:100FE80075DD054599291305400697000020E7801F
:100FF80040991305200465201D4605478546970539
:101008000020938525E313059002FD201726000094
:101018001306C6A709E5172600001306A6A7930519
:10102800900217250000130565A8EF00700113074B
:10103800803E8546114693850181130590027922E9
:10104800AA85AA841306900217250000130545A750
:10105800EF00007F014463CA0400138901819729C6
:1010680000009389E9A7631394021725000013056C
:10107800E5A6EF00900E01A02685E52B31D9B387B0
:10108800890003C507000504112999B7B30789002A
:1010980083C507004E850504EF00807AE9B7011182
:1010A800238001820547A38DE1802AC685450D6509
:1010B80006CE238C0180752CB247B7250600116730
:1010C800930600401166938505A8014529298545A1
:1010D800130500406D268545130500204D268545DE
:1010E80013050010692EF240B7E700E0370700400B
:1010F80023A0E710056182809307000263E5C70C0F
:1011080001114AC806CE22CC26CA4EC683C801821F
:1011180013890182F9576394080011EA8147F24064
:101128006244D2444249B2493E850561828089477A
:10113800B6842380F182A38DE180A38B01802A8469
:1011480013858183238DC180A38C01803D2D238E3F
:10115800018083C7C181131514005D8D238EA18082
:101168000145E12C03C7818185479389C1816319B2
:10117800F704238C01803754004003C50900392E39
:1011880083570480918BF5FB854513050040C52CDA
:10119800854513050020E524854513050010C52461
:1011A800094789C483470900E30DF7FE83C77181A6
:1011B800B5D79387718183C70700B307F04085B718
:1011C8000545992CF1BFFD573E85828001114AC81B
:1011D80006CE3A8922CC26CA4EC652C456C25AC036
:1011E800130700026362C70E03C70182AA87138A26
:1011F800018279556316070A3284014555C20547AD
:101208002380E182A38DD180A38B0180A38C0180F0
:101218009306F4FF238DD180238EE18003C5C1811D
:101228008607C98F0145238EF180AE89392403C70B
:1012380081818547938AC181631EF706238C0180CB
:10124800B754004003C50A00912C83D70480918BC2
:10125800F5FB8545130500401D2485451305002031
:10126800392C854513050010192C8144854A7D5B6E
:1012780083470A00639CFA00054597F0FF1FE78043
:1012880040708504E30669FFE3C424FF83C79181A6
:1012980063E587022286938581834E85FD21228519
:1012A800F2406244D2444249B249224A924A024B2D
:1012B8000561828005458D224DBF9387918103C4C6
:1012C80007001374F40FF9B77D55D9BF914763EE42
:1012D800B70217270000130727818A05BA959C4192
:1012E800BA978287B717004003A7470B1345F5FF46
:1012F800698F23AAE70A03A7070B698F23A8E70AC0
:1013080003A7070A798D23A0A70A8280B717004090
:1013180083A6470B1347F5FFF98E23AAD70A83A69E
:10132800070B558D23A8A70A83A6070A758F23A044
:10133800E70A8280B717004003A7470B498F23AA03
:10134800E70A03A7070B1345F5FF45BFB71700408A
:1013580083A6470B1347F5FF758F23AAE70A03A750
:10136800070A598D4DB7B717004003A7470B498F98
:10137800EDB7914763EEB702171700001307077818
:101388008A05BA959C41BA978287B717004003A788
:10139800470D1345F5FF698F23AAE70C03A7070D2F
:1013A800698F23A8E70C03A7070C798D23A0A70C46
:1013B8008280B717004083A6470D1347F5FFF98EC3
:1013C80023AAD70C83A6070D558D23A8A70C83A69F
:1013D800070C758F23A0E70C8280B717004003A77E
:1013E800470D498F23AAE70C03A7070D1345F5FFFF
:1013F80045BFB717004083A6470D1347F5FF758F04
:1014080023AAE70C03A7070C598D4DB7B71700405F
:1014180003A7470D498FEDB737570040835707801B
:1014280011C593E707102310F7808280C207C18394
:1014380093F7F7EFC207C183FDB7375700408357CB
:10144800078011C593E707202310F7808280C20721
:10145800C18393F7F7DFC207C183FDB73757004051
:101468008357078011C593E707402310F7808280D0
:10147800C207C18393F7F7BFC207C183FDB7B75748
:10148800004003D747804205418189C5598D239281
:10149800A78082801345F5FF798DD5BFB7570040E7
:1014A8002398A7808280B757004003D5078113751A
:1014B800F50F82809377E50F99C193671500C207EE
:1014C800C183375700402318F78082803757004080
:1014D8008357078011C5A166D58F2310F7808280B6
:1014E800C607C583DDBF011126CAB754004022CC08
:1014F8002E8483D504804AC82A892165C98D32C6BD
:1015080036C43AC23EC006CE2390B48001457D3F22
:101518007D2237480F00130808243358050383D564
:10152800448082471247C205C18193F505FCC20574
:10153800C1812392B48083D54480A2463246B365E4
:10154800B800C205C1812392B48083D50480C20546
:10155800C181F999C205C1812390B480E165938561
:10156800056A63ED8508060433548502056693050C
:10157800C6FF114542044180E18D81C51305F6FF80
:10158800618D05081306F003637406011308F00360
:10159800420837560040135808012310068337566F
:1015A8000040231EA68083550680F240624493E5DE
:1015B80015002310B68083550680D244C205C18128
:1015C80093F555BFC205C1812310B68083550680A7
:1015D800CD8EB3E62601C206C1822310D68083567B
:1015E800868023140680835686804249D58FD98FFA
:1015F800C207C1832314F6800561828015E68D45F4
:10160800B305B4023355B5025205518111E10545C0
:101618002166518D1306C0123308C8021306803E96
:101628003358C8020508ADB7E5453304B40211665E
:101638003355850252055181518DD9BF3757004026
:101648008356478183578781C207D58FE98FA207C1
:10165800A1833385A740133515008280B757004012
:1016680003D7478103D587814205598D22052181FA
:101678008280411102C4B757004002C69387078091
:101688003EC69357C5013EC4A2472205218199CB86
:10169800B247D1073EC6B2479C4341017D8D3335E1
:1016A800A0008280B2474181E107EDB71345F5FFFD
:1016B80042054181B7570040239AA7808280B71717
:1016C800004003D58700420541819377050491EBDB
:1016D8009377F5013755E801130505803345F50281
:1016E80082809377050C130700046397E7009377CC
:1016F800F50137459C1CCDB72165130505D08280BF
:10170800814737370040A14663C4C70032858280CD
:101718000345B740E38EA6FE3385F5000345050073
:1017280085072304A740CDB7411122C406C62A84E1
:1017380079372947B307E502B2408D83B3D78702CB
:1017480022449507B3D7E70237370040C207C18361
:101758002316F74041018280716541111305052068
:1017680006C6D937B7370040130770F82381E7401A
:101778000D47A381E74013070004A380E74005470E
:101788002387E740B24041018280B3C7A5008D8B13
:101798003307C50081E78D4763EEC700AA876370EA
:1017A800E50A83C6050085078505A38FD7FEE3EA0A
:1017B800E7FE828093763500AA8791CA83C6050022
:1017C80085078505A38FD7FE93F63700FDB7937677
:1017D800C7FF138606FE63F0C70683A3050083A22E
:1017E800450083AF850003AFC50083AE050103AE96
:1017F800450103A3850183A8C5019385450223A05C
:10180800770003A8C5FF23A2570023A4F70123A646
:10181800E70123A8D70123AAC70123AC670023AE99
:1018280017019387470223AE07FF75B790419107C9
:10183800910523AEC7FEE3EBD7FEE3E4E7F682802B
:1018480039713EDA2ED232D436D63AD842DC46DE68
:101858009387818022CC804326CA06CEAA8409C4F5
:101868001C4C99E3228515230C44541026862285A6
:1018780036C6EF00F016F2406244D24421618280FD
:10188800011126CA4AC806CE22CC4EC652C4AA8422
:101898002E8901C51C4D91E3CD299C4C804499E3C8
:1018A8002685E5219717000093878728631CF40293
:1018B800C0408357C400A18BB1C71C48A1C7FD59BC
:1018C800294A1C4483450900FD17B1E91CC463DE9D
:1018D80007062286A94526857120FD576308F5026B
:1018E800294535A097170000938787266314F400CD
:1018F8008044C1B79717000093878721E31BF4FA48
:10190800C04445BFA2852685312A55D97D55F24068
:101918006244D2444249B249224A056182801CC4C9
:10192800050963D70700184C63CBE70063894501B5
:101938001C401387170018C02380B70059B72286A8
:1019480026850D20E31F35F7D1B71C4013871700F4
:1019580018C029472380E70061B793878180AA854B
:10196800884339BF011122CC26CA4AC806CE4EC6C2
:10197800AA842E89328401C51C4D91E33921971719
:1019880000009387E71A6319F406C0401C4C1CC476
:101998008357C400A18BC9C31C48BDCF1C4808404D
:1019A8009379F90F1379F90F1D8D5C486346F5009B
:1019B800A2852685652C2DE51C440505FD171CC44C
:1019C8001C401387170018C0238037015C486389BF
:1019D800A7008357C400858B81CBA9476316F900FC
:1019E800A285268561240DEDF24062444A85D244E1
:1019F8004249B249056182809717000093874715CD
:101A08006314F400804459B7971700009387471070
:101A1800E31EF4F6C0449DBFA285268521203DDD46
:101A28007D59D9B741119387818026C2844322C446
:101A38004AC006C62A892E8489C49C4C99E3268507
:101A4800A926971700009387A70E631CF402C040CD
:101A58000317C40093170701C18393F68700B5EEF7
:101A680093F607019DEEA5472320F90013670704A5
:101A78002316E4007D55B2402244924402494101B4
:101A88008280971700009387A70C6314F4008044A2
:101A9800C1B7971700009387A707E31BF4FAC04460
:101AA80045BF918B8DC74C5889C9930744046384FB
:101AB800F5004A859123232A04028357C400232270
:101AC800040093F7B7FD2316F4001C481CC0835785
:101AD800C40093E787002316F4001C4881EF83575E
:101AE800C4001307002093F707286385E700A28541
:101AF8004A85A5218357C40013F7170005C75C481A
:101B080023240400B307F0401CCC1C480145A5F76A
:101B18008317C40013F7070839DF93E70704231670
:101B2800F40089BF898B014791E3584818C4F1BF75
:101B380083D7C500011122CC26CA06CE4AC84EC694
:101B480013F78700AA842E8471EFD841634DE00013
:101B5800B841634AE0000145F2406244D244424938
:101B6800B2490561828058547DD703A90400939631
:101B7800370123A0040063DD060670488357C400BC
:101B8800918B99C75C401D8E5C5899C33C401D8E53
:101B98005C540C50814626858297FD570357C40034
:101BA800631DF5009440F54763E8D706B707402062
:101BB8008507B3D7D700858BA5C31C48232204000B
:101BC8001CC09317370163D80700FD576314F5004D
:101BD8009C4091E368C84C5823A02401ADDD9307CD
:101BE80044046384F50026850129232A0402A5B745
:101BF8000C500146854626850297FD572A86E31F25
:101C0800F5F69C40A5DF75476385E700594763945F
:101C1800E70423A0240181B7136707042316E4000F
:101C28007D551DBF83A90501E38709F203A90500B6
:101C38008D8B23A0350133093941014791E3D849F8
:101C480018C4E35A20F11C540C50CA864E862685C7
:101C580082976349A0008357C40093E707042316BB
:101C6800F4007DBFAA993309A940E1BF9C49B9CFC7
:101C7800011122CC06CE2A8411C51C4D81E72EC63F
:101C88002922B24597170000938787EA639BF500DE
:101C98004C408397C50095C722856244F240056190
:101CA80041BD971700009387A7EA6394F5000C4499
:101CB800CDB7971700009387A7E5E39CF5FC4C4444
:101CC800C9BFF240624401450561828001458280B6
:101CD800411122C406C62A842316B5002317C5005D
:101CE80023200500232205002324050023220506BE
:101CF80023280500232A0500232C050021468145B9
:101D08001305C505EFF06F97971700009387C7B4C1
:101D18005CD097170000938727B71CD4971700004B
:101D2800938767BB5CD497170000938727BE00D0C2
:101D38001CD8B24022444101828097050000938557
:101D480025F389AA411126C2130680069384F5FF5C
:101D5800B384C4024AC02E8922C406C693854407A8
:101D680081262A8401CD232005002322250131055F
:101D780008C4138684068145EFF02F902285B2406F
:101D8800224492440249410182801C4DBDE3411125
:101D980006C622C497070000938767FA1CD59717D1
:101DA80000009387A7E09C43232405042326050409
:101DB800232805046314F50085471CCD2A841D28B3
:101DC80048C02285052808C422852D2048C44840DB
:101DD80001469145F53D08440546A545D53D48448D
:101DE8000946C945F53585471CCCB2402244410116
:101DF80082808280411197170000938727DB26C2D3
:101E080084434AC006C69C4C22C42A8999E3268585
:101E1800AD3F938484048044DC40FD1763D60700FB
:101E28009C40B9CF8440C5BF0317C40039E7C177C8
:101E380085072322040623200400232204002324E8
:101E480004005CC423280400232A0400232C040073
:101E5800214681451305C405EFF02F82232A040289
:101E6800232C040223240404232604042285B240DC
:101E7800224492440249410182801304840671BFBE
:101E880091454A85C13588C051FDB1472320F900E5
:101E98000144E9BF797122D44AD052CC56CA5AC8F3
:101EA8005EC606D626D24ECE2A8AAE8A130485048A
:101EB8000149054BFD5B09ECB25022544A85925406
:101EC8000259F249624AD24A424BB24B456182807A
:101ED800044483294400FD1963D409000040E1BF8C
:101EE80083D7C400637BFB008397E4006387770193
:101EF800A6855285829A3369A90093848406E1BF36
:101F08001971A6DAAE848395E500A2DC86DE3284F8
:101F180063DC050083D7C40023A0060093F70708F5
:101F280085E7930700401DA0300836C6EF009023D0
:101F3800B246E34105FE7247BD67F98F7977BA97D4
:101F480093B717009CC2F1BF930700041CC0F6505A
:101F58006654D65401450961828083D7C5000111B2
:101F680022CC06CE26CA4AC8898B2E8489CF9307ED
:101F780074041CC01CC885475CC8F2406244D24443
:101F880042490561828074003000AA84953FA245C9
:101F98002A892685312201ED8317C40013F707200B
:101FA80069FFF19B93E727002316F400C9B7970749
:101FB80000009387C7D89CD48357C40008C008C8BA
:101FC80093E707082316F400A2475CC8B24791CFED
:101FD8008315E4002685EF00901B01C98357C400D0
:101FE800F19B93E717002316F4008357C400336965
:101FF800F9002316240151B7DDC183A7C5FF41119C
:1020080022C406C626C21384C5FF63D307003E94C4
:10201800AA84EF00B01E9387C1829C4381EF2322DC
:10202800040023A681822244B240268592444101BD
:102038006F00F01C637EF40014403307D4006396ED
:10204800E7009843DC43369718C05CC0D9BFBA870D
:10205800D84319C3E37DE4FE94433386D700631F56
:1020680086001040B29694C33386D700E31DC7FAA2
:1020780010435843B29694C3D8C375B76375C40068
:10208800B1479CC04DB71040B306C4006316D700D3
:1020980014435843B29614C058C0C0C369B782806D
:1020A800011126CA93843500F19806CE22CC4AC87D
:1020B8004EC6A104B14763F3F404B14463E2B40427
:1020C8002A89EF00B0139387C18298433A8439E094
:1020D800938701839C4391E781454A85812F23A8F3
:1020E800A182A6854A859927FD5963193507B14705
:1020F8002320F9004A85EF00901029A0E3D004FCC2
:10210800B1471CC10145F2406244D2444249B24938
:10211800056182801C40858F63CF0702AD4663F658
:10212800F6001CC03E9404C031A05C4063138702D3
:1021380023A6F1824A85EF00900C1305B40093079B
:10214800440061993307F5405DDF3A94898F1CC0DC
:102158005DBF5CC3C5B72287404095BF13043500F7
:102168007198E30285FCB305A4404A85C125E31CA8
:1021780035FBB5BF1C46FD171CC663DA0700184EB1
:1021880063C5E700A9476394F5006FF0AFFD1C42F3
:102198002E851387170018C22380B700828001118B
:1021A80022CC26CA4AC84EC652C406CE2A89AE894F
:1021B8003284B304D6007D5A63149400014509A8FB
:1021C800834504004E864A8575370504E31645FFA6
:1021D800F2406244D2444249B249224A05618280AF
:1021E800357122CD26CB4AC94EC706CF52C556C334
:1021F8005AC1DEDEE2DCE6DAAA89AE8432893684A8
:1022080001C51C4D91E351369717000093874792FB
:10221800639BF40C83A4490083D7C400A18BF5C742
:102228009C48E5C793070002A304F1029307000343
:1022380002D22305F10222C6930B5002971A00001E
:10224800938A0A93054C294B4A848347040099C30F
:102258006390770FB30C2441638D0C00E6864A86A1
:10226800A6854E852D3FFD576306F51E9256E696C8
:1022780036D283470400638F071CFD5713091400E7
:1022880002C802CE3ECA02CCA309010482D4834507
:10229800090015465685B12713041900C24759E9A4
:1022A80013F7070109C713070002A309E10413F78D
:1022B800870009C71307B002A309E1048346090090
:1022C8001307A0026380E608F2474A848146254640
:1022D8000347040093051400130707FD6379E60A12
:1022E800B5CA3ECE85A89717000093876786639581
:1022F800F40083A489000DB79717000093874781DE
:10230800E39CF4F083A4C90001BFA6854E85EFF0D5
:102318006FF109D97D55FA406A44DA444A49BA4905
:102328002A4A9A4A0A4BF65B665CD65C0D61828043
:10233800050421BF330555413315AC00C98F3EC88C
:102348002289B1B7324793064700184336C6634916
:1023580007023ACE034704009307E002631FF7041D
:10236800034714009307A002631BF702B24709044E
:10237800138747009C433AC663C107023ECA35A883
:102388003307E04093E727003ACE3EC8E1B7B3876A
:10239800670385462E84BA9725BFFD57C5B7050440
:1023A80002CA814681472546034704009305140065
:1023B800130707FD6376E606F1F2834504000D4630
:1023C800170500001305457B292D11CD970700003F
:1023D8009387877A1D8D93070004B397A70042451A
:1023E80005045D8D2AC883450400194617050000B9
:1023F8001305C578130914002304B102DD233DC178
:1024080097E7FFFF938787BF95E74247B247137760
:10241800071009CF91073EC69257D2973ED22DB5E5
:10242800B387670385462E84BA97BDBF9D07E19B96
:10243800A107D5B7780097060000938686D626862A
:102448000C084E8597000000E7000000FD572A8A17
:10245800E314F5FC83D7C40093F70704E39C07EA69
:10246800125555BD780097060000938686D32686B8
:102478000C084E85012AD9BF797156CA9C49BA8A77
:10248800984522D426D24ECE52CC06D64AD05AC827
:102498005EC6AA892E84B284368A63D3E700BA87D7
:1024A8009CC00347340419C385079CC01C4093F79C
:1024B800070281C79C4089079CC00329040013793F
:1024C8006900631A0900130B9401FD5B5C44984092
:1024D800998F634CF9041C408346340493F7070230
:1024E800B336D000A5EB13063404D2854E85829A04
:1024F800FD576303F5041C4011469840998B5444DA
:1025080081446397C700B384E64063D304008144E1
:102518001C4418486354F700998FBE940149690414
:102528007D5B63982405014509A885465A86D285AE
:102538004E85829A631E75017D55B250225492547D
:102548000259F249624AD24A424BB24B45618280F3
:102558000509ADBF3307D40013060003A301C70460
:102568000347540493871600A2978906A381E704BA
:102578009DBF85462286D2854E85829AE30E65FBED
:10258800050945B7797122D426D24AD04ECE06D64F
:1025980052CC56CA5AC8B68983C685019307900695
:1025A8003289AA842E8413863504638DF60263E289
:1025B800D706930780056387F61863EDD700638015
:1025C800062293073004638EF60A930A2404230133
:1025D800D404C9A0930730066385F60A930740061A
:1025E800E395F6FE1C40084393F60708930545005B
:1025F800C5C61C410CC363D807001307D002B30734
:10260800F040A301E404970600009386A6572947E3
:102618006DA8930700076383F61663E5D70293074F
:10262800E006638AF6189307F006E390F6FA0C4082
:102638001C4313F80508138547006307080608C3F9
:102648009C438DA893075007E383F6FE9307800702
:10265800638AF61293073007E399F6F61C43D041D4
:1026680081459386470014C383AA07005685952E93
:1026780001C53305554148C05C401CC8A30104048A
:1026880071A81C43930A2404938647009C4314C3EF
:102698002301F4048547D5B793F607041C410CC3FE
:1026A800B9DAC207C18781BF93F5050408C3C9D940
:1026B80083D707001307F0066387E60E9706000026
:1026C8009386464C2947A30104044C400CC463C5B7
:1026D800050008406D9908C099E3B28A91CDB28A85
:1026E800B3F5E702FD1AB69583C505002380BA0045
:1026F800B3D5E70263FFE70AA147631EF7001C4052
:10270800858B91CB58401C4863C7E70093070003AB
:10271800A38FFAFEFD1A3306564110C84E87CA86A3
:102728007000A2852685893B7D5A631E450B7D5521
:10273800B250225492540259F249624AD24A424B48
:1027480045618280A382D50497060000938686435C
:102758000C40084313F805081C411105630D0802D5
:1027680008C313F7150001C793E505020CC04147DC
:10277800B9FB0C4093F5F5FD0CC0B1B79C4193E74C
:1027880007029CC193078007A302F4049706000080
:102798009386864075BF13F8050408C3E30308FC55
:1027A800C207C1837DBF970600009386A63D2147D7
:1027B80019BFAE8735B794411C43CC4913F80608B6
:1027C800138547006306080008C39C438CC301A80F
:1027D80008C393F606049C43F5DA2390B700232830
:1027E8000400B28A25BF14485686CA852685829970
:1027F800E30F45F31C40898B8DE7B2474844E35902
:10280800F5F23E8535B785465686CA85268582996E
:10281800E30F65F1050A5C443247998FE345FAFEF8
:10282800E9BF014A930A94017D5BF5B7411122C4BF
:102838002A842E8523AC018806C63D24FD576317DC
:10284800F500938781899C4391C31CC0B240224400
:1028580041018280411122C42E848395E50006C679
:102868004522634905007C48AA977CC8B2402244A7
:10287800410182808357C4007D777D17F98F231625
:10288800F400EDB783D7C500011122CC26CA4AC887
:102898004EC606CE93F70710AA842E843289B689CD
:1028A80091C78395E5008946014631228357C400C4
:1028B8007D777D17F98F2316F4008315E4006244B1
:1028C800F240CE864A86B24942492685D2440561FD
:1028D8003DA8411122C42E848395E50006C6E1284F
:1028E800FD570357C400631BF500FD77FD17F98FEB
:1028F8002316F400B2402244410182808567D98FB3
:102908002316F40068C8FDB78395E50005A84111B2
:1029180022C42A842E85B285368623AC018806C651
:10292800EFE01FDEFD576317F500938781899C430D
:1029380091C31CC0B240224441018280411122C48B
:102948002A842E8523AC018806C6CD20FD5763173F
:10295800F500938781899C4391C31CC0B2402244EF
:1029680041018280411122C42A842E85B28523AC7C
:10297800018806C6D120FD576317F5009387818922
:102988009C4391C31CC0B240224441018280411142
:1029980022C42A842E8523AC018806C66520FD57EB
:1029A8006317F500938781899C4391C31CC0B2408B
:1029B800224441018280411122C42A842E85B28595
:1029C800368623AC018806C66120FD576317F500DB
:1029D800938781899C4391C31CC0B2402244410122
:1029E800828093F5F50F2A966314C500014582800D
:1029F80083470500E38DB7FE0505FDB78280828019
:102A0800411122C42A842E85B285368623AC0188DA
:102A180006C6A920FD576317F500938781899C4353
:102A280091C31CC0B24022444101828093078005B3
:102A380023ACF1887D5582809307800523ACF1880B
:102A48007D5582809307800523ACF18801458280FB
:102A58009307800523ACF1887D5582809307800514
:102A680023ACF1887D558280938741839C4391C72D
:102A78003E9523AAA1823E8582809387C1893E958F
:102A880023AAA1823E8582806661696C6564000024
:102A9800737563636573730049494320486F7374A2
:102AA800206D6F64650D0000777269746520746F1E
:102AB800202523782025730A0000000072656164D0
:102AC80020256420627974652873292066726F6DE9
:102AD800202523782028000020290000202523789D
:102AE8000000000000E8FFFF28E8FFFF50E8FFFFB4
:102AF80068E8FFFF82E8FFFF92E8FFFFBAE8FFFF00
:102B0800E2E8FFFFFAE8FFFF14E9FFFF000000001A
:102B180000000000000000000000000000000000AD
:102B2800000000000000000000000000000000009D
:102B3800000000000000000000000000000000008D
:102B4800000000000000000000000000000000007D
:102B5800000000000000000000000000000000006D
:102B6800000000000000000000000000232D302BB2
:102B780020000000686C4C00656667454647000009
:102B8800303132333435363738394142434445469B
:102B9800000000003031323334353637383961625D
:0C2BA8006364656600000000D40D00208E
:102BB40000000000342B0000542B0000142B0000F4
:102BC4000000000000000000000000000000000001
:102BD40000000000000000000000000000000000F1
:102BE40000000000000000000000000000000000E1
:102BF40000000000000000000000000000000000D1
:102C040000000000000000000000000000000000C0
:102C1400000000000102030405060700D40D002093
:042C240000000000AC
:00000001FF
