:040000006F10905697
:100004000000000000000000900000208A0400208E
:10001400A9BDF9F5900000200000000000000000D8
:10002400900000209000002000000000000000006C
:10003400900000200000000090000020000000005C
:1000440090000020900000209000002090000020EC
:1000540090000020900000209000002090000020DC
:1000640090000020900000209000002090000020CC
:100074007E050020900000209000002090000020C9
:1000840090000020900000209000002090000020AC
:1000940001A073270080218B9387018209CB7327EA
:1000A400008023A0E18298435D9B731007800100C8
:1000B400010037170040930670052300D704930608
:1000C40080FA2300D704010001008346B70493F6A5
:1000D400F60DA305D7042300070473260080944378
:1000E400A18AD18E7390068023A0018201000100B1
:1000F40093760502638406180347A700118B25E74E
:1001040073270080218B09CB7327008023A0E18211
:1001140098435D9B7310078001000100371700406E
:10012400930670052300D704930680FA2300D704AE
:10013400010001008346A70093E646002305D7008B
:1001440023000704F32600809843218B558F7310F6
:10015400078023A00182010001001307004B010066
:1001640001007D176DFF73270080218B09CB732756
:10017400008023A0E18298435D9B731007800100F7
:10018400010037170040930670052300D704930637
:1001940080FA2300D704010001007D892314A700FD
:1001A400010001000100010023000704F326008080
:1001B4009843218B558F7310078023A0018201007F
:1001C400010073270080218B09CB7327008023A0B3
:1001D400E18298435D9B731007800100010037178B
:1001E4000040930670052300D704930680FA230089
:1001F400D7040100010001000100B72600401306E6
:100204001005A383C68023000704F32600809843C7
:10021400218B558F7310078023A0018201000100F8
:1002240073270080218B09CB7327008023A0E182F0
:1002340098435D9B7310078001000100371700404D
:10024400930670052300D704930680FA2300D7048D
:10025400010001008346B70493E60608A305D7040A
:1002640023000704732700809C43A18BD98F7390CC
:10027400078023A001820100010082809376050497
:10028400638B06140347A700418B25E7732700807F
:10029400218B09CB7327008023A0E18298435D9BC7
:1002A40073100780010001003717004093067005A2
:1002B4002300D704930680FA2300D7040100010029
:1002C4008346A70093E606012305D700230007040D
:1002D400F32600809843218B558F7310078023A049
:1002E4000182010001001307007D010001007D1758
:1002F4006DFF73270080218B09CB7327008023A017
:10030400E18298435D9B7310078001000100371759
:100314000040930670052300D704930680FA230057
:10032400D704010001009376F50193E60604231433
:10033400D700010001000100010023000704F32697
:1003440000809843218B558F7310078023A001826E
:1003540001000100130760046310E50473270080A3
:10036400218B09CB7327008023A0E18298435D9BF6
:1003740073100780010001003717004093067005D1
:100384002300D704930680FA2300D7040100010058
:10039400B72600400946B5B573270080218B09CBE9
:1003A4007327008023A0E18298435D9B731007802C
:1003B4000100010037170040930670052300D7049D
:1003C400930680FA2300D70401000100B7260040F9
:1003D400130620053DB573270080218B09CB7327B5
:1003E400008023A0E18298435D9B73100780010085
:1003F400010037170040930670052300D7049306C5
:1004040080FA2300D704010001008356870093E695
:10041400060C2314D700C5BB411181460146814512
:10042400114506C61D2CF3270080A18B93860182FB
:1004340089CBF327008023A0F1829C42DD9B73903B
:10044400078001000100B7170040130770052380DF
:10045400E704130780FA2380E7040100010003C7BF
:100464006704136717002383E704238007047327B3
:1004740000809C42A18BD98F7390078023A00182B6
:1004840001000100B240410182808146014681455C
:100494001145E122F3270080A18B1387018289CBC8
:1004A400F327008023A0F1821C43DD9B7390078017
:1004B40001000100B7170040930670052380D7049C
:1004C400930680FA2380D70401000100FD56239689
:1004D400D70223800704F32600801C43A18BD58F09
:1004E4007390078023A0018201000100F32700809C
:1004F400A18B89CBF327008023A0F1821C43DD9BD1
:100504007390078001000100B7170040930670053F
:100514002380D704930680FA2380D70401000100C6
:1005240083C6670493E616002383D7042380070455
:10053400F32600801C43A18BD58F7390078023A0E2
:1005440001820100010001A0BD473305F50201004D
:100554007D1575FD8280411122C426C206C6AA8477
:10056400014463179400B2402244924441018280C2
:1005740005041305803E4204C13F4180DDB7B7172F
:100584000040130700032388E702854723A8F1826C
:1005940073002030411106C6EF00D018F5BF2303C5
:1005A400048015472303E48001002302A480828091
:1005B40083076480E3CE07FE2303048082808307DD
:1005C4006480E3CE07FE0345448082808307648011
:1005D400E3CE07FE2302A4808280411126C44AC2CE
:1005E4004EC006C61377F50BAD47AA892E899544EC
:1005F4006306F70019456537653F8D444E854537D9
:10060400FD59FD1463983401B240A2441249824951
:1006140041018280135509011375F50F453F2209E5
:10062400CDB7011126CC06CEB704080051371545C5
:10063400BD37713769372AC6A53F32459377150010
:1006440089EB136515001375F50FF240E24405615B
:100654008280FD14E9FC0145CDBF397126DC4ADAFC
:100664004ED852D656D45AD25ED006DE62CE66CC6E
:10067400B7E700E07D5783AA070022C603AA470014
:1006840023A0E71823A2E718B71700401307700543
:100694002380E704130780FA2380E70483C7470411
:1006A400930B75FFB684E20793FBFB0F8546AA897B
:1006B4002E8B328937240040E187015763FA760193
:1006C4006308D5008946130700026313D500015758
:1006D400D98F93F7F70FB71C00402382FC0411470E
:1006E4002303E4801305F00F5D3D094CD135636DA0
:1006F4007C11B7050700DA9537870700795563F24F
:10070400E504B3879500636EF702370B0800A94729
:1007140033EB65016399F90689E48144513D2685EB
:100724000DA0DA850945553D05090345F9FFFD147A
:10073400050B693D81C49377FB0FFDF7DD3569FD3A
:100744007D55B7170040130770052380E70413078E
:1007540080FA2380E70403C74704418B2382E7041C
:10076400F250B7E700E023A0571123A24711E25447
:1007740032445259C259325AA25A125B825B724CA9
:10078400E24C21618280A5476395F90685691309C6
:10079400F00FB3069900B3742B01B6941349F9FF13
:1007A400B3749900856B33796901416B9387F9FFC1
:1007B400B3F7270199E363FC340193D94900C14796
:1007C400E3E637FF99BF0569C1697D19D9B71305F8
:1007D400800D6388690113050002638479011305A0
:1007E4001008CA85DD3B353D21DD4E99B384344183
:1007F400D9B7DA852D45D533CA94E30099F20509B2
:100804007D3BA30FA9FED5BF9387F9FF93F7F70F9D
:100814006361FC0C83C71C0413073008631FF704CF
:1008240037070800636BEB04B3079B00B70610009F
:1008340063F5D704334BEB0089476393F90689804A
:10084400D549E38C04ECDA850945413B11090327BA
:10085400C9FF91472320E48003076480E34E07FE29
:1008640023033481FD17EDFBFD14110B81C4937731
:10087400FB0FE9FF7D3371F5E1B5B717004003C7FE
:100884005704B70708001377070219E3B78707006F
:100894007955E378FBEA33079B00E3FFE7F855B5A6
:1008A4008547E382F9F2DA852D45053B9389F4FF08
:1008B400E38504E6293393F7390091EB832604801A
:1008C4000327090093074900E39AE6E43E89CE84AE
:1008D400F1BFB5476396F9001305900BC93135BDD7
:1008E400B1471305B00AE38BF9FE99476391F90404
:1008F400B7050800B365BB002D45C53181448D4B58
:10090400A149753963967401832704802320F90073
:100914008504E39834FF8327048013172B01635560
:1009240007002312F900D5BB2322F900FDB39D472C
:100934006399F90281451305B0044531BD44232070
:10094400090023220900FD599D3993F77400CA97C1
:1009540003C70700FD14398D2380A700E39634FFF5
:100964006DBBA1476392F9046D398144630D0B009B
:100974008D479304C0036308FB00930400056304DC
:100984008B01930440041375C507E30895D81945F2
:10099400393139390545213126850D3909453D312E
:1009A4004931E31C05D669BB91476399F9001305E6
:1009B4006006F536F53E130590090DB7E38F09D4AB
:1009C400F154A9BB173700001307C7288347070052
:1009D40093F7F70FE5DF82807D1662066186931731
:1009E4008601E18763D407000145828093172600BE
:1009F4003307F500AE9718439C4363E7E7007D1681
:100A0400E37FF7FC7D55828005458280FD15E20574
:100A1400E18513978501618793F7F50F6348070014
:100A2400FD15139725002A97584365D7138517009A
:100A34006205618582803308B5021C4283A80600E2
:100A4400B335B502C29733B50701AE9846958548CC
:100A54006367B5006394A50063E3070181480C4311
:100A6400C6950CC388C21CC2828081471397870134
:100A740061876343B7008280139727002A97232056
:100A840007008507E5B78147014793968701E1860B
:100A940063C5B60013351700828093962700AA9683
:100AA40094428507558FD5B793D755408A07AA979F
:100AB4009C4305453315B5007D8D8280171300E0F6
:100AC400E702A3382A84993705C5931725003E9475
:100AD4000327C4FF814711EB7D1516053E9542059A
:100AE4004185171300E06700833805838507E5B760
:100AF4000145C5BF81471397870161876343C700D9
:100B0400828013972700B386E50094422A978507CD
:100B140014C3D5B77D166206618601479317860113
:100B2400E18763D5070013351700828093172600E9
:100B3400B306F500AE9794429C437D16B58F5D8F46
:100B4400F1BF8A05AA9501476363B500828083A635
:100B5400C5FFF11593D71600D98F9CC11397F601E1
:100B6400E5B72A830148014701456343D7008280E2
:100B7400B387050183A80700B30706019C43C69702
:100B8400AA976384F80033B517010507B308030176
:100B9400620723A0F80061871108C1BF2A830147B7
:100BA4008147014563C3D70082803388E5008328E9
:100BB4000800330EE600032E0E003388A8403308E5
:100BC400C8416384080133B508018507B308E3000D
:100BD400E20723A00801E1871107E9B7171300E032
:100BE400E702A3260111B286B2842E86AA850A855D
:100BF40075372A84A6850A8579353334800006043E
:100C040013351500018D0561171300E067002326D5
:100C1400171300E0E702E3204111AA89AE8A328B60
:100C2400B68402C202C402C60144131C8401135CCC
:100C34008C4163499C02939B1400FD1B0549138C52
:100C4400F4FFF15C3304890162046184634D74052B
:100C540092478E04CE9423AEF4FE4101171300E0B4
:100C64006700A31F13192400B30B2B01014A931728
:100C74002A00D69783A50B008843780034005000DF
:100C84005D3B050A93178A01E187F11BE351FCFEE2
:100C940092474E9905042320F900A2473EC2B24769
:100CA40002C63EC459B7131A8901135A8A41131D47
:100CB400240093178A01E18763CF970092470A04BF
:100CC4004E941CC0A24705091379F90F3EC2B247DE
:100CD40002C63EC485BFB3079A0313152A0056956E
:100CE4000841780034005000050AEA97DA978C43EB
:100CF4009933C1B719CD91CD09CE81473387F5001A
:100D0400834607003307F50085072300D700E31760
:100D1400F6FE828019C991C909CA910583A7C5FF46
:100D240011057D16232EF5FEC5BF828001C919C6A3
:100D34002A960505A30FB5FEE31DA6FE8280814712
:100D44003307F5000307070019E33E858280850712
:100D5400C5BF01112E8626CAAA8413150601930560
:100D6400F004418122CC06CE32C6EF00B0652A845D
:100D740001C53246A685BD3F2285F2406244D24475
:100D840005618280854715C18DC105C28147B306BF
:100D9400F5003387F50083C6060003470700639810
:100DA400E6008507E315F6FE85473E858280814788
:100DB400EDBF9307F6FFBE952A966313C5008280A4
:100DC400FD1583C715000505A30FF5FEFDB7AA871A
:100DD400014581CF09CE3E96850703C7F7FF631708
:100DE400B700E39BC7FE054582808280014582806F
:100DF40079719387018522D4804306D626D24AD0BE
:100E04004ECE52CC56CA5AC85EC65DCCB7C4C901D0
:100E1400014B938981849384F437173A0000130AB1
:100E24002A1F973A0000938A6A221739000013098F
:100E340029268357240085E35C44631B0B0023A805
:100E4400F184832BC4002285EF0030645E84B9A84A
:100E54002326FB00FDB783A7090082971C443307B0
:100E6400F5406376F500032749001D8F2A9763E058
:100E7400E4089737000023A3071E83552400034585
:100E84000400975001E0E780601B5C405844A1CB0C
:100E94000C4403264900AE97BE8663E4B70063E4BE
:100EA400C700B386C74014C4228B3A8459F09737DD
:100EB40000009387A7199C4B09476370F706F9173D
:100EC40017370000232CF718B250225492540259B9
:100ED400F249624AD24A424BB24B45618280631561
:100EE4000B0023A8E184B1BF2326EB0099BF03279D
:100EF4004A0209CF63EFA7003385A74083A70A01FD
:100F04006376F5009737000023AAA714228B404488
:100F140071BF03274900BA97C5B79737000023AFBD
:100F240007125DB7411122C417340000130484145E
:100F34001C4006C626C24AC091C782979737000054
:100F440023AA07129737000083C7971B858B973412
:100F540000009384A41A95C397370000A382071A4C
:100F640083C774001547637AF700CD2183C77400E3
:100F7400F5178A07A2979C4382971C4491C38297D2
:100F84001389C18303270900173600000346160C92
:100F94009737000083C7870B93961700BA9683D6BA
:100FA4000600C5CE9737000083C7470A63E1C70C24
:100FB40097370000238C07081C4063950712973766
:100FC400000083C7371491CF83C7740093F7F70FDA
:100FD40089EB97370000A3870712977001E0E78039
:100FE40020A2938781849C43638E070E9737000069
:100FF4009387070ADC43173700002321F706CD3B0C
:10100400973700009387C700DC53E9CF17370000F8
:101014001307C703184B9737000083C7B7006363F0
:10102400F70C83C774001547636EF70A97370000FF
:1010340083C74711918BDDE703260900973600002B
:1010440083C6D60063C6D70A2244B24092440249FA
:101054004101175301E06700E320850793F7F70F79
:10106400973600002384F6FEE3E4C7F225BF860723
:101074003E9783550700231007002392018493872A
:1010840041859C4317350000034545FC1317250093
:10109400BA979C43829783D741841737000003474C
:1010A400E7FA93C7F7FF7D8D93171700032709000D
:1010B4003E97835707005D8D2310A70097370000E4
:1010C40083C7C7F891C78507173700002300F7F8CF
:1010D40017370000034787F79737000083C717F7D0
:1010E400E378F7ECB2402244924402494101828001
:1010F400139717003297035707006DF7850799B7C1
:10110400AD6737C70040BD072326F7200F10000046
:1011140097370000938787F3C84F83278726BD66D8
:10112400BD0693C7F7FF99836A052326D7205D8DF3
:1011340082804111B7170040985F3AC6945F3247E6
:10114400E39CE6FE3245410182801305F00F828064
:10115400138781871C439306001094C30100010088
:10116400010001001C4323A0070083461500034827
:101174002500A2064208C29603480500C296034809
:1011840035006208C29694D783465500034865002B
:10119400A2064208C29603484500C2960348750059
:1011A4006208C296D4D7834695000348A500A206D8
:1011B4004208C29603488500C2960348B5006208F7
:1011C400C29694DB8346D5000348E500A206420894
:1011D400C2960348C5000345F500C2966205AA9667
:1011E400D4DB83C6150003C52500A2064205AA96D2
:1011F40003C50500AA9603C535006205AA9694CFD7
:1012040083C6550003C56500A2064205AA9603C518
:101214004500AA9603C575006205AA96D4CF83C675
:10122400950003C5A500A2064205AA9603C585003C
:10123400AA9603C5B5006205AA9694D383C6D500C1
:1012440003C5E500A2064205AA9603C5C50083C5E9
:10125400F500AA96E205AE96D4D3D443F59AD4C346
:10126400D44393E61600D4C3944393E6160094C380
:10127400BA879443D842058B59E3984E014523001D
:10128400E6009843184F2183A300E6009843184FC3
:1012940041832301E6009843184F6183A301E600CC
:1012A4009C43D84F2302E600D84F2183A302E600D3
:1012B400D84F41832303E600D84F6183A303E6009C
:1012C40098532304E60098532183A304E60098531B
:1012D40041832305E60098536183A305E600D853B0
:1012E4002306E600D8532183A306E600D85341839E
:1012F4002307E600DC53E183A307F60082800100A4
:101304008DBF1387C1871443411122C49C5E4AC018
:1013140006C6998326C2858B3A8413898187D1C7EF
:101324009C5E97340000938464DD93F7F7F99CDEA8
:10133400173700000347E7DC93070008631BF70037
:10134400832709009C4393F7070417370000230AF7
:10135400F7DA83C7040093F707048DC39387818466
:101364009C4382979737000023A2A7DA83C704001F
:1013740093F7F70B173700002302F7D883C744000D
:1013840093F707049DE3854717370000A30AF7D6B0
:10139400938781889C43096798C7130700FC973695
:1013A4000000238FE6D4D844F8D31C40985F1183FF
:1013B400058B09CB985F3D9B98DF05479736000066
:1013C4002380E6D4985F1D83058B11CB985F137738
:1013D400F7F798DF8547173700002303F7D28327F1
:1013E4000900D8430583058B19C7D843759BD8C317
:1013F400D843799BD8C3B240224492440249410164
:101404008280397106DE16DC1ADA1ED82AD62ED46A
:1014140032D236D03ACE3ECC42CA46C872C676C420
:101424007AC27EC0F93DF250E2525253C253325551
:10143400A255125682567247E2475248C248324E6B
:10144400A24E124F824F216173002030938781880E
:10145400944397370000938767CA03C70700058B37
:1014640011CB97370000238D07C897370000A38955
:1014740007C8828003C71700058B65F7F85271FF10
:1014840083C75700DDB71388C187032708001C5F93
:101494009583858BD1E709C61C5BBD832300F600C9
:1014A40085CA83270800985B4607935767016356EC
:1014B400070093E707C0C207C18303970600C2076A
:1014C400C18709C7BA970947B3C7E7022390F60053
:1014D40085CD834715008DCB9736000083C666C241
:1014E40093F606041387970089478DCA3A950347F4
:1014F4000500854699471376F7066311D6026207FD
:101504006187B947634C0700832708009C5FED831C
:101514008D8B17370000A308F7BE81473E85828074
:101524008547EDBF411122C406C613848188184043
:101534002DE9AE877453FDFE3E85B28597370000D2
:10154400238F07BA976001E0E780E0259387C1877E
:101554009C43B70680009843558F98C3D857719B16
:10156400D8D797370000A38D07B897370000A38713
:1015740007B81C40094798C31440173700001307E5
:10158400E7B783472700858B89EB83473700858B33
:10159400D9C397370000238507B6B24022444101DE
:1015A40082808D47631EF5009387C1879C43B706ED
:1015B40080009843558F98C3D857719BD8D76DBF77
:1015C4008547E31BF5FA5447F977FD17F58F5CC798
:1015D4000F1000001C40096798C7130700F817365E
:1015E4000000230FE6B01387C187104318423183EC
:1015F4000D8B11E713076019F8D3D4C7B5BF184290
:10160400094631830D8B6315C7001307E043EDB71B
:101614001307E01BD5B7FC52ADF741B75D71A2C407
:10162400A6C22A84130680022800AE8493051008FB
:1016340086C6CAC04EDE52DCEFF04FEF35459760E8
:1016440001E0E780A04D1383C187832703009376CD
:10165400F41F138E018923A40700984B938E81886D
:10166400370FFCFF1367F70398CBF84F130510F8F7
:10167400B7020400137707E0558FF8CF9843F57647
:10168400FD16758F98C39843B706330093038025DE
:101694001377F7E798C3984311497D1F1377F7E74A
:1016A4001367071098C303270E008549930F800220
:1016B4001C47D58F1CC783A70E001307900D340059
:1016C400B8CB014793553700A69583C70500137619
:1016D4007700B3D7C740858BE1C3832703008328F2
:1016E4000E00239C07042390070603A8C80213785E
:1016F400D8FF23A6080383A807001378F70793F8F5
:1017040008F833E8080123A0070103A84702336857
:10171400580023A2070383A80E00014823A27806D9
:1017240003DA07066307480303A80703038A0600CE
:101734001358F80062081358884163580A0103A833
:1017440007031358F8002380060103D8070613780B
:10175400F80F03AA480663060A0003DA8705E37F45
:1017640049FB03A847023378E80123A207038387D0
:101774000600635CF40003C805003396C9001346F1
:10178400F6FF337606012380C5003E8663D3A700A7
:101794002A8613158601618505071377F70F8506D9
:1017A400E312F7F3B640264496440649F259625AC6
:1017B40061618280938681889C42D8471316170101
:1017C40063550602984713161701635006027D57A6
:1017D400B8D71737000013076787584F0507173620
:1017E40000002323E688116798C798470D83058B6B
:1017F4001DC3173700000347879013671700173678
:101804000000230EE68E130700F8173600002309A4
:10181400E68E214798C79847058B09CF17370000F4
:101824000347D78D1367170017360000A308E68C0B
:10183400054798C798470983058B09E798470583A7
:10184400058B21CF9847173600001306268B138586
:10185400C1870983058B630307101841184331833B
:101864000D8B75EBAC4B184E93F50502034717002F
:10187400CDCD79EF13077006D8CF03470600136761
:10188400170017360000230BE686114798C7184146
:101894005C57F19B93E717005CD79C4298479316DB
:1018A400370163D606029736000083C6A692C18A22
:1018B400173700001307878AC5CE034787071367C6
:1018C4000702973600002387E690056798C7984774
:1018D4009316270163D10602173700000347478296
:1018E400620761876357070005479736000023891D
:1018F400E680096798C798479316070163D60602DE
:101904009736000083C6168D858A173700001307A3
:10191400E784ADCE03479707136727009736000087
:10192400A38AE68A216798C7828029D785456315EB
:10193400B7001307B00689B789456315B7001307C5
:10194400F0061DBF8D456315B700130730072DB78B
:101954001307500715B71307600739BF034736004D
:101964001367170017260000A30BE678094739BF51
:10197400834687070946BD8A6388C60003478707ED
:101984008D463D8BE313D7F4114725BF8346970754
:10199400918AC9DA034797071367870041B73971FA
:1019A40006DE16DC1ADA1ED82AD62ED432D236D067
:1019B4003ACE3ECC42CA46C872C676C47AC27EC00B
:1019C400D53BF250E2525253C2533255A2551256ED
:1019D40082567247E2475248C248324EA24E124FD4
:1019E400824F216173002030172700001307C7724C
:1019F4008346B7019727000083C7D7744C4BB6972B
:101A0400FD8B33D7F50097260000A387F670972641
:101A14000000A389F672058B15EF17270000034712
:101A2400B772B3F7E702814601471305000233D6C4
:101A3400E500058A1378F70F19CA6397D70097272B
:101A44000000A38B076D8280850693F6F60F0507C9
:101A5400E31FA7FC82809727000083C7776AD9E732
:101A6400938781849C43411122C426C206C682976F
:101A7400972700009387476C8047BE846303A406BE
:101A840063688504018D135455009727000083C7AC
:101A9400476A6368F404893F98449727000083C722
:101AA40047699396570036971D8C9726000023A903
:101AB400E668E372F4FE2244B24092441725000023
:101AC4000345956581454101176301E06700E32CF7
:101AD400972700009387C75BDC43338487402295B4
:101AE4005DB7B24022449244410182808280938750
:101AF40081849C43011122CC4AC806CE26CA4EC614
:101B040082979727000093872763804701496301E1
:101B1400A406BE8463668506018D13545500972779
:101B2400000083C707611379F5016360F404972902
:101B340000009389E9554D3D03A8840097260000D1
:101B440083C6265F139756004297158C3A8683A561
:101B54004900636407016364B7003306B7409727FD
:101B6400000023AFC75CE378D4FC16043369240176
:101B7400F24062444A85D2444249B24905618280B6
:101B8400972700009387C750DC433384874022950E
:101B940069B79387818898438567938707777CD350
:101BA400938701899C4383A60709139656006358BB
:101BB400060083A60709139666006344060074535F
:101BC400FDF2828061C1AA870145DDCD8D07C20780
:101BD400C183F19BC207C18313074003636BF70200
:101BE4001387418A08431387C18914436396A60265
:101BF400172700001307C741185B014551C741115E
:101C0400C20706C60545DD8D0297B2400145410174
:101C140082801387018AF9B70357650035E30357B8
:101C24004500636FF704B306F7402146637CD60290
:101C340003280500938687001D8FAA96611717262F
:101C44000000035606412392E60023A006012393D5
:101C5400060014C12312F500130786FF972600001F
:101C64002399E63E2313B5009725000083D5653EEE
:101C7400B387F54017270000231DF73C2105828018
:101C84000841ADB701458280828009CD9387418A9E
:101C940003A307009387C18983A8070081469A8715
:101CA40063E31701828003A807006369F50A636789
:101CB400A80A13878700E367E5FE03D66700216758
:101CC40005076317E60003C7F1860507A387E186C6
:101CD400972500009385853703D6470003D7650011
:101CE40023930700329742074183172500002312EC
:101CF400E536638867021385018A08416303F502A8
:101D040003D5660019ED83D7460023A006012107F9
:101D14003E9621062392C60097270000239BE732B4
:101D2400B6879843E30017F99386018A9442E30B3C
:101D3400D7F683566700BDF683D64700035647009F
:101D44001843A106B2962392D70098C383D765009F
:101D5400A10717270000231EF72E8280BE86C287A4
:041D640081B7000043
:101D680097110020938101B5176100201301012903
:101D78001305400097E5FF1F9385452817060020A7
:101D8800130606FE63FAC5008322050023A055004A
:101D980011059105E3EAC5FE17B5010013050527EE
:101DA80097050020938505FC1386018263FAC50018
:101DB8008322050023A0550011059105E3EAC5FE1D
:101DC80013850182972500209385854B6377B5009D
:101DD800232005001105E36DB5FEFD42739002BC9A
:101DE8008D4273904280930280087390023097E28C
:101DF800FF1F9382A22093E2320073905230972201
:101E08000000938282D973901234730020303971A4
:101E180001436EC619A0397141536AC866CA62CCBB
:101E28005ECE19A0397101535AD056D252D44ED62B
:101E38004AD826DA22DC06DE33016140828241116B
:101E48004AC026C222C406C68282B24D4101024D52
:101E5800924C224CB24B4101024B924A224AB2495F
:101E68004101024992442244B240410182803D43EB
:101E78002A876373C3029377F700BDEFADE59376C6
:101E880006FF3D8ABA960CC34CC30CC74CC7410722
:101E9800E36BD7FE11E28280B306C3408A0697023D
:101EA800000096966780A6002307B700A306B70030
:101EB8002306B700A305B7002305B700A304B7009E
:101EC8002304B700A303B7002303B700A302B70096
:101ED8002302B700A301B7002301B700A300B7008E
:101EE8002300B700828093F5F50F93968500D58D72
:101EF80093960501D58D61B7939627009702000048
:101F080096968682E78086FA9680C1171D8F3E9640
:101F1800E374C3F8A5B73367B500FD530D8B79E7B4
:101F2800B7877F7F9387F7F710419441B372F60024
:101F38003363F600BE92B3E262006397720C6318D3
:101F4800D6065041D441B372F6003363F600BE9210
:101F5800B3E262006398720A631BD6041045944585
:101F6800B372F6003363F600BE92B3E26200639187
:101F7800720A631ED6025045D445B372F600336325
:101F8800F600BE92B3E26200639A72086311D60249
:101F980010499449B372F6003363F600BE92B3E277
:101FA8006200639372085105D105E30FD6F6131743
:101FB800060193970601631CF7001357060193D790
:101FC80006013305F7409375F50F91E98280418347
:101FD800C1833305F7409375F50F91E1828013773C
:101FE800F70F93F7F70F3305F74082800346050094
:101FF80083C60500050585056313D60065FA330514
:10200800D640828011059105E312D6FE01458280F3
:102018002105A105E31CD6FC014582803105B105E7
:10202800E316D6FC014582804105C105E310D6FCC4
:1020380001458280B717004003C777051377E70F7C
:10204800A38BE704130700F8A38DE7043D47238C0F
:10205800E70413075003A38CE7048280B7170040F6
:1020680083C7E7020D8993F7C70FC98F73270080CD
:10207800218B9386018209CB7327008023A0E182FC
:1020880098425D9B731007800100010037170040DC
:10209800130670052300C704130680FA2300C7043B
:1020A800010001002307F7022300070473270080BB
:1020B8009C42A18BD98F7390078023A001820100D5
:1020C8000100828041112A83014E930E407E130F36
:1020D8000019930F400663E66E1493080019130362
:1020E8004006B3781503854E0D4FA14F3373650233
:1020F8000D891335150063E0BE161308F6FF7946FF
:1021080072984208135808013307C70213D61700FC
:10211800BE0732976146B3F6C60213068070B386CF
:10212800C6023697A166F58F42075D8FB716004045
:1021380083C7F60293F70708A307F1000346F100E7
:1021480083C7F60293F70708E394C7FE8347F100B5
:10215800B716004093F7F70F63890714F327008039
:10216800A18B938601826398071401000100B717B9
:102178000040130670052380C704130680FA2380E5
:10218800C7040100010023AA070303C61703136647
:102198000608A388C70223800704732600809C4290
:1021A800A18BD18F7390078023A0018201000100C9
:1021B8001166B71500407D16DC59C85DA98FF18FEF
:1021C800E5FFF3270080A18B89CBF327008023A0AC
:1021D800F1829C42DD9B7390078001000100B717D4
:1021E8000040130670052380C704130680FA238075
:1021F800C70401000100D8DB03C7170313670704EE
:10220800A388E70223800704732700809C42A18BE0
:10221800D98F7390078023A001820100010041013A
:1022280082807D133368E3039308E016630E080089
:102238003368F3039308D0166308080093783300D3
:1022480093B818009388D81633081E01131E080186
:10225800135E0E0149B56393E503054863860800DC
:102268000148630303002A8871087298FD15131E3C
:102278000801C205135E0E01C181B5BD13F8150032
:1022880063F4BF007908D5B713381800E5BF83C7D2
:10229800F60293F70708A307F1000346F10083C786
:1022A800F60293F70708E394C7FE8347F10093F714
:1022B800F70FF1DF65B5F327008023A0F1829C4278
:1022C800DD9B7390078055B54111B7170040985FA3
:1022D8003AC6945F3247E39CE6FE3245410182806C
:1022E8005971E2C486D6A2D4A6D2CAD0CECED2CC58
:1022F800D6CADAC8DEC6E6C2EAC06EDE2A8C02D6C4
:10230800EF00101FF3270080A18B138D018291CB62
:10231800F327008023A0F18283270D00DD9B7390B3
:10232800078001000100B7170040130770052380DC
:10233800E704130780FA2380E7040100010003C7BC
:10234800F7021377770FA387E70203C7F70213672C
:102358008700A387E7022380070473270080832769
:102368000D00A18BD98F7390078023A001820100F3
:102378000100F3270080A18B91CBF327008023A0D5
:10238800F18283270D00DD9B739007800100010017
:10239800B7170040130770052380E704130780FA76
:1023A8002380E7040100010003C7E7021377C70F82
:1023B8002387E70203C7E702136717002387E702AB
:1023C800238007047327008083270D00A18BD98FF2
:1023D8007390078023A0018201000100130780C1C8
:1023E8003347E5029169938709E8130650023D696E
:1023F800B7440F0093840424856B130BA004014A8F
:10240800814A13047005FD19B347F5023307C70263
:102418003EC2930709A61309803E3347F7023AC420
:102428003347250305493319890113593940334581
:10243800950293840BFAB3948401811B3306C70277
:10244800B346F6023309E90236C6330B67031307AE
:102458006055B3049502130500103309E902B34629
:10246800FB02130B80FAB3C4A40236C8B347F902BF
:10247800939634003719004036CC930409043ECAB9
:1024880073260080218A11CA7326008023A0C18286
:1024980003260D005D9A7310068001000100930762
:1024A80070052380F40023806401010001000346C5
:1024B80039051376860FA309C9040346390513663F
:1024C8001600A309C904238004007325008003268D
:1024D8000D00218A498E7310068023A00182010015
:1024E8000100916CE17D73260080218A11CA732650
:1024F800008023A0C18203260D005D9A7310068018
:1025080001000100930770052380F4002380640113
:10251800010001000346390513660602A309C90430
:1025280003560905336696012318C904035609059D
:102538003366B601420641822318C9042380040089
:102548007325008003260D00218A498E73100680AA
:1025580023A0018201000100034639051376060213
:102568006300061603463905218A6DDE6810EF0000
:10257800407C73260080218A11CA7326008023A01C
:10258800C18203260D005D9A7310068001000100C8
:10259800238084002380640101000100034639057B
:1025A8001376F60DA309C904034639051366060216
:1025B800A309C90403560905336696012318C904FB
:1025C800035609053366B601420641822318C90439
:1025D800238004007325008003260D00218A498E7C
:1025E8007310068023A0018201000100034639050B
:1025F800137606026302061003463905218A6DFE2A
:10260800E1312A8632CEC9317246E30DC5FE035642
:1026180009053255336696012318C9040D2F034660
:102628003905218A6DDE03550905034629059247B8
:1026380033F5A9003386C90232951D8DA24763D5AB
:10264800A700B2476346F50E09466365560FC247B1
:10265800850A1316150093FAFA0F3346F602635EDD
:10266800A038050609453346A6027325008021894E
:1026780011C97325008023A0A18203250D005D994F
:102688007310058001000100238084002380640109
:10269800010001000355C9022A9642064182231609
:1026A800C902238004007325008003260D00218AB7
:1026B800498E7310068023A001820100010025B510
:1026C80073260080218A11CA7326008023A0C18244
:1026D80003260D005D9A7310068001000100238017
:1026E8008400238064010100010003463905136654
:1026F8000602A309C90499B573260080218A11CA64
:102708007326008023A0C18203260D005D9A7310F2
:1027180006800100010023808400238064010100F9
:1027280001000346390513660602A309C9044DB51D
:10273800E38F0AF073260080218A11CA732600806D
:1027480023A0C18203260D005D9A73100680010044
:1027580001002380840023806401010001000346F6
:1027680039051375FC0F1376860FA309C9040346B0
:102778003905498EA309C904238004007328008001
:1027880003260D00218A336606017310068023A0F4
:10279800018201000100034639051D8A631186275D
:1027A80073260080218A11CA7326008023A0C18263
:1027B80003260D005D9A7310068001000100238036
:1027C8008400238064010100010003463905116576
:1027D8001376F60DA309C9040346390513660602E4
:1027E800A309C90403560905498E2318C9040356C9
:1027F80009052165498E2318C9042380040073251F
:10280800008003260D00218A498E7310068023A0BC
:1028180001820100010003463905137606026308A8
:10282800062003463905218A6DDE681019237326B0
:102838000080218A11CA7326008023A0C182032642
:102848000D005D9A7310068001000100238084004A
:1028580023806401010001000346390511651376E0
:10286800F60DA309C9040346390513660602A30930
:10287800C90403560905498E2318C90403560905D6
:102888002165498E2318C90423800400732500801C
:1028980003260D00218A498E7310068023A0018229
:1028A800010001000346390513760602630D061A76
:1028B80003463905218A6DFE013CAA8C3134E30FA9
:1028C80095FF035609051165498E32552318C90429
:1028D800BD2903463905218A6DDE73260080218AC9
:1028E8001385018209CA7326008023A0C182104182
:1028F8005D9A731006800100010023808400238004
:10290800640101000100034639051376F60DA30999
:10291800C90423800400732800801041218A33668B
:1029280006017310068023A00182010001000358EC
:10293800090503462905E24733F809013386C90228
:1029480032983308F8401306800C3306C802D24781
:102958003346F60263550015050609483346060353
:102968006351C0140358C9029308F00F1358580054
:10297800329863D6081F094663734619F327008007
:10298800A18B89CBF327008023A0F1821C41DD9B1A
:102998007390078001000100371700409307700506
:1029A8002300F704930780FA2300F70401000100CD
:1029B8008356C70289678117D58FC207C18323163B
:1029C800F70223000704732700801C41A18BD98FCD
:1029D8007390078023A0018201000100B65026549D
:1029E80096540659F649664AD64A464BB64B264C83
:1029F800964C064DF25D656182807D16A5B1732601
:102A08000080218A11CA7326008023A0C182032670
:102A18000D005D9A73100680010001002380840078
:102A280023806401010001000346390599B3732628
:102A38000080218A11CA7326008023A0C182032640
:102A48000D005D9A73100680010001002380840048
:102A5800238064010100010003463905136606025C
:102A6800A309C90459BB73260080218A11CA732699
:102A7800008023A0C18203260D005D9A7310068092
:102A8800010001002380840023806401010001000B
:102A98000346390513660602A309C904F5B37D1672
:102AA8006DBD55CE0358C902B308C040135858002D
:102AB8006357180B094663744605F3270080A18BFA
:102AC80089CBF327008023A0F1821C41DD9B739002
:102AD800078001000100B717004013077005238025
:102AE800E704130780FA2380E7040100010003D7F5
:102AF800C7027D8B2396E70223800704E9B5732676
:102B08000080218A09CA7326008023A0C18210414F
:102B18005D9A7310068001000100238084002380E1
:102B28006401010001000356C9021376F60F3366EB
:102B38007601420641822316C902238004007328C5
:102B480000801041218A336606017310068023A095
:102B5800018201000100050A137AFA0F15B2F32762
:102B68000080A18B89CBF327008023A0F1821C4130
:102B7800DD9B7390078001000100B7170040130721
:102B880070052380E704130780FA2380E704010017
:102B9800010003D7C70216063A96420641822396D9
:102BA800C70299BF914763EEB70217970100130751
:102BB800E73A8A05BA959C41BA978287B7170040C9
:102BC80003A7470B1345F5FF698F23AAE70A03A755
:102BD800070B698F23A8E70A03A7070A798D23A0A3
:102BE800A70A8280B717004083A6470B1347F5FF53
:102BF800F98E23AAD70A83A6070B558D23A8A70AFF
:102C080083A6070A758F23A0E70A8280B7170040BA
:102C180003A7470B498F23AAE70A03A7070B134506
:102C2800F5FF45BFB717004083A6470B1347F5FFCD
:102C3800758F23AAE70A03A7070A598D4DB7B71757
:102C4800004003A7470B498FEDB7914763EEB702E2
:102C5800179701001307C7318A05BA959C41BA979F
:102C68008287B717004003A7470D1345F5FF698F03
:102C780023AAE70C03A7070D698F23A8E70C03A76E
:102C8800070C798D23A0A70C8280B717004083A674
:102C9800470D1347F5FFF98E23AAD70C83A6070D16
:102CA800558D23A8A70C83A6070C758F23A0E70CC6
:102CB8008280B717004003A7470D498F23AAE70C66
:102CC80003A7070D1345F5FF45BFB717004083A6B7
:102CD800470D1347F5FF758F23AAE70C03A7070CC9
:102CE800598D4DB7B717004003A7470D498FEDB76A
:102CF800B717004003D58700420541819377050443
:102D080091EB9377F5013755E801130505803345B5
:102D1800F50282809377050C130700046397E70098
:102D28009377F50137459C1CCDB72165130505D070
:102D3800828037E700E01C435443A183E206D58F25
:102D48001CC1FD572320F7182322F7188280131778
:102D58008500B7E700E023A0E710618123A2A71050
:102D68008280B7F700E08847CC47828081473737B1
:102D78000040A14663C4C700328582800345B7403E
:102D8800E38EA6FE3385F500034505008507230479
:102D9800A740CDB797F7FF1F9387C7319C431717F5
:102DA80000201307E74D3E95636EE5001757002096
:102DB8001307C7046368A70017F7FF1F232CA72E64
:102DC8003E858280FD57EDBF411122C406C62A8484
:102DD80005372947B307E502B2408D83B3D7870289
:102DE80022449507B3D7E70237370040C207C183AB
:102DF8002316F740410182807165411113050520B2
:102E080006C6D937B7370040130770F82381E74063
:102E18000D47A381E74013070004A380E740054757
:102E28002387E740B240410182802382018223A4A4
:102E38000182B717004003A7070CB706C0FFFD16AD
:102E4800758F23A0E70C03A7070DB7064000558F21
:102E580023A8E70C03A7070C3D9B23A0E70C03A7B7
:102E6800070D1367070123A8E70C828023A4A1821A
:102E780013064006894503C5C1826F30E120B717A4
:102E8800004003A5470C83A7470C5981134515003B
:102E9800C18B058999E31365250083C74182638C3B
:102EA800A7002382A18201C99387818203A3070017
:102EB800630303000283828011456FF06FC24111E2
:102EC80093962500AA852D4506C697D0FF1FE78053
:102ED8008078B240014541018280411126C2939415
:102EE800250022C44AC02A843289A686AA850146BA
:102EF800254506C697D0FF1FE780E075A6864A8657
:102F0800A285294597D0FF1FE780E074B24022448C
:102F180092440249014541018280011122CC06CE2A
:102F28003714004026CA4AC84EC652C483447405A2
:102F3800034AB4058349840503499405EFF08F8F4C
:102F48008347A40593F4F40F137AFA0F93E7170055
:102F5800230DF40493F9F90F1379F90FB71700400B
:102F680003C7A705058B6DFF03D5C705A38D4705C7
:102F7800238C3705A38C2705A38B9704F240624462
:102F8800D2444249B249224A05618280411193974D
:102F9800050122C406C6C1872E8463DA0700EF2024
:102FA800516219C1EF20D15A2165218D1DA093F7D7
:102FB800150013C5150091EF93F7250099CFC1357A
:102FC8001306000A894503C5C182EF30E10B13459A
:102FD8002400B2402244410182809397250163D0A6
:102FE8000702EF401141C93D37F60200130606E01B
:102FF800896503C5C182EF30210909657DB79397BB
:1030080015010145E3D707FC17950100130505FCD9
:10301800EF70B14E13060064916503C5C182EF30AD
:10302800A106116559B71D71494697950100938509
:1030380065F517A501001305E5DF86CEA2CC97E05C
:10304800FF1FE780E0D301E9179501001305C5F4D8
:10305800EF70B14A01A037F700E0795610CBFD5662
:1030680054CBB7E700E0056423A087109306F0026D
:1030780014C323A08718010001001306C00381456B
:10308800480897E0FF1FE78020CA9707002093872A
:10309800E7963ECAB5472304F102A167938707E084
:1030A8003ECEB7070105938707103ED0ED472312A0
:1030B800F10285472303F10297070000938767E031
:1030C800BEC497070000938787E1BEC685679387CC
:1030D80017D82315F102970700009387C7C83EDA6F
:1030E800B7F5070097070000938767E33EDE814640
:1030F80097070000938787DC7000E1051945BEC07B
:10310800231C810097D0FF1FE780E05458088147AF
:10311800994670003E960346060085070507A30CEE
:10312800C700E398D7FED24791C703578101856747
:103138006373F70001A04808EF30A135AA8501C9DB
:1031480017950100130585E6EF70F12601A0F640FA
:10315800664425618280411117050000130545E387
:1031680006C622C4EF30612F1384C1822300A40055
:1031780031286539034504002244B24037F602007D
:10318800130606E0896541016F201170411106C6DA
:10319800F3270080A18B1387018289CBF327008056
:1031A80023A0F1821C43DD9B73900780010001007E
:1031B800B7170040930670052380D704930680FA5A
:1031C8002380D7040100010083C6F70293F6A60FF7
:1031D800A387D70223800704F32600801C43A18B12
:1031E800D58F7390078023A0018201000100F32787
:1031F8000080A18B89CBF327008023A0F1821C4398
:10320800DD9B7390078001000100B717004093060B
:1032180070052380D704930680FA2380D704010021
:10322800010083C6F70293E62600A387D70223800E
:103238000704F32600801C43A18BD58F7390078069
:1032480023A00182010001000545EFE03FE1AD3117
:103258001305407E81470147814605468545EFE0D5
:103268007FE6B240014541016F30414841119795D1
:103278000100938525D9179501001305A5EF06C60A
:10328800EF707113179501001305C5EFEF70B112B8
:103298002945EF705116B24041016F20E04E4111AF
:1032A80097950100938545D417950100130585EC82
:1032B80006C6EF70511013050002EF70D1132945AF
:1032C800EF707113EF20114F8567138607773376F8
:1032D800C502B2409387873803C5418385454101BC
:1032E8003E966F20715A411197950100938545CEFE
:1032F80017950100130505E806C6EF70D10B1305F5
:103308000002EF70510F2945EF70F10EB24003C56E
:103318004183854541016F20B1699707002083C724
:10332800F77A411193F7E70F06C617070020A30F96
:10333800F778EF90603A05E1EF10D066EF20B02003
:10334800B2403726090003C541831306067C85452C
:1033580041016F207153B24041018280411197951C
:103368000100938565C9179501001305A5E006C6F8
:10337800EF7071042945EF701108B240410171BF27
:10338800411197950100938565C5179501001305AF
:1033980065DE06C622C426C24AC0EF70D10129459F
:1033A800EF707105EF90403319E52244B240924422
:1033B800024941019DB717F4FF1F1304E4A43C48D8
:1033C800F5747179FD14239027012391970017F55F
:1033D800FF1F130565A7EFC0F0227C4417F5FF1FF8
:1033E800130585A617F4FF1F1304C4A8239007002C
:1033F800EFC0B01F1C482285239027012391970016
:10340800EFC050205C4422852244B24092440249D5
:103418002390070041016FC0501D4111979501008D
:10342800938505BF179501001305C5D406C622C4A8
:1034380026C2EF7041782945EF70E17BEF90C029F3
:1034480005E9979501009385A5BC1795010013051B
:1034580065D2EF70417617950100130565D4EF70BA
:1034680081752244B2409244294541016F70A17888
:1034780013050002EF0010352A8405E19795010035
:10348800938505B9179501001305C5CEEF70A17294
:1034980017950100130545D2D9B7A547A300F50034
:1034A8009307C0125CC1FD572306F500EF0070308A
:1034B8002300A400084CB705D4009385851A31056C
:1034C800EF108017084C834504003105EF20702465
:1034D800084C930500103105EF20F024044C0565D5
:1034E800CD29B104AA852685EF20B0222285224461
:1034F800B240924441016F00903293F71500B9CB66
:10350800411122C4179501001305C5C62E8497954D
:103518000100938525B406C6EF70E1692945EF706F
:10352800816DEF90601B01C9CD3D13451400B24079
:103538002244410182809707002083C7375993F7B7
:10354800E70F93E7170017070020A301F758EF10BC
:10355800F046E1BF01458280797197950100938516
:1035680065AC179501001305E5C006D6EF70A16498
:103578002945EF704168614681452800EFE03F8F9B
:10358800EF003023A547A304F1009307C0122304DA
:10359800A1003EC60565FD57230AF1007923EF9087
:1035A800A0131DE5979501009385C5A71795010000
:1035B800130545BCEF70216017950100130545BE42
:1035C800EF70615F2945EF700163B25045618280F9
:1035D8002800EF00B025D5BF4111979501009385CC
:1035E80065A5179501001305E5B806C622C4EF7056
:1035F800815C2945EF702160EF90000E1DE59795DD
:103608000100938525A3179501001305A5B6EF7052
:10361800815A179501001305A5B8EF70C1592244C6
:10362800B240294541016F70015D4145EF00901995
:103638002A8405E1979501009385C59F1795010098
:10364800130545B3EF702157179501001305C5B64B
:10365800E9B7A547A300F5009307C0125CC197A777
:103668000100938727985CC9FD572306F500EF00F2
:1036780050142300A400084CB705D4009385851A7C
:103688003105EF00707B084C834504003105EF20BD
:103698005008084CBD65A5053105EF20D008084C39
:1036A800930530023105EF20D00622852244B2402E
:1036B80041016F00D016411122C4979501009385EE
:1036C800A5982A84179501001305C5AA06C6EF70A8
:1036D800814EA285179501001305C5ABEF70A14D6A
:1036E8002945EF70415185476309F4008947630A0A
:1036F800F400B2402244410182802244B240410198
:10370800A1BD2244B2404101C1BD01113546979582
:1037180001009385A59B17950100130565E006CE6A
:1037280022CC97D0FF1FE780A0650DE59795010093
:1037380093854593179501001305C5A3EF70A1471D
:103748001795010013054585EF70215B2945EF703A
:10375800814A01A097F7FF1F9387C7A03EC48567DA
:1037680093870780340017A60100130626889795CB
:103778000100938525B417950100130525B53EC6AC
:10378800EF10904C2A840DC9979501009385858D7B
:10379800179501001305059EEF70E141A285179565
:1037A80001001305A593EF7001412945EF70A1446D
:1037B800F240624405618280EF70104F1795010056
:1037C8001305458BEF00B06DEF40304FEFE06057C9
:1037D80017E5FF1F13054569EFE040441795010001
:1037E8001305458AEFE0A0572A84EF104047EF9071
:1037F800307FEF00A175EF20805CEF10D021EFC083
:10380800005C979501009385E585179501001305E0
:10381800659609C8EF70213AA2851795010013052E
:10382800258E51B7EF702139179501001305858F43
:10383800EF7061382945EF70013CEFC0A03EEF8082
:10384800B06929C5979501009385C5811795010031
:1038580013054592EF702136179501001305058E63
:10386800EF7061352945EF7001399785010093851F
:10387800657F179501001305E58FEF70C133179524
:1038880001001305E58DEF70013305B77934F1BFF9
:10389800411117050000130585C606C6EF20F13B48
:1038A800238AA18217E5FF1F1305C55CEF00D0002E
:1038B800A93DEFF08FD717050000130505E0EFF0DD
:1038C800EFDAB24081450565410121AA39711C082A
:1038D80022DC3EC22E84B7072000A16526DA3EC44A
:1038E800AA841C0893854520480006DE3EC6EF00E2
:1038F800B054B717004083A5470C4800B18193C561
:1039080015008589EF20E060979501009385458C27
:103918001795010013050586EF70E129835584008A
:10392800035664001795010013054594A18193F58A
:10393800F507EF7041282945EF70E12B8347940084
:103948000147814693F7F707D917B337F000B30754
:10395800F0402305F4005000A2852685EF00106E84
:1039680015C52A84979501009385858617950100CA
:1039780013054580EF702124A285179501001305D2
:103988006590EF7041232945EF70E126F2506254AB
:10399800D25421618280411122C426C22A84AE8475
:1039A800178501001305057D97950100938585838B
:1039B80006C6EF70412013050002EF70C1232945A8
:1039C800EF70612322852244B240A68592444101CA
:1039D800F5BDB717004083A7470C7D8D133515003B
:1039E8008280411126C2AE848D4522C406C62A842F
:1039F800EFF0AFA5B717004099C803A5C70C418DD4
:103A080023A6A70CB240224492444101828003A518
:103A1800870C418D23A4A70CF5B7011197850100E8
:103A28009385457E178501001305C57432C606CEF9
:103A3800EF70611813050002EF70E11B2945EF7064
:103A4800811B3246B717004083A7470C1842B18341
:103A58008345070093C71700858B6386F500F240FE
:103A680005650561BDBFF24005618280797122D488
:103A780026D22E844AD081453289AA8461462800FC
:103A880006D6EFE0CFBE3523A547A304F100930780
:103A9800C0123EC62304A100EF20C15193072003A2
:103AA8003375F502978501009385C5742AC8178573
:103AB80001001305256CEF700110835584008306FF
:103AC800840003566400A18193F5F507178501006A
:103AD80013058577EF70210E2945EF70C1118327F3
:103AE8000900056583C50700ED3D83479400294714
:103AF80093F7F7076385E700FD57230AF10083175B
:103B080064006359F000FD57230AF100930740064B
:103B180002C83EC62800192BA2852685453BB2500F
:103B28002254925402594561828041118D4522C424
:103B380006C62A84EFF06F91B717004003A5870CDB
:103B4800B240218D224423A4A70C41018280011197
:103B5800354697850100938565571795010013052C
:103B6800259C06CE97D0FF1FE780802101E91785A5
:103B780001001305A572EF70411801A0EF50A13E96
:103B88002AC6EF00A17EEF00E15DEF60D056F2405B
:103B980032450561828041111305800406C697C02D
:103BA800FF1FE780C04E371700408327870A8D45DF
:103BB8001305002093E707202324F70AEFE09FFE70
:103BC800EFF08FA3179501001305C526EF70E112DA
:103BD800179501001305C594EF702112EFF0AFC4DB
:103BE800EFF06FD7AD376D3197D0FF1FE780409A60
:103BF800014582804111B2862E86AA852D4506C6CA
:103C080097D0FF1FE78020A5B2400145410182807F
:103C1800AE860146AA85254517D3FF1F6700A3A3D3
:103C28009307000463E6C7021D71A2CC2A84080822
:103C380086CE32C6EF60D16CB2461008A2852945FF
:103C480097D0FF1FE78020A1F64066442561828057
:103C5800395582800147978601009386E67D33882F
:103C6800E50083470800050709059183B69783C7D0
:103C78000700230FF5FE83470800BD8BB69783C75F
:103C88000700A30FF5FE93170701C183E3E9C7FCFB
:103C980082804111978501009385C56B17850100C6
:103CA8001305454D06C6EF60117113050002EF605C
:103CB8009174B240294541016F60F17341119785B4
:103CC800010093852567178501001305A54A06C6D7
:103CD800EF60716E13050002EF60F171B240294583
:103CE80041016F60517141119785010093854563CA
:103CF800178501001305054806C6EF60D16B13054B
:103D08000002EF60516FB240294541016F60B16E0A
:103D18004111978501009385E55F1785010013051B
:103D2800654506C6EF60316913050002EF60B16CA6
:103D3800B240294541016F60116C4111978501001E
:103D48009385855C178501001305C54206C6EF609B
:103D5800916613050002EF60116AB24029454101DE
:103D68006F6071695C49411122C406C62A8491C7F3
:103D7800DC4381C72E850C4882971C4CC84BEF103A
:103D8800317D1C4CB240224423AA070041018280A5
:103D98004111328506C622C426C22E844AC0EF20AD
:103DA800A021AA84978501009385C559178501002C
:103DB8001305453CEF603160030784000356640037
:103DC80083554400A686178501001305256AEF6010
:103DD800915E2945EF60316217040020130444C73F
:103DE800170900201309C9CC83470400639B970077
:103DF80081452285853F8345C40103C56183EF2042
:103E0800213B13040402E31124FFB24022449244EC
:103E18000249410182801D719707002083C707C5A9
:103E2800CEC686CEA2CCA6CACAC8D2C4ED8F970980
:103E380000209389E9C1D9EF9707002083C707C5F8
:103E4800ED8FD9EB9707002083C747C6ED8F014553
:103E5800B5CB8947939457001C103EC4B707200080
:103E68003EC617EAFF1F130AEA001C103EC8832744
:103E7800CA0002CA02CC02CE83D707003384990055
:103E8800184C231BF100FD77231CF1005C4B2E8995
:103E9800B1E7978501009385E54E17850100130565
:103EA800652DEF605151178501001305A553EF608B
:103EB80091502945EF603154B387990003C5C70174
:103EC8003345A900F6406644D6444649B649264AD1
:103ED800256182808147BDBF8547ADBF83471400F8
:103EE800A555B9CFFD17035607014C47A300F400A9
:103EF8008347C4002800230FF100EF10B07F5285DC
:103F08002287979601009386E60E30004C08EF0052
:103F1800F0122A8A55D1978501009385A546178501
:103F2800010013052525EF601149D2851785010089
:103F38001305054CEF6031482945EF60D14BD55545
:103F480022850D3595BF9C4DDC4B81CBD04183C577
:103F5800C50103C561836F20211382801C4EDC4B91
:103F6800A1CBB9C5411126C21785010013058520CB
:103F7800AE84978501009385254006C622C4328405
:103F8800EF607143A685178501001305254CEF6086
:103F980091422945EF6031468345C4012244B2402D
:103FA800924403C561831306400641016F20C10D89
:103FB80082809387518303C5070013071500238068
:103FC800E7008280011122CC17040020130444A8C2
:103FD80026CA044C06CE4AC8DC484EC699CF045CB3
:103FE800DC4895CB244CDC488DCB0145F24062443B
:103FF800D2444249B249056182800149AA89160919
:10400800EF10D157C8C8330524011C4D2399370137
:10401800DC4BE9FFD9BF0549D5B70949C5B71045F4
:104028008345C50103C561836F200106411126C27E
:10403800AA84414506C622C4713705E9978501005F
:1040480093854535178501001305C512EF60B13614
:104058001785010013054516EF60F1352244B2407B
:104068009244294541016F6011396146A6852A8429
:10407800EF601129084CB705D4009385851A3105DE
:10408800652B084C83C504003105EF109068084C77
:10409800930500103105EF101069044C0565EFF029
:1040A8005F93B104AA852685EF10B0662285224465
:1040B800B24092444101A5B7B707B1E59387871A83
:1040C80017070020232EF79EB707003F9387570254
:1040D800170700202328F79EB77763A715719387E2
:1040E800C7AE170700202321F79E88109307802F5B
:1040F80086CF17070020232BF79CA2CDEF00815213
:10410800B70725E511464C0028103EC2EFF09FB4D2
:1041180097850100938545290818EF60D13E194617
:10412800978501009385852F13051103EFF09FB242
:1041380097850100938545271305D103EF60B13CAE
:104148004146978501009385C52D1305E103EFF0DE
:104158007FB0130660032C108810EF006153854769
:104168006308F50A978501009385C51F1785010027
:1041780013054500EF603124178501001305052359
:10418800EF6071232945EF601127EF10B162935753
:10419800850003C75183AA97BA9713570501BA97A1
:1041A8006181AA97A38AF1829707002093870785E0
:1041B80017070020232AF78A8547170700202307B7
:1041C800F78A970700209387278517070020232D54
:1041D800F78A894717070020230AF78A97070020DC
:1041E80093874785170700202320F78C17050000C1
:1041F8001305A5C29147170700202309F78AEF2066
:10420800C125FE406E44238BA18201452D61828029
:104218002A848C102800EF00C14D63018502978520
:10422800010093852514178501001305A5F4EF6097
:104238009118178501001305E51899B741462C0018
:10424800170500201305C586EF60910B3DBFEFD21F
:104258007FBD2A8408452E89B28909C900C19705FE
:1042680000009385C5736105EFF0306181447D5A84
:10427800EF10A00363C3A4048144EF10000463C6D5
:10428800A40497070020938767859C43DC47B307FE
:10429800F94091872302F400638109048327C90048
:1042A800B307F4409587A302F4001C4C89C79C47C8
:1042B80099C3228582976FD03FBA5C441397140044
:1042C8008504BA972390470165B71C4813971400D3
:1042D8008504BA97239007004DB7832789000547BF
:1042E800B307F4409587A302F40083570400638E54
:1042F800E7028DC309476384E7040D47E397E7FAAC
:1043080097870100938787701CCC97870100938754
:10431800E77011A8978701009387C7361CCC978749
:104328000100938727375CC849B7978701009387AF
:1043380067221CCC978701009387C722EDB7978720
:104348000100938767711CCC978701009387C77119
:10435800D9BF85E1EFD2BFAE004618448347940029
:1043680075839D8B6315F700EF00901948C46FD0D3
:104378005FAF8280EFD21FAB13893500C164420959
:104388004111AA890144F11413590901054A2EC69D
:10439800EF00B071B2456346A400014541016FD0FA
:1043A800BFAB83A7090013171400BA9783D7070078
:1043B8006388B7006394970063742A010504C1BF3A
:1043C8000545E9BFEFD23FA5AA892E89328BB6846D
:1043D8003A8ABE8AEF8040304DC12685EF10702D95
:1043E8008D4763E5A7007D556FD07FA683DB44002A
:1043F800EF00B0712A84EF00907293077400314483
:104408003305850263C5A702EF003070EF00F06F37
:104418002A84EF00D0709307740031443305850275
:1044280063CDA702EF00706E9307450019A8EF004F
:10443800106F330585021307F0179307C017E3576A
:10444800A7FC2D55E3C277FB63000B02D686528684
:10445800A6854A85EFE0104441BFEF00506C330554
:1044680085029307C5FFF1BF832749001385C9005B
:1044780083D52700013779F9BDB76955B5B797F7DF
:10448800FF1F239FA76497F7FF1F93872765904314
:1044980081470C463307F500420741836393B70011
:1044A80082805446139847008507C2962390E600F9
:1044B800D5B797F7FF1F938767629C4303C58700AB
:1044C800828017F5FF1F0355A5618280EFD23F97C1
:1044D800C1671387D7FF6307E5026368A700F11771
:1044E800630EF50001456FD0DF971387E7FF630E72
:1044F800E500FD171D8D13351500F5B7EF40603445
:104508007D15D5BFEF40E011E5BFEF404010CDBFAE
:10451800EFD2FF924111AA8401442EC6EF00F05950
:10452800B2456346A400014541016FD09F939C4862
:10453800131514003E9583570500E387B7FE05045D
:10454800E9BF03485500814693F7F60F63E5070175
:1045580081473E858280584593975600BA9703D77E
:1045680027006316B70003D70700E304C7FE8506D4
:10457800E1BF8346450001479377F70F63E4D7000F
:10458800814711A81C45131657000507B29703D693
:104598000700E313B6FE3E858280EFD2BF889317EB
:1045A8000501C18797FAFF1F938A4A536353F0089E
:1045B80083A70A00C0479C4703570400198D42058A
:1045C80041816366F500014422856FD0FF8812059A
:1045D8002A94DDBFDC4713944900014A3E9483477F
:1045E80044006341FA02014A834754006346FA02D1
:1045F8008509C20993D9090183A70A009847E3EB03
:10460800E9FCD1B71C4413195A00A6853E994A857E
:10461800013709ED050AE1B75C4413195A00A6856C
:104628003E994A85F53519E1050A7DBFE30209FC83
:1046380061BFAA848149C9B7EFD27F801C452A840B
:1046480081E79307C5001CC51C44231204001CC045
:104658009307F00F63E9B70093F5F50F2285EF1084
:10466800500B6FD01F8093940501C167C18063F719
:10467800F500A6852285EF10700DE5B7C18193F589
:10468800F50F2285EF10F008A6852285EF10B009F6
:10469800C9BF97F7FF1F93876744884382801C45EB
:1046A80099C797F7FF1F23ABA742014582807D5525
:1046B800828097F7FF1F9387674298438347450097
:1046C800484792073E958280EFD26FF761710045A7
:1046D8001C183EC6B70780013EC81C183ECA83573F
:1046E800440002CE02D002CC231EF100834784008E
:1046F8002A8902D22301F1023C083ED402D6553F52
:10470800835705002316F102EF3030632307A10217
:104718005C4003556400F18313F717008347F102E7
:1047280052055181F99BD98FA307F102EFE0F007F9
:1047380039C5AA8403550500EF70F07A83D70400C1
:104748002AD26800231CF10083D72400231DF1001E
:104758001C4803D647008C43EF10C0798347B40048
:10476800CA8617860100130666D88117A305F400C8
:104778006C004810EFE010125D616FD08FEE21558C
:10478800E5BF1C45B1CF03C5A7008946135765008F
:10479800630BD7028D46630ED70285466300D702A6
:1047A800130740063305E50203C7B700418B15CB55
:1047B80083C7B700BD8B3355F54082801375F50369
:1047C8001307803EC5B709671375F503130707710B
:1047D800D1BF372709001375F5031307077CD9B72D
:1047E80001458280EFD2AFE503A98500630409047F
:1047F8008347B900AE8493F7070E91CF034599001C
:10480800930520030D810505B305B50288446105AC
:10481800EFF0901205A02E85AD372A8401CDCD2169
:104828008325C900B307B54063F887002E94B30504
:10483800A440E9FD6FD0EFE28545C9BFEFD22FE074
:104848002A8403D50500011132C636C43AC22EC0E7
:1048580002CA02CC02CEEF70106982452ACA2285AC
:104868002ECC813D03570500231EE100EF30F04CAC
:10487800A24632469247230FA10036874C08B286DB
:1048880022850146EFF01FB405616FD08FDDEFD2AE
:104898000FDB61711C183EC6B70780013EC81C18A3
:1048A8003ECA3C0800453ED4AA8402CC02CE02D0BF
:1048B80002D202D6FD3B8357050035592316F10273
:1048C800EF30B0472307A10209C48357440091E79A
:1048D80021594A855D616FD0CFD8035564005205D0
:1048E8005181EFE0806C2A8965D58347B40093F73E
:1048F800070E89C713058401EFF09005835744001C
:10490800231EF100834784002301F1025C40035514
:104918000900D98313F7070883471102231CA10054
:1049280093F7F707D98FA300F10283572900231DB6
:10493800F1005C40F18313F717008347F102F99BFC
:10494800D98FA307F102EF70105A2AD251D18347A9
:1049580094006800139757008347B400FD8BD98FE4
:10496800A305F4001C4803D647008C43EF10805879
:10497800A68717870100130767B7740005464C1010
:104988002685EFF03FA42A8929D58347B400A68558
:10499800FD8BA305F400B9352DBFEFD24FCA832490
:1049A80085FE2A8441112685E93B834734FF93F726
:1049B800070E9DC32AC62685EFF01FD119C9834764
:1049C80034FFB245FD8BA309F4FE81C52285EFF0C3
:1049D800A07641016FD0EFC86DDD8327C4FF26851F
:1049E800829765F9834734FF93F7070E81C72285BD
:1049F800EFF00076032584FE593DE1BFEFD22FC1C9
:104A08009C4141112A8903C7070089472E84935680
:104A18006700638CF6020D466382C6049307F007AD
:104A28006302F7022E85EF102059AA848149C16BD1
:104A3800130C490097F7FF1F9387470A9C43984731
:104A480063ECE90241016FD04FC003D745008547A9
:104A5800E3FAE7FE2E85EF10005AC1BF03D74500E1
:104A6800E3F2E7FE2E85EF102055AA842285EF1089
:104A78000056C204C98C5DBFDC470355A900139AD0
:104A880049003E9A93170501C187635DF00083577B
:104A98000A006395A70263E574038327CA00034DE0
:104AA8005A001DA0A1672167A98F1307F7EFE374C8
:104AB800F7FE63950900EFF07FA171FD85099DBFA1
:104AC80083278A00034D4A00835DA90003576900C4
:104AD800216A138BC7003AC6814A33CA4D01631E47
:104AE8005D0197F7FF1F9387E7FF9C43E1DBA286F1
:104AF8006286814526858297D1B7A1679387F7EFAC
:104B0800930C4BFF63F04703B2455A85EFF09F863D
:104B180019CD03278B00104719CA10436380C402BC
:104B28003107D5BFEE856685EFF09F9E71FD9386B0
:104B38001A0093FAF60F130B0B0255B7835644006D
:104B48005C43E3EDF6F622853AC6EF10E035A1673F
:104B58009387D7042A8A035D4400324763E89700A5
:104B68008347D90093E707F8A306F9001C47668531
:104B78002286E2858297C1670844FD17337AFA00D6
:104B8800529508C02312A40115BF97F7FF1F9387FA
:104B9800E7F49843814715C31447814763FFD5005D
:104BA800939745004C47BE9519C903C755008147DF
:104BB8006375E600DC451606B2973E85828003C71A
:104BC80045008147E37BE6FE16069C45F5B7EFD224
:104BD8006FA5AA892E8A814497FAFF1F938A0AF043
:104BE80083A70A00984763E4E4006FD0EFA6DC4788
:104BF8001394440001493E9413BB140083474400B6
:104C0800634BF900014913BB140083475400634FF9
:104C1800F9008504F1B70844931759005287DA86DA
:104C28000146A2853E9582990509C9BF4844931754
:104C380059005287DA860546A2853E95829905096C
:104C4800E9B7EFD2CF9F814517F5FFFF13056560E0
:104C580097F7FF1F239607E89D3F6FD08FA097F720
:104C6800FF1F9387A7E79C4399CBEFD24F9D8145C0
:104C780017F5FFFF1305E55D993F6FD08F9E828082
:104C8800EFD24F9A41112315E1002E89B284B689DB
:104C98003A8681460147ED452A84EF10D1692AC634
:104CA8001DCD0356A100CE85EF509165CA8522859A
:104CB800EF10D17C058915C1228501462C002314EB
:104CC8009100EF20A1122A8409C5ED452800EF10B4
:104CD800F174228541016FD02F984944FDB765547E
:104CE800CDBF5C41FD175CC18280EFD24F95EF10BC
:104CF800413195473305F50281450D816FD06F9697
:104D0800EFD2EF93EF10E12F95473305F5020D81B0
:104D18006FD02F95EFD2AF9203550500EF10F13DFC
:104D28006FD02F94EFD2AF91035505003287AE862E
:104D380017D6FF1F0356E61A97F5FF1F9385C5DAA6
:104D480081376FD00F92EFD28F8FEF5061306FD0D5
:104D58004F91EFD2CF8E97F5FF1F9385E5D8EF20BF
:104D6800C10F01456FD0EF8FEFD26F8D814517D5F9
:104D7800FF1F03550513EF10917A6FD08F8EEFD276
:104D88000F8C97F5FF1F938525D7EF20010D01455F
:104D98006FD02F8DEFD2AF8A814517D5FF1F0355EE
:104DA8004516EF10D1776FD0CF8BEFD24F892E8574
:104DB800EF60A051EF60E0776FD0AF8AEFD22F8815
:104DC800EF60D0016FD0EF895C49E1175CC95CC521
:104DD80083572501A1072319F50083570501A1076A
:104DE8002318F5008280F1473305F50297F7FF1F76
:104DF800938787D29C433E9582808D476317F6063A
:104E080003D74600854763F2E706EFD24F8336851E
:104E180036842E89EF10401A39C183574400931401
:104E28000501C18063ED97022285EF10E018FD149B
:104E3800231294009307A002630EF5009307B002B3
:104E48006301F50293079002631BF5002285EFC00A
:104E5800106531A00146CA852285EF7090786FD021
:104E68004F802285EF003056DDBF828097F6FF1F06
:104E78009386C6CA9C42014599CF9843D44217F6F7
:104E8800FF1F232DE6C86396D70097F6FF1F23A9B7
:104E9800E6C81385C7FE8280EFC27FFA7D2E714473
:104EA800330585029145EF70E04B01E565556FC00C
:104EB8005FFB97F7FF1F23AFA7C44526330585027D
:104EC8009145EF70204A7DD197F7FF1F23A6A7C40D
:104ED800692697F7FF1F2399A7C2412697F7FF1F57
:104EE8002395A7C2977701009387876517F7FF1F58
:104EF8002320F7C297070000938747ED17F7FF1F96
:104F08002326F7C0014565B7EFC27FF3AA8517F5D9
:104F1800FF1F130565BFEF10001E6FC09FF4EFC29F
:104F28001FF2DD37EF10A01E97F7FF1F938707BF0B
:104F38009C4381CF1387C7FE09CB83D5C7FF17F5DD
:104F4800FF1F130525BEEFF0201F6FC09FF1EFC2B2
:104F58001FEF293F11C9834785002A8493F7070467
:104F680091E70355E500653F6FC0BFEF8347C50074
:104F78009304450117F9FF1F130949BA85E38327ED
:104F880009005CC997F7FF1F23AA97B88327490030
:104F9800E1FF97F7FF1F23A597B8F9B7FD17230679
:104FA800F5006105EF6000698307840063C90704A1
:104FB8008347840093E707F82304F400EF00917F08
:104FC8004205A94741813375F5028347840093F769
:104FD80007FCC98F2304F4008347D4003E951C4086
:104FE8002318A40089CF984319CB8347C4005040A5
:104FF800814585073305F5024205418102978327DC
:1050080009005CC897F7FF1F23AA97B083274900B8
:1050180089E797F7FF1F23A597B08347C400A9D74F
:105028008355040117F5FF1F1305C5AFEFF0C01036
:1050380025BFEFC2DFE097F7FF1F9387A7C39C4701
:1050480001448583858B81EFAE84B2853A86EF1063
:1050580060112A8409C5EF106008829408CC228563
:105068006FC03FE0EFC21FDC41112E8932C6AA890A
:10507800692C324713060502CA86970500009385F6
:10508800C5D617F5FF1F130525A865372A8429CD2E
:105098009304C50065261946AA852685EF00906504
:1050A80085452685EF0070621775010013050547D1
:1050B8004E95834505002685EF00B0655C4831466E
:1050C8008145A1075CC85CC483572401E1172319F3
:1050D800F40083570401E1172318F4001C4C3E85A3
:1050E800EFC0FFD8A3042501228541016FC0DFD698
:1050F800EFC2FFD44111AA842EC632C4EF1060005B
:10510800004DB2452246834784000CC050C093F737
:10511800F70393E707042304F40023180400268503
:10512800EF00D07B83479400A9462317A40013D728
:10513800370005073307D7029D8B85072306F40040
:10514800A306E40083C70401D8488507230FF7FEA8
:1051580017F7FF1F1307879C5843232A0400930758
:1051680044011DEB17F7FF1F232CF79A17F7FF1FB2
:105178002326F79A17F4FF1F1304C49A2285EFE039
:1051880070711C44858B5D8D09E581452285EFE0B2
:10519800B07A41016FC0FFCC1CC317F7FF1F232152
:1051A800F798C9BFEFC2BFC997050000938525C509
:1051B8000145EFF09FBF01456FC0BFCAEFC23FC8AE
:1051C800EFF0DFBF6FC0FFC98347C500A1E7EFC29B
:1051D8001FC72A840355E500EFF01FD315C983477D
:1051E800840093F7F7FB2304F4001C4091C7DC43C9
:1051F80081C74C4001458297EFF05FC717F5FF1F45
:1052080013054592EFE0D0740355E400EFF03FD169
:105218006FC03FC58280EFC29FC297F7FF1F938779
:10522800E78F970500009385C5D217F5FF1F130573
:10523800658F23A0070023A20700EFE010646FC06A
:105248005FC21C4D91CBDC4381CBEFC25FBF83456E
:10525800070082976FC0FFC0828097F7FF1F938770
:10526800A78E9C4303C50700828097F7FF1F93878B
:10527800A78D9C4303C51700828097F7FF1F93876C
:10528800A78C9C4303C52700828097F7FF1F93874D
:10529800A78B9C4303C54700828097F7FF1F93871E
:1052A800A78A9C4303C53700828097F7FF1F93871F
:1052B800A7899C4303C55700828097F7FF1F9387F0
:1052C800A7889C4303C56700828097F7FF1F9387D1
:1052D800A7879C4303C57700828097F7FF1F9387B2
:1052E800A7869C4303C58700828097F7FF1F938793
:1052F800A7859C4303C59700828097F7FF1F938774
:10530800A7849C4303C5A700828097F7FF1F938754
:10531800A7839C4303C5B70011E11D45828097F719
:10532800FF1F938767829C4303C5C700828097F756
:10533800FF1F938767819C4303C5D700828097F737
:10534800FF1F938767809C4303C5E700828097E728
:10535800FF1F9387677F9C4303D50701828097E7E8
:10536800FF1F9387677E9C4303C52701828097E7C9
:10537800FF1F9387677D9C4303D54701828097E78A
:10538800FF1F9387677C9C4303D56701828097E75B
:10539800FF1F9387677B9C4303D58701828097E72C
:1053A800FF1F9387677A9C4303C5A701828097E70D
:1053B800FF1F938767799C4303C5B701828097E7EE
:1053C800FF1F938767789C4303C5C701828097E7CF
:1053D800FF1F938767779C4303C5D701828097E7B0
:1053E800FF1F938767769C438857828097E7FF1F44
:1053F800938787759C4303D5C702828097E7FF1F71
:10540800938787749C4303D5E70219E11305800C41
:10541800828097E7FF1F938727739C4303C5070381
:10542800828097E7FF1F938727729C43C85B82801F
:1054380097E7FF1F9387C7708843828097E7FF1F0E
:10544800938747708843828019E17D558280F5DE15
:10545800984265DFFDD917F7FF1F1307A781184783
:10546800AA877155058B6316072203C507001547E0
:10547800E37DA7FC03C737001305F0057D171377F5
:10548800F70FE364E5FC03C35700E30003FC83C89C
:105498006700E38C08FA03C7770049457917137743
:1054A800F70FE364E5FA03C7A70011481305F7FFF0
:1054B8001375F50FE36BA8F803CE97000D48130595
:1054C800FEFF1375F50FE362A8F803C8B700630978
:1054D800080065181378F80F1305600DE36705F7E2
:1054E80003C5C700794879151375F50FE36FA8F45C
:1054F80003C8D7000D457D181378F80FE36705F545
:1055080003D80701930E4017511842081358080191
:10551800E3ED0EF303C8E7007D181378F80FE36690
:1055280005F303C827017D181378F80FE36F05F119
:1055380003C88700C54E75181378F80FE3E70EF116
:1055480003D86701856E938EBEE06D184208135824
:105558000801E3EC0EEF03D847016D184208135811
:105568000801E3E40EEF03D88701791842081358BD
:105578000801E36C05ED03C8A7017D181378F80F3F
:10558800E36505ED03C5B7011D487D151375F50FD6
:10559800E36DA8EA03C5D701714879151375F50FAE
:1055A800E365A8EA03D5E7011308E00F7D15420576
:1055B8004181E36CA8E803C50702494879151375CA
:1055C800F50FE364A8E883AE470237C53400130833
:1055D800F5BFE36CD8E703A88702130555BF591830
:1055E800E36505E717E5FF1F232EC55403C605012C
:1055F80017E5FF1F232AF5540545E378C5E403D8CA
:105608002501D04933760603E31106E403C61501E4
:10561800E30D06E217E6FF1F2324B65283C52700D1
:1056280001466387A50003C61700F1453306B60295
:1056380083C707039305C00272971A071307C705A4
:1056480016031A9796084697B387B70241553E97AF
:10565800329742074183636EE802EFC24FFE3685F8
:10566800EF60705AEFD030092A84EF8090072A94AF
:10567800EFC0100D2A94EF60F0712A94EFF0DF81EB
:105688002A94EF2010612A94EF50606222956FC02F
:105698004FFD8280EFC2AFFA4111A307A100EF804E
:1056A80060089305F100170500001305C5B9EFF070
:1056B8000FD2014541016FC0CFFAEFC2CFF517E411
:1056C800FF1F1304245B032884007959936818008A
:1056D80097E4FF1F23A4145B13781800631E0800C7
:1056E800BA84BE89368B328A2E89AA8AEFE07FDC9B
:1056F8007D15269509E531594A856FC04FF5EFE0CC
:105708005FDB7D152695A167E357F5FE97F7FF1F29
:105718009387478D98433E8C814B11C70145EFC055
:105728003026933B15004A85DA865686D285EF7077
:1057380050212A8911CD1C44F99B17E7FF1F232FFD
:10574800F75283270C00CDDBE3880BFA82976DB7FD
:10575800268597E7FF1F23A10752EFE05FD2414656
:10576800CE8517E5FF1F1305655AEF506139EFA085
:1057780040720325040BEFA040740545EFA0407A62
:105788000545EFF03FF18DBF97E7FF1F9387874EE1
:105798009C47858BD5C7EFC28FEA17E5FF1F130516
:1057A800255597E7FF1F23A7074C97E7FF1F23A55A
:1057B800074C97E7FF1F23A3074CEFE07019EF3062
:1057C800D07FEFE00071EFE0807597E7FF1F9387C8
:1057D800E7489C4381C70545EF60501E97E7FF1FC8
:1057E8009387C7419C4389C741657D15EF50C067C2
:1057F800EFC0F021EFA0C06A97E7FF1F9387875C8F
:105808009C431397170163540700EFC0202D97E7B7
:10581800FF1F23AD074E97E7FF1F23AB074E97E700
:10582800FF1F23A9074E97E7FF1F23A7074EEFF097
:10583800FF989D23EFF0EFC0EFC0004F6FC06FE2FD
:105848008280EFC22FDE2A849304140201112E8570
:10585800B289A685214636C63A89EF5001281DE14E
:10586800B24638082686CE8513059404EF40404199
:1058780021462C084A85EF5041261335150005614D
:105888006FC08FDD0145E5BFEFC26FDB93054506AD
:1058980017E5FF1F1305852BEFE0100A6FC06FDCBB
:1058A800EFC2EFD941112EC6EFF08FC5B24588C1BE
:1058B80041016FC00FDBEFC2EFD6AA842E84EF60E0
:1058C800B064AA8985452285A92583C7E40113897F
:1058D800940899E313890403CE8522851D2D21465A
:1058E800930519022285392597E7FF1F9387873883
:1058F8008C432285EF0060682146938584022285C7
:10590800D52B6FC06FD5EFC20FD13971EFC02038DA
:105918009305400645EDEF60305C630E051097E790
:10592800FF1F83C7672413B7170097E6FF1F238D50
:10593800E622014489CFC16417E9FF1F130989339F
:105948009309400EFD14EFF05F9A6348A408EFF046
:105958002FBB4169B7290900096AFD7A2A8B81445E
:105968007D199389F97B130A0A71938A8AC7EFF024
:10597800DF9763D5A4041304400EB387840217E7A6
:10598800FF1F1307272F0324070B3E948357C401D7
:105998006386270918403307EB4063EAE900834729
:1059A80044008507B3874703D6976369F70601461E
:1059B80081450945EFF00FEBAA8B29E1EF209059BB
:1059C8008547631FF50489659385057117E5FF1FF2
:1059D8001305C517EFE04076A1A8B30734030327E2
:1059E800090BBA9703D7C7016308970003C7570085
:1059F800A38207002382E7000504B1B79305C50019
:105A08002285EFF05FEB5E8522869775010093850E
:105A180025B2EFF0EFED5E85EF00606F850481BF82
:105A280097E7FF1F938707259C478D83858BC1FFC9
:105A380021616FC0CFC101468545094502D002D218
:105A480002D402D6EFF00FE2AA847DD1EFC0602322
:105A58001389C4002A8481454A8565290C4041463A
:105A68004A85492983294400638809084E8502D854
:105A780002DA02DC02DEEF50212A2ACE1410054693
:105A88002C0808184ECCEF4040171375F50F2DE57C
:105A98008355840093E525004A854D2911460C104D
:105AA8004A8589290146977501009385E5A82685C9
:105AB800EFF00FE42685EF0080655C40B5DB01461A
:105AC80085450D45EFF00FDAAA843DD1484013898A
