:040000006F20C0525B
:100004000000000000000000900000208A0400208E
:10001400A9BDF9F5900000200000000000000000D8
:10002400900000209000002000000000000000006C
:10003400900000200000000090000020000000005C
:1000440090000020900000209000002090000020EC
:1000540090000020900000209000002090000020DC
:1000640090000020900000209000002090000020CC
:100074007E050020900000209000002090000020C9
:1000840090000020900000209000002090000020AC
:1000940001A073270080218B9387018709CB7327E5
:1000A400008023A8E18698435D9B731007800100BC
:1000B400010037170040930670052300D704930608
:1000C40080FA2300D704010001008346B70493F6A5
:1000D400F60DA305D7042300070473260080944378
:1000E400A18AD18E7390068023A8018601000100A5
:1000F40093760502638406180347A700118B25E74E
:1001040073270080218B09CB7327008023A8E18605
:1001140098435D9B7310078001000100371700406E
:10012400930670052300D704930680FA2300D704AE
:10013400010001008346A70093E646002305D7008B
:1001440023000704F32600809843218B558F7310F6
:10015400078023A80186010001001307004B01005A
:1001640001007D176DFF73270080218B09CB732756
:10017400008023A8E18698435D9B731007800100EB
:10018400010037170040930670052300D704930637
:1001940080FA2300D704010001007D892314A700FD
:1001A400010001000100010023000704F326008080
:1001B4009843218B558F7310078023A80186010073
:1001C400010073270080218B09CB7327008023A8AB
:1001D400E18698435D9B7310078001000100371787
:1001E4000040930670052300D704930680FA230089
:1001F400D7040100010001000100B72600401306E6
:100204001005A383C68023000704F32600809843C7
:10021400218B558F7310078023A8018601000100EC
:1002240073270080218B09CB7327008023A8E186E4
:1002340098435D9B7310078001000100371700404D
:10024400930670052300D704930680FA2300D7048D
:10025400010001008346B70493E60608A305D7040A
:1002640023000704732700809C43A18BD98F7390CC
:10027400078023A80186010001008280937605048B
:10028400638B06140347A700418B25E7732700807F
:10029400218B09CB7327008023A8E18698435D9BBB
:1002A40073100780010001003717004093067005A2
:1002B4002300D704930680FA2300D7040100010029
:1002C4008346A70093E606012305D700230007040D
:1002D400F32600809843218B558F7310078023A841
:1002E4000186010001001307007D010001007D1754
:1002F4006DFF73270080218B09CB7327008023A80F
:10030400E18698435D9B7310078001000100371755
:100314000040930670052300D704930680FA230057
:10032400D704010001009376F50193E60604231433
:10033400D700010001000100010023000704F32697
:1003440000809843218B558F7310078023A8018662
:1003540001000100130760046310E50473270080A3
:10036400218B09CB7327008023A8E18698435D9BEA
:1003740073100780010001003717004093067005D1
:100384002300D704930680FA2300D7040100010058
:10039400B72600400946B5B573270080218B09CBE9
:1003A4007327008023A8E18698435D9B7310078020
:1003B4000100010037170040930670052300D7049D
:1003C400930680FA2300D70401000100B7260040F9
:1003D400130620053DB573270080218B09CB7327B5
:1003E400008023A8E18698435D9B73100780010079
:1003F400010037170040930670052300D7049306C5
:1004040080FA2300D704010001008356870093E695
:10041400060C2314D700C5BB411181460146814512
:10042400114506C61D2CF3270080A18B93860187F6
:1004340089CBF327008023A8F1869C42DD9B73902F
:10044400078001000100B7170040130770052380DF
:10045400E704130780FA2380E7040100010003C7BF
:100464006704136717002383E704238007047327B3
:1004740000809C42A18BD98F7390078023A80186AA
:1004840001000100B240410182808146014681455C
:100494001145E122F3270080A18B1387018789CBC3
:1004A400F327008023A8F1861C43DD9B739007800B
:1004B40001000100B7170040930670052380D7049C
:1004C400930680FA2380D70401000100FD56239689
:1004D400D70223800704F32600801C43A18BD58F09
:1004E4007390078023A8018601000100F327008090
:1004F400A18B89CBF327008023A8F1861C43DD9BC5
:100504007390078001000100B7170040930670053F
:100514002380D704930680FA2380D70401000100C6
:1005240083C6670493E616002383D7042380070455
:10053400F32600801C43A18BD58F7390078023A8DA
:1005440001860100010001A0BD473305F502010049
:100554007D1575FD8280411122C426C206C6AA8477
:10056400014463179400B2402244924441018280C2
:1005740005041305803E4204C13F4180DDB7B7172F
:100584000040130700032388E702854723AAF18864
:1005940073002030411106C6EF005018F5BF230345
:1005A400048015472303E48001002302A480828091
:1005B40083076480E3CE07FE2303048082808307DD
:1005C4006480E3CE07FE0345448082808307648011
:1005D400E3CE07FE2302A4808280411126C44AC2CE
:1005E4004EC006C61377F50BAD47AA892E899544EC
:1005F4006306F70019456537653F8D444E854537D9
:10060400FD59FD1463983401B240A2441249824951
:1006140041018280135509011375F50F453F2209E5
:10062400CDB7011126CC06CEB704080051371545C5
:10063400BD37713769372AC6A53F32459377150010
:1006440089EB136515001375F50FF240E24405615B
:100654008280FD14E9FC0145CDBF397126DC4ADAFC
:100664004ED852D656D45AD25ED006DE62CE66CC6E
:10067400B7E700E07D5783AA070022C603AA470014
:1006840023A0E71823A2E718B71700401307700543
:100694002380E704130780FA2380E70483C7470411
:1006A400930B75FFB684E20793FBFB0F8546AA897B
:1006B4002E8B328937240040E187015763FA760193
:1006C4006308D5008946130700026313D500015758
:1006D400D98F93F7F70FB71C00402382FC0411470E
:1006E4002303E4801305F00F5D3D094CD135636DA0
:1006F4007C11B7050700DA9537870700795563F24F
:10070400E504B3879500636EF702370B0800A94729
:1007140033EB65016399F90689E48144513D2685EB
:100724000DA0DA850945553D05090345F9FFFD147A
:10073400050B693D81C49377FB0FFDF7DD3569FD3A
:100744007D55B7170040130770052380E70413078E
:1007540080FA2380E70403C74704418B2382E7041C
:10076400F250B7E700E023A0571123A24711E25447
:1007740032445259C259325AA25A125B825B724CA9
:10078400E24C21618280A5476395F90685691309C6
:10079400F00FB3069900B3742B01B6941349F9FF13
:1007A400B3749900856B33796901416B9387F9FFC1
:1007B400B3F7270199E363FC340193D94900C14796
:1007C400E3E637FF99BF0569C1697D19D9B71305F8
:1007D400800D6388690113050002638479011305A0
:1007E4001008CA85DD3B353D21DD4E99B384344183
:1007F400D9B7DA852D45D533CA94E30099F20509B2
:100804007D3BA30FA9FED5BF9387F9FF93F7F70F9D
:100814006361FC0C83C71C0413073008631FF704CF
:1008240037070800636BEB04B3079B00B70610009F
:1008340063F5D704334BEB0089476393F90689804A
:10084400D549E38C04ECDA850945413B11090327BA
:10085400C9FF91472320E48003076480E34E07FE29
:1008640023033481FD17EDFBFD14110B81C4937731
:10087400FB0FE9FF7D3371F5E1B5B717004003C7FE
:100884005704B70708001377070219E3B78707006F
:100894007955E378FBEA33079B00E3FFE7F855B5A6
:1008A4008547E382F9F2DA852D45053B9389F4FF08
:1008B400E38504E6293393F7390091EB832604801A
:1008C4000327090093074900E39AE6E43E89CE84AE
:1008D400F1BFB5476396F9001305900BC93135BDD7
:1008E400B1471305B00AE38BF9FE99476391F90404
:1008F400B7050800B365BB002D45C53181448D4B58
:10090400A149753963967401832704802320F90073
:100914008504E39834FF8327048013172B01635560
:1009240007002312F900D5BB2322F900FDB39D472C
:100934006399F90281451305B0044531BD44232070
:10094400090023220900FD599D3993F77400CA97C1
:1009540003C70700FD14398D2380A700E39634FFF5
:100964006DBBA1476392F9046D398144630D0B009B
:100974008D479304C0036308FB00930400056304DC
:100984008B01930440041375C507E30895D81945F2
:10099400393139390545213126850D3909453D312E
:1009A4004931E31C05D669BB91476399F9001305E6
:1009B4006006F536F53E130590090DB7E38F09D4AB
:1009C400F154A9BB174700001307073483470700F6
:1009D40093F7F70FE5DF82807D1662066186931731
:1009E4008601E18763D407000145828093172600BE
:1009F4003307F500AE9718439C4363E7E7007D1681
:100A0400E37FF7FC7D55828005458280FD15E20574
:100A1400E18513978501618793F7F50F6348070014
:100A2400FD15139725002A97584365D7138517009A
:100A34006205618582803308B5021C4283A80600E2
:100A4400B335B502C29733B50701AE9846958548CC
:100A54006367B5006394A50063E3070181480C4311
:100A6400C6950CC388C21CC2828081471397870134
:100A740061876343B7008280139727002A97232056
:100A840007008507E5B78147014793968701E1860B
:100A940063C5B60013351700828093962700AA9683
:100AA40094428507558FD5B793D755408A07AA979F
:100AB4009C4305453315B5007D8D8280172300E0E6
:100AC400E702E3B42A84993705C5931725003E94B9
:100AD4000327C4FF814711EB7D1516053E9542059A
:100AE4004185172300E06700C3B405838507E5B794
:100AF4000145C5BF81471397870161876343C700D9
:100B0400828013972700B386E50094422A978507CD
:100B140014C3D5B77D166206618601479317860113
:100B2400E18763D5070013351700828093172600E9
:100B3400B306F500AE9794429C437D16B58F5D8F46
:100B4400F1BF8A05AA9501476363B500828083A635
:100B5400C5FFF11593D71600D98F9CC11397F601E1
:100B6400E5B72A830148014701456343D7008280E2
:100B7400B387050183A80700B30706019C43C69702
:100B8400AA976384F80033B517010507B308030176
:100B9400620723A0F80061871108C1BF2A830147B7
:100BA4008147014563C3D70082803388E5008328E9
:100BB4000800330EE600032E0E003388A8403308E5
:100BC400C8416384080133B508018507B308E3000D
:100BD400E20723A00801E1871107E9B7172300E022
:100BE400E702E3A20111B286B2842E86AA850A85A1
:100BF40075372A84A6850A8579353334800006043E
:100C040013351500018D0561172300E0670063A209
:100C1400172300E0E702239D4111AA89AE8A328B93
:100C2400B68402C202C402C60144131C8401135CCC
:100C34008C4163499C02939B1400FD1B0549138C52
:100C4400F4FFF15C3304890162046184634D74052B
:100C540092478E04CE9423AEF4FE4101172300E0A4
:100C64006700E39B13192400B30B2B01014A93176C
:100C74002A00D69783A50B008843780034005000DF
:100C84005D3B050A93178A01E187F11BE351FCFEE2
:100C940092474E9905042320F900A2473EC2B24769
:100CA40002C63EC459B7131A8901135A8A41131D47
:100CB400240093178A01E18763CF970092470A04BF
:100CC4004E941CC0A24705091379F90F3EC2B247DE
:100CD40002C63EC485BFB3079A0313152A0056956E
:100CE4000841780034005000050AEA97DA978C43EB
:100CF4009933C1B719CD91CD09CE81473387F5001A
:100D0400834607003307F50085072300D700E31760
:100D1400F6FE828019C991C909CA910583A7C5FF46
:100D240011057D16232EF5FEC5BF828001C919C6A3
:100D34002A960505A30FB5FEE31DA6FE8280814712
:100D44003307F5000307070019E33E858280850712
:100D5400C5BF01112E8626CAAA8413150601930560
:100D6400F004418122CC06CE32C6EF00F06E2A8414
:100D740001C53246A685BD3F2285F2406244D24475
:100D840005618280854715C18DC105C28147B306BF
:100D9400F5003387F50083C6060003470700639810
:100DA400E6008507E315F6FE85473E858280814788
:100DB400EDBF9307F6FFBE952A966313C5008280A4
:100DC400FD1583C715000505A30FF5FEFDB7AA871A
:100DD400014581CF09CE3E96850703C7F7FF631708
:100DE400B700E39BC7FE054582808280014582806F
:100DF40079719387418C22D4804306D626D24AD077
:100E04004ECE52CC56CA5AC85EC65DC8B7C4C901D4
:100E1400014B9389C18B9384F437174A0000130A5A
:100E24002A2A974A0000938A6A2D17490000130959
:100E340029318357240085E35C44631B0B0023A200
:100E4400F18C832BC4002285EF00706D5E8499A819
:100E54002326FB00FDB783A7090082971C443307B0
:100E6400F5406376F500032749001D8F2A9763EC4C
:100E7400E4069747000023AB072883552400034565
:100E84000400977001E0E78040825C405844A1C7A9
:100E94001444B6978326490063E3D700958F1CC496
:100EA400228B3A8459F497470000938727259C4B5B
:100EB40009476370F706F917174700002328F7243A
:100EC400B250225492540259F249624AD24A424BD5
:100ED400B24B4561828063150B0023A2E18C95B768
:100EE4002326EB00B9BF03274A0209CF63EFA7000B
:100EF4003385A74083A70A016376F500974700006E
:100F040023A6A720228B404471BF03274900BA9728
:100F1400C5B79747000023AB071E5DB7411122C434
:100F240017440000130404201C4006C626C24AC00D
:100F340091C782979747000023A6071E9747000092
:100F440083C71738858B974400009384243795C34F
:100F540097470000A386073683C774001547637A52
:100F6400F700A92B83C77400F5178A07A2979C433F
:100F740082971C4491C382971389018B032709002C
:100F840017460000034696179747000083C70717C4
:100F940093961700BA9683D60600C5CE97470000ED
:100FA40083C7C71563E1C70C97470000238807145C
:100FB4001C40639507129747000083C7B73091CF51
:100FC40083C7740093F7F70F89EB97470000A38B4F
:100FD400072E977002E0E78020CD9387C18B9C4356
:100FE400638E070E9747000093878715DC431747E6
:100FF4000000232DF710ED3B974700009387470C23
:10100400DC53E9CF174700001307470F184B9747E6
:10101400000083C7370C6363F70C83C7740015475C
:10102400636EF70A9747000083C7C72D918BDDE7EE
:10103400032609009746000083C6560C63C6D70AE8
:101044002244B240924402494101177301E067000F
:1010540043AD850793F7F70F974600002380F60A00
:10106400E3E4C7F225BF86073E97835507002310A4
:101074000700239C018A9387818C9C4317450000B9
:101084000345C50713172500BA979C43829783D756
:10109400818B174700000347670693C7F7FF7D8DD1
:1010A40093171700032709003E97835707005D8DA8
:1010B4002310A7009747000083C7470491C78507FB
:1010C40017470000230CF7021747000003470703E4
:1010D4009747000083C79702E378F7ECB2402244B5
:1010E40092440249410182801397170032970357B3
:1010F40007006DF7850799B7AD6737C70040BD078F
:101104002326F7200F10000097470000938707FF5E
:10111400C84F83278726BD66BD0693C7F7FF99830B
:101124006A052326D7205D8D82804111B7170040C0
:10113400985F3AC6945F3247E39CE6FE324541012C
:1011440082801305F00F8280011197470000938776
:10115400E72222CC03A4070C26CA06CE2AC42EC634
:10116400854419E40145F2406244D2440561828019
:101174008347910003471400858B6304F700004400
:10118400CDB719469305A10013052400E53EE318E5
:1011940095FE0545C9BF011126CA9384C19998409B
:1011A40022CC2EC632C406CE3C4B2A84354593F756
:1011B400F7F73CCB977002E0E780C0C09840938675
:1011C400C1983C4B93E707083CCB9C42B24523A013
:1011D40007000347140003452400220742052A9709
:1011E400034504002A970345340062052A9798D7DB
:1011F4000347540003456400220742052A97034528
:1012040044002A970345740062052A97D8D70347F8
:1012140094000345A400220742052A97034584004D
:101224002A970345B40062052A9798DB0347D40044
:101234000345E400220742052A970345C4002A9780
:101244000345F40062052A97D8DB03C7150003C5DC
:101254002500220742052A9703C505002A9703C5DE
:10126400350062052A9798CF03C7550003C565006A
:10127400220742052A9703C545002A9703C575002E
:1012840062052A97D8CF03C7950003C5A500220796
:1012940042052A9703C585002A9703C5B500620550
:1012A4002A9798D303C7D50003C5E5002207420552
:1012B4002A9703C5C50083C5F5002A97E2052E9732
:1012C400D8D3D843759BD8C3D84313671700D8C362
:1012D40098431367170098C3224698425C43858B52
:1012E400D9E71C4F01452300F6009C429C4FA18383
:1012F400A300F6009C429C4FC1832301F6009C424C
:101304009C4FE183A301F6009C42D84F2302E600E0
:10131400D84F2183A302E600D84F41832303E6007C
:10132400D84F6183A303E60098532304E60098533F
:101334002183A304E600985341832305E6009853D0
:101344006183A305E600D8532306E600D85321831E
:10135400A306E600D85341832307E600DC53E18368
:10136400A307F600F2406244D24405618280010082
:10137400ADB7138701991443411122C49C5E4AC03E
:1013840006C6998326C2858B3A841389C198D1C72E
:101394009C5E97440000938464F293F7F7F99CDE13
:1013A400174700000347E7F193070008631BF700A2
:1013B400832709009C4393F707041747000023027F
:1013C400F7F083C7040093F707048DC39387C18B99
:1013D4009C4382979747000023AAA7EE83C7040083
:1013E40093F7F70B17470000230AF7EC83C7440071
:1013F40093F707049DE3854717470000A302F7EC22
:101404009387C1999C43096798C7130700FC9746C3
:1014140000002387E6EAD844F8D31C40985F118380
:10142400058B09CB985F3D9B98DF054797460000E5
:101434002388E6E8985F1D83058B11CB985F1377AB
:10144400F7F798DF854717470000230BF7E6832754
:101454000900D8430583058B19C7D843759BD8C3A6
:10146400D843799BD8C3B2402244924402494101F3
:101474008280397106DE16DC1ADA1ED82AD62ED4FA
:1014840032D236D03ACE3ECC42CA46C872C676C4B0
:101494007AC27EC0F93DF250E2525253C2533255E1
:1014A400A255125682567247E2475248C248324EFB
:1014B400A24E124F824F2161730020309387C1994D
:1014C400944397470000938767DF03C70700058BA2
:1014D40011CB97470000238507DE97470000A381BF
:1014E40007DE828003C71700058B65F7F85271FF8A
:1014F40083C75700DDB713880199032708001C5FD1
:101504009583858BD1E709C61C5BBD832300F60058
:1015140085CA83270800985B46079357670163567B
:10152400070093E707C0C207C18303970600C207F9
:10153400C18709C7BA970947B3C7E7022390F600E2
:1015440085CD834715008DCB9746000083C666D7AB
:1015540093F606041387970089478DCA3A95034783
:101564000500854699471376F7066311D60262078C
:101574006187B947634C0700832708009C5FED83AC
:101584008D8B17470000A300F7D481473E858280E6
:101594008547EDBF411122C406C61384C199184082
:1015A4002DE9AE877453FDFE3E85B2859747000052
:1015B400238707D0976002E0E7804044938701992E
:1015C4009C43B70680009843558F98C3D857719BA6
:1015D400D8D797470000A38507CE97470000A38F6D
:1015E40007CC1C40094798C3144017470000130751
:1015F400E7CC83472700858B89EB83473700858BAE
:10160400D9C397470000238D07CAB2402244410141
:1016140082808D47631EF500938701999C43B7062A
:1016240080009843558F98C3D857719BD8D76DBF06
:101634008547E31BF5FA5447F977FD17F58F5CC727
:101644000F1000001C40096798C7130700F81746DD
:1016540000002307E6C6138701991043184231831B
:101664000D8B11E713076019F8D3D4C7B5BF18421F
:10167400094631830D8B6315C7001307E043EDB7AB
:101684001307E01BD5B7FC52ADF741B75D7152DCCF
:10169400138A019903270A0086C6A2C4A6C2CAC037
:1016A4004EDE1C439389419A1389C19993F7F7E756
:1016B40093E707081CC383A609003707CEFF7D17ED
:1016C4009C462A8413068002F98F9CC6832709004E
:1016D400130700082800B8CBAE8493051008EFF078
:1016E400EFE43545976002E0E780C06D83270A0088
:1016F4009376F41F370FFCFF23A40700984B4E8802
:10170400CA881367F70398CBF84F130510F8D285EE
:10171400137707E0558FF8CF9843F576FD16758F4C
:1017240098C39843B7063300B70204001377F7E76A
:1017340098C39843930380257D1F1377F7E71367B6
:10174400071098C303A70900930F800285491C471B
:10175400D58F1CC7832709001307900D3400B8CB1D
:101764001149014713533700269383470300137627
:101774007700B3D7C740858BDDCF9C41832E08000B
:10178400239C07042390070603AECE02137EDEFFDC
:1017940023A6CE0383AE0700137EF70793FE0EF84D
:1017A40033EECE0123A0C70103AE4702336E5E00C1
:1017B40023A2C70383AE0800014E23A27E0603DAE8
:1017C400070663074E0303AE0703038A0600135E8E
:1017D400FE00620E135E8E416358CA0103AE070316
:1017E400135EFE002380C60103DE0706137EFE0F90
:1017F40003AA4E0663060A0003DA8705E37F49FB62
:1018040003AE4702337EEE0123A2C703838706009B
:10181400635CF400034E03003396C9001346F6FFDD
:101824003376C6012300C3003E8663D3A7002A860D
:1018340013158601618505071377F70F8506E313F2
:10184400F7F3B640264496440649F259625A616158
:1018540082809386C1999C42D84713161701635519
:101864000602984713161701635006027D57B8D72E
:101874001747000013078788584F050717460000CD
:10188400232CE688116798C798470D83058B1DC3E1
:10189400174700000347A7A2136717001746000065
:1018A400230FE6A0130700F817460000230AE6A05A
:1018B400214798C79847058B09CF1747000003476E
:1018C400F79F1367170017460000A309E69E054714
:1018D40098C798470983058B09E798470583058BC3
:1018E40021CF9847174600001306469D138501999A
:1018F4000983058B630307101841184331830D8B4B
:1019040075EBAC4B184E93F5050203471700CDCD8C
:1019140079EF13077006D8CF034706001367170043
:1019240017460000230CE698114798C718415C57E6
:10193400F19B93E717005CD79C42984793163701B5
:1019440063D606029746000083C6C6AAC18A174713
:1019540000001307A7A2C5CE034787071367070232
:10196400974600002388E6A8056798C7984793160A
:10197400270163D1060217470000034767946207F3
:10198400618763570700054797460000238AE6925C
:10199400096798C798479316070163D606029746C6
:1019A400000083C636A5858A174700001307079DE4
:1019B400ADCE034797071367270097460000A38B14
:1019C400E6A2216798C7828029D785456315B700A9
:1019D4001307B00689B789456315B7001307F006E6
:1019E4001DBF8D456315B700130730072DB71307C7
:1019F400500715B71307600739BF0347360013674D
:101A0400170017460000A30CE68A094739BF83462E
:101A140087070946BD8A6388C600034787078D4642
:101A24003D8BE313D7F4114725BF83469707918A6B
:101A3400C9DA034797071367870041B7397106DE90
:101A440016DC1ADA1ED82AD62ED432D236D03ACEA2
:101A54003ECC42CA46C872C676C47AC27EC0D53B62
:101A6400F250E2525253C2533255A2551256825684
:101A74007247E2475248C248324EA24E124F824F3A
:101A8400216173002030174700001307E784834661
:101A9400B7019747000083C7F7864C4BB697FD8B79
:101AA40033D7F50097460000A388F68297460000D6
:101AB400A38AF684058B15EF174700000347D784E4
:101AC400B3F7E702814601471305000233D6E50068
:101AD400058A1378F70F19CA6397D7009737000060
:101AE400A38C077F8280850693F6F60F0507E31F14
:101AF400A7FC82809737000083C7977CD9E7938738
:101B0400C18B9C43411122C426C206C682979737D3
:101B140000009387677E8047BE846303A4066368DE
:101B24008504018D135455009737000083C7677CE3
:101B34006368F404893F98449737000083C7677B40
:101B44009396570036971D8C9736000023AAE67AA1
:101B5400E372F4FE2244B240924417350000034578
:101B6400B57781454101176302E06700036D97373C
:101B740000009387E75CDC433384874022955DB79C
:101B8400B240224492444101828082809387C18B77
:101B94009C43011122CC4AC806CE26CA4EC682975F
:101BA400973700009387477580470149630CA40465
:101BB400BE8463618506018D135455009737000078
:101BC40083C727731379F501636BF4029739000017
:101BD400938909574D3D9C449736000083C666712E
:101BE40003A64900139756003E97158C6363C700FC
:101BF400118F9737000023A5E770E37DD4FC16040A
:101C040033692401F24062444A85D2444249B249CC
:101C1400056182809737000093878752DC433384C1
:101C24008740229551BF9387C199984385679387CD
:101C340007777CD39387419A9C4383A6070913961D
:101C440056006358060083A607091396660063448A
:101C540006007453FDF2828061C1AA870145DDCD7F
:101C64008D07C207C183F19BC207C18313074003D9
:101C7400636BF702138701A30843138781A21443FC
:101C84006396A6021737000013078743185B0145C4
:101C940051C74111C20706C60545DD8D0297B24002
:101CA4000145410182801387C1A2F9B7035765003A
:101CB40035E303574500636FF704B306F740214645
:101CC400637CD60203280500938687001D8FAA969D
:101CD4006117173600000356C6422392E60023A07C
:101CE40006012393060014C12312F500130786FF8F
:101CF400973600002397E6402313B500973500007C
:101D040083D52540B387F54017370000231BF73EE2
:101D1400210582800841ADB701458280828009CDCA
:101D2400938701A303A30700938781A283A80700D5
:101D340081469A8763E31701828003A807006369D9
:101D4400F50A6367A80A13878700E367E5FE03D6ED
:101D54006700216705076317E60003C74196050777
:101D64002382E196973500009385453903D64700D1
:101D740003D7650023930700329742074183173541
:101D840000002310E538638867021385C1A2084167
:101D94006303F50203D5660019ED83D7460023A03B
:101DA400060121073E9621062392C60097370000BC
:101DB4002399E734B6879843E30017F99386C1A2C1
:101DC4009442E30BD7F683566700BDF683D64700EB
:101DD400035647001843A106B2962392D70098C32E
:101DE40083D76500A10717370000231CF7308280D2
:101DF400BE86C28781B7032785116302071241118A
:101E040022C406C68347C5008345E5042A8493F7A4
:101E1400C70F2306F500834697000356C7001395A2
:101E24008601618563F2C508635B05060345870087
:101E340093F6F607A304D700054693E62700631438
:101E4400C50093E617002306D4005C4389075CC3EE
:101E5400A30AB400032504112E864C430905EFE0C0
:101E64007FE98327841103465401D44303D7C70071
:101E7400B296118FD4C32396E7008947A30DF400CB
:101E8400034764039737000083C7A7246378F704E4
:101E94008347C40093E707012306F40081A093E776
:101EA40017002306F4006DB79376F60F635D050201
:101EB40003458700854513E627006314B50013E640
:101EC40017002306C400A30AD400A304070085470F
:101ED400A30DF400832784119C43DDF3B240224414
:101EE40001454101828093E717002306F400A30A09
:101EF400D400A3040700032504114C430905EFE0B3
:101F04007FDF8327841103465401D44303D7C700DA
:101F1400B296118FD4C32396E7008D4755BF05456C
:101F24008280938781A39C43411122C406C6858B7A
:101F34002A84C5EF4165130525F5972003E0E78062
:101F4400E0A845C58347A5002315F500832704129F
:101F5400BDE72320A4122322A41285472311F404ED
:101F6400232005008347640154412316F5000347E9
:101F7400D4002304E5000547A304E5001737000057
:101F84001307C733184F1385170215811C437D159A
:101F94001375F50F9CC25C43DCC21C479CC65C47AE
:101FA400DCC61C4B9CCA5C4BDCCA1C4F9CCE5C4FF1
:101FB400DCCE19CD9386060213070702C1BF83271F
:101FC400441288C3835724042322A412850779B7B3
:101FD4009737000083D7073B850717370000231383
:101FE400F73AB2402244410182808347C400230966
:101FF4000400054593C747002306F400DDB7834773
:10200400850193F7E70FC5EF83479501CDEB0346B1
:1020140025018346C50009CA8345650317370000B7
:102024000347370B63E7E50013F7060151CB01477C
:1020340009C6C18A0357651C81C68356A51C3697F9
:1020440041C31307C712173500000355E50FB33515
:10205400A70237460F00411113060624814622C405
:1020640026C206C67D543305A702975003E0E780D5
:1020740020DF9737000083C73706B384A70097375C
:1020840000009387A72F03A787098327070963F312
:1020940087003E84184375FB9387C18B9C438297CA
:1020A40081476364A400B307A440B2402244B3B799
:1020B400970093C7170092443E854101828081476F
:1020C4003E8582809387C19998437C53FDFF82802B
:1020D40035C501116C0022CC06CE2A84971003E08A
:1020E400E780005539C5FD57630AF50297360000AD
:1020F400938606FDD45232479737000083C7D7FD35
:1021040091C285836360F702B307F7403EC6B245C8
:1021140003459402975001E0E780E069F24062448D
:10212400056182809736000093868601D4423697F3
:10213400E1BF971003E0E780C0A6CDB78280797134
:1021440026D206D622D44AD04ECE52CC56CA5AC82B
:102154005EC68347550303447513AA843E941374DF
:10216400F40F9307400263F687001304B4FD13745D
:10217400F40F03AA841383AAC413A38B84122286A4
:102184005285D685975003E0E780808A058915E556
:1021940003CBD41201498149337B6403930B50026E
:1021A4004A865285D685975003E0E7806088058982
:1021B40015C5639169031374F90F238B8412B2500C
:1021C400225492540259F249624AD24A424BB24BC7
:1021D400456182808509E20993D989410509E311A2
:1021E40079FDE1BF8327850903560504797193D6E8
:1021F4000701BD8EC206C182358E135776409357B0
:102204005640898B058B5D8F93573640918B5D8F3C
:1022140093571640A18B5D8F93171600C18B5D8F6A
:102224009317360093F707025D8F93175600935563
:10223400860093F707041E065D8F1376F60F518F01
:1022440093D7554013D63540118A898BD18F13D635
:102254007540D18F13D61540218AD18F139615005E
:10226400418AD18F1396350013760602D18F1396C7
:102274005500137606049E05D18F93F5F50FCD8F87
:10228400A20745465D8F3307C70222D42A8426D28B
:1022940052CC56CA032A8413832AC4135AC806D6B6
:1022A400369742074183935777401355574009891E
:1022B400858BC98F135537401189C98F1355174022
:1022C4002189C98F131517004189C98F1315370048
:1022D40013750502C98F131557009355870013759D
:1022E40005041E07C98F1377F70FD98F13D535400F
:1022F40013D755401189098B498F13D57540498FE0
:1023040013D515402189498F139515004189498FAB
:102314001395350013750502498F139555001375F0
:1023240005049E05498F93F5F50F4D8F2207D98F2C
:10233400B387C7024AD04ECE5EC662C4B697C20700
:10234400C18313D7774013D557400989058B498F2B
:1023540013D537401189498F13D517402189498FE7
:10236400139517004189498F13953700137505029A
:10237400498F1395570093D58700137505049E075D
:10238400498F93F7F70FD98F13D5354013D755409D
:102394001189098B498F13D57540498F13D5154081
:1023A4002189498F139515004189498F139535006B
:1023B40013750502498F13955500137505049E0581
:1023C400498F93F5F50F4D8F2207D98FB387C70235
:1023D400130650025285D685B697BD8E9394060196
:1023E400C18033F6C402137BF60F974003E0E78005
:1023F400206405890DED8347D41201498149B384D2
:102404009702130C5002C1804A865285D6859740A4
:1024140003E0E780E0610589937BF90F11C56386CA
:102424003403850993F9F90F0509E31F89FD230B8B
:102434006413B250225492540259F249624AD24A65
:10244400424BB24B224C456182805E8BCDB7011169
:1024540097370000938787F222CC03A4870C26CAFF
:102464004AC84EC606CEAA8413092500854915C05C
:1024740083C7140003473400858B6304F700405C72
:10248400FDB71946930544004A85EFE0BF8FE31872
:1024940035FF2285F2406244D2444249B249056183
:1024A4008280411197370000938747ED22C403A42B
:1024B400870C26C24AC006C693042500054901E8D4
:1024C4002285B24022449244024941018280A68579
:1024D4001305A402973003E0E78080D9E30225FFC7
:1024E400405CF1BF411197370000938727E922C46C
:1024F40003A4870C26C24AC006C6930425000549D6
:1025040001E82285B240224492440249410182807A
:10251400A6851305A401973003E0E78060D5E302A4
:0825240025FF405CF1BF00003F
:10252C0097110020938141E3176100201301C1AC86
:10253C001305400097E5FF1F938505AC1706002097
:10254C00130606FE63FAC5008322050023A055007E
:10255C0011059105E3EAC5FE17850300130545B780
:10256C00970500209385C5FB1386018763FAC50088
:10257C008322050023A0550011059105E3EAC5FE51
:10258C001385018797350020938545F16377B50056
:10259C00232005001105E36DB5FEFD42739002BCCE
:1025AC008D42739042809302800873A0023097E2B0
:1025BC00FF1F938262A493E23200739052309722F1
:1025CC0000009382A24A7390123473002030397148
:1025DC0001436EC619A0397141536AC866CA62CCF0
:1025EC005ECE19A0397101535AD056D252D44ED660
:1025FC004AD826DA22DC06DE3301614082824111A0
:10260C004AC026C222C406C68282B24D4101024D86
:10261C00924C224CB24B4101024B924A224AB24993
:10262C004101024992442244B240410182803D431F
:10263C002A876373C3029377F700BDEFADE59376FA
:10264C0006FF3D8ABA960CC34CC30CC74CC7410756
:10265C00E36BD7FE11E28280B306C3408A06970271
:10266C00000096966780A6002307B700A306B70064
:10267C002306B700A305B7002305B700A304B700D2
:10268C002304B700A303B7002303B700A302B700CA
:10269C002302B700A301B7002301B700A300B700C2
:1026AC002300B700828093F5F50F93968500D58DA6
:1026BC0093960501D58D61B793962700970200007C
:1026CC0096968682E78086FA9680C1171D8F3E9675
:1026DC00E374C3F8A5B73367B500FD530D8B79E7E9
:1026EC00B7877F7F9387F7F710419441B372F60059
:1026FC003363F600BE92B3E262006397720C631808
:10270C00D6065041D441B372F6003363F600BE9244
:10271C00B3E262006398720A631BD60410459445B9
:10272C00B372F6003363F600BE92B3E262006391BB
:10273C00720A631ED6025045D445B372F600336359
:10274C00F600BE92B3E26200639A72086311D6027D
:10275C0010499449B372F6003363F600BE92B3E2AB
:10276C006200639372085105D105E30FD6F6131777
:10277C00060193970601631CF7001357060193D7C4
:10278C0006013305F7409375F50F91E9828041837B
:10279C00C1833305F7409375F50F91E18280137770
:1027AC00F70F93F7F70F3305F740828003460500C8
:1027BC0083C60500050585056313D60065FA330548
:1027CC00D640828011059105E312D6FE0145828028
:1027DC002105A105E31CD6FC014582803105B1051C
:1027EC00E316D6FC014582804105C105E310D6FCF9
:1027FC0001458280B717004003C777051377E70FB1
:10280C00A38BE704130700F8A38DE7043D47238C43
:10281C00E70413075003A38CE704828041112A8339
:10282C00014E930E407E130F0019930F400663E682
:10283C006E149308001913034006B3781503854EE4
:10284C000D4FA14F337365020D891335150063E0ED
:10285C00BE161308F6FF7946729842081358080101
:10286C003307C70213D61700BE0732976146B3F67B
:10287C00C60213068070B386C6023697A166F58F22
:10288C0042075D8FB716004083C7F60293F707081F
:10289C00A307F1000346F10083C7F60293F707087C
:1028AC00E394C7FE8347F100B716004093F7F70F88
:1028BC0063890714F3270080A18B938601876398A3
:1028CC00071401000100B7170040130670052380A0
:1028DC00C704130680FA2380C7040100010023AA51
:1028EC00070303C6170313660608A388C7022380D1
:1028FC000704732600809C42A18BD18F73900780B4
:10290C0023A80186010001001166B71500407D1651
:10291C00DC59C85DA98FF18FE5FFF3270080A18BEF
:10292C0089CBF327008023A8F1869C42DD9B739012
:10293C00078001000100B7170040130670052380C3
:10294C00C704130680FA2380C70401000100D8DBFA
:10295C0003C7170313670704A388E7022380070440
:10296C00732700809C42A18BD98F7390078023A87A
:10297C00018601000100410182807D133368E3036D
:10298C009308E016630E08003368F3039308D0161F
:10299C00630808009378330093B818009388D8160E
:1029AC0033081E01131E0801135E0E0149B5639313
:1029BC00E5030548638608000148630303002A8881
:1029CC0071087298FD15131E0801C205135E0E01E5
:1029DC00C181B5BD13F8150063F4BF007908D5B7F4
:1029EC0013381800E5BF83C7F60293F70708A3074F
:1029FC00F1000346F10083C7F60293F70708E3944E
:102A0C00C7FE8347F10093F7F70FF1DF65B5F327A6
:102A1C00008023A8F1869C42DD9B7390078055B5FE
:102A2C004111B7170040985F3AC6945F3247E39C58
:102A3C00E6FE3245410182801D71CEC662DC86CE37
:102A4C00A2CCA6CACAC8D2C4D6C2DAC05EDE66DAC6
:102A5C006AD86ED62A8CEF00D014AA89F32700808E
:102A6C00A18B9384018789CBF327008023A8F1865F
:102A7C009C40DD9B7390078001000100B71700405C
:102A8C00130770052380E704130780FA2380E704FB
:102A9C000100010003C7F70213678700A387E70251
:102AAC0003C7F7021377770FA387E7022380070486
:102ABC00732700809C40A18BD98F7390078023A82B
:102ACC00018601000100F3270080A18B89CBF3273D
:102ADC00008023A8F1869C40DD9B73900780010049
:102AEC000100B7170040130770052380E704130794
:102AFC0080FA2380E7040100010003C7E702137783
:102B0C00C70F2387E70203C7E70213671700238762
:102B1C00E70223800704732700809C40A18BD98F88
:102B2C007390078023A8018601000100F327008021
:102B3C00A18B89CBF327008023A8F1869C40DD9BD9
:102B4C007390078001000100B71700401307700550
:102B5C002380E704130780FA2380E70401000100B7
:102B6C0003C737051377870FA389E70403C7370516
:102B7C0013671700A389E7042380070473270080D9
:102B8C009C40A18BD98F7390078023A801860100EC
:102B9C000100130980C133C92903916B938C0BE895
:102BAC00130A5002930A803E2167130707D0130BB8
:102BBC00A00437140040930D0404617DFD1BB3C7C2
:102BCC009903916C330949033EC6B3CA5903B34701
:102BDC00E902130980FA338A4A033EC8B347EA0272
:102BEC00130A7005338B6A033ECABD67938707A629
:102BFC00B347FB02014B3ECC73270080218B09CBE2
:102C0C007327008023A8E18698405D9B7310078092
:102C1C0001000100930770052380FD0023802D0126
:102C2C00010001000347340513670702A309E404FC
:102C3C0003570405336797012318E404035704056D
:102C4C003367A701420741832318E40423800D0056
:102C5C00F32600809840218B558F7310078023A892
:102C6C00018601000100034734051377070263084E
:102C7C00071403473405218B6DDF73270080218BEC
:102C8C0009CB7327008023A8E18698405D9B7310C5
:102C9C0007800100010023804D0123802D010100DC
:102CAC000100034734051377F70DA309E404034728
:102CBC00340513670702A309E404035704053367BB
:102CCC0097012318E404035704053367A70142074F
:102CDC0041832318E40423800D00F32600809840E0
:102CEC00218B558F7310078023A8018601000100EA
:102CFC000347340513770702630E070E03473405A9
:102D0C00218B6DFF313B2A873ACE193B7247E30D7D
:102D1C00E5FE03570405336797012318E4040347C2
:102D2C003405218B6DDF8356040503472405B24718
:102D3C00B3F6DB003387EB02BA969D8EC24763D5A0
:102D4C00D700D24763C3F60E09476362670FE247A9
:102D5C0013061B0013971600137BF60F3347F7026D
:102D6C006350D040050789463347D702F3260080CD
:102D7C00A18A89CAF326008023A8D1869440DD9AC3
:102D8C00739006800100010023804D0123802D01EA
:102D9C00010001008356C402369742074183231673
:102DAC00E40223800D00F32600809840218B558F80
:102DBC007310078023A801860100010035BD73271D
:102DCC000080218B09CB7327008023A8E1869840D3
:102DDC005D9B731007800100010023804D0123804F
:102DEC002D01010001000347340513670702A309F5
:102DFC00E404A9BD73270080218B09CB73270080C5
:102E0C0023A8E18698405D9B7310078001000100A8
:102E1C0023804D0123802D0101000100034734055F
:102E2C0013670702A309E4047DB5E3020BF2F32751
:102E3C000080A18B89CBF327008023A8F1869C40CE
:102E4C00DD9B7390078001000100B717004013074A
:102E5C0070052380E704130780FA2380E704010040
:102E6C00010003C737059376FC0F1377870FA389EF
:102E7C00E70403C73705558FA389E70423800704AC
:102E8C00732700809C40A18BD98F7390078023A857
:102E9C00018601000100B717004013067005930569
:102EAC0080FA03C737051D8B631E872BF327008021
:102EBC00A18B89CBF327008023A8F1869C40DD9B56
:102ECC007390078001000100B717004013077005CD
:102EDC002380E704130780FA2380E7040100010034
:102EEC0003C7370591661377F70DA389E70403C76A
:102EFC00370513670702A389E70403D70705558F26
:102F0C002398E70403D70705A166558F2398E70498
:102F1C0023800704732700809C40A18BD98F73906A
:102F2C00078023A8018601000100B7170040930613
:102F3C007005130680FA03C7370513770702630A77
:102F4C0007263717004083473705A18BEDDFF327A2
:102F5C000080A18B89CBF327008023A8F1869C40AD
:102F6C00DD9B7390078001000100B7170040130729
:102F7C0070052380E704130780FA2380E70401001F
:102F8C00010003C7370591661377F70DA389E70492
:102F9C0003C7370513670702A389E70403D707059F
:102FAC00558F2398E70403D70705A166558F2398FF
:102FBC00E70423800704732700809C40A18BD98FE2
:102FCC007390078023A8018601000100B717004009
:102FDC0093067005130680FA03C7370513770702AB
:102FEC00630107223717004083473705A18BEDFF9C
:102FFC00053C2A843534E30F85FE37170040835790
:10300C0007059166D58F2318F70483473705A18BE5
:10301C00EDDFF3270080A18B9386018789CBF32703
:10302C00008023A8F1869C42DD9B739007800100F1
:10303C000100B7170040130770052380E70413073E
:10304C0080FA2380E7040100010003C737051377DA
:10305C00F70DA389E70423800704732600809842A8
:10306C00218B518F7310078023A80186010001006A
:10307C0003D7070503C627059167FD177D8FB38717
:10308C00C70237460F0013060624B3C9C9023E9780
:10309C008567938707FAB3978701B389370393073B
:1030AC000010B3C9F9029307800C8E09B30937419C
:1030BC000547331C8701135C3C40B30A5C03130CBB
:1030CC0060553D67130707A6B38A8A03B3CAEA02A1
:1030DC00B387F902B3C75703635D301785070947F8
:1030EC00B3C7E702960773270080218B09CB7327A0
:1030FC00008023A8E18698425D9B73100780010035
:10310C00010037170040130670052300C70413068F
:10311C0080FA2300C704010001000356C702B297CE
:10312C00C207C1832316F70223000704732700800C
:10313C009C42A18BD98F7390078023A80186010034
:10314C000100F6406644D6444649B649264A964A9A
:10315C00064BF25B625CD25C425DB25D25618280A3
:10316C007D1711B173270080218B09CB7327008049
:10317C0023A8E18698405D9B731007800100010035
:10318C002380C7042380B7040100010003C737055F
:10319C00558FA389E704238007047325008098408A
:1031AC00218B498F7310078023A801860100010031
:1031BC00CDB973270080218B09CB7327008023A8FE
:1031CC00E18698405D9B731007800100010023800D
:1031DC00D7042380C7040100010003C73705136718
:1031EC000702A389E70423800704F3250080984095
:1031FC00218B4D8F7310078023A8018601000100DD
:10320C001DBB73270080218B09CB7327008023A85B
:10321C00E18698405D9B73100780010001002380BC
:10322C00D7042380C7040100010003C737051367C7
:10323C000702A389E70423800704F3250080984044
:10324C00218B4D8F7310078023A80186010001008C
:10325C0061B3FD1769B5914763EEB70217570300C9
:10326C001307C7438A05BA959C41BA978287B7174B
:10327C00004003A7470B1345F5FF698F23AAE70A04
:10328C0003A7070B698F23A8E70A03A7070A798D01
:10329C0023A0A70A8280B717004083A6470B1347C9
:1032AC00F5FFF98E23AAD70A83A6070B558D23A801
:1032BC00A70A83A6070A758F23A0E70A8280B7178F
:1032CC00004003A7470B498F23AAE70A03A7070B64
:1032DC001345F5FF45BFB717004083A6470B1347AF
:1032EC00F5FF758F23AAE70A03A7070A598D4DB777
:1032FC00B717004003A7470B498FEDB7914763EE13
:10330C00B702175703001307A73A8A05BA959C41D1
:10331C00BA978287B717004003A7470D1345F5FFEF
:10332C00698F23AAE70C03A7070D698F23A8E70C65
:10333C0003A7070C798D23A0A70C8280B717004038
:10334C0083A6470D1347F5FFF98E23AAD70C83A646
:10335C00070D558D23A8A70C83A6070C758F23A0EA
:10336C00E70C8280B717004003A7470D498F23AAAB
:10337C00E70C03A7070D1345F5FF45BFB717004032
:10338C0083A6470D1347F5FF758F23AAE70C03A7F8
:10339C00070C598D4DB7B717004003A7470D498F40
:1033AC00EDB7B717004003D58700420541819377ED
:1033BC00050491EB9377F5013755E801130505806A
:1033CC003345F50282809377050C1307000463974D
:1033DC00E7009377F50137459C1CCDB721651305A4
:1033EC0005D08280B7F700E08847CC4782808147C0
:1033FC0037370040A14663C4C7003285828003453D
:10340C00B740E38EA6FE3385F5000345050085071E
:10341C002304A740CDB7411122C406C62A845137D4
:10342C002947B307E502B2408D83B3D78702224404
:10343C009507B3D7E70237370040C207C18323167D
:10344C00F74041018280716541111305052006C6C4
:10345C00D937B7370040130770F82381E7400D4781
:10346C00A381E74013070004A380E74005472387A7
:10347C00E740B240410182802D4549E703C7050072
:10348C008947631DF706D841411106C683471700CB
:10349C00034707003285A207D98F4167130627FE21
:1034AC006384C7046369F60005176382E7022390FF
:1034BC00060029453DA0130647FE638CC70215176D
:1034CC00E397E7FE95472390F600154629A0D547CC
:1034DC002390F6005546CC4597E0FF1FE78000810E
:1034EC000145B2404101828085472390F600054694
:1034FC00DDB7CD472390F6004D46F1BF2390060073
:10350C0005458280828083C7850093F70702E1E33B
:10351C00411106C622C426C24AC003C9050009438C
:10352C002E888547631B690203A345003284B68449
:10353C008347130003430300A207B3E7670041630B
:10354C00130E13FE6382C7030D13638B67040D68A0
:10355C001308289063850707A947B2402244924478
:10356C0002493E8541018280AD4765FB5547B54711
:10357C00E365D7FE0325C8005546A28597D0FF1FEB
:10358C00E780C0760149938741889843814771D77A
:10359C00184361D72686A2854A850297814775BF55
:1035AC00AD4745FF5547B547E369D7FA0325C80032
:1035BC005546A28597D0FF1FE7804073E9B7224498
:1035CC00B24092440249854741016F90313BA1477B
:1035DC003E85828041677917630CE502411122C454
:1035EC0006C685472A84639AF50022852244B24098
:1035FC009385818741016FB0310C89476396F50043
:10360C008545EFD0314075D1B240224441018280D2
:10361C008280411122C42A844165938581877D155E
:10362C0006C6EFB07109170500001305E5FA058809
:10363C00EFD0913405C02244B24097F6FF1F938619
:10364C0026FF4146C54517F5FF1F130565ED4101E2
:10365C006FB0A17BB240224401454101828009C573
:10366C0023A2A18801458280454582801147636E63
:10367C00A706975603009386E6040A05369518416B
:10368C00411106C63697AE87B2850287554761450C
:10369C00639AE7005546138541A597D0FF1FE78035
:1036AC00E0640145B2404101828005476145E39BDE
:1036BC00E7FE054613854187CDB755476145E39332
:1036CC00E7FE55461385C1A6C9BF4D476145E39B2F
:1036DC00E7FC4D46138541A8C9B715476145E393EF
:1036EC00E7FC15461385C1874DBF09458280411102
:1036FC0022C42E849385818726C206C6AA84EF90A5
:10370C00B122058915C197F7FF1F938767E183D70E
:10371C00A70BA285B2402310F400224426859244C4
:10372C00014641016FA01108B24022449244494520
:10373C00410182802384018823A60188B7170040A9
:10374C0003A7070CB706C0FFFD16758F23A0E70C67
:10375C0003A7070DB7064000558F23A8E70C03A756
:10376C00070C3D9B23A0E70C03A7070D136707016C
:10377C0023A8E70C828023A6A1881306400689455E
:10378C0003C501896F400108B717004003A5470C1A
:10379C0083A7470C598113451500C18B058999E303
:1037AC001365250083C78188638CA7002384A188B7
:1037BC0001C99387C18803A3070063030300028335
:1037CC00828011456FF04FA7411193962500AA8571
:1037DC002D4506C697D0FF1FE780A0E7B2400145F4
:1037EC0041018280411126C29394250022C44AC013
:1037FC002A843289A686AA850146254506C697D015
:10380C00FF1FE78000E5A6864A86A285294597D04A
:10381C00FF1FE78000E4B240224492440249014574
:10382C0041018280011122CC06CE3714004026CAF9
:10383C004AC84EC652C483447405034AB40583492E
:10384C00840503499405EFE0FFFA8347A40593F43C
:10385C00F40F137AFA0F93E71700230DF40493F97E
:10386C00F90F1379F90FB717004003C7A705058B9C
:10387C006DFF03D5C705A38D4705238C3705A38C96
:10388C002705A38B9704F2406244D2444249B249C3
:10389C00224A0561828041119397050122C406C614
:1038AC00C1872E8463DA0700EF30B12A19C1EF30DB
:1038BC0031232165218D1DA093F7150013C515002B
:1038CC0091EF93F7250099CFC1351306000A89456E
:1038DC0003C50189EF30117313452400B240224413
:1038EC00410182809397250163D00702EF40227A31
:1038FC00C93D37F60200130606E0896503C5018948
:10390C00EF30517009657DB7939715010145E3D7E9
:10391C0007FC175503001305A5E0EF30F32E130633
:10392C000064916503C50189EF30D16D116559B7FC
:10393C001D71494697550300938505DA17650300F9
:10394C001305C51E86CE97D0FF1FE780204301E9E3
:10395C0017550300130585D9EF30132B01A0B7F6CB
:10396C0000E0795798CAFD57DCCA0567B7E700E055
:10397C0023A0E7101306F00290C223A0E718010061
:10398C0001001306C0038145480897D0FF1FE7804C
:10399C006039970700209387A7D03ECA85671387A5
:1039AC000740231CE10035472304E102216713077C
:1039BC0007E03ACE37070105130707103AD0938773
:1039CC0017D06D472312E1022315F1020547970723
:1039DC000000938767A12303E1023EDA170700007A
:1039EC001307C7DE97070000938707E4B7F50700B6
:1039FC00BAC43EDE17070000130707DF9707000065
:103A0C00938767DC81467000E1051945BAC6BEC0D4
:103A1C0097D0FF1FE780E0C3580881479946700094
:103A2C003E960346060085070507A30CC700E398DE
:103A3C00D7FED24791C70357810185676373F7009F
:103A4C0001A04808EF40412FAA8501C91755030072
:103A5C00130505CBEF30130701A0F64025618280DA
:103A6C00411117050000130545E306C622C4EF40BB
:103A7C002129138401892300A400312865390345C9
:103A8C0004002244B24037F60200130606E08965B2
:103A9C0041016F303157411106C6F3270080A18BCD
:103AAC001387018789CBF327008023A8F1861C4359
:103ABC00DD9B7390078001000100B717004093064F
:103ACC0070052380D704930680FA2380D704010065
:103ADC00010083C6F70293F6A60FA387D7022380B3
:103AEC000704F32600801C43A18BD58F73900780AD
:103AFC0023A8018601000100F3270080A18B89CB4C
:103B0C00F327008023A8F1861C43DD9B739007806C
:103B1C0001000100B7170040930670052380D704FD
:103B2C00930680FA2380D7040100010083C6F702B4
:103B3C0093E62600A387D70223800704F326008090
:103B4C001C43A18BD58F7390078023A8018601009D
:103B5C00010085391305407E8147014781460546A2
:103B6C008545EFE0BFCBB240014541016F4041516B
:103B7C00411197550300938525BE17550300130576
:103B8C00A5D406C6EF300374175503001305C5D42E
:103B9C00EF3043732945EF30E376B24041016F308B
:103BAC004018411197550300938545B917550300EB
:103BBC00130585D106C6EF30E37013050002EF3014
:103BCC0063742945EF300374EF30D1178567138682
:103BDC0007773376C502B2409387873803C581894E
:103BEC00854541013E966F30F141411197550300D7
:103BFC00938545B317550300130505CD06C6EF3065
:103C0C00636C13050002EF30E36F2945EF30836FCF
:103C1C00B24003C58189854541016F30915F97178B
:103C2C00002083C7F7F4411193F7E70F06C6171767
:103C3C000020A30FF7F2EFA0C00305E1EF20303016
:103C4C00EF30006AB2403726090003C5818913069C
:103C5C00067C854541016F30F13AB24041018280CA
:103C6C00411197550300938565AE17550300130555
:103C7C00A5C506C6EF3003652945EF30A368B240F1
:103C8C00410171BF411197550300938565AA1755E2
:103C9C000300130565C306C622C426C24AC0EF3012
:103CAC0063622945EF300366EF90B07C19E522443E
:103CBC00B2409244024941019DB797F4FF1F93848F
:103CCC0064A8BC48757471797D14239027012391E5
:103CDC00870017F5FF1F1305E5AAEFD0A06BFC4476
:103CEC0017F5FF1F130505AA23900700EFD0E06816
:103CFC00BC5817F5FF1F1305E5AA23902701239144
:103D0C008700EFD02069FC5417F5FF1F130585A918
:103D1C0023900700EFD0606683A7040917F5FF1FF7
:103D2C00130545AA2390270123918700EFD08066C5
:103D3C0083A7C40817F5FF1F1305C5A897F4FF1F29
:103D4C00938404AB23900700EFD020639C48268516
:103D5C002390270123918700EFD0C063DC442244D9
:103D6C00B2400249268592442390070041016FD04E
:103D7C00C0604111975503009385C59E17550300EC
:103D8C00130585B406C622C426C2EF30A3532945B9
:103D9C00EF304357EF90F06D05E99755030093858D
:103DAC00659C17550300130525B2EF30A351175529
:103DBC000300130525B4EF30E3502244B240924483
:103DCC00294541016F30035413050002EF10C00C5C
:103DDC002A8405E1975503009385C5981755030070
:103DEC00130585AEEF30034E17550300130505B2CE
:103DFC00D9B7A547A300F5009307C0125CC1FD57C6
:103E0C002306F500EF1020082300A400084CB7058A
:103E1C00D4009385851A3105EF10105A084C834550
:103E2C0004003105EF308068084C93050010310513
:103E3C00EF300069044C0565EF00D026B104AA856B
:103E4C002685EF30A066084C930510123105EF3033
:103E5C002067084CC165FD153105EF306066084CD4
:103E6C00930520123105EF30A065084C95659385BC
:103E7C0005E23105EF30C06422852244B240924401
:103E8C0041016F10000793F71500B9CB411122C403
:103E9C0017550300130545A32E84975503009385EE
:103EAC00A59006C6EF3003422945EF30A345EF90AD
:103EBC00505C01C97D3D13451400B24022444101C0
:103ECC0082809717002083C7B7CA93F7E70F93E751
:103EDC00170017170020A30DF7C8EF20D007E1BF7C
:103EEC00014582807971975503009385E5881755B4
:103EFC0003001305659D06D6EF30C33C2945EF3012
:103F0C006340614681452800EFE06FF2EF00B07727
:103F1C00A547A304F1009307C0123EC6FD57230426
:103F2C00A100230AF100EF90D0541DE59755030032
:103F3C00938585841755030013050599EF30833855
:103F4C00175503001305059BEF30C3372945EF3098
:103F5C00633BB250456182802800EF00707A2800E4
:103F6C00EF10E0022800EF10600BE5B741119755F8
:103F7C00030093856581175503001305E59406C668
:103F8C0022C4EF3023342945EF30C337EF90704E05
:103F9C001DE5974503009385257F175503001305F1
:103FAC00A592EF302332175503001305A594EF307B
:103FBC0063312244B240294541016F30A33441455D
:103FCC00EF00906D2A8405E1974503009385C57B2E
:103FDC00175503001305458FEF30C32E17550300FB
:103FEC001305C592E9B7A547A300F5009307C012C6
:103FFC005CC197670300938767085CC9FD5723066C
:10400C00F500EF0050682300A400084CB705D4005D
:10401C009385851A3105EF10303A084C834504001E
:10402C003105EF30A048084CBD65A5053105EF30D2
:10403C002049084C930530023105EF30204722858A
:10404C002244B24041016F00D06A411122C497450D
:10405C0003009385A5742A84175503001305C586A0
:10406C0006C6EF302326A285175503001305C58716
:10407C00EF3043252945EF30E32885476309F400E9
:10408C008947630AF400B2402244410182802244F1
:10409C00B240410181BD2244B2404101C1BD011178
:1040AC003546974503009385A577175503001305EF
:1040BC0065F206CE22CC97D0FF1FE78020CC0DE511
:1040CC00974503009385456F174503001305C57F7E
:1040DC00EF30431F1745030013054561EF30C33222
:1040EC002945EF30232201A097F7FF1F938747D074
:1040FC003EC4856793870780340017660300130658
:10410C0066F897550300938565AC175503001305A6
:10411C0065AD3EC6EF20F00C2A840DC9974503000F
:10412C0093858569174503001305057AEF308319CC
:10413C00A285174503001305A56FEF30A318294579
:10414C00EF30431CF240624405618280EF80700FB7
:10415C001745030013054567EF10702CEF50900FB7
:10416C00EFF0201717E5FF1F1305C567EFF00004EC
:10417C001745030013054566EFF060172A84EF20FE
:10418C00E006EFA0F03EEF106135EF30E01CEF20C1
:10419C002062EFD0C01B974503009385E56117455E
:1041AC0003001305657209C8EF30C311A2851745CA
:1041BC0003001305256A51B7EF30C31017450300F0
:1041CC001305856BEF3003102945EF30A313EFC0B7
:1041DC00707EEF90102A29C5974503009385C55D25
:1041EC00174503001305456EEF30C30D174503004B
:1041FC001305056AEF30030D2945EF30A3109745E1
:10420C0003009385655B174503001305E56BEF30E1
:10421C00630B174503001305E569EF30A30A05B7D7
:10422C00EFF0FF9FE9BF411106C6EFA09218EF1007
:10423C00602E17050000130545C5EF30712C238C3B
:10424C00A18817E5FF1F1305A55AEF001066813DE5
:10425C00EFF04FCE17050000130565DFEFF0AFD17F
:10426C00B240814505654101B1A541119745030057
:10427C009385456B174503001305056506C622C4D7
:10428C00EF3043041384A1818355040017450300C8
:10429C0013054578EF3003032945EF30A30603558A
:1042AC000400B24022444101828039711C0822DC96
:1042BC003EC22E84B7072000A16526DA9385052619
:1042CC00AA843EC448001C0806DE3EC6EF10D00E81
:1042DC000565613FAA854800EF30801E97450300B5
:1042EC0093854565174503001305055EEF20937D07
:1042FC008355840003566400174503001305856E2F
:10430C00A18193F5F507EF20F37B2945EF20937FEF
:10431C00834794000147814693F7F707D917B337C2
:10432C00F000B307F0402305F4005000A285268569
:10433C00EF10F02815C52A84974503009385855FF7
:10434C001745030013054558EF20D377A285174571
:10435C0003001305A56AEF20F3762945EF20937A25
:10436C00F2506254D25421618280411122C426C27F
:10437C002A84AE84174503001305055597450300A1
:10438C009385855C06C6EF20F37313050002EF20BE
:10439C0073772945EF20137722852244B240A685F6
:1043AC009244410119B7397122DC4AD82E844ED679
:1043BC0081453289AA896146280006DE26DA52D464
:1043CC0056D2EFE0CFA6EF00102CA547A304F100C6
:1043DC009307C0123EC62304A100EF30A116930729
:1043EC0020033375F502974503009385E556814408
:1043FC00974A0300938A4A5E154A2AC81745030058
:10440C001305854CEF20136C83270900835584001A
:10441C008306840003C7270083C737000356640054
:10442C00A181A2075D8F93F5F507174503001305CE
:10443C00E557EF2033692945EF20D36C832709001A
:10444C005685A69783C507008504EF20B367E397CD
:10445C0044FF032709008347370003472700A207BF
:10446C00D98F239DF18083479400294793F7F70751
:10447C006385E700FD57230AF10083176400635935
:10448C00F000FD57230AF1009307400602C83EC610
:10449C002800EF00B038A2854E85013DF2506254E1
:1044AC00D2544259B259225A925A21618280011136
:1044BC00974503009385454B174503001305C540ED
:1044CC0032C606CEEF20136013050002EF20936373
:1044DC002945EF2033630565493B32461842834733
:1044EC00170083460700A207DD8E6307D50003473C
:1044FC000700D98F239DF180F24005618280239DB6
:10450C00B18082804111974503009385A5511745D1
:10451C0003001305653B06C622C4EF20B35A13846F
:10452C00C18183550400174503001305A55DEF20D9
:10453C0073592945EF20135D03550400B240224402
:10454C004101828039711C0822DC3EC22E84B707DF
:10455C002000A16526DA9385E524AA843EC4480090
:10456C001C0806DE3EC6EF1020650565613FAA8576
:10457C004800EF20F074974503009385E54B1745F1
:10458C00030013056534EF20F35383558400035661
:10459C006400174503001305E544A18193F5F50765
:1045AC00EF2053522945EF20F355834794000147E0
:1045BC00814693F7F707D917B337F000B307F040EC
:1045CC002305F4005000A2852685EF10407F15C509
:1045DC002A84974503009385254617450300130548
:1045EC00A52EEF20334EA285174503001305054178
:1045FC00EF20534D2945EF20F350F2506254D25422
:10460C0021618280411122C426C22A84AE841745BE
:10461C0003001305652B974503009385654306C678
:10462C00EF20534A13050002EF20D34D2945EF200C
:10463C00734D22852244B240A6859244410119B79C
:10464C00397122DC4AD82E844ED681453289AA890A
:10465C006146280006DE26DA52D456D2EFD03FFD52
:10466C00EF007002A547A304F1009307C0123EC6E9
:10467C002304A100EF20116D930720033375F5027D
:10468C00974503009385053E8144974A0300938A1E
:10469C002A46154A2AC8174503001305E522EF20C0
:1046AC00734283270900835584008306840003C763
:1046BC00070083C7170003566400A181A2075D8F12
:1046CC0093F5F507174503001305853FEF20933F3E
:1046DC002945EF203343832709005685A69783C5C8
:1046EC0007008504EF20133EE39744FF03270900DE
:1046FC008347170003470700A207D98F239EF18039
:10470C0083479400294793F7F7076385E700FD5724
:10471C00230AF100831764006359F000FD57230A44
:10472C00F1009307400602C83EC62800EF00300691
:10473C00A2854E85013DF2506254D2544259B25971
:10474C00225A925A21618280011197450300938568
:10475C00A532174503001305251732C606CEEF20E8
:10476C00733613050002EF20F3392945EF209339F6
:10477C000565493B324618428347170083460700BC
:10478C00A207DD8E6307D50003470700D98F239E50
:10479C00F180F24005618280239EB1808280397164
:1047AC001C0822DC3EC22E84B7072000A16526DA45
:1047BC003EC4AA841C0893854520480006DE3EC6EC
:1047CC00EF10803FB717004083A5470C4800B1811C
:1047DC0093C515008589EF20704D9745030093858F
:1047EC00A533174503001305250EEF20B32D835574
:1047FC00840003566400174503001305A51EA18110
:10480C0093F5F507EF20132C2945EF20B32F8347A1
:10481C0094000147814693F7F707D917B337F00097
:10482C00B307F0402305F4005000A2852685EF1055
:10483C00005915C52A84974503009385E52D174526
:10484C00030013056508EF20F327A2851745030025
:10485C001305C51AEF2013272945EF20B32AF25070
:10486C006254D25421618280411122C426C22A840E
:10487C00AE84174503001305250597450300938562
:10488C00E52A06C6EF20132413050002EF20932718
:10489C002945EF20332722852244B240A685924435
:1048AC004101F5BDB717004083A7470C7D8D13352B
:1048BC0015008280411126C2AE848D4522C406C6E5
:1048CC002A84EFE0BFA3B717004099C803A5C70C13
:1048DC00418D23A6A70CB240224492444101828010
:1048EC0003A5870C418D23A4A70CF5B7011197459F
:1048FC0003009385A525174503001305E5FC32C677
:10490C0006CEEF20331C13050002EF20B31F294500
:10491C00EF20531F3246B717004083A7470C1842AD
:10492C00B1838345070093C71700858B6386F50019
:10493C00F24005650561BDBFF24005618280797169
:10494C0022D426D22E844AD081453289AA8461464B
:10495C00280006D6EFD0BFCD3D23A547A304F10018
:10496C009307C0123EC62304A100EF20B13D93076C
:10497C0020033375F502974503009385251C2AC83F
:10498C0017450300130545F4EF20D313835584001A
:10499C008306840003566400A18193F5F50717453F
:1049AC0003001305E51EEF20F3112945EF209315A5
:1049BC0083270900056583C50700ED3D83479400F7
:1049CC00294793F7F7076385E700FD57230AF100A2
:1049DC00831764006359F000FD57230AF100930715
:1049EC00400602C83EC62800212BA2852685453BE1
:1049FC00B2502254925402594561828041118D4526
:104A0C0022C406C62A84EFE07F8FB717004003A5A7
:104A1C00870CB240218D224423A4A70C4101828033
:104A2C000111354697450300938585DF1745030033
:104A3C001305455A06CE97C0FF1FE780203401E9C5
:104A4C001745030013050517EF20131C01A0EF40B9
:104A5C00721A2AC6EF00916AEF00D149EF704043F9
:104A6C00F24032450561828041111305800406C66F
:104A7C0097B0FF1FE7806061371700408327870AD4
:104A8C008D451305002093E707202324F70AEFE058
:104A9C008FFCEFE05F9B1755030013052509EF20F2
:104AAC00B316174503001305E552EF20F315EFE09D
:104ABC003FE8EFE0FFFAAD37EFF0EFF697C0FF1FDE
:104ACC00E780C0AC014582804111B2862E86AA8552
:104ADC002D4506C697C0FF1FE780A0B7B240014521
:104AEC0041018280AE860146AA85254517C3FF1F6A
:104AFC00670023B69307000463E6C7021D71A2CCBE
:104B0C002A84080886CE32C6EF206370B24610089D
:104B1C00A285294597C0FF1FE780A0B3F6406644E5
:104B2C002561828039558280014797460300938620
:104B3C00E6243388E50083470800050709059183BF
:104B4C00B69783C70700230FF5FE83470800BD8B7C
:104B5C00B69783C70700A30FF5FE93170701C18310
:104B6C00E3E9C7FC8280411197450300938505104A
:104B7C0017450300130545D506C6EF20A37413058E
:104B8C000002EF202378B240294541016F20837742
:104B9C004111974503009385650B174503001305D9
:104BAC00A5D206C6EF20037213050002EF20837511
:104BBC00B240294541016F20E37441119745030030
:104BCC009385850717450300130505D006C6EF200E
:104BDC00636F13050002EF20E372B24029454101D7
:104BEC006F204372411197450300938525041745A7
:104BFC000300130565CD06C6EF20C36C1305000238
:104C0C00EF204370B240294541016F20A36F411141
:104C1C00974503009385C500174503001305C5CAC6
:104C2C0006C6EF20236A13050002EF20A36DB240E5
:104C3C00294541016F20036D5C49411122C406C610
:104C4C002A8491C7DC4381C72E850C4882971C4C63
:104C5C00C84BEF20E1681C4CB240224423AA070049
:104C6C00410182804111328506C622C426C22E849F
:104C7C004AC0EF20100EAA8497450300938505FEC9
:104C8C0017450300130545C4EF20C36303078400D5
:104C9C000356640083554400A6861745030013058C
:104CAC002511EF2023622945EF20C365170400204E
:104CBC00130444E4170900201309C9E983470400CD
:104CCC00639B970081452285853F8345C40103C5BD
:104CDC00A189EF20115413040402E31124FFB24004
:104CEC00224492440249410182801D7197070020A1
:104CFC0083C707E2CEC686CEA2CCA6CACAC8D2C487
:104D0C00ED8F970900209389E9DED9EF97070020F2
:104D1C0083C707E2ED8FD9EB9707002083C747E3E2
:104D2C00ED8F0145B5CB8947939457001C103EC4B9
:104D3C00B70720003EC617EAFF1F130A6AAB1C1008
:104D4C003EC88327CA0002CA02CC02CE83D7070012
:104D5C0033849900184C231BF100FD77231CF100C0
:104D6C005C4B2E89B1E797450300938525F31745D6
:104D7C000300130565B5EF20E35417450300130535
:104D8C00A5FAEF2023542945EF20C357B387990088
:104D9C0003C5C7013345A900F6406644D6444649CD
:104DAC00B649264A256182808147BDBF8547ADBF84
:104DBC0083471400A555B9CFFD17035607014C477F
:104DCC00A300F4008347C4002800230FF100EF2058
:104DDC00006C52852287975603009386262B300051
:104DEC004C08EF00D07D2A8A55D197450300938556
:104DFC00E5EA17450300130525ADEF20A34CD2853A
:104E0C0017450300130505F3EF20C34B2945EF208D
:104E1C00634FD55522850D3595BF9C4DDC4B81CB11
:104E2C00D04183C5C50103C5A1896F20B11D828006
:104E3C001C4EDC4BA1CBB9C5411126C21745030052
:104E4C00130585A8AE8497450300938565E406C6D3
:104E5C0022C43284EF200347A685174503001305AF
:104E6C0025F3EF2023462945EF20C3498345C40190
:104E7C002244B240924403C5A18913064006410165
:104E8C006F20511882809387918903C507001307FF
:104E9C0015002380E7008280011122CC170400202A
:104EAC00130444C526CA044C06CE4AC8DC484EC678
:104EBC0099CF045CDC4895CB244CDC488DCB014568
:104ECC00F2406244D2444249B249056182800149B0
:104EDC00AA891609EF208143C8C8330524011C4D4B
:104EEC0023993701DC4BE9FFD9BF0549D5B70949EF
:104EFC00C5B710458345C50103C5A1896F20911025
:104F0C00411126C2AA84414506C622C4713705E95F
:104F1C0097450300938585D9174503001305C59A5A
:104F2C00EF20433A174503001305459EEF208339C4
:104F3C002244B2409244294541016F20A33C614672
:104F4C00A6852A84EF20A32C084CB705D4009385A2
:104F5C00851A3105EF005046084C83C50400310515
:104F6C00EF20C054084C930500103105EF2040553C
:104F7C00044C0565EFF01F93B104AA852685EF203C
:104F8C00E05222852244B240924441019DB7411126
:104F9C0026C2AA84414506C622C4FD3D05E99745B3
:104FAC0003009385E5D1174503001305E591EF2028
:104FBC0063311745030013056595EF20A330224498
:104FCC00B2409244294541016F20C3336146A68506
:104FDC002A84EF20C323084CB705D4009385851A87
:104FEC003105EF00703D084C83C504003105EF20FE
:104FFC00E04B084C930510123105EF20604C044C2B
:10500C000565EFF02FD0B104AA852685EF20404B23
:10501C0022852244B24092444101E1BD411126C295
:10502C00AA84414506C622C4853D05E9974503007F
:10503C00938585CA1745030013050589EF2083283E
:10504C00174503001305858CEF20C3272244B2407B
:10505C009244294541016F20E32A6146A6852A84A2
:10506C00EF20E31A084CB705D4009385851A310557
:10507C00EF009034084C83C504003105EF20004349
:10508C00084C930520123105EF208043044C056534
:10509C00EFF0AF9DB104AA852685EF2060422285F2
:1050AC002244B24092444101A9B5B707B18093871D
:1050BC00871A170700202327F7AAB7A7001793878B
:1050CC0087AA170700202321F7AAB797EB3D157184
:1050DC009387570317070020232AF7A888109307F4
:1050EC00002586CF170700202324F7A8A2CDEF00B8
:1050FC00712CB7A7A880938707A011464C002810E5
:10510C003EC2EFF07FA297450300938525BE081899
:10511C00EF204330194697450300938565C413056A
:10512C001103EFF07FA097450300938525BC130571
:10513C00D103EF20232E4146974503009385A5C24A
:10514C001305E103EFF05F9E130660032C1088102B
:10515C00EF00112D85476308F50A974503009385E9
:10516C00E5B11735030013052576EF20A315174578
:10517C0003001305E5B7EF20E3142945EF2083184E
:10518C00EF20413C9357850003C79189AA97BA97A2
:10519C0013570501BA976181AA97A38CF1889707D9
:1051AC0000209387E78F170700202321F796854768
:1051BC0017070020230EF79497070020938707907A
:1051CC00170700202324F79689471707002023018F
:1051DC00F79697070020938727901707002023271F
:1051EC00F79617050000130585B0914717070020A7
:1051FC002300F796EF20D130FE406E44238DA1881A
:10520C0001452D6182802A848C102800EF007127C3
:10521C006301850297450300938545A61735030066
:10522C001305856AEF20030A174503001305C5AD66
:10523C0099B741462C00170500201305A591EF10D6
:10524C00137D3DBF2A86B305B040174503001305F7
:10525C00A5C16F20230783D7418A6390A7022393AC
:10526C00B18A2394C18A2395D18A2E8617450300CF
:10527C00130585BDBE856F20E30417450300130598
:10528C0025BE6F206318797106D619C58947630846
:10529C00F50CB25045618280280097C0FF1FE78053
:1052AC00E0A483458100174503001305E5C8EF20F2
:1052BC0063018347810005476383E7048DCF09476A
:1052CC006387E706EFE01FC217450300130585C788
:1052DC00EF20831383D5C18117450300130545C8FF
:1052EC00EF10537E83D5A18117450300130585C8A4
:1052FC00EF10537D79BF0565EFF04FF0E1B7056511
:10530C00EFF04FDA61D1416783D7C181130767D7BB
:10531C009305F0286367F700938797289395070107
:10532C00C1810565239EB180EFF00FC761BF056594
:10533C00EFF04FD741D983D5A1819307904963FCF6
:10534C00B700938525F4C205C1810565239DB18005
:10535C00EFF0EF9A85BF9565938505CAFDB72800D8
:10536C0097C0FF1FE7808098EFE05FC017450300F0
:10537C00130545C1EF20430929BF0357450001110F
:10538C0006CE83D7418A631FF702C167F917894597
:10539C0003C5818223A2F18A23A4018AEF206167CD
:1053AC00914503C58182EF20C16685471306F10044
:1053BC00854513055030A307F100EF90A251F24040
:1053CC000561828017450300130585A9EF20C303EF
:1053DC00FDB77D15954763EEA7121747030013071A
:1053EC0027A50A053A951C41411122C406C6BA9755
:1053FC002E84828717450300130585A82244B240EA
:10540C0041016F20630003C725009947631CF70017
:10541C002E85A5378345640017450300130545A762
:10542C00EF10536A17450300130545A8C1BF03C706
:10543C00250095476312F702C16703D7418AF91714
:10544C0003D5A500630FF700EF90627417450300B6
:10545C001305C5A6EF10537B17450300130585A84C
:10546C0071BF2392A18A83D7E500096613060690C3
:10547C002393F18A83D7050103C581822394F18A92
:10548C0083D72501A1452395F18AEF20A137056625
:10549C00130606C8914503C58182EF20A136035639
:1054AC00E4008355A40017450300130565A2EF1013
:1054BC0073615DB717450300130585A381B783C5D9
:1054CC00250091476397F500174503001305C5A305
:1054DC0035B79947639FF5002285453583456400B0
:1054EC00174503001305C59A2244B24041016F10C1
:1054FC00735D9547639AF50083471400F1F71745E0
:10550C000300130525A2DDBD17450300130505A2F5
:10551C00E1BF82801D71170500001305651E86CE44
:10552C00A2CCA6CAEF20C17D938481829947054401
:10553C002380A4002310F1027000930740068545D8
:10554C0013055030231CF10223068100EF908238A2
:10555C0017D6FF1F1306062EF14513057030EF907A
:10556C0062371386C1829D4513056030EF908236F9
:10557C001010894513051031EF90C235301889454C
:10558C0013052031EF90023517D6FF1F130606299D
:10559C00D5450145EF70812A930500050D45EF4077
:1055AC005100930500051145EF40A17F301891453E
:1055BC001305704023008100230281002306810023
:1055CC0002DC23000102EF80C2110A868545130517
:1055DC000040EF8002115000854513051040EF800C
:1055EC0042101010854513052040EF80820F70008B
:1055FC00854513055040EF80C20E7D55EF70613527
:10560C007D55EF9051087D55EFE0AF8055468145B3
:10561C000810EFD0CF8189475546814528182300C3
:10562C0081022300F100EFD08F808D474D468145DC
:10563C006800230CF102EFC09FFF91472306F10095
:10564C0093878186984383C747001010D545014541
:10565C003AC22304F100EFE06F810A8685450545C7
:10566C00EFE0CF803018D5450945EFE02F80700072
:10567C00CD450D45EFD09FFF500095451145EFD01E
:10568C00FFFEC1671387418AF9171CC32322070049
:10569C0013854182EFD0BFFC1385C189EF60D25CCA
:1056AC0003C504008545EF10517FF6406644D6448F
:1056BC0025618280011122CC2E862A842315B1000B
:1056CC0001478146ED4503D5418A06CEEF70216036
:1056DC000356A100A2852AC697B0FF1FE780006180
:1056EC002C0003D5418AEFE08F8009C5ED452800D9
:1056FC00EF70A175F24062440561828079719397D5
:10570C00050122D406D6C1872E8463DF070003C5AA
:10571C008182EF10114419C1EF10913C2165218D4C
:10572C00B25022544561828093F7150085C317D679
:10573C00FF1F1306E60D97F5FF1F9385654403C500
:10574C008182EF80326F13451400D9BF93F7250087
:10575C009DC713060064894503C58182EF20810A29
:10576C004D4681456800EFC09FEC930780F86800B8
:10577C00CD452306F1003D3F1345240055B793F763
:10578C00850085C383C781821307400681461306B3
:10579C004006994503D5418AEF8032631345840056
:1057AC0041B793F745000145A5DF03D5418AEF903A
:1057BC00C23D0566130606C8914503C58182EF20DC
:1057CC00610413454400A9BFEFC2DFE12A840845F8
:1057DC002E89B28909C900C1970500009385A5746B
:1057EC006105EFF0906281447D5AEF10A00563C310
:1057FC00A4048144EF10000663C6A40497F7FF1FAE
:10580C009387C7389C43DC47B307F9409187230241
:10581C00F400638109048327C900B307F44095871A
:10582C00A302F4001C4C89C79C4799C3228582971C
:10583C006FC09FDE5C44139714008504BA972390C5
:10584C00470165B71C48139714008504BA97239039
:10585C0007004DB7832789000547B307F4409587A8
:10586C00A302F40083570400638EE7028DC309473B
:10587C006384E7040D47E397E7FA974703009387A0
:10588C0027C41CCC97470300938787C411A897475C
:10589C0003009387678A1CCC974703009387C78ABA
:1058AC005CC849B797370300938707761CCC9737AA
:1058BC00030093876776EDB797470300938707C577
:1058CC001CCC97470300938767C5D9BF85E1EFC20E
:1058DC001FD3004618448347940075839D8B631532
:1058EC00F700EF00F01A48C46FC0BFD38280EFC23C
:1058FC007FCF13893500C16442094111AA89014443
:10590C00F11413590901054A2EC6EF00B073B245C4
:10591C006346A400014541016FC01FD083A7090055
:10592C0013171400BA9783D707006388B7006394E2
:10593C00970063742A010504C1BF0545E9BFEFC296
:10594C009FC9AA892E89328BB6843A8ABE8AEF8087
:10595C00403255C12685EF10702F8D4763E5A700A7
:10596C007D556FC0DFCA83DB4400EF00B0732A841F
:10597C00EF0090749307740031443305850263C5BE
:10598C00A702EF003072EF00F0712A84EF00D072A2
:10599C009307740031443305850263CDA702EF00F1
:1059AC0070709307450019A8EF001071330585023C
:1059BC001307F0179307C017E357A7FC2D55E3C245
:1059CC0077FB63000B02D6865286A6854A85EFE0EC
:1059DC00704541BFEF00506E330585029307C5FF3C
:1059EC00F1BF832749001385C90083D52700EFF049
:1059FC001FF071F9B5B76955ADB797F7FF1F23992C
:105A0C00A71897F7FF1F93876718904381470C4699
:105A1C003307F500420741836393B70082805446F5
:105A2C00139847008507C2962390E600D5B797F7E1
:105A3C00FF1F9387A7159C4303C58700828017F52A
:105A4C00FF1F0355E5148280EFC27FBBC16713872C
:105A5C00D7FF6307E5026368A700F117630EF50033
:105A6C0001456FC01FBC1387E7FF630EE500FD17F0
:105A7C001D8D13351500F5B7EF4040367D15D5BF9C
:105A8C00EF40C013E5BFEF402012CDBFEFC23FB7D0
:105A9C004111AA8401442EC6EF00D05BB245634687
:105AAC00A400014541016FC0DFB79C4813151400D9
:105ABC003E9583570500E387B7FE0504E9BF03480D
:105ACC005500814693F7F60F63E5070181473E8544
