:040000006F20003637
:100004000000000000000000900000201C020020FE
:10001400A9BDF9F5940000200000000000000000D4
:10002400960000209800002000000000000000005E
:100034009A000020000000009C0000200000000046
:100044009E000020A0000020A2000020A4000020A8
:10005400A6000020A8000020AA000020AC00002078
:10006400AE000020B0000020B2000020B400002048
:100074008C020020B8000020BA000020BC00002040
:10008400BE000020C0000020C2000020C4000020E8
:1000940001A001A001A001A001A001A001A001A054
:1000A40001A001A001A001A001A001A001A001A044
:1000B40001A001A001A001A001A001A001A001A034
:1000C40001A001A001A0B71700409306700523808A
:1000D400D704130780FA2380E7040100010003C654
:1000E400B7041376F60DA385C7042380070413769B
:1000F400050251CE03C6A700118A1DE22380D7044E
:100104002380E7040100010003C7A7001367470029
:100114002385E7009307004B01000100FD17EDFF65
:10012400B7170040930670052380D704130780FA9D
:100134002380E704010001007D892394A7000100C6
:10014400010001000100238007042380D7042380D9
:10015400E70401000100372700408546A303D78048
:1001640023800704B7170040130770052380E704B2
:10017400130780FA2380E7040100010003C7B704D2
:1001840013670708A385E704238007048280137696
:10019400050425CA03C6A700418A1DE22380D704AB
:1001A4002380E7040100010003C7A70013670701C8
:1001B4002385E7009307007D01000100FD17EDFF93
:1001C400B7170040930670052380D704130780FAFD
:1001D4002380E704010001007D891365050423944D
:1001E400A70001000100010001002380070423800F
:1001F400D7042380E7040100010037270040894623
:10020400B1BF2380D7042380E7040100010003D792
:1002140087001367070C2394E700A9B781460146BA
:10022400814511452D2AB717004013077005238017
:10023400E704130780FA2380E704010001007D57D7
:100244002396E70203C76704136717002383E704B1
:100254002380070401A0BD473305F50201007D1585
:1002640075FD8280411122C426C206C6AA840144B7
:1002740063179400B24022449244410182800504F1
:100284001305803E4204C13F4180DDB7B7170040EB
:10029400130700032388E702854723AEF164730044
:1002A40020302303048015472303E4800100230244
:1002B400A480828083076480E3CE07FE2303048046
:1002C400828083076480E3CE07FE034544808280F6
:1002D40083076480E3CE07FE2302A4808280411159
:1002E40026C44AC24EC006C61377F50BAD47AA8989
:1002F4002E8995446306F70019456537653F8D449B
:100304004E854537FD59FD1463983401B240A2442B
:100314001249824941018280135509011375F50F71
:10032400453F2209CDB7011126CC06CEB7040800FB
:1003340051371545BD37713769372AC6A53F324550
:100344009377150089EB136515001375F50FF240CB
:10035400E24405618280FD14E9FC0145CDBF397199
:1003640026DC4ADA4ED852D656D45AD25ED006DEAD
:1003740062CE66CCB7E700E07D5783AA070022C6A9
:1003840003AA470023A0E71823A2E718B7170040E1
:10039400130770052380E704130780FA2380E7041A
:1003A40083C74704930B75FFB684E20793FBFB0FE7
:1003B4008546AA892E8B328937240040E18701576C
:1003C40063FA76016308D5008946130700026313B4
:1003D400D5000157D98F93F7F70FB71C004023823C
:1003E400FC0411472303E4801305F00F5D3D094C21
:1003F400D135636D7C11B7050700DA95378707009F
:10040400795563F2E504B3879500636EF702370B01
:100414000800A94733EB65016399F90689E481442F
:10042400513D26850DA0DA850945553D050903454D
:10043400F9FFFD14050B693D81C49377FB0FFDF7AC
:10044400DD3569FD7D55B71700401307700523801E
:10045400E704130780FA2380E70403C74704418BAA
:100464002382E704F250B7E700E023A0571123A248
:100474004711E25432445259C259325AA25A125BB9
:10048400825B724CE24C21618280A5476395F90638
:1004940085691309F00FB3069900B3742B01B69460
:1004A4001349F9FFB3749900856B33796901416B82
:1004B4009387F9FFB3F7270199E363FC340193D9D8
:1004C4004900C147E3E637FF99BF0569C1697D1952
:1004D400D9B71305800D638869011305000263848D
:1004E400790113051008CA85DD3B353D21DD4E99A0
:1004F400B3843441D9B7DA852D45D533CA94E300A2
:1005040099F205097D3BA30FA9FED5BF9387F9FF97
:1005140093F7F70F6361FC0C83C71C0413073008BF
:10052400631FF70437070800636BEB04B3079B00F2
:10053400B706100063F5D704334BEB008947639388
:10054400F9068980D549E38C04ECDA850945413BF9
:1005540011090327C9FF91472320E480030764801E
:10056400E34E07FE23033481FD17EDFBFD14110B4D
:1005740081C49377FB0FE9FF7D3371F5E1B5B717BC
:10058400004003C75704B70708001377070219E3AD
:10059400B78707007955E378FBEA33079B00E3FF4D
:1005A400E7F855B58547E382F9F2DA852D45053B31
:1005B4009389F4FFE38504E6293393F7390091EB3B
:1005C400832604800327090093074900E39AE6E49D
:1005D4003E89CE84F1BFB5476396F9001305900BAD
:1005E400C93135BDB1471305B00AE38BF9FE99470C
:1005F4006391F904B7050800B365BB002D45C53107
:1006040081448D4BA1497539639674018327048015
:100614002320F9008504E39834FF8327048013170B
:100624002B01635507002312F900D5BB2322F900DF
:10063400FDB39D476399F90281451305B004453123
:10064400BD442320090023220900FD599D3993F755
:100654007400CA9703C70700FD14398D2380A700CF
:10066400E39634FF6DBBA1476392F9046D3981446D
:10067400630D0B008D479304C0036308FB009304D0
:10068400000563048B01930440041375C507E30854
:1006940095D81945393139390545213126850D3922
:1006A40009453D314931E31C05D669BB914763993E
:1006B400F90013056006F536F53E130590090DB7EC
:1006C400E38F09D4F154A9BB7D16620661869317A2
:1006D4008601E18763D407000145828093172600D1
:1006E4003307F500AE9718439C4363E7E7007D1694
:1006F400E37FF7FC7D55828005458280814713970F
:10070400870161876343B7008280139727002A9784
:10071400232007008507E5B78147014793968701A2
:10072400E18663C5B60013351700828093962700CF
:10073400AA9694428507558FD5B793D755408A0713
:10074400AA979C4305453315B5007D8D8280FD1520
:10075400E2052A87E18593968501E18693F7F50FF3
:1007640063C80600FD1593962500BA96D442E5D6D3
:100774008507E207E187014591CF139527002A9762
:100784008326C7FF014781EA1385F7FF16053A95CB
:1007940042054185828085820507F5B78147139715
:1007A400870161876343C700828013972700B3865C
:1007B400E50094422A97850714C3D5B77D166206CF
:1007C4006186014793178601E18763D507001335D6
:1007D4001700828093172600B306F500AE97944263
:1007E4009C437D16B58F5D8FF1BF8A05AA9501479D
:1007F4006363B500828083A6C5FFF11593D7160005
:10080400D98F9CC11397F601E5B72A8301480147A4
:1008140001456343D7008280B387050183A807009D
:10082400B30706019C43C697AA976384F80033B5BF
:1008340017010507B3080301620723A0F8006187C5
:100844001108C1BF2A8301478147014563C3D7000B
:1008540082803388E50083280800330EE600032EE7
:100864000E003388A8403308C8416384080133B5B7
:1008740008018507B308E300E20723A00801E18724
:100884001107E9B7797126D2B286B2842E86AA8579
:100894000A8506D622D47D372A84A6850A85AD3DED
:1008A40033348000060413351500018DB2502254F0
:1008B400925445618280411122C626C40143014FEE
:1008C40081471314830161846347D402939F160004
:1008D400FD1F854E9382F6FFF15333875E00620756
:1008E40061876348F70732448E06AA9623AEF6FE64
:1008F400A24441018280131E2300B302C601814E2B
:10090400814F13972E002E9703A802001843B303B8
:100914000703333707039E97B3B877003308E7011B
:10092400469885486367E8006314070163E377002A
:100934008148850E13978E016187C69F428FF112FD
:10094400E351E4FC2A9E2320FE000503C2877E8F28
:100954008DBF13948E01FA88618493142700014F8C
:100964001318840113588841634AD8000A072A9748
:10097400850E1CC393FEFE0FC68785B73308740229
:10098400131324002E93032303002698329803287C
:100994000800330E680233386802F29733B3C70194
:1009A400C2989A98054363E708016314180163E346
:1009B400C70101431A9F050465B7174700000347A1
:1009C4005730914763E2E7149747000083C7C73164
:1009D400918B639B071297470000938727119043DD
:1009E4009746000083C6D60C814763CED706011113
:1009F40022CC174400001304A40B584426CA06CE84
:100A04009747000083C73710974400009384840EEF
:100A14006365F70C6800973002E0E780C0D9FD57A2
:100A2400630AF50C32479747000083C7D70D63F676
:100A3400E70A5844634107048D2132475C446373D9
:100A4400F700BA87174700000347F70B998F3E95C5
:100A54008387440163C60702B707C0A86362F5022F
:100A6400B707405771A01397170032970357070031
:100A740041EF85079DBF03874401635507061D8D1C
:100A840017440000130484231C4C81CF97470000B3
:100A94009387C72694433707CDFF7D179C46F98F6C
:100AA4009CC619E13705C0A8DC50829719E91C4C93
:100AB4008DC7979002E0E780802B978002E0E78063
:100AC40020781C4C99CB97470000938727239843A1
:100AD400B70633001C47D58F1CC7F2406244D2448A
:100AE40005618280E37DF5F83707C0A8B307F740B6
:100AF4003E9579B75C44E3C207FE452617470000DC
:100B0400034777005C4499B7828019CD91CD09CE13
:100B140081473387F500834607003307F5008507CF
:100B24002300D700E397C7FE828019C991C909CA77
:100B3400910583A7C5FF11057D16232EF5FEC5BFBC
:100B44008280854715C18DC105C28147B306F50072
:100B54003387F50083C60600034707006398E60061
:100B64008507E315F6FE85473E8582808147EDBF04
:100B74007971974700009387A7F722D4804306D65C
:100B840026D24AD04ECE52CC56CA5AC85EC67DC072
:100B94008144174B0000130B2BFA1749000013096B
:100BA40069F5174A0000130AAAF0B709C0A8B70AE2
:100BB40040578357240085E35C4481EC17470000C9
:100BC4002328F7F2832BC4002285EF1080575E841C
:100BD40061A0DCC4C5BF83270B0082971C44636FEC
:100BE400F5023307F540635E07020327490219CF74
:100BF40003074901635F07003387A7408327CA00BF
:100C04006376F7009747000023AAE7EAA2844044EA
:100C1400A1A00147E384A7FECE97F9BF898F63DEC5
:100C240007069747000023AB07E8835524000345D4
:100C34000400976001E0E780602F5C405844B1C72E
:100C44001444B6978306490163C5060063E337017C
:100C5400D6971CC4A2843A8429FC97470000938742
:100C640027E5DC4711476376F704F11717470000BF
:100C74002326F7E4B250225492540259F249624AAC
:100C8400D24A424BB24B4561828091E497470000BF
:100C940023A0E7E605BFD8C435B7032749023DD7EB
:100CA4000327CA00E3F4E7F6174700002328F7E018
:100CB400B1BF9747000023A307E06DBF411122C4D1
:100CC40017440000130404E11C4006C626C291C761
:100CD40082979747000023AF07DE5C4091C3829759
:100CE4001C40639E07169747000083C777FD858BDA
:100CF400F9CF97470000A38507FC17470000034777
:100D040057FC914763FDE700EF00B056974700009A
:100D140083C737FBF5178A07A2979C4382979747A7
:100D240000009387A7DC984317460000034656D873
:100D3400BE849747000083C7A7D793961700BA9637
:100D440083D60600D1CE9747000083C767D663E3F6
:100D5400C70A97470000238D07D41C4063910710EE
:100D64009747000083C717F691CF9747000083C7C2
:100D740057F589EB97470000A38607F4979002E0A4
:100D8400E780008B97470000938707DB9C43E1CB08
:100D9400FD57174700002323F7D2D93B974700009C
:100DA400938747D5DC5391C309399747000093874C
:100DB40067D89C43CDC7829797470000938747CF56
:100DC4009C4B3E959747000023ACA7CE49A8974774
:100DD400000083C767F1918BB9D3EF10601A81B714
:100DE400850793F7F70F974600002383F6CCE3E2D9
:100DF400C7F491BF86073E9797470000938747CD76
:100E0400835507009C432310070017450000034542
:100E140025CA13172500BA979C4382979747000069
:100E240083C707C9139717009C40BA9703D70700D5
:100E3400598D2390A7009747000083C767C791C7C0
:100E44008507174700002305F7C617470000034727
:100E540027C69747000083C7B7C5E37CF7EEB240C7
:100E64002244924441018280AD6737C70040BD07E8
:100E74002326F7200F10000097470000938747C3ED
:100E8400884F83278726BD66BD0693C7F7FF9983DE
:100E94006A052326D7205D8D82804111B717004053
:100EA400985F3AC6945F3247E39CE6FE32454101BF
:100EB40082800327850F19E3054582808347C50097
:100EC40093F7C70F2306F500034687008356C70030
:100ED40093158601E18563D8050A137816008355B6
:100EE400E5186302080613E617002306C50063F835
:100EF400D5020348A502A30AB5001746000003461D
:100F040076C06376C80093E717012306F5008D8E3B
:100F14002316D7008547A30CF500014582801043B2
:100F240009CE8345A502174600000346B6BD63F605
:100F3400C50093E717012306F500A30AD5008947E6
:100F4400A304F700C1BF13E8270023060501E3F556
:100F5400D5F68D8E130810F813661600A304070146
:100F64002304C7002316D7008346A50217470000B1
:100F7400034757B963F6E60093E727012306F50014
:100F8400A30AB50041BF054893E527006314060191
:100F940093E517002306B500A30AD5008947A304E7
:100FA400F7001C43A5DB0347A5029747000083C74E
:100FB40077B5E371F7F693E505012306B50099BF0C
:100FC40097470000938707CC9C43411122C406C66F
:100FD400858B2A84CDEB4165130525F5973002E016
:100FE400E78020564DC18347A5002315F5008327CC
:100FF4000410A5E72320A4102322A4108547231C52
:10100400F402232005008347640154412316F500AC
:101014000347D4002304E50017470000130707CA59
:10102400184F1385170215811C437D151375F50F91
:101034009CC25C43DCC21C479CC65C47DCC61C4BA0
:101044009CCA5C4BDCCA1C4F9CCE5C4FDCCE19CDD9
:101054009386060213070702C1BF8327441088C37F
:10106400835784032322A410850751BF97470000A8
:1010740083D7C7D18507174700002319F7D0B2409B
:101084002244410182808347C400230904000545AA
:1010940093C747002306F400DDB78347E50193F7C0
:1010A400E70F91CB014582800145B240224492442E
:1010B4000249410182808347F501EDF7834625010A
:1010C4000347C50089CA0346A5029747000083C7A2
:1010D400B7A36367F60093770701E9D7814789C609
:1010E400418B8357C51801C703570519BA97DDDB30
:1010F40017470000034747A141111316870106C68D
:1011040022C426C24AC06186635006069387C71369
:1011140013D4570097470000938747C583A68708D1
:101124009744000083C4E49E7D59B705C0A883A7F3
:10113400460803D78607635B06043387E740637377
:1011440027013A899442E5F6974700009387C79EA2
:101154009C438297E36AA9F43305A9402694333467
:1011640085001345140091B7058B9387C71209CBEB
:101174008A071384F7039307D0073354F40259BF43
:1011840086071384F7019307D003C5BFE3F7E7FA93
:10119400AE9765B717460000130646BD03278608B9
:1011A40063040746797126D297440000938484949B
:1011B400838844018325060906D622D44AD04ECE1C
:1011C40052CC56CA5AC85EC601457D583703C0A8DA
:1011D400832647088357870763D20812B387F640EC
:1011E40063F50701BA853E880545184375F309C5BB
:1011F4009747000023A4B7C003240609856917494B
:10120400000013096993370AC0A8B70A4057054B71
:101214009389B94783270900832B44088297637015
:10122400752F035784079747000083C7878EB38BB6
:10123400AB40BA9763EE771F83574403A30E0400B1
:1012440022858507231AF40283470412C5CF8D2112
:101254002285972002E0E780807D51E58386440162
:1012640023050402832744080355840763DE060824
:10127400B389A74003270408232E3407BA9763C908
:101284000600B706C0A863E5D700B7064057B6976F
:101294008346B4002322F4088547639FF6068357E8
:1012A4002407035604036369F60603460401631521
:1012B400D6068326840FADE283268409B1EE034665
:1012C400F4009306000C6319D604B387E7020327DE
:1012D4008408B3D7E702174700000347778305075D
:1012E400BA97231CF406B250225492540259F2497C
:1012F400624AD24A424BB24B45618280E3F0F6EE39
:101304009A96E9BD1926A9B7E3F4A7F6B709C0A8C8
:10131400BE99B389A940B9BF83270900829797373B
:10132400000083C7677E13978701618763580708A6
:101334003385A94079C1832604086370D50C6355AD
:1013440007081605B717004083C7F702E207E187CD
:1013540063C307004115174700001307E7971443B9
:10136400B567BD07DCC60F1000001C4306050967FE
:10137400E8D398C7130700F8974600002382E69441
:101384003D673D07D8C7978002E0E7802027978014
:1013940002E0E780A0370347B40085478145631323
:1013A400F704177502E013054506976001E0E7802E
:1013B40080FA930700FD2307F40035B7E3FAA9F692
:1013C400B706C0A8B699ADB7858B99C79307803E79
:1013D4003305F5021581BDB79307D0033305F50234
:1013E40005818DB7174502E0130585BC976001E0C0
:1013F400E78060F6930710FC7DBF0347B400854780
:1014040003A304036317F7009545E30E03EC1545A6
:1014140029A0E30A03EC954519452254B25092548D
:101424000259F249624AD24A424BB24B45610283A5
:1014340063D60B068357440322858507231AF402D7
:1014440083470412B1CBAD242285972002E0E780C4
:10145400005E0327040883274408BA9703874401DE
:101464006345070063E34701D6972322F4088347C3
:10147400B400639767012285977002E0E780A0A318
:101484008347D40185458507A30EF4009C58E38364
:1014940007D815458297BDBB8D2A7DB78357240392
:1014A400173700000347476693168701E1868E07C6
:1014B40063D706021307204EB387E7029583E3F44C
:1014C40077E3A1452285972002E0E780C04D2302FF
:1014D400A40203A304038945E31B03F229B5058B86
:1014E40011C713078002B387E702D1BF056713074B
:1014F400B747B387E702938707049D83C9B7835728
:101504002403173700000347276093168701E186F9
:10151400B30B75418E0763D0060A1307204EB387B9
:10152400E702958363F2FB0C8327090082978357B4
:101534004403AA8B22858507231AF40283470412E5
:10154400C1CBBD222285972002E0E780404EE31CF8
:1015540005D80327040883274408BA97038744015E
:101564006345070063E34701D6972322F4088347C2
:10157400D40113F7070F39CF2285972002E0E780C3
:10158400C002A30E040083274408E3FFFBF883474B
:10159400B400639567050357240783570403E3FBEB
:1015A400E7C62285977002E0E780E0909C58E383C9
:1015B40007C68D45F9BD058B11C713078002B38794
:1015C400E7028DB7B3873703938707049D8399BFD9
:1015D4002D288DBF8507A30EF40075B79C58E38BA7
:1015E40007C28D4519457DB5E3CF0BCEA1452285B4
:1015F400972002E0E780203B2302A40203A3040314
:10160400E30303CE914521B58280797126D206D6B3
:1016140022D44AD04ECE52CC56CA5AC85EC683474C
:10162400850203447511AA843E941374F40F93073E
:10163400400263F687001304B4FD1374F40F03AA85
:10164400841183AAC411A38B841022865285D68563
:10165400972003E0E780A0F2058915E503CBD410B9
:1016640001498149337B6403930B50024A865285B6
:10167400D685972003E0E78080F0058915C563913E
:1016840069031374F90F238B8410B25022549254BB
:101694000259F249624AD24A424BB24B45618280B6
:1016A4008509E20993D989410509E31179FDE1BF6F
:1016B4008327C50803564503797193D60701BD8E68
:1016C400C206C182358E1357764093575640898B94
:1016D400058B5D8F93573640918B5D8F93571640E2
:1016E400A18B5D8F93171600C18B5D8F9317360006
:1016F40093F707025D8F931756009355860093F76F
:1017040007041E065D8F1376F60F518F93D755404D
:1017140013D63540118A898BD18F13D67540D18F5A
:1017240013D61540218AD18F13961500418AD18F83
:101734001396350013760602D18F1396550013764F
:1017440006049E05D18F93F5F50FCD8FA20745466C
:101754005D8F3307C70222D42A8426D252CC56CABC
:10176400032A8411832AC4115AC806D6369742071D
:10177400418393577740135557400989858BC98F07
:10178400135537401189C98F135517402189C98FC3
:10179400131517004189C98F1315370013750502F6
:1017A400C98F1315570093558700137505041E0739
:1017B400C98F1377F70FD98F13D5354013D75540F9
:1017C4001189098B498F13D57540498F13D515405D
:1017D4002189498F139515004189498F1395350047
:1017E40013750502498F13955500137505049E055D
:1017F400498F93F5F50F4D8F2207D98FB387C70211
:101804004AD04ECE5EC662C4B697C207C18313D710
:10181400774013D557400989058B498F13D5374035
:101824001189498F13D517402189498F13951700C2
:101834004189498F1395370013750502498F139514
:10184400570093D58700137505049E07498F93F7B6
:10185400F70FD98F13D5354013D755401189098B0C
:10186400498F13D57540498F13D515402189498F68
:10187400139515004189498F139535001375050299
:10188400498F13955500137505049E05498F93F5EB
:10189400F50F4D8F2207D98FB387C7021306500265
:1018A4005285D685B697BD8E93940601C18033F6D2
:1018B400C402137BF60F972003E0E78040CC058930
:1018C4000DED8347D41001498149B3849702130C69
:1018D4005002C1804A865285D685972003E0E7806E
:1018E40000CA0589937BF90F11C563863403850902
:1018F40093F9F90F0509E31F89FD230B6411B25015
:10190400225492540259F249624AD24A424BB24B8F
:10191400224C456182805E8BCDB701119737000060
:101924009387C74422CC03A4C70A26CA06CE2AC476
:101934002EC6854419E40145F2406244D24405614F
:10194400828003471400834791006304F700004436
:10195400D5B719469305A10013052400EFF06F9E37
:10196400E31795FE0545C9BF1737000013078732F3
:101974001443411122C69C5E4AC226C49983858BB6
:101984003A84173900001309A930C9C39C5E9734FF
:1019940000009384A43293F7F7F99CDE9737000094
:1019A40083C7C73193F7070499CB97370000938710
:1019B400A7189C4382979737000023A9A73085472F
:1019C40017370000A30EF72E83C7440093F70704CC
:1019D40091EF97370000938727309C43D844F8D37E
:1019E400930700FC17370000230CF72C83C764000F
:1019F40013070008631CF700832709009C4399839D
:101A0400858BADE397370000238D072A1C40985F30
:101A14001183058B09CB985F3D9B98DF054797366B
:101A24000000238FE628985F1D83058B11CB985FF8
:101A34001377F7F798DF8547173700002302F72855
:101A440083270900D8430583058B19C7D843759BA1
:101A5400D8C3D843799BD8C33244A2441249410124
:101A640073002030930700FC17370000230BF72482
:101A740071BF173700001307672483470700858B5E
:101A840089EB83471700858B89E783474700858B5C
:101A9400EDD78280173700001307C71F14439C5EDD
:101AA4009583858BC5EF09C69C5ABD832300F60038
:101AB400C5C983471500CDC7411106C617360000B6
:101AC400034626209306000C6304D60297370000D1
:101AD4009387C71E83C567009737000093878701E4
:101AE4009C5B1305300882970945B240410182800E
:101AF4003E9583479500854613F6F706630AD6009C
:101B040097370000938707FF9C5B9305D00FD1BFE5
:101B1400E207E1870945E3CA07FC1C43985B4607D3
:101B2400935767016359070293E707C01387970F19
:101B3400420741839306201F0145E3E8E6FA138731
:101B4400A1A00317070009C7BA970947B3C7E7025B
:101B54002395F1A059BFC207C187C9BF054582803B
:101B64001C43985B4607935767016359070293E741
:101B740007C01387970F420741839306201F01452F
:101B840063EDE6001387A1A00317070009C7BA97FE
:101B94000947B3C7E7022395F1A08280C207C18732
:101BA400C9BF49E597370000938707139443411150
:101BB40022C406C62E873E84FC52FDFF3A85B285B8
:101BC400978002E0E7804082973700009387870C74
:101BD4009C43B70680009843558F98C3D857719B90
:101BE400D8D71C40094798C3B7F700E003A707D12B
:101BF4006D9B23A8E7D003A707D15D9B23A8E7D05B
:101C040073005010173700001307470B8347270052
:101C1400858B89EB83473700858B89E783474700AA
:101C2400858BEDD7B2402244410182808D476310F9
:101C3400F504973700009387E7059C43B7068000B7
:101C44009843558F98C3D857719BD8D7173700003E
:101C54001307C70683472700858BBDEF83473700EB
:101C6400858BBDEB83474700858BEDD78280854705
:101C7400E31EF5FC97370000938707069443356706
:101C84003D07D8C60F100000173700001307870060
:101C940014430946984231830D8B6313C70298435A
:101CA4009306E04374D3984389671CC7930700F8ED
:101CB400973600002386F600BD67BD075CC779B779
:101CC4009842944331830D8B09E713076019F8D2C6
:101CD400D9BF1307E01BE5BF82805D712AC62EC4FD
:101CE40086C6978002E0E7806091978002E0E780F3
:101CF400E0A1973800009388E8F983A70800173318
:101D040000001303A3FF3706330023A40700984BF6
:101D1400370EFCFF370F04001367F70398CB984383
:101D2400914F7D1E1377F7E798C398438542930E2E
:101D340080021377F7E71367071098C3832603001D
:101D440032459846518F98C6173700001307C7F8D5
:101D540018439306900D014634CB1377F51FE84FD3
:101D6400F576FD16137505E0598DE8CF9843758F08
:101D740098C3A245814703A708000328030093766C
:101D8400F60F231C0704231007060325C8027599C0
:101D94002326A802032807001375F607137808F80A
:101DA4003365A80008C348533365E50148D3035598
:101DB4008705E3FEAFFE48533375C50148D3035787
:101DC4000706280832951377F70F2300E50019EF6B
:101DD40013D736002E97034507009D8AB396D20089
:101DE4008507C98E93F7F70F2300D7000506E31480
:101DF400D6F9854611488548130380026363F804C5
:101E04000146814728083295034505001377F60FEC
:101E140063E1A602135537002E95034E05001D8B72
:101E24003397E80085073367C70193F7F70F23005B
:101E3400E5000506E31866FC850693F6F60FE39FB6
:101E440006FBB6406161828017370000130707E57F
:101E54008346B7019737000083C717E9B69793F70E
:101E6400F70FFD4663EAF6044C4B97360000A38750
:101E7400F6E29737000083C777E205473317F70088
:101E840097360000A382F6E66D8F1DEF97360000AB
:101E940083C6D6E5B3F6D70213050002814733D6CD
:101EA400F500058A13F8F70F09CE6399E600973712
:101EB4000000A38507DF828081177DB705071377AC
:101EC400F70F8507E39DA7FC82809737000093876F
:101ED400A7C69C43011122CC4EC606CE26CA4AC8C8
:101EE40052C456C2829797370000938727DF8047F2
:101EF40081496305A406BE8497370000938787BF92
:101F0400038747013E8963550706018D1354550025
:101F14009737000083C727DA9379F501636DF402DC
:101F2400370AC0A8B70A405705379C4497360000C3
:101F340083C666D8139756003E9783074901158CCC
:101F440063C507006363470156979737000023ABC7
:101F5400E7D8E37BD4FC1604B3693401F24062444D
:101F64004E85D2444249B249224A924A056182804E
:101F7400E37D85F8B707C0A833848740229579B7F5
:101F840097370000938747BB9C43411122C406C680
:101F940026C2829797370000938747D48047630906
:101FA400A406BE84973700009387C7B4838747018C
:101FB40063D80704018D135455009737000083C775
:101FC40087CF6367F404493598449737000083C783
:101FD40087CE9396570036971D8C9736000023A31F
:101FE400E6D0E372F4FE2244B24092441735000076
:101FF4000345D5CA8145410117A302E0670083C0A8
:10200400E37A85FAB707C0A833848740229565B779
:10201400B240224492444101828097370000938762
:10202400E7CD9843B75702009387079F8326070994
:102034001396560063580600832607091396660014
:1020440063440600FD17FDF3828021670507AA8714
:102054006397E50003C7819F014565E382800145DD
:10206400E5C3F9CD8D07C207C183F19BC207C183C4
:1020740013074003636FF702173700001307C7CD38
:102084000843173700001307A7CC14436398A6022C
:1020940017370000130707A6185B014555C3411104
:1020A400C20706C60545DD8D0297B24001454101D0
:1020B4008280173700001307E7C9D9B703576500B3
:1020C4003DEB035745006368F706B306F740214626
:1020D40017380000130888C8637AD60283280500DD
:1020E40003260800938687001D8FAA966117239202
:1020F400E60023A016012393060014C1130786FFEC
:102104002312F5009736000023AAE6C4216723139F
:10211400B50005076397E50003C7819F7D17238CEE
:10212400E19E832508002105B387F5401737000099
:102134002326F7C28280084191BF014585F782803A
:1021440082800DC197370000938707C103A307005E
:10215400973700009387C7BF83A8070001479A8772
:1021640063E31701828003A807006369F50A6367C4
:10217400A80A93868700E367D5FE03D66700A166A5
:1021840085066317D60083C6819F8506238CD19E5E
:1021940097350000938585BC944103D6470023936B
:1021A4000700B29617350000232AD5BA638A67025E
:1021B40017350000130505BA08416303F5020355FA
:1021C400670019ED8357470023200701A1063E96B7
:1021D40021069737000023A3D7B82312C700BA8774
:1021E4009843E30117F9973600009386A6B6944204
:1021F400E30AD7F683566700B5F683D6470003563D
:1022040047001843A106B29698C32392D7009C4175
:10221400A107173700002323F7B482803E87C287C3
:1022240081B7011197370000938747B422CC03A4E8
:10223400470B26CA4AC84EC606CEAA8413092500EF
:10224400854915C083C7140003473400858B630494
:10225400F700405CFDB71946930544004A85EFE05A
:102264005F8EE31835FF2285F2406244D24442492E
:10227400B24905618280411197370000938707AF07
:1022840022C403A4470B26C24AC006C693042500F1
:10229400054901E82285B2402244924402494101A1
:1022A4008280A6851305A402971003E0E78080E0EE
:1022B400E30225FF405CF1BF41119737000093878B
:1022C400E7AA22C403A4470B26C24AC006C6930445
:1022D4002500054901E82285B2402244924402497E
:1022E40041018280A6851305A401971003E0E780CD
:1022F40060DCE30225FF405CF1BF01119737000069
:102304009387C7A622CC03A4470B26CA4AC806CE85
:102314002AC42EC6B284054919E001453DA00347ED
:102324009100834734006318F7021946930544006B
:102334001305A100EFE0FF80631F2501A6851305A7
:10234400A402971003E0E780E0D6F2406244D2444E
:0C235400424905618280405CC1B7000076
:1023600097110020938101DF17610020130181C9BB
:102370001305400097E5FF1F9385C5C81706002089
:10238000130606FE63FAC5008322050023A055004C
:1023900011059105E3EAC5FE1755030013050585F0
:1023A00097050020938505FC1386418963FAC500D3
:1023B0008322050023A0550011059105E3EAC5FE1F
:1023C0001385818997350020938585A96377B500AA
:1023D000232005001105E36DB5FEFD42739002BC9C
:1023E0008D42739042809302800873A0023097E27E
:1023F000FF1F938222C193E23200739052309712F2
:1024000000009382C25273901234730020303D4317
:102410002A876373C3029377F700BDEFADE5937628
:1024200006FF3D8ABA960CC34CC30CC74CC7410784
:10243000E36BD7FE11E28280B306C3408A0697029F
:10244000000096966780A6002307B700A306B70092
:102450002306B700A305B7002305B700A304B70000
:102460002304B700A303B7002303B700A302B700F8
:102470002302B700A301B7002301B700A300B700F0
:102480002300B700828093F5F50F93968500D58DD4
:1024900093960501D58D61B79396270097020000AA
:1024A00096968682E78086FA9680C1171D8F3E96A3
:1024B000E374C3F8A5B73367B500FD530D8B79E717
:1024C000B7877F7F9387F7F710419441B372F60087
:1024D0003363F600BE92B3E262006397720C631836
:1024E000D6065041D441B372F6003363F600BE9273
:1024F000B3E262006398720A631BD60410459445E8
:10250000B372F6003363F600BE92B3E262006391E9
:10251000720A631ED6025045D445B372F600336387
:10252000F600BE92B3E26200639A72086311D602AB
:1025300010499449B372F6003363F600BE92B3E2D9
:102540006200639372085105D105E30FD6F61317A5
:10255000060193970601631CF7001357060193D7F2
:1025600006013305F7409375F50F91E982804183A9
:10257000C1833305F7409375F50F91E1828013779E
:10258000F70F93F7F70F3305F740828003460500F6
:1025900083C60500050585056313D60065FA330576
:1025A000D640828011059105E312D6FE0145828056
:1025B0002105A105E31CD6FC014582803105B1054A
:1025C000E316D6FC014582804105C105E310D6FC27
:1025D00001458280B717004003C777051377E70FDF
:1025E000A38BE704130700F8A38DE7043D47238C72
:1025F000E70413075003A38CE704828041112A8368
:10260000014E930E407E130F0019930F400663E4B2
:102610006E0E9308001913034006B3781503854E18
:102620000D4FA14F337365020D891335150063EE0D
:10263000BE0E1308F6FF7946729842081358080137
:102640003307C70213D61700BE0732976146B3F6A9
:10265000C60213068070B386C6023697A166F58F50
:1026600042075D8FB716004083C7F60293F707084D
:10267000A307F1000346F10083C7F60293F70708AA
:10268000E394C7FE8347F100B716004093F7F70FB6
:10269000FDC7B7170040930670052380D704930643
:1026A00080FA2380D7040100010023AA070383C610
:1026B000170311667D1693E60608A388D702D45B3C
:1026C000C85F93854703A98EF18EF5FA93067005CE
:1026D0002380D704930680FA2380D70401000100E9
:1026E00098C103C7170313670704A388E702238071
:1026F0000704410182807D133368E3039308E016E9
:10270000630E08003368F3039308D01663080800CB
:102710009378330093B818009388D81633081E01B5
:10272000131E0801135E0E01DDB56393E503054832
:10273000638608000148630303002A8871087298C1
:10274000FD15131E0801C205135E0E01C181C5B53A
:1027500013F8150063F4BF007908D5B713381800D3
:10276000E5BF83C7F60293F70708A307F100034606
:10277000F10083C7F60293F70708E394C7FE834787
:10278000F10093F7F70FF1DF29B7914763EEB70236
:1027900017370300130707A48A05BA959C41BA9717
:1027A0008287B717004003A7470B1345F5FF698FD2
:1027B00023AAE70A03A7070B698F23A8E70A03A741
:1027C000070A798D23A0A70A8280B717004083A645
:1027D000470B1347F5FFF98E23AAD70A83A6070BE9
:1027E000558D23A8A70A83A6070A758F23A0E70A99
:1027F0008280B717004003A7470B498F23AAE70A37
:1028000003A7070B1345F5FF45BFB717004083A685
:10281000470B1347F5FF758F23AAE70A03A7070A9B
:10282000598D4DB7B717004003A7470B498FEDB738
:10283000914763EEB702173703001307E79A8A053B
:10284000BA959C41BA978287B717004003A7470DF6
:102850001345F5FF698F23AAE70C03A7070D698FBE
:1028600023A8E70C03A7070C798D23A0A70C82806F
:10287000B717004083A6470D1347F5FFF98E23AA2B
:10288000D70C83A6070D558D23A8A70C83A6070C8C
:10289000758F23A0E70C8280B717004003A7470D70
:1028A000498F23AAE70C03A7070D1345F5FF45BF82
:1028B000B717004083A6470D1347F5FF758F23AA6E
:1028C000E70C03A7070C598D4DB7B717004003A7B6
:1028D000470D498FEDB7B717004003D58700420574
:1028E00041819377050491EB9377F5013755E80122
:1028F000130505803345F50282809377050C130795
:1029000000046397E7009377F50137459C1CCDB72A
:102910002165130505D08280B7F700E08847CC47D2
:102920008280814737370040A14663C4C7003285A3
:1029300082800345B740E38EA6FE3385F50003454C
:10294000050085072304A740CDB7411122C406C660
:102950002A8451372947B307E502B2408D83B3D7A4
:10296000870222449507B3D7E70237370040C207F2
:10297000C1832316F740410182807165411113051F
:10298000052006C6D937B7370040130770F82381F2
:10299000E7400D47A381E74013070004A380E74009
:1029A00005472387E740B2404101828083C7850005
:1029B0002145C18BD9E72D4549E703C70500894764
:1029C000631DF706D841411106C683471700034728
:1029D00007003285A207D98F4167130627FE63845B
:1029E000C7046369F60005176382E70223900600B7
:1029F00029453DA0130647FE638CC7021517E397D0
:102A0000E7FE95472390F600154629A0D547239069
:102A1000F6005546CC4597E0FF1FE780400F014583
:102A2000B2404101828085472390F6000546DDB71C
:102A3000CD472390F6004D46F1BF23900600054593
:102A40008280828083C7850093F70702CDEF03CE93
:102A5000050009432E88854763186E0A03A34500C5
:102A6000411122C426C206C6834713000343030054
:102A70003284A207B3E767004163130E13FEB684E6
:102A80006381C7030D13638967040D6813082890D9
:102A900063840707A947B240224492443E8541011E
:102AA0008280AD476DFB5547B547E366D7FE0325EA
:102AB000C8005546A28597E0FF1FE7804005014505
:102AC0009387418A9843814779D7184369D72686E7
:102AD000A28502978147C1B7AD4755FF5547B54716
:102AE000E36BD7FA0325C8005546A28597E0FF1F80
:102AF000E780E0010945E9B72244B24092448547A6
:102B000041016F80D17DA1473E8582804167791761
:102B1000630CE502411122C406C685472A84639AE4
:102B2000F50022852244B240938501AB41016FA09C
:102B3000314789476396F5008545EFC0D16A75D165
:102B4000B2402244410182808280411122C42A8401
:102B50004165938501AB7D1506C6EFA0714417054D
:102B600000001305E5FA0588EFC0715F05C0224437
:102B7000B240970600209386E68F4146C54517F57B
:102B8000FF1F1305257E41016FA0B136B2402244DC
:102B900001454101828009C523A2A18A01458280A5
:102BA000454582801147636EA706972603009386EA
:102BB000E6640A0536951841411106C63697AE8778
:102BC000B285028755476145639AE70055461385EC
:102BD000C1A697E0FF1FE78080F30145B2404101A5
:102BE000828005476145E39BE7FE054613858189A1
:102BF000CDB755476145E393E7FE5546138541A898
:102C0000C9BF4D476145E39BE7FC4D461385C1A90C
:102C1000C9B715476145E393E7FC15461385C1899C
:102C20004DBF09458280411122C42E84938501AB9A
:102C300026C206C6AA84EF805165058915C197F79B
:102C4000FF1F9387277283D7A70BA285B24023105B
:102C5000F400224426859244014641016F90B14A16
:102C6000B240224492444945410182802384018A32
:102C700023A6018AB717004003A7070CB706C0FFB9
:102C8000FD16758F23A0E70C03A7070DB7064000BC
:102C9000558F23A8E70C03A7070C3D9B23A0E70C47
:102CA00003A7070D1367070123A8E70C828023A65B
:102CB000A18A13064006894503C581656F40012E30
:102CC000B717004003A5470C83A7470C598113454C
:102CD0001500C18B058999E31365250083C7818A97
:102CE000638CA7002384A18A01C99387C18A03A3A7
:102CF000070063030300028382804111939625003D
:102D0000AA852D4506C697D0FF1FE7808065B24093
:102D1000014541018280411122C426C24AC02A8451
:102D20002E89B284AA85930600200146254506C651
:102D300097D0FF1FE780E062931629002686A285C0
:102D4000294597D0FF1FE780C061B24022449244DA
:102D50000249014541018280011122CC06CE37147F
:102D6000004026CA4AC84EC652C483447405034A6A
:102D7000B4058349840503499405EFF0BF85834773
:102D8000A40593F4F40F137AFA0F93E71700230DB9
:102D9000F40493F9F90F1379F90FB717004003C73B
:102DA000A705058B6DFF03D5C705A38D4705238CAC
:102DB0003705A38C2705A38B9704F2406244D244C5
:102DC0004249B249224A0561828041119397050127
:102DD00022C406C6C1872E8463DA0700EF3011557E
:102DE00019C1EF30114E2165218D1DA093F71500FB
:102DF00013C5150091EF93F7250099CFD135130630
:102E0000000A894503C58165EF4041191345240037
:102E1000B2402244410182809397250163DF07007D
:102E2000EF60323B37F60200130606E0896503C502
:102E30008165EF40A116096545BF939715010145CE
:102E4000E3D807FC1725030013050541EF106311B4
:102E500013060064916503C58165EF402114116577
:102E600061B71D714946972503009385653A17455B
:102E700003001305A58586CEA2CC97E0FF1FE7804F
:102E800080CC01E9172503001305C539EF10630D48
:102E900001A037F700E0795610CBFD5654CBB7E7C9
:102EA00000E0056423A087109306F00214C323A05A
:102EB0008718010001001306C00381454808EF3060
:102EC000916A971700209387E78E3ECAED47231C2F
:102ED0008100A301F1023544930750108146014659
:102EE000814521452312F1022303810297D0FF1F60
:102EF000E7802047A167938707E03ECE9707000051
:102F00009387E7DFBEC497070000938707E1BEC63B
:102F1000B7F5070097070000938747A03EDA814680
:102F200097070000938787E37000E10519453EDEAF
:102F30002308810297D0FF1FE780A04258088147ED
:102F4000994670003E960346060085070507A30ACA
:102F5000C700E398D7FED24791C703578101856721
:102F60006373F70001A04808EF40C152AA8501C968
:102F7000172503001305452CEF00736A01A0F640E6
:102F8000664425618280411117050000130525E480
:102F900006C622C4EF40414C138481652300A4007F
:102FA0003128E931034504002244B24037F60200DB
:102FB000130606E0896541016F30517E411106C656
:102FC000B7170040130770052380E704130780FA42
:102FD0002380E70403C7F7021305407E8146136789
:102FE0007700A387E702238007040147814705464E
:102FF0008545EFF0AFE0B240014541016F4061759A
:103000004111972503009385A52817250300130573
:10301000253F06C6EF00B360172503001305453FA3
:10302000EF00F35F2945EF009363B24041016F2049
:1030300030234111972503009385C52317250300ED
:103040001305053C06C6EF00935D13050002EF0073
:1030500013612945EF00B360EF30B14B85671386EC
:1030600007773376C502B2409387873803C5018B53
:10307000854541013E966F307172411197250300DD
:103080009385C51D172503001305853706C6EF0078
:10309000135913050002EF00935C2945EF00335CE0
:1030A000B24003C5018B854541016F40A1179717B9
:1030B000002083C7F770411193F7E70F06C6171773
:1030C0000020A30FF76EEF90103B05E1EF20404288
:1030D000EF20B079B2403726090003C5018B1306F3
:1030E000067C854541016F30716BB24041018280A1
:1030F0004111972503009385E51817250300130553
:10310000253006C6EF00B3512945EF005355B240B4
:10311000410171BF4111972503009385E5141725DF
:1031200003001305E52D06C622C426C24AC0EF00DF
:10313000134F2945EF00B352EF90F03319E52244C5
:10314000B2409244024941019DB717F4FF1F130496
:10315000A4433C48F5747179FD1423902701239111
:10316000970017F5FF1F13052546EFD0A0617C449B
:1031700017F5FF1F1305454517F4FF1F1304844778
:1031800023900700EFD0E05E1C48228523902701A2
:1031900023919700EFD0005F5C4422852244B24027
:1031A000924402492390070041016FD0805C411195
:1031B000972503009385850E1725030013054524E5
:1031C00006C622C426C2EF0093452945EF003349C5
:1031D000EF90702A05E9972503009385250C1725A4
:1031E00003001305E521EF009343172503001305A2
:1031F000E523EF00D3422244B240924429454101E5
:103200006F00F34513050002EF0030512A8405E1F9
:103210009725030093858508172503001305451E90
:10322000EF00F33F172503001305C521D9B7A547C4
:10323000A300F5009307C0125CC1FD572306F500FB
:10324000EF00904C2300A400084CB705D4009385F0
:10325000851A3105EF10C068084C8345040031051C
:10326000EF20707C084C930500103105EF20507D55
:10327000044C0565FD21B104AA852685EF20B07AAE
:1032800022852244B240924441016F00704E93F770
:103290001500B9CB411122C41725030013054516AB
:1032A0002E84972503009385A50306C6EF003337C8
:1032B0002945EF00D33AEF90101C01C9CD3D1345CD
:1032C0001400B2402244410182809717002083C736
:1032D000374F93F7E70F93E7170017170020A30165
:1032E000F74EEF208022E1BF01458280797197255A
:1032F00003009385E5FB172503001305651006D62B
:10330000EF00F3312945EF009335614681452800F0
:10331000EFF0EF8FEF00503FA547A304F1009307B4
:10332000C0122304A1003EC60565FD57230AF10023
:103330007923EF9050141DE597250300938545F7F9
:10334000172503001305C50BEF00732D1725030088
:103350001305C50DEF00B32C2945EF005330B250D3
:10336000456182802800EF009041D5BF411197252B
:1033700003009385E5F4172503001305650806C6C9
:1033800022C4EF00D3292945EF00732DEF90B00E32
:103390001DE5972503009385A5F217250300130566
:1033A0002506EF00D3271725030013052508EF0096
:1033B00013272244B240294541016F00532A414559
:1033C000EF00B0352A8405E197250300938545EF8A
:1033D000172503001305C502EF007324172503000A
:1033E00013054506E9B7A547A300F5009307C012EA
:1033F0005CC197370300938727725CC9FD5723068A
:10340000F500EF0070302300A400084CB705D4008D
:103410009385851A3105EF10A04C084C83450400B4
:103420003105EF205060084CBD65A5053105EF2042
:103430003061084C930530023105EF20D05E2285C3
:103440002244B24041016F00B032411122C497259D
:103450000300938525E82A8417250300130545FA00
:1034600006C6EF00D31BA28517250300130545FBF5
:10347000EF00F31A2945EF00931E85476309F40016
:103480008947630AF400B240224441018280224409
:10349000B2404101A1BD2244B2404101C1BD011170
:1034A000354697250300938525EB17250300130563
:1034B000A54106CE22CC97D0FF1FE780C0680DE55E
:1034C000972503009385C5E217250300130545F3EF
:1034D000EF00F314172503001305C5D4EF0073287C
:1034E0002945EF00D31701A097F7FF1F9387877235
:1034F0003EC48567938707803400173603001306A0
:103500002662972503009385A5031725030013055D
:10351000A5043EC6EF2040242A840DC99725030048
:10352000938505DD17250300130585EDEF00330FA7
:10353000A28517250300130525E3EF00530E294547
:10354000EF00F311F240624405618280EF80404356
:10355000172503001305C5DAEF10003FEF50C02414
:10356000EFF0202517F5FF1F13050508EFF0601396
:10357000172503001305C5D9EFF0E0242A84EF10C6
:10358000B023EFA0F007EF10A15DEF209035EF1012
:10359000507CEFD0801B97250300938565D51725B8
:1035A00003001305E5E509C8EF007307A285172599
:1035B00003001305A5DD51B7EF00730617250300BF
:1035C000130505DFEF00B3052945EF005309EFC0F0
:1035D000F07DEF90406A29C597250300938545D17A
:1035E000172503001305C5E1EF007303172503003A
:1035F000130585DDEF00B3022945EF00530697253B
:1036000003009385E5CE17250300130565DFEF0062
:10361000130117250300130565DDEF00530005B7FF
:103620007934F1BF411106C6EFC07200EF0030409F
:10363000170500001305E5C5EF3011622388A18A44
:10364000B93DEFF0AFE217050000130545E0EFF0DC
:103650000FE6B24081450565410121AA39711C0878
:1036600022DC3EC22E84B7072000A16526DA3EC4C4
:10367000AA841C0893854520480006DE3EC6EF104C
:103680002026B717004083A5470C4800B18193C599
:1036900015008589EF20303997250300938505DCD7
:1036A000172503001305C5D5EF0063778355840004
:1036B0000356640017250300130505E4A18193F563
:1036C000F507EF00C3752945EF0063798347940040
:1036D0000147814693F7F707D917B337F000B307CF
:1036E000F0402305F4005000A2852685EF1020420B
:1036F00015C52A8497250300938545D61725030011
:10370000130505D0EF00A371A2851725030013054B
:1037100025E0EF00C3702945EF006374F250625456
:10372000D25421618280411122C426C22A84AE84EF
:10373000172503001305C5CC97250300938545D3B2
:1037400006C6EF00C36D13050002EF004371294563
:10375000EF00E37022852244B240A68592444101E5
:10376000F5BDB717004083A7470C7D8D13351500B5
:103770008280411126C2AE848D4522C406C62A84A9
:10378000EFF00F8BB717004099C803A5C70C418D08
:1037900023A6A70CB240224492444101828003A593
:1037A000870C418D23A4A70CF5B7011197250300C1
:1037B000938505CE17250300130585C432C606CEB2
:1037C000EF00E36513050002EF0063692945EF0090
:1037D00003693246B717004083A7470C1842B183EC
:1037E0008345070093C71700858B6386F500F24079
:1037F00005650561BDBFF24005618280797122D403
:1038000026D22E844AD081453289AA846146280076
:1038100006D6EFE0DFBFEF00206FA547A304F1005D
:103820009307C0123EC62304A100EF30814E9307D8
:1038300020033375F50297250300938565C42AC8D4
:10384000172503001305C5BBEF00635D8355840096
:103850008306840003566400A18193F5F5071725BC
:103860000300130525C7EF00835B2945EF00235FA5
:1038700083270900056583C50700E53D834794005C
:10388000294793F7F7076385E700FD57230AF100FF
:10389000831764006359F000FD57230AF100930772
:1038A000400602C83EC62800EF00606DA28526854E
:1038B0007533B250225492540259456182804111AD
:1038C0008D4522C406C62A84EFE09FF6B717004054
:1038D00003A5870CB240218D224423A4A70C4101EB
:1038E000828001113546972503009385E5A61725AB
:1038F0000300130565FD06CE97D0FF1FE780A024C7
:1039000001E917250300130525C2EF00836501A017
:10391000EF7082352AC6EF104168EF104147EF7013
:10392000204AF2403245056182804111130580042E
:1039300006C697C0FF1FE7804079371700408327EE
:10394000870A8D451305002093E707202324F70AF3
:10395000EFE0BFE3EFF06F8217350300130505D7E3
:10396000EF00236017250300130505F6EF00635FE2
:10397000EFF02FCFEFF02FE1AD376D3197D0FF1F74
:10398000E7800034E5BF014582804111B2862E8672
:10399000AA852D4506C697D0FF1FE780809CB240C0
:1039A000014541018280AE860146AA85254517D38F
:1039B000FF1F6700039B9307000463E6C7021D71A6
:1039C000A2CC2A84080886CE32C6EF00E339B2467C
:1039D0001008A285294597D0FF1FE7808098F64000
:1039E000664425618280395582800147972603000D
:1039F000938646CE3388E50083470800050709050E
:103A00009183B69783C70700230FF5FE834708000D
:103A1000BD8BB69783C70700A30FF5FE9317070169
:103A2000C183E3E9C7FC8280411197250300938598
:103A300025BB172503001305A59C06C6EF00233EF2
:103A400013050002EF00A341B240294541016F0078
:103A50000341411197250300938585B6172503007F
:103A60001305059A06C6EF00833B13050002EF001D
:103A7000033FB240294541016F00633E4111972544
:103A800003009385A5B2172503001305659706C6A5
:103A9000EF00E33813050002EF00633CB240294514
:103AA00041016F00C33B411197250300938545AF4A
:103AB000172503001305C59406C6EF00433613050A
:103AC0000002EF00C339B240294541016F0023399C
:103AD0004111972503009385E5AB172503001305D6
:103AE000259206C6EF00A33313050002EF0023372B
:103AF000B240294541016F0083365C49411122C41F
:103B000006C62A8491C7DC4381C72E850C4882975C
:103B10001C4CC84BEF20F17A1C4CB240224423AA23
:103B20000700410182804111328506C622C426C2A7
:103B30002E844AC0EF208079AA84972503009385BC
:103B400025A9172503001305A58BEF00432D0307B7
:103B500084000356640083554400A686172503009D
:103B6000130585BAEF00A32B2945EF00432F1384DB
:103B7000C13A1389C14083470400639B9700814584
:103B80002285A53F8345C40103C5218BEF308169A0
:103B900013040402E31124FFB24022449244024978
:103BA000410182801D7183C7813CCEC686CEA2CCE6
:103BB000A6CACAC8D2C4ED8F9389C13AD9EB83C7CC
:103BC000813EED8FC9EB83C78140ED8F0145B5CBB9
:103BD0008947939457001C103EC4B70720003EC687
:103BE00017FAFF1F130A0AA11C103EC88327CA0038
:103BF00002CA02CC02CE83D7070033849900184C46
:103C0000231BF100FD77231CF1005C4B2E89B1E7EB
:103C1000972503009385C59F171503001305457E5F
:103C2000EF00E31F17250300130585A4EF00231FF2
:103C30002945EF00C322B387990003C5C701334567
:103C4000A900F6406644D6444649B649264A25614D
:103C500082808147BDBF8547ADBF83471400A5550E
:103C6000B9CFFD17035607014C47A300F400834763
:103C7000C4002800230FF100EF200059528522874D
:103C800097360300938646EA30004C08EF00306810
:103C90002A8A55D197250300938585971715030028
:103CA00013050576EF00A317D2851725030013052A
:103CB000E59CEF00C3162945EF00631AD555228510
:103CC0002D3D95BF9C4DDC4B81CBD04183C5C501BB
:103CD00003C5218B6F30812C82801C4EDC4BA1CB25
:103CE000B9C5411126C21715030013056571AE84CD
:103CF000972503009385059106C622C43284EF0000
:103D00000312A685172503001305059EEF00231156
:103D10002945EF00C3148345C4012244B2409244B4
:103D200003C5218B1306400641016F302127828095
:103D3000930780FA17170020230EF7A68547171759
:103D40000020A309F7A6930710FB171700202304F0
:103D5000F7A6955717170020A30FF7A49307500253
:103D600017170020230AF7A497170020A38607A49B
:103D700097170020238307A49307F0031717002049
:103D8000A30DF7A2B157171700202309F7A2930735
:103D9000A00617170020A303F7A2930730061717F2
:103DA0000020230EF7A0930770FA15711717002053
:103DB000A307F7A0E157171700202303F7A08810E7
:103DC000894786CF17170020A30CF79EA2CD97171F
:103DD00000202388079E97170020A384079EEF10DA
:103DE0002147B70725E511464C0028103EC2F53E95
:103DF00097250300938505840818EF00431719469B
:103E0000972503009385458B13051103F93E9725EC
:103E10000300938525821305D103EF004315414626
:103E2000972503009385A5891305E103EFF0FFBBF8
:103E3000130660032C108810EF10A1488547630615
:103E4000F508971503009385A57A17150300130548
:103E5000255BEFF0D27C171503001305E57DEFF02D
:103E6000127C2945EFF0B27FEF20B16A93578500AD
:103E700003C7118BAA97BA9713570501BA976181A7
:103E8000AA97A388F18A9387813523A2F13C8547BD
:103E90002384F13C9387413723A2F13E8947238451
:103EA000F13E9387013923A2F14017050000130565
:103EB000A5CF91472384F140EF30015AFE406E4474
:103EC0002389A18A01452D6182802A848C102800D3
:103ED000EF10A14663018502971503009385457194
:103EE000171503001305C551EFF072731715030082
:103EF00013050576ADB741462C00171500201305B4
:103F0000658CEFF072668DB79387118B03C5070040
:103F1000130715002380E7008280011122CC13844F
:103F2000C13A26CA044C06CE4AC8DC484EC699CFD0
:103F3000045CDC4895CB244CDC488DCB0145F24039
:103F40006244D2444249B249056182800149AA894A
:103F50001609EF20D139C8C8330524011C4D239917
:103F60003701DC4BE9FFD9BF0549D5B70949C5B7CA
:103F700010458345C50103C5218B6F3021024111D6
:103F800026C2AA84414506C622C4413F05E99715C9
:103F900003009385E5681715030013056546EFF0E8
:103FA0001268171503001305E549EFF05267224424
:103FB000B2409244294541016FF0726A6146A6857C
:103FC0002A84EFF0725A084CB705D4009385851AFD
:103FD0003105EF00F010084C83C504003105EF20D7
:103FE0008024084C930500103105EF206025044C17
:103FF0000565EFF00FF7B104AA852685EF20A02212
:1040000022852244B240924441019DB72A86B305DD
:10401000B040171503001305A57A6FF0526079714F
:1040200006D619C589476303F502B25045618280FF
:10403000280097D0FF1FE78080ADEFF02FAB17254A
:1040400003001305E584EFF0D271C5B7280097D0BF
:10405000FF1FE780C0ABEFF06FB11725030013051A
:10406000E584D5B783D7418C6390A7022393B18CA5
:104070002394C18C2395D18C2E861715030013052C
:104080002572BE856FF0B259171503001305C5726E
:104090006FF0326D03574500011106CE83D7418C76
:1040A000631FF702C167F917894503C5C18123A2C0
:1040B000F18C23A4018CEF30E116914503C5C18139
:1040C000EF30411685471306F10085451305503042
:1040D000A307F100EFB03227F24005618280171587
:1040E00003001305656DEFF0D267FDB77D159547A9
:1040F00063EEA71217170300130707690A053A951D
:104100001C41411122C406C6BA972E848287171516
:1041100003001305656C2244B24041016FF07264E4
:1041200003C725009947631CF7002E85A5378345F3
:104130006400171503001305256BEFF0524E171599
:1041400003001305256CC1BF03C725009547631203
:10415000F702C16703D7418CF91703D5A500630F98
:10416000F700EFB0924A171503001305A56AEFF0A8
:10417000525F171503001305656C71BF2392A18C64
:1041800083D7E5000966130606902393F18C83D745
:10419000050103C5C1812394F18C83D72501A14575
:1041A0002395F18CEF20915F0566130606C89145B3
:1041B00003C5C181EF20915E0356E4008355A4003E
:1041C0001715030013054566EFF072455DB7171527
:1041D00003001305656781B783C525009147639781
:1041E000F500171503001305A56735B79947639FB9
:1041F000F500228545358345640017150300130536
:10420000A55E2244B24041016FF072419547639A26
:10421000F50083471400F1F7171503001305056631
:10422000DDBD171503001305E565E1BF82801D7133
:10423000170500001305651E86CEA2CCA6CAEF3076
:10424000A1219384C181D14705442380A400231078
:10425000F102700093074006854513055030231C7A
:10426000F10223068100EFB0120E17E6FF1F1306BE
:10427000A63CF14513057030EFB0F20C13860182B5
:104280009D4513056030EFB0120C101089451305E1
:104290001031EFB0520B3018894513052031EFB0C3
:1042A000920A17E6FF1F1306A637D5450145EF60B2
:1042B0005175930500050D45EF40D11F930500058D
:1042C0001145EF40311F3018914513057040230010
:1042D0008100230281002306810002DC2300010209
:1042E000EFA082430A86854513050040EFA0C24235
:1042F0005000854513051040EFA00242101085457F
:1043000013052040EFA04241700085451305504041
:10431000EFA082407D55EF60317C7D55EF902145C7
:104320007D55EFE09F82554681450810EFE02F8EC6
:104330008947554681452818230081022300F10052
:10434000EFE0EF8C8D474D4681456800230CF1026C
:10435000EFE0EF8B91472306F100938701889843A4
:1043600083C747001010D54501453AC22304F10028
:10437000EFE05F830A8685450545EFE0BF82301890
:10438000D5450945EFE01F827000CD450D45EFE0B2
:104390007F81500095451145EFE0DF80C1671387AD
:1043A000418CF9171CC32322070013858181EFE09C
:1043B0008FFE1385418BEF90625003C50400854545
:1043C000EF209136F6406644D64425618280011183
:1043D00022CC2E862A842315B10001478146ED4563
:1043E00003D5418C06CEEF70C1250356A100A285EE
:1043F0002AC697C0FF1FE78080712C0003D5418C2F
:10440000EFE07F8209C5ED452800EF70413BF240A7
:1044100062440561828079719397050122D406D6A2
:10442000C1872E8463DF070003C5C181EF200170BF
:1044300019C1EF2001692165218DB25022544561D7
:10444000828093F7150091CF17E6FF1F1306861C95
:104450009385C18B03C5C181EFB0024113451400A0
:10446000E9BF93F725009DC713060064894503C57E
:10447000C181EF20B1324D4681456800EFD03FF950
:10448000930780F86800CD452306F100893713456E
:10449000240065B793F7850085C383C7C1811307DF
:1044A0004006814613064006D14503D5418CEFB046
:1044B00002351345840051B793F745000145B5DF38
:1044C00003D5418CEFB032140566130606C891453A
:1044D00003C5C181EF20912C13454400B9BF0111E0
:1044E00022CC2A84084526CA06CEAE8419C900C14A
:1044F000970500009385857C610532C6EF00E17A5F
:1045000032465C447D572390E7002391E7001C4826
:1045100023900700239107009387C18C9C43DC47BD
:10452000B387F44091872302F4001DC2DC44B30733
:10453000F4409587A302F4001C4CD1C703A3870065
:104540006303030822856244F240D244056102837A
:104550009C440547B307F4409587A302F4008357B2
:104560000400638EE7028DC309476384E7040D47A7
:10457000E394E7FC972703009387C7811CCC972718
:1045800003009387278211A8971703009387874812
:104590001CCC971703009387E7485CC871BF971737
:1045A0000300938727341CCC971703009387873425
:1045B000EDB7972703009387A7821CCC97270300AA
:1045C00093870783D9BFF2406244D2440561828059
:1045D0009DE1411122C4004606C618448347940059
:1045E00075839D8B6315F700EF00702748C4B240B8
:1045F0002244410182808280184183560700638FE4
:10460000D502C167F117639AF60093873500C20798
:10461000C1838546054563F4F60203572700054527
:10462000638FE500C167F1170145631AF7008D0537
:10463000139505014181133525008280054582804F
:10464000797126D24AD04ECE52CC56CA5AC806D616
:1046500022D45EC6AA8A2E89328BB684BA893E8A53
:10466000EF8060615DCD2685EF10D0358D4763EE1C
:10467000A7007D55B250225492540259F249624A21
:10468000D24A424BB24B4561828083DB4400EF004B
:1046900050792A84EF00307A93077400314433054F
:1046A000850263C4A702EF00D077EF0090772A84D9
:1046B000EF0070789307740031443305850263CCB2
:1046C000A704EF001076110519A8EF00D076330487
:1046D00085029307F0171305C017E3D887FC6344DE
:1046E0007505631A0B00832749001385CA0083D51B
:1046F000270019373DDD2254B250D24A424BB24B0B
:10470000D2864E86624AF249A6854A85925402595B
:1047100045616FF0C065EF001072330585027115B9
:104720007DBF695581BF2D55B1B708498357050035
:104730006389B700835725006394B7000905828019
:10474000014582802398A18C9387C18C9043814737
:104750000C463307F500420741836393B70082801C
:104760005446139847008507C2962390E600D5B7B4
:104770009387C18C9C4303C58700828003D5018D3C
:1047800082804111C16706C61387D7FF6308E5021F
:104790006369A700F117630FF5000145B2404101BD
:1047A00082801387E7FF630EE500FD171D8D13352B
:1047B0001500EDB7EF40E0367D15D5BFEF40A015F1
:1047C000E5BFEF404014CDBF8DB70348550081468B
:1047D00093F7F60F63E5070181473E8582805845D0
:1047E00093975600BA9703D727006316B70003D7ED
:1047F0000700E304C7FE8506E1BF83464500014785
:104800009377F70F63E4D700814711A81C4513166F
:1048100057000507B29703D60700E313B6FE3E859F
:10482000828079719387C18C5AC803AB07009317B4
:10483000050152CC06D622D426D24AD04ECE56CA34
:104840005EC6C187032A8B006359F0088327CB001B
:1048500003D40700018D4205418101446375450180
:1048600012053384A7002285B25022549254025973
:10487000F249624AD24A424BB24B45618280832759
:10488000CB0013944900814A3E94834B440063CF8C
:104890007A01834B5400814A63C47A038509C209B3
:1048A00093D90901E3ED49FD014475BF1C441399F7
:1048B0005A00A6853E994A858D3D09ED850AC1BFFE
:1048C0005C4413995A00A6853E994A85B93D19E181
:1048D000850AD9B7E30409FC79B7AA848149D9B715
:1048E0001C4581E79307C5001CC51C452312050024
:1048F0001CC19307F00F63E6B70093F5F50F6F1037
:104900009012411126C206C69394050122C4C167C4
:10491000C18063F9F5002244B240A685924441016A
:104920006F105014C18193F5F50F2A84EF10B00F6A
:1049300022852244B240A685924441016F10501056
:104940009387C18C884382801C4589C723A6A18C8C
:10495000014582807D5582809387C18C984383472F
:104960004500484792073E9582802171232C811A89
:104970001C1800453EC6B70780013EC81C183ECA39
:1049800083574400232E111A2328211B232A911A0E
:1049900002CE02D002CC231EF100834784002A8974
:1049A00002D22301F1023C083ED402D67537835768
:1049B00005002316F102EF3070682307A1025C4066
:1049C00003556400F18313F717008347F102520582
:1049D0005181F99BD98FA307F102EFF0A02831CDC7
:1049E000AA8403550500EF80E02983D704002AD26A
:1049F0006800231CF10083D72400231DF1001C480C
:104A000003D647008C43EF1030008347B400CA86BA
:104A1000172603001306C6118117A305F4006C00C6
:104A20004810EFF0C0348320C11B0324811B832472
:104A3000411B0329011B396182802155EDB71C45BB
:104A4000B1CF03C5A700894613576500630BD70292
:104A50008D46630ED70285466300D70213074006D2
:104A60003305E50203C7B700418B15CB83C7B700F9
:104A7000BD8B3355F54082801375F5031307803ED7
:104A8000C5B709671375F50313070771D1BF37273A
:104A900009001375F5031307077CD9B70145828018
:104AA00041114AC003A9850006C622C426C2630874
:104AB00009048347B900AE8493F7070E95C30345F5
:104AC0009900930520030D810505B305B5028844BF
:104AD0002244B24092440249610541016F006129BC
:104AE0002E85B13F2A8401CD9D2B8325C900B307B4
:104AF000B54063FC87002E94B305A440E9F9B240A9
:104B0000224492440249410182808545C9B77971A6
:104B100026D2AA8403D5250022D42E8493053500FD
:104B2000C2054AD04ECE52CC06D6C18185473289C5
:104B3000B6893A8A63FBB700EFF0C012AA857D55AB
:104B4000A1C183D705002310F4000355040002C25D
:104B500002C402C6EF8000132AC2268522C4ED3BA0
:104B6000835705002316F100EF30504D2307A100B5
:104B7000D2874E87CA8601464C002685EFF05FAC8F
:104B8000B250225492540259F249624A45618280DD
:104B900021711C183EC6B70780013EC81C183ECACA
:104BA0003C08232E111A232C811A232A911A232818
:104BB000211B00453ED4AA8402CC02CE02D002D2F0
:104BC00002D6EFF07FD98357050035592316F1023D
:104BD000EF30D0462307A10209C48357440089EF70
:104BE00021598320C11B0324811B4A858324411B37
:104BF0000329011B396182800355640052055181EC
:104C0000EFF040062A8969DD8347B40093F7070E69
:104C100089C713058401EF00C11683574400231E82
:104C2000F100834784002301F1025C400355090031
:104C3000D98313F7070883471102231CA10093F7B8
:104C4000F707D98FA300F10283572900231DF10034
:104C50005C40F18313F717008347F102F99BD98F6A
:104C6000A307F102EF8000022AD23DD983479400C6
:104C70006800139757008347B400FD8BD98FA305B5
:104C8000F4001C4803D647008C43EF10E057A6877A
:104C9000172703001307C7E9740005464C10268543
:104CA000EFF01F9A2A8915DD8347B400A685FD8B96
:104CB000A305F400F53335B7011126CA832485FE18
:104CC00022CC2A84268506CEEFF07FD7834734FF97
:104CD00093F7070E85C72AC62685EFF01FC921C5A1
:104CE000834734FFB245FD8BA309F4FE8DCD2285A9
:104CF0006244F240D24405616F00A1070DC58327CD
:104D0000C4FF2685829705E1834734FF93F7070E9A
:104D100081C72285EF00E106032584FE6244F2404C
:104D2000D2440561B5B5F2406244D2440561828047
:104D30009C415D71A2C4CAC086C6A6C24EDE52DCCA
:104D400056DA5AD85ED662D466D26AD06ECE03C71F
:104D5000070089472A89935667002E846389F604E1
:104D60000D46638FC6049307F0076303F7022E8591
:104D7000EF10C055AA84A1678149138BF7EFC16B6F
:104D8000130C49009387C18C9C43984763E8E9045E
:104D9000B640264496440649F259625AD25A425BBA
:104DA000B25B225C925C025DF24D6161828003D74E
:104DB00045008547E3FEE7FC2E85EF1040555DBFBB
:104DC00003D74500E3F6E7FC2E85EF102050AA84B8
:104DD0002285EF106051C204C98C71BFDC470355B6
:104DE000A900139A49003E9A93170501C187635D94
:104DF000F00083570A006392A70263E274038327DB
:104E0000CA00834C5A0005A0A167A98FE377FBFE77
:104E100063950900EFF0FF966DF18509A5B783272B
:104E20008A00834C4A00035DA90003576900216A88
:104E3000BE8D3AC6814A334A4D01639C5C0193871B
:104E4000418D9C43F9DBA286628681452685829747
:104E5000E9B763674B01EA856E85EFF01F8D19C9CD
:104E6000B2451385CD00EFF02FF909C503A74D0119
:104E7000104701EA93861A0093FAF60F938D0D02FC
:104E80006DBF10436384C4003107DDB7035644008F
:104E90005443E364D6F822853AC6EF100032A16786
:104EA0009386D7042A8A835C4400324763E89600DD
:104EB0008346D90093E606F8A306D90018476E8505
:104EC0002286E2850297C1670844FD17337AFA000B
:104ED000529508C02312940189B79387C18C9843D7
:104EE000814715C31447814763FFD5009397450059
:104EF0004C47BE9519C903C7550081476375E60045
:104F0000DC451606B2973E85828003C7450081477F
:104F1000E37BE6FE16069C45F5B7011126CA4EC690
:104F200052C456C206CE22CC4AC85AC0AA892E8A7A
:104F30008144938AC18C83A70A00984763ECE400FC
:104F4000F2406244D2444249B249224A924A024B58
:104F500005618280DC471394440001493E9413BBF1
:104F6000140083474400634BF900014913BB14004C
:104F700083475400634FF900850475BF08449317B5
:104F800059005287DA860146A2853E958299050925
:104F9000C9BF4844931759005287DA860546A2854F
:104FA0003E9582990509E9B72398018C814517F54B
:104FB000FFFF1305055395B79387C18C9C4399C791
:104FC000814517F5FFFF1305C55181BF82807971B7
:104FD00026D24AD04ECE2315E1002E89B284B6895E
:104FE0003A8681460147ED4522D406D62A84EF60F1
:104FF00041652AC639C10356A100CE85EFE0D256DD
:10500000CA852285EF607128058915C5228501466C
:105010002C0023149100EF70110F2A8409C5ED456F
:105020002800EF60C1792285B2502254925402596F
:10503000F249456182804944DDB76554EDB75C4172
:10504000FD175CC18280411106C6EF10316D954796
:105050003305F502B240814541010D818280411145
:1050600006C6EF10B16B95473305F502B24041011A
:105070000D818280035505006F2011100355050036
:105080003287AE8617D6FF1F03566661938581412E
:105090003DBF411106C6EFA05257B2404101828088
:1050A00041119385814106C6EF80816FB240014571
:1050B000410182804111814517D5FF1F0355255AB3
:1050C00006C6EF60515AB24041018280411193857A
:1050D000814206C6EF80C16CB24001454101828029
:1050E0004111814517D5FF1F0355655D06C6EF6069
:1050F0009157B2404101828041112E8506C6EF6072
:10510000D007B24041016F60F00E6F6090155C49AE
:10511000E1175CC95CC583572501A1072319F50078
:1051200083570501A1072318F5008280F147330555
:10513000F5029387818D9C433E9582808D47631B4A
:10514000F60803D74600854763F6E7084111368520
:1051500022C44AC006C626C236842E89EF10001724
:1051600025C58357440093140501C18063EE97045D
:105170002285EF10A015FD14231294009307A002BE
:105180006302F5029307B0026308F50293079002E9
:10519000631CF50222852244B24092440249410137
:1051A0006FD0405722852244B2409244CA850249BA
:1051B000014641016F80601C22852244B240924426
:1051C000024941016F00D050B2402244924402494A
:1051D0004101828082809386C18D9C42014599CB9A
:1051E0009843D44223AEE18C6394D70023A0E18E90
:1051F0001385C7FE8280411122C406C67144512620
:10520000330585029145EF70606E11E56555B2403A
:1052100022444101828023A2A144A52633058502B0
:105220009145EF70A06C7DD123ACA18C992E239C6D
:10523000A142812E239DA142972703009387879344
:1052400023A0F144970700009387A7EC23AEF14217
:10525000014575BFAA85138581436F10401B41111D
:1052600006C6CD3FEF10201C9387C18D9C4381CF94
:105270001387C7FE09CBB24083D5C7FF138581448E
:1052800041016FF0102FB24041018280411106C6EA
:1052900022C4913771C9034785002A849377070494
:1052A00099E70355E4002244B24041014DBF8347D2
:1052B000C50089EF1C411377F7FB2304E500F5D304
:1052C000DC43E5D34C4101458297E1BFFD1723063E
:1052D000F5006105EF60007D8307840063C1070668
:1052E0008347840093E707F82304F400EF1071224A
:1052F0009357050193F7F70FAA9713D587013E95AA
:105300004205A94741813375F5028347840093F72D
:1053100007FCC98F2304F4008347D4003E951C404A
:105320002318A40089CF984319CB8347C400504069
:10533000814585073305F5024205418102971387B0
:10534000C18D144358439307440154C823AEF18CD4
:1053500019E323A0F18E835504012244B240138542
:10536000814441016FF0F020B2402244410182802B
:1053700097F7FF1F9387C7469C47411122C4858337
:1053800006C626C2858B014481EFAE84B2853A867B
:10539000EF10200F2A8409C5EF10C005829408CCB5
:1053A0002285B2402244924441018280797106D61E
:1053B00022D44AD04ECE2E8932C626D2AA8995242E
:1053C000324713060502CA8697050000938545D625
:1053D00013858143713F2A8429CD9304C5008D2E06
:1053E0001946AA852685EF00306285452685EF009F
:1053F000F05E171503001305A5764E95834505004D
:105400002685EF0050625C4831468145A1075CC8A3
:105410005CC483572401E1172319F4008357040166
:10542000E1172318F4001C4C3E85EFC05FFEA30477
:1054300025012285B250225492540259F249456105
:105440008280011106CE22CC26CA2EC6AA8432C47E
:10545000EF00B07C004DB2452246834784000CC06B
:1054600050C093F7F70393E707042304F4002318CD
:1054700004002685EF00107883479400A94623177F
:10548000A40013D7370005073307D7029D8B850784
:105490002306F400A306E40083C70401D848850767
:1054A000230FF7FE1387C18D5843232A0400930767
:1054B000440115E723A0F18E23AEF18C13848144BF
:1054C0002285EFF090001C44858B5D8D09ED2285CF
:1054D0006244F240D244814505616FF090091CC3DB
:1054E00023A0F18EE1BFF2406244D2440561828084
:1054F0004111970500009385A5C4014506C6EFF04C
:10550000BFBFB2400145410182806FF01FC0834799
:10551000C5009DEF83478500411122C493F7F7FB37
:1055200006C62304F5001C412A8491C7DC4381C7C9
:105530004C4101458297EFF01FCA13858144EFF07B
:1055400050040355E4002244B24041016FF03FD1C2
:1055500082809387C18D97050000938565D313855D
:10556000814423A0070023A207006FF000741C4DA4
:1055700081CB03A347006305030083450700028333
:10558000828097F7FF1F9387E7249C4303C507009A
:10559000828097F7FF1F9387E7239C4303C517007B
:1055A000828097F7FF1F9387E7229C4303C537004C
:1055B000828097F7FF1F9387E7219C4303C527004D
:1055C000828097F7FF1F9387E7209C4303C547001E
:1055D000828097F7FF1F9387E71F9C4303C55700FF
:1055E000828097F7FF1F9387E71E9C4303C56700E0
:1055F000828097F7FF1F9387E71D9C4303C58700B1
:10560000828097F7FF1F9387E71C9C4303C5970091
:10561000828097F7FF1F9387E71B9C4303C5A70072
:10562000828097F7FF1F9387E71A9C4303C5B70053
:1056300011E11D45828097F7FF1F9387A7199C43AF
:1056400003C5C700828097F7FF1F9387A7189C4365
:1056500003C5D700828097F7FF1F9387A7179C4346
:1056600003C5E700828097F7FF1F9387A7169C4327
:1056700003D50701828097F7FF1F9387A7159C43E7
:1056800003C52701828097F7FF1F9387A7149C43C8
:1056900003D54701828097F7FF1F9387A7139C4389
:1056A00003D56701828097F7FF1F9387A7129C435A
:1056B00003D58701828097F7FF1F9387A7119C432B
:1056C00003C5A701828097F7FF1F9387A7109C430C
:1056D00003C5B701828097F7FF1F9387A70F9C43ED
:1056E00003C5C701828097F7FF1F9387A70E9C43CE
:1056F00003C5D701828097F7FF1F9387A70D9C43AF
:105700008857828097F7FF1F9387C70C9C4303D568
:10571000C702828097F7FF1F9387C70B9C4303D56F
:10572000E70219E11305800C828097F7FF1F93872A
:10573000670A9C4303C50703828097F7FF1F93877F
:1057400067099C43C85B82809387418E884382802F
:105750009387818E8843828019E17D558280F5DEB2
:10576000984265DFFDD917F7FF1F13076707184732
:10577000AA877155058B631B071E03C507001547D4
:10578000E37DA7FC03C727001305F0057D171377FA
:10579000F70FE364E5FC03C7470061D303C7570075
:1057A0004DDF03C76700494579171377F70FE366A5
:1057B000E5FA03C7A70011457D171377F70FE36ECE
:1057C000E5F803C797000D457D171377F70FE366DC
:1057D000E5F803C7B70001CB65171377F70F13057B
:1057E000600DE36CE5F603C7C700794579171377B9
:1057F000F70FE364E5F603C5D7000D477D15137574
:10580000F50FE36CA7F403D50701130840175115F2
:1058100042054181E363A8F403C5E7007D151375D4
:10582000F50FE36CA7F203C527017D151375F50F7E
:10583000E365A7F203C58700454875151375F50F95
:10584000E36DA8F003D5670105681308B8E06D158E
:1058500042054181E363A8F003D547016D15420578
:105860004181E36CA8EE03D587017915420541819A
:10587000E365A7EE03C5A7017D151375F50FE36E6C
:10588000A7EC03C7B7011D457D171377F70FE36634
:10589000E5EC03C7C7010D457D171377F70FE36EDE
:1058A000E5EA03C7D701714579171377F70FE36668
:1058B000E5EA03D7E7011305E00F7D1742074183AF
:1058C000E36DE5E803C70702494579171377F70F3A
:1058D000E365E5E8D85301CB37C534005917130504
:1058E00055BFE36CE5E6885737C73400130757BF49
:1058F0005915E364A7E603C70703E30007E617F7B4
:10590000FF1F2329F7EC03C7050123A4C18E854798
:10591000E3F5E7E403D72501DC49B3F7E702E39EAB
:1059200007E283C71501E38A07E24111368506C6FF
:1059300023A2B18E22C4EF702003EFE080272A84D7
:10594000EF80904C2A94EFD0A0082A94EF70E01DCD
:105950002A94EFF05F8A2A94EF20B0622A94EF50E5
:1059600090082295B2402244410182808280011138
:1059700006CEA307A100EF80803C9305F100170538
:105980000000130505BFEFF04FD9F2400145056156
:105990008280797122D417F4FF1F130464E4032872
:1059A000840026D2AE849365180006D64AD04ECE27
:1059B00052CC56CA97F8FF1F23A8B8E213781800F4
:1059C000631E08083E8993870196BA899843B28579
:1059D000BE8A2A86014A01CF2AC2014536C62EC494
:1059E000EFD04025B246A2451246133A150026854F
:1059F000EF705050AA841DC51C44F99B17F7FF1F78
:105A00002324F7DE83A70A0081C763030A00829775
:105A1000B2502254268502599254F249624AD24A1F
:105A2000456182804E8597F7FF1F23AD07DAEFE0CF
:105A30007FD14146CA8517F5FF1F1305E5E3EFE067
:105A4000A232EFA0B05C0325040BEFA0305E01454D
:105A5000EFA050640545EFF09FF15DBFF9544DBFD5
:105A600097F7FF1F9387C7D79C47858BD5C34111F5
:105A700017F5FF1F130585DE06C697F7FF1F23A145
:105A800007D697F7FF1F23AF07D497F7FF1F23AD64
:105A900007D4EFF0002FEF40400CEFF0A005EFF03F
:105AA000A0089387C1919C4381C70545EF6070466C
:105AB0009387C1909C4389C741657D15EF50D012F3
:105AC000EFD0801FEFA0F05497F7FF1F938787DE7A
:105AD0009C431397170163540700EFC0F02B97F70F
