:020000024000BC
:10E000006F00726500000000001801180028012848
:10E0100002280328002901290229032904290529A6
:10E02000062907290829002A012A022A032A042A84
:10E03000052AA62A0CF20600C6FD04005A0200209A
:10E04000A40200201602002004020020CC010020BF
:10E0500060FF04008CFF0400680005001E0205003C
:10E06000C20205003CFC040060FB0400D2FB04007B
:10E070008CFB040044070500F003002036FF040079
:10E080003E0405001CAD060014AF06008CAF060070
:10E09000F86906000C6A0600701F0600AA12060046
:10E0A00024A70600740405002672060008BA0500BD
:10E0B00096BA0500EEBA0500321005007E10050084
:10E0C000E80E0500E8760500AC71050056800500F5
:10E0D00026840500D287050008640500A6630500B4
:10E0E00090670500546405007C630500006405002A
:10E0F0002E630500D864050030650500E064050066
:10E10000E46405007E650500386505006A65050064
:10E110008C6A0500946A0500D4640500DC6405007F
:10E120007C650500906A05002C660500C86B05003B
:10E130001E9605009C960500DA96050014790500E8
:10E140002C79050068790500A85D05008C5E050046
:10E15000F45E05007C2E0500C22905001E54050052
:10E16000402A0500624F050072D3060080D00600E9
:10E170006CDA060012EA0600E2E80600E6EC0600A9
:10E18000CEEC0600DEEC060022ED06000EC1060015
:10E190001EED060024E106004AE1060072E10600D9
:10E1A00092ED0600DCE6060072E6060002EE0600CE
:10E1B000CAC1060066C206008EC2060030C2060052
:10E1C000608C060096770600247B06007A780600AD
:10E1D000FA810600C4A70600AAA6060042C10600EE
:10E1E00036090500346B060006720600FE72060052
:10E1F00050A00600F0A0060000A206001A7D05004F
:10E200000E8C06007A820600AA8806001285060097
:10E210004A77060016060020FA6B06000AED060093
:10E22000D2EC0600DAEC0600D6EC0600D8010500B8
:10E23000667A050012ED06005A8E0600AC8F0600C5
:10E240000C900600AADA06000EED060016ED060098
:10E25000361206001AED0600E60E0020F21300202A
:10E2600000000000000000000000000000000000AE
:10E27000000000000000000000000000000000009E
:10E280006373B60082801C419105110523AEF5FE33
:10E29000C5BFB72700203727002093878792130731
:10E2A000C7E76373F700828023A007009107D5BFFB
:10E2B0005DCDAA870145D5CD8D07C207C183F19BEE
:10E2C000C207C18313074003636CF702372700209E
:10E2D000032547AC372700208326C7AB6397A602E8
:10E2E00037270020032747B5014541C74111C20721
:10E2F00006C60545DD8D0297B24001454101828089
:10E3000037270020032507ACF1B70357650031EF2D
:10E3100003574500636BF704B72600203306F74028
:10E3200021489386C6AC6378C8028328050003D8C9
:10E330006600138687001D8F2A9661172312E60058
:10E34000232016012313060010C12312F500130722
:10E3500088FF2393E6002313B50083D566002105CB
:10E36000B387F5402393F6008280084185BF0145BD
:10E370008280828009CDB727002003A347ACB7274E
:10E38000002083A8C7AB81469A8763E31701828088
:10E3900003A807006369F50A6367A80A1387870063
:10E3A000E367E5FE03D66700216705076319E6000A
:10E3B000372600200347469B0507230AE69A37269F
:10E3C00000201305C6AC83D547000357650023938F
:10E3D00007001306C6AC2E97420741832313E500BE
:10E3E0006387670237250020032505AC6301F5022A
:10E3F00003D5660009ED83D7460023A00601210757
:10E40000BE95A1052392B6002313E600B687984374
:10E41000E30F17F7B726002083A606ACE309D7F66B
:10E4200083566700ADF683D64700835547001843EF
:10E43000A106AE962392D70098C383576600A10722
:10E440002313F6008280BE86C28781B719CD91CD95
:10E4500009CE81473387F500834607003307F5006F
:10E4600085072300D700E397C7FE828019C991C9A9
:10E4700009CA910583A7C5FF11057D16232EF5FE58
:10E48000C5BF828001C919C62A960505A30FB5FE2E
:10E49000E31DA6FE828081473307F50003070700CE
:10E4A00019E33E8582808507C5BF01112E8626CAE5
:10E4B000AA84131506019305F004418122CC06CEEF
:10E4C00032C6FD332A8401C53246A68541372285EE
:10E4D000F2406244D24405618280854715C18DC1F6
:10E4E00005C28147B306F5003387F50083C60600F1
:10E4F000034707006398E6008507E315F6FE8547A6
:10E500003E8582808147EDBF9307F6FFBE952A9630
:10E510006313C5008280FD1583C715000505A30F91
:10E52000F5FEFDB7AA87014581CF09CE3E96850746
:10E5300003C7F7FF6317B700E31BF6FE05458280AC
:10E54000828001458280797126D2B724002022D4AE
:10E5500003A404B206D64AD04ECE52CC56CA5AC8EC
:10E560005EC662C44DC43729002037CAC901B72925
:10E570000020814B372B0020130949B2130AFA37C8
:10E580009389C9ACB70AC0A88357240099EF5C44AB
:10E59000639A0B0023A0F4B2032CC4002285D93B5C
:10E5A000628499A823A6FB00C5BF83278BB68297F8
:10E5B000830669011C4463D806063307F54063628D
:10E5C000EA0823A8090083552400034504009700A6
:10E5D00005E0E78020C15C405844A1CF1444B697C1
:10E5E0008306690163C7060063E55701B706405714
:10E5F000B6971CC4A28B3A8441F8B72700209387B2
:10E60000C7AC984B894663F2E606791798CBB250AF
:10E61000225492540259F249624AD24A424BB24BB6
:10E62000224C45618280E37AF5F83387FA402A97D5
:10E6300079B763950B0023A0E4B2B9BF23A6EB0022
:10E64000A1BF0327490219CB63DD06003385A7402C
:10E6500083A709016374F50023A8A900A28B404495
:10E6600061BFE3F5A7FED697D5B723A8070045B746
:10E6700001114AC8372900208327C9AF06CE22CC12
:10E6800026CA4EC652C456C25AC081C78297232E8C
:10E6900009AE9307C9AFDC43372400201304C4AF8D
:10E6A00091C382978327C9AF63900718B7240020CE
:10E6B000938784DC83C75700938484DC858B8DC368
:10E6C00003C77400A3820400914763FBE700EF00D7
:10E6D000503D83C77400F9178A07A2979C4382971D
:10E6E000372A002093078AE083C7C700130A8AE00D
:10E6F000918B99C3EF10E02A1C4491C38297372471
:10E700000020B72900209307C4AC03A7C9B103C6F2
:10E710001700930AC4AC8347C4AC93961700BA960B
:10E7200083D60600C1CA8347C4AC63EDC7088327FC
:10E73000C9AF230604ACEDEB83C7940091CB83C72C
:10E74000740099E7A3840400977006E0E780C0A6F0
:10E75000B727002083A787B6E1CBB707C0A823A8B7
:10E76000FA00D533B7270020938747B2D8534DCF4F
:10E7700083C7570103A70A016368F70A03C7740038
:10E78000914763E3E70A8347CA00918BD1EF83C6C1
:10E790001A0003A6C9B163C3D70A6244F240D24447
:10E7A0004249B249224A924A024B0561170305E0E9
:10E7B0006700838E850793F7F70F2306F4ACE3EC2D
:10E7C000C7F495B786073E978355070023100700C7
:10E7D0000345C4ACB727002083A787AF13172500D4
:10E7E000372B0020BA979C43231C0BB0829783578A
:10E7F0008BB10347C4AC93C7F7FF7D8D9317170008
:10E8000003A7C9B13E97835707005D8D2310A7006A
:10E810008347C4AC81C785072306F4AC0347C4AC67
:10E8200083C71A00E375F7F0F2406244D2444249CC
:10E83000B249224A924A024B05618280139717001F
:10E840003297035707006DF38507B1B7AD6737C738
:10E850000040BD072326F7200F100000B727002037
:10E860009387C7ACC84F83278726BD66BD0693C76D
:10E87000F7FF99836A052326D7205D8D8280411199
:10E88000B7170040985F3AC6945F3247E39CE6FEB4
:10E89000324541018280828003278511630007127F
:10E8A000411122C406C68347C5008345C5042A8496
:10E8B00093F7C70F2306F500834697000356C7005A
:10E8C00013958601618563F1C508635A0506034502
:10E8D000870093F6F607A304D700054693E62700C2
:10E8E0006314C50093E617002306D4005C43890730
:10E8F0005CC3A30AB400032504112E864C4309050A
:10E90000B1368327841103465401D44303D7C7008B
:10E91000B296118FD4C32396E7008947A30DF40064
:10E92000B72700200347440383C767B36378F7041E
:10E930008347C40093E707012306F40081A093E70F
:10E9400017002306F40075B79376F60F635D050292
:10E9500003458700854513E627006314B50013E6D9
:10E9600017002306C400A30AD400A30407008547A8
:10E97000A30DF400832784119C43DDF3B2402244AD
:10E9800001454101828093E717002306F400A30AA2
:10E99000D400A3040700032504114C4309057D346A
:10E9A0008327841103465401D44303D7C700B2968A
:10E9B000118FD4C32396E7008D475DBF0545828044
:10E9C000B727002083A787DB411122C406C6858BA9
:10E9D0002A84DDEB4165130525F5973006E0E780D5
:10E9E000E0845DC18347A5002315F5008327041249
:10E9F000B5E72320A4122322A41285472310F40490
:10EA0000232005008347640154412316F500034782
:10EA1000D4002304E5000547A304E50037270020C0
:10EA2000032707DE1385170215811C437D15137517
:10EA3000F50F9CC25C43DCC21C479CC65C47DCC62D
:10EA40001C4B9CCA5C4BDCCA1C4F9CCE5C4FDCCE82
:10EA500019CD9386060213070702C1BF832744120C
:10EA600088C3835704042322A412850741BFB72714
:10EA70000020938787CA03D7870005072394E70000
:10EA8000B2402244410182808347C400230904002C
:10EA9000054593C747002306F400DDB7834785018A
:10EAA00093F7E70FD5E783479501DDE3034625019B
:10EAB0008346C50009CA372700208345450303471D
:10EAC00077B363E7E50013F7060141C7014709C6BD
:10EAD000C18A0357851881C68356C518369735CB2A
:10EAE000B727002083D647AFB7470F009387072487
:10EAF000B3C7D7021307C712411126C222C406C6E4
:10EB00007D543357F702B727002083C7D7B3B384A8
:10EB1000E700B727002083A607D383A7060963F37E
:10EB200087003E849442F5FAB727002083A787B672
:10EB3000829781476364A400B307A440B240224493
:10EB4000B3B7970093C7170092443E854101828076
:10EB500081473E858280797126D206D622D44AD05A
:10EB60004ECE52CC56CA5AC85EC6834735030344BC
:10EB70007513AA843E941374F40F9307400263F64E
:10EB800087001304B4FD1374F40F03AA841383AA3B
:10EB9000C413A38B841222865285D68597E006E0A3
:10EBA000E780E057058915E503CBD4120149814977
:10EBB000337B6403930B50024A865285D68597E0D7
:10EBC00006E0E780C055058915C563916903137494
:10EBD000F90F238B8412B250225492540259F249F5
:10EBE000624AD24A424BB24B456182808509E209B2
:10EBF00093D989410509E31179FDE1BF832785098F
:10EC00000356E503797193D60701BD8EC206C18212
:10EC1000358E1357764093575640898B058B5D8F01
:10EC200093573640918B5D8F93571640A18B5D8F24
:10EC300093171600C18B5D8F9317360093F7070269
:10EC40005D8F931756009355860093F707041E06B1
:10EC50005D8F1376F60F518F93D7554013D63540FD
:10EC6000118A898BD18F13D67540D18F13D6154059
:10EC7000218AD18F13961500418AD18F13963500C2
:10EC800013760602D18F13965500137606049E055F
:10EC9000D18F93F5F50FCD8FA20745465D8F3307D2
:10ECA000C70222D42A8426D252CC56CA032A8413FD
:10ECB000832AC4135AC806D636974207418393570E
:10ECC0007740135557400989858BC98F13553740B5
:10ECD0001189C98F135517402189C98F1315170042
:10ECE0004189C98F1315370013750502C98F131594
:10ECF000570093558700137505041E07C98F1377B6
:10ED0000F70FD98F13D5354013D755401189098B8B
:10ED1000498F13D57540498F13D515402189498FE7
:10ED2000139515004189498F139535001375050218
:10ED3000498F13955500137505049E05498F93F56A
:10ED4000F50F4D8F2207D98FB387C7024AD04ECE19
:10ED50005EC662C4B697C207C18313D7774013D586
:10ED600057400989058B498F13D537401189498F41
:10ED700013D517402189498F139517004189498F71
:10ED80001395370013750502498F1395570093D5D6
:10ED90008700137505049E07498F93F7F70FD98FE6
:10EDA00013D5354013D755401189098B498F13D599
:10EDB0007540498F13D515402189498F139515004A
:10EDC0004189498F1395350013750502498F1395B5
:10EDD0005500137505049E05498F93F5F50F4D8F6A
:10EDE0002207D98FB387C702130650025285D685F2
:10EDF000B697BD8E93940601C18033F6C402137B8F
:10EE0000F60F97E006E0E780803105890DED834736
:10EE1000D41201498149B3849702130C5002C18076
:10EE20004A865285D68597E006E0E780402F05891F
:10EE3000937BF90F11C563863403850993F9F90FA4
:10EE40000509E31F89FD230B6413B2502254925429
:10EE50000259F249624AD24A424BB24B224C4561B6
:10EE600082805E8BCDB70111B727002022CC03A48E
:10EE7000C7D526CA4AC84EC606CEAA84130925009D
:10EE8000854915C083C7140003473400858B63048C
:10EE9000F700405CFDB71946930544004A85EFF042
:10EEA000CFE3E31835FF2285F2406244D244424961
:10EEB000B249056182804111B727002022C403A412
:10EEC000C7D526C24AC006C693042500054901E8F5
:10EED0002285B24022449244024941018280A685A3
:10EEE0001305A402974006E0E780606DE30225FF6A
:10EEF000405CF1BF4111B727002022C403A4C7D54D
:10EF000026C24AC006C693042500054901E82285A9
:10EF1000B24022449244024941018280A6851305F1
:10EF2000A401974006E0E7808069E30225FF405C8A
:10EF3000F1BF0111B727002022CC03A447D526CA70
:10EF400006CE2AC42EC6854419E40145F240624427
:10EF5000D244056182808347910003471400858B6A
:10EF60006304F7000044CDB719469305A1001305CB
:10EF70002400EFF08FD6E31795FE0545C1BF0111C0
:10EF800022CC37240020032744DE2AC62EC432C2F6
:10EF900006CE3C4B93F7F7F73CCB976006E0E78053
:10EFA000E01E032744DEB72600203C4B93E707080A
:10EFB0003CCB83A7C6DB3245A24523A0070003470D
:10EFC0001500034825002207420842970348050020
:10EFD0004297034835006208429798D70347550087
:10EFE00003486500220742084297034845004297BC
:10EFF0000348750062084297D8D703479500034835
:10F00000A50022074208429703488500429703481B
:10F01000B5006208429798DB0347D5000348E50036
:10F020002207420842970348C5000345F50042976E
:10F0300062052A97D8DB03C7150003C52500220700
:10F0400042052A9703C505002A9703C535006205C6
:10F050002A9798CF03C7550003C5650022074205CC
:10F060002A9703C545002A9703C5750062052A97AC
:10F07000D8CF03C7950003C5A500220742052A97EC
:10F0800003C585002A9703C5B50062052A9798D362
:10F0900003C7D50003C5E500220742052A9703C52B
:10F0A000C50083C5F5002A97E2052E97D8D3D8432B
:10F0B000759BD8C3D84313671700D8C39843136709
:10F0C000170098C3124603A7C6DB5C43858BD1EBC0
:10F0D0001C4F01452300F60083A7C6DB9C4FA1838C
:10F0E000A300F60083A7C6DB9C4FC1832301F60073
:10F0F00083A7C6DB9C4FE183A301F60083A7C6DB91
:10F10000D84F2302E600D84F2183A302E600D84F50
:10F1100041832303E600D84F6183A303E60098539D
:10F120002304E60098532183A304E6009853418307
:10F130002305E60098536183A305E600D853230610
:10F14000E600D8532183A306E600D8534183230762
:10F15000E600DC53E183A307F600F2406244056158
:10F16000828001008DB75D7136D4B72600203AD277
:10F1700003A706DC3ED04ACA1C5F4EC886C69983E8
:10F1800096C49AC29EC022DE26DC2ADA2ED832D657
:10F1900042CE46CC72C676C47AC27EC0858BB68912
:10F1A00037290020ADCF1C5F37240020930484DC76
:10F1B00093F7F7F91CDF930784DC83C76700130715
:10F1C00000086319F7008327C9DB9C4393F7070402
:10F1D0002383F400834784DC93F7070489CFB727A0
:10F1E000002083A787B6829788C8834784DC93F77B
:10F1F000F70B2304F4DC83C7440093F7070485E38B
:10F200008547A382F400B727002083A747DE09675C
:10F2100098C7130700FC2382E400D844F8D383A7DF
:10F2200009DC985F1183058B19CB985F85463D9B60
:10F2300098DF37270020130787DC2302D700985F69
:10F240001D83058B01CF985F1377F7F798DFB727FA
:10F250000020938787DC05472382E7008327C9DBEB
:10F26000D8430583058B19C7D843759BD8C3D843AA
:10F27000799BD8C37254B640A64216438643E254E3
:10F280005255C2553256A256125782577248E2481A
:10F290005249C249324EA24E124F824F61617300F1
:10F2A0002030B7270020B726002003A647DE93872B
:10F2B00086DC03C786DC058B11C723820700A38287
:10F2C0000700828003C71700058B65FB785275F332
:10F2D00003C75700EDB737280020032708DC1C5F61
:10F2E0009583858BC5EB0DC6B72700208398E7CEA5
:10F2F000030306001C5BBD83630B030893F7F71F32
:10F30000B38717419A970947B3C7E7022300F6006E
:10F3100085CA832708DC985B4607935767016356C5
:10F32000070093E707C0C207C18303970600C2071F
:10F33000C18709C7BA970947B3C7E7022390F60008
:10F3400037270020130787DC8DC98347150095C731
:10F35000034667009386970091471376060415C607
:10F36000369583460500054693F5F606639FC5006E
:10F37000E206E186B14763CA0600832708DC9C5F8A
:10F38000ED838D8BA305F70081473E858280B3878F
:10F390001741ADBF8947D5BF411122C406C63724E6
:10F3A000002026C2032744DE59E5AE877453FDFED4
:10F3B000B7240020938484DC3E85B2852381040039
:10F3C000976006E0E780E0BAB727002083A707DC54
:10F3D000B70680009843558F98C3D857719BD8D7EC
:10F3E000832744DEA3820400A3800400094798C356
:10F3F000B7F700E003A707D16D9B23A8E7D003A7C9
:10F4000007D15D9B23A8E7D073005010832644DE0C
:10F41000B7270020938787DC03C72700058B19E7F0
:10F4200003C73700058B59C723820700B240224427
:10F430009244410182808D47631FF500B727002069
:10F4400083A707DCB70680009843558F98C3D85729
:10F45000719BD8D765BF8547E31AF5FAB567BD0735
:10F460005CC70F100000832744DE0967930600F88D
:10F4700098C737270020130787DC2302D7003727D8
:10F480000020832607DC0946984231830D8B6319DF
:10F49000C7001307E043F8D33D673D07D8C7BDB7A2
:10F4A000984231830D8B01E713076019EDB71307FD
:10F4B000E01BD5B7F8522DF395BF5D714EDEB7292D
:10F4C000002003A709DC86C6A2C4A6C2CAC052DCBB
:10F4D0001C4337290020372A002093F7F7E793E7EA
:10F4E00007081CC3832689E23707CEFF7D179C4699
:10F4F000130680022A84F98F9CC683274ADE1307ED
:10F5000000082800B8CBAE8493051008EFE09FF701
:10F51000976006E0E78080C7976006E0E780A0CFAD
:10F5200083A709DC9376F41FB70EFCFF23A4070022
:10F53000984B130510F8CE851367F70398CBF84F57
:10F540004A88B70F0400137707E0558FF8CF984328
:10F55000F576FD16758F98C39843B7063300914230
:10F560001377F7E798C39843FD1E85431377F7E7B2
:10F570001367071098C3032789E2130F80021C4703
:10F58000D58F1CC783274ADE1307900D3400B8CBF4
:10F59000014793583700A69883C708001376770071
:10F5A000B3D7C740858BC5CB83A705DC032E88E284
:10F5B000239C0704239007060323CE021373D3FF73
:10F5C00023266E0203AE07001373F707137E0EF8AF
:10F5D00033636E0023A0670003A347023363F30184
:10F5E00023A26702014303DE07066307C30303A3E5
:10F5F0000703038E06001353F30062031353834182
:10F6000063586E0003A307031353F30023806600BF
:10F6100003D307061373F30F03DE8705E3F5C2FD7B
:10F6200003A347023373D30123A267028387060033
:10F63000635CF40003C308003396C3001346F6FF6F
:10F64000337666002380C8003E8663D3A7002A86EF
:10F6500013158601618505071377F70F8506E31AF1
:10F66000E7F3B640264496440649F259625A61616E
:10F670008280011132CA372600203EC4832746DE2D
:10F680003AC636C8D8472ACE2ECC9316170163D275
:10F69000060298479316170163DD06007D57B8D719
:10F6A000372700201307C7AC544F850654CF116786
:10F6B00098C798470D83058B0DC337270020130784
:10F6C00087DC8346270093E616002301D7009306C4
:10F6D00000F82302D700214798C79847058B09CF28
:10F6E00037270020130787DC8346170093E61600B0
:10F6F000A300D700054798C798470983058B09E7FA
:10F7000098470583058B21CF94473727002037255D
:10F7100000208982858A63880610832605DC94424E
:10F72000B1828D8AF5EEAC4B930687DC944E93F54F
:10F73000050283C61600DDCDEDE293067006D4CF38
:10F74000834687DC93E616002304D7DC114798C76D
:10F75000032705DC5C57F19B93E717005CD7032771
:10F7600046DE1C479396370163D40602B727002074
:10F77000938687CA03C6C606938787CA418A55CE31
:10F7800083C7C60693E707022386F60685671CC76C
:10F790001C479396270163D10602B7270020938761
:10F7A00087DC83C64700E206E18663D5060085460E
:10F7B0002382D70089671CC71C479396070163D231
:10F7C0000602B7270020938787CA83C6D706858A93
:10F7D000C9C683C6D70693E62600A386D706A167C7
:10F7E0001CC77245E2455246C2463247A2470561F0
:10F7F00073002030B9D285456395B6009306B006F4
:10F800003DBF89456395B6009306F0060DBF8D4553
:10F810006395B600930630071DB79306500705B7EA
:10F820009306600729BF130787DC8346370093E6FA
:10F830001600A301D700094719BF83C6C7060946AA
:10F84000BD8A6388C60083C6C7060D46BD8AE39F8E
:10F85000C6F291462386D70615BF83C6D706918A7E
:10F86000BDDE83C6D70693E6860085BFB726002097
:10F8700037270020938786E0130687DE0346B6010C
:10F8800083C7D700938686E0130787DEB29793F786
:10F89000F70F7D466361F604A300F7008347170066
:10F8A000484B05463316F600A386F600698E05EE32
:10F8B00003C6160113080002814633F6C7028147CA
:10F8C000B355F500858993F8F70F99C96317D600EA
:10F8D000A300170182808117C1B7850693F6F60F42
:10F8E0008507E39F07FD8280B727002083A787B69F
:10F8F000011122CC26CA52C406CE4AC84EC656C2F0
:10F900005AC08297B7240020938784E08047014A39
:10F910006306A406B7270020138747B203076701D1
:10F92000938484E0138947B263550706018D372716
:10F930000020930787DE83C7A70113545500137A6D
:10F94000F501930987DE6368F402B70AC0A8370B94
:10F950004057293F83C6A9019C44139756003E9700
:10F9600083076901158C63C50700636357015A97C4
:10F9700098C4E370D4FE1604336A4401F240624432
:10F980005285D2444249B249224A924A024B056109
:10F990008280E37D85F8B707C0A83384874022952D
:10F9A00079B7B727002083A787B6411122C44AC080
:10F9B00006C626C2829737290020930789E0804730
:10F9C0006308A406B72700208387A7B3130989E03B
:10F9D00063D80704018DB7240020938784DE83C792
:10F9E000A70113545500938484DE6363F404BD3D82
:10F9F00083C7A401032789009396570036971D8C6F
:10FA00002324E900E375F4FE224403C51400B24048
:10FA10009244024981454101176306E06700E3CE45
:10FA2000E37A85FAB707C0A833848740229565B783
:10FA3000B24022449244024941018280B72700200B
:10FA400003A787E2B75702009387079F832607091A
:10FA5000139656006358060083260709139666001E
:0AFA600063440600FD17FDF38280E9
:10FA6C00B72700203727002083A747AC0327C7AB55
:10FA7C0001456313F700828083D6670081E683D645
:10FA8C00470036959C43F5B7B727002083A547B2AE
:10FA9C0037270020938747B2138605222322C7AC51
:10FAAC0003D74700938785FFB72600204111BA97EB
:10FABC00056523AEF6AA06C61D059356370063747A
:10FACC00E500930600203307D600372500202320BD
:10FADC00E5AC23A0E522E1162312D6002313060081
:10FAEC001CC3998FE1172312F700231307008D3FD6
:10FAFC00B240B72700202399A7AC41018280B727D9
:10FB0C000020B726002083A747AC03A6C6AB2A87E4
:10FB1C00B305B5406314F6003A8529A8938687008F
:10FB2C009C43E369D7FEE377F7FE2E85E3E4D5FE2D
:10FB3C00E3F2F5FE828023AC05FE1C4191E7010047
:10FB4C0001000CC18280BA8703A787FF6DFF23AC2D
:10FB5C00B7FE82801DC18346E5FF1307F00F914766
:10FB6C00639EE600411106C69700FB1FE780005814
:10FB7C00B24081473E854101828095473E85828017
:10FB8C0001E9014582800145B24022444101828055
:10FB9C0095654111938505D022C4C98D2A84210510
:10FBAC00C2054205C181418106C69700FB1FE78053
:10FBBC00A04771D9FD57232005002312850023038C
:10FBCC00F5002105D1B7411126C2B724002083A727
:10FBDC0084AC22C44AC006C60144014989E7A16528
:10FBEC000D2D15C401A803C7E7FF6319A70205CCA7
:10FBFC00A1658D2603A784AC832784FF6317E402D9
:10FC0C0023A4F4ACFD57232C04FE230FF4FE228511
:10FC1C00B2402244924402494101828011E03E8963
:10FC2C0083A787FF65BF3E84E5BF232CF9FED9BFB0
:10FC3C00B1CDB727002083C7D7AC411122C406C66B
:10FC4C002A842E856375F400894763E88700193789
:10FC5C000D45B24022444101828083A785FF99E77C
:10FC6C0003C7E5FF9307F00F6305F700E53515456E
:10FC7C00CDB737250020238F85FE130585AC653D58
:10FC8C0022852244B240A1654101E9A41545828038
:10FC9C00B727002023A407AC8280B727002083A7B6
:10FCAC0007B299E33E85828003D727006316B7001D
:10FCBC0003C70700E308A7FEDC47E5B7BDCD7971A4
:10FCCC0022D406D626D24AD04ECE01444147B3D7D1
:10FCDC008540858BB1CF1205314722953305E5025E
:10FCEC00B727002003A907B68544B3948400C20447
:10FCFC00C180BE892A990327090011C70325490031
:10FD0C002EC60297B24531473304E40283A709B6E5
:10FD1C003E941C4489E72320090023220900B25099
:10FD2C002254A58D02599254F2492E854561828048
:10FD3C000504E31EE4F88144DDB72E858280411171
:10FD4C001397050122C406C626C24AC041872E84D9
:10FD5C00635E07008D3D11C1F53BA1673D8C22858B
:10FD6C00B24022449244024941018280EDD9AA87D3
:10FD7C0001474146B356E440858A9DCA9207BA971B
:10FD8C00B146B387D702B726002003A906B685442F
:10FD9C00B394E400C204C1803E9983270900032573
:10FDAC00490082972320090023220900258C45BF96
:10FDBC000507E311C7FC8144D5BFB727002083A7F3
:10FDCC0047B4411122C406C6372400201304048F03
:10FDDC0091C782971C403E9508C031A0B7270020E0
:10FDEC0083A787B6FDF70840B74703009387D73F33
:10FDFC003305F502B7A72600938737ECB2403E9542
:10FE0C0008C02244410182800111680006CE22CC38
:10FE1C0026CAEF10917CFD57630BF50C372400209C
:10FE2C00930644B283C756013247130444B263F5B8
:10FE3C00E70AB72400209384C4AC98483706C0A8BE
:10FE4C00630BC702B727002083A787B68297324778
:10FE5C009C486373F700BA8703475401998F3E950A
:10FE6C008307640163CE0700B707C0A8636AF50077
:10FE7C00B70740579DA88386660163D406061D8D7F
:10FE8C0037240020930784DC9C4F130484DC99CB2B
:10FE9C00B727002083A687E23707CDFF7D179C4646
:10FEAC00F98F9CC619E13705C0A8B727002083A796
:10FEBC0087B4829719E51C4C85C3EF70C156EF606F
:10FECC00D1471C4C91CBB727002003A787E2B7067C
:10FEDC0033001C47D58F1CC7F2406244D2440561E5
:10FEEC008280E37EF5F8B307F7403E9551BF372487
:10FEFC0000201304C4AC1C48B704C0A8E38E97FCC4
:10FF0C00B727002083A787B68297372700201307CF
:10FF1C0047B2834657011C48958F3E95830767016E
:10FF2C00E3C007F6E36E95F4A1B7B727002083A7CB
:10FF3C0047B6411122C406C6372400201304C4ACB2
:10FF4C0089C782975C483E9548C84848B2402244CD
:10FF5C0041018280B727002083C7D7AC6370F502BC
:10FF6C0037270020931715000325C7B13E958357FB
:10FF7C000500DD8D2310B500014582800D45828082
:10FF8C00B727002083C7D7AC6372F5023727002050
:10FF9C00931715000325C7B193C5F5FF3E958357FD
:10FFAC000500FD8D2310B500014582800D45828032
:10FFBC009307F00263E1A70A31463306C502B7275F
:10FFCC00002083A607B62A870945B2969C42D1C762
:10FFDC00011122CC4EC60544935947003D8B331773
:10FFEC00E40013140701418026CA4E85AE84A28515
:04FFFC004AC806CE1B
:020000025000AC
:100000005D312A89014563070904A2854E85BD3FFC
:10001000B727002083A787B68297B727002083D70A
:1000200047AF13070064B387970293870732B3D7AC
:10003000E7023E95B72700208387A7B363C907006F
:10004000B707C0A86365F500B70740573E9523245E
:10005000A9000145F2406244D2444249B2490561D7
:10006000828009458280828001114EC6B729002016
:1000700006CE22CC26CA4AC852C49389C9AC83C7CB
:100080001900636BF5000145F2406244D2444249D5
:10009000B249224A05618280B727002083A787B62C
:1000A000FDD3328A2E89AA84829703D489029307CA
:1000B000006433044403130404323354F402B727B6
:1000C0000020138747B203076701938947B22A9438
:1000D00063490700B707C0A86365F400B707405736
:1000E0003E94CA852685C13601C500C5054569BF50
:1000F00093E504F0C205C18141459700FB1FE780ED
:1001000060F301E983A70903BDDFA6851145829746
:100110009DBF37270020832707B28DE32320A7B296
:1001200085472326050000C52311250123009500DE
:10013000A300F5002322050055BFBA87D84775FFF5
:10014000C8C7F9BF41C9797122D426D24AD04ECE50
:1001500052CC56CA5AC85EC662C406D6B689B28A9E
:100160002E8A2A899304000C4144372B0020054C29
:10017000930B000383270BB6A6979C43A1E79375C7
:10018000F400B315BC00C2055686C1811355440066
:10019000E13D0DC983270BB60145BE9423A0240180
:1001A00023A244016384090023808900B2502254B1
:1001B00092540259F249624AD24A424BB24B224C03
:1001C0004561828005041374F40FB104E31474FBD9
:1001D0002145E9BF09458280411122C426C24AC097
:1001E00006C6AA842E8932844135CA852685653C97
:1001F0000DC5B727002003D647AF93070064330629
:100200008602130606323356F60250C10145B2404B
:10021000224492440249410182802145CDBF4111CF
:1002200022C426C24AC006C62A892E84AD3CAA84AE
:1002300019C123110500A2854A85893BB7270020F3
:1002400083C7C7AC63992701B727002003D787B1BD
:10025000598C239C87B0014591E01945B240224456
:1002600092440249410182809307F00263E8A704A7
:100270004111B14722C43304F50226C2B72400203D
:1002800083A704B606C6A2979843894715C39377F8
:10029000F5008545B395F500C205C181118141374F
:1002A00083A704B6A29723A0070023A207008147D3
:1002B000B240224492443E854101828089473E8576
:1002C0008280411106C622C4F93A11E50145B240C7
:1002D000224441018280B727002083A787B60045CA
:1002E0008297B72700208387A7B363D1070233051E
:1002F000A440E34D05FC930700643305F502B727DE
:10030000002083D747AF3355F502D1B7E371A4FE80
:10031000B707C0A83E94E1BF4111B727002006C629
:1003200023A2A7B60295B240B727002023A2A7AE0A
:10033000014541018280994763E9B700B727002052
:100340008A059387C7AFBE9588C182803725002074
:100350004111714681451305C5AF06C622C426C2A8
:10036000372400209700FB1FE78000EA1306C00235
:100370001305C4AC81459700FB1FE780E0E8EFF070
:100380006FF1B727002023A007B2B727002023A2D0
:1003900007B6B727002083C7B7B31304C4AC85459D
:1003A00013D527008D8B3E958D473305F502994770
:1003B000B724002039051375F50F2301A400330578
:1003C000F502130505249700FB1FE780A0C6B72799
:1003D000002023A0A7B6834724001305052423ACDF
:1003E000A4AE8A073E95B727002023AEA7B07D3084
:1003F00019218347140083A684AF3706050013979D
:1004000027003697130686CC10C31387170013777F
:10041000F70F0A073706050036971306A6D410C350
:1004200013873700890793F7F70FA300E400B24062
:1004300022448A07B69790C39244410182803727AD
:1004400000201307C7AC834717008346270063F0DB
:10045000D702B726002083A686AF13861700A30015
:10046000C70013972700369708C33E8582809307FD
:10047000F00FE5BF1C41638F071041777D8FB706F2
:10048000002089476319D7100357450063050710FB
:10049000411126C21946AA849305F00F690506C6C4
:1004A00022C44AC09700FB1FE78000E005478D4744
:1004B000630BE50C37290020930749B29C471304CE
:1004C00049B291C7585899475DEF185C4DEF130634
:1004D000C0038145130549B29700FB1FE780C0D2D6
:1004E0001306C003A685130549B29700FB1FE780DA
:1004F00020CE8357C40089E7930700102316F40029
:100500008347E40081E785472307F400835704010C
:1005100081E7ED472318F4008347F40081E795470E
:10052000A307F4008347240181E785472309F400EA
:100530008347340189E78347F400A309F400834724
:10054000440181E7B547230AF4008347940189E712
:1005500093078002A30CF4008347540189E79307B3
:10056000D002A30AF40083C7840189E79307C0037C
:10057000230CF4001C5491C78297B7270020239ABC
:10058000A7ACE9338147B2402244924402493E85F8
:100590004101828089473E858280B727002083A75A
:1005A00087B6411106C6829793070064B307F50228
:1005B000372700209306C7AC03D68602944E014528
:1005C000B3D7C702638FF6001307C7AC3385D74094
:1005D00063E8F600370500B03355C502158D3E952A
:1005E0001CCFB24041018280011122CC2E84B7F58C
:1005F00006000A8541469385C5F706CEEFE0B10CAB
:10060000180806043A94B7270020035504FF83D73F
:1006100067AFF2406244AA9737450F0013050524DF
:100620003355F50205618280B727002083D767AF75
:1006300051471D45637CF702794719456378F702F6
:100640001307200315456373F7021307B004114520
:10065000637EF700130740060D456379F700130723
:10066000600909456374F70013B5B70F8280011163
:1006700022CC06CE2A842EC6EFF0EFF4B245F2402B
:10068000818D33A5A502229562441375F50F05618E
:100690008280011122CC06CE2A842EC6EFF0AFF262
:1006A000B245F240818D33A5A502229562444205F0
:1006B000418105618280011122CC06CE2A842EC69A
:1006C000EFF06FF0B245F240818D33B5A50222956F
:1006D000624405618280B7270020138747B218570C
:1006E0002DC3411122C426C24AC006C6138947B28F
:1006F0000297B72700201387C7AC035787002A84C7
:100700009384C7AC0DCBBA876373A700AA87C207CF
:10071000C183BA866373E400A286C206C182958F44
:100720005147635AF7008327C90291C38297EF604C
:10073000113D23948400B240224492440249410175
:1007400082808280B7270020138747B25857011153
:1007500022CC06CE138447B201C72AC6029732457F
:10076000B72700209387C7AC3727002015C1B7866D
:100770003200938626A194D72324A7B63705050017
:100780001305A559513EF24062440145056182803E
:100790008346640113968601618663550602B78617
:1007A0003200938626A123AE070094D7B7C7004036
:1007B000FD5623A4D726B70700209387C75C2324C0
:1007C000F7B66DBF13F6160019CAB78620039386D5
:1007D00006D094D7B70700209387E75FCDB761763F
:1007E0002394C70291C6930600322395D702DDB742
:1007F00093062003DDBF011122CC3724002093078C
:1008000044B2884706CE26CA4AC801E90545F240E7
:100810006244D244424905618280130444B25C5868
:10082000F5D7185C65D77000854582971844B247A4
:10083000E30EF7FC0355C4009305E004B724002041
:1008400097F0FA1FE780007F1387C4AC08D3938426
:10085000C4AC4DDD0356C4009305F00F0149970069
:10086000FB1FE780609A8347E4009050634DF900D6
:1008700032859700FB1FE7802088014523A00402F2
:1008800023A2040269B78355C4000844185CB387E7
:100890002503898105093E9508C20297E9B74111F0
:1008A00022C437240020930744B29C4726C206C6C0
:1008B000B72400204AC09384C4AC91EB88503DE13A
:1008C000B24022449244024901454101828013040E
:1008D00044B21C5CE5D79C5091EB0355C4009305D2
:1008E000E00497F0FA1FE780E07488D0885079D54B
:1008F0000356C4009305F00F01499700FB1FE780E2
:10090000A0908347E4009050E35AF9FA8355C4005D
:100910001C4433852503898105093E951C5C08C26A
:100920008297C5B797F0FA1FE780007D23A00402E5
:1009300023A2040271B701114EC6B7290020938784
:1009400049B29C4726CA4AC852C406CE22CC56C2D7
:100950005AC02A8AAE843289638C071E938949B2B1
:1009600003A74903630207127D476361A712372477
:1009700000201307C4AC832A07021304C4AC639A93
:100980000A0803D5C9009565938515E097F0FA1F0D
:10099000E780406A08D02A8665C983D5C90083A745
:1009A000490303A589008981829783A78900832A47
:1009B00004025CD089476316FA08C1476396F40CB9
:1009C00083D5C9009147938505FCB3C5F5028A0517
:1009D000D69503C705009307A0056313F70A83C7DD
:1009E0001500639F47094A852686910597F0FA1FEF
:1009F000E780007E1C505685639357130145F240F3
:100A00006244D2444249B249224A924A024B0561A9
:100A100082805850E380E7FA03D5C9009565938535
:100A200025E097F0FA1FE780E060AA8A31CD83D5F0
:100A3000C9002A8683A7490303A589008981829773
:100A400095BF8D47631BFA00C147639FF40283D5AE
:100A5000C900938545FDF199A5BF91476318FA0038
:100A60006394440383D5C900A115F5B7C147631D3D
:100A7000FA00A14763EA970083D5C900C115E1BF19
:100A80001C5056856391570D294595BF1307F006F5
:100A9000636CA708930A05FE1947B3CAEA0203D795
:100AA000C900372B0020B38AEA02BE9A9307CBAC69
:100AB000DC53130BCBAC6395570103240B021DE0F1
:100AC00003D5C9009305E00497F0FA1FE78080562C
:100AD0002A845DD983D5C90083A749032A868981E1
:100AE0005685829791451307A00589819397250024
:100AF000A29783C607006393E60483C61700639C2E
:100B0000460385058A052686A2954A8597F0FA1F31
:100B1000E780006C83270B02E38287EE228597F043
:100B2000FA1FE780605DD9BD1307E007E36EA7F405
:100B3000930A05F9ADB783D5270045BF83270B027C
:100B4000E38487F4228597F0FA1FE780E05A2DBFEF
:100B5000B727002083A5C7AE85D991479306A00586
:100B60008983139727002E9703460700E31ED6F0CC
:100B700003461700631C460185078A072686BE9533
:100B80004A8597F0FA1FE780A0648DBD8357270040
:100B9000C1BFB7270020938747B2984729C3985F02
:100BA0001DCF8546631DD502411122C43724002084
:100BB0001304C4AC105006C619CE83D5C7004850E4
:100BC00089810297085097F0FA1FE780E0522320AE
:100BD000040223220402B240224441018280828026
:100BE000011122CC37240020930744B256C283AAB5
:100BF000870026CA4AC84EC606CE52C42A89AE8489
:100C0000B289130444B2638B0A1C1C5C99EB29451E
:100C1000F2406244D2444249B249224A924A0561B2
:100C200082805C58EDD7FD4763E7A70C372A002088
:100C30009307CAAC9C53130ACAACB9C708448327AC
:100C40004A02639FA70489476317F906C147E390E7
:100C5000F4FC0355C4009147130505FC3345F50228
:100C60009317250003250A022686CE853E95930715
:100C7000A0052300F500A3002501110597F0FA1F38
:100C8000E7800055014569B70355C4009305E004AA
:100C900097F0FA1FE780003A2320AA0245F185BFAA
:100CA0008355C4005C5803260A02898182971C443C
:100CB0002322FA0249BF8D47631CF900C147E3981C
:100CC000F4F40355C400130545FD9377C5FF59BFE0
:100CD00091476318F900E39C24F30355C4002115E0
:100CE000EDB7C147E315F9F2A147E3E297F20355E7
:100CF000C4004115D9BF9307F00663E9A70693071F
:100D000005FE1947B3C7E7020357C400372A00207E
:100D1000B387E702BE9A9307CAAC9C53130ACAACC6
:100D2000A9CF83274A026396570703250A029146F3
:100D30001308A005FD5593D72600C207C18313975A
:100D400027002A9703460700631406078348170005
:100D500003562700639C2805B306D64063C6960455
:100D600085078A072686CE853E9509BF9307E0074B
:100D7000E3EFA7E8930705F941BF0355C4009305C6
:100D8000E00497F0FA1FE780E02A2320AA0251F935
:100D9000BDBD8355C4005C5803260A02898156856F
:100DA000829723225A0351B7A300B700B28661B7D6
:100DB0000356C400B38596009105130606FCE3F8BC
:100DC000C5E4138634001376C60F1106B2962300CD
:100DD0000701A30027012311D70059B7372A0020A4
:100DE0009307CAAC9C53130ACAACA1C303250A02D9
:100DF00091461308A005FD5593D72600C207C1836D
:100E0000139727002A9703460700631206058348B5
:100E100017000356270063982801B306D640E3D194
:100E200096F4A300B700B286C1BF0345E400835720
:100E3000C4009305E0043305F5024205418197F0B3
:100E4000FA1FE780201F2320AA024DF1C9B30356E1
:100E5000C4008345E400B385C502338696001106BD
:100E6000E3E7C5DAB9BF0145828083C705002300E7
:100E7000F50083D72500A300F50083D72500A183C3
:100E80002301F50083C74500A301F50011458280C9
:100E9000B727002023A60792B727002023A4079294
:100EA000828029C1411126C206C622C4AA840145F6
:100EB0008DC52E84B7F50600228541469385C5F879
:100EC00097F0FA1FE780C03083C70400054523066A
:100ED000F40083C71400A306F400B24022449244F5
:100EE0004101828001458280011122CC26CA06CEB2
:100EF0000947AA8432846381E50441468147639BA4
:100F0000C500638FE6006397B6000DA8414781478F
:100F1000638EE600F2406244D2443E8505618280E1
:100F20008A852285BD3F41468A8519A88A85953FD5
:100F300041468A85228531A0E39AB6FC2E86A28599
:100F4000268597F0FA1FE7808031AA87E1B7B72797
:100F5000002023A4A7928280B727002023A6A7926F
:100F60008280011122CC0354650006CE26CA4AC8ED
:100F70004EC641C083298500AE842A8803C9090072
:100F8000814713178901618763550702B1470545FA
:100F900063FA8704511442040355280041803387C3
:100FA0008900A2864E868545EFD06045B337A00004
:100FB00085077D1413556900420405891379F903E7
:100FC00041802380F400A380A40023812401239284
:100FD0008400014719C01387190098C40947638327
:100FE000E7000145F2406244D2444249B2490561FA
:100FF00082800545C5BFC167F917630AF502D94765
:1010000063F7B702011122CC2EC606CE2A84EF90D8
:10101000400CB2456368B50022856244F240056128
:101020006FA0702AF2406244054505618280054543
:101030008280C167F9176314F5006F908009411130
:1010400006C6EFA0101711E15D45B2404101828054
:1010500091476394F502834705002300F600834718
:10106000250003471500A207D98F2311F6008347F7
:10107000350001452302F60082801145828041112E
:10108000814522C426C206C6AA8405252A8409E908
:10109000B727002083A7879281C7F94526858297C5
:1010A0002285B240224492444101828039714ED659
:1010B00056D25AD006DE22DC26DA4AD852D4AA8A80
:1010C0002E8BB28941EF36C6AD379145EF90201295
:1010D000AA844D492DC9B246054A238034010544EE
:1010E000630A0B00B68513851400029B05051314D3
:1010F00005014180E20993D9894163D30902C145C1
:101100005685EFA05019654905E933868400A2850C
:101110002685EFC010702A8905E131044204418020
:1011200091472C085685231CF10026CE231D8100F3
:10113000EFA0E0222A8901C963070A00268597F0FB
:10114000FA1FE78060FBF25062544A85D25442593C
:10115000B259225A925A025B21618280BA84014AB2
:10116000ADBF011122CC26CA4AC84EC606CE2A8976
:101170003284B689253FAA840DE1B727002083A7D2
:10118000C79281CF05476317E40003C40900050433
:101190001374F40FA2854A858297F2406244268533
:1011A0004249D244B24905618280AE86B715050036
:1011B000014705469385A5E66DB783D70500230053
:1011C000F50083D70500A183A300F50009458280BF
:1011D00083D705002300F50083D70500A183A30072
:1011E000F50083D725002301F50083D72500A183CF
:1011F000A301F5001145828083D705002300F50087
:1012000083D70500A183A300F50083D72500230120
:10121000F50083D72500A183A301F50083C75500FE
:101220002302F50083C76500A302F50003D58500FE
:10123000190542054181828083D705002300F5000E
:1012400083D70500A183A300F5000945828083D7D9
:1012500005002300F50083D70500A183A300F50056
:1012600083D725002301F50083D72500A183A3019F
:10127000F5001145828003D54500060542054181F0
:10128000828083D705002300F50083D70500A18362
:10129000A300F50003D525000905420541818280A0
:1012A00083D705002300F50083D70500A183A300A1
:1012B000F50083D725002301F50083D72500A183FE
:1012C000A301F50003D54500110542054181828047
:1012D00083C705002300F5000545828083D70500FC
:1012E000411122C406C62300F50083D705002E84D1
:1012F0001105A183A30EF5FE83D725009505230FC5
:10130000F5FE83D7D5FFA183A30FF5FE03C6F5FF36
:1013100097F0FA1FE780C0EB03454400B240224437
:101320001105410182808947639CF50083471500C0
:10133000034705000145A207D98F2310F6008280DC
:101340001145828003D70500D94763FEE7020111EA
:1013500022CC06CE2EC62A84EF80B057B24683D761
:101360000600636DF50022856244F240B715050062
:10137000014709469385A51B05610DBBF2406244F8
:101380000945056182800945828091479DC5834654
:101390000500FD15C2058547C1816392F60213D78A
:1013A00025008D89914791E9914701CB05052301DE
:1013B000D6002310E60048C281473E858280094757
:1013C0009147E39CE6FEC94733D7F502B3F5F50232
:1013D000D1BFAE86B7150500014711469385051D9F
:1013E000F1B193F7350091EB8981914789C52310BD
:1013F000B60048C281473E8582809147EDBF03C752
:1014000045008947631AF702011122CC2A84C84596
:1014100006CEAE86014719C52EC69D45EFE0EFEE1C
:10142000B2462A8722856244F240B7150500194664
:101430009385851F05619DB90945828099E1114514
:1014400082808347050005472311F600E379F7FE04
:10145000FD1593F5F50F33D7F502B387E702E39057
:10146000F5FE050548C22310E6000145828083C7CA
:1014700045000947AE866385E70041476399E70069
:10148000B7150500014721469385C52D05B10945CE
:1014900082802310B60091E1014548C20145828057
:1014A000AE86B71505000147294693858523FDBE05
:1014B0002310B60091E1014548C201458280AE8605
:1014C000B7150500014731469385E524C5B62310BD
:1014D000B60091E1014548C20145828003D745002D
:1014E000854763FDE702011122CC2A84884106CE9C
:1014F0000DC12EC68545EFE04FE12A872285624463
:10150000B246F240B7150500394693856527056157
:1015100071BEF240624409450561828009458280BE
:1015200091479DC5034705008D46914763F2E6024A
:10153000FD15C205C181B3C6E5023308D702639920
:10154000050105052310D6002311E60048C2814796
:101550003E85828083C745000947AE866385E700E4
:1015600041476399E700B715050001474146938558
:10157000C52D2DBE09458280B335B00013952500D9
:101580008280011122CC26CA06CE03C7850085477A
:10159000AA842E8449466310F702613C83572400D5
:1015A00049151306200963C8A700F2406244D244DB
:1015B0000945056182800347940085476314F7005D
:1015C00013660604484011C58D4532C6EFE0EFD3DF
:1015D0003246A2866244F2402A872685D244B71555
:1015E0000500938525280561D1B48D4763FFB702B7
:1015F0008347150003470500F115A207D98F231073
:10160000F6008347350003472500C205A207C181C4
:10161000D98F2311F6002312B60089C5110508C61B
:101620000145828023240600E5BF11458280011117
:1016300022CC2A84884506CEAE8611C52EC6954595
:10164000EFE0AFCCB2462A8722856244F240B7155C
:10165000050059469385052A056189BCB335B0005C
:10166000139525008280AE86B715050001476146B7
:101670009385052D25BC8547114563F4D702834723
:10168000160083450600A207CD8F2310F70093872D
:10169000E6FF2311F70089476386F600090650C369
:1016A0000145828023220700E5BF01478146794634
:1016B0008145EDBA83D705002300F50083D70500E7
:1016C000A183A300F5000945828083C72500054753
:1016D0002300F50003D505006397E7000A0505051B
:1016E000420541818280C9473305F502CDBF03D54C
:1016F00005000A0542054181828083D72500230029
:10170000F50003D5050083D725003305F50205054F
:1017100042054181828003D50500828003D5050002
:10172000828003D50500828083D725002300F50041
:1017300003D5050083D725003305F50205054205CD
:101740004181828083D705002300F50083D70500FF
:10175000A183A300F50083D725002301F50083D7DB
:101760002500A183A301F50003D54500110542051D
:101770004181828083D705002300F50083D70500CF
:10178000A183A300F50003D5250009054205418189
:10179000828089471145639BF60083471600834684
:1017A00006000145A207D58F2310F700828003D7DA
:1017B0000500D947AE8663F9E700B7150500014774
:1017C0000D469385456B71BA094582801145639337
:1017D000A60283471600834606000145A207D58F5F
:1017E0002310F7008347360083462600A207D58FD3
:1017F0002311F700828083C725000547FD1793F763
:10180000F70F6361F70483D705008DCF011122CC58
:101810002A84C84106CE15C12EC68945EFE0EFAE39
:101820002A8722856244B246F240B7150500154664
:101830009385A56C05616FF0DF92F2406244094523
:1018400005618280094582809547114563F9D70675
:10185000411122C426C24AC006C683471600BA8474
:1018600003470600A2073284D98F2390F4008347F0
:1018700036000347260093054400A207D98F239121
:10188000F40089472382F400094613855400368901
:1018900097F0FA1FE780C0939307A9FF2394F40001
:1018A0009947631BF90023A60400B24022449244E6
:1018B00002490145410182801904C0C4FDB78280FC
:1018C00083D705008DCF011122CC2A84C84106CED2
:1018D00015C12EC68545EFE04FA32A8722856244B5
:1018E000B246F240B71505001D469385E56E0561C9
:1018F0006FF03F87F24062440945056182800945E7
:10190000828099476395F6048947411106C62302F0
:10191000F7008347160083460600B285A207D58FDD
:101920002310F7008347360083462600034647000E
:10193000A207D58F130557002311F700910597F0E3
:10194000FA1FE780E088B240014541018280D1471B
:1019500011456394F600C1474DBF828083D70500CF
:101960008DCF011122CC2A84C84106CE15C12EC6C6
:101970008945EFE08F992A8722856244B246F2407A
:10198000B715050025469385A56F05616FF06FFDBE
:10199000F240624409450561828009458280894799
:1019A0001145639BF60083471600834606000145F8
:1019B000A207D58F2310F7008280011122CC2A8440
:1019C000C84106CEAE86014719C52EC68545EFE053
:1019D000CF93B2462A8722856244F240B7150500AC
:1019E0002D469385657105616FF0AFF711456393DF
:1019F000A60283471600834606000145A207D58F3D
:101A00002310F7008347360083462600A207D58FB0
:101A10002311F7008280011122CC2A84C84106CE0E
:101A2000AE8611C52EC68545EFE02F8EB2462A87B9
:101A300022856244F240B715050035469385C5718D
:101A400005616FF00FF293F71600114589EB894796
:101A50006387F60085822312D70010C30145828078
:101A6000011122CC2A84C84106CE15C12EC6854557
:101A7000EFE0AF892A8722856244B246F240B7156B
:101A800005003D469385257205616FF08FEDF240AC
:101A9000624409450561828083D705008DCF01111D
:101AA00022CC2A84C84106CE15C12EC68945EFE056
:101AB000CF852A8722856244B246F240B7150500D9
:101AC00045469385857205616FF0AFE9F240624447
:101AD00009450561828009458280854763FCD702FC
:101AE0002304A700A304B70083471600834506001C
:101AF000A207CD8F2310F7009387E6FF2311F7008D
:101B000089476386F600090650C301458280232277
:101B10000700E5BF11458280014781464D4681455A
:101B20006FF02FE48D47114563FBD7028347160002
:101B300083450600A207CD8F2310F70083473600A8
:101B400083452600A207CD8F2311F7009387C6FF98
:101B50002312F7006386A600110610C70145828094
:101B600023240700E5BF011122CC2A84884506CE34
:101B7000AE8611C52EC69545EFD03FF9B2462A87ED
:101B800022856244F240B71505005D469385457491
:101B900005616FF00FDD854711456397F6008347B8
:101BA000060001452300F700828001478146654613
:101BB00081456FF00FDB011122CC2A84C84106CE8B
:101BC000AE86014719C52EC68D45EFD01FF4B2462B
:101BD0002A8722856244F240B71505006D46938539
:101BE000457705616FF08FCC011122CC2A84C84162
:101BF00006CEAE86014719C52EC68D45EFD0FFF043
:101C0000B2462A8722856244F240B7150500754620
:101C10009385457705616FF06FC9011106CE2EC619
:101C2000EF90505501C9B245F240035525000561BA
:101C30006FD0A033F240494505618280B72700206C
:101C4000A38C0794B7270020238C0794B727002084
:101C500023A00794B727002023A20794B7270020CA
:101C600023A40794B727002023A60794B7270020B2
:101C700023AE0792B727002023AC0792B727002096
:101C8000239607B8130640389387C7B82391C70235
:101C900071761307400B130606B82391E7002392D1
:101CA000C70211671D46930600059305000A130538
:101CB000007D2392E7002393C7024147054613089E
:101CC00010F82395E7002396E7002399E700239A6D
:101CD000E700239BE700239CE7002394E702239679
:101CE00007032393B7002394B7002397D7002398C3
:101CF000D700239DA700239E0700239F0700239062
:101D000007022395C702239707021308F0072398B9
:101D100007022392E7042393E704239FE704239019
:101D2000E7062391E7062392E706239907031307A3
:101D3000C01C239AC702239BC702239C0702239D32
:101D40000702239E0702239F070223900704239183
:101D5000C70423940704239507042396C7042397F5
:101D6000D7042398D7042399A704239A0704239B15
:101D70000704239C0704239DD704239ED7042393A1
:101D8000A70623940706239507062396070623979D
:101D9000B7062398B70623990706239AE7067D57C7
:101DA000239B0706239CE7068280011126CAAA848A
:101DB000214522CC06CE2E8432C636C43AC2EFD09C
:101DC000FFDC1DC9A24612473246930700FD2300DF
:101DD000F5009947A30095002301F5002303D500E2
:101DE000A303E5002312C500AA8522856244F240C0
:101DF000D24405616FD09FE4F2406244D244056151
:101E00008280B727002023A0A7948280B7270020D4
:101E100023A2A7948280B727002023A4A7948280BE
:101E2000B727002023A6A7948280011122CC4AC89C
:101E300006CE26CA2A890144B30489006368B40027
:101E4000F2406244D2444249056182802EC6EFD0FE
:101E50009FF793170501C183A183B2452380F40046
:101E60009307140093F7F70F850463F9B700CA9737
:101E700009042380A7001374F40F7DBF3E847DBF47
:101E8000411122C4372400201304C4B60355640052
:101E9000C16706C6FD17630FF500B727002003C60C
:101EA00047C9B725002093850595EF90500DFD5744
:101EB0002313F400B24022444101828009C9251550
:101EC0001375F50F1335850E1345150082800145F6
:101ED000828023900500C9C6797122D426D24ECEC5
:101EE00052CC5AC806D64AD056CA5EC63684328A02
:101EF000AE892A8B814463F34407B307940083C7F8
:101F00000700138914004209939A070193DA0A0122
:101F10001359090163840A04CA976341FA04B30799
:101F2000240183CB07005E85513F0DC99387FAFFDB
:101F30002390F90063906B03130519002295B250AA
:101F4000225492540259F249624AD24A424BB24B4D
:101F500045618280D694C204C18071BF0145C5B776
:101F600001458280011122CC3724002026CA4AC8AC
:101F70004EC69307C4B606CE2E89D0CB8CCBC8C72D
:101F8000AA8441469305F00F4A8597E0FA1FE7803F
:101F9000A03185491304C4B6631935030848C14507
:101FA000693541469305F00F268597E0FA1FE780D3
:101FB000A02F05496315250348446244F240D244EA
:101FC0004249B249C14505618DB5414681454A85C1
:101FD00097E0FA1FE780402DE31535FDC1B7414674
:101FE0008145268597E0FA1FE780002CE30625FD52
:101FF000F2406244D2444249B249056182804111B3
:1020000022C43724002026C24AC0AE842A8913067F
:10201000000281451305C4B606C697E0FA1FE780A3
:10202000A01E9307C4B6A3812701B7270020238CE5
:1020300097C8EFC0D075854719C181474945230628
:10204000F4B6B24022449244024941018280814761
:1020500081CD19C98547631BF50083C7550093E7F8
:1020600007FCA382F50085473E8582808947631778
:10207000F50083C7550093F7F703E5B70D4785478C
:10208000E314E5FE03C755001377F703136707044E
:10209000A382E500D1BF81478DC105C103C75500AB
:1020A0009306000C85471377070C6308D700930647
:1020B00000048D476303D70089473E858280411124
:1020C00022C4005D06C626C21DC8AA84085009C5E0
:1020D00097E0FA1FE7804002485009C597E0FA1FD1
:1020E000E7808001085409C597E0FA1FE780C00027
:1020F000228597E0FA1FE780200023AC0402B2405B
:10210000224492444101828019E9B727002083C705
:10211000E7B691C737250020130505938280372540
:102120000020130545B88280B727002003C5E7B615
:102130008280B727002003A587B78280B7270020B9
:1021400003A5C7B78280B727002083A707B88843B5
:102150008280B72700209387C7B6D44B98420507E3
:1021600098C203C537009307F00F6305F50091652A
:102170006FD01FDF8280011122CC06CE2E8432C6A2
:10218000EF90F00F9147B2456310F502B72700209A
:1021900083A7C79495C303A30700630F0300228599
:1021A0006244F24005610283B727002083A7479469
:1021B00081C703A34700D5B7F240624405450561D6
:1021C0008280011122CC2A840355450006CE26CAFE
:1021D0004AC84EC6EF90C0683DC92A8983440500AD
:1021E0008349C500E93D4A85EFA0E06903554400F5
:1021F000EF9030043729002013098995834709009F
:10220000B9CB639A9704B727002083C59795268595
:10221000293419E12300090003554400EF903006EA
:102220009147631FF500B72700209387C7B68356F1
:10223000440003D767006395E6007D572393E700CA
:10224000F2406244D2444249B249056182808149E8
:102250009304F00F45B79307F00FE38FF4FA83462A
:10226000640003564400034524004E87A685353E8E
:1022700065B779715EC6AA8B2E8552CC56CA5AC8EC
:1022800006D622D426D24AD04ECEAE8A328B368A99
:10229000EF90005D7DC1045D2A89E5C09C506145D9
:1022A00099C3130540039C5481C7510542054181E0
:1022B00063050A00710542054181DC5081C759055B
:1022C00042054181EFD09F8C2A8445C961468145F2
:1022D00097E0FA1FE78040F3B727002083C9C7BB08
:1022E0006394090083490900930700FD2300F4006B
:1022F000A947A30074012301F400230364018C5057
:10230000231254011305840191C908C47146930A2C
:10231000440397E0FA1FE780A0EB56858C5491C9DF
:1023200048C45146930A450197E0FA1FE78040EA06
:102330005685630C0A0008C87146D285930AC50108
:1023400097E0FA1FE780C0E85685CC5099C548C889
:10235000594697E0FA1FE780A0E7A2854E85EFD0A7
:10236000FF8D2254B2509254F249624AD24A424BF3
:10237000B24B4A850259456199B3B25022549254E6
:102380000259F249624AD24A424BB24B45618280BD
:1023900001114EC6AA892E854AC806CE22CC26CA6D
:1023A0002E89EF90E04B21C9B727002083C4C7BB1B
:1023B00099E0834405001945EFD04FFD2A8405CDEF
:1023C0008145194697E0FA1FE78000E4930700FD76
:1023D0002300F400B947A30034012301F4002312C1
:1023E0002401A2856244F2404249B2492685D24482
:1023F00005616FD0BF84F2406244D2444249B24981
:102400000561828039715ECEAA8B2E8526DA4ED682
:1024100052D456D25AD006DE22DC4AD8AE84328B51
:10242000B68A3A8ABE8942C6EF90804321CD2A8976
:102430004145EFD0AFF52A8431C54146814597E04B
:10244000FA1FE78060DCB727002003C5C7BB19E18E
:1024500003450900930700FD2300F400BD47230155
:10246000F400B247A3007401231294002304640112
:10247000A304540123054401A30534015CC4A285CF
:10248000EFD0CFFBF2506254D2544259B259225A83
:10249000925A025BF24B21618280797126D2AA8422
:1024A00039454AD04ECE06D622D42EC6B2893689B8
:1024B000EFD0CFED21C1B2459307000D2310F500F9
:1024C000B1472A842312B5002301F500CE851905F2
:1024D000194697E0FA1FE780A0CF23062401A285C2
:1024E0002254B2500259F24913F5F40F9254456147
:1024F0006FD0CFF4B250225492540259F249456140
:102500008280411126C2B72400209384C4B603C739
:10251000340006C622C44AC09307F00F630CF704C8
:102520002A893945EFD08FE62A8429C5930700FD13
:10253000B72500202300F500A30025012301050095
:10254000938545B80D05194697E0FA1FE78040C806
:1025500083D78400A28503C534002315F40083C704
:1025600014002306F4002244B2409244024941017F
:102570006FD0CFECB24022449244024941018280A4
:1025800001115AC02A8B314526CA4EC652C456C2C2
:1025900006CE22CC4AC8AE84B28A368ABA89EFD037
:1025A000EFDE3DCD2A842685EF90802B11C50347B1
:1025B000C500A1476314F704B727002003C9F7B685
:1025C000930700FD2300F4009D47A300640123014D
:1025D000F4002312940023135401231444012315FF
:1025E0003401A2856244F240D244B249224A924A5E
:1025F000024B4A85424905616FD04FE4B72700205E
:1026000003C997C9E31E0BFAB727002083A7C7A108
:102610009C47DDD7CE865286D685268582974DB7D4
:10262000F2406244D2444249B249224A924A024BA1
:1026300005618280011122CC2A84214506CE2EC656
:10264000EFD0CFD421C1B245930700FD2300F500A0
:10265000C5472301F50083C73500A301F50083D7E3
:1026600045002312F50083C765002303F50083C7E7
:102670007500AA85A303F50022856244F240056136
:102680006FD0CFDBF240624405618280397162CC49
:102690002A8C594526DA4AD84ED652D456D25AD028
:1026A0005ECE06DE22DCAE8432C636C4BA8B3E8BEA
:1026B000C28A468A8359010403494104EFD00FCDF1
:1026C00025C93246930700FDA2462300F500954731
:1026D000A301C500A30085012301F5002A84194642
:1026E0001105A9C2B68597E0FA1FE78060AE230600
:1026F0006401230A240123157401231754012318AC
:10270000440123193401A2856254F2504259B2594E
:10271000225A925A025BF24B624C2685D2542161B6
:102720006FD0CFD1814597E0FA1FE780E0ADC1B708
:10273000F2506254D2544259B259225A925A025B10
:10274000F24B624C21618280411122C43724002067
:102750001304C4B68347240006C626C28DCBB72413
:102760000020AA8519461385049397E0FA1FE78095
:1027700020A60345240093850493EFF05F8D224447
:10278000B24013850493924441016FC01001B240DE
:1027900022449244014541018280411126C2B7245E
:1027A00000209387C4B606C622C44AC003C73700B8
:1027B0009307F00F9384C4B66304F7042A8929456C
:1027C000EFD0CFBC2A840DCD930700FD2300F50088
:1027D000A147A30025012301F50083C72400B725E5
:1027E000002093850593A301F5001946110597E094
:1027F000FA1FE780E09D03C53400A285EFD00FC427
:1028000003C724008D476311F702B727002083A771
:10281000879499CB03A38700630803002244B24046
:102820009244024941010283B24022449244024947
:1028300041018280797122D406D626D24AD04ECE6A
:1028400052CC56CA09445DCD2A8903550500AE898C
:102850005144EF90E000AA8455C537270020930724
:1028600047C983C747008546BA8AFD1793F7F70F14
:10287000494463F9F6080347C500A1476314F7000C
:10288000639209089C5C4544B5EF91659385457159
:102890001305C00297D0FA1FE780C07988DC2A8A26
:1028A0004D442DC11306C002814597E0FA1FE78011
:1028B000A0958357090093064A0036852311FA0034
:1028C00071469305490036C697E0FA1FE7804090AD
:1028D00089472300FA0003C5C400B2460356090025
:1028E00083C54AC9611513351500EFB050242A84F9
:1028F00063860900CE852685EFA0002501C42685C4
:10290000EFF0EFFB2285B250225492540259F24963
:10291000624AD24A45618280B727002083C787C9AF
:102920000547FD1793F7F70F637AF708894741CA00
:10293000011122CC26CA4AC84EC652C406CEAA8964
:10294000368AB2842E89EF80B0712A84D14739C982
:10295000485509C597D0FA1FE780007AF1452685CA
:1029600097E0FA1FE780A08C48D4CD4705CD834679
:10297000C40021478147639FE600630D0A000347B7
:10298000A5010356050193062501AA854E85EF9002
:102990001010AA8703474400630F090013676700FC
:1029A0002302E400F2406244D2444249B249224A3E
:1029B0003E850561828013674700DDB7C9473E85C4
:1029C00082809307B00363EBA700B72700209387AB
:1029D000C7B806053E9503550500828041657D1503
:1029E0008280011122CC2A842E8526CA06CEAE848E
:1029F000EF8010671DCDB7470F009387F723094578
:102A000063E4870281450A85414697D0FA1FE78033
:102A1000A07FA685231081000A85418023018100C3
:102A2000A3010100EFB0E071F2406244D2440561BD
:102A300082804945D5BFB7270020238BA7C8828055
:102A40006FB01007797152CC2A8A328522D426D2EF
:102A50004AD04ECE56CA5AC85EC606D662C4AE8B9F
:102A6000B28A368BBA843E89C2894684EF80505F31
:102A700015C92A8C63140A0213774B00834745005B
:102A800015CF93E727012302FC008DEC631C09029C
:102A9000639A090205E8ED9B2302FC00832B8C035B
:102AA00063910B08B250225492540259F249624A7F
:102AB000D24A424BB24B224C45618280F59B93E750
:102AC0000701D1B793E747002302FC0001CC1C4863
:102AD0004146A2852324FC0213058C0197D0FA1FDE
:102AE000E780006F63930B02D5D80325CC0209C59C
:102AF00097D0FA1FE7804060F145268597D0FA1FEE
:102B0000E780E0722326AC0251BFE30909F80325F0
:102B1000CC0209C597D0FA1FE780005EF1454A85CF
:102B2000F1BF9DC483A70B0299EB91659385357125
:102B3000714597D0FA1FE780E04F23A0AB0203A5B1
:102B40000B0219C57146A68597D0FA1FE780406829
:102B50006388090283A74B0299EB916593852571E0
:102B6000594597D0FA1FE780E04C23A2AB0203A59A
:102B70004B0219C55946CE8597D0FA1FE7804065AC
:102B80001DC483A78B0299EB9165938515715145FF
:102B900097D0FA1FE780004A23A4AB0203A58B025B
:102BA00019C55146A28597D0FA1FE780606222546A
:102BB000B2509254F249B24B224CCA865A860259FC
:102BC000424BD6855285D24A624A45616FF06FEA20
:102BD000011126CA52C406CE22CC4AC84EC62A8A41
:102BE000AE84EF80F04725C5AA893945EFC01FFAAA
:102BF0002A8431CDB727002003C9C7BB631409005D
:102C000003C909009307000D2310F400AD47230109
:102C1000F4009385690013053400194697D0FA1F14
:102C2000E780005B93F71400858085882306F40015
:102C3000A306940023154401A2856244F240D244C5
:102C4000B249224A4A85424905616FC03FFFF240BE
:102C50006244D2444249B249224A0561828041110C
:102C600022C43724002013048493084006C619C5E3
:102C700097D0FA1FE780404823200400B240224446
:102C800041018280011106CE22CC26CA4AC82EC636
:102C9000EF80103D39CDB245B727002003C9C7BB2F
:102CA0000CD5AA8463140900034905004145EFC00F
:102CB000FFED2A841DCD9307000D2310F500A547D5
:102CC0002301F50083C75400938564001105A30F09
:102CD000F5FE194697D0FA1FE780804F9C54A285D5
:102CE000F2405CC46244D2444A85424905616FC0E7
:102CF000FFF4F2406244D244424905618280797116
:102D000022D406D62A842EC6EF8090350DCD834678
:102D1000C5001147AA8749456393E6029C5FB24507
:102D200099C383C567010808EF90306BB7D60500DB
:102D30009386C64D100889452285EF90605AB2509F
:102D40002254456182805145DDBFB727002083C7EB
:102D500087C90547FD1793F7F70F637AF70489478B
:102D600021CA411122C426C24AC006C6B2842E8995
:102D7000EF80102F2A84D14705C5630809008347D7
:102D8000450093E727002302F5004146A685130579
:102D9000840197D0FA1FE780A0439C481CD4814748
:102DA000B2402244924402493E8541018280C94793
:102DB0003E858280797122D406D62A842EC6EF8081
:102DC000302A01CDB2452285230EB1006C08EF9068
:102DD0003054B2502254456182805145DDBF6F802E
:102DE000D03EC1671387E7FF6395E502B727002050
:102DF00083A7479491EB494582804945B2402244DC
:102E0000924402494101828003A30700E30503FEC7
:102E10000283411122C426C24AC006C6FD172A8970
:102E20002E84B284639AF502B727002083A74794C3
:102E300091CF9C4381CF829711E9B7270020238C43
:102E40002795B7270020A38C97944DBFA6854A8568
:102E5000EFE0BFDC45F5D5B72E85EF80702051DD62
:102E6000834705000D45E39B27F922852244B240A4
:102E70000249A685924441016FC0200F1307B00399
:102E80006360A7064111C16722C406C626C2FD17AA
:102E90002A8409456382F502C547AE846313F402B0
:102EA0002E85EFC04014372500201305C5B8060451
:102EB0002A94231094000145B240224492444101D7
:102EC00082809307A0036316F4002E85EFC0A00A4A
:102ED000D9BFE31AE4FC13F5F50FEFC0000AE1B720
:102EE00009458280011106CE2AC6EFE03FD5EF20CA
:102EF0006068EF10F01CEFB03116B7270020938701
:102F0000C7B6130700F02391E70023820700B72715
:102F100000203245138747C9FD562301D700F240F0
:102F2000238AA7C8954505616F70C026597193978C
:102F30000501CAD086D6A2D4A6D2CECED2CCD6CACD
:102F4000DAC8DEC6E2C4E6C2EAC06EDEC1872E89F8
:102F500063D60754B724002003C544C9B72900200D
:102F6000372B0020EFC0FFC62A8426CEB72A0020C8
:102F7000372C00209384C9B6B72C00201DE02165B2
:102F80003345A900B650265496540659F649664A68
:102F9000D64A464BB64B264C964C064DF25D6561C3
:102FA0008280834704001307200A639CE70003CA5A
:102FB000340003552400C1652286FD15EFF0AF9B58
:102FC0008DA27247130747C9034A27001307100948
:102FD0006395E716834714001547639FE700228532
:102FE000EFF02F9E2285EFC0BFB7F24703C547C958
:102FF000EFC03FBE2A8459B739476398E716035597
:1030000044008567A5076315F5040C4483CB0500D0
:10301000639D0B00850591C93725002019461305CE
:1030200045B897D0FA1FE780A01A03C7C9B68547ED
:103030006315F71063880B00238609B65E85EFF0F1
:103040004FCC4DB789472386F9B6EFB0D07459BF3E
:10305000896713872700631CE504832B8400638E34
:103060000B0C83C70B0089EF83C72B0003C71B0022
:10307000A207D98F2394F40083C73B00A380F400F8
:1030800003C7C9B68947631AF70A83C70B0091C7FC
:10309000238609B603C50B005DB783C5140003D5AD
:1030A00084008D472386F9B6EF70C011E5B7950708
:1030B0006318F5001C4403C50700EFF00FEE1DB7C1
:1030C000F9771387A7FF2A9742074183914663F157
:1030D000E6049387A7FCAA97C207C183714763716F
:1030E000F70289671387B7006310E50483A70A9482
:1030F000E38A07EE9C43A285E38607EE829715A03C
:10310000370700181307F770B357F700858BA1CB6B
:1031100083278B94E38807EC9C43E38507EC2285A7
:103120008297E31105EC11A81387C7006310E5022D
:103130001C4483C70700E38707EA9307F00FE30304
:10314000FAEAA2855285EFC07FAF45B5B90763188B
:10315000F50083A74C94E38707E8DC4369BF8967E0
:1031600093871704E304F5F8C9BF3D476399E70463
:103170000355440089671387D700E30CE5FC1387E8
:103180009701E308E5FCCD07E319F5FA03D76400DE
:10319000C167FD17631DF70083A74C94E38407E420
:1031A000DC43E38107E40965A2854D0581BFB727AC
:1031B000002083A7C794E38707E29C43DDB713078A
:1031C000E003E39CE7F68347240005476398E70E96
:1031D0008347640037270020930D8793E1E783A797
:1031E0000D00D5CF83CB0700214A03457400130D92
:1031F0008400EA85EFE03FEA83474401A303A4008B
:10320000835804010358E400035744002A86034509
:1032100034003EC283572401EA86DE853EC0D28751
:10322000EFF0CFC68347340095E7DD4783580401AC
:103230000358E40083467400835544003EC283571C
:1032400024013EC06A87D28705465E85EF80301A2A
:10325000A301A40083A70D0081C71145EFF03FA093
:10326000930B8C9503C50B00E30E05D6B727002002
:1032700083C59795EFE07F9AE30605D68346340031
:1032800093071003638AF6000356440083C50B00BE
:1032900052873685EFE07FB1230C0C94A1B383CB2A
:1032A000340099B783278B9483CB3400114A95DF80
:1032B000DC4385DF81450145829705BF294763903F
:1032C000E70A8347640037270020930D8793A5EF13
:1032D00083A70D00B5C783CB0700214A03457400BF
:1032E000130D8400937725001376150089E7EA858E
:1032F000EFE07FDA2A8683470402A303C4008358E1
:10330000C4010358A40103574400034534003EC2DE
:103310008357E401EA86DE853EC0D287EFF00FB71F
:103320008347340085FBDD478358C4010358A4015B
:1033300083467400835544003EC28357E40111B7AD
:1033400083CB340059BF83278B9483CB3400114A3D
:10335000D1D7DC43C1D781450145829741B70947A1
:10336000639CE70083A70A94E38E07C6DC43E38BE4
:1033700007C622858297BDB12D476398E70083A7D2
:103380000A94E38107C69C47DDB70D476397E700C2
:1033900022868D450355440015B119476395E7060C
:1033A0009305610213051031EFB0A1532C101305E2
:1033B0002031EFB001530356640083578102035557
:1033C000440063E8C700835684000357610263F733
:1033D000E60093050002EFB0104029B16374E600E7
:1033E0002313E40063F4D7002314F4000357C4004C
:1033F0008356A40003568400835564000148814726
:10340000EFB0303DC5B61D47E389E7D2314763953C
:10341000E7002286B145BDBF35476398E70083A723
:103420000A94E38107BCDC4799B739476396E70004
:103430002285EF0090067DB63D476398E70083A79D
:103440000A94E38107BA9C4B1DB741476396E70096
:103450002285EF00B00E79B645476396E700014537
:10346000EF00301E41B64947639DE70083278B94E8
:10347000E38507CCDC43E38207CC81450545829791
:103480006DB94D47E39BE7CA83278B94E38707CA4F
:10349000DC43E38407CAA2850945D5B793F7150035
:1034A00089CFB727002083A7079489C7DC4399C336
:1034B0000145829713451900F1B493F7250091CF88
:1034C000B727002083A7879491C7DC4381C7814534
:1034D000054582971345290075B493F745000145CA
:1034E000E38207AAB727002083A7C79337240020C9
:1034F0001304C4B691CF85472302F400B7270020F8
:1035000083A7879491C7DC4381C78145054582978E
:1035100048442C10EFA0B02A2810EFF0EFA2B727F4
:10352000002083D7E7BA81CF130600643386C70231
:10353000B727002003C547C99145EFC0FFB2134527
:10354000490089B4011122CC2A84554506CE26CAE9
:10355000EFF02FC7AA8413054002EFF08FC62AC6EA
:1035600013055002EFF0EFC5AA8622856244324669
:10357000F240B3359000D24405616FB0F02B797101
:1035800022D406D68D472E84631FF50003D7A500ED
:1035900083D6850003D665000345340083D54500F6
:1035A000EFE01FFE09A889671387D7006311E504C0
:1035B00003C5250019E58547B25022543E85456173
:1035C0008280B727002083A68793F5D603C63600EE
:1035D00083C50600814802C202C0014881470147F5
:1035E0009106EFF0AF8A0545EFF06FE7E9B7138773
:1035F000E700E302E5FC13873701631AE50003C522
:10360000250055D9014781460146814551BFE5074F
:10361000E303F5FAB1476319F500B727002003C5A6
:10362000F7B6EFF02F8141BF41677D178147E31562
:10363000E5F803C75500C947E31FF7F683D6E50051
:1036400003D6C5000355840083D5A500EFB0102133
:1036500051C15D45EFF0EFB63335A000231CA1004A
:1036600083454400035524003008EF80A01283579F
:103670008101B1F36C0813051031EFB08126930579
:10368000E10113052031EFB0C1258357C101035774
:1036900084006374F7002314F4008357E101035797
:1036A000A40063F4E7002315F400835584008357D6
:1036B000A40063F4B7002315B4000357E400835655
:1036C000C4000356A4000355240001488147EFB00D
:1036D000100ED5B58547231CF10059B7B727002038
:1036E000138747C9834677001307F00F638CE608FA
:1036F00051C9411122C426C24AC006C6AA84034544
:10370000A500138947C94105EFC04FC82A842DC5BC
:103710009307000D2310F500D9472301F50083D747
:1037200044002312F50083C764002303F50083C718
:103730007400A303F50083C784002304F50083C746
:103740009400A304F50003C6A4002305C50015C218
:10375000CC44410548C497D0FA1FE78060A7A285F2
:10376000224403457900B2409244024941016FC0AE
:10377000EFCC23260500E5B7B2402244924402492B
:10378000410182808280C1671387E7FF639EE50065
:10379000B727002083A787939DC383C707000D47E2
:1037A000639DA7006FB0E07FFD1749476397F50061
:1037B000B727002083A78793F5F73A85828049478A
:1037C000EDBF39714AD8372900208327099606DED4
:1037D00022DC26DA4ED652D456D25AD05ECE89EFAB
:1037E0000545F2506254D2544259B259225A925A63
:1037F000025BF24B21618280034705008547130974
:1038000009962A846302F70403468500930695000F
:103810009305E1000545EFE0CFEB814719C18347F0
:1038200005008346040011476388E602372700201D
:103830000327C7958D4603471700630FD70089CF2D
:1038400001CF11E5014571BF81470145D9BF8546CB
:103850006310D70A8D8BFDD703451400130B24008A
:10386000DA85EFE05F83A300A400832709002A8A9A
:103870008149A1C7B7240020930BF00F83C7A495FB
:1038800063FDF90203250900939A49005695834781
:10389000050063847707834715006390470719463F
:1038A000DA85090597D0FA1FE780609B39C5832424
:1038B000090003470400D694B9E483460400914705
:1038C000E382F6F883270900B5DF37270020034697
:1038D000A7959305F00F0147E306E6F6BE84C107FE
:1038E00003C507FF6307B50C05071377F70FEDB79F
:1038F0008946E319D7F4858BB9BF850993F9F90F88
:10390000B5BF88C4F5A09147631AF706C84405C53A
:1039100083478400034605006304F606034704005A
:103920009147631DF706C84419C597C0FA1FE78081
:10393000A07C23A604000345840091659385E5716E
:10394000050597C0FA1FE780E06E05C50347040030
:103950009147631EF704C8C483478400930594000D
:103960000505A30FF5FE0346840097D0FA1FE780F4
:103970002086034584003335A000A5B5884441BFA7
:1039800093059400050597D0FA1FE780408D854781
:10399000E316F5F85545EFF0CF82BDA8884441DD28
:1039A00097C0FA1FE780407523A4040069B788C454
:1039B00065B72380D40083471400DA85138524007B
:1039C000A380F400194697D0FA1FE7806080034572
:1039D000840091659385F571050597C0FA1FE7800E
:1039E000606505C5034704009147E31CF7F0C8C4B0
:1039F00083478400930594000505A30FF5FE034655
:103A0000840097C0FA1FE780A07C83478400E39975
:103A100007DC034504007D1513351500D9B3397152
:103A200022DC26DA4ED652D406DE4AD856D25AD0F6
:103A30005ECE2A849309250003451500CE85B72460
:103A40000020EFE04FE5A300A4009384C4959C40C0
:103A50000D472A8A83C717006390E704372900209F
:103A600083270996814A13090996638E0714B72B99
:103A7000002003C7AB9593970A01C1830325090072
:103A8000138BAB9563E7E70C83460B000327090014
:103A900081471306F00F79AAF1D3144C0346740141
:103AA0009305E1000545EFE0CFC205CD984085467E
:103AB00083470500034717006310D7028D8BD9FF9A
:103AC0000145F2506254D2544259B259225A925A84
