:040000006F20804CA1
:10000400000000000000000090000020400B0020D1
:10001400A9BDF9F3900000200000000000000000DA
:10002400900000209000002000000000000000006C
:10003400900000200000000090000020000000005C
:1000440090000020900000209000002090000020EC
:1000540090000020900000209000002090000020DC
:1000640090000020900000209000002090000020CC
:10007400340C00209000002090000020900000200C
:1000840090000020900000209000002090000020AC
:1000940001A04111B7170040985F3AC6945F3247F8
:1000A400E39CE6FE324541018280411181460146CE
:1000B4008145114506C6EF00B045B72700401147FA
:1000C4002383E780B7F700E003A707D16D9B23A83C
:1000D400E7D003A707D15D9B23A8E7D07300501096
:1000E40001000100B2404101828041118146014674
:1000F4008145114506C6EF00B041B72700401147BE
:100104002383E780B717004003C7E70203C6E70469
:1001140083D7870391661377F70F1366360063E579
:10012400D700719B13671700F3260080A18A938779
:10013400818189CAF326008023ACD1809443DD9A5F
:100144007390068001000100B71600409305700506
:100154002380B604930580FA2380B60401000100CD
:100164002382060223800604F32500809443A18A97
:10017400CD8E7390068023AC018001000100F3262C
:100184000080A18A89CAF326008023ACD1809443DD
:10019400DD9A7390068001000100B71600409305B4
:1001A40070052380B604930580FA2380B604010009
:1001B40001002387E6022387C60423800604F3266E
:1001C40000809843218B558F7310078023AC0180E6
:1001D4000100010073270080218B09CB7327008065
:1001E40023ACE18098435D9B7310078001000100FC
:1001F40037170040930670052300D704930680FA4E
:100204002300D704010001008346B70493E60602E5
:10021400A305D70423000704F32600809843218B09
:10022400558F7310078023AC01800100010037F75C
:1002340000E0832607D193E646002328D7D08326FF
:1002440007D1DD9A2328D7D0730050100100010094
:1002540073270080218B09CB7327008023ACE180B6
:1002640098435D9B7310078001000100371700401D
:10027400930670052300D704930680FA2300D7045D
:10028400010001008346B70493F6F60DA305D704D5
:1002940023000704732700809C43A18BD98F73909C
:1002A400078023AC018001000100B240410182803B
:1002B4000111B7F5070026CA8146AA840A86E1051A
:1002C400194506CE22CC4AC802C023120100EF0011
:1002D4003024B717004003C7E70413673700F32738
:1002E4000080A18B1384818189CBF327008023AC08
:1002F400F1801C40DD9B7390078001000100B7175B
:100304000040930670052380D704930680FA238067
:10031400D704010001002382070223800704F32687
:1003240000801C40A18BD58F7390078023AC018083
:1003340001000100F3270080A18B89CBF327008003
:1003440023ACF1801C40DD9B739007800100010009
:10035400B7170040930670052380D704930680FAEC
:100364002380D704010001002387E70423800704C6
:10037400F32600801840218B558F7310078023AC1F
:10038400018001000100B7F600E003A706D113675E
:10039400470023A8E6D003D50702E5779107137534
:1003A4000560458D5D8D420541810100F327008084
:1003B400A18B89CBF327008023ACF1801C40DD9B0B
:1003C4007390078001000100B71700401307700500
:1003D4002380E704130780FA2380E7040100010067
:1003E40003C7F70013670704A387E70003C7B7042D
:1003F40013670702A385E7042390A7022380070459
:10040400732700801C40A18BD98F7390078023AC85
:10041400018001000100B7F4070037F900E0E104AE
:10042400832709D1DD9B2328F9D0730050100100E4
:1004340001001305C012EF00807C81463000A685C0
:10044400194502C423160100EF00900C224782478D
:10045400E318F7FCF3270080A18B89CBF3270080F6
:1004640023ACF1801C40DD9B7390078001000100E8
:10047400B7170040130770052380E704130780FAB9
:100484002380E7040100010003D7070246074583E0
:100494002390E70223800704732700801C40A18B6C
:1004A400D98F7390078023AC018001000100F327EA
:1004B4000080A18B89CBF327008023ACF1801C4002
:1004C400DD9B7390078001000100B71700401307FC
:1004D40070052380E704130780FA2380E7040100F2
:1004E400010003C7B7041377F70DA385E70423803E
:1004F4000704732700801C40A18BD98F7390078059
:1005040023AC0180010001005145D52DF240624425
:10051400D244424905618280411126C28146014686
:10052400AA848145114506C622C4EF00607E3717B0
:1005340000408347E7028346E704035787031166B5
:1005440093F7F70F93E636006365C700F19B93E7D3
:10055400170073270080218B1384818109CB7327B3
:10056400008023ACE18018405D9B7310078001007C
:10057400010037170040130670052300C704130653
:1005840080FA2300C70401000100230207022300AC
:100594000704732600801840218B518F7310078045
:1005A40023AC01800100010073270080218B09CB5B
:1005B4007327008023ACE18018405D9B7310078093
:1005C4000100010037170040130670052300C7041B
:1005D400130680FA2300C704010001002307F70271
:1005E4002307D70423000704732700801C40A18B32
:1005F400D98F7390078023AC01800100010013059B
:100604005002992237F700E0832707D193E7470088
:100614002328F7D0F3270080A18B89CBF327008010
:1006240023ACF1801C40DD9B739007800100010026
:10063400B7170040130770052380E704130780FAF7
:100644002380E7040100010003C7F70013670704D0
:10065400A387E70023800704732700801C40A18B35
:10066400D98F7390078023AC018001000100F32728
:100674000080A18B89CBF327008023ACF1801C4040
:10068400DD9B7390078001000100B717004013073A
:1006940070052380E704130780FA2380E704010030
:1006A40001002567D98C23909702238007047327C0
:1006B40000801C40A18BD98F7390078023AC0180EC
:1006C4000100010037F700E0832707D1DD9B2328D1
:1006D400F7D07300501001000100814601468145A6
:1006E40011453D25F3270080A18B89CBF32700809A
:1006F40023ACF1801C40DD9B739007800100010056
:10070400B7170040130770052380E704130780FA26
:100714002380E7040100010003C76704136717007F
:100724002383E70423800704732700801C40A18BE4
:10073400D98F7390078023AC018001000100B2407F
:10074400224492444101828073270080218B938745
:10075400818109CB7327008023ACE18098435D9BA2
:1007640073100780010001003717004093067005DD
:100774002300D704930680FA2300D7040100010064
:100784008346B70493F6F60DA305D70423000704A4
:10079400732600809443A18AD18E7390068023AC83
:1007A4000180010001009376050263840618034763
:1007B400A700118B25E773270080218B09CB7327B2
:1007C400008023ACE18098435D9B73100780010097
:1007D400010037170040930670052300D7049306E1
:1007E40080FA2300D704010001008346A70093E6A2
:1007F40046002305D70023000704F326008098430E
:10080400218B558F7310078023AC018001000100F8
:100814001307004B010001007D176DFF7327008053
:10082400218B09CB7327008023ACE18098435D9B27
:10083400731007800100010037170040930670050C
:100844002300D704930680FA2300D7040100010093
:100854007D892314A7000100010001000100230089
:100864000704F32600809843218B558F731007806B
:1008740023AC01800100010073270080218B09CB88
:100884007327008023ACE18098435D9B731007803D
:100894000100010037170040930670052300D704B8
:1008A400930680FA2300D70401000100010001002F
:1008B400B726004013061005A383C680230007044F
:1008C400F32600809843218B558F7310078023AC47
:1008D40001800100010073270080218B09CB73275D
:1008E400008023ACE18098435D9B73100780010076
:1008F400010037170040930670052300D7049306C0
:1009040080FA2300D704010001008346B70493E66C
:100914000608A305D70423000704732700809C431B
:10092400A18BD98F7390078023AC01800100010053
:10093400828093760504638B06140347A700418BDA
:1009440025E773270080218B09CB7327008023AC14
:10095400E18098435D9B7310078001000100371705
:100964000040930670052300D704930680FA230001
:10097400D704010001008346A70093E6060123057E
:10098400D70023000704F32600809843218B558F5A
:100994007310078023AC0180010001001307007D60
:1009A400010001007D176DFF73270080218B09CBA7
:1009B4007327008023ACE18098435D9B731007800C
:1009C4000100010037170040930670052300D70487
:1009D400930680FA2300D704010001009376F50101
:1009E40093E606042314D70001000100010001006E
:1009F40023000704F32600809843218B558F73103E
:100A0400078023AC01800100010013076004631018
:100A1400E50473270080218B09CB7327008023AC66
:100A2400E18098435D9B7310078001000100371734
:100A34000040930670052300D704930680FA230030
:100A4400D70401000100B72600400946B5B5732755
:100A54000080218B09CB7327008023ACE18098436D
:100A64005D9B731007800100010037170040930657
:100A740070052300D704930680FA2300D7040100ED
:100A84000100B7260040130620053DB573270080FA
:100A9400218B09CB7327008023ACE18098435D9BB5
:100AA400731007800100010037170040930670059A
:100AB4002300D704930680FA2300D7040100010021
:100AC4008356870093E6060C2314D700C5BB411157
:100AD400814601468145114506C61D2CF327008039
:100AE400A18B9386818189CBF327008023ACF1808D
:100AF4009C42DD9B7390078001000100B717004002
:100B0400130770052380E704130780FA2380E704A2
:100B14000100010003C76704136717002383E70478
:100B240023800704732700809C42A18BD98F739084
:100B3400078023AC018001000100B24041018280A2
:100B44008146014681451145E122F3270080A18BAE
:100B54001387818189CBF327008023ACF1801C4368
:100B6400DD9B7390078001000100B71700409306D6
:100B740070052380D704930680FA2380D7040100EC
:100B84000100FD562396D70223800704F326008034
:100B94001C43A18BD58F7390078023AC0180010087
:100BA4000100F3270080A18B89CBF327008023ACBD
:100BB400F1801C43DD9B7390078001000100B7178F
:100BC4000040930670052380D704930680FA23809F
:100BD400D7040100010083C6670493E6160023834B
:100BE400D70423800704F32600801C43A18BD58FF0
:100BF4007390078023AC01800100010001A0BD4770
:100C04003305F50201007D1575FD8280411122C472
:100C140026C206C6AA84014463179400B240224443
:100C240092444101828005041305803E4204C13F81
:100C34004180DDB7B7170040130700032388E7029C
:100C4400854723A4F18273002030411106C6EF00CA
:100C5400701BF5BF2303048015472303E4800100C0
:100C64002302A480828083076480E3CE07FE2303EB
:100C74000480828083076480E3CE07FE03454480BA
:100C8400828083076480E3CE07FE2302A4808280EF
:100C9400411126C44AC24EC006C61377F50BAD47B0
:100CA400AA892E8995446306F70019456537653F7F
:100CB4008D444E854537FD59FD1463983401B24087
:100CC400A2441249824941018280135509011375D6
:100CD400F50F453F2209CDB7011126CC06CEB70446
:100CE400080051371545BD37713769372AC6A53F06
:100CF40032459377150089EB136515001375F50FCD
:100D0400F240E24405618280FD14E9FC0145CDBF57
:100D1400397126DC4ADA4ED852D656D45AD25ED02D
:100D240006DE62CE66CCB7E700E07D5783AA0700F3
:100D340022C603AA470023A0E71823A2E718B7177F
:100D44000040130770052380E704130780FA23800B
:100D5400E70483C74704930B75FFB684E20793FB4C
:100D6400FB0F8546AA892E8B328937240040E18700
:100D7400015763FA76016308D50089461307000218
:100D84006313D5000157D98F93F7F70FB71C0040B1
:100D94002382FC0411472303E4801305F00F5D3D17
:100DA400094CD135636D7C11B7050700DA95378797
:100DB4000700795563F2E504B3879500636EF70283
:100DC400370B0800A94733EB65016399F90689E4F9
:100DD4008144513D26850DA0DA850945553D050917
:100DE4000345F9FFFD14050B693D81C49377FB0F9F
:100DF400FDF7DD3569FD7D55B71700401307700514
:100E04002380E704130780FA2380E70403C7470419
:100E1400418B2382E704F250B7E700E023A0571187
:100E240023A24711E25432445259C259325AA25AA7
:100E3400125B825B724CE24C21618280A547639510
:100E4400F90685691309F00FB3069900B3742B01F1
:100E5400B6941349F9FFB3749900856B337969012A
:100E6400416B9387F9FFB3F7270199E363FC3401DE
:100E740093D94900C147E3E637FF99BF0569C169C2
:100E84007D19D9B71305800D638869011305000224
:100E94006384790113051008CA85DD3B353D21DDE6
:100EA4004E99B3843441D9B7DA852D45D533CA94E4
:100EB400E30099F205097D3BA30FA9FED5BF9387F3
:100EC400F9FF93F7F70F6361FC0C83C71C04130746
:100ED4003008631FF70437070800636BEB04B3079C
:100EE4009B00B706100063F5D704334BEB0089472A
:100EF4006393F9068980D549E38C04ECDA850945C6
:100F0400413B11090327C9FF91472320E4800307CC
:100F14006480E34E07FE23033481FD17EDFBFD14CB
:100F2400110B81C49377FB0FE9FF7D3371F5E1B5B4
:100F3400B717004003C75704B70708001377070221
:100F440019E3B78707007955E378FBEA33079B0079
:100F5400E3FFE7F855B58547E382F9F2DA852D45D5
:100F6400053B9389F4FFE38504E6293393F73900BD
:100F740091EB832604800327090093074900E39A31
:100F8400E6E43E89CE84F1BFB5476396F9001305C4
:100F9400900BC93135BDB1471305B00AE38BF9FE97
:100FA40099476391F904B7050800B365BB002D4563
:100FB400C53181448D4BA1497539639674018327EA
:100FC40004802320F9008504E39834FF83270480F8
:100FD40013172B01635507002312F900D5BB2322F5
:100FE400F900FDB39D476399F90281451305B004E7
:100FF4004531BD442320090023220900FD599D39B0
:1010040093F77400CA9703C70700FD14398D238032
:10101400A700E39634FF6DBBA1476392F9046D39D1
:101024008144630D0B008D479304C0036308FB00E8
:101034009304000563048B01930440041375C507EE
:10104400E30895D8194539313939054521312685C3
:101054000D3909453D314931E31C05D669BB91473A
:101064006399F90013056006F536F53E13059009FA
:101074000DB7E38F09D4F154A9BBBD6601471736F8
:1010840000001306A629938606A685458347060015
:1010940093F7F70F91C382800507E3F9E6FE9737CC
:1010A4000000238DB726DDB77D166206618693178F
:1010B4008601E18763D407000145828093172600E7
:1010C4003307F500AE9718439C4363E7E7007D16AA
:1010D400E37FF7FC7D55828005458280FD15E2059E
:1010E400E18513978501618793F7F50F634807003E
:1010F400FD15139725002A97584365D713851700C4
:101104006205618582803308B5021C4283A806000B
:10111400B335B502C29733B50701AE9846958548F5
:101124006367B5006394A50063E3070181480C433A
:10113400C6950CC388C21CC282808147139787015D
:1011440061876343B7008280139727002A9723207F
:1011540007008507E5B78147014793968701E18634
:1011640063C5B60013351700828093962700AA96AC
:1011740094428507558FD5B793D755408A07AA97C8
:101184009C4305453315B5007D8D8280171300E01F
:10119400E702A3412A84993705C5931725003E9495
:1011A4000327C4FF814711EB7D1516053E954205C3
:1011B4004185171300E06700834105838507E5B780
:1011C4000145C5BF81471397870161876343C70002
:1011D400828013972700B386E50094422A978507F7
:1011E40014C3D5B77D16620661860147931786013D
:1011F400E18763D507001335170082809317260013
:10120400B306F500AE9794429C437D16B58F5D8F6F
:10121400F1BF8A05AA9501476363B500828083A65E
:10122400C5FFF11593D71600D98F9CC11397F6010A
:10123400E5B72A830148014701456343D70082800B
:10124400B387050183A80700B30706019C43C6972B
:10125400AA976384F80033B517010507B30803019F
:10126400620723A0F80061871108C1BF2A830147E0
:101274008147014563C3D70082803388E500832812
:101284000800330EE600032E0E003388A84033080E
:10129400C8416384080133B508018507B308E30036
:1012A400E20723A00801E1871107E9B7171300E05B
:1012B400E702A32F0111B286B2842E86AA850A857D
:1012C40075372A84A6850A85793533348000060467
:1012D40013351500018D0561171300E06700232FF6
:1012E400171300E0E702E3294111AA89AE8A328B81
:1012F400B68402C202C402C60144131C8401135CF6
:101304008C4163499C02939B1400FD1B0549138C7B
:10131400F4FFF15C3304890162046184634D740554
:1013240092478E04CE9423AEF4FE4101171300E0DD
:101334006700A32813192400B30B2B01014A931748
:101344002A00D69783A50B00884378003400500008
:101354005D3B050A93178A01E187F11BE351FCFE0B
:1013640092474E9905042320F900A2473EC2B24792
:1013740002C63EC459B7131A8901135A8A41131D70
:10138400240093178A01E18763CF970092470A04E8
:101394004E941CC0A24705091379F90F3EC2B24707
:1013A40002C63EC485BFB3079A0313152A00569597
:1013B4000841780034005000050AEA97DA978C4314
:1013C4009933C1B719CD91CD09CE81473387F50043
:1013D400834607003307F50085072300D700E3178A
:1013E400F6FE828019C991C909CA910583A7C5FF70
:1013F40011057D16232EF5FEC5BF828001C919C6CD
:101404002A960505A30FB5FEE31DA6FE828081473B
:101414003307F5000307070019E33E85828085073B
:10142400C5BF01112E8626CAAA8413150601930589
:10143400F004418122CC06CE32C6EF00F06C2A843F
:1014440001C53246A685BD3F2285F2406244D2449E
:1014540005618280854715C18DC105C28147B306E8
:10146400F5003387F50083C6060003470700639839
:10147400E6008507E315F6FE85473E8582808147B1
:10148400EDBF9307F6FFBE952A966313C5008280CD
:10149400FD1583C715000505A30FF5FEFDB7AA8743
:1014A400014581CF09CE3E96850703C7F7FF631731
:1014B400B700E39BC7FE0545828082800145828098
:1014C4007971973700009387A73622D4804306D6D4
:1014D40026D24AD04ECE52CC56CA5AC85EC679C01D
:1014E400B7C4C901014B973900009389E933938448
:1014F400F437173A0000130AEA33973A0000938A44
:10150400EA2D17390000130929378357240095E37E
:101514005C44631D0B0017370000232BF730832B2B
:10152400C4002285EF00706B5E84B9A82326FB00FB
:10153400FDB783A7090082971C443307F5406376FF
:10154400F500032749001D8F2A9763E2E4089737C3
:10155400000023AD07288355240003450400976049
:1015640001E0E78040CB5C405844A1CB0C44032607
:101574004900AE97BE8663E4B70063E4C700B38650
:10158400C74014C4228B3A8449F0973700009387EC
:10159400E7249C4B09476372F706F91717370000D5
:1015A4002326F724B250225492540259F249624A33
:1015B400D24A424BB24B4561828063170B00973786
:1015C400000023A7E726A1BF2326EB0089BF03273A
:1015D4004A0209CF63EFA7003385A74083A70A0116
:1015E4006376F5009737000023A2A720228B40449E
:1015F40061BF03274900BA97C5B79737000023A7EF
:10160400071E4DB7411122C4173400001304C41F30
:101614001C4006C626C24AC091C78297973700006D
:1016240023A4071E9737000083C7173A858B973486
:1016340000009384243995C397370000A3860738A4
:1016440083C774001547637AF700292383C774009E
:10165400F5178A07A2979C4382971C4491C38297EB
:10166400173900001309891C0327090017360000E5
:101674000346D6169737000083C74716939617007C
:10168400BA9683D60600D5CE9737000083C70715D0
:1016940063E3C70C97370000238207141C40639D43
:1016A40007129737000083C7773291CF83C774003E
:1016B40093F7F70F89EB97370000A38907309770EA
:1016C40001E0E780C05A973700009387E7159C43F1
:1016D40063840710973700009387071ADC43173792
:1016E40000002325F710E93B973700009387871400
:1016F400DC53FDC3173700001307470E184B973709
:10170400000083C777146369F70C83C77400154717
:101714006364F70C9737000083C7872F918BCDEF55
:10172400032609009736000083C6560B63CCD70AFC
:101734002244B240924402494101176301E0670028
:1017440003D2850793F7F70F973600002388F6082E
:10175400E3E2C7F215BF86073E97835507002310BF
:10176400070097370000239F070A973700009387E5
:1017740067099C43173500000345450613172500E8
:10178400BA979C4382979737000083D7A7091737E6
:1017940000000347A70493C7F7FF7D8D9317170035
:1017A400032709003E97835707005D8D2310A70088
:1017B4009737000083C7870291C785071737000052
:1017C400230EF7001737000003474701973700003F
:1017D40083C7D700E370F7ECB24022449244024935
:1017E40041018280139717003297035707006DF762
:1017F40085072DBFAD6737C70040BD072326F720F7
:101804000F10000097370000938747FDC84F8327C8
:101814008726BD66BD0693C7F7FF99836A0523260D
:10182400D7205D8D82804111B7170040985F3AC67A
:10183400945F3247E39CE6FE324541018280130502
:10184400F00F8280173700001307C7161C43930656
:10185400001094C301000100010001001C4323A0F7
:1018640007008346150003482500A2064208C296D5
:1018740003480500C296034835006208C29694D70F
:101884008346550003486500A2064208C2960348F1
:101894004500C296034875006208C296D4D78346B1
:1018A40095000348A500A2064208C2960348850095
:1018B400C2960348B5006208C29694DB8346D500FD
:1018C4000348E500A2064208C2960348C500034542
:1018D400F500C2966205AA96D4DB83C6150003C53B
:1018E4002500A2064205AA9603C50500AA9603C5CB
:1018F40035006205AA9694CF83C6550003C56500DA
:10190400A2064205AA9603C54500AA9603C575001A
:101914006205AA96D4CF83C6950003C5A500A20686
:101924004205AA9603C58500AA9603C5B5006205BB
:10193400AA9694D383C6D50003C5E500A206420542
:10194400AA9603C5C50083C5F500AA96E205AE961E
:10195400D4D3D443F59AD4C3D44393E61600D4C362
:10196400944393E6160094C3BA879443D842058BF4
:1019740059E3984E01452300E6009843184F21830C
:10198400A300E6009843184F41832301E6009843DF
:10199400184F6183A301E6009C43D84F2302E6005D
:1019A400D84F2183A302E600D84F41832303E600E6
:1019B400D84F6183A303E60098532304E6009853A9
:1019C4002183A304E600985341832305E60098533A
:1019D4006183A305E600D8532306E600D853218388
:1019E400A306E600D85341832307E600DC53E183D2
:1019F400A307F600828001008DBF1737000013078C
:101A0400A7FB1443411122C49C5E4AC006C69983B5
:101A140026C2858B3A84173900001309A9F9D1CB62
:101A24009C5E973400009384E4F993F7F7F99CDE05
:101A340017370000034767F993070008631BF70093
:101A4400832709009C4393F7070417370000230EEC
:101A5400F7F683C7040093F707049DC39737000084
:101A6400938787DC9C4382979737000023A4A7F6CB
:101A740083C7040093F7F70B173700002304F7F428
:101A840083C7440093F707048DE7854717370000A1
:101A9400A30CF7F297370000938787F49C430967F8
:101AA40098C7130700FC97360000238FE6F0D8444C
:101AB400F8D31C40985F1183058B09CB985F3D9B3D
:101AC40098DF0547973600002380E6F0985F1D8372
:101AD400058B11CB985F1377F7F798DF8547173796
:101AE40000002303F7EE83270900D8430583058B01
:101AF40019C7D843759BD8C3D843799BD8C3B24080
:101B040022449244024941018280397106DE16DC86
:101B14001ADA1ED82AD62ED432D236D03ACE3ECCB9
:101B240042CA46C872C676C47AC27EC0F935F2503B
:101B3400E2525253C2533255A2551256825672473C
:101B4400E2475248C248324EA24E124F824F2161A0
:101B54007300203097370000938787E894439737C2
:101B64000000938727E603C70700058B11CB97373F
:101B74000000238B07E497370000A38707E48280E3
:101B840003C71700058B65F7F85271FF83C7570029
:101B9400DDB717380000130828E2032708001C5F8C
:101BA4009583858BD1E709C61C5BBD832300F600B2
:101BB40085CA83270800985B4607935767016356D5
:101BC400070093E707C0C207C18303970600C20753
:101BD400C18709C7BA970947B3C7E7022390F6003C
:101BE40085CD834715008DCB9736000083C6E6DD8F
:101BF40093F606041387970089478DCA3A950347DD
:101C04000500854699471376F7066311D6026207E5
:101C14006187B947634C0700832708009C5FED8305
:101C24008D8B17370000A304F7DA81473E85828045
:101C34008547EDBF411122C406C6173400001304C2
:101C440024DA18403DE9AE877453FDFE3E85B28523
:101C540097370000238907D6977001E0E78000DA00
:101C640097370000938747D59C43B7068000984375
:101C7400558F98C3D857719BD8D797370000A38541
:101C840007D497370000A38F07D21C40094798C395
:101C94001440173700001307E7D283472700858BCA
:101CA40089EB83473700858BD9C797370000238D8D
:101CB40007D0B2402244410182808D476310F5026F
:101CC40097370000938747CF9C43B706800098431B
:101CD400558F98C3D857719BD8D75DBF8547E319F3
:101CE400F5FA5447F977FD17F58F5CC70F1000001C
:101CF4001C40096798C7130700F81736000023052E
:101D0400E6CC17370000130727CB10431842318362
:101D14000D8B11E713076019F8D3D4C795BF184288
:101D2400094631830D8B6315C7001307E043EDB7F4
:101D34001307E01BD5B7FC52ADF3A5BF5D71A2C478
:101D4400A6C22A84130680022800AE8493051008D4
:101D540086C6CAC04EDE52DCEFF04FEA35459770B6
:101D640001E0E7808003173300001303E3C48327F3
:101D740003009376F41F173E0000130EAECB23A48A
:101D84000700984B973E0000938E8EC5370FFCFFDB
:101D94001367F70398CBF84F130510F8B702040044
:101DA400137707E0558FF8CF9843F576FD16758FB6
:101DB40098C39843B7063300930380251377F7E756
:101DC40098C3984311497D1F1377F7E713670710EA
:101DD40098C303270E008549930F80021C47D58FB3
:101DE4001CC783A70E001307900D3400B8CB01471E
:101DF40093553700A69583C7050013767700B3D7AC
:101E0400C740858BE1C38327030083280E00239CEE
:101E140007042390070603A8C8021378D8FF23A653
:101E2400080383A807001378F70793F808F833E842
:101E3400080123A0070103A847023368580023A21E
:101E4400070383A80E00014823A2780603DA0706D5
:101E54006307480303A80703038A06001358F8001E
:101E640062081358884163580A0103A807031358EA
:101E7400F8002380060103D807061378F80F03AA95
:101E8400480663060A0003DA8705E37F49FB03A8D3
:101E940047023378E80123A2070383870600635CC3
:101EA400F40003C805003396C9001346F6FF3376E1
:101EB40006012380C5003E8663D3A7002A86131536
:101EC4008601618505071377F70F8506E312F7F39B
:101ED400B640264496440649F259625A61618280AA
:101EE400973600009386C6AF9C42D8471316170155
:101EF40063550602984713161701635006027D576F
:101F0400B8D7173700001307678D584F05071736E2
:101F140000002323E68E116798C798470D83058B2D
:101F24001DC317370000034707AA136717001736A6
:101F34000000230AE6A8130700F81736000023055B
:101F4400E6A8214798C79847058B09CF17370000A3
:101F5400034757A71367170017360000A304E6A624
:101F6400054798C798470983058B09E79847058370
:101F7400058B31CF9847173600001306A6A41735F2
:101F84000000130565A30983058B6303071018413B
:101F9400184331830D8B75EBAC4B184E93F505024A
:101FA40003471700CDCD79EF13077006D8CF034749
:101FB400060013671700173600002305E6A0114733
:101FC40098C718415C57F19B93E717005CD79C4274
:101FD40098479316370163D606029736000083C6E6
:101FE400E6B4C18A173700001307C7ACC5CE034750
:101FF400870713670702973600002389E6B205674F
:1020040098C798479316270163D106021737000033
:102014000347879B62076187635707000547973625
:1020240000002383E69A096798C798479316070127
:1020340063D606029736000083C656AF858A1737E3
:102044000000130727A7ADCE0347970713672700A0
:1020540097360000A38CE6AC216798C7828029D705
:1020640085456315B7001307B00689B7894563151D
:10207400B7001307F0061DBF8D456315B70013079E
:1020840030072DB71307500715B71307600739BF7B
:10209400034736001367170017360000A305E692BE
:1020A400094739BF834687070946BD8A6388C60046
:1020B400034787078D463D8BE313D7F4114725BFAC
:1020C40083469707918AC9DA0347970713678700FE
:1020D40041B7397106DE16DC1ADA1ED82AD62ED498
:1020E40032D236D03ACE3ECC42CA46C872C676C444
:1020F4007AC27EC0F533F250E2525253C253325583
:10210400A255125682567247E2475248C248324E8E
:10211400A24E124F824F2161730020301737000006
:102124001307478C8346B7019737000083C7578E40
:102134004C4BB697FD8B33D7F50097360000A3833D
:10214400F68A97360000A385F68C058B15EF1737B2
:1021540000000347378CB3F7E702814601471305B4
:10216400000233D6E500058A1378F70F19CA63977E
:10217400D70097370000A38707878280850693F6E8
:10218400F60F0507E31FA7FC82809737000083C77B
:10219400B783C9EB97270000938707699C434111D4
:1021A40022C426C206C68297973700009387878584
:1021B4008047BE846303A40663688504018D1354B9
:1021C40055009737000083C787836368F404B937E1
:1021D40098449737000083C78782939657003697B1
:1021E4001D8C9736000023A3E682E372F4FE22449A
:1021F400B2409244172500000345D57E8145410134
:10220400177301E0670043E4972700009387C766CC
:10221400DC433384874022955DB7B2402244924424
:10222400410182808280972700009387E75F9C4367
:10223400011122CC4AC806CE26CA4EC682979727D9
:1022440000009387277C804701496301A406BE846C
:1022540063668506018D135455009727000083C7D4
:10226400077A1379F5016360F404972900009389D0
:10227400A9606D3503A884009726000083C62678DC
:10228400139756004297158C3A8683A549006364D8
:1022940007016364B7003306B7409727000023A7FC
:1022A400C776E378D4FC160433692401F24062440F
:1022B4004A85D2444249B249056182809727000089
:1022C4009387875BDC4333848740229569B79727DC
:1022D40000009387E77098438567938707777CD3DB
:1022E40097270000938707759C4383A607091396D5
:1022F40056006358060083A60709139666006344D4
:1023040006007453FDF2828071C5AA870145E9C5B0
:102314008D07C207C183F19BC207C1831307400322
:10232400636FF702172700001307877808431727FE
:1023340000001307677714436398A6021727000069
:102344001307474F185B014541CB4111C20706C62D
:102354000545DD8D0297B240014541018280172772
:1023640000001307A774D9B70357650035E3035773
:102374004500636FF704B306F7402146637CD60239
:1023840003280500938687001D8FAA9661171726D8
:102394000000035606452392E60023A0060123937A
:1023A400060014C12312F500130786FF97260000C8
:1023B4002399E6422313B5009725000083D565428F
:1023C400B387F54017270000231DF74021058280BD
:1023D40008419DB70145828082800DC19727000086
:1023E4009387076D03A30700972700009387C76BA4
:1023F40083A8070081469A8763E31701828003A8B4
:102404000700636DF50A636BA80A13878700E36707
:10241400E5FE03D66700216705076317E60003C7D7
:1024240031850507A389E184972500009385053B41
:1024340003D6470003D7650023930700329742076A
:10244400418317250000231EE538638A6702172598
:1024540000001305A56508416303F50203D5660072
:1024640019ED83D7460023A0060121073E962106D5
:102474002392C600972700002395E736B687984332
:10248400E30E17F797260000938646629442E3070B
:10249400D7F683566700BDF283D64700035647003C
:1024A4001843A106B2962392D70098C383D7650038
:1024B400A107172700002316F7328280BE86C28741
:0424C40025BF000030
:1024C80097110020938101BB17610020130101B30C
:1024D8001305400097E5FF1F938545B217060020B6
:1024E800130606FE63FAC5008322050023A05500E3
:1024F80011059105E3EAC5FE17C50100130505EEB0
:1025080097050020938505FC1386818163FAC50031
:102518008322050023A0550011059105E3EAC5FEB5
:1025280013858181972500209385056B6377B50016
:10253800232005001105E36DB5FEFD42739002BC32
:102548008D4273904280930280087390023097E224
:10255800FF1F9382A2AA93E232007390523097220F
:102568000000938262EE7390123473002030397148
:1025780001436EC619A0397141536AC866CA62CC54
:102588005ECE19A0397101535AD056D252D44ED6C4
:102598004AD826DA22DC06DE330161408282411104
:1025A8004AC026C222C406C68282B24D4101024DEB
:1025B800924C224CB24B4101024B924A224AB249F8
:1025C8004101024992442244B240410182803D4384
:1025D8002A876373C3029377F700BDEFADE593765F
:1025E80006FF3D8ABA960CC34CC30CC74CC74107BB
:1025F800E36BD7FE11E28280B306C3408A069702D6
:10260800000096966780A6002307B700A306B700C8
:102618002306B700A305B7002305B700A304B70036
:102628002304B700A303B7002303B700A302B7002E
:102638002302B700A301B7002301B700A300B70026
:102648002300B700828093F5F50F93968500D58D0A
:1026580093960501D58D61B79396270097020000E0
:1026680096968682E78086FA9680C1171D8F3E96D9
:10267800E374C3F8A5B73367B500FD530D8B79E74D
:10268800B7877F7F9387F7F710419441B372F600BD
:102698003363F600BE92B3E262006397720C63186C
:1026A800D6065041D441B372F6003363F600BE92A9
:1026B800B3E262006398720A631BD604104594451E
:1026C800B372F6003363F600BE92B3E26200639120
:1026D800720A631ED6025045D445B372F6003363BE
:1026E800F600BE92B3E26200639A72086311D602E2
:1026F80010499449B372F6003363F600BE92B3E210
:102708006200639372085105D105E30FD6F61317DB
:10271800060193970601631CF7001357060193D728
:1027280006013305F7409375F50F91E982804183DF
:10273800C1833305F7409375F50F91E182801377D4
:10274800F70F93F7F70F3305F7408280034605002C
:1027580083C60500050585056313D60065FA3305AC
:10276800D640828011059105E312D6FE014582808C
:102778002105A105E31CD6FC014582803105B10580
:10278800E316D6FC014582804105C105E310D6FC5D
:1027980001458280B717004003C777051377E70F15
:1027A800A38BE704130700F8A38DE7043D47238CA8
:1027B800E70413075003A38CE7048280B71700408F
:1027C80083C7E7040D8993F7C70FC98F7327008064
:1027D800218B9386818109CB7327008023ACE1800C
:1027E80098425D9B73100780010001003717004075
:1027F800130670052300C704130680FA2300C704D4
:10280800010001002307F704230007047327008051
:102818009C42A18BD98F7390078023AC0180010063
:1028280001008280B717004083C7E7020D8993F73C
:10283800C70FC98F73270080218B9386818109CBAD
:102848007327008023ACE18098425D9B731007805A
:102858000100010037170040130670052300C70464
:10286800130680FA2300C704010001002307F702BA
:1028780023000704732700809C42A18BD98F739093
:10288800078023AC018001000100828041112A8366
:10289800014E930E407E130F0019930F400663E616
:1028A8006E149308001913034006B3781503854E78
:1028B8000D4FA14F337365020D891335150063E081
:1028C800BE161308F6FF7946729842081358080195
:1028D8003307C70213D61700BE0732976146B3F60F
:1028E800C60213068070B386C6023697A166F58FB6
:1028F80042075D8FB716004083C7F60293F70708B3
:10290800A307F1000346F10083C7F60293F707080F
:10291800E394C7FE8347F100B716004093F7F70F1B
:1029280063890714F3270080A18B938681816398BC
:10293800071401000100B717004013067005238033
:10294800C704130680FA2380C7040100010023AAE4
:10295800070303C6170313660608A388C702238064
:102968000704732600809C42A18BD18F7390078047
:1029780023AC0180010001001166B71500407D16E7
:10298800DC59C85DA98FF18FE5FFF3270080A18B83
:1029980089CBF327008023ACF1809C42DD9B7390A8
:1029A800078001000100B717004013067005238057
:1029B800C704130680FA2380C70401000100D8DB8E
:1029C80003C7170313670704A388E70223800704D4
:1029D800732700809C42A18BD98F7390078023AC0A
:1029E800018001000100410182807D133368E30307
:1029F8009308E016630E08003368F3039308D016B3
:102A0800630808009378330093B818009388D816A1
:102A180033081E01131E0801135E0E0149B56393A6
:102A2800E5030548638608000148630303002A8814
:102A380071087298FD15131E0801C205135E0E0178
:102A4800C181B5BD13F8150063F4BF007908D5B787
:102A580013381800E5BF83C7F60293F70708A307E2
:102A6800F1000346F10083C7F60293F70708E394E1
:102A7800C7FE8347F10093F7F70FF1DF65B5F3273A
:102A8800008023ACF1809C42DD9B7390078055B594
:102A98005971E2C486D6A2D4A6D2CAD0CECED2CCA0
:102AA800D6CADAC8DEC6E6C2EAC06EDE2A8C02D60C
:102AB800EF009020F3270080A18B138D818191CBAB
:102AC800F327008023ACF18083270D00DD9B7390F2
:102AD800078001000100B717004013077005238025
:102AE800E704130780FA2380E7040100010003C705
:102AF800F7021377770FA387E70203C7F702136775
:102B08008700A387E70223800704732700808327B1
:102B18000D00A18BD98F7390078023AC0180010031
:102B28000100F3270080A18B91CBF327008023AC11
:102B3800F18083270D00DD9B739007800100010061
:102B4800B7170040130770052380E704130780FABE
:102B58002380E7040100010003C7E7021377C70FCA
:102B68002387E70203C7E702136717002387E702F3
:102B7800238007047327008083270D00A18BD98F3A
:102B88007390078023AC018001000100130780C106
:102B98003347E5029169938709E8130650023D69B6
:102BA800B7440F0093840424856B130BA004014AD7
:102BB800814A13047005FD19B347F5023307C702AC
:102BC8003EC2930709A61309803E3347F7023AC469
:102BD80033472503054933198901135939403345CA
:102BE800950293840BFAB3948401811B3306C702C0
:102BF800B346F6023309E90236C6330B67031307F7
:102C08006055B3049502130500103309E902B34671
:102C1800FB02130B80FAB3C4A40236C8B347F90207
:102C2800939634003719004036CC930409043ECA01
:102C380073260080218A11CA7326008023ACC180C4
:102C480003260D005D9A73100680010001009307AA
:102C580070052380F400238064010100010003460D
:102C680039051376860FA309C90403463905136687
:102C78001600A309C90423800400732500800326D5
:102C88000D00218A498E7310068023AC0180010053
:102C98000100916CE17D73260080218A11CA732698
:102CA800008023ACC18003260D005D9A7310068056
:102CB80001000100930770052380F400238064015C
:102CC800010001000346390513660602A309C90479
:102CD80003560905336696012318C90403560905E6
:102CE8003366B601420641822318C90423800400D2
:102CF8007325008003260D00218A498E73100680F3
:102D080023AC018001000100034639051376060251
:102D18006306061603463905218A6DDE6810EF0042
:102D2800C07D73260080218A11CA7326008023ACD7
:102D3800C18003260D005D9A731006800100010012
:102D480023808400238064010100010003463905C3
:102D58001376F60DA309C90403463905136606025E
:102D6800A309C90403560905336696012318C90443
:102D7800035609053366B601420641822318C90481
:102D8800238004007325008003260D00218A498EC4
:102D98007310068023AC0180010001000346390549
:102DA800137606026308061003463905218A6DFE6C
:102DB80097D0FF1FE780A02D2A8632CE97D0FF1F1D
:102DC800E780E02C7246E30AC5FE03560905325532
:102DD800336696012318C9043D2F03463905218A15
:102DE8006DDE0355090503462905924733F5A90009
:102DF8003386C90232951D8DA24763D5A700B24715
:102E08006346F50E09466365560FC247850A1316D1
:102E1800150093FAFA0F3346F6026354A03A0506F2
:102E280009453346A60273250080218911C97325F7
:102E3800008023ACA18003250D005D9973100580E7
:102E48000100010023808400238064010100010047
:102E58000355C9022A96420641822316C9022380D5
:102E680004007325008003260D00218A498E731003
:102E7800068023AC01800100010031BD732600806B
:102E8800218A11CA7326008023ACC18003260D0055
:102E98005D9A73100680010001002380840023805E
:102EA8006401010001000346390513660602A309FF
:102EB800C9042DBD73260080218A11CA732600809B
:102EC80023ACC18003260D005D9A731006800100B3
:102ED800010023808400238064010100010003466F
:102EE800390513660602A309C90459BDE38F0AF020
:102EF80073260080218A11CA7326008023ACC18002
:102F080003260D005D9A73100680010001002380DE
:102F1800840023806401010001000346390513750C
:102F2800FC0F1376860FA309C90403463905498E99
:102F3800A309C904238004007328008003260D0018
:102F4800218A336606017310068023AC01800100D4
:102F58000100034639051D8A6317862773260080FA
:102F6800218A11CA7326008023ACC18003260D0074
:102F78005D9A73100680010001002380840023807D
:102F88006401010001000346390511651376F60D49
:102F9800A309C9040346390513660602A309C9042F
:102FA80003560905498E2318C904035609052165E6
:102FB800498E2318C9042380040073250080032642
:102FC8000D00218A498E7310068023AC0180010010
:102FD80001000346390513760602630E06200346F0
:102FE8003905218A6DDE6810092B73260080218A35
:102FF80011CA7326008023ACC18003260D005D9A98
:10300800731006800100010023808400238064017E
:10301800010001000346390511651376F60DA30971
:10302800C9040346390513660602A309C9040356F1
:103038000905498E2318C904035609052165498ED7
:103048002318C904238004007325008003260D007B
:10305800218A498E7310068023AC0180010001008B
:1030680003463905137606026303061C0346390531
:10307800218A6DFE97D0FF1FE7806001AA8C97D048
:10308800FF1FE780C000E30C95FF03560905116593
:10309800498E32552318C904BD2903463905218AAA
:1030A8006DDE73260080218A1385818109CA732603
:1030B800008023ACC18010415D9A73100680010026
:1030C800010023808400238064010100010003467D
:1030D80039051376F60DA309C90423800400732863
:1030E80000801041218A336606017310068023ACE4
:1030F8000180010001000358090503462905E2473C
:1031080033F809013386C90232983308F8401306A8
:10311800800C3306C802D2473346F60263550015C1
:1031280005060948334606036351C0140358C9020B
:103138009308F00F13585800329863D6081F0946B1
:1031480063734619F3270080A18B89CBF32700808E
:1031580023ACF1801C41DD9B7390078001000100C6
:1031680037170040930770052300F704930780FA88
:103178002300F704010001008356C70289678117FD
:10318800D58FC207C1832316F702230007047327CC
:1031980000801C41A18BD98F7390078023AC0180DC
:1031A80001000100B650265496540659F649664A5D
:1031B800D64A464BB64B264C964C064DF25D656199
:1031C80082807D16B1B973260080218A11CA7326C0
:1031D800008023ACC18003260D005D9A7310068021
:1031E80001000100238084002380640101000100A4
:1031F800034639052DBB73260080218A11CA732620
:10320800008023ACC18003260D005D9A73100680F0
:103218000100010023808400238064010100010073
:103228000346390513660602A309C90469B3732660
:103238000080218A11CA7326008023ACC18003262E
:103248000D005D9A73100680010001002380840040
:103258002380640101000100034639051366060254
:10326800A309C904C5B37D166DBD55CE0358C9025F
:10327800B308C040135858006357180B09466374C5
:103288004605F3270080A18B89CBF327008023AC68
:10329800F1801C41DD9B7390078001000100B71786
:1032A8000040130770052380E704130780FA238082
:1032B800E7040100010003D7C7027D8B2396E702CC
:1032C80023800704E9B573260080218A09CA73267A
:1032D800008023ACC18010415D9A73100680010004
:1032E800010023808400238064010100010003564B
:1032F800C9021376F60F3366760142064182231619
:10330800C90223800400732800801041218A336693
:1033180006017310068023AC018001000100050A34
:10332800137AFA0F31B2F3270080A18B89CBF327E8
:10333800008023ACF1801C41DD9B73900780010065
:103348000100B7170040130770052380E70413072F
:1033580080FA2380E7040100010003D7C70216069C
:103368003A96420641822396C70299BF914763EE77
:10337800B70217A701001307A7F38A05BA959C415E
:10338800BA978287B717004003A7470B1345F5FF85
:10339800698F23AAE70A03A7070B698F23A8E70AFF
:1033A80003A7070A798D23A0A70A8280B7170040D0
:1033B80083A6470B1347F5FFF98E23AAD70A83A6DE
:1033C800070B558D23A8A70A83A6070A758F23A084
:1033D800E70A8280B717004003A7470B498F23AA43
:1033E800E70A03A7070B1345F5FF45BFB7170040CA
:1033F80083A6470B1347F5FF758F23AAE70A03A790
:10340800070A598D4DB7B717004003A7470B498FD7
:10341800EDB7914763EEB70217A70100130787EAD4
:103428008A05BA959C41BA978287B717004003A7C7
:10343800470D1345F5FF698F23AAE70C03A7070D6E
:10344800698F23A8E70C03A7070C798D23A0A70C85
:103458008280B717004083A6470D1347F5FFF98E02
:1034680023AAD70C83A6070D558D23A8A70C83A6DE
:10347800070C758F23A0E70C8280B717004003A7BD
:10348800470D498F23AAE70C03A7070D1345F5FF3E
:1034980045BFB717004083A6470D1347F5FF758F43
:1034A80023AAE70C03A7070C598D4DB7B71700409F
:1034B80003A7470D498FEDB7B717004003D587001D
:1034C800420541819377050491EB9377F5013755D0
:1034D800E801130505803345F50282809377050CD2
:1034E800130700046397E7009377F50137459C1CA1
:1034F800CDB72165130505D0828037E700E01C436E
:103508005443A183E206D58F1CC1FD572320F71829
:103518002322F718828013178500B7E700E023A05D
:10352800E710618123A2A7108280B7F700E08847DF
:10353800CC478280814737370040A14663C4C70023
:10354800328582800345B740E38EA6FE3385F500B9
:103558000345050085072304A740CDB797F7FF1F4C
:10356800938747319C43171700201307E7663E955A
:10357800636EE50017570020130747886368A700A4
:1035880017F7FF1F2328A72E3E858280FD57EDBF22
:10359800411122C406C62A8405372947B307E50224
:1035A800B2408D83B3D7870222449507B3D7E70289
:1035B80037370040C207C1832316F7404101828094
:1035C800716541111305052006C6D937B737004084
:1035D800130770F82381E7400D47A381E7401307DD
:1035E8000004A380E74005472387E740B240410134
:1035F8008280238E018023A00182B717004003A791
:10360800070CB706C0FFFD16758F23A0E70C03A7AC
:10361800070DB7064000558F23A8E70C03A7070C32
:103628003D9B23A0E70C03A7070D1367070123A8F9
:10363800E70C828011456FF0AFC5411193962500C4
:10364800AA852D4506C697D0FF1FE780206CB2409B
:10365800014541018280411126C29394250022C46C
:103668004AC02A843289A686AA850146254506C607
:1036780097D0FF1FE7808069A6864A86A2852945DC
:1036880097D0FF1FE7808068B240224492440249E5
:10369800014541018280011122CC06CE3714004039
:1036A80026CA4AC84EC652C483447405034AB405A0
:1036B8008349840503499405EFF0CF8D8347A4051A
:1036C80093F4F40F137AFA0F93E71700230DF40419
:1036D80093F9F90F1379F90FB717004003C7A70536
:1036E800058B6DFF03D5C705A38D4705238C3705CB
:1036F800A38C2705A38B9704F2406244D244424925
:10370800B249224A0561828041119397050122C47A
:1037180006C6C1872E8463DD0700EF30F10519C1A5
:10372800EF30617E2165218DB240224441018280C3
:1037380093F7150013C51500E5FB9397250163D092
:103748000702EF502173FD3537F60200130606E035
:10375800896503C54182EF3051310965E9B793970F
:1037680015010145E3D207FC17A50100130545BB68
:10377800EF80310F13060064916503C54182EF3075
:10378800D12E11654DB71D71494697A50100938546
:10379800A5B417B501001305E5A786CEA2CC97E01E
:1037A800FF1FE780E0CA01E917A50100130505B46A
:1037B800EF80310B01A037F700E0795610CBFD56AA
:1037C80054CBB7E700E0056423A087109306F00206
:1037D80014C323A08718010001001306C003814504
:1037E800480897E0FF1FE78020C1970700209387CC
:1037F800E7973ECAA167938707E03ECEB707010562
:10380800938707103ED0ED472312F1028547230323
:10381800F10297070000938787E2BEC4970700006C
:103828009387A7E3BEC697070000938747D03EDA81
:1038380097070000938767E63EDE970700009387A7
:10384800A7DFBEC0B737010D9387D7D0B7F50700FC
:103858003ED48146970700009387271D7000E10535
:1038680019453EDC231C810097D0FF1FE780004AE2
:1038780058088147994670003E960346060085071A
:103888000507A30CC700E398D7FED24791C7035793
:10389800810185676373F70001A04808EF30516222
:1038A800AA8501C917A50100130585A5EF80216721
:1038B80001A0F64066442561828041111705000089
:1038C8001305C5E406C622C4EF30D15B13844182D8
:1038D8002300A4008D28FD22034504002244B240A1
:1038E80013060032896541016F303118F3270080D3
:1038F800A18B1387818189CBF327008023ACF180CA
:103908001C43DD9B7390078001000100B71700403E
:10391800930670052380D704930680FA2380D70482
:1039280001000100C8DB23800704F32600801C4344
:10393800A18BD58F7390078023AC01800100010013
:1039480023A401828280411106C6F3270080A18B3F
:103958001387818189CBF327008023ACF1801C4336
:10396800DD9B7390078001000100B71700409306A4
:1039780070052380D704930680FA2380D7040100BA
:10398800010083C6F70293F6A60FA387D702238008
:103998000704F32600801C43A18BD58F7390078002
:1039A80023AC018001000100F3270080A18B89CBA3
:1039B800F327008023ACF1801C43DD9B73900780C4
:1039C80001000100B7170040930670052380D70453
:1039D800930680FA2380D7040100010083C6F7020A
:1039E80093E62600A387D70223800704F3260080E6
:1039F8001C43A18BD58F7390078023AC01800100F5
:103A080001000545EFE01FE235311305407E81478F
:103A18000147814605468545EFE05FE7B24001452D
:103A280041016F30D16F011122CC2A84680006CE83
:103A380026CAE13497C0FF1FE7806065B307A4403A
:103A48006376A400B707C0A8A297898F3737E2A189
:103A580081170117637AF7003245753C0945F24032
:103A68006244D244056182802285493532456534F5
:103A7800373700408347574093F70704B1C393840F
:103A880081829C400D45E1FF694597D0FF1FE78083
:103A9800E0819C408DC31305D402B707C0A863F723
:103AA800A700370540571305D5022295813597C0E1
:103AB800FF1FE780405F0545EFE05FD0014545B750
:103AC80001004DBFF3270080A18B1387818189CB2B
:103AD800F327008023ACF1801C43DD9B73900780A3
:103AE80001000100B7170040930670052380D70432
:103AF800930680FA2380D7040100010083C6E700FB
:103B080093E686002387D70023800704F3260080E6
:103B18001C43A18BD58F7390078023AC01800100D3
:103B28000100F3270080A18B89CBF327008023AC09
:103B3800F1801C43DD9B7390078001000100B717DB
:103B48000040930670052380D704930680FA2380EB
:103B5800D7040100010083C6170393E60602A38871
:103B6800D70223800704F32600801C43A18BD58F3E
:103B78007390078023AC018001000100B7E700E0E3
:103B88003707001023A0E7108280411197950100A4
:103B98009385057E17A501001305459006C6EF809D
:103BA800013817A5010013056590EF804137B24031
:103BB800294541016F80A13A4111979501009385EC
:103BC800657C17A501001305658D06C6EF802135B4
:103BD80017A501001305458BEF806134B2402945D4
:103BE80041016F80C1374111979501009385C57ACE
:103BF80017A501001305858A06C6EF804132B24039
:103C0800294541016F80A135411122C417A5010042
:103C18001305C5882E84979501009385A57806C657
:103C2800EF80E12F2945EF8081330DC4979501007E
:103C38009385457717A5010013054586EF80212E4A
:103C4800A28517A5010013056599EF80412D294527
:103C5800EF80E1302244B240056603C5C1821306F5
:103C680006C8854541016F304160797122D426D25A
:103C78004AD02E842A89B28481457146480006D6E6
:103C8800EFE0FF9497F7FF1F93878796DC4783D76A
:103C98000700231421012313F100EF00903C85470E
:103CA800A305F100930700192305A1003EC6268647
:103CB800FD57A2854800230AF100EF00F03CB250FE
:103CC80022549254025945618280411122C406C689
:103CD800834705002A849DC3979501009385057144
:103CE800179501001305857BEF8061234C4017A5CC
:103CF800010013056595EF80812271A85841B70727
:103D0800CF009387777D631AF71A979501009385FB
:103D1800E56D1795010013056578EF8041201C4477
:103D28008356E4008355C40003C6070017A50100A5
:103D380013050593EF80A11E2945EF804122035604
:103D4800C4000C441385010697D0FF1FE780406725
:103D580083C701061307200A638AE7001307300A9E
:103D68006380E712B2402244410182800357C400B5
:103D78008D47979501009385656717950100130591
:103D8800E5716300F702EF80811917A5010013059B
:103D9800258FEF80C1182244B240294541016F8028
:103DA800011CEF80C11717A501001305E58EEF80F0
:103DB80001172945EF80A11A0355E400930720F85D
:103DC8000546938501062380F10645359377F50F5F
:103DD8002A8495C797950100938545611795010039
:103DE8001305C56BEF80A1139375F40F17A5010098
:103DF8001305458EEF80A1122945EF80411697954E
:103E080001009385A55E1795010013052569EF80CC
:103E1800011117A501001305258DEF8041102945D3
:103E2800EF80E1134165930730FA05469385010653
:103E38007D152380F106153D9377F50F2A8495C7E4
:103E4800979501009385855A179501001305056517
:103E5800EF80E10C9375F40F17A501001305858712
:103E6800EF80E10B2945EF80810F0566130606C830
:103E780091452244B24003C5C18241016F30E13E01
:103E88000357C40085476301F7029795010093859E
:103E9800E5551795010013056560EF80410817A5E2
:103EA80001001305A587F5B58357E40005661306D9
:103EB80006C82397F182A1456DBFB707CC00938749
:103EC800777D631AF7029795010093852552179518
:103ED80001001305A55CEF8081041C448356E400AF
:103EE8008355C40003C607001795010013054577DD
:103EF800EF80E1024DB5B707CE009387777DE303E6
:103F0800F7E6979501009385654E1795010013050F
:103F1800E558EF80C1004C4017A501001305C58185
:103F2800D9BB411122C406C6834705002A8485CB24
:103F38009795010093858549179501001305055646
:103F4800EF70F17D4C40179501001305E561EF70A6
:103F5800117D2244B240294541016F8041005841FA
:103F68001DEF979501009385654617950100130588
:103F7800E552EF70D17A1795010013056560EF706F
:103F8800117A2945EF70B17D2244B240116603C50C
:103F9800C182130606E8914541016F30012DA167E2
:103FA8009386D7036311D70297950100938505423D
:103FB800179501001305854EEF707176179501006E
:103FC8001305055D6DBFED079795010093850540C5
:103FD800179501001305854C6315F702EF703174CE
:103FE800179501001305055CEF7071732945EF7093
:103FF80011772244B24003C5C182914541016F3017
:10400800013AEF70D1714C40179501001305C57244
:104018003DBF411106C6EF90D04119E5EF10D035EC
:10402800B24041016F204073B2404101828041118A
:10403800979501009385C538179501001305054626
:1040480006C6EF70D16D2945EF707171B24041011C
:10405800C9B7411106C622C426C285476395F50231
:10406800AA84979501009385A53717950100130534
:10407800E542EF70D16AA685179501001305C5566C
:10408800EF70F1692DA02E848947979501009385DB
:10409800253517950100130565406311F402EF708B
:1040A80011681795010013052556EF7051672244D2
:1040B800B2409244294541016F70716AEF703166D0
:1040C800A285179501001305E5555DBF011122CCA6
:1040D8002EC62A84979501009385852D1795010092
:1040E8001305C53B06CEEF7091633246A28517953E
:1040F800010013052554EF7091622945EF70316670
:1041080083C7018381EF97E7FF1F9387674EDC47DB
:1041180003D70700C167FD17631DF7006244F2402B
:10412800116603C5C182130606E8914505616F3023
:10413800C113F24062440561828093F7250081C76C
:1041480013C525008280411122C406C693F71500C5
:104158002E84B9CF97E7FF1F93878749DC4703D59C
:104168000700EF00E1450DCD0545EF8030779795C5
:1041780001009385A52A1795010013052532EF70D4
:10418800115A179501001305E519EF705159294582
:10419800EF70F15C13451400B24022444101828063
:1041A80013060064854503C5C182EF30010CDDB7F5
:1041B80093F745008DCB9795010093852526179594
:1041C80001001305A52DEF709155179501001305F2
:1041D800A516EF70D1542945EF707158EF10F07B98
:1041E8001345440055BF93F785000145D5D785454C
:1041F80003D5E182EFE0906D979501009385052244
:104208001795010013058529EF7071511795010065
:104218001305C513EF70B1502945EF70515413457C
:1042280084009DBF01113546979501009385452966
:10423800179501001305457A06CE22CC97D0FF1FAB
:10424800E780002101E9179501001305250AEF70A1
:10425800516101A097E7FF1F9387C7673EC4856731
:1042680093870780970500009385E5DE1795000082
:10427800130525003EC6EF80707EB7F5070081461E
:104288000A86E105194597D0FF1FE78020A819463F
:104298008A851385010897D0FF1FE78060123400D4
:1042A8000A86979501009385254C179501001305FB
:1042B800254DEF10903A2A840DC9979501009385F2
:1042C800E514179501001305651DEF705145A2858A
:1042D800179501001305C51FEF7071442945EF704C
:1042E8001148F240624405618280EF70704617956C
:1042F80001001305E513EF00D057EF40303DEFF014
:10430800A00517E5FF1F1305652CEFE090721795C0
:1043180001001305E512EFF0E0052A84EF10603183
:10432800EFA0102BEF10E123EF20804AEF10F00BE5
:10433800EFD0E007979501009385450D179501008B
:104348001305C51509C8EF70913DA28517950100A1
:104358001305451A51B7EF70913C179501001305E5
:10436800A51BEF70D13B2945EF70713FEFC0906AF4
:1043780085472388F182EF90D00B31C997950100CA
:104388009385C5081795010013054511EF7031395C
:10439800179501001305C519EF7071382945EF709D
:1043A800113C854503C5C182EF2031669795010010
:1043B8009385C505179501001305450EEF70313635
:1043C8001795010013050519EF70713501BF91317B
:1043D800F1BF411117050000130565D606C6EF3079
:1043E800612A2386A18217E5FF1F13056520EF00C8
:1043F80010010D3DB24041016FF0AF9F01113546EC
:10440800979501009385C50B179501001305C55CA9
:1044180006CE97D0FF1FE780A00301E9179501009A
:1044280013050533EF70F14301A0EF5031632AC63D
:10443800EF102155EF106134EF60506CF2403245B7
:104448000561828041111305800406C697C0FF1FCD
:10445800E780402F85457D55EFE05FF185457D5527
:10446800EFE03FFB371700408327870A8D45130588
:10447800002093E707202324F70AEFE03FEFEFF04F
:104488002F9417A501001305E5D8EF70913D1795F6
:10449800010013056554EF70D13CEFF0CFAEEFF09B
:1044A800CFC1A93F3D3797C0FF1FE780C0790145BD
:1044B80082804111B2862E86AA852D4506C697D0E0
:1044C800FF1FE780A084B240014541018280AE868B
:1044D8000146AA85254517D3FF1F67002383930745
:1044E800000463E6C7021D71A2CC2A84080886CEA0
:1044F80032C6EF707117B2461008A285294597D0C9
:10450800FF1FE780A080F640664425618280395508
:1045180082809387418318429C4383D64500034594
:10452800070083C5C700035646006396A50083D5D8
:10453800E700638DD502011106CE2386A7002397D5
:10454800D700B705CF00DC4B9385757D05077D1631
:104558002EC2230001003AC42316C1002317D1003C
:1045680099C30A858297F2400561828082806D71C5
:104578003C083EC6B707E500232291103EC8AA842E
:104588003C083285232611103ECA2324811023209B
:1045980021112E89EF2060432A8497950100938585
:1045A800652317950100130565EFEF705117A28574
:1045B8001795010013050532EF7071162945EF7044
:1045C800111AB705CB009385757D6800EF0010249C
:1045D800A2856800EF200035014781467000CA8532
:1045E8002685EF00F04215C52A849795010093852A
:1045F800651E17950100130565EAEF705112A28533
:10460800179501001305C52DEF7071112945EF703D
:1046180011158320C110032481108324411003291C
:104628000110516182809387418318429C437971BC
:1046380022D406D60348070083C807012A8483D6F4
:104648004500035546006396080183D82701638D0A
:10465800D8022388070105072399D7003708CC001B
:10466800DC4B1308787D3ACC1307F5FF42CA2308C0
:104678000100231EE100231FD10099C7080832C694
:104688002EC482973246A2452285D535B25022548F
:10469800456182806D713C083EC0B707E5003EC2A7
:1046A8003C083EC423261110232481102322911094
:1046B800231701002318010023190100231A010000
:1046C800231B010097E7FF1F83D787F699E3C1678C
:1046D800FD172316F10097E7FF1F83D787F581EBB6
:1046E800938741839C439C43DC4783D7070017E4A7
:1046F800FF1F1304E4F3584C2317F10083574400B9
:10470800484B2318F10005ED979501009385851313
:1047180017950100130585D8EF70710017950100F2
:1047280013058513EF70A17F2945EF70510383208E
:10473800C11003248110832441105161828097E7BE
:10474800FF1F83C757EF99E7EF20E17B5C4C23AA53
:104758000700F1BFFD1797E6FF1FA38EF6EC03567F
:104768000701834704014C470A85230BF100EF201A
:104778008019938741839C430147814688430A8671
:104788006C00EF00F028AA8405C99795010093856D
:10479800650B17950100130565D0EF704178A68564
:1047A800179501001305050CEF7061772945EF7027
:1047B800017B5C4CC84B49BF97E7FF1F83C7B7E72E
:1047C800EDDB1044854503C58183EF20112A85B7A9
:1047D800DC4DDC4B99C7904503C5818391456F201B
:1047E800D12882805C4EDC4BA1C7B9C1411122C4DB
:1047F80017950100130585CA2E84979501009385A6
:10480800A50206C6EF70A171A285179501001305D0
:10481800A507EF70C1702945EF7061742244B2405A
:1048280003C5818313064006914541016F20F1239A
:104838008280411122C417E4FF1F130464DD1C4C5D
:1048480006C689C7DC4399C34C4882975C4CC84B61
:10485800EF20616B5C4CB240224423AA070041015F
:1048680082801387E180834707009306F00B850752
:1048780093F7F70F63E7F6002387F18003450700F6
:104888008280930700F8CDBF83574500638D070CDE
:1048980001114AC817E9FF1F130989D952C4032A0D
:1048A800C90106CE22CC03274A0126CA4EC6F157B3
:1048B80029EB1307D00DFD576365C7042A84130538
:1048C800860042054181B284AE89EF208166232AA1
:1048D800AA000325C9015C4995EF979501009385C6
:1048E800A5F217950100130565BBEF704163179595
:1048F80001001305A501EF7081622945EF7021665B
:10490800DD57F2406244D2444249B249224A3E85C8
:104918000561828093874400B705CF002319F5000D
:104928009385757D3105EF00606E0325C9018345C8
:1049380064003105EF10107F0325C9012686CE8556
:104948003105EF10507C7146A2854A85EF70C15140
:10495800504401CA854503C58183EF201111814761
:104968004DB70D3BEDBFFD573E858280411122C4F6
:1049780017E4FF1F1304C4CB5C4C06C6C84BEF20DA
:1049880081585C4C2244B24023AA070003C58183A6
:10499800854541016F20B120411126C2938441838E
:1049A8009C4006C622C4BDCFDC43ADCF5CC123000A
:1049B800B5002A8497950100938545E01795010075
:1049C8001305C5ADEF70A1552945EF7041599C40BD
:1049D80023A4070023A2070097E7FF1F938747C375
:1049E800DC4FDC4B99C32955A93597E7FF1F9387FF
:1049F80027C4DC4FDC4B91C3953F894503C58183B0
:104A0800EF20F119914503C58183EF2051199C408E
:104A180003A347016308030022852244B24092445D
:104A280041010283B2402244924441018280011133
:104A3800328506CE22CC26CA2E84EF101079AA849D
:104A4800979501009385C5DA17950100130505A50B
:104A5800EF70E14C0307840003566400835544005B
:104A6800A68617950100130525E4EF70414B2945EB
:104A7800EF70E14E97E7FF1F83C7E7B96397970089
:104A88000145453B81450A85013FF2406244D244D5
:104A9800056182806D712324811023261110232241
:104AA800911093F745002E84638F07103C083EC091
:104AB800B707E5003EC23C083EC42317010023188F
:104AC800010023190100231A0100231B010097E7A5
:104AD800FF1F83D7E7B399E3C167FD172316F100DA
:104AE80097E7FF1F83D7E7B281EB938741839C4306
:104AF8009C43DC4783D7070017E7FF1F130747B11D
:104B08002317F100544F835747002318F100DC4A5C
:104B180095EF979501009385E5D117950100130549
:104B2800E597EF70C13F179501001305E5D2EF70C7
:104B3800013F2945EF70A142134544008320C1106D
:104B480003248110832441105161828097E7FF1F5D
:104B580083C777AC2555B5C7FD1717E6FF1FA30C0C
:104B6800F6AA03D6060183470701CC460A85230B1C
:104B7800F100EF105059938741839C4317E7FF1FBB
:104B8800130707A997A601009386C68388430A8658
:104B98006C00BD2DAA844DD197950100938585C9D8
:104BA800179501001305858FEF706137A685179556
:104BB8000100130525CBEF7081362945EF70213AA6
:104BC8002685853995BF93F725008DC341468145D4
:104BD800280897D0FF1FE780208225559939280893
:104BE8009305F00F553B1345240089BF93F7150033
:104BF8000145A9D7EFF01FAA1345140081B75C4DF2
:104C0800411106C688C3170500001305E5E823AA65
:104C1800F182EF203127B240238CA1820145410166
:104C28008280EFD23F962A8408452E89B28909C925
:104C380000C1970500009385C5736105EF005125F4
:104C480081447D5AEF10A00363C3A4048144EF108C
:104C5800000463C6A40497F7FF1F9387A7549C43D7
:104C6800DC47B307F94091872302F4006381090404
:104C78008327C900B307F4409587A302F4001C4CAE
:104C880089C79C4799C3228582976FD0FF925C445D
:104C9800139714008504BA972390470165B71C48F9
:104CA800139714008504BA97239007004DB78327FC
:104CB80089000547B307F4409587A302F40083579A
:104CC8000400638EE7028DC309476384E7040D4738
:104CD800E397E7FA979701009387C71E1CCC97972D
:104CE80001009387271F11A897970100938707E56D
:104CF8001CCC97970100938767E55CC849B79797DD
:104D080001009387A7D01CCC97970100938707D100
:104D1800EDB7979701009387A71F1CCC97970100C1
:104D280093870720D9BF85E1EFD27F8700461844D3
:104D38008347940075839D8B6315F700EF009019E6
:104D480048C46FD01F888280EFD2DF831389350073
:104D5800C16442094111AA890144F1141359090196
:104D6800054A2EC6EF00B071B2456346A40001455E
:104D780041016FD07F8483A7090013171400BA97E5
:104D880083D707006388B7006394970063742A0188
:104D98000504C1BF0545E9BFEFD2EFFDAA892E89F9
:104DA800328BB6843A8ABE8AEF80B0684DC12685B8
:104DB800EF1050318D4763E5A7007D556FD02FFF69
:104DC80083DB4400EF00B0712A84EF0090729307F0
:104DD800740031443305850263C5A702EF003070C3
:104DE800EF00F06F2A84EF00D0709307740031440D
:104DF8003305850263CDA702EF00706E9307450067
:104E080019A8EF00106F330585021307F0179307F1
:104E1800C017E357A7FC2D55E3C277FB63000B02CD
:104E2800D6865286A6854A85EFF0300841BFEF0046
:104E3800506C330585029307C5FFF1BF83274900EE
:104E48001385C90083D52700013779F9BDB769559E
:104E5800B5B797F7FF1F2399A73497F7FF1F9387D5
:104E68006734904381470C463307F5004207418376
:104E78006393B70082805446139847008507C2960B
:104E88002390E600D5B797F7FF1F9387A7319C4378
:104E980003C58700828017F5FF1F0355E530828020
:104EA800EFD2EFEFC1671387D7FF6307E5026368A7
:104EB800A700F117630EF50001456FD08FF0138737
:104EC800E7FF630EE500FD171D8D13351500F5B7D7
:104ED800EF4040387D15D5BFEF40C015E5BFEF4026
:104EE8002014CDBFEFD2AFEB4111AA8401442EC6E6
:104EF800EF00F059B2456346A400014541016FD067
:104F08004FEC9C48131514003E9583570500E38722
:104F1800B7FE0504E9BF03485500814693F7F60F2D
:104F280063E5070181473E8582805845939756007F
:104F3800BA9703D727006316B70003D70700E3041F
:104F4800C7FE8506E1BF8346450001479377F70F03
:104F580063E4D700814711A81C45131657000507BD
:104F6800B29703D60700E313B6FE3E858280EFD2E0
:104F78006FE193170501C18797FAFF1F938A8A2269
:104F88006353F00883A70A00C0479C4703570400EF
:104F9800198D420541816366F500014422856FD071
:104FA800AFE112052A94DDBFDC4713944900014A9A
:104FB8003E94834744006341FA02014A8347540000
:104FC8006346FA028509C20993D9090183A70A0031
:104FD8009847E3EBE9FCD1B71C4413195A00A6859E
:104FE8003E994A85013709ED050AE1B75C44131972
:104FF8005A00A6853E994A85F53519E1050A7DBF0F
:10500800E30209FC61BFAA848149C9B7EFD22FD94D
:105018001C452A8481E79307C5001CC51C4423123C
:1050280004001CC09307F00F63E9B70093F5F50F70
:105038002285EF10300F6FD0CFD893940501C16748
:10504800C18063F7F500A6852285EF105011E5B7FA
:10505800C18193F5F50F2285EF10D00CA685228526
:10506800EF10900DC9BF97F7FF1F9387A7138843C9
:1050780082801C4599C797F7FF1F23A5A7120145F2
:1050880082807D55828097F7FF1F9387A7119843E9
:1050980083474500484792073E958280EFD22FD03C
:1050A800617100451C183EC6B70780013EC81C1830
:1050B8003ECA8357440002CE02D002CC231EF10020
:1050C800834784002A8902D22301F1023C083ED496
:1050D80002D6553F835705002316F102EF301067BB
:1050E8002307A1025C4003556400F18313F71700FE
:1050F8008347F10252055181F99BD98FA307F10229
:10510800EFF0004C39C5AA8403550500EF805033F1
:1051180083D704002AD26800231CF10083D7240017
:10512800231DF1001C4803D647008C43EF10A07DD7
:105138008347B400CA86179601001306A68681170E
:10514800A305F4006C004810EFF020565D616FD0A5
:105158004FC72155E5BF1C45B1CF03C5A7008946F8
:1051680013576500630BD7028D46630ED702854639
:105178006300D702130740063305E50203C7B700EB
:10518800418B15CB83C7B700BD8B3355F540828063
:105198001375F5031307803EC5B709671375F50343
:1051A80013070771D1BF372709001375F5031307D4
:1051B800077CD9B701458280EFD26FBE03A985006D
:1051C800630409048347B900AE8493F7070E91CFAF
:1051D80003459900930520030D810505B305B50224
:1051E80088446105EF00A15605A02E85AD372A84B5
:1051F80001CDCD218325C900B307B54063F88700E9
:105208002E94B305A440E9FD6FD0AFBB8545C9BF57
:10521800EFD2EFB82A8403D50500011132C636C48F
:105228003AC22EC002CA02CC02CEEF80702182455B
:105238002ACA22852ECC813D03570500231EE10092
:10524800EF30D050A24632469247230FA10036874E
:105258004C08B28622850146EFF01FB405616FD075
:105268004FB6EFD2CFB361711C183EC6B7078001A5
:105278003EC81C183ECA3C0800453ED4AA8402CC4D
:1052880002CE02D002D202D6FD3B83570500355923
:105298002316F102EF30904B2307A10209C483576C
:1052A800440091E721594A855D616FD08FB103555C
:1052B800640052055181EFF0A0302A8965D58347F3
:1052C800B40093F7070E89C713058401EF00A149BD
:1052D80083574400231EF100834784002301F10211
:1052E8005C4003550900D98313F707088347110267
:1052F800231CA10093F7F707D98FA300F102835766
:105308002900231DF1005C40F18313F71700834740
:10531800F102F99BD98FA307F102EF8070122AD20C
:1053280051D1834794006800139757008347B4000E
:10533800FD8BD98FA305F4001C4803D647008C4386
:10534800EF10605CA687178701001307A765740034
:1053580005464C102685EFF03FA42A8929D58347B6
:10536800B400A685FD8BA305F400B9352DBFEFD297
:105378000FA3832485FE2A8441112685E93B8347B0
:1053880034FF93F7070E9DC32AC62685EFF01FD179
:1053980019C9834734FFB245FD8BA309F4FE81C5C3
:1053A8002285EF00C13A41016FD0AFA16DDD83279F
:1053B800C4FF2685829765F9834734FF93F7070E64
:1053C80081C72285EF00213A032584FE593DE1BFBC
:1053D800EFD2EF999C4141112A8903C707008947F9
:1053E8002E8493566700638CF6020D466382C604CA
:1053F8009307F0076302F7022E85EF10005DAA8479
:105408008149C16B130C490097F7FF1F938787D910
:105418009C43984763ECE90241016FD00F9903D789
:1054280045008547E3FAE7FE2E85EF10E05DC1BF32
:1054380003D74500E3F2E7FE2E85EF100059AA8452
:105448002285EF10E059C204C98C5DBFDC470355C3
:10545800A900139A49003E9A93170501C187635D15
:10546800F00083570A006395A70263E57403832756
:10547800CA00034D5A001DA0A1672167A98F130711
:10548800F7EFE374F7FE63950900EFF07FA171FD74
:1054980085099DBF83278A00034D4A00835DA900C3
:1054A80003576900216A138BC7003AC6814A33CA79
:1054B8004D01631E5D0197F7FF1F938727CF9C431C
:1054C800E1DBA2866286814526858297D1B7A167EE
:1054D8009387F7EF930C4BFF63F04703B2455A8568
:1054E800EFF09F8619CD03278B00104719CA104388
:1054F8006380C4023107D5BFEE856685EFF09F9EB5
:1055080071FD93861A0093FAF60F130B0B0255B729
:10551800835644005C43E3EDF6F622853AC6EF1065
:10552800C039A1679387D7042A8A035D44003247AC
:1055380063E897008347D90093E707F8A306F900C3
:105548001C4766852286E2858297C1670844FD1755
:10555800337AFA00529508C02312A40115BF97F7B1
:10556800FF1F938727C49843814715C31447814772
:1055780063FFD500939745004C47BE9519C903C7EB
:10558800550081476375E600DC451606B2973E85EF
:10559800828003C745008147E37BE6FE16069C45EB
:1055A800F5B7EFC23FFEAA892E8A814497FAFF1FFA
:1055B800938A4ABF83A70A00984763E4E4006FC050
:1055C800BFFFDC471394440001493E9413BB140009
:1055D80083474400634BF900014913BB1400834718
:1055E8005400634FF9008504F1B708449317590034
:1055F8005287DA860146A2853E9582990509C9BF78
:105608004844931759005287DA860546A2853E9585
:1056180082990509E9B7EFC29FF8814517F5FFFFA1
:105628001305656097F7FF1F239007B89D3F6FC06C
:105638005FF997F7FF1F9387E7B69C4399CBEFC2B3
:105648001FF6814517F5FFFF1305E55D993F6FC00C
:105658005FF78280EFC21FF341112315E1002E8905
:10566800B284B6893A8681460147ED452A84EF20FF
:10567800E16F2AC61DCD0356A100CE85EF60C17E1D
:10568800CA852285EF20F102058915C122850146C8
:105698002C0023149100EF20D1182A8409C5ED4568
:1056A8002800EF20017B228541016FC0FFF04944AB
:1056B800FDB76554CDBF5C41FD175CC18280EFC268
:1056C8001FEEEF10713195473305F50281450D81C5
:1056D8006FC03FEFEFC2BFECEF10113095473305B5
:1056E800F5020D816FC0FFEDEFC27FEB035505009A
:1056F800EF2001446FC0FFECEFC27FEA03550500BD
:105708003287AE8617D6FF1F035666F997F5FF1F37
:10571800938505AA81376FC0DFEAEFC25FE8EF50D3
:1057280031476FC01FEAEFC29FE797F5FF1F9385C8
:1057380025A8EF20F11501456FC0BFE8EFC23FE68D
:10574800814517D5FF1F035585F1EF20B1006FC0C4
:105758005FE7EFC2DFE497F5FF1F938565A6EF20AB
:10576800311301456FC0FFE5EFC27FE3814517D5CF
:10577800FF1F0355C5F4EF20E17D6FC09FE4EFC222
:105788001FE22E85EF60E04FEF6030056FC07FE3CA
:10579800EFC2FFE0EF60100F6FC0BFE25C49E11796
:1057A8005CC95CC583572501A1072319F5008357F8
:1057B8000501A1072318F5008280F1473305F5029A
:1057C80097F7FF1F9387C7A19C433E9582808D471B
:1057D8006317F60603D74600854763F2E706EFC26C
:1057E8001FDC368536842E89EF10201E39C1835779
:1057F800440093140501C18063ED97022285EF10E0
:10580800C01CFD14231294009307A002630EF50038
:105818009307B0026301F50293079002631BF5003A
:105828002285EFD0302931A00146CA852285EF8034
:10583800F0306FC01FD92285EF00105ADDBF82807B
:1058480097F6FF1F9386069A9C42014599CF984385
:10585800D44217F6FF1F2327E6986396D70097F6DA
:10586800FF1F23A3E6981385C7FE8280EFC23FD3AC
:105878007D2E7144330585029145EF80400401E592
:1058880065556FC01FD497F7FF1F23A9A794452616
:10589800330585029145EF8080027DD197F7FF1F80
:1058A80023A0A794692697F7FF1F2393A792412661
:1058B80097F7FF1F239FA790978701009387C71328
:1058C80017F7FF1F232AF79097070000938747EDE4
:1058D80017F7FF1F2320F790014565B7EFC23FCCAC
:1058E800AA8517F5FF1F1305A58EEF10E0216FC0DD
:1058F8005FCDEFC2DFCADD37EF10802297F7FF1FB9
:105908009387478E9C4381CF1387C7FE09CB83D5E6
:10591800C7FF17F5FF1F1305658DEFF050636FC0C4
:105928005FCAEFC2DFC7293F11C9834785002A84B0
:1059380093F7070491E70355E500653F6FC07FC8FB
:105948008347C5009304450117F9FF1F1309898987
:1059580085E3832709005CC997F7FF1F23A497886D
:1059680083274900E1FF97F7FF1F23AF9786F9B711
:10597800FD172306F5006105EF6040768307840074
:1059880063C907048347840093E707F82304F400F6
:10599800EF10617F4205A94741813375F5028347BE
:1059A800840093F707FCC98F2304F4008347D400CD
:1059B8003E951C402318A40089CF984319CB8347F0
:1059C800C4005040814585073305F50242054181F1
:1059D8000297832709005CC897F7FF1F23A49780C5
:1059E8008327490089E797E7FF1F23AF977E8347FF
:1059F800C400A9D78355040117E5FF1F1305057FC8
:105A0800EFF0F05425BFEFC29FB997F7FF1F9387B8
:105A180027A39C4701448583858B81EFAE84B2859B
:105A28003A86EF1040152A8409C5EF10400C82947D
:105A380008CC22856FC0FFB8EFC2DFB441112E89B0
:105A480032C6AA89692C324713060502CA86970509
:105A580000009385C5D617E5FF1F130565776537E1
:105A68002A8429CD9304C500DD261946AA852685F2
:105A7800EF00706985452685EF005066178501009F
:105A8800130545F54E95834505002685EF00906979
:105A98005C4831468145A1075CC85CC48357240132
:105AA800E1172319F40083570401E1172318F400C0
:105AB8001C4C3E85EFC0BFB1A304250122854101DE
:105AC8006FC09FAFEFC2BFAD4111AA842EC632C4CA
