:040000006F20804DA0
:100004000000000000000000900000208A0400208E
:10001400A9BDF9F5900000200000000000000000D8
:10002400900000209000002000000000000000006C
:10003400900000200000000090000020000000005C
:1000440090000020900000209000002090000020EC
:1000540090000020900000209000002090000020DC
:1000640090000020900000209000002090000020CC
:100074007E050020900000209000002090000020C9
:1000840090000020900000209000002090000020AC
:1000940001A073270080218B9387018409CB7327E8
:1000A400008023A0E18498435D9B731007800100C6
:1000B400010037170040930670052300D704930608
:1000C40080FA2300D704010001008346B70493F6A5
:1000D400F60DA305D7042300070473260080944378
:1000E400A18AD18E7390068023A0018401000100AF
:1000F40093760502638406180347A700118B25E74E
:1001040073270080218B09CB7327008023A0E1840F
:1001140098435D9B7310078001000100371700406E
:10012400930670052300D704930680FA2300D704AE
:10013400010001008346A70093E646002305D7008B
:1001440023000704F32600809843218B558F7310F6
:10015400078023A00184010001001307004B010064
:1001640001007D176DFF73270080218B09CB732756
:10017400008023A0E18498435D9B731007800100F5
:10018400010037170040930670052300D704930637
:1001940080FA2300D704010001007D892314A700FD
:1001A400010001000100010023000704F326008080
:1001B4009843218B558F7310078023A0018401007D
:1001C400010073270080218B09CB7327008023A0B3
:1001D400E18498435D9B7310078001000100371789
:1001E4000040930670052300D704930680FA230089
:1001F400D7040100010001000100B72600401306E6
:100204001005A383C68023000704F32600809843C7
:10021400218B558F7310078023A0018401000100F6
:1002240073270080218B09CB7327008023A0E184EE
:1002340098435D9B7310078001000100371700404D
:10024400930670052300D704930680FA2300D7048D
:10025400010001008346B70493E60608A305D7040A
:1002640023000704732700809C43A18BD98F7390CC
:10027400078023A001840100010082809376050495
:10028400638B06140347A700418B25E7732700807F
:10029400218B09CB7327008023A0E18498435D9BC5
:1002A40073100780010001003717004093067005A2
:1002B4002300D704930680FA2300D7040100010029
:1002C4008346A70093E606012305D700230007040D
:1002D400F32600809843218B558F7310078023A049
:1002E4000184010001001307007D010001007D1756
:1002F4006DFF73270080218B09CB7327008023A017
:10030400E18498435D9B7310078001000100371757
:100314000040930670052300D704930680FA230057
:10032400D704010001009376F50193E60604231433
:10033400D700010001000100010023000704F32697
:1003440000809843218B558F7310078023A001846C
:1003540001000100130760046310E50473270080A3
:10036400218B09CB7327008023A0E18498435D9BF4
:1003740073100780010001003717004093067005D1
:100384002300D704930680FA2300D7040100010058
:10039400B72600400946B5B573270080218B09CBE9
:1003A4007327008023A0E18498435D9B731007802A
:1003B4000100010037170040930670052300D7049D
:1003C400930680FA2300D70401000100B7260040F9
:1003D400130620053DB573270080218B09CB7327B5
:1003E400008023A0E18498435D9B73100780010083
:1003F400010037170040930670052300D7049306C5
:1004040080FA2300D704010001008356870093E695
:10041400060C2314D700C5BB411181460146814512
:10042400114506C61D2CF3270080A18B93860184F9
:1004340089CBF327008023A0F1849C42DD9B739039
:10044400078001000100B7170040130770052380DF
:10045400E704130780FA2380E7040100010003C7BF
:100464006704136717002383E704238007047327B3
:1004740000809C42A18BD98F7390078023A00184B4
:1004840001000100B240410182808146014681455C
:100494001145E122F3270080A18B1387018489CBC6
:1004A400F327008023A0F1841C43DD9B7390078015
:1004B40001000100B7170040930670052380D7049C
:1004C400930680FA2380D70401000100FD56239689
:1004D400D70223800704F32600801C43A18BD58F09
:1004E4007390078023A0018401000100F32700809A
:1004F400A18B89CBF327008023A0F1841C43DD9BCF
:100504007390078001000100B7170040930670053F
:100514002380D704930680FA2380D70401000100C6
:1005240083C6670493E616002383D7042380070455
:10053400F32600801C43A18BD58F7390078023A0E2
:1005440001840100010001A0BD473305F50201004B
:100554007D1575FD8280411122C426C206C6AA8477
:10056400014463179400B2402244924441018280C2
:1005740005041305803E4204C13F4180DDB7B7172F
:100584000040130700032388E702854723A8F1846A
:1005940073002030411106C6EF00D018F5BF2303C5
:1005A400048015472303E48001002302A480828091
:1005B40083076480E3CE07FE2303048082808307DD
:1005C4006480E3CE07FE0345448082808307648011
:1005D400E3CE07FE2302A4808280411126C44AC2CE
:1005E4004EC006C61377F50BAD47AA892E899544EC
:1005F4006306F70019456537653F8D444E854537D9
:10060400FD59FD1463983401B240A2441249824951
:1006140041018280135509011375F50F453F2209E5
:10062400CDB7011126CC06CEB704080051371545C5
:10063400BD37713769372AC6A53F32459377150010
:1006440089EB136515001375F50FF240E24405615B
:100654008280FD14E9FC0145CDBF397126DC4ADAFC
:100664004ED852D656D45AD25ED006DE62CE66CC6E
:10067400B7E700E07D5783AA070022C603AA470014
:1006840023A0E71823A2E718B71700401307700543
:100694002380E704130780FA2380E70483C7470411
:1006A400930B75FFB684E20793FBFB0F8546AA897B
:1006B4002E8B328937240040E187015763FA760193
:1006C4006308D5008946130700026313D500015758
:1006D400D98F93F7F70FB71C00402382FC0411470E
:1006E4002303E4801305F00F5D3D094CD135636DA0
:1006F4007C11B7050700DA9537870700795563F24F
:10070400E504B3879500636EF702370B0800A94729
:1007140033EB65016399F90689E48144513D2685EB
:100724000DA0DA850945553D05090345F9FFFD147A
:10073400050B693D81C49377FB0FFDF7DD3569FD3A
:100744007D55B7170040130770052380E70413078E
:1007540080FA2380E70403C74704418B2382E7041C
:10076400F250B7E700E023A0571123A24711E25447
:1007740032445259C259325AA25A125B825B724CA9
:10078400E24C21618280A5476395F90685691309C6
:10079400F00FB3069900B3742B01B6941349F9FF13
:1007A400B3749900856B33796901416B9387F9FFC1
:1007B400B3F7270199E363FC340193D94900C14796
:1007C400E3E637FF99BF0569C1697D19D9B71305F8
:1007D400800D6388690113050002638479011305A0
:1007E4001008CA85DD3B353D21DD4E99B384344183
:1007F400D9B7DA852D45D533CA94E30099F20509B2
:100804007D3BA30FA9FED5BF9387F9FF93F7F70F9D
:100814006361FC0C83C71C0413073008631FF704CF
:1008240037070800636BEB04B3079B00B70610009F
:1008340063F5D704334BEB0089476393F90689804A
:10084400D549E38C04ECDA850945413B11090327BA
:10085400C9FF91472320E48003076480E34E07FE29
:1008640023033481FD17EDFBFD14110B81C4937731
:10087400FB0FE9FF7D3371F5E1B5B717004003C7FE
:100884005704B70708001377070219E3B78707006F
:100894007955E378FBEA33079B00E3FFE7F855B5A6
:1008A4008547E382F9F2DA852D45053B9389F4FF08
:1008B400E38504E6293393F7390091EB832604801A
:1008C4000327090093074900E39AE6E43E89CE84AE
:1008D400F1BFB5476396F9001305900BC93135BDD7
:1008E400B1471305B00AE38BF9FE99476391F90404
:1008F400B7050800B365BB002D45C53181448D4B58
:10090400A149753963967401832704802320F90073
:100914008504E39834FF8327048013172B01635560
:1009240007002312F900D5BB2322F900FDB39D472C
:100934006399F90281451305B0044531BD44232070
:10094400090023220900FD599D3993F77400CA97C1
:1009540003C70700FD14398D2380A700E39634FFF5
:100964006DBBA1476392F9046D398144630D0B009B
:100974008D479304C0036308FB00930400056304DC
:100984008B01930440041375C507E30895D81945F2
:10099400393139390545213126850D3909453D312E
:1009A4004931E31C05D669BB91476399F9001305E6
:1009B4006006F536F53E130590090DB7E38F09D4AB
:1009C400F154A9BB174700001307C7C083470700AA
:1009D40093F7F70FE5DF82807D1662066186931731
:1009E4008601E18763D407000145828093172600BE
:1009F4003307F500AE9718439C4363E7E7007D1681
:100A0400E37FF7FC7D55828005458280FD15E20574
:100A1400E18513978501618793F7F50F6348070014
:100A2400FD15139725002A97584365D7138517009A
:100A34006205618582803308B5021C4283A80600E2
:100A4400B335B502C29733B50701AE9846958548CC
:100A54006367B5006394A50063E3070181480C4311
:100A6400C6950CC388C21CC2828081471397870134
:100A740061876343B7008280139727002A97232056
:100A840007008507E5B78147014793968701E1860B
:100A940063C5B60013351700828093962700AA9683
:100AA40094428507558FD5B793D755408A07AA979F
:100AB4009C4305453315B5007D8D8280172300E0E6
:100AC400E702A3AF2A84993705C5931725003E94FE
:100AD4000327C4FF814711EB7D1516053E9542059A
:100AE4004185172300E0670083AF05838507E5B7D9
:100AF4000145C5BF81471397870161876343C700D9
:100B0400828013972700B386E50094422A978507CD
:100B140014C3D5B77D166206618601479317860113
:100B2400E18763D5070013351700828093172600E9
:100B3400B306F500AE9794429C437D16B58F5D8F46
:100B4400F1BF8A05AA9501476363B500828083A635
:100B5400C5FFF11593D71600D98F9CC11397F601E1
:100B6400E5B72A830148014701456343D7008280E2
:100B7400B387050183A80700B30706019C43C69702
:100B8400AA976384F80033B517010507B308030176
:100B9400620723A0F80061871108C1BF2A830147B7
:100BA4008147014563C3D70082803388E5008328E9
:100BB4000800330EE600032E0E003388A8403308E5
:100BC400C8416384080133B508018507B308E3000D
:100BD400E20723A00801E1871107E9B7172300E022
:100BE400E702A39D0111B286B2842E86AA850A85E6
:100BF40075372A84A6850A8579353334800006043E
:100C040013351500018D0561172300E06700239D4E
:100C1400172300E0E702E3974111AA89AE8A328BD9
:100C2400B68402C202C402C60144131C8401135CCC
:100C34008C4163499C02939B1400FD1B0549138C52
:100C4400F4FFF15C3304890162046184634D74052B
:100C540092478E04CE9423AEF4FE4101172300E0A4
:100C64006700A39613192400B30B2B01014A9317B1
:100C74002A00D69783A50B008843780034005000DF
:100C84005D3B050A93178A01E187F11BE351FCFEE2
:100C940092474E9905042320F900A2473EC2B24769
:100CA40002C63EC459B7131A8901135A8A41131D47
:100CB400240093178A01E18763CF970092470A04BF
:100CC4004E941CC0A24705091379F90F3EC2B247DE
:100CD40002C63EC485BFB3079A0313152A0056956E
:100CE4000841780034005000050AEA97DA978C43EB
:100CF4009933C1B719CD91CD09CE81473387F5001A
:100D0400834607003307F50085072300D700E31760
:100D1400F6FE828019C991C909CA910583A7C5FF46
:100D240011057D16232EF5FEC5BF828001C919C6A3
:100D34002A960505A30FB5FEE31DA6FE8280814712
:100D44003307F5000307070019E33E858280850712
:100D5400C5BF01112E8626CAAA8413150601930560
:100D6400F004418122CC06CE32C6EF00906A2A8478
:100D740001C53246A685BD3F2285F2406244D24475
:100D840005618280854715C18DC105C28147B306BF
:100D9400F5003387F50083C6060003470700639810
:100DA400E6008507E315F6FE85473E858280814788
:100DB400EDBF9307F6FFBE952A966313C5008280A4
:100DC400FD1583C715000505A30FF5FEFDB7AA871A
:100DD400014581CF09CE3E96850703C7F7FF631708
:100DE400B700E39BC7FE054582808280014582806F
:100DF40079719387818722D4804306D626D24AD03C
:100E04004ECE52CC56CA5AC85EC65DCCB7C4C901D0
:100E1400014B938901879384F437174A0000130A1E
:100E24006ACC974A0000938AAACF17490000130995
:100E340069D38357240085E35C44631B0B0023AC14
:100E4400F186832BC4002285EF0010695E84B9A863
:100E54002326FB00FDB783A7090082971C443307B0
:100E6400F5406376F500032749001D8F2A9763E058
:100E7400E4089747000023AD07CA835524000345BF
:100E84000400976001E0E78040D25C405844A1CB65
:100E94000C4403264900AE97BE8663E4B70063E4BE
:100EA400C700B386C74014C4228B3A8459F09747CD
:100EB40000009387E7C69C4B09476370F706F91750
:100EC400174700002326F7C6B25022549254025901
:100ED400F249624AD24A424BB24B45618280631561
:100EE4000B0023ACE186B1BF2326EB0099BF032797
:100EF4004A0209CF63EFA7003385A74083A70A01FD
:100F04006376F5009747000023A4A7C2228B4044D0
:100F140071BF03274900BA97C5B79747000023A9B3
:100F240007C05DB7411122C4174400001304C4C1B3
:100F34001C4006C626C24AC091C782979747000044
:100F440023A407C09747000083C7D7D9858B97444C
:100F540000009384E4D895C397470000A38407D87E
:100F640083C774001547637AF700052B83C77400A1
:100F7400F5178A07A2979C4382971C4491C38297D2
:100F8400138941860327090017460000034656B912
:100F94009747000083C7C7B893961700BA9683D6BD
:100FA4000600C5CE9747000083C787B763E1C70C27
:100FB40097470000238607B61C406395071297479E
:100FC400000083C777D291CF83C7740093F7F70FDC
:100FD40089EB97470000A38907D0976002E0E78078
:100FE400E024938701879C43638E070E9747000094
:100FF400938747B7DC4317470000232BF7B2CD3B59
:1010040097470000938707AEDC53E9CF17470000EA
:10101400130707B1184B9747000083C7F7AD636305
:10102400F70C83C774001547636EF70A97470000EF
:1010340083C787CF918BDDE703260900974600001D
:1010440083C616AE63C6D70A2244B240924402490C
:101054004101176301E0670003FE850793F7F70F6B
:1010640097460000238EF6AAE3E4C7F225BF86075D
:101074003E97835507002310070023960186938724
:10108400C1879C4317450000034585A91317250014
:10109400BA979C43829783D7C186174700000347BA
:1010A40027A893C7F7FF7D8D93171700032709001F
:1010B4003E97835707005D8D2310A70097470000D4
:1010C40083C707A691C7850717470000230AF7A41B
:1010D400174700000347C7A49747000083C757A4D6
:1010E400E378F7ECB2402244924402494101828001
:1010F400139717003297035707006DF7850799B7C1
:10110400AD6737C70040BD072326F7200F10000046
:10111400974700009387C7A0C84F83278726BD66DB
:10112400BD0693C7F7FF99836A052326D7205D8DF3
:1011340082804111B7170040985F3AC6945F3247E6
:10114400E39CE6FE3245410182801305F00F828064
:101154000111974700009387E7C422CC03A4070C2E
:1011640026CA06CE2AC42EC6854419E40145F24097
:101174006244D2440561828083479100034714008E
:10118400858B6304F7000044CDB719469305A1008D
:1011940013052400C53EE31895FE0545C9BF138712
:1011A40001941C439306001094C301000100010044
:1011B40001001C4323A007008346150003482500B3
:1011C400A2064208C29603480500C29603483500A9
:1011D4006208C29694D78346550003486500A20668
:1011E4004208C29603484500C29603487500620847
:1011F400C296D4D7834695000348A500A2064208A8
:10120400C29603488500C2960348B5006208C29698
:1012140094DB8346D5000348E500A2064208C29643
:101224000348C5000345F500C2966205AA96D4DBBF
:1012340083C6150003C52500A2064205AA9603C568
:101244000500AA9603C535006205AA9694CF83C605
:10125400550003C56500A2064205AA9603C54500CC
:10126400AA9603C575006205AA96D4CF83C69500D5
:1012740003C5A500A2064205AA9603C58500AA9641
:1012840003C5B5006205AA9694D383C6D50003C5E9
:10129400E500A2064205AA9603C5C50083C5F5006C
:1012A400AA96E205AE96D4D3D443F59AD4C3D443D4
:1012B40093E61600D4C3944393E6160094C3BA8706
:1012C4009443D842058B59E3984E01452300E60028
:1012D4009843184F2183A300E6009843184F418395
:1012E4002301E6009843184F6183A301E6009C4361
:1012F400D84F2302E600D84F2183A302E600D84F3B
:1013040041832303E600D84F6183A303E600985387
:101314002304E60098532183A304E60098534183F1
:101324002305E60098536183A305E600D8532306FA
:10133400E600D8532183A306E600D853418323074C
:10134400E600DC53E183A307F600828001008DBF31
:10135400138741941443411122C49C5E4AC006C6BB
:10136400998326C2858B3A8413890194D1C79C5EE4
:10137400974400009384C49693F7F7F99CDE1747CB
:1013840000000347479693070008631BF700832771
:1013940009009C4393F70704174700002305F794BB
:1013A40083C7040093F707048DC3938701879C4385
:1013B40082979747000023ADA79283C7040093F751
:1013C400F70B17470000230DF79083C7440093F7EA
:1013D40007049DE3854717470000A305F79093870B
:1013E40001959C43096798C7130700FC97460000C2
:1013F400238AE68ED844F8D31C40985F1183058B6A
:1014040009CB985F3D9B98DF054797460000238BE7
:10141400E68C985F1D83058B11CB985F1377F7F7E4
:1014240098DF854717470000230EF78A83270900B2
:10143400D8430583058B19C7D843759BD8C3D843B4
:10144400799BD8C3B240224492440249410182802C
:10145400397106DE16DC1ADA1ED82AD62ED432D218
:1014640036D03ACE3ECC42CA46C872C676C47AC298
:101474007EC0F93DF250E2525253C2533255A25546
:10148400125682567247E2475248C248324EA24E22
:10149400124F824F2161730020309387019594434A
:1014A400974700009387C78303C70700058B11CBB9
:1014B400974700002388078297470000A384078288
:1014C400828003C71700058B65F7F85271FF83C745
:1014D4005700DDB713884194032708001C5F9583E8
:1014E400858BD1E709C61C5BBD832300F60085CA42
:1014F40083270800985B46079357670163560700E4
:1015040093E707C0C207C18303970600C207C187D8
:1015140009C7BA970947B3C7E7022390F60085CDF8
:10152400834715008DCB9736000083C6C67B93F6A0
:1015340006041387970089478DCA3A950347050027
:10154400854699471376F7066311D60262076187C9
:10155400B947634C0700832708009C5FED838D8B9C
:1015640017370000A303F77881473E8582808547BB
:10157400EDBF411122C406C61384019518402DE91C
:10158400AE877453FDFE3E85B28597370000238AEB
:101594000774976002E0E780A09E938741949C4380
:1015A400B70680009843558F98C3D857719BD8D7F6
:1015B40097370000A388077297370000A382077249
:1015C4001C40094798C3144017370000130747719C
:1015D40083472700858B89EB83473700858BD9C3E5
:1015E4009737000023800770B24022444101828073
:1015F4008D47631EF500938741949C43B706800092
:101604009843558F98C3D857719BD8D76DBF8547DA
:10161400E31BF5FA5447F977FD17F58F5CC70F10F4
:1016240000001C40096798C7130700F8173600002C
:10163400230AE66A138741941043184231830D8BC1
:1016440011E713076019F8D3D4C7B5BF1842094688
:1016540031830D8B6315C7001307E043EDB7130700
:10166400E01BD5B7FC52ADF741B75D71A2C4A6C269
:101674002A84130680022800AE849305100886C6C7
:10168400CAC04EDE52DCEFF06FEA3545976002E0E7
:10169400E78080CB13834194832703009376F41F60
:1016A400138E819523A40700984B938E0195370FD1
:1016B400FCFF1367F70398CBF84F130510F8B70234
:1016C4000400137707E0558FF8CF9843F576FD169D
:1016D400758F98C39843B706330093038025137717
:1016E400F7E798C3984311497D1F1377F7E713670A
:1016F400071098C303270E008549930F80021C47E7
:10170400D58F1CC783A70E001307900D3400B8CBE8
:10171400014793553700A69583C7050013767700D4
:10172400B3D7C740858BE1C38327030083280E000A
:10173400239C07042390070603A8C8021378D8FF44
:1017440023A6080383A807001378F70793F808F87B
:1017540033E8080123A0070103A8470233685800AF
:1017640023A2070383A80E00014823A2780603DA04
:1017740007066307480303A80703038A06001358F0
:10178400F80062081358884163580A0103A8070344
:101794001358F8002380060103D807061378F80FBE
:1017A40003AA480663060A0003DA8705E37F49FBB8
:1017B40003A847023378E80123A2070383870600BE
:1017C400635CF40003C805003396C9001346F6FFB2
:1017D400337606012380C5003E8663D3A7002A869C
:1017E40013158601618505071377F70F8506E31244
:1017F400F7F3B640264496440649F259625A6161A9
:101804008280938601959C42D8471316170163552D
:101814000602984713161701635006027D57B8D77E
:10182400173700001307C72F584F05071736000056
:101834002326E630116798C798470D83058B1DC38F
:10184400173700000347E7491367170017360000EE
:101854002309E648130700F8173600002304E64876
:10186400214798C79847058B09CF173700000347CE
:1018740037471367170017360000A303E6460547EA
:1018840098C798470983058B09E798470583058B13
:1018940021CF9847173600001306864413854194D8
:1018A4000983058B630307101841184331830D8B9B
:1018B40075EBAC4B184E93F5050203471700CDCDDD
:1018C40079EF13077006D8CF034706001367170094
:1018D400173600002306E640114798C718415C57A5
:1018E400F19B93E717005CD79C4298479316370106
:1018F40063D606029736000083C64652C18A17375C
:1019040000001307274AC5CE03478707136707025A
:10191400973600002384E650056798C798479316C6
:10192400270163D10602173700000347A73B62076C
:101934006187635707000547973600002384E63A1A
:10194400096798C798479316070163D60602973626
:10195400000083C6B64C858A1737000013078744F6
:10196400ADCE034797071367270097360000A38778
:10197400E64A216798C7828029D785456315B70051
:101984001307B00689B789456315B7001307F00636
:101994001DBF8D456315B700130730072DB7130717
:1019A400500715B71307600739BF0347360013679D
:1019B400170017360000A306E632094739BF8346ED
:1019C40087070946BD8A6388C600034787078D4693
:1019D4003D8BE313D7F4114725BF83469707918ABC
:1019E400C9DA034797071367870041B7397106DEE1
:1019F40016DC1ADA1ED82AD62ED432D236D03ACEF3
:101A04003ECC42CA46C872C676C47AC27EC0D53BB2
:101A1400F250E2525253C2533255A25512568256D4
:101A24007247E2475248C248324EA24E124F824F8A
:101A3400216173002030173700001307272C8346D9
:101A4400B7019737000083C7372E4C4BB697FD8BF1
:101A540033D7F50097360000A382F62A97360000A4
:101A6400A384F62C058B15EF173700000347172CBA
:101A7400B3F7E702814601471305000233D6E500B8
:101A8400058A1378F70F19CA6397D70097370000B0
:101A9400A38607278280850693F6F60F0507E31FC2
:101AA400A7FC82809737000083C7D723D9E79387A1
:101AB40001879C43411122C426C206C682979737E8
:101AC40000009387A7258047BE846303A406636848
:101AD4008504018D135455009737000083C7A7234D
:101AE4006368F404893F98449737000083C7A722AA
:101AF4009396570036971D8C9736000023A4E62250
:101B0400E372F4FE2244B2409244173500000345C8
:101B1400F51E81454101176302E0670043CA973708
:101B2400000093872704DC433384874022955DB704
:101B3400B24022449244410182808280938701878B
:101B44009C43011122CC4AC806CE26CA4EC68297AF
:101B5400973700009387871C804701496301A406D7
:101B6400BE8463668506018D1354550097370000C3
:101B740083C7671A1379F5016360F4049739000089
:101B8400938949FE4D3D03A884009736000083C61F
:101B94008618139756004297158C3A8683A54900F8
:101BA400636407016364B7003306B74097370000E6
:101BB40023AAC716E378D4FC160433692401F2403F
:101BC40062444A85D2444249B249056182809737CA
:101BD4000000938727F9DC4333848740229569B753
:101BE4009387019598438567938707777CD3938779
:101BF40081959C4383A607091396560063580600F3
:101C040083A6070913966600634406007453FDF225
:101C1400828061C1AA870145DDCD8D07C207C183DA
:101C2400F19BC207C18313074003636BF702138759
:101C3400019E08431387819D14436396A6021737B8
:101C44000000130727EA185B014551C74111C20779
:101C540006C60545DD8D0297B240014541018280EB
:101C64001387C19DF9B70357650035E30357450052
:101C7400636FF704B306F7402146637CD60203285A
:101C84000500938687001D8FAA96611717360000FA
:101C9400035666E92392E60023A006012393060077
:101CA40014C12312F500130786FF97360000239C06
:101CB400E6E62313B5009735000083D5C5E6B38760
:101CC400F540173700002310F7E62105828008410C
:101CD400ADB701458280828009CD9387019E03A31D
:101CE40007009387819D83A8070081469A8763E351
:101CF4001701828003A807006369F50A6367A80ACD
:101D040013878700E367E5FE03D6670021670507AD
:101D14006317E60003C781910507238CE19097358B
:101D240000009385E5DF03D6470003D765002393BE
:101D34000700329742074183173500002315E5DE7B
:101D4400638867021385C19D08416303F50203D5C7
:101D5400660019ED83D7460023A0060121073E96AD
:101D640021062392C60097370000239EE7DAB68740
:101D74009843E30017F99386C19D9442E30BD7F689
:101D840083566700BDF683D64700035647001843C1
:101D9400A106B2962392D70098C383D76500A10702
:101DA400173700002311F7D88280BE86C28781B717
:101DB4000327851163020712411122C406C6834713
:101DC400C5008345E5042A8493F7C70F2306F5006D
:101DD400834697000356C70013958601618563F215
:101DE400C508635B05060345870093F6F607A3045D
:101DF400D700054693E627006314C50093E6170051
:101E04002306D4005C4389075CC3A30AB4000325FA
:101E140004112E864C430905EFE0DFED832784117E
:101E240003465401D44303D7C700B296118FD4C3D9
:101E34002396E7008947A30DF4000347640397370B
:101E4400000083C747CB6378F7048347C40093E754
:101E540007012306F40081A093E717002306F4008A
:101E64006DB79376F60F635D0502034587008545DC
:101E740013E627006314B50013E617002306C40015
:101E8400A30AD400A30407008547A30DF400832705
:101E940084119C43DDF3B240224401454101828018
:101EA40093E717002306F400A30AD400A304070051
:101EB400032504114C430905EFE0DFE38327841174
:101EC40003465401D44303D7C700B296118FD4C339
:101ED4002396E7008D4755BF054582809387819EF1
:101EE4009C43411122C406C6858B2A84C5EF4165F3
:101EF400130525F5971003E0E780602445C5834763
:101F0400A5002315F50083270412BDE72320A4129E
:101F14002322A41285472311F404232005008347B8
:101F2400640154412316F5000347D4002304E5005B
:101F34000547A304E50017370000130767DA184FB5
:101F44001385170215811C437D151375F50F9CC26B
:101F54005C43DCC21C479CC65C47DCC61C4B9CCA69
:101F64005C4BDCCA1C4F9CCE5C4FDCCE19CD9386F7
:101F7400060213070702C1BF8327441288C383578D
:101F840024042322A412850779B79737000083D746
:101F9400E7E1850717370000231AF7E0B24022442F
:101FA400410182808347C40023090400054593C787
:101FB40047002306F400DDB78347850193F7E70F55
:101FC400C5EF83479501CDEB034625018346C50044
:101FD40009CA83456503173700000347D7B163E790
:101FE400E50013F7060151CB014709C6C18A03571F
:101FF400651C81C68356A51C369741C31307C712B7
:1020040017350000035585B6B335A70237460F00D0
:10201400411113060624814622C426C206C67D54F5
:102024003305A702974003E0E780C05697370000C6
:1020340083C7D7ACB384A70097370000938787D6AC
:1020440003A787098327070963F387003E8418439E
:1020540075FB938701879C43829781476364A4003F
:10206400B307A440B2402244B3B7970093C7170004
:1020740092443E854101828081473E8582809387D8
:10208400019598437C53FDFF8280797126D206D650
:1020940022D44AD04ECE52CC56CA5AC85EC68347C2
:1020A400550303447513AA843E941374F40F9307E1
:1020B400400263F687001304B4FD1374F40F03AAFB
:1020C400841383AAC413A38B841222865285D685D3
:1020D400974003E0E7800009058915E503CBD41296
:1020E40001498149337B6403930B50024A8652852C
:1020F400D685974003E0E780E006058915C563911E
:1021040069031374F90F238B8412B250225492542E
:102114000259F249624AD24A424BB24B456182802B
:102124008509E20993D989410509E31179FDE1BFE4
:102134008327850903560504797193D60701BD8E5B
:10214400C206C182358E1357764093575640898B09
:10215400058B5D8F93573640918B5D8F9357164057
:10216400A18B5D8F93171600C18B5D8F931736007B
:1021740093F707025D8F931756009355860093F7E4
:1021840007041E065D8F1376F60F518F93D75540C3
:1021940013D63540118A898BD18F13D67540D18FD0
:1021A40013D61540218AD18F13961500418AD18FF9
:1021B4001396350013760602D18F139655001376C5
:1021C40006049E05D18F93F5F50FCD8FA2074546E2
:1021D4005D8F3307C70222D42A8426D252CC56CA32
:1021E400032A8413832AC4135AC806D6369742078F
:1021F400418393577740135557400989858BC98F7D
:10220400135537401189C98F135517402189C98F38
:10221400131517004189C98F13153700137505026B
:10222400C98F1315570093558700137505041E07AE
:10223400C98F1377F70FD98F13D5354013D755406E
:102244001189098B498F13D57540498F13D51540D2
:102254002189498F139515004189498F13953500BC
:1022640013750502498F13955500137505049E05D2
:10227400498F93F5F50F4D8F2207D98FB387C70286
:102284004AD04ECE5EC662C4B697C207C18313D786
:10229400774013D557400989058B498F13D53740AB
:1022A4001189498F13D517402189498F1395170038
:1022B4004189498F1395370013750502498F13958A
:1022C400570093D58700137505049E07498F93F72C
:1022D400F70FD98F13D5354013D755401189098B82
:1022E400498F13D57540498F13D515402189498FDE
:1022F400139515004189498F13953500137505020F
:10230400498F13955500137505049E05498F93F560
:10231400F50F4D8F2207D98FB387C70213065002DA
:102324005285D685B697BD8E93940601C18033F647
:10233400C402137BF60F974003E0E780A0E205890F
:102344000DED8347D41201498149B3849702130CDC
:102354005002C1804A865285D685974003E0E780C3
:1023640060E00589937BF90F11C563863403850901
:1023740093F9F90F0509E31F89FD230B6413B25088
:10238400225492540259F249624AD24A424BB24B05
:10239400224C456182805E8BCDB7797122D406D6FA
:1023A40083C735002E8423160100A307F10083C7D9
:1023B4004500100802C02307F10083C755008A8531
:1023C40002C2A306F10002C402C802CA02CC02CEB1
:1023D400EFE0FFDC0347F10183470400014563108C
:1023E400F7020347E1018347140001456319F7002D
:1023F4000345D101834724001D8D13351500B250C8
:102404002254456182800111973700009387879990
:1024140022CC03A4870C26CA4AC84EC606CEAA8478
:1024240013092500854915C083C7140003473400E8
:10243400858B6304F700405CFDB71946930544009F
:102444004A85EFE03F94E31835FF2285F240624469
:10245400D2444249B2490561828041119737000054
:102464009387479422C403A4870C26C24AC006C695
:1024740093042500054901E82285B2402244924490
:10248400024941018280A6851305A4023937E30578
:1024940025FF405CCDB741119737000093878790A3
:1024A40022C403A4870C26C24AC006C6930425008E
:1024B400054901E82285B24022449244024941017F
:1024C4008280A6851305A401C93DE30525FF405C70
:0424D400CDB7000080
:1024D80097110020938101CE17610020130101B2EA
:1024E8001305400097E5FF1F938545B117060020A7
:1024F800130606FE63FAC5008322050023A05500D3
:1025080011059105E3EAC5FE177503001305852C2F
:1025180097050020938505FC1386018463FAC5009E
:102528008322050023A0550011059105E3EAC5FEA5
:102538001385018497350020938505996377B50045
:10254800232005001105E36DB5FEFD42739002BC22
:102558008D4273904280930280087390023097E214
:10256800FF1F9382A2A993E2320073905230972200
:1025780000009382A2A8739012347300203039713E
:1025880001436EC619A0397141536AC866CA62CC44
:102598005ECE19A0397101535AD056D252D44ED6B4
:1025A8004AD826DA22DC06DE3301614082824111F4
:1025B8004AC026C222C406C68282B24D4101024DDB
:1025C800924C224CB24B4101024B924A224AB249E8
:1025D8004101024992442244B240410182803D4374
:1025E8002A876373C3029377F700BDEFADE593764F
:1025F80006FF3D8ABA960CC34CC30CC74CC74107AB
:10260800E36BD7FE11E28280B306C3408A069702C5
:10261800000096966780A6002307B700A306B700B8
:102628002306B700A305B7002305B700A304B70026
:102638002304B700A303B7002303B700A302B7001E
:102648002302B700A301B7002301B700A300B70016
:102658002300B700828093F5F50F93968500D58DFA
:1026680093960501D58D61B79396270097020000D0
:1026780096968682E78086FA9680C1171D8F3E96C9
:10268800E374C3F8A5B73367B500FD530D8B79E73D
:10269800B7877F7F9387F7F710419441B372F600AD
:1026A8003363F600BE92B3E262006397720C63185C
:1026B800D6065041D441B372F6003363F600BE9299
:1026C800B3E262006398720A631BD604104594450E
:1026D800B372F6003363F600BE92B3E26200639110
:1026E800720A631ED6025045D445B372F6003363AE
:1026F800F600BE92B3E26200639A72086311D602D2
:1027080010499449B372F6003363F600BE92B3E2FF
:102718006200639372085105D105E30FD6F61317CB
:10272800060193970601631CF7001357060193D718
:1027380006013305F7409375F50F91E982804183CF
:10274800C1833305F7409375F50F91E182801377C4
:10275800F70F93F7F70F3305F7408280034605001C
:1027680083C60500050585056313D60065FA33059C
:10277800D640828011059105E312D6FE014582807C
:102788002105A105E31CD6FC014582803105B10570
:10279800E316D6FC014582804105C105E310D6FC4D
:1027A80001458280B717004003C777051377E70F05
:1027B800A38BE704130700F8A38DE7043D47238C98
:1027C800E70413075003A38CE7048280B71700407F
:1027D80083C7E7020D8993F7C70FC98F7327008056
:1027E800218B9386018409CB7327008023A0E18481
:1027F80098425D9B73100780010001003717004065
:10280800130670052300C704130680FA2300C704C3
:10281800010001002307F702230007047327008043
:102828009C42A18BD98F7390078023A0018401005B
:102838000100828041112A83014E930E407E130FBE
:102848000019930F400663E66E14930800191303EA
:102858004006B3781503854E0D4FA14F33736502BB
:102868000D891335150063E0BE161308F6FF794687
:1028780072984208135808013307C70213D6170085
:10288800BE0732976146B3F6C60213068070B38658
:10289800C6023697A166F58F42075D8FB7160040CE
:1028A80083C7F60293F70708A307F1000346F10070
:1028B80083C7F60293F70708E394C7FE8347F1003E
:1028C800B716004093F7F70F63890714F3270080C2
:1028D800A18B938601846398071401000100B71740
:1028E8000040130670052380C704130680FA23806E
:1028F800C7040100010023AA070303C617031366D0
:102908000608A388C70223800704732600809C4218
:10291800A18BD18F7390078023A00184010001004F
:102928001166B71500407D16DC59C85DA98FF18F77
:10293800E5FFF3270080A18B89CBF327008023A034
:10294800F1849C42DD9B7390078001000100B7175A
:102958000040130670052380C704130680FA2380FD
:10296800C70401000100D8DB03C717031367070476
:10297800A388E70223800704732700809C42A18B69
:10298800D98F7390078023A00184010001004101C1
:1029980082807D133368E3039308E016630E080012
:1029A8003368F3039308D01663080800937833005C
:1029B80093B818009388D81633081E01131E08010F
:1029C800135E0E0149B56393E50305486386080065
:1029D8000148630303002A8871087298FD15131EC5
:1029E8000801C205135E0E01C181B5BD13F81500BB
:1029F80063F4BF007908D5B713381800E5BF83C75B
:102A0800F60293F70708A307F1000346F10083C70E
:102A1800F60293F70708E394C7FE8347F10093F79C
:102A2800F70FF1DF65B5F327008023A0F1849C42FE
:102A3800DD9B7390078055B54111B7170040985F2B
:102A48003AC6945F3247E39CE6FE324541018280F4
:102A58005971E2C486D6A2D4A6D2CAD0CECED2CCE0
:102A6800D6CADAC8DEC6E6C2EAC06EDE2A8C02D64C
:102A7800EF00101FF3270080A18B138D018491CBE9
:102A8800F327008023A0F18483270D00DD9B73903A
:102A9800078001000100B717004013077005238065
:102AA800E704130780FA2380E7040100010003C745
:102AB800F7021377770FA387E70203C7F7021367B5
:102AC8008700A387E70223800704732700808327F2
:102AD8000D00A18BD98F7390078023A0018401007A
:102AE8000100F3270080A18B91CBF327008023A05E
:102AF800F18483270D00DD9B73900780010001009E
:102B0800B7170040130770052380E704130780FAFE
:102B18002380E7040100010003C7E7021377C70F0A
:102B28002387E70203C7E702136717002387E70233
:102B3800238007047327008083270D00A18BD98F7A
:102B48007390078023A0018401000100130780C14E
:102B58003347E5029169938709E8130650023D69F6
:102B6800B7440F0093840424856B130BA004014A17
:102B7800814A13047005FD19B347F5023307C702EC
:102B88003EC2930709A61309803E3347F7023AC4A9
:102B9800334725030549331989011359394033450A
:102BA800950293840BFAB3948401811B3306C70200
:102BB800B346F6023309E90236C6330B6703130737
:102BC8006055B3049502130500103309E902B346B2
:102BD800FB02130B80FAB3C4A40236C8B347F90248
:102BE800939634003719004036CC930409043ECA42
:102BF80073260080218A11CA7326008023A0C1840D
:102C080003260D005D9A73100680010001009307EA
:102C180070052380F400238064010100010003464D
:102C280039051376860FA309C904034639051366C7
:102C38001600A309C9042380040073250080032615
:102C48000D00218A498E7310068023A0018401009B
:102C58000100916CE17D73260080218A11CA7326D8
:102C6800008023A0C18403260D005D9A731006809E
:102C780001000100930770052380F400238064019C
:102C8800010001000346390513660602A309C904B9
:102C980003560905336696012318C9040356090526
:102CA8003366B601420641822318C9042380040012
:102CB8007325008003260D00218A498E7310068033
:102CC80023A001840100010003463905137606029A
:102CD8006300061603463905218A6DDE6810EF0089
:102CE800407C73260080218A11CA7326008023A0A5
:102CF800C18403260D005D9A73100680010001004F
:102D08002380840023806401010001000346390503
:102D18001376F60DA309C90403463905136606029E
:102D2800A309C90403560905336696012318C90483
:102D3800035609053366B601420641822318C904C1
:102D4800238004007325008003260D00218A498E04
:102D58007310068023A00184010001000346390591
:102D6800137606026302061003463905218A6DFEB2
:102D7800E1312A8632CEC9317246E30DC5FE0356CB
:102D880009053255336696012318C9040D2F0346E9
:102D98003905218A6DDE0355090503462905924741
:102DA80033F5A9003386C90232951D8DA24763D534
:102DB800A700B2476346F50E09466365560FC2473A
:102DC800850A1316150093FAFA0F3346F602635E66
:102DD800A038050609453346A602732500802189D7
:102DE80011C97325008023A0A18403250D005D99D6
:102DF8007310058001000100238084002380640192
:102E0800010001000355C9022A9642064182231691
:102E1800C902238004007325008003260D00218A3F
:102E2800498E7310068023A001840100010025B596
:102E380073260080218A11CA7326008023A0C184CA
:102E480003260D005D9A731006800100010023809F
:102E580084002380640101000100034639051366DC
:102E68000602A309C90499B573260080218A11CAEC
:102E78007326008023A0C18403260D005D9A731079
:102E88000680010001002380840023806401010082
:102E980001000346390513660602A309C9044DB5A6
:102EA800E38F0AF073260080218A11CA73260080F6
:102EB80023A0C18403260D005D9A731006800100CB
:102EC800010023808400238064010100010003467F
:102ED80039051375FC0F1376860FA309C904034639
:102EE8003905498EA309C90423800400732800808A
:102EF80003260D00218A336606017310068023A07D
:102F0800018401000100034639051D8A63118627E3
:102F180073260080218A11CA7326008023A0C184E9
:102F280003260D005D9A73100680010001002380BE
:102F380084002380640101000100034639051165FE
:102F48001376F60DA309C90403463905136606026C
:102F5800A309C90403560905498E2318C904035651
:102F680009052165498E2318C904238004007325A7
:102F7800008003260D00218A498E7310068023A045
:102F8800018401000100034639051376060263082F
:102F9800062003463905218A6DDE68101923732639
:102FA8000080218A11CA7326008023A0C1840326C9
:102FB8000D005D9A731006800100010023808400D3
:102FC8002380640101000100034639051165137669
:102FD800F60DA309C9040346390513660602A309B9
:102FE800C90403560905498E2318C904035609055F
:102FF8002165498E2318C9042380040073250080A5
:1030080003260D00218A498E7310068023A00184AF
:10301800010001000346390513760602630D061AFE
:1030280003463905218A6DFE013CAA8C3134E30F31
:1030380095FF035609051165498E32552318C904B1
:10304800BD2903463905218A6DDE73260080218A51
:103058001385018409CA7326008023A0C184104106
:103068005D9A73100680010001002380840023808C
:10307800640101000100034639051376F60DA30922
:10308800C90423800400732800801041218A336614
:1030980006017310068023A0018401000100035873
:1030A800090503462905E24733F809013386C902B1
:1030B80032983308F8401306800C3306C802D2470A
:1030C8003346F602635500150506094833460603DC
:1030D8006351C0140358C9029308F00F13585800DD
:1030E800329863D6081F094663734619F327008090
:1030F800A18B89CBF327008023A0F1841C41DD9BA1
:10310800739007800100010037170040930770058E
:103118002300F704930780FA2300F7040100010055
:103128008356C70289678117D58FC207C1832316C3
:10313800F70223000704732700801C41A18BD98F55
:103148007390078023A0018401000100B650265423
:1031580096540659F649664AD64A464BB64B264C0B
:10316800964C064DF25D656182807D16A5B1732689
:103178000080218A11CA7326008023A0C1840326F7
:103188000D005D9A73100680010001002380840001
:1031980023806401010001000346390599B37326B1
:1031A8000080218A11CA7326008023A0C1840326C7
:1031B8000D005D9A731006800100010023808400D1
:1031C80023806401010001000346390513660602E5
:1031D800A309C90459BB73260080218A11CA732622
:1031E800008023A0C18403260D005D9A7310068019
:1031F8000100010023808400238064010100010094
:103208000346390513660602A309C904F5B37D16FA
:103218006DBD55CE0358C902B308C04013585800B5
:103228006357180B094663744605F3270080A18B82
:1032380089CBF327008023A0F1841C41DD9B739088
:10324800078001000100B7170040130770052380AD
:10325800E704130780FA2380E7040100010003D77D
:10326800C7027D8B2396E70223800704E9B57326FE
:103278000080218A09CA7326008023A0C1841041D6
:103288005D9A73100680010001002380840023806A
:103298006401010001000356C9021376F60F336674
:1032A8007601420641822316C9022380040073284E
:1032B80000801041218A336606017310068023A01E
:1032C800018401000100050A137AFA0F15B2F327E9
:1032D8000080A18B89CBF327008023A0F1841C41B7
:1032E800DD9B7390078001000100B71700401307AA
:1032F80070052380E704130780FA2380E7040100A0
:10330800010003D7C70216063A9642064182239661
:10331800C70299BF914763EEB70217570300130717
:10332800A7068A05BA959C41BA978287B7170040C5
:1033380003A7470B1345F5FF698F23AAE70A03A7DD
:10334800070B698F23A8E70A03A7070A798D23A02B
:10335800A70A8280B717004083A6470B1347F5FFDB
:10336800F98E23AAD70A83A6070B558D23A8A70A87
:1033780083A6070A758F23A0E70A8280B717004043
:1033880003A7470B498F23AAE70A03A7070B13458F
:10339800F5FF45BFB717004083A6470B1347F5FF56
:1033A800758F23AAE70A03A7070A598D4DB7B717E0
:1033B800004003A7470B498FEDB7914763EEB7026B
:1033C80017570300130787FD8A05BA959C41BA97DA
:1033D8008287B717004003A7470D1345F5FF698F8C
:1033E80023AAE70C03A7070D698F23A8E70C03A7F7
:1033F800070C798D23A0A70C8280B717004083A6FD
:10340800470D1347F5FFF98E23AAD70C83A6070D9E
:10341800558D23A8A70C83A6070C758F23A0E70C4E
:103428008280B717004003A7470D498F23AAE70CEE
:1034380003A7070D1345F5FF45BFB717004083A63F
:10344800470D1347F5FF758F23AAE70C03A7070C51
:10345800598D4DB7B717004003A7470D498FEDB7F2
:10346800B717004003D587004205418193770504CB
:1034780091EB9377F5013755E8011305058033453E
:10348800F50282809377050C130700046397E70021
:103498009377F50137459C1CCDB72165130505D0F9
:1034A800828037E700E01C435443A183E206D58FAE
:1034B8001CC1FD572320F7182322F7188280131701
:1034C8008500B7E700E023A0E710618123A2A710D9
:1034D8008280B7F700E08847CC478280814737373A
:1034E8000040A14663C4C700328582800345B740C7
:1034F800E38EA6FE3385F500034505008507230402
:10350800A740CDB797F7FF1F9387C74A9C43172754
:1035180000201307679B3E95636EE5001757002050
:103528001307C78D6368A70017F7FF1F2324A74851
:103538003E858280FD57EDBF411122C406C62A840C
:1035480005372947B307E502B2408D83B3D7870211
:1035580022449507B3D7E70237370040C207C18333
:103568002316F7404101828071654111130505203A
:1035780006C6D937B7370040130770F82381E740EC
:103588000D47A381E74013070004A380E7400547E0
:103598002387E740B240410182802382018423A42B
:1035A8000184B717004003A7070CB706C0FFFD1634
:1035B800758F23A0E70C03A7070DB7064000558FAA
:1035C80023A8E70C03A7070C3D9B23A0E70C03A740
:1035D800070D1367070123A8E70C828023A4A184A1
:1035E80013064006894503C5C1846F308172B71739
:1035F800004003A5470C83A7470C598113451500C4
:10360800C18B058999E31365250083C74184638CC1
:10361800A7002382A18401C99387818403A307009B
:10362800630303000283828011456FF06FC241116A
:1036380093962500AA852D4506C697D0FF1FE780DB
:103648008001B240014541018280411126C2939414
:10365800250022C44AC02A843289A686AA85014642
:10366800254506C697D0FF1FE780E0FEA6864A8656
:10367800A285294597D0FF1FE780E0FDB24022448C
:1036880092440249014541018280011122CC06CEB3
:103698003714004026CA4AC84EC652C4834474052B
:1036A800034AB4058349840503499405EFF08F8FD5
:1036B8008347A40593F4F40F137AFA0F93E71700DE
:1036C800230DF40493F9F90F1379F90FB717004094
:1036D80003C7A705058B6DFF03D5C705A38D470550
:1036E800238C3705A38C2705A38B9704F2406244EB
:1036F800D2444249B249224A0561828041119397D6
:10370800050122C406C6C1872E8463DA0700EF309C
:10371800811419C1EF30010D2165218D1DA093F78A
:10372800150013C5150091EF93F7250099CFC13502
:103738001306000A894503C5C184EF30815D13452E
:103748002400B2402244410182809397250163D02E
:103758000702EF30526CC93D37F60200130606E047
:10376800896503C5C184EF30C15A09657DB7939750
:1037780015010145E3D707FC175503001305C5C715
:10378800EF30931A13060064916503C5C184EF30C6
:103798004158116559B71D714946975503009385DE
:1037A80025C117650300130565A886CEA2CC97D05E
:1037B800FF1FE780E05C01E917550300130585C08A
:1037C800EF30931601A037F700E0795610CBFD567D
:1037D80054CBB7E700E0056423A087109306F002F6
:1037E80014C323A08718010001001306C0038145F4
:1037F800480897D0FF1FE78020539707002093873A
:10380800E7C13ECAB5472304F102A167938707E0E1
:103818003ECEB7070105938707103ED0ED47231228
:10382800F10285472303F10297070000938767E0B9
:10383800BEC497070000938787E1BEC68567938754
:1038480017D82315F102970700009387C7C83EDAF7
:10385800B7F5070097070000938767E33EDE8146C8
:1038680097070000938787DC7000E1051945BEC003
:10387800231C810097D0FF1FE780E0DD58088147AF
:10388800994670003E960346060085070507A30C77
:10389800C700E398D7FED24791C7035781018567D0
:1038A8006373F70001A04808EF30D11BAA8501C94E
:1038B80017550300130545B2EF30C37201A0F64057
:1038C800664425618280411117050000130545E310
:1038D80006C622C4EF3091151384C1842300A400C6
:1038E80031286539034504002244B24037F6020006
:1038F800130606E0896541016F30A141411106C6F2
:10390800F3270080A18B1387018489CBF3270080DC
:1039180023A0F1841C43DD9B739007800100010004
:10392800B7170040930670052380D704930680FAE2
:103938002380D7040100010083C6F70293F6A60F7F
:10394800A387D70223800704F32600801C43A18B9A
:10395800D58F7390078023A0018401000100F3270D
:103968000080A18B89CBF327008023A0F1841C431E
:10397800DD9B7390078001000100B7170040930694
:1039880070052380D704930680FA2380D7040100AA
:10399800010083C6F70293E62600A387D702238097
:1039A8000704F32600801C43A18BD58F73900780F2
:1039B80023A00184010001000545EFE03FE1AD319E
:1039C8001305407E81470147814605468545EFE05E
:1039D8007FE6B240014541016F30513D93F7150034
:1039E800014599C313C515008280411122C406C63A
:1039F800834705002A849DC397550300938545A3F3
:103A0800175503001305C5B5EF30C35D4C40175576
:103A180003001305E5B5EF30E35C1DA058411DE731
:103A2800975503009385C5A017550300130545B3A3
:103A3800EF30435B17550300130505B5EF30835A84
:103A48002244B240294541016F30C35DA167938686
:103A5800D7036311D702975503009385659D1755C2
:103A680003001305E5AFEF30E357175503001305BF
:103A7800A5B2E9B7ED07975503009385659B1755E0
:103A880003001305E5AD6319F700EF30A35517558B
:103A980003001305A5B15DB7EF30C3544C4017556B
:103AA80003001305A5B285BF411122C49755030031
:103AB800938545992A8417550300130565AA06C6F8
:103AC800EF304352A285175503001305A5B1EF3017
:103AD80063512244B240294541016F30A35441113A
:103AE800975503009385059317550300130545A7BC
:103AF80006C6EF30234F13050002EF30A352B24041
:103B0800294541016F3003524111975503009385B0
:103B1800E58E175503001305A5A406C6EF30834CA0
:103B280013050002EF300350B240294541016F30C0
:103B3800634F411106C6EF80506F09E9EF10F0138B
:103B4800EF204056B24041016FF0603AB240410167
:103B580082804111975503009385C58C1755030042
:103B6800130505A006C6EF30E3472945EF30834B20
:103B7800B24041017DBF411122C41755030013050E
:103B8800259E2E84975503009385058806C6EF3039
:103B98006345A28517550300130585A5EF308344B7
:103BA8002945EF302348EF80506809E52244B240A8
:103BB800410141B7B240224441018280011135469A
:103BC800975503009385458F17550300130505BCCA
:103BD80006CE22CC97D0FF1FE780801A01E917454F
:103BE80003001305257EEF30235401A097F7FF1F2C
:103BF800938787FC3EC4B7F50700856793870780DE
:103C0800814613868185E10519453EC697D0FF1F79
:103C1800E78060A41946938581851385012197D093
:103C2800FF1FE780E00C3400138681859755030059
:103C3800938505AB17550300130505ACEF10D03677
:103C48002A840DC99755030093858580175503006D
:103C580013050591EF300339A285175503001305A5
:103C6800A586EF3023382945EF30C33BF240624444
:103C780005618280EF707038174503001305457E93
:103C8800EF007008EF40503917F500001305E541C3
:103C9800EFF0C0421715000013052512EFE0D04DD4
:103CA80017F5000013054534EFF0203317F5000031
:103CB80013052524EFF00023EFF0E040EFE0604A21
:103CC800174503001305C57AEFE0604B2A84EF001F
:103CD800705FEF901066EF10A116EF202044EF10F0
:103CE8009009EF109006EFC0A042EF1040059745ED
:103CF80003009385E575175503001305658609C804
:103D0800EF30432EA285174503001305257E91BF8A
:103D1800EF30432D174503001305857FEF30832CC3
:103D28002945EF302330EFC00025EF80105029C51A
:103D3800974503009385C571175503001305458200
:103D4800EF30432A174503001305057EEF3083291A
:103D58002945EF30232D974503009385656F174557
:103D680003001305E57FEF30E3271745030013052C
:103D7800E57DEF302327C5BD6D3BF1BF4111170528
:103D880000001305E5C506C622C4EF30214A138496
:103D980041852300A4001D35EFF03F801705000082
:103DA8001305C5D0EFF09F83034504002244B240B9
:103DB800854541016F20B15E39711C0822DC3EC285
:103DC8002E84B7072000A16526DA3EC4AA841C0801
:103DD80093854520480006DE3EC6EF00606CB717A5
:103DE800004083A5470C4800B18193C5150085891B
:103DF800EF20004897550300938545801745030039
:103E080013050576EF30031E8355840003566400BE
:103E18001755030013054588A18193F5F507EF3081
:103E2800631C2945EF3003208347940001478146EE
:103E380093F7F707D917B337F000B307F040230516
:103E4800F4005000A2852685EF00D00515C52A8408
:103E5800974503009385857A174503001305457038
:103E6800EF304318A2851755030013056584EF301A
:103E780063172945EF30031BF2506254D254216175
:103E88008280411122C426C22A84AE8417450300C9
:103E98001305056D974503009385857706C6EF30B2
:103EA800631413050002EF30E3172945EF30831739
:103EB80022852244B240A68592444101F5BD4111B4
:103EC80026C2AE848D4522C406C62A84EFF0EFCE02
:103ED800B717004099C803A5C70C418D23A6A70CA6
:103EE800B240224492444101828003A5870C418D4F
:103EF80023A4A70CF5B701119745030093854573D3
:103F0800174503001305C56532C606CEEF30830D8D
:103F180013050002EF3003112945EF30A310324694
:103F2800B717004083A7470C1842B18383450700A1
:103F380093C71700858B6386F500F2400565056118
:103F4800BDBFF24005618280411122C426C22E8481
:103F5800AA84974503009385A56C174503001305AC
:103F6800256006C64AC03289EF30C30783558400EE
:103F78008306840003566400A18193F5F50717456D
:103F880003001305256FEF30E3052945EF3083095A
:103F980083270900056583C507001537A2852244D4
:103FA800B240024926859244410139B5011135468E
:103FB8009745030093854550174503001305057D74
:103FC80006CE97D0FF1FE780A0DB01E91745030065
:103FD8001305856FEF30431501A0EF40121BEFA0CA
:103FE800820A2AC6EF10C127EF100107EF60D045FB
:103FF800F24032450561828041111305800406C6EE
:1040080097C0FF1FE780A008371700408327870A5B
:104018008D451305002093E707202324F70AEFF0C6
:104028006FAFEFF06FD41755030013052520EF305D
:10403800A30F1745030013056575EF30E30EEFF086
:104048008FF5EFF05F889D37153B97C0FF1FE7801E
:104058002054014582804111B2862E86AA852D45BD
:1040680006C697C0FF1FE780005FB24001454101C7
:104078008280AE860146AA85254517C3FF1F6700C3
:10408800835D9307000463E6C7021D71A2CC2A84EE
:10409800080886CE32C6EF209369B2461008A2857A
:1040A800294597C0FF1FE780005BF64066442561FD
:1040B800828039558280EFE2EFCD2A8408452E8927
:1040C800B28909C900C1970500009385C5736105C8
:1040D800EF00F16981447D5AEF10205363C3A404B3
:1040E8008144EF10805363C6A40497070020938788
:1040F800E7329C43DC47B307F94091872302F40079
:10410800638109048327C900B307F4409587A30294
:10411800F4001C4C89C79C4799C3228582976FE09D
:10412800AFCA5C44139714008504BA9723904701DB
:1041380065B71C48139714008504BA9723900700A5
:104148004DB7832789000547B307F4409587A30235
:10415800F40083570400638EE7028DC30947638424
:10416800E7040D47E397E7FA975703009387C7B02B
:104178001CCC97570300938727B111A897470300D2
:10418800938707771CCC97470300938767775CC8AA
:1041980049B7974703009387A7621CCC974703004A
:1041A80093870763EDB7975703009387A7B11CCC94
:1041B80097570300938707B2D9BF85E1EFE22FBF76
:1041C800004618448347940075839D8B6315F70058
:1041D800EF00B03548C46FE0CFBF8280EFE28FBBFD
:1041E80013893500C16442094111AA890144F114B7
:1041F80013590901054A2EC6EF102041B2456346FE
:10420800A400014541016FE02FBC83A709001317E3
:104218001400BA9783D707006388B70063949700A0
:1042280063742A010504C1BF0545E9BFEFE2AFB5D4
:10423800AA892E89328BB6843A8ABE8AEF80E07EBC
:104248004DC12685EF10D07C8D4763E5A7007D55CD
:104258006FE0EFB683DB4400EF1020412A84EF10B3
:1042680000429307740031443305850263C5A702F1
:10427800EF10A03FEF10603F2A84EF1040409307F3
:10428800740031443305850263CDA702EF10E03D89
:104298009307450019A8EF10803E330585021307E0
:1042A800F0179307C017E357A7FC2D55E3C277FB18
:1042B80063000B02D6865286A6854A85EFF0D04C5D
:1042C80041BFEF10C03B330585029307C5FFF1BF1F
:1042D800832749001385C90083D52700013779F959
:1042E800BDB76955B5B797070020239BA712970755
:1042F80000209387A712904381470C463307F500A7
:10430800420741836393B70082805446139847005D
:104318008507C2962390E600D5B7970700209387B4
:10432800E70F9C4303C587008280170500200355CB
:10433800250F8280EFE2AFA7C1671387D7FF630716
:10434800E5026368A700F117630EF50001456FE009
:104358004FA81387E7FF630EE500FD171D8D133582
:104368001500F5B7EF40D0037D15D5BFEF4040618C
:10437800E5BFEF40A05FCDBFEFE26FA34111AA8474
:1043880001442EC6EF106029B2456346A4000145DA
:1043980041016FE00FA49C48131514003E95835704
:1043A8000500E387B7FE0504E9BF034855008146C9
:1043B80093F7F60F63E5070181473E8582805845EC
:1043C80093975600BA9703D727006316B70003D709
:1043D8000700E304C7FE8506E1BF834645000147A1
:1043E8009377F70F63E4D700814711A81C4513168C
:1043F80057000507B29703D60700E313B6FE3E85BC
:104408008280EFE22F9993170501C187970A002050
:10441800938ACA006353F00883A70A00C0479C47E1
:1044280003570400198D420541816366F500014474
:1044380022856FE06F9912052A94DDBFDC4713943B
:104448004900014A3E94834744006341FA02014A05
:10445800834754006346FA028509C20993D90901C2
:1044680083A70A009847E3EBE9FCD1B71C4413196A
:104478005A00A6853E994A85013709ED050AE1B734
:104488005C4413195A00A6853E994A85F53519E109
:10449800050A7DBFE30209FC61BFAA848149C9B747
:1044A800EFE2EF901C452A8481E79307C5001CC5FD
:1044B8001C44231204001CC09307F00F63E9B700E3
:1044C80093F5F50F2285EF10B05A6FE08F90939413
:1044D8000501C167C18063F7F500A6852285EF1045
:1044E800D05CE5B7C18193F5F50F2285EF105058E0
:1044F800A6852285EF101059C9BF9707002093871A
:10450800E7F1884382801C4599C79707002023A7B5
:10451800A7F0014582807D55828097070020938708
:10452800E7EF984383474500484792073E958280C6
:10453800EFE2EF87617100451C183EC6B70780019E
:104548003EC81C183ECA8357440002CE02D002CC93
:10455800231EF100834784002A8902D22301F10235
:104568003C083ED402D6553F835705002316F10276
:10457800EF4080322307A1025C4003556400F183B9
:1045880013F717008347F10252055181F99BD98F20
:10459800A307F102EFF0B01039C5AA84035505004E
:1045A800EF80804983D704002AD26800231CF100D9
:1045B80083D72400231DF1001C4803D647008C43F1
:1045C800EF1030498347B400CA8617460300130624
:1045D80066168117A305F4006C004810EFF0D01A96
:1045E8005D616FD01FFF2155E5BF1C45B1CF03C5E5
:1045F800A700894613576500630BD7028D46630EE3
:10460800D70285466300D702130740063305E50243
:1046180003C7B700418B15CB83C7B700BD8B335594
:10462800F54082801375F5031307803EC5B7096707
:104638001375F50313070771D1BF372709001375E1
:10464800F5031307077CD9B701458280EFD23FF6FF
:1046580003A98500630409048347B900AE8493F76E
:10466800070E91CF03459900930520030D81050599
:10467800B305B50288446105EF00511B05A02E85DE
:10468800AD372A8401CD55258325C900B307B54028
:1046980063F887002E94B305A440E9FD6FD07FF33B
:1046A8008545C9BFEFD2BFF02A8403D505000111A3
:1046B80032C636C43AC22EC002CA02CC02CEEF803D
:1046C800A03782452ACA22852ECC813D0357050092
:1046D800231EE100EF40401CA24632469247230FBA
:1046E800A10036874C08B28622850146EFF01FB438
:1046F80005616FD01FEEEFD29FEB61711C183EC6AB
:10470800B70780013EC81C183ECA3C0800453ED485
:10471800AA8402CC02CE02D002D202D6FD3B835735
:10472800050035592316F102EF4000172307A102AF
:1047380009C48357440091E721594A855D616FD0C8
:104748005FE90355640052055181EFF040752A89ED
:1047580065D58347B40093F7070E89C7130584010D
:10476800EF00510E83574400231EF1008347840055
:104778002301F1025C4003550900D98313F70708A8
:1047880083471102231CA10093F7F707D98FA300D1
:10479800F10283572900231DF1005C40F18313F7D0
:1047A80017008347F102F99BD98FA307F102EF8025
:1047B800A0282AD251D18347940068001397570044
:1047C8008347B400FD8BD98FA305F4001C4803D69A
:1047D80047008C43EF10F027A687174703001307FD
:1047E80067F5740005464C102685EFF03FA42A892A
:1047F80029D58347B400A685FD8BA305F400B935F8
:104808002DBFEFD2DFDA832485FE2A844111268565
:10481800E93B834734FF93F7070E95C32AC62685DD
:10482800013B19C9834734FFB245FD8BA309F4FE48
:1048380081C52285EF00817F41016FD09FD96DDD51
:104848008327C4FF2685829765F9834734FF93F74A
:10485800070E81C72285EF00E17E032584FE613DB6
:10486800E1BFEFD2DFD19C4141112A8903C707007C
:1048780089472E8493566700638CF6020D4663823F
:10488800C6049307F0076302F7022E85EF10B028DD
:10489800AA848149C16B130C4900970700209387AC
:1048A800E7B79C43984763ECE90241016FD0FFD01A
:1048B80003D745008547E3FAE7FE2E85EF109029D8
:1048C800C1BF03D74500E3F2E7FE2E85EF10B02401
:1048D800AA842285EF109025C204C98C5DBFDC47ED
:1048E8000355A900139A49003E9A93170501C187F9
:1048F800635DF00083570A006395A70263E57403BC
:104908008327CA00034D5A001DA0A1672167A98FFC
:104918001307F7EFE374F7FE63950900EFF09FA123
:1049280071FD85099DBF83278A00034D4A00835D79
:10493800A90003576900216A138BC7003AC6814A48
:1049480033CA4D01631E5D0197070020938787AD29
:104958009C43E1DBA2866286814526858297D1B792
:10496800A1679387F7EF930C4BFF63F04703B245BA
:104978005A85EFF0BF8619CD03278B00104719CA57
:1049880010436380C4023107D5BFEE856685EFF01A
:10499800BF9E71FD93861A0093FAF60F130B0B0254
:1049A80055B7835644005C43E3EDF6F622853AC6D4
:1049B800EF107005A1679387D7042A8A035D440026
:1049C800324763E897008347D90093E707F8A306BF
:1049D800F9001C4766852286E2858297C1670844EC
:1049E800FD17337AFA00529508C02312A40115BFA7
:1049F80097070020938787A29843814715C31447D8
:104A0800814763FFD500939745004C47BE9519C968
:104A180003C7550081476375E600DC451606B29763
:104A28003E85828003C745008147E37BE6FE160684
:104A38009C45F5B7EFD21FB6AA892E8A8144970AFA
:104A48000020938AAA9D83A70A00984763E4E4009C
:104A58006FD09FB7DC471394440001493E9413BBC1
:104A6800140083474400634BF900014913BB140049
:104A780083475400634FF9008504F1B7084493173E
:104A880059005287DA860146A2853E958299050922
:104A9800C9BF4844931759005287DA860546A2854C
:104AA8003E9582990509E9B7EFD27FB0814517F5A0
:104AB800FFFF1305856097070020239307969D3F06
:104AC8006FD03FB197070020938747959C4399CBB8
:104AD800EFD2FFAD814517F5FFFF1305055E993F3E
:104AE8006FD03FAF8280EFD2FFAA41112315E100BA
:104AF8002E89B284B6893A8681460147ED452A84D3
:104B0800EF70C1702AC61DCD0356A100CE85EF20D7
:104B18000342CA852285EF701135058915C12285A2
:104B280001462C0023149100EF80B11B2A8409C58B
:104B3800ED452800EF705105228541016FD0DFA8AF
:104B48004944FDB76554CDBF03A34500170E0020A7
:104B5800035ECE8D03481300034303002208336825
:104B680068006312AE0AEFD2FFA242081358084148
:104B7800BE8983D7A50013130801411113530301FC
:104B88008D682314F100230001002311610023150F
:104B9800010023160100231701000AC29387B8AD4C
:104BA80032843A89B6846308F8049387D8AD6304DD
:104BB800F804138328908548631B680285470147DA
:104BC8008946EF70912F970700209387A7889C4309
:104BD80003A8C700630C0800CE874A87A6862286EA
:104BE8004C00170500201305658402988148468506
:104BF80041016FD07F9D970700209387A7859C432D
:104C080003A88700C1BF954846858280858985C9E4
:104C1800EFD2FF9917060020130616818545130564
:104C28005030EF90A21817E6FF1F1306E69B814548
:104C38001305F00FEF80926D01456FD09F990145E4
:104C48008280EFD2DF96AA84ADC903C725009547B5
:104C58002E84631FF7001945EF00F00017F7FF1FB8
:104C68001307C77C5C430355A400BDC3EF90623FA4
:104C78000347240099476312F7041945EF00A07E03
:104C88000357440097F7FF1F83D7477A17F4FF1F8E
:104C98001304C4796313F70297F7FF1F9387877B81
:104CA8009C4391C7DC4381C78145228582975C403C
:104CB800FD1717F7FF1F232DF776EF00607B04C958
:104CC800EF00007B81455105EF0041366FD07F90A2
:104CD80097F7FF1F239CA774854797F6FF1F23A903
:104CE800F67497F7FF1F9387E7769C43D1D39C43CD
:104CF800C1D381453A858297A5BF5C4185075CC1D0
:104D080082805C41FD175CC1828097F7FF1F23A357
:104D1800A7748280EFD2BF89EF109165954733055C
:104D2800F50281450D816FD0DF8AEFD25F88EF10E1
:104D3800316495473305F5020D816FD09F89EFD215
:104D48001F87170500001305A5ECEF20214E17F467
:104D5800FF1F1304646D2300A400A9451D45EF40FF
:104D680021589305C0122145EF408157930540060D
:104D78003545EF40E156034504008545EF103162A3
:104D88006FD03F85EFD2BF8203550500EF30211A5F
:104D98006FD03F84EFD2BF81035505003287AE86BE
:104DA80017E6FF1F0356A68997F5FF1F93858568A9
:104DB8001D3B6FD01F82EFD28FFF0355050032874E
:104DC800AE8617E6FF1F0356868D97F5FF1F93855E
:104DD8006567113B6FD0EFFFEFD26FFDEF90622850
:104DE8006FD02FFFEFD2AFFC416597F5FF1F93857A
:104DF80065647D15EF90216097D6FF1F9386C67D69
:104E08004146994517D5FF1F1305C57EEF90C1533D
:104E18006FD02FFCEFD2AFF9416597F5FF1F93854F
:104E280065627D15EF90215D97D6FF1F9386C67A40
:104E38004146994517E5FF1F1305C581EF90C150FD
:104E48006FD02FF9EFD2AFF697F5FF1F9385855EE8
:104E5800EF90615A01456FD0CFF7EFD24FF58145FA
:104E680017D5FF1F0355A579EF70313E6FD06FF648
:104E7800EFD2EFF397F5FF1F9385C55CEF90A1572D
:104E880001456FD00FF5EFD28FF2814517D5FF1F7F
:104E98000355E57CEF70713B6FD0AFF3EFD22FF184
:104EA800411185472A892E84B28485451306F1006D
:104EB80013050040A307F100EF70D256835529006F
:104EC8000D45EF40E141835549001145EF4041410F
:104ED80013061900854513058030EF80326D1040A8
:104EE8008355440013056030EF80526C9DC883D50C
:104EF800440085C9904013057030EF80326B8547B8
:104F080017F6FF1F1306565285451305503017F73D
:104F1800FF1FA30BF750EF807269014541016FD065
:104F28004FEB104083554400F9B7EFD24FE817F61E
:104F3800FF1F1306764F85451305503023000600E2
:104F4800EF80D26601456FD0CFE8EFD24FE62E85CD
:104F5800EF60C06CEF6010136FD0AFE7EFD22FE5B2
:104F6800EF60F01C6FD0EFE65C49E1175CC95CC5E7
:104F780083572501A1072319F50083570501A107C8
:104F88002318F5008280F1473305F50297F7FF1FD4
:104F98009387874D9C433E9582808D476317F6061D
:104FA80003D74600854763F2E706EFD24FE0368520
:104FB80036842E89EF10203639C183574400931464
:104FC8000501C18063ED97022285EF10C034FD14FE
:104FD800231294009307A002630EF5009307B00212
:104FE8006301F50293079002631BF5002285EFC069
:104FF800907F31A00146CA852285EF80A0136FD02B
:105008004FDD2285EF001072DDBF8280EFD22FDAEC
:1050180017F7FF1F1307C7475C439946411163EA17
:10502800F608973603009386E6738A07B6979C437B
:10503800B69782871C4B8946BD8B6385D7009546FA
:105048006399D706DD3541016FD0AFD81C4B0947AE
:10505800BD8B6385E7001547E397E7FE914717F790
:10506800FF1F2329F74297F7FF1F83C7674297F56A
:10507800FF1F83D50542B385F50217F5FF1F1305FA
:105088006542EFF0B07A894717F7FF1F2324F740EE
:105098005DBF954717F7FF1F232EF73E65B71C4BDB
:1050A8008546BD8BF517E3E0F6FA97F7FF1F23A3B4
:1050B800073E1C4799E38547C1BF9443584717F6F5
:1050C800FF1F232BD63C6396E70017F7FF1F232704
:1050D800D73C03C7470003D5670023A0070097F60E
:1050E800FF1F2387E63A17F7FF1F2314A73A8047C5
:1050F800C447A3040100EF10735397370300938745
:1051080067689043D443EF10B301EF10734C954791
:105118003355F5022686A285420541812315A10053
:105128002316A1002800EFF07FD78D47B1BF97F66F
:10513800FF1F9386A6339C42014599CF9843D442DA
:1051480017F6FF1F2324E6326396D70097F6FF1F52
:1051580023A0E6321385C7FE8280EFD24FC5B1295E
:105168007144330585029145EF70E05401E56555BA
:105178006FD02FC697F7FF1F23A6A72E3D2933050B
:1051880085029145EF7020537DD197F7FF1F23AD1E
:10519800A72C252197F7FF1F2390A72C392997F7CC
:1051A800FF1F239CA72A973703009387276017F7C9
:1051B800FF1F2327F72A97070000938727DB17F796
:1051C800FF1F232DF728014565B7EFD24FBEAA85EB
:1051D80017F5FF1F13054528EF10C0276FD06FBFC5
:1051E800EFD2EFBCDD37EF10602897F7FF1F9387EA
:1051F800E7279C4381CF1387C7FE09CB83D5C7FF19
:1052080017F5FF1F13050527EFF050626FD06FBC2D
:10521800EFD2EFB9293F11C9834785002A8493F754
:10522800070491E70355E500653F6FD08FBA8347C0
:10523800C5009304450117F9FF1F1309292385E3C6
:10524800832709005CC997F7FF1F23A197228327AB
:105258004900E1FF97F7FF1F23AC9720F9B7FD1727
:105268002306F5006105EF6000728307840063C9B7
:1052780007048347840093E707F82304F400EF103A
:10528800A17C4205A94741813375F5028347840013
:1052980093F707FCC98F2304F4008347D4003E9595
:1052A8001C402318A40089CF984319CB8347C40016
:1052B8005040814585073305F50242054181029733
:1052C800832709005CC897F7FF1F23A1971A832734
:1052D800490089E797F7FF1F23AC97188347C40055
:1052E800A9D78355040117F5FF1F1305A518EFF07B
:1052F800F05325BFEFD2AFAB97F7FF1F9387872FE8
:105308009C4701448583858B81EFAE84B2853A86BC
:10531800EF10201B2A8409C5EF102012829408CCB4
:1053280022856FD00FABEFD2EFA641112E8932C67E
:10533800AA89252E324713060502CA86970500005A
:105348009385A5C417F5FF1F1305051165372A8432
:1053580029CD9304C50099211946AA852685EF0011
:10536800506F85452685EF00306C1735030013050F
:1053780025414E95834505002685EF00706F5C48F2
:1053880031468145A1075CC85CC483572401E117F5
:105398002319F40083570401E1172318F4001C4C67
:1053A8003E85EFD0CFA3A3042501228541016FD00C
:1053B800AFA1EFD2CF9F4111AA842EC632C4EF10FD
:1053C800200A004DB2452246834784000CC050C0D5
:1053D80093F7F70393E707042304F4002318040062
:1053E8002685EF10800583479400A9462317A4005B
:1053F80013D7370005073307D7029D8B8507230688
:10540800F400A306E40083C70401D8488507230FE6
:10541800F7FE17F7FF1F130767055843232A0400F1
:10542800930744011DEB17F7FF1F2323F70417F712
:10543800FF1F232DF70217F4FF1F1304A40322856F
:10544800EFF090341C44858B5D8D09E581452285FC
:10545800EFF0D03D41016FD0CF971CC317F7FF1F66
:105468002328F700C9BF97F7FF1F23A5A70282804B
:1054780017F5FF1F1305C5018280EFD24F939705DB
:1054880000009385C5B10145EFF03FAC01456FD0F1
:105498004F94EFD2CF91EFF07FAC6FD08F938347CB
:1054A800C500A1E7EFD2AF902A840355E500EFF0DD
:1054B800DFD115C98347840093F7F7FB2304F40071
:1054C8001C4091C7DC4381C74C4001458297EFF0EF
:1054D8001FC617F5FF1F1305E5F9EFF0B0360355A2
:1054E800E400EFF0FFCF6FD0CF8E828097F7FF1FD9
:1054F800938707FA98471DEFD847232005001DEF2B
:1055080017F7FF1F232CA7F817F7FF1F2326A7F865
:10551800DC4305476376F700F59B11476396E7027E
:10552800EFD2EF8817F5FF1F1305C5F7EFF0B02E80
:105538006FD02F8A630AA700184375BF08C317F7EF
:10554800FF1F232DA7F4E9B78280EFD24F8697F784
:10555800FF1F9387E7F323A4070023A607009705F7
:1055680000009385E5AA17F5FF1F1305A5F3EFF0D3
:1055780010206FD00F86EFD28F8397F7FF1F938786
:10558800E7EE970500009385E5C817F5FF1F13059B
:1055980065EE23A0070023A20700EFF0501D6FD08F
:1055A8004F831C4D91CBDC4381CBEFD24F80834599
:1055B800070082976FD0EF81828097F7FF1F93874C
:1055C800A7F09C4303C50700828097F7FF1F9387C6
:1055D800A7EF9C4303C51700828097F7FF1F9387A7
:1055E800A7EE9C4303C52700828097F7FF1F938788
:1055F800A7ED9C4303C54700828097F7FF1F938759
:10560800A7EC9C4303C53700828097F7FF1F938759
:10561800A7EB9C4303C55700828097F7FF1F93872A
:10562800A7EA9C4303C56700828097F7FF1F93870B
:10563800A7E99C4303C57700828097F7FF1F9387EC
:10564800A7E89C4303C58700828097F7FF1F9387CD
:10565800A7E79C4303C59700828097F7FF1F9387AE
:10566800A7E69C4303C5A700828097F7FF1F93878F
:10567800A7E59C4303C5B70011E11D45828097F754
:10568800FF1F938767E49C4303C5C700828097F791
:10569800FF1F938767E39C4303C5D700828097F772
:1056A800FF1F938767E29C4303C5E700828097F753
:1056B800FF1F938767E19C4303D50701828097F713
:1056C800FF1F938767E09C4303C52701828097F7F4
:1056D800FF1F938767DF9C4303D54701828097F7B5
:1056E800FF1F938767DE9C4303D56701828097F786
:1056F800FF1F938767DD9C4303D58701828097F757
:10570800FF1F938767DC9C4303C5A701828097F737
:10571800FF1F938767DB9C4303C5B701828097F718
:10572800FF1F938767DA9C4303C5C701828097F7F9
:10573800FF1F938767D99C4303C5D701828097F7DA
:10574800FF1F938767D89C438857828097F7FF1F6E
:10575800938787D79C4303D5C702828097F7FF1F9B
:10576800938787D69C4303D5E70219E11305800C7C
:10577800828097F7FF1F938727D59C4303C50703AC
:10578800828097F7FF1F938727D49C43C85B82804A
:1057980097F7FF1F9387C7D28843828097F7FF1F29
:1057A800938747D28843828019E17D558280F5DE50
:1057B800984265DFFDD917F7FF1F1307A7E31847BE
:1057C800AA877155058B6316072203C5070015477D
:1057D800E37DA7FC03C737001305F0057D17137792
:1057E800F70FE364E5FC03C35700E30003FC83C839
:1057F8006700E38C08FA03C77700494579171377E0
:10580800F70FE364E5FA03C7A70011481305F7FF8C
:105818001375F50FE36BA8F803CE97000D48130531
:10582800FEFF1375F50FE362A8F803C8B700630914
:10583800080065181378F80F1305600DE36705F77E
:1058480003C5C700794879151375F50FE36FA8F4F8
:1058580003C8D7000D457D181378F80FE36705F5E1
:1058680003D80701930E401751184208135808012E
:10587800E3ED0EF303C8E7007D181378F80FE3662D
:1058880005F303C827017D181378F80FE36F05F1B6
:1058980003C88700C54E75181378F80FE3E70EF1B3
:1058A80003D86701856E938EBEE06D1842081358C1
:1058B8000801E3EC0EEF03D847016D1842081358AE
:1058C8000801E3E40EEF03D887017918420813585A
:1058D8000801E36C05ED03C8A7017D181378F80FDC
:1058E800E36505ED03C5B7011D487D151375F50F73
:1058F800E36DA8EA03C5D701714879151375F50F4B
:10590800E365A8EA03D5E7011308E00F7D15420512
:105918004181E36CA8E803C5070249487915137566
:10592800F50FE364A8E883AE470237C534001308CF
:10593800F5BFE36CD8E703A88702130555BF5918CC
:10594800E36505E717F5FF1F232EC5B603C6050156
:1059580017F5FF1F232AF5B60545E378C5E403D8F4
:105968002501D04933760603E31106E403C6150181
:10597800E30D06E217F6FF1F2324B6B483C52700FC
:1059880001466387A50003C61700F1453306B60232
:1059980083C707039305C00272971A071307C70541
:1059A80016031A9796084697B387B70241553E974C
:1059B800329742074183636EE802EFC25FBF3685C4
:1059C800EF609059EFE060422A84EF80B0062A9495
:1059D800EFC0B0762A94EF6010712A94EFF0EFF7D9
:1059E8002A94EF20F0602A94EF50806122956FC0CE
:1059F8005FBE8280EFC2BFBB4111A307A100EF8049
:105A080080079305F100170500001305C5B9EFF0ED
:105A18006F82014541016FC0DFBBEFC2DFB617F4EB
:105A2800FF1F130424BD03288400795993681800C4
:105A380097F4FF1F23A414BD13781800631E0800F1
:105A4800BA84BE89368B328A2E89AA8AEFE0FF8C07
:105A58007D15269509E531594A856FC05FB6EFE097
:105A6800DF8B7D152695A167E357F5FE97F7FF1F96
:105A78009387070498433E8C814B11C70145EFD0AB
:105A8800E04C933B15004A85DA865686D285EF703E
:105A980070202A8911CD1C44F99B17F7FF1F232F6B
:105AA800F7B483270C00CDDBE3880BFA82976DB738
:105AB800268597F7FF1F23A107B4EFE0DF82414651
:105AC800CE8517F5FF1F130565BCEF104346EFA001
